{
	"Assignments/mapping-advance.sol": {
		"PurchaseContract": {
			"abi": [
				{
					"inputs": [],
					"stateMutability": "nonpayable",
					"type": "constructor"
				},
				{
					"inputs": [
						{
							"internalType": "uint256",
							"name": "itemId",
							"type": "uint256"
						}
					],
					"name": "getPrice",
					"outputs": [
						{
							"internalType": "uint256",
							"name": "",
							"type": "uint256"
						}
					],
					"stateMutability": "view",
					"type": "function"
				},
				{
					"inputs": [
						{
							"internalType": "address",
							"name": "",
							"type": "address"
						}
					],
					"name": "purchase",
					"outputs": [
						{
							"internalType": "uint256",
							"name": "",
							"type": "uint256"
						}
					],
					"stateMutability": "view",
					"type": "function"
				},
				{
					"inputs": [
						{
							"internalType": "uint256",
							"name": "itemId",
							"type": "uint256"
						}
					],
					"name": "purchaseItem",
					"outputs": [],
					"stateMutability": "payable",
					"type": "function"
				}
			],
			"devdoc": {
				"kind": "dev",
				"methods": {},
				"version": 1
			},
			"evm": {
				"assembly": "    /* \"Assignments/mapping-advance.sol\":62:834  contract PurchaseContract {... */\n  mstore(0x40, 0x80)\n    /* \"Assignments/mapping-advance.sol\":198:290  constructor() {... */\n  callvalue\n  dup1\n  iszero\n  tag_1\n  jumpi\n  0x00\n  dup1\n  revert\ntag_1:\n  pop\n    /* \"Assignments/mapping-advance.sol\":239:246  1 ether */\n  0x0de0b6b3a7640000\n    /* \"Assignments/mapping-advance.sol\":223:233  itemPrices */\n  0x01\n    /* \"Assignments/mapping-advance.sol\":223:236  itemPrices[1] */\n  0x00\n    /* \"Assignments/mapping-advance.sol\":234:235  1 */\n  0x01\n    /* \"Assignments/mapping-advance.sol\":223:236  itemPrices[1] */\n  dup2\n  mstore\n  0x20\n  add\n  swap1\n  dup2\n  mstore\n  0x20\n  add\n  0x00\n  keccak256\n    /* \"Assignments/mapping-advance.sol\":223:246  itemPrices[1] = 1 ether */\n  dup2\n  swap1\n  sstore\n  pop\n    /* \"Assignments/mapping-advance.sol\":274:281  2 ether */\n  0x1bc16d674ec80000\n    /* \"Assignments/mapping-advance.sol\":258:268  itemPrices */\n  0x01\n    /* \"Assignments/mapping-advance.sol\":258:271  itemPrices[2] */\n  0x00\n    /* \"Assignments/mapping-advance.sol\":269:270  2 */\n  0x02\n    /* \"Assignments/mapping-advance.sol\":258:271  itemPrices[2] */\n  dup2\n  mstore\n  0x20\n  add\n  swap1\n  dup2\n  mstore\n  0x20\n  add\n  0x00\n  keccak256\n    /* \"Assignments/mapping-advance.sol\":258:281  itemPrices[2] = 2 ether */\n  dup2\n  swap1\n  sstore\n  pop\n    /* \"Assignments/mapping-advance.sol\":62:834  contract PurchaseContract {... */\n  dataSize(sub_0)\n  dup1\n  dataOffset(sub_0)\n  0x00\n  codecopy\n  0x00\n  return\nstop\n\nsub_0: assembly {\n        /* \"Assignments/mapping-advance.sol\":62:834  contract PurchaseContract {... */\n      mstore(0x40, 0x80)\n      jumpi(tag_1, lt(calldatasize, 0x04))\n      shr(0xe0, calldataload(0x00))\n      dup1\n      0x25b31a97\n      eq\n      tag_2\n      jumpi\n      dup1\n      0xd38ea5bf\n      eq\n      tag_3\n      jumpi\n      dup1\n      0xe7572230\n      eq\n      tag_4\n      jumpi\n    tag_1:\n      0x00\n      dup1\n      revert\n        /* \"Assignments/mapping-advance.sol\":95:138  mapping(address => uint256) public purchase */\n    tag_2:\n      callvalue\n      dup1\n      iszero\n      tag_5\n      jumpi\n      0x00\n      dup1\n      revert\n    tag_5:\n      pop\n      tag_6\n      0x04\n      dup1\n      calldatasize\n      sub\n      dup2\n      add\n      swap1\n      tag_7\n      swap2\n      swap1\n      tag_8\n      jump\t// in\n    tag_7:\n      tag_9\n      jump\t// in\n    tag_6:\n      mload(0x40)\n      tag_10\n      swap2\n      swap1\n      tag_11\n      jump\t// in\n    tag_10:\n      mload(0x40)\n      dup1\n      swap2\n      sub\n      swap1\n      return\n        /* \"Assignments/mapping-advance.sol\":410:831  function purchaseItem(uint256 itemId) public payable {... */\n    tag_3:\n      tag_12\n      0x04\n      dup1\n      calldatasize\n      sub\n      dup2\n      add\n      swap1\n      tag_13\n      swap2\n      swap1\n      tag_14\n      jump\t// in\n    tag_13:\n      tag_15\n      jump\t// in\n    tag_12:\n      stop\n        /* \"Assignments/mapping-advance.sol\":296:404  function getPrice(uint256 itemId) public view returns (uint256) {... */\n    tag_4:\n      callvalue\n      dup1\n      iszero\n      tag_16\n      jumpi\n      0x00\n      dup1\n      revert\n    tag_16:\n      pop\n      tag_17\n      0x04\n      dup1\n      calldatasize\n      sub\n      dup2\n      add\n      swap1\n      tag_18\n      swap2\n      swap1\n      tag_14\n      jump\t// in\n    tag_18:\n      tag_19\n      jump\t// in\n    tag_17:\n      mload(0x40)\n      tag_20\n      swap2\n      swap1\n      tag_11\n      jump\t// in\n    tag_20:\n      mload(0x40)\n      dup1\n      swap2\n      sub\n      swap1\n      return\n        /* \"Assignments/mapping-advance.sol\":95:138  mapping(address => uint256) public purchase */\n    tag_9:\n      mstore(0x20, 0x00)\n      dup1\n      0x00\n      mstore\n      keccak256(0x00, 0x40)\n      0x00\n      swap2\n      pop\n      swap1\n      pop\n      sload\n      dup2\n      jump\t// out\n        /* \"Assignments/mapping-advance.sol\":410:831  function purchaseItem(uint256 itemId) public payable {... */\n    tag_15:\n        /* \"Assignments/mapping-advance.sol\":474:487  uint256 price */\n      0x00\n        /* \"Assignments/mapping-advance.sol\":490:506  getPrice(itemId) */\n      tag_22\n        /* \"Assignments/mapping-advance.sol\":499:505  itemId */\n      dup3\n        /* \"Assignments/mapping-advance.sol\":490:498  getPrice */\n      tag_19\n        /* \"Assignments/mapping-advance.sol\":490:506  getPrice(itemId) */\n      jump\t// in\n    tag_22:\n        /* \"Assignments/mapping-advance.sol\":474:506  uint256 price = getPrice(itemId) */\n      swap1\n      pop\n        /* \"Assignments/mapping-advance.sol\":530:531  0 */\n      0x00\n        /* \"Assignments/mapping-advance.sol\":521:526  price */\n      dup2\n        /* \"Assignments/mapping-advance.sol\":521:531  price == 0 */\n      sub\n        /* \"Assignments/mapping-advance.sol\":517:585  if (price == 0) {... */\n      tag_23\n      jumpi\n        /* \"Assignments/mapping-advance.sol\":548:573  revert(\"Invalid item ID\") */\n      mload(0x40)\n      0x08c379a000000000000000000000000000000000000000000000000000000000\n      dup2\n      mstore\n      0x04\n      add\n      tag_24\n      swap1\n      tag_25\n      jump\t// in\n    tag_24:\n      mload(0x40)\n      dup1\n      swap2\n      sub\n      swap1\n      revert\n        /* \"Assignments/mapping-advance.sol\":517:585  if (price == 0) {... */\n    tag_23:\n        /* \"Assignments/mapping-advance.sol\":616:621  price */\n      dup1\n        /* \"Assignments/mapping-advance.sol\":603:612  msg.value */\n      callvalue\n        /* \"Assignments/mapping-advance.sol\":603:621  msg.value >= price */\n      lt\n      iszero\n        /* \"Assignments/mapping-advance.sol\":595:649  require(msg.value >= price, \"Insufficient Ether sent\") */\n      tag_26\n      jumpi\n      mload(0x40)\n      0x08c379a000000000000000000000000000000000000000000000000000000000\n      dup2\n      mstore\n      0x04\n      add\n      tag_27\n      swap1\n      tag_28\n      jump\t// in\n    tag_27:\n      mload(0x40)\n      dup1\n      swap2\n      sub\n      swap1\n      revert\n    tag_26:\n        /* \"Assignments/mapping-advance.sol\":684:689  price */\n      dup1\n        /* \"Assignments/mapping-advance.sol\":660:668  purchase */\n      0x00\n        /* \"Assignments/mapping-advance.sol\":660:680  purchase[msg.sender] */\n      dup1\n        /* \"Assignments/mapping-advance.sol\":669:679  msg.sender */\n      caller\n        /* \"Assignments/mapping-advance.sol\":660:680  purchase[msg.sender] */\n      0xffffffffffffffffffffffffffffffffffffffff\n      and\n      0xffffffffffffffffffffffffffffffffffffffff\n      and\n      dup2\n      mstore\n      0x20\n      add\n      swap1\n      dup2\n      mstore\n      0x20\n      add\n      0x00\n      keccak256\n      0x00\n        /* \"Assignments/mapping-advance.sol\":660:689  purchase[msg.sender] += price */\n      dup3\n      dup3\n      sload\n      tag_29\n      swap2\n      swap1\n      tag_30\n      jump\t// in\n    tag_29:\n      swap3\n      pop\n      pop\n      dup2\n      swap1\n      sstore\n      pop\n        /* \"Assignments/mapping-advance.sol\":700:714  uint256 excess */\n      0x00\n        /* \"Assignments/mapping-advance.sol\":729:734  price */\n      dup2\n        /* \"Assignments/mapping-advance.sol\":717:726  msg.value */\n      callvalue\n        /* \"Assignments/mapping-advance.sol\":717:734  msg.value - price */\n      tag_31\n      swap2\n      swap1\n      tag_32\n      jump\t// in\n    tag_31:\n        /* \"Assignments/mapping-advance.sol\":700:734  uint256 excess = msg.value - price */\n      swap1\n      pop\n        /* \"Assignments/mapping-advance.sol\":758:759  0 */\n      0x00\n        /* \"Assignments/mapping-advance.sol\":749:755  excess */\n      dup2\n        /* \"Assignments/mapping-advance.sol\":749:759  excess > 0 */\n      gt\n        /* \"Assignments/mapping-advance.sol\":745:824  if (excess > 0) {... */\n      iszero\n      tag_33\n      jumpi\n        /* \"Assignments/mapping-advance.sol\":784:794  msg.sender */\n      caller\n        /* \"Assignments/mapping-advance.sol\":776:804  payable(msg.sender).transfer */\n      0xffffffffffffffffffffffffffffffffffffffff\n      and\n        /* \"Assignments/mapping-advance.sol\":776:812  payable(msg.sender).transfer(excess) */\n      0x08fc\n        /* \"Assignments/mapping-advance.sol\":805:811  excess */\n      dup3\n        /* \"Assignments/mapping-advance.sol\":776:812  payable(msg.sender).transfer(excess) */\n      swap1\n      dup2\n      iszero\n      mul\n      swap1\n      mload(0x40)\n      0x00\n      mload(0x40)\n      dup1\n      dup4\n      sub\n      dup2\n      dup6\n      dup9\n      dup9\n      call\n      swap4\n      pop\n      pop\n      pop\n      pop\n      iszero\n      dup1\n      iszero\n      tag_35\n      jumpi\n      returndatasize\n      0x00\n      dup1\n      returndatacopy\n      revert(0x00, returndatasize)\n    tag_35:\n      pop\n        /* \"Assignments/mapping-advance.sol\":745:824  if (excess > 0) {... */\n    tag_33:\n        /* \"Assignments/mapping-advance.sol\":463:831  {... */\n      pop\n      pop\n        /* \"Assignments/mapping-advance.sol\":410:831  function purchaseItem(uint256 itemId) public payable {... */\n      pop\n      jump\t// out\n        /* \"Assignments/mapping-advance.sol\":296:404  function getPrice(uint256 itemId) public view returns (uint256) {... */\n    tag_19:\n        /* \"Assignments/mapping-advance.sol\":351:358  uint256 */\n      0x00\n        /* \"Assignments/mapping-advance.sol\":378:388  itemPrices */\n      0x01\n        /* \"Assignments/mapping-advance.sol\":378:396  itemPrices[itemId] */\n      0x00\n        /* \"Assignments/mapping-advance.sol\":389:395  itemId */\n      dup4\n        /* \"Assignments/mapping-advance.sol\":378:396  itemPrices[itemId] */\n      dup2\n      mstore\n      0x20\n      add\n      swap1\n      dup2\n      mstore\n      0x20\n      add\n      0x00\n      keccak256\n      sload\n        /* \"Assignments/mapping-advance.sol\":371:396  return itemPrices[itemId] */\n      swap1\n      pop\n        /* \"Assignments/mapping-advance.sol\":296:404  function getPrice(uint256 itemId) public view returns (uint256) {... */\n      swap2\n      swap1\n      pop\n      jump\t// out\n        /* \"#utility.yul\":88:205   */\n    tag_38:\n        /* \"#utility.yul\":197:198   */\n      0x00\n        /* \"#utility.yul\":194:195   */\n      dup1\n        /* \"#utility.yul\":187:199   */\n      revert\n        /* \"#utility.yul\":334:460   */\n    tag_40:\n        /* \"#utility.yul\":371:378   */\n      0x00\n        /* \"#utility.yul\":411:453   */\n      0xffffffffffffffffffffffffffffffffffffffff\n        /* \"#utility.yul\":404:409   */\n      dup3\n        /* \"#utility.yul\":400:454   */\n      and\n        /* \"#utility.yul\":389:454   */\n      swap1\n      pop\n        /* \"#utility.yul\":334:460   */\n      swap2\n      swap1\n      pop\n      jump\t// out\n        /* \"#utility.yul\":466:562   */\n    tag_41:\n        /* \"#utility.yul\":503:510   */\n      0x00\n        /* \"#utility.yul\":532:556   */\n      tag_60\n        /* \"#utility.yul\":550:555   */\n      dup3\n        /* \"#utility.yul\":532:556   */\n      tag_40\n      jump\t// in\n    tag_60:\n        /* \"#utility.yul\":521:556   */\n      swap1\n      pop\n        /* \"#utility.yul\":466:562   */\n      swap2\n      swap1\n      pop\n      jump\t// out\n        /* \"#utility.yul\":568:690   */\n    tag_42:\n        /* \"#utility.yul\":641:665   */\n      tag_62\n        /* \"#utility.yul\":659:664   */\n      dup2\n        /* \"#utility.yul\":641:665   */\n      tag_41\n      jump\t// in\n    tag_62:\n        /* \"#utility.yul\":634:639   */\n      dup2\n        /* \"#utility.yul\":631:666   */\n      eq\n        /* \"#utility.yul\":621:684   */\n      tag_63\n      jumpi\n        /* \"#utility.yul\":680:681   */\n      0x00\n        /* \"#utility.yul\":677:678   */\n      dup1\n        /* \"#utility.yul\":670:682   */\n      revert\n        /* \"#utility.yul\":621:684   */\n    tag_63:\n        /* \"#utility.yul\":568:690   */\n      pop\n      jump\t// out\n        /* \"#utility.yul\":696:835   */\n    tag_43:\n        /* \"#utility.yul\":742:747   */\n      0x00\n        /* \"#utility.yul\":780:786   */\n      dup2\n        /* \"#utility.yul\":767:787   */\n      calldataload\n        /* \"#utility.yul\":758:787   */\n      swap1\n      pop\n        /* \"#utility.yul\":796:829   */\n      tag_65\n        /* \"#utility.yul\":823:828   */\n      dup2\n        /* \"#utility.yul\":796:829   */\n      tag_42\n      jump\t// in\n    tag_65:\n        /* \"#utility.yul\":696:835   */\n      swap3\n      swap2\n      pop\n      pop\n      jump\t// out\n        /* \"#utility.yul\":841:1170   */\n    tag_8:\n        /* \"#utility.yul\":900:906   */\n      0x00\n        /* \"#utility.yul\":949:951   */\n      0x20\n        /* \"#utility.yul\":937:946   */\n      dup3\n        /* \"#utility.yul\":928:935   */\n      dup5\n        /* \"#utility.yul\":924:947   */\n      sub\n        /* \"#utility.yul\":920:952   */\n      slt\n        /* \"#utility.yul\":917:1036   */\n      iszero\n      tag_67\n      jumpi\n        /* \"#utility.yul\":955:1034   */\n      tag_68\n      tag_38\n      jump\t// in\n    tag_68:\n        /* \"#utility.yul\":917:1036   */\n    tag_67:\n        /* \"#utility.yul\":1075:1076   */\n      0x00\n        /* \"#utility.yul\":1100:1153   */\n      tag_69\n        /* \"#utility.yul\":1145:1152   */\n      dup5\n        /* \"#utility.yul\":1136:1142   */\n      dup3\n        /* \"#utility.yul\":1125:1134   */\n      dup6\n        /* \"#utility.yul\":1121:1143   */\n      add\n        /* \"#utility.yul\":1100:1153   */\n      tag_43\n      jump\t// in\n    tag_69:\n        /* \"#utility.yul\":1090:1153   */\n      swap2\n      pop\n        /* \"#utility.yul\":1046:1163   */\n      pop\n        /* \"#utility.yul\":841:1170   */\n      swap3\n      swap2\n      pop\n      pop\n      jump\t// out\n        /* \"#utility.yul\":1176:1253   */\n    tag_44:\n        /* \"#utility.yul\":1213:1220   */\n      0x00\n        /* \"#utility.yul\":1242:1247   */\n      dup2\n        /* \"#utility.yul\":1231:1247   */\n      swap1\n      pop\n        /* \"#utility.yul\":1176:1253   */\n      swap2\n      swap1\n      pop\n      jump\t// out\n        /* \"#utility.yul\":1259:1377   */\n    tag_45:\n        /* \"#utility.yul\":1346:1370   */\n      tag_72\n        /* \"#utility.yul\":1364:1369   */\n      dup2\n        /* \"#utility.yul\":1346:1370   */\n      tag_44\n      jump\t// in\n    tag_72:\n        /* \"#utility.yul\":1341:1344   */\n      dup3\n        /* \"#utility.yul\":1334:1371   */\n      mstore\n        /* \"#utility.yul\":1259:1377   */\n      pop\n      pop\n      jump\t// out\n        /* \"#utility.yul\":1383:1605   */\n    tag_11:\n        /* \"#utility.yul\":1476:1480   */\n      0x00\n        /* \"#utility.yul\":1514:1516   */\n      0x20\n        /* \"#utility.yul\":1503:1512   */\n      dup3\n        /* \"#utility.yul\":1499:1517   */\n      add\n        /* \"#utility.yul\":1491:1517   */\n      swap1\n      pop\n        /* \"#utility.yul\":1527:1598   */\n      tag_74\n        /* \"#utility.yul\":1595:1596   */\n      0x00\n        /* \"#utility.yul\":1584:1593   */\n      dup4\n        /* \"#utility.yul\":1580:1597   */\n      add\n        /* \"#utility.yul\":1571:1577   */\n      dup5\n        /* \"#utility.yul\":1527:1598   */\n      tag_45\n      jump\t// in\n    tag_74:\n        /* \"#utility.yul\":1383:1605   */\n      swap3\n      swap2\n      pop\n      pop\n      jump\t// out\n        /* \"#utility.yul\":1611:1733   */\n    tag_46:\n        /* \"#utility.yul\":1684:1708   */\n      tag_76\n        /* \"#utility.yul\":1702:1707   */\n      dup2\n        /* \"#utility.yul\":1684:1708   */\n      tag_44\n      jump\t// in\n    tag_76:\n        /* \"#utility.yul\":1677:1682   */\n      dup2\n        /* \"#utility.yul\":1674:1709   */\n      eq\n        /* \"#utility.yul\":1664:1727   */\n      tag_77\n      jumpi\n        /* \"#utility.yul\":1723:1724   */\n      0x00\n        /* \"#utility.yul\":1720:1721   */\n      dup1\n        /* \"#utility.yul\":1713:1725   */\n      revert\n        /* \"#utility.yul\":1664:1727   */\n    tag_77:\n        /* \"#utility.yul\":1611:1733   */\n      pop\n      jump\t// out\n        /* \"#utility.yul\":1739:1878   */\n    tag_47:\n        /* \"#utility.yul\":1785:1790   */\n      0x00\n        /* \"#utility.yul\":1823:1829   */\n      dup2\n        /* \"#utility.yul\":1810:1830   */\n      calldataload\n        /* \"#utility.yul\":1801:1830   */\n      swap1\n      pop\n        /* \"#utility.yul\":1839:1872   */\n      tag_79\n        /* \"#utility.yul\":1866:1871   */\n      dup2\n        /* \"#utility.yul\":1839:1872   */\n      tag_46\n      jump\t// in\n    tag_79:\n        /* \"#utility.yul\":1739:1878   */\n      swap3\n      swap2\n      pop\n      pop\n      jump\t// out\n        /* \"#utility.yul\":1884:2213   */\n    tag_14:\n        /* \"#utility.yul\":1943:1949   */\n      0x00\n        /* \"#utility.yul\":1992:1994   */\n      0x20\n        /* \"#utility.yul\":1980:1989   */\n      dup3\n        /* \"#utility.yul\":1971:1978   */\n      dup5\n        /* \"#utility.yul\":1967:1990   */\n      sub\n        /* \"#utility.yul\":1963:1995   */\n      slt\n        /* \"#utility.yul\":1960:2079   */\n      iszero\n      tag_81\n      jumpi\n        /* \"#utility.yul\":1998:2077   */\n      tag_82\n      tag_38\n      jump\t// in\n    tag_82:\n        /* \"#utility.yul\":1960:2079   */\n    tag_81:\n        /* \"#utility.yul\":2118:2119   */\n      0x00\n        /* \"#utility.yul\":2143:2196   */\n      tag_83\n        /* \"#utility.yul\":2188:2195   */\n      dup5\n        /* \"#utility.yul\":2179:2185   */\n      dup3\n        /* \"#utility.yul\":2168:2177   */\n      dup6\n        /* \"#utility.yul\":2164:2186   */\n      add\n        /* \"#utility.yul\":2143:2196   */\n      tag_47\n      jump\t// in\n    tag_83:\n        /* \"#utility.yul\":2133:2196   */\n      swap2\n      pop\n        /* \"#utility.yul\":2089:2206   */\n      pop\n        /* \"#utility.yul\":1884:2213   */\n      swap3\n      swap2\n      pop\n      pop\n      jump\t// out\n        /* \"#utility.yul\":2219:2388   */\n    tag_48:\n        /* \"#utility.yul\":2303:2314   */\n      0x00\n        /* \"#utility.yul\":2337:2343   */\n      dup3\n        /* \"#utility.yul\":2332:2335   */\n      dup3\n        /* \"#utility.yul\":2325:2344   */\n      mstore\n        /* \"#utility.yul\":2377:2381   */\n      0x20\n        /* \"#utility.yul\":2372:2375   */\n      dup3\n        /* \"#utility.yul\":2368:2382   */\n      add\n        /* \"#utility.yul\":2353:2382   */\n      swap1\n      pop\n        /* \"#utility.yul\":2219:2388   */\n      swap3\n      swap2\n      pop\n      pop\n      jump\t// out\n        /* \"#utility.yul\":2394:2559   */\n    tag_49:\n        /* \"#utility.yul\":2534:2551   */\n      0x496e76616c6964206974656d2049440000000000000000000000000000000000\n        /* \"#utility.yul\":2530:2531   */\n      0x00\n        /* \"#utility.yul\":2522:2528   */\n      dup3\n        /* \"#utility.yul\":2518:2532   */\n      add\n        /* \"#utility.yul\":2511:2552   */\n      mstore\n        /* \"#utility.yul\":2394:2559   */\n      pop\n      jump\t// out\n        /* \"#utility.yul\":2565:2931   */\n    tag_50:\n        /* \"#utility.yul\":2707:2710   */\n      0x00\n        /* \"#utility.yul\":2728:2795   */\n      tag_87\n        /* \"#utility.yul\":2792:2794   */\n      0x0f\n        /* \"#utility.yul\":2787:2790   */\n      dup4\n        /* \"#utility.yul\":2728:2795   */\n      tag_48\n      jump\t// in\n    tag_87:\n        /* \"#utility.yul\":2721:2795   */\n      swap2\n      pop\n        /* \"#utility.yul\":2804:2897   */\n      tag_88\n        /* \"#utility.yul\":2893:2896   */\n      dup3\n        /* \"#utility.yul\":2804:2897   */\n      tag_49\n      jump\t// in\n    tag_88:\n        /* \"#utility.yul\":2922:2924   */\n      0x20\n        /* \"#utility.yul\":2917:2920   */\n      dup3\n        /* \"#utility.yul\":2913:2925   */\n      add\n        /* \"#utility.yul\":2906:2925   */\n      swap1\n      pop\n        /* \"#utility.yul\":2565:2931   */\n      swap2\n      swap1\n      pop\n      jump\t// out\n        /* \"#utility.yul\":2937:3356   */\n    tag_25:\n        /* \"#utility.yul\":3103:3107   */\n      0x00\n        /* \"#utility.yul\":3141:3143   */\n      0x20\n        /* \"#utility.yul\":3130:3139   */\n      dup3\n        /* \"#utility.yul\":3126:3144   */\n      add\n        /* \"#utility.yul\":3118:3144   */\n      swap1\n      pop\n        /* \"#utility.yul\":3190:3199   */\n      dup2\n        /* \"#utility.yul\":3184:3188   */\n      dup2\n        /* \"#utility.yul\":3180:3200   */\n      sub\n        /* \"#utility.yul\":3176:3177   */\n      0x00\n        /* \"#utility.yul\":3165:3174   */\n      dup4\n        /* \"#utility.yul\":3161:3178   */\n      add\n        /* \"#utility.yul\":3154:3201   */\n      mstore\n        /* \"#utility.yul\":3218:3349   */\n      tag_90\n        /* \"#utility.yul\":3344:3348   */\n      dup2\n        /* \"#utility.yul\":3218:3349   */\n      tag_50\n      jump\t// in\n    tag_90:\n        /* \"#utility.yul\":3210:3349   */\n      swap1\n      pop\n        /* \"#utility.yul\":2937:3356   */\n      swap2\n      swap1\n      pop\n      jump\t// out\n        /* \"#utility.yul\":3362:3535   */\n    tag_51:\n        /* \"#utility.yul\":3502:3527   */\n      0x496e73756666696369656e742045746865722073656e74000000000000000000\n        /* \"#utility.yul\":3498:3499   */\n      0x00\n        /* \"#utility.yul\":3490:3496   */\n      dup3\n        /* \"#utility.yul\":3486:3500   */\n      add\n        /* \"#utility.yul\":3479:3528   */\n      mstore\n        /* \"#utility.yul\":3362:3535   */\n      pop\n      jump\t// out\n        /* \"#utility.yul\":3541:3907   */\n    tag_52:\n        /* \"#utility.yul\":3683:3686   */\n      0x00\n        /* \"#utility.yul\":3704:3771   */\n      tag_93\n        /* \"#utility.yul\":3768:3770   */\n      0x17\n        /* \"#utility.yul\":3763:3766   */\n      dup4\n        /* \"#utility.yul\":3704:3771   */\n      tag_48\n      jump\t// in\n    tag_93:\n        /* \"#utility.yul\":3697:3771   */\n      swap2\n      pop\n        /* \"#utility.yul\":3780:3873   */\n      tag_94\n        /* \"#utility.yul\":3869:3872   */\n      dup3\n        /* \"#utility.yul\":3780:3873   */\n      tag_51\n      jump\t// in\n    tag_94:\n        /* \"#utility.yul\":3898:3900   */\n      0x20\n        /* \"#utility.yul\":3893:3896   */\n      dup3\n        /* \"#utility.yul\":3889:3901   */\n      add\n        /* \"#utility.yul\":3882:3901   */\n      swap1\n      pop\n        /* \"#utility.yul\":3541:3907   */\n      swap2\n      swap1\n      pop\n      jump\t// out\n        /* \"#utility.yul\":3913:4332   */\n    tag_28:\n        /* \"#utility.yul\":4079:4083   */\n      0x00\n        /* \"#utility.yul\":4117:4119   */\n      0x20\n        /* \"#utility.yul\":4106:4115   */\n      dup3\n        /* \"#utility.yul\":4102:4120   */\n      add\n        /* \"#utility.yul\":4094:4120   */\n      swap1\n      pop\n        /* \"#utility.yul\":4166:4175   */\n      dup2\n        /* \"#utility.yul\":4160:4164   */\n      dup2\n        /* \"#utility.yul\":4156:4176   */\n      sub\n        /* \"#utility.yul\":4152:4153   */\n      0x00\n        /* \"#utility.yul\":4141:4150   */\n      dup4\n        /* \"#utility.yul\":4137:4154   */\n      add\n        /* \"#utility.yul\":4130:4177   */\n      mstore\n        /* \"#utility.yul\":4194:4325   */\n      tag_96\n        /* \"#utility.yul\":4320:4324   */\n      dup2\n        /* \"#utility.yul\":4194:4325   */\n      tag_52\n      jump\t// in\n    tag_96:\n        /* \"#utility.yul\":4186:4325   */\n      swap1\n      pop\n        /* \"#utility.yul\":3913:4332   */\n      swap2\n      swap1\n      pop\n      jump\t// out\n        /* \"#utility.yul\":4338:4518   */\n    tag_53:\n        /* \"#utility.yul\":4386:4463   */\n      0x4e487b7100000000000000000000000000000000000000000000000000000000\n        /* \"#utility.yul\":4383:4384   */\n      0x00\n        /* \"#utility.yul\":4376:4464   */\n      mstore\n        /* \"#utility.yul\":4483:4487   */\n      0x11\n        /* \"#utility.yul\":4480:4481   */\n      0x04\n        /* \"#utility.yul\":4473:4488   */\n      mstore\n        /* \"#utility.yul\":4507:4511   */\n      0x24\n        /* \"#utility.yul\":4504:4505   */\n      0x00\n        /* \"#utility.yul\":4497:4512   */\n      revert\n        /* \"#utility.yul\":4524:4715   */\n    tag_30:\n        /* \"#utility.yul\":4564:4567   */\n      0x00\n        /* \"#utility.yul\":4583:4603   */\n      tag_99\n        /* \"#utility.yul\":4601:4602   */\n      dup3\n        /* \"#utility.yul\":4583:4603   */\n      tag_44\n      jump\t// in\n    tag_99:\n        /* \"#utility.yul\":4578:4603   */\n      swap2\n      pop\n        /* \"#utility.yul\":4617:4637   */\n      tag_100\n        /* \"#utility.yul\":4635:4636   */\n      dup4\n        /* \"#utility.yul\":4617:4637   */\n      tag_44\n      jump\t// in\n    tag_100:\n        /* \"#utility.yul\":4612:4637   */\n      swap3\n      pop\n        /* \"#utility.yul\":4660:4661   */\n      dup3\n        /* \"#utility.yul\":4657:4658   */\n      dup3\n        /* \"#utility.yul\":4653:4662   */\n      add\n        /* \"#utility.yul\":4646:4662   */\n      swap1\n      pop\n        /* \"#utility.yul\":4681:4684   */\n      dup1\n        /* \"#utility.yul\":4678:4679   */\n      dup3\n        /* \"#utility.yul\":4675:4685   */\n      gt\n        /* \"#utility.yul\":4672:4708   */\n      iszero\n      tag_101\n      jumpi\n        /* \"#utility.yul\":4688:4706   */\n      tag_102\n      tag_53\n      jump\t// in\n    tag_102:\n        /* \"#utility.yul\":4672:4708   */\n    tag_101:\n        /* \"#utility.yul\":4524:4715   */\n      swap3\n      swap2\n      pop\n      pop\n      jump\t// out\n        /* \"#utility.yul\":4721:4915   */\n    tag_32:\n        /* \"#utility.yul\":4761:4765   */\n      0x00\n        /* \"#utility.yul\":4781:4801   */\n      tag_104\n        /* \"#utility.yul\":4799:4800   */\n      dup3\n        /* \"#utility.yul\":4781:4801   */\n      tag_44\n      jump\t// in\n    tag_104:\n        /* \"#utility.yul\":4776:4801   */\n      swap2\n      pop\n        /* \"#utility.yul\":4815:4835   */\n      tag_105\n        /* \"#utility.yul\":4833:4834   */\n      dup4\n        /* \"#utility.yul\":4815:4835   */\n      tag_44\n      jump\t// in\n    tag_105:\n        /* \"#utility.yul\":4810:4835   */\n      swap3\n      pop\n        /* \"#utility.yul\":4859:4860   */\n      dup3\n        /* \"#utility.yul\":4856:4857   */\n      dup3\n        /* \"#utility.yul\":4852:4861   */\n      sub\n        /* \"#utility.yul\":4844:4861   */\n      swap1\n      pop\n        /* \"#utility.yul\":4883:4884   */\n      dup2\n        /* \"#utility.yul\":4877:4881   */\n      dup2\n        /* \"#utility.yul\":4874:4885   */\n      gt\n        /* \"#utility.yul\":4871:4908   */\n      iszero\n      tag_106\n      jumpi\n        /* \"#utility.yul\":4888:4906   */\n      tag_107\n      tag_53\n      jump\t// in\n    tag_107:\n        /* \"#utility.yul\":4871:4908   */\n    tag_106:\n        /* \"#utility.yul\":4721:4915   */\n      swap3\n      swap2\n      pop\n      pop\n      jump\t// out\n\n    auxdata: 0xa26469706673582212203329bc080b7927d893c5c7f1cb5671c4370bbadea4d8dd72366a84276fb6fba864736f6c634300081a0033\n}\n",
				"bytecode": {
					"linkReferences": {},
					"object": "6080604052348015600e575f80fd5b50670de0b6b3a764000060015f600181526020019081526020015f2081905550671bc16d674ec8000060015f600281526020019081526020015f20819055506104f58061005a5f395ff3fe608060405260043610610033575f3560e01c806325b31a9714610037578063d38ea5bf14610073578063e75722301461008f575b5f80fd5b348015610042575f80fd5b5061005d6004803603810190610058919061029b565b6100cb565b60405161006a91906102de565b60405180910390f35b61008d60048036038101906100889190610321565b6100df565b005b34801561009a575f80fd5b506100b560048036038101906100b09190610321565b610223565b6040516100c291906102de565b60405180910390f35b5f602052805f5260405f205f915090505481565b5f6100e982610223565b90505f810361012d576040517f08c379a0000000000000000000000000000000000000000000000000000000008152600401610124906103a6565b60405180910390fd5b80341015610170576040517f08c379a00000000000000000000000000000000000000000000000000000000081526004016101679061040e565b60405180910390fd5b805f803373ffffffffffffffffffffffffffffffffffffffff1673ffffffffffffffffffffffffffffffffffffffff1681526020019081526020015f205f8282546101bb9190610459565b925050819055505f81346101cf919061048c565b90505f81111561021e573373ffffffffffffffffffffffffffffffffffffffff166108fc8290811502906040515f60405180830381858888f1935050505015801561021c573d5f803e3d5ffd5b505b505050565b5f60015f8381526020019081526020015f20549050919050565b5f80fd5b5f73ffffffffffffffffffffffffffffffffffffffff82169050919050565b5f61026a82610241565b9050919050565b61027a81610260565b8114610284575f80fd5b50565b5f8135905061029581610271565b92915050565b5f602082840312156102b0576102af61023d565b5b5f6102bd84828501610287565b91505092915050565b5f819050919050565b6102d8816102c6565b82525050565b5f6020820190506102f15f8301846102cf565b92915050565b610300816102c6565b811461030a575f80fd5b50565b5f8135905061031b816102f7565b92915050565b5f602082840312156103365761033561023d565b5b5f6103438482850161030d565b91505092915050565b5f82825260208201905092915050565b7f496e76616c6964206974656d20494400000000000000000000000000000000005f82015250565b5f610390600f8361034c565b915061039b8261035c565b602082019050919050565b5f6020820190508181035f8301526103bd81610384565b9050919050565b7f496e73756666696369656e742045746865722073656e740000000000000000005f82015250565b5f6103f860178361034c565b9150610403826103c4565b602082019050919050565b5f6020820190508181035f830152610425816103ec565b9050919050565b7f4e487b71000000000000000000000000000000000000000000000000000000005f52601160045260245ffd5b5f610463826102c6565b915061046e836102c6565b92508282019050808211156104865761048561042c565b5b92915050565b5f610496826102c6565b91506104a1836102c6565b92508282039050818111156104b9576104b861042c565b5b9291505056fea26469706673582212203329bc080b7927d893c5c7f1cb5671c4370bbadea4d8dd72366a84276fb6fba864736f6c634300081a0033",
					"opcodes": "PUSH1 0x80 PUSH1 0x40 MSTORE CALLVALUE DUP1 ISZERO PUSH1 0xE JUMPI PUSH0 DUP1 REVERT JUMPDEST POP PUSH8 0xDE0B6B3A7640000 PUSH1 0x1 PUSH0 PUSH1 0x1 DUP2 MSTORE PUSH1 0x20 ADD SWAP1 DUP2 MSTORE PUSH1 0x20 ADD PUSH0 KECCAK256 DUP2 SWAP1 SSTORE POP PUSH8 0x1BC16D674EC80000 PUSH1 0x1 PUSH0 PUSH1 0x2 DUP2 MSTORE PUSH1 0x20 ADD SWAP1 DUP2 MSTORE PUSH1 0x20 ADD PUSH0 KECCAK256 DUP2 SWAP1 SSTORE POP PUSH2 0x4F5 DUP1 PUSH2 0x5A PUSH0 CODECOPY PUSH0 RETURN INVALID PUSH1 0x80 PUSH1 0x40 MSTORE PUSH1 0x4 CALLDATASIZE LT PUSH2 0x33 JUMPI PUSH0 CALLDATALOAD PUSH1 0xE0 SHR DUP1 PUSH4 0x25B31A97 EQ PUSH2 0x37 JUMPI DUP1 PUSH4 0xD38EA5BF EQ PUSH2 0x73 JUMPI DUP1 PUSH4 0xE7572230 EQ PUSH2 0x8F JUMPI JUMPDEST PUSH0 DUP1 REVERT JUMPDEST CALLVALUE DUP1 ISZERO PUSH2 0x42 JUMPI PUSH0 DUP1 REVERT JUMPDEST POP PUSH2 0x5D PUSH1 0x4 DUP1 CALLDATASIZE SUB DUP2 ADD SWAP1 PUSH2 0x58 SWAP2 SWAP1 PUSH2 0x29B JUMP JUMPDEST PUSH2 0xCB JUMP JUMPDEST PUSH1 0x40 MLOAD PUSH2 0x6A SWAP2 SWAP1 PUSH2 0x2DE JUMP JUMPDEST PUSH1 0x40 MLOAD DUP1 SWAP2 SUB SWAP1 RETURN JUMPDEST PUSH2 0x8D PUSH1 0x4 DUP1 CALLDATASIZE SUB DUP2 ADD SWAP1 PUSH2 0x88 SWAP2 SWAP1 PUSH2 0x321 JUMP JUMPDEST PUSH2 0xDF JUMP JUMPDEST STOP JUMPDEST CALLVALUE DUP1 ISZERO PUSH2 0x9A JUMPI PUSH0 DUP1 REVERT JUMPDEST POP PUSH2 0xB5 PUSH1 0x4 DUP1 CALLDATASIZE SUB DUP2 ADD SWAP1 PUSH2 0xB0 SWAP2 SWAP1 PUSH2 0x321 JUMP JUMPDEST PUSH2 0x223 JUMP JUMPDEST PUSH1 0x40 MLOAD PUSH2 0xC2 SWAP2 SWAP1 PUSH2 0x2DE JUMP JUMPDEST PUSH1 0x40 MLOAD DUP1 SWAP2 SUB SWAP1 RETURN JUMPDEST PUSH0 PUSH1 0x20 MSTORE DUP1 PUSH0 MSTORE PUSH1 0x40 PUSH0 KECCAK256 PUSH0 SWAP2 POP SWAP1 POP SLOAD DUP2 JUMP JUMPDEST PUSH0 PUSH2 0xE9 DUP3 PUSH2 0x223 JUMP JUMPDEST SWAP1 POP PUSH0 DUP2 SUB PUSH2 0x12D JUMPI PUSH1 0x40 MLOAD PUSH32 0x8C379A000000000000000000000000000000000000000000000000000000000 DUP2 MSTORE PUSH1 0x4 ADD PUSH2 0x124 SWAP1 PUSH2 0x3A6 JUMP JUMPDEST PUSH1 0x40 MLOAD DUP1 SWAP2 SUB SWAP1 REVERT JUMPDEST DUP1 CALLVALUE LT ISZERO PUSH2 0x170 JUMPI PUSH1 0x40 MLOAD PUSH32 0x8C379A000000000000000000000000000000000000000000000000000000000 DUP2 MSTORE PUSH1 0x4 ADD PUSH2 0x167 SWAP1 PUSH2 0x40E JUMP JUMPDEST PUSH1 0x40 MLOAD DUP1 SWAP2 SUB SWAP1 REVERT JUMPDEST DUP1 PUSH0 DUP1 CALLER PUSH20 0xFFFFFFFFFFFFFFFFFFFFFFFFFFFFFFFFFFFFFFFF AND PUSH20 0xFFFFFFFFFFFFFFFFFFFFFFFFFFFFFFFFFFFFFFFF AND DUP2 MSTORE PUSH1 0x20 ADD SWAP1 DUP2 MSTORE PUSH1 0x20 ADD PUSH0 KECCAK256 PUSH0 DUP3 DUP3 SLOAD PUSH2 0x1BB SWAP2 SWAP1 PUSH2 0x459 JUMP JUMPDEST SWAP3 POP POP DUP2 SWAP1 SSTORE POP PUSH0 DUP2 CALLVALUE PUSH2 0x1CF SWAP2 SWAP1 PUSH2 0x48C JUMP JUMPDEST SWAP1 POP PUSH0 DUP2 GT ISZERO PUSH2 0x21E JUMPI CALLER PUSH20 0xFFFFFFFFFFFFFFFFFFFFFFFFFFFFFFFFFFFFFFFF AND PUSH2 0x8FC DUP3 SWAP1 DUP2 ISZERO MUL SWAP1 PUSH1 0x40 MLOAD PUSH0 PUSH1 0x40 MLOAD DUP1 DUP4 SUB DUP2 DUP6 DUP9 DUP9 CALL SWAP4 POP POP POP POP ISZERO DUP1 ISZERO PUSH2 0x21C JUMPI RETURNDATASIZE PUSH0 DUP1 RETURNDATACOPY RETURNDATASIZE PUSH0 REVERT JUMPDEST POP JUMPDEST POP POP POP JUMP JUMPDEST PUSH0 PUSH1 0x1 PUSH0 DUP4 DUP2 MSTORE PUSH1 0x20 ADD SWAP1 DUP2 MSTORE PUSH1 0x20 ADD PUSH0 KECCAK256 SLOAD SWAP1 POP SWAP2 SWAP1 POP JUMP JUMPDEST PUSH0 DUP1 REVERT JUMPDEST PUSH0 PUSH20 0xFFFFFFFFFFFFFFFFFFFFFFFFFFFFFFFFFFFFFFFF DUP3 AND SWAP1 POP SWAP2 SWAP1 POP JUMP JUMPDEST PUSH0 PUSH2 0x26A DUP3 PUSH2 0x241 JUMP JUMPDEST SWAP1 POP SWAP2 SWAP1 POP JUMP JUMPDEST PUSH2 0x27A DUP2 PUSH2 0x260 JUMP JUMPDEST DUP2 EQ PUSH2 0x284 JUMPI PUSH0 DUP1 REVERT JUMPDEST POP JUMP JUMPDEST PUSH0 DUP2 CALLDATALOAD SWAP1 POP PUSH2 0x295 DUP2 PUSH2 0x271 JUMP JUMPDEST SWAP3 SWAP2 POP POP JUMP JUMPDEST PUSH0 PUSH1 0x20 DUP3 DUP5 SUB SLT ISZERO PUSH2 0x2B0 JUMPI PUSH2 0x2AF PUSH2 0x23D JUMP JUMPDEST JUMPDEST PUSH0 PUSH2 0x2BD DUP5 DUP3 DUP6 ADD PUSH2 0x287 JUMP JUMPDEST SWAP2 POP POP SWAP3 SWAP2 POP POP JUMP JUMPDEST PUSH0 DUP2 SWAP1 POP SWAP2 SWAP1 POP JUMP JUMPDEST PUSH2 0x2D8 DUP2 PUSH2 0x2C6 JUMP JUMPDEST DUP3 MSTORE POP POP JUMP JUMPDEST PUSH0 PUSH1 0x20 DUP3 ADD SWAP1 POP PUSH2 0x2F1 PUSH0 DUP4 ADD DUP5 PUSH2 0x2CF JUMP JUMPDEST SWAP3 SWAP2 POP POP JUMP JUMPDEST PUSH2 0x300 DUP2 PUSH2 0x2C6 JUMP JUMPDEST DUP2 EQ PUSH2 0x30A JUMPI PUSH0 DUP1 REVERT JUMPDEST POP JUMP JUMPDEST PUSH0 DUP2 CALLDATALOAD SWAP1 POP PUSH2 0x31B DUP2 PUSH2 0x2F7 JUMP JUMPDEST SWAP3 SWAP2 POP POP JUMP JUMPDEST PUSH0 PUSH1 0x20 DUP3 DUP5 SUB SLT ISZERO PUSH2 0x336 JUMPI PUSH2 0x335 PUSH2 0x23D JUMP JUMPDEST JUMPDEST PUSH0 PUSH2 0x343 DUP5 DUP3 DUP6 ADD PUSH2 0x30D JUMP JUMPDEST SWAP2 POP POP SWAP3 SWAP2 POP POP JUMP JUMPDEST PUSH0 DUP3 DUP3 MSTORE PUSH1 0x20 DUP3 ADD SWAP1 POP SWAP3 SWAP2 POP POP JUMP JUMPDEST PUSH32 0x496E76616C6964206974656D2049440000000000000000000000000000000000 PUSH0 DUP3 ADD MSTORE POP JUMP JUMPDEST PUSH0 PUSH2 0x390 PUSH1 0xF DUP4 PUSH2 0x34C JUMP JUMPDEST SWAP2 POP PUSH2 0x39B DUP3 PUSH2 0x35C JUMP JUMPDEST PUSH1 0x20 DUP3 ADD SWAP1 POP SWAP2 SWAP1 POP JUMP JUMPDEST PUSH0 PUSH1 0x20 DUP3 ADD SWAP1 POP DUP2 DUP2 SUB PUSH0 DUP4 ADD MSTORE PUSH2 0x3BD DUP2 PUSH2 0x384 JUMP JUMPDEST SWAP1 POP SWAP2 SWAP1 POP JUMP JUMPDEST PUSH32 0x496E73756666696369656E742045746865722073656E74000000000000000000 PUSH0 DUP3 ADD MSTORE POP JUMP JUMPDEST PUSH0 PUSH2 0x3F8 PUSH1 0x17 DUP4 PUSH2 0x34C JUMP JUMPDEST SWAP2 POP PUSH2 0x403 DUP3 PUSH2 0x3C4 JUMP JUMPDEST PUSH1 0x20 DUP3 ADD SWAP1 POP SWAP2 SWAP1 POP JUMP JUMPDEST PUSH0 PUSH1 0x20 DUP3 ADD SWAP1 POP DUP2 DUP2 SUB PUSH0 DUP4 ADD MSTORE PUSH2 0x425 DUP2 PUSH2 0x3EC JUMP JUMPDEST SWAP1 POP SWAP2 SWAP1 POP JUMP JUMPDEST PUSH32 0x4E487B7100000000000000000000000000000000000000000000000000000000 PUSH0 MSTORE PUSH1 0x11 PUSH1 0x4 MSTORE PUSH1 0x24 PUSH0 REVERT JUMPDEST PUSH0 PUSH2 0x463 DUP3 PUSH2 0x2C6 JUMP JUMPDEST SWAP2 POP PUSH2 0x46E DUP4 PUSH2 0x2C6 JUMP JUMPDEST SWAP3 POP DUP3 DUP3 ADD SWAP1 POP DUP1 DUP3 GT ISZERO PUSH2 0x486 JUMPI PUSH2 0x485 PUSH2 0x42C JUMP JUMPDEST JUMPDEST SWAP3 SWAP2 POP POP JUMP JUMPDEST PUSH0 PUSH2 0x496 DUP3 PUSH2 0x2C6 JUMP JUMPDEST SWAP2 POP PUSH2 0x4A1 DUP4 PUSH2 0x2C6 JUMP JUMPDEST SWAP3 POP DUP3 DUP3 SUB SWAP1 POP DUP2 DUP2 GT ISZERO PUSH2 0x4B9 JUMPI PUSH2 0x4B8 PUSH2 0x42C JUMP JUMPDEST JUMPDEST SWAP3 SWAP2 POP POP JUMP INVALID LOG2 PUSH5 0x6970667358 0x22 SLT KECCAK256 CALLER 0x29 0xBC ADDMOD SIGNEXTEND PUSH26 0x27D893C5C7F1CB5671C4370BBADEA4D8DD72366A84276FB6FBA8 PUSH5 0x736F6C6343 STOP ADDMOD BYTE STOP CALLER "
				},
				"gasEstimates": {
					"creation": {
						"codeDepositCost": "253800",
						"executionCost": "44672",
						"totalCost": "298472"
					},
					"external": {
						"getPrice(uint256)": "infinite",
						"purchase(address)": "2779",
						"purchaseItem(uint256)": "infinite"
					}
				},
				"methodIdentifiers": {
					"getPrice(uint256)": "e7572230",
					"purchase(address)": "25b31a97",
					"purchaseItem(uint256)": "d38ea5bf"
				}
			},
			"storageLayout": {
				"storage": [
					{
						"astId": 5,
						"contract": "Assignments/mapping-advance.sol:PurchaseContract",
						"label": "purchase",
						"offset": 0,
						"slot": "0",
						"type": "t_mapping(t_address,t_uint256)"
					},
					{
						"astId": 9,
						"contract": "Assignments/mapping-advance.sol:PurchaseContract",
						"label": "itemPrices",
						"offset": 0,
						"slot": "1",
						"type": "t_mapping(t_uint256,t_uint256)"
					}
				],
				"types": {
					"t_address": {
						"encoding": "inplace",
						"label": "address",
						"numberOfBytes": "20"
					},
					"t_mapping(t_address,t_uint256)": {
						"encoding": "mapping",
						"key": "t_address",
						"label": "mapping(address => uint256)",
						"numberOfBytes": "32",
						"value": "t_uint256"
					},
					"t_mapping(t_uint256,t_uint256)": {
						"encoding": "mapping",
						"key": "t_uint256",
						"label": "mapping(uint256 => uint256)",
						"numberOfBytes": "32",
						"value": "t_uint256"
					},
					"t_uint256": {
						"encoding": "inplace",
						"label": "uint256",
						"numberOfBytes": "32"
					}
				}
			},
			"userdoc": {
				"kind": "user",
				"methods": {},
				"version": 1
			}
		}
	}
}