{
	"Assignments/program-21.sol": {
		"Compare": {
			"abi": [
				{
					"inputs": [],
					"name": "compare_str",
					"outputs": [
						{
							"internalType": "string",
							"name": "",
							"type": "string"
						}
					],
					"stateMutability": "view",
					"type": "function"
				},
				{
					"inputs": [
						{
							"internalType": "string",
							"name": "_msg1",
							"type": "string"
						},
						{
							"internalType": "string",
							"name": "_msg2",
							"type": "string"
						}
					],
					"name": "store",
					"outputs": [],
					"stateMutability": "nonpayable",
					"type": "function"
				}
			],
			"devdoc": {
				"kind": "dev",
				"methods": {},
				"version": 1
			},
			"evm": {
				"assembly": "    /* \"Assignments/program-21.sol\":62:530  contract Compare{... */\n  mstore(0x40, 0x80)\n  callvalue\n  dup1\n  iszero\n  tag_1\n  jumpi\n  0x00\n  dup1\n  revert\ntag_1:\n  pop\n  dataSize(sub_0)\n  dup1\n  dataOffset(sub_0)\n  0x00\n  codecopy\n  0x00\n  return\nstop\n\nsub_0: assembly {\n        /* \"Assignments/program-21.sol\":62:530  contract Compare{... */\n      mstore(0x40, 0x80)\n      callvalue\n      dup1\n      iszero\n      tag_1\n      jumpi\n      0x00\n      dup1\n      revert\n    tag_1:\n      pop\n      jumpi(tag_2, lt(calldatasize, 0x04))\n      shr(0xe0, calldataload(0x00))\n      dup1\n      0x746f7ed5\n      eq\n      tag_3\n      jumpi\n      dup1\n      0xf641090c\n      eq\n      tag_4\n      jumpi\n    tag_2:\n      0x00\n      dup1\n      revert\n        /* \"Assignments/program-21.sol\":242:527  function compare_str() public view returns(string memory){... */\n    tag_3:\n      tag_5\n      tag_6\n      jump\t// in\n    tag_5:\n      mload(0x40)\n      tag_7\n      swap2\n      swap1\n      tag_8\n      jump\t// in\n    tag_7:\n      mload(0x40)\n      dup1\n      swap2\n      sub\n      swap1\n      return\n        /* \"Assignments/program-21.sol\":121:236  function store(string memory _msg1, string memory _msg2) public{... */\n    tag_4:\n      tag_9\n      0x04\n      dup1\n      calldatasize\n      sub\n      dup2\n      add\n      swap1\n      tag_10\n      swap2\n      swap1\n      tag_11\n      jump\t// in\n    tag_10:\n      tag_12\n      jump\t// in\n    tag_9:\n      stop\n        /* \"Assignments/program-21.sol\":242:527  function compare_str() public view returns(string memory){... */\n    tag_6:\n        /* \"Assignments/program-21.sol\":285:298  string memory */\n      0x60\n        /* \"Assignments/program-21.sol\":377:381  msg2 */\n      0x01\n        /* \"Assignments/program-21.sol\":360:382  abi.encodePacked(msg2) */\n      add(0x20, mload(0x40))\n      tag_14\n      swap2\n      swap1\n      tag_15\n      jump\t// in\n    tag_14:\n      mload(0x40)\n      0x20\n      dup2\n      dup4\n      sub\n      sub\n      dup2\n      mstore\n      swap1\n      0x40\n      mstore\n        /* \"Assignments/program-21.sol\":350:383  keccak256(abi.encodePacked(msg2)) */\n      dup1\n      mload\n      swap1\n      0x20\n      add\n      keccak256\n        /* \"Assignments/program-21.sol\":340:344  msg1 */\n      0x00\n        /* \"Assignments/program-21.sol\":323:345  abi.encodePacked(msg1) */\n      add(0x20, mload(0x40))\n      tag_16\n      swap2\n      swap1\n      tag_15\n      jump\t// in\n    tag_16:\n      mload(0x40)\n      0x20\n      dup2\n      dup4\n      sub\n      sub\n      dup2\n      mstore\n      swap1\n      0x40\n      mstore\n        /* \"Assignments/program-21.sol\":313:346  keccak256(abi.encodePacked(msg1)) */\n      dup1\n      mload\n      swap1\n      0x20\n      add\n      keccak256\n        /* \"Assignments/program-21.sol\":313:383  keccak256(abi.encodePacked(msg1)) == keccak256(abi.encodePacked(msg2)) */\n      sub\n        /* \"Assignments/program-21.sol\":310:520  if(keccak256(abi.encodePacked(msg1)) == keccak256(abi.encodePacked(msg2))){... */\n      tag_17\n      jumpi\n        /* \"Assignments/program-21.sol\":399:431  return \"msg1 and msg2 are equal\" */\n      mload(0x40)\n      dup1\n      0x40\n      add\n      0x40\n      mstore\n      dup1\n      0x17\n      dup2\n      mstore\n      0x20\n      add\n      0x6d73673120616e64206d7367322061726520657175616c000000000000000000\n      dup2\n      mstore\n      pop\n      swap1\n      pop\n      jump(tag_13)\n        /* \"Assignments/program-21.sol\":310:520  if(keccak256(abi.encodePacked(msg1)) == keccak256(abi.encodePacked(msg2))){... */\n    tag_17:\n        /* \"Assignments/program-21.sol\":472:508  return \"msg1 and msg2 are not equal\" */\n      mload(0x40)\n      dup1\n      0x40\n      add\n      0x40\n      mstore\n      dup1\n      0x1b\n      dup2\n      mstore\n      0x20\n      add\n      0x6d73673120616e64206d73673220617265206e6f7420657175616c0000000000\n      dup2\n      mstore\n      pop\n      swap1\n      pop\n        /* \"Assignments/program-21.sol\":242:527  function compare_str() public view returns(string memory){... */\n    tag_13:\n      swap1\n      jump\t// out\n        /* \"Assignments/program-21.sol\":121:236  function store(string memory _msg1, string memory _msg2) public{... */\n    tag_12:\n        /* \"Assignments/program-21.sol\":201:206  _msg1 */\n      dup2\n        /* \"Assignments/program-21.sol\":195:199  msg1 */\n      0x00\n        /* \"Assignments/program-21.sol\":195:206  msg1= _msg1 */\n      swap1\n      dup2\n      tag_20\n      swap2\n      swap1\n      tag_21\n      jump\t// in\n    tag_20:\n      pop\n        /* \"Assignments/program-21.sol\":223:228  _msg2 */\n      dup1\n        /* \"Assignments/program-21.sol\":217:221  msg2 */\n      0x01\n        /* \"Assignments/program-21.sol\":217:228  msg2= _msg2 */\n      swap1\n      dup2\n      tag_22\n      swap2\n      swap1\n      tag_21\n      jump\t// in\n    tag_22:\n      pop\n        /* \"Assignments/program-21.sol\":121:236  function store(string memory _msg1, string memory _msg2) public{... */\n      pop\n      pop\n      jump\t// out\n        /* \"#utility.yul\":7:106   */\n    tag_23:\n        /* \"#utility.yul\":59:65   */\n      0x00\n        /* \"#utility.yul\":93:98   */\n      dup2\n        /* \"#utility.yul\":87:99   */\n      mload\n        /* \"#utility.yul\":77:99   */\n      swap1\n      pop\n        /* \"#utility.yul\":7:106   */\n      swap2\n      swap1\n      pop\n      jump\t// out\n        /* \"#utility.yul\":112:281   */\n    tag_24:\n        /* \"#utility.yul\":196:207   */\n      0x00\n        /* \"#utility.yul\":230:236   */\n      dup3\n        /* \"#utility.yul\":225:228   */\n      dup3\n        /* \"#utility.yul\":218:237   */\n      mstore\n        /* \"#utility.yul\":270:274   */\n      0x20\n        /* \"#utility.yul\":265:268   */\n      dup3\n        /* \"#utility.yul\":261:275   */\n      add\n        /* \"#utility.yul\":246:275   */\n      swap1\n      pop\n        /* \"#utility.yul\":112:281   */\n      swap3\n      swap2\n      pop\n      pop\n      jump\t// out\n        /* \"#utility.yul\":287:426   */\n    tag_25:\n        /* \"#utility.yul\":376:382   */\n      dup3\n        /* \"#utility.yul\":371:374   */\n      dup2\n        /* \"#utility.yul\":366:369   */\n      dup4\n        /* \"#utility.yul\":360:383   */\n      mcopy\n        /* \"#utility.yul\":417:418   */\n      0x00\n        /* \"#utility.yul\":408:414   */\n      dup4\n        /* \"#utility.yul\":403:406   */\n      dup4\n        /* \"#utility.yul\":399:415   */\n      add\n        /* \"#utility.yul\":392:419   */\n      mstore\n        /* \"#utility.yul\":287:426   */\n      pop\n      pop\n      pop\n      jump\t// out\n        /* \"#utility.yul\":432:534   */\n    tag_26:\n        /* \"#utility.yul\":473:479   */\n      0x00\n        /* \"#utility.yul\":524:526   */\n      0x1f\n        /* \"#utility.yul\":520:527   */\n      not\n        /* \"#utility.yul\":515:517   */\n      0x1f\n        /* \"#utility.yul\":508:513   */\n      dup4\n        /* \"#utility.yul\":504:518   */\n      add\n        /* \"#utility.yul\":500:528   */\n      and\n        /* \"#utility.yul\":490:528   */\n      swap1\n      pop\n        /* \"#utility.yul\":432:534   */\n      swap2\n      swap1\n      pop\n      jump\t// out\n        /* \"#utility.yul\":540:917   */\n    tag_27:\n        /* \"#utility.yul\":628:631   */\n      0x00\n        /* \"#utility.yul\":656:695   */\n      tag_66\n        /* \"#utility.yul\":689:694   */\n      dup3\n        /* \"#utility.yul\":656:695   */\n      tag_23\n      jump\t// in\n    tag_66:\n        /* \"#utility.yul\":711:782   */\n      tag_67\n        /* \"#utility.yul\":775:781   */\n      dup2\n        /* \"#utility.yul\":770:773   */\n      dup6\n        /* \"#utility.yul\":711:782   */\n      tag_24\n      jump\t// in\n    tag_67:\n        /* \"#utility.yul\":704:782   */\n      swap4\n      pop\n        /* \"#utility.yul\":791:856   */\n      tag_68\n        /* \"#utility.yul\":849:855   */\n      dup2\n        /* \"#utility.yul\":844:847   */\n      dup6\n        /* \"#utility.yul\":837:841   */\n      0x20\n        /* \"#utility.yul\":830:835   */\n      dup7\n        /* \"#utility.yul\":826:842   */\n      add\n        /* \"#utility.yul\":791:856   */\n      tag_25\n      jump\t// in\n    tag_68:\n        /* \"#utility.yul\":881:910   */\n      tag_69\n        /* \"#utility.yul\":903:909   */\n      dup2\n        /* \"#utility.yul\":881:910   */\n      tag_26\n      jump\t// in\n    tag_69:\n        /* \"#utility.yul\":876:879   */\n      dup5\n        /* \"#utility.yul\":872:911   */\n      add\n        /* \"#utility.yul\":865:911   */\n      swap2\n      pop\n        /* \"#utility.yul\":632:917   */\n      pop\n        /* \"#utility.yul\":540:917   */\n      swap3\n      swap2\n      pop\n      pop\n      jump\t// out\n        /* \"#utility.yul\":923:1236   */\n    tag_8:\n        /* \"#utility.yul\":1036:1040   */\n      0x00\n        /* \"#utility.yul\":1074:1076   */\n      0x20\n        /* \"#utility.yul\":1063:1072   */\n      dup3\n        /* \"#utility.yul\":1059:1077   */\n      add\n        /* \"#utility.yul\":1051:1077   */\n      swap1\n      pop\n        /* \"#utility.yul\":1123:1132   */\n      dup2\n        /* \"#utility.yul\":1117:1121   */\n      dup2\n        /* \"#utility.yul\":1113:1133   */\n      sub\n        /* \"#utility.yul\":1109:1110   */\n      0x00\n        /* \"#utility.yul\":1098:1107   */\n      dup4\n        /* \"#utility.yul\":1094:1111   */\n      add\n        /* \"#utility.yul\":1087:1134   */\n      mstore\n        /* \"#utility.yul\":1151:1229   */\n      tag_71\n        /* \"#utility.yul\":1224:1228   */\n      dup2\n        /* \"#utility.yul\":1215:1221   */\n      dup5\n        /* \"#utility.yul\":1151:1229   */\n      tag_27\n      jump\t// in\n    tag_71:\n        /* \"#utility.yul\":1143:1229   */\n      swap1\n      pop\n        /* \"#utility.yul\":923:1236   */\n      swap3\n      swap2\n      pop\n      pop\n      jump\t// out\n        /* \"#utility.yul\":1242:1317   */\n    tag_28:\n        /* \"#utility.yul\":1275:1281   */\n      0x00\n        /* \"#utility.yul\":1308:1310   */\n      0x40\n        /* \"#utility.yul\":1302:1311   */\n      mload\n        /* \"#utility.yul\":1292:1311   */\n      swap1\n      pop\n        /* \"#utility.yul\":1242:1317   */\n      swap1\n      jump\t// out\n        /* \"#utility.yul\":1323:1440   */\n    tag_29:\n        /* \"#utility.yul\":1432:1433   */\n      0x00\n        /* \"#utility.yul\":1429:1430   */\n      dup1\n        /* \"#utility.yul\":1422:1434   */\n      revert\n        /* \"#utility.yul\":1446:1563   */\n    tag_30:\n        /* \"#utility.yul\":1555:1556   */\n      0x00\n        /* \"#utility.yul\":1552:1553   */\n      dup1\n        /* \"#utility.yul\":1545:1557   */\n      revert\n        /* \"#utility.yul\":1569:1686   */\n    tag_31:\n        /* \"#utility.yul\":1678:1679   */\n      0x00\n        /* \"#utility.yul\":1675:1676   */\n      dup1\n        /* \"#utility.yul\":1668:1680   */\n      revert\n        /* \"#utility.yul\":1692:1809   */\n    tag_32:\n        /* \"#utility.yul\":1801:1802   */\n      0x00\n        /* \"#utility.yul\":1798:1799   */\n      dup1\n        /* \"#utility.yul\":1791:1803   */\n      revert\n        /* \"#utility.yul\":1815:1995   */\n    tag_33:\n        /* \"#utility.yul\":1863:1940   */\n      0x4e487b7100000000000000000000000000000000000000000000000000000000\n        /* \"#utility.yul\":1860:1861   */\n      0x00\n        /* \"#utility.yul\":1853:1941   */\n      mstore\n        /* \"#utility.yul\":1960:1964   */\n      0x41\n        /* \"#utility.yul\":1957:1958   */\n      0x04\n        /* \"#utility.yul\":1950:1965   */\n      mstore\n        /* \"#utility.yul\":1984:1988   */\n      0x24\n        /* \"#utility.yul\":1981:1982   */\n      0x00\n        /* \"#utility.yul\":1974:1989   */\n      revert\n        /* \"#utility.yul\":2001:2282   */\n    tag_34:\n        /* \"#utility.yul\":2084:2111   */\n      tag_79\n        /* \"#utility.yul\":2106:2110   */\n      dup3\n        /* \"#utility.yul\":2084:2111   */\n      tag_26\n      jump\t// in\n    tag_79:\n        /* \"#utility.yul\":2076:2082   */\n      dup2\n        /* \"#utility.yul\":2072:2112   */\n      add\n        /* \"#utility.yul\":2214:2220   */\n      dup2\n        /* \"#utility.yul\":2202:2212   */\n      dup2\n        /* \"#utility.yul\":2199:2221   */\n      lt\n        /* \"#utility.yul\":2178:2196   */\n      0xffffffffffffffff\n        /* \"#utility.yul\":2166:2176   */\n      dup3\n        /* \"#utility.yul\":2163:2197   */\n      gt\n        /* \"#utility.yul\":2160:2222   */\n      or\n        /* \"#utility.yul\":2157:2245   */\n      iszero\n      tag_80\n      jumpi\n        /* \"#utility.yul\":2225:2243   */\n      tag_81\n      tag_33\n      jump\t// in\n    tag_81:\n        /* \"#utility.yul\":2157:2245   */\n    tag_80:\n        /* \"#utility.yul\":2265:2275   */\n      dup1\n        /* \"#utility.yul\":2261:2263   */\n      0x40\n        /* \"#utility.yul\":2254:2276   */\n      mstore\n        /* \"#utility.yul\":2044:2282   */\n      pop\n        /* \"#utility.yul\":2001:2282   */\n      pop\n      pop\n      jump\t// out\n        /* \"#utility.yul\":2288:2417   */\n    tag_35:\n        /* \"#utility.yul\":2322:2328   */\n      0x00\n        /* \"#utility.yul\":2349:2369   */\n      tag_83\n      tag_28\n      jump\t// in\n    tag_83:\n        /* \"#utility.yul\":2339:2369   */\n      swap1\n      pop\n        /* \"#utility.yul\":2378:2411   */\n      tag_84\n        /* \"#utility.yul\":2406:2410   */\n      dup3\n        /* \"#utility.yul\":2398:2404   */\n      dup3\n        /* \"#utility.yul\":2378:2411   */\n      tag_34\n      jump\t// in\n    tag_84:\n        /* \"#utility.yul\":2288:2417   */\n      swap2\n      swap1\n      pop\n      jump\t// out\n        /* \"#utility.yul\":2423:2731   */\n    tag_36:\n        /* \"#utility.yul\":2485:2489   */\n      0x00\n        /* \"#utility.yul\":2575:2593   */\n      0xffffffffffffffff\n        /* \"#utility.yul\":2567:2573   */\n      dup3\n        /* \"#utility.yul\":2564:2594   */\n      gt\n        /* \"#utility.yul\":2561:2617   */\n      iszero\n      tag_86\n      jumpi\n        /* \"#utility.yul\":2597:2615   */\n      tag_87\n      tag_33\n      jump\t// in\n    tag_87:\n        /* \"#utility.yul\":2561:2617   */\n    tag_86:\n        /* \"#utility.yul\":2635:2664   */\n      tag_88\n        /* \"#utility.yul\":2657:2663   */\n      dup3\n        /* \"#utility.yul\":2635:2664   */\n      tag_26\n      jump\t// in\n    tag_88:\n        /* \"#utility.yul\":2627:2664   */\n      swap1\n      pop\n        /* \"#utility.yul\":2719:2723   */\n      0x20\n        /* \"#utility.yul\":2713:2717   */\n      dup2\n        /* \"#utility.yul\":2709:2724   */\n      add\n        /* \"#utility.yul\":2701:2724   */\n      swap1\n      pop\n        /* \"#utility.yul\":2423:2731   */\n      swap2\n      swap1\n      pop\n      jump\t// out\n        /* \"#utility.yul\":2737:2885   */\n    tag_37:\n        /* \"#utility.yul\":2835:2841   */\n      dup3\n        /* \"#utility.yul\":2830:2833   */\n      dup2\n        /* \"#utility.yul\":2825:2828   */\n      dup4\n        /* \"#utility.yul\":2812:2842   */\n      calldatacopy\n        /* \"#utility.yul\":2876:2877   */\n      0x00\n        /* \"#utility.yul\":2867:2873   */\n      dup4\n        /* \"#utility.yul\":2862:2865   */\n      dup4\n        /* \"#utility.yul\":2858:2874   */\n      add\n        /* \"#utility.yul\":2851:2878   */\n      mstore\n        /* \"#utility.yul\":2737:2885   */\n      pop\n      pop\n      pop\n      jump\t// out\n        /* \"#utility.yul\":2891:3316   */\n    tag_38:\n        /* \"#utility.yul\":2969:2974   */\n      0x00\n        /* \"#utility.yul\":2994:3060   */\n      tag_91\n        /* \"#utility.yul\":3010:3059   */\n      tag_92\n        /* \"#utility.yul\":3052:3058   */\n      dup5\n        /* \"#utility.yul\":3010:3059   */\n      tag_36\n      jump\t// in\n    tag_92:\n        /* \"#utility.yul\":2994:3060   */\n      tag_35\n      jump\t// in\n    tag_91:\n        /* \"#utility.yul\":2985:3060   */\n      swap1\n      pop\n        /* \"#utility.yul\":3083:3089   */\n      dup3\n        /* \"#utility.yul\":3076:3081   */\n      dup2\n        /* \"#utility.yul\":3069:3090   */\n      mstore\n        /* \"#utility.yul\":3121:3125   */\n      0x20\n        /* \"#utility.yul\":3114:3119   */\n      dup2\n        /* \"#utility.yul\":3110:3126   */\n      add\n        /* \"#utility.yul\":3159:3162   */\n      dup5\n        /* \"#utility.yul\":3150:3156   */\n      dup5\n        /* \"#utility.yul\":3145:3148   */\n      dup5\n        /* \"#utility.yul\":3141:3157   */\n      add\n        /* \"#utility.yul\":3138:3163   */\n      gt\n        /* \"#utility.yul\":3135:3247   */\n      iszero\n      tag_93\n      jumpi\n        /* \"#utility.yul\":3166:3245   */\n      tag_94\n      tag_32\n      jump\t// in\n    tag_94:\n        /* \"#utility.yul\":3135:3247   */\n    tag_93:\n        /* \"#utility.yul\":3256:3310   */\n      tag_95\n        /* \"#utility.yul\":3303:3309   */\n      dup5\n        /* \"#utility.yul\":3298:3301   */\n      dup3\n        /* \"#utility.yul\":3293:3296   */\n      dup6\n        /* \"#utility.yul\":3256:3310   */\n      tag_37\n      jump\t// in\n    tag_95:\n        /* \"#utility.yul\":2975:3316   */\n      pop\n        /* \"#utility.yul\":2891:3316   */\n      swap4\n      swap3\n      pop\n      pop\n      pop\n      jump\t// out\n        /* \"#utility.yul\":3336:3676   */\n    tag_39:\n        /* \"#utility.yul\":3392:3397   */\n      0x00\n        /* \"#utility.yul\":3441:3444   */\n      dup3\n        /* \"#utility.yul\":3434:3438   */\n      0x1f\n        /* \"#utility.yul\":3426:3432   */\n      dup4\n        /* \"#utility.yul\":3422:3439   */\n      add\n        /* \"#utility.yul\":3418:3445   */\n      slt\n        /* \"#utility.yul\":3408:3530   */\n      tag_97\n      jumpi\n        /* \"#utility.yul\":3449:3528   */\n      tag_98\n      tag_31\n      jump\t// in\n    tag_98:\n        /* \"#utility.yul\":3408:3530   */\n    tag_97:\n        /* \"#utility.yul\":3566:3572   */\n      dup2\n        /* \"#utility.yul\":3553:3573   */\n      calldataload\n        /* \"#utility.yul\":3591:3670   */\n      tag_99\n        /* \"#utility.yul\":3666:3669   */\n      dup5\n        /* \"#utility.yul\":3658:3664   */\n      dup3\n        /* \"#utility.yul\":3651:3655   */\n      0x20\n        /* \"#utility.yul\":3643:3649   */\n      dup7\n        /* \"#utility.yul\":3639:3656   */\n      add\n        /* \"#utility.yul\":3591:3670   */\n      tag_38\n      jump\t// in\n    tag_99:\n        /* \"#utility.yul\":3582:3670   */\n      swap2\n      pop\n        /* \"#utility.yul\":3398:3676   */\n      pop\n        /* \"#utility.yul\":3336:3676   */\n      swap3\n      swap2\n      pop\n      pop\n      jump\t// out\n        /* \"#utility.yul\":3682:4516   */\n    tag_11:\n        /* \"#utility.yul\":3770:3776   */\n      0x00\n        /* \"#utility.yul\":3778:3784   */\n      dup1\n        /* \"#utility.yul\":3827:3829   */\n      0x40\n        /* \"#utility.yul\":3815:3824   */\n      dup4\n        /* \"#utility.yul\":3806:3813   */\n      dup6\n        /* \"#utility.yul\":3802:3825   */\n      sub\n        /* \"#utility.yul\":3798:3830   */\n      slt\n        /* \"#utility.yul\":3795:3914   */\n      iszero\n      tag_101\n      jumpi\n        /* \"#utility.yul\":3833:3912   */\n      tag_102\n      tag_29\n      jump\t// in\n    tag_102:\n        /* \"#utility.yul\":3795:3914   */\n    tag_101:\n        /* \"#utility.yul\":3981:3982   */\n      0x00\n        /* \"#utility.yul\":3970:3979   */\n      dup4\n        /* \"#utility.yul\":3966:3983   */\n      add\n        /* \"#utility.yul\":3953:3984   */\n      calldataload\n        /* \"#utility.yul\":4011:4029   */\n      0xffffffffffffffff\n        /* \"#utility.yul\":4003:4009   */\n      dup2\n        /* \"#utility.yul\":4000:4030   */\n      gt\n        /* \"#utility.yul\":3997:4114   */\n      iszero\n      tag_103\n      jumpi\n        /* \"#utility.yul\":4033:4112   */\n      tag_104\n      tag_30\n      jump\t// in\n    tag_104:\n        /* \"#utility.yul\":3997:4114   */\n    tag_103:\n        /* \"#utility.yul\":4138:4201   */\n      tag_105\n        /* \"#utility.yul\":4193:4200   */\n      dup6\n        /* \"#utility.yul\":4184:4190   */\n      dup3\n        /* \"#utility.yul\":4173:4182   */\n      dup7\n        /* \"#utility.yul\":4169:4191   */\n      add\n        /* \"#utility.yul\":4138:4201   */\n      tag_39\n      jump\t// in\n    tag_105:\n        /* \"#utility.yul\":4128:4201   */\n      swap3\n      pop\n        /* \"#utility.yul\":3924:4211   */\n      pop\n        /* \"#utility.yul\":4278:4280   */\n      0x20\n        /* \"#utility.yul\":4267:4276   */\n      dup4\n        /* \"#utility.yul\":4263:4281   */\n      add\n        /* \"#utility.yul\":4250:4282   */\n      calldataload\n        /* \"#utility.yul\":4309:4327   */\n      0xffffffffffffffff\n        /* \"#utility.yul\":4301:4307   */\n      dup2\n        /* \"#utility.yul\":4298:4328   */\n      gt\n        /* \"#utility.yul\":4295:4412   */\n      iszero\n      tag_106\n      jumpi\n        /* \"#utility.yul\":4331:4410   */\n      tag_107\n      tag_30\n      jump\t// in\n    tag_107:\n        /* \"#utility.yul\":4295:4412   */\n    tag_106:\n        /* \"#utility.yul\":4436:4499   */\n      tag_108\n        /* \"#utility.yul\":4491:4498   */\n      dup6\n        /* \"#utility.yul\":4482:4488   */\n      dup3\n        /* \"#utility.yul\":4471:4480   */\n      dup7\n        /* \"#utility.yul\":4467:4489   */\n      add\n        /* \"#utility.yul\":4436:4499   */\n      tag_39\n      jump\t// in\n    tag_108:\n        /* \"#utility.yul\":4426:4499   */\n      swap2\n      pop\n        /* \"#utility.yul\":4221:4509   */\n      pop\n        /* \"#utility.yul\":3682:4516   */\n      swap3\n      pop\n      swap3\n      swap1\n      pop\n      jump\t// out\n        /* \"#utility.yul\":4522:4702   */\n    tag_40:\n        /* \"#utility.yul\":4570:4647   */\n      0x4e487b7100000000000000000000000000000000000000000000000000000000\n        /* \"#utility.yul\":4567:4568   */\n      0x00\n        /* \"#utility.yul\":4560:4648   */\n      mstore\n        /* \"#utility.yul\":4667:4671   */\n      0x22\n        /* \"#utility.yul\":4664:4665   */\n      0x04\n        /* \"#utility.yul\":4657:4672   */\n      mstore\n        /* \"#utility.yul\":4691:4695   */\n      0x24\n        /* \"#utility.yul\":4688:4689   */\n      0x00\n        /* \"#utility.yul\":4681:4696   */\n      revert\n        /* \"#utility.yul\":4708:5028   */\n    tag_41:\n        /* \"#utility.yul\":4752:4758   */\n      0x00\n        /* \"#utility.yul\":4789:4790   */\n      0x02\n        /* \"#utility.yul\":4783:4787   */\n      dup3\n        /* \"#utility.yul\":4779:4791   */\n      div\n        /* \"#utility.yul\":4769:4791   */\n      swap1\n      pop\n        /* \"#utility.yul\":4836:4837   */\n      0x01\n        /* \"#utility.yul\":4830:4834   */\n      dup3\n        /* \"#utility.yul\":4826:4838   */\n      and\n        /* \"#utility.yul\":4857:4875   */\n      dup1\n        /* \"#utility.yul\":4847:4928   */\n      tag_111\n      jumpi\n        /* \"#utility.yul\":4913:4917   */\n      0x7f\n        /* \"#utility.yul\":4905:4911   */\n      dup3\n        /* \"#utility.yul\":4901:4918   */\n      and\n        /* \"#utility.yul\":4891:4918   */\n      swap2\n      pop\n        /* \"#utility.yul\":4847:4928   */\n    tag_111:\n        /* \"#utility.yul\":4975:4977   */\n      0x20\n        /* \"#utility.yul\":4967:4973   */\n      dup3\n        /* \"#utility.yul\":4964:4978   */\n      lt\n        /* \"#utility.yul\":4944:4962   */\n      dup2\n        /* \"#utility.yul\":4941:4979   */\n      sub\n        /* \"#utility.yul\":4938:5022   */\n      tag_112\n      jumpi\n        /* \"#utility.yul\":4994:5012   */\n      tag_113\n      tag_40\n      jump\t// in\n    tag_113:\n        /* \"#utility.yul\":4938:5022   */\n    tag_112:\n        /* \"#utility.yul\":4759:5028   */\n      pop\n        /* \"#utility.yul\":4708:5028   */\n      swap2\n      swap1\n      pop\n      jump\t// out\n        /* \"#utility.yul\":5034:5182   */\n    tag_42:\n        /* \"#utility.yul\":5136:5147   */\n      0x00\n        /* \"#utility.yul\":5173:5176   */\n      dup2\n        /* \"#utility.yul\":5158:5176   */\n      swap1\n      pop\n        /* \"#utility.yul\":5034:5182   */\n      swap3\n      swap2\n      pop\n      pop\n      jump\t// out\n        /* \"#utility.yul\":5188:5329   */\n    tag_43:\n        /* \"#utility.yul\":5237:5241   */\n      0x00\n        /* \"#utility.yul\":5260:5263   */\n      dup2\n        /* \"#utility.yul\":5252:5263   */\n      swap1\n      pop\n        /* \"#utility.yul\":5283:5286   */\n      dup2\n        /* \"#utility.yul\":5280:5281   */\n      0x00\n        /* \"#utility.yul\":5273:5287   */\n      mstore\n        /* \"#utility.yul\":5317:5321   */\n      0x20\n        /* \"#utility.yul\":5314:5315   */\n      0x00\n        /* \"#utility.yul\":5304:5322   */\n      keccak256\n        /* \"#utility.yul\":5296:5322   */\n      swap1\n      pop\n        /* \"#utility.yul\":5188:5329   */\n      swap2\n      swap1\n      pop\n      jump\t// out\n        /* \"#utility.yul\":5359:6233   */\n    tag_44:\n        /* \"#utility.yul\":5462:5465   */\n      0x00\n        /* \"#utility.yul\":5499:5504   */\n      dup2\n        /* \"#utility.yul\":5493:5505   */\n      sload\n        /* \"#utility.yul\":5528:5564   */\n      tag_117\n        /* \"#utility.yul\":5554:5563   */\n      dup2\n        /* \"#utility.yul\":5528:5564   */\n      tag_41\n      jump\t// in\n    tag_117:\n        /* \"#utility.yul\":5580:5669   */\n      tag_118\n        /* \"#utility.yul\":5662:5668   */\n      dup2\n        /* \"#utility.yul\":5657:5660   */\n      dup7\n        /* \"#utility.yul\":5580:5669   */\n      tag_42\n      jump\t// in\n    tag_118:\n        /* \"#utility.yul\":5573:5669   */\n      swap5\n      pop\n        /* \"#utility.yul\":5700:5701   */\n      0x01\n        /* \"#utility.yul\":5689:5698   */\n      dup3\n        /* \"#utility.yul\":5685:5702   */\n      and\n        /* \"#utility.yul\":5716:5717   */\n      0x00\n        /* \"#utility.yul\":5711:5877   */\n      dup2\n      eq\n      tag_120\n      jumpi\n        /* \"#utility.yul\":5891:5892   */\n      0x01\n        /* \"#utility.yul\":5886:6227   */\n      dup2\n      eq\n      tag_121\n      jumpi\n        /* \"#utility.yul\":5678:6227   */\n      jump(tag_119)\n        /* \"#utility.yul\":5711:5877   */\n    tag_120:\n        /* \"#utility.yul\":5795:5799   */\n      0xff\n        /* \"#utility.yul\":5791:5800   */\n      not\n        /* \"#utility.yul\":5780:5789   */\n      dup4\n        /* \"#utility.yul\":5776:5801   */\n      and\n        /* \"#utility.yul\":5771:5774   */\n      dup7\n        /* \"#utility.yul\":5764:5802   */\n      mstore\n        /* \"#utility.yul\":5857:5863   */\n      dup2\n        /* \"#utility.yul\":5850:5864   */\n      iszero\n        /* \"#utility.yul\":5843:5865   */\n      iszero\n        /* \"#utility.yul\":5835:5841   */\n      dup3\n        /* \"#utility.yul\":5831:5866   */\n      mul\n        /* \"#utility.yul\":5826:5829   */\n      dup7\n        /* \"#utility.yul\":5822:5867   */\n      add\n        /* \"#utility.yul\":5815:5867   */\n      swap4\n      pop\n        /* \"#utility.yul\":5711:5877   */\n      jump(tag_119)\n        /* \"#utility.yul\":5886:6227   */\n    tag_121:\n        /* \"#utility.yul\":5953:5991   */\n      tag_122\n        /* \"#utility.yul\":5985:5990   */\n      dup6\n        /* \"#utility.yul\":5953:5991   */\n      tag_43\n      jump\t// in\n    tag_122:\n        /* \"#utility.yul\":6013:6014   */\n      0x00\n        /* \"#utility.yul\":6027:6181   */\n    tag_123:\n        /* \"#utility.yul\":6041:6047   */\n      dup4\n        /* \"#utility.yul\":6038:6039   */\n      dup2\n        /* \"#utility.yul\":6035:6048   */\n      lt\n        /* \"#utility.yul\":6027:6181   */\n      iszero\n      tag_125\n      jumpi\n        /* \"#utility.yul\":6115:6122   */\n      dup2\n        /* \"#utility.yul\":6109:6123   */\n      sload\n        /* \"#utility.yul\":6105:6106   */\n      dup2\n        /* \"#utility.yul\":6100:6103   */\n      dup10\n        /* \"#utility.yul\":6096:6107   */\n      add\n        /* \"#utility.yul\":6089:6124   */\n      mstore\n        /* \"#utility.yul\":6165:6166   */\n      0x01\n        /* \"#utility.yul\":6156:6163   */\n      dup3\n        /* \"#utility.yul\":6152:6167   */\n      add\n        /* \"#utility.yul\":6141:6167   */\n      swap2\n      pop\n        /* \"#utility.yul\":6063:6067   */\n      0x20\n        /* \"#utility.yul\":6060:6061   */\n      dup2\n        /* \"#utility.yul\":6056:6068   */\n      add\n        /* \"#utility.yul\":6051:6068   */\n      swap1\n      pop\n        /* \"#utility.yul\":6027:6181   */\n      jump(tag_123)\n    tag_125:\n        /* \"#utility.yul\":6210:6216   */\n      dup4\n        /* \"#utility.yul\":6205:6208   */\n      dup9\n        /* \"#utility.yul\":6201:6217   */\n      add\n        /* \"#utility.yul\":6194:6217   */\n      swap6\n      pop\n        /* \"#utility.yul\":5893:6227   */\n      pop\n      pop\n        /* \"#utility.yul\":5678:6227   */\n    tag_119:\n      pop\n        /* \"#utility.yul\":5466:6233   */\n      pop\n      pop\n        /* \"#utility.yul\":5359:6233   */\n      swap3\n      swap2\n      pop\n      pop\n      jump\t// out\n        /* \"#utility.yul\":6239:6508   */\n    tag_15:\n        /* \"#utility.yul\":6368:6371   */\n      0x00\n        /* \"#utility.yul\":6390:6482   */\n      tag_127\n        /* \"#utility.yul\":6478:6481   */\n      dup3\n        /* \"#utility.yul\":6469:6475   */\n      dup5\n        /* \"#utility.yul\":6390:6482   */\n      tag_44\n      jump\t// in\n    tag_127:\n        /* \"#utility.yul\":6383:6482   */\n      swap2\n      pop\n        /* \"#utility.yul\":6499:6502   */\n      dup2\n        /* \"#utility.yul\":6492:6502   */\n      swap1\n      pop\n        /* \"#utility.yul\":6239:6508   */\n      swap3\n      swap2\n      pop\n      pop\n      jump\t// out\n        /* \"#utility.yul\":6514:6607   */\n    tag_45:\n        /* \"#utility.yul\":6551:6557   */\n      0x00\n        /* \"#utility.yul\":6598:6600   */\n      0x20\n        /* \"#utility.yul\":6593:6595   */\n      0x1f\n        /* \"#utility.yul\":6586:6591   */\n      dup4\n        /* \"#utility.yul\":6582:6596   */\n      add\n        /* \"#utility.yul\":6578:6601   */\n      div\n        /* \"#utility.yul\":6568:6601   */\n      swap1\n      pop\n        /* \"#utility.yul\":6514:6607   */\n      swap2\n      swap1\n      pop\n      jump\t// out\n        /* \"#utility.yul\":6613:6720   */\n    tag_46:\n        /* \"#utility.yul\":6657:6665   */\n      0x00\n        /* \"#utility.yul\":6707:6712   */\n      dup3\n        /* \"#utility.yul\":6701:6705   */\n      dup3\n        /* \"#utility.yul\":6697:6713   */\n      shl\n        /* \"#utility.yul\":6676:6713   */\n      swap1\n      pop\n        /* \"#utility.yul\":6613:6720   */\n      swap3\n      swap2\n      pop\n      pop\n      jump\t// out\n        /* \"#utility.yul\":6726:7119   */\n    tag_47:\n        /* \"#utility.yul\":6795:6801   */\n      0x00\n        /* \"#utility.yul\":6845:6846   */\n      0x08\n        /* \"#utility.yul\":6833:6843   */\n      dup4\n        /* \"#utility.yul\":6829:6847   */\n      mul\n        /* \"#utility.yul\":6868:6965   */\n      tag_131\n        /* \"#utility.yul\":6898:6964   */\n      0xffffffffffffffffffffffffffffffffffffffffffffffffffffffffffffffff\n        /* \"#utility.yul\":6887:6896   */\n      dup3\n        /* \"#utility.yul\":6868:6965   */\n      tag_46\n      jump\t// in\n    tag_131:\n        /* \"#utility.yul\":6986:7025   */\n      tag_132\n        /* \"#utility.yul\":7016:7024   */\n      dup7\n        /* \"#utility.yul\":7005:7014   */\n      dup4\n        /* \"#utility.yul\":6986:7025   */\n      tag_46\n      jump\t// in\n    tag_132:\n        /* \"#utility.yul\":6974:7025   */\n      swap6\n      pop\n        /* \"#utility.yul\":7058:7062   */\n      dup1\n        /* \"#utility.yul\":7054:7063   */\n      not\n        /* \"#utility.yul\":7047:7052   */\n      dup5\n        /* \"#utility.yul\":7043:7064   */\n      and\n        /* \"#utility.yul\":7034:7064   */\n      swap4\n      pop\n        /* \"#utility.yul\":7107:7111   */\n      dup1\n        /* \"#utility.yul\":7097:7105   */\n      dup7\n        /* \"#utility.yul\":7093:7112   */\n      and\n        /* \"#utility.yul\":7086:7091   */\n      dup5\n        /* \"#utility.yul\":7083:7113   */\n      or\n        /* \"#utility.yul\":7073:7113   */\n      swap3\n      pop\n        /* \"#utility.yul\":6802:7119   */\n      pop\n      pop\n        /* \"#utility.yul\":6726:7119   */\n      swap4\n      swap3\n      pop\n      pop\n      pop\n      jump\t// out\n        /* \"#utility.yul\":7125:7202   */\n    tag_48:\n        /* \"#utility.yul\":7162:7169   */\n      0x00\n        /* \"#utility.yul\":7191:7196   */\n      dup2\n        /* \"#utility.yul\":7180:7196   */\n      swap1\n      pop\n        /* \"#utility.yul\":7125:7202   */\n      swap2\n      swap1\n      pop\n      jump\t// out\n        /* \"#utility.yul\":7208:7268   */\n    tag_49:\n        /* \"#utility.yul\":7236:7239   */\n      0x00\n        /* \"#utility.yul\":7257:7262   */\n      dup2\n        /* \"#utility.yul\":7250:7262   */\n      swap1\n      pop\n        /* \"#utility.yul\":7208:7268   */\n      swap2\n      swap1\n      pop\n      jump\t// out\n        /* \"#utility.yul\":7274:7416   */\n    tag_50:\n        /* \"#utility.yul\":7324:7333   */\n      0x00\n        /* \"#utility.yul\":7357:7410   */\n      tag_136\n        /* \"#utility.yul\":7375:7409   */\n      tag_137\n        /* \"#utility.yul\":7384:7408   */\n      tag_138\n        /* \"#utility.yul\":7402:7407   */\n      dup5\n        /* \"#utility.yul\":7384:7408   */\n      tag_48\n      jump\t// in\n    tag_138:\n        /* \"#utility.yul\":7375:7409   */\n      tag_49\n      jump\t// in\n    tag_137:\n        /* \"#utility.yul\":7357:7410   */\n      tag_48\n      jump\t// in\n    tag_136:\n        /* \"#utility.yul\":7344:7410   */\n      swap1\n      pop\n        /* \"#utility.yul\":7274:7416   */\n      swap2\n      swap1\n      pop\n      jump\t// out\n        /* \"#utility.yul\":7422:7497   */\n    tag_51:\n        /* \"#utility.yul\":7465:7468   */\n      0x00\n        /* \"#utility.yul\":7486:7491   */\n      dup2\n        /* \"#utility.yul\":7479:7491   */\n      swap1\n      pop\n        /* \"#utility.yul\":7422:7497   */\n      swap2\n      swap1\n      pop\n      jump\t// out\n        /* \"#utility.yul\":7503:7772   */\n    tag_52:\n        /* \"#utility.yul\":7613:7652   */\n      tag_141\n        /* \"#utility.yul\":7644:7651   */\n      dup4\n        /* \"#utility.yul\":7613:7652   */\n      tag_50\n      jump\t// in\n    tag_141:\n        /* \"#utility.yul\":7674:7765   */\n      tag_142\n        /* \"#utility.yul\":7723:7764   */\n      tag_143\n        /* \"#utility.yul\":7747:7763   */\n      dup3\n        /* \"#utility.yul\":7723:7764   */\n      tag_51\n      jump\t// in\n    tag_143:\n        /* \"#utility.yul\":7715:7721   */\n      dup5\n        /* \"#utility.yul\":7708:7712   */\n      dup5\n        /* \"#utility.yul\":7702:7713   */\n      sload\n        /* \"#utility.yul\":7674:7765   */\n      tag_47\n      jump\t// in\n    tag_142:\n        /* \"#utility.yul\":7668:7672   */\n      dup3\n        /* \"#utility.yul\":7661:7766   */\n      sstore\n        /* \"#utility.yul\":7579:7772   */\n      pop\n        /* \"#utility.yul\":7503:7772   */\n      pop\n      pop\n      pop\n      jump\t// out\n        /* \"#utility.yul\":7778:7851   */\n    tag_53:\n        /* \"#utility.yul\":7823:7826   */\n      0x00\n        /* \"#utility.yul\":7778:7851   */\n      swap1\n      jump\t// out\n        /* \"#utility.yul\":7857:8046   */\n    tag_54:\n        /* \"#utility.yul\":7934:7966   */\n      tag_146\n      tag_53\n      jump\t// in\n    tag_146:\n        /* \"#utility.yul\":7975:8040   */\n      tag_147\n        /* \"#utility.yul\":8033:8039   */\n      dup2\n        /* \"#utility.yul\":8025:8031   */\n      dup5\n        /* \"#utility.yul\":8019:8023   */\n      dup5\n        /* \"#utility.yul\":7975:8040   */\n      tag_52\n      jump\t// in\n    tag_147:\n        /* \"#utility.yul\":7910:8046   */\n      pop\n        /* \"#utility.yul\":7857:8046   */\n      pop\n      pop\n      jump\t// out\n        /* \"#utility.yul\":8052:8238   */\n    tag_55:\n        /* \"#utility.yul\":8112:8232   */\n    tag_149:\n        /* \"#utility.yul\":8129:8132   */\n      dup2\n        /* \"#utility.yul\":8122:8127   */\n      dup2\n        /* \"#utility.yul\":8119:8133   */\n      lt\n        /* \"#utility.yul\":8112:8232   */\n      iszero\n      tag_151\n      jumpi\n        /* \"#utility.yul\":8183:8222   */\n      tag_152\n        /* \"#utility.yul\":8220:8221   */\n      0x00\n        /* \"#utility.yul\":8213:8218   */\n      dup3\n        /* \"#utility.yul\":8183:8222   */\n      tag_54\n      jump\t// in\n    tag_152:\n        /* \"#utility.yul\":8156:8157   */\n      0x01\n        /* \"#utility.yul\":8149:8154   */\n      dup2\n        /* \"#utility.yul\":8145:8158   */\n      add\n        /* \"#utility.yul\":8136:8158   */\n      swap1\n      pop\n        /* \"#utility.yul\":8112:8232   */\n      jump(tag_149)\n    tag_151:\n        /* \"#utility.yul\":8052:8238   */\n      pop\n      pop\n      jump\t// out\n        /* \"#utility.yul\":8244:8787   */\n    tag_56:\n        /* \"#utility.yul\":8345:8347   */\n      0x1f\n        /* \"#utility.yul\":8340:8343   */\n      dup3\n        /* \"#utility.yul\":8337:8348   */\n      gt\n        /* \"#utility.yul\":8334:8780   */\n      iszero\n      tag_154\n      jumpi\n        /* \"#utility.yul\":8379:8417   */\n      tag_155\n        /* \"#utility.yul\":8411:8416   */\n      dup2\n        /* \"#utility.yul\":8379:8417   */\n      tag_43\n      jump\t// in\n    tag_155:\n        /* \"#utility.yul\":8463:8492   */\n      tag_156\n        /* \"#utility.yul\":8481:8491   */\n      dup5\n        /* \"#utility.yul\":8463:8492   */\n      tag_45\n      jump\t// in\n    tag_156:\n        /* \"#utility.yul\":8453:8461   */\n      dup2\n        /* \"#utility.yul\":8449:8493   */\n      add\n        /* \"#utility.yul\":8646:8648   */\n      0x20\n        /* \"#utility.yul\":8634:8644   */\n      dup6\n        /* \"#utility.yul\":8631:8649   */\n      lt\n        /* \"#utility.yul\":8628:8677   */\n      iszero\n      tag_157\n      jumpi\n        /* \"#utility.yul\":8667:8675   */\n      dup2\n        /* \"#utility.yul\":8652:8675   */\n      swap1\n      pop\n        /* \"#utility.yul\":8628:8677   */\n    tag_157:\n        /* \"#utility.yul\":8690:8770   */\n      tag_158\n        /* \"#utility.yul\":8746:8768   */\n      tag_159\n        /* \"#utility.yul\":8764:8767   */\n      dup6\n        /* \"#utility.yul\":8746:8768   */\n      tag_45\n      jump\t// in\n    tag_159:\n        /* \"#utility.yul\":8736:8744   */\n      dup4\n        /* \"#utility.yul\":8732:8769   */\n      add\n        /* \"#utility.yul\":8719:8730   */\n      dup3\n        /* \"#utility.yul\":8690:8770   */\n      tag_55\n      jump\t// in\n    tag_158:\n        /* \"#utility.yul\":8349:8780   */\n      pop\n      pop\n        /* \"#utility.yul\":8334:8780   */\n    tag_154:\n        /* \"#utility.yul\":8244:8787   */\n      pop\n      pop\n      pop\n      jump\t// out\n        /* \"#utility.yul\":8793:8910   */\n    tag_57:\n        /* \"#utility.yul\":8847:8855   */\n      0x00\n        /* \"#utility.yul\":8897:8902   */\n      dup3\n        /* \"#utility.yul\":8891:8895   */\n      dup3\n        /* \"#utility.yul\":8887:8903   */\n      shr\n        /* \"#utility.yul\":8866:8903   */\n      swap1\n      pop\n        /* \"#utility.yul\":8793:8910   */\n      swap3\n      swap2\n      pop\n      pop\n      jump\t// out\n        /* \"#utility.yul\":8916:9085   */\n    tag_58:\n        /* \"#utility.yul\":8960:8966   */\n      0x00\n        /* \"#utility.yul\":8993:9044   */\n      tag_162\n        /* \"#utility.yul\":9041:9042   */\n      0x00\n        /* \"#utility.yul\":9037:9043   */\n      not\n        /* \"#utility.yul\":9029:9034   */\n      dup5\n        /* \"#utility.yul\":9026:9027   */\n      0x08\n        /* \"#utility.yul\":9022:9035   */\n      mul\n        /* \"#utility.yul\":8993:9044   */\n      tag_57\n      jump\t// in\n    tag_162:\n        /* \"#utility.yul\":8989:9045   */\n      not\n        /* \"#utility.yul\":9074:9078   */\n      dup1\n        /* \"#utility.yul\":9068:9072   */\n      dup4\n        /* \"#utility.yul\":9064:9079   */\n      and\n        /* \"#utility.yul\":9054:9079   */\n      swap2\n      pop\n        /* \"#utility.yul\":8967:9085   */\n      pop\n        /* \"#utility.yul\":8916:9085   */\n      swap3\n      swap2\n      pop\n      pop\n      jump\t// out\n        /* \"#utility.yul\":9090:9385   */\n    tag_59:\n        /* \"#utility.yul\":9166:9170   */\n      0x00\n        /* \"#utility.yul\":9312:9341   */\n      tag_164\n        /* \"#utility.yul\":9337:9340   */\n      dup4\n        /* \"#utility.yul\":9331:9335   */\n      dup4\n        /* \"#utility.yul\":9312:9341   */\n      tag_58\n      jump\t// in\n    tag_164:\n        /* \"#utility.yul\":9304:9341   */\n      swap2\n      pop\n        /* \"#utility.yul\":9374:9377   */\n      dup3\n        /* \"#utility.yul\":9371:9372   */\n      0x02\n        /* \"#utility.yul\":9367:9378   */\n      mul\n        /* \"#utility.yul\":9361:9365   */\n      dup3\n        /* \"#utility.yul\":9358:9379   */\n      or\n        /* \"#utility.yul\":9350:9379   */\n      swap1\n      pop\n        /* \"#utility.yul\":9090:9385   */\n      swap3\n      swap2\n      pop\n      pop\n      jump\t// out\n        /* \"#utility.yul\":9390:10785   */\n    tag_21:\n        /* \"#utility.yul\":9507:9544   */\n      tag_166\n        /* \"#utility.yul\":9540:9543   */\n      dup3\n        /* \"#utility.yul\":9507:9544   */\n      tag_23\n      jump\t// in\n    tag_166:\n        /* \"#utility.yul\":9609:9627   */\n      0xffffffffffffffff\n        /* \"#utility.yul\":9601:9607   */\n      dup2\n        /* \"#utility.yul\":9598:9628   */\n      gt\n        /* \"#utility.yul\":9595:9651   */\n      iszero\n      tag_167\n      jumpi\n        /* \"#utility.yul\":9631:9649   */\n      tag_168\n      tag_33\n      jump\t// in\n    tag_168:\n        /* \"#utility.yul\":9595:9651   */\n    tag_167:\n        /* \"#utility.yul\":9675:9713   */\n      tag_169\n        /* \"#utility.yul\":9707:9711   */\n      dup3\n        /* \"#utility.yul\":9701:9712   */\n      sload\n        /* \"#utility.yul\":9675:9713   */\n      tag_41\n      jump\t// in\n    tag_169:\n        /* \"#utility.yul\":9760:9827   */\n      tag_170\n        /* \"#utility.yul\":9820:9826   */\n      dup3\n        /* \"#utility.yul\":9812:9818   */\n      dup3\n        /* \"#utility.yul\":9806:9810   */\n      dup6\n        /* \"#utility.yul\":9760:9827   */\n      tag_56\n      jump\t// in\n    tag_170:\n        /* \"#utility.yul\":9854:9855   */\n      0x00\n        /* \"#utility.yul\":9878:9882   */\n      0x20\n        /* \"#utility.yul\":9865:9882   */\n      swap1\n      pop\n        /* \"#utility.yul\":9910:9912   */\n      0x1f\n        /* \"#utility.yul\":9902:9908   */\n      dup4\n        /* \"#utility.yul\":9899:9913   */\n      gt\n        /* \"#utility.yul\":9927:9928   */\n      0x01\n        /* \"#utility.yul\":9922:10540   */\n      dup2\n      eq\n      tag_172\n      jumpi\n        /* \"#utility.yul\":10584:10585   */\n      0x00\n        /* \"#utility.yul\":10601:10607   */\n      dup5\n        /* \"#utility.yul\":10598:10675   */\n      iszero\n      tag_173\n      jumpi\n        /* \"#utility.yul\":10650:10659   */\n      dup3\n        /* \"#utility.yul\":10645:10648   */\n      dup8\n        /* \"#utility.yul\":10641:10660   */\n      add\n        /* \"#utility.yul\":10635:10661   */\n      mload\n        /* \"#utility.yul\":10626:10661   */\n      swap1\n      pop\n        /* \"#utility.yul\":10598:10675   */\n    tag_173:\n        /* \"#utility.yul\":10701:10768   */\n      tag_174\n        /* \"#utility.yul\":10761:10767   */\n      dup6\n        /* \"#utility.yul\":10754:10759   */\n      dup3\n        /* \"#utility.yul\":10701:10768   */\n      tag_59\n      jump\t// in\n    tag_174:\n        /* \"#utility.yul\":10695:10699   */\n      dup7\n        /* \"#utility.yul\":10688:10769   */\n      sstore\n        /* \"#utility.yul\":10557:10779   */\n      pop\n        /* \"#utility.yul\":9892:10779   */\n      jump(tag_171)\n        /* \"#utility.yul\":9922:10540   */\n    tag_172:\n        /* \"#utility.yul\":9974:9978   */\n      0x1f\n        /* \"#utility.yul\":9970:9979   */\n      not\n        /* \"#utility.yul\":9962:9968   */\n      dup5\n        /* \"#utility.yul\":9958:9980   */\n      and\n        /* \"#utility.yul\":10008:10045   */\n      tag_175\n        /* \"#utility.yul\":10040:10044   */\n      dup7\n        /* \"#utility.yul\":10008:10045   */\n      tag_43\n      jump\t// in\n    tag_175:\n        /* \"#utility.yul\":10067:10068   */\n      0x00\n        /* \"#utility.yul\":10081:10289   */\n    tag_176:\n        /* \"#utility.yul\":10095:10102   */\n      dup3\n        /* \"#utility.yul\":10092:10093   */\n      dup2\n        /* \"#utility.yul\":10089:10103   */\n      lt\n        /* \"#utility.yul\":10081:10289   */\n      iszero\n      tag_178\n      jumpi\n        /* \"#utility.yul\":10174:10183   */\n      dup5\n        /* \"#utility.yul\":10169:10172   */\n      dup10\n        /* \"#utility.yul\":10165:10184   */\n      add\n        /* \"#utility.yul\":10159:10185   */\n      mload\n        /* \"#utility.yul\":10151:10157   */\n      dup3\n        /* \"#utility.yul\":10144:10186   */\n      sstore\n        /* \"#utility.yul\":10225:10226   */\n      0x01\n        /* \"#utility.yul\":10217:10223   */\n      dup3\n        /* \"#utility.yul\":10213:10227   */\n      add\n        /* \"#utility.yul\":10203:10227   */\n      swap2\n      pop\n        /* \"#utility.yul\":10272:10274   */\n      0x20\n        /* \"#utility.yul\":10261:10270   */\n      dup6\n        /* \"#utility.yul\":10257:10275   */\n      add\n        /* \"#utility.yul\":10244:10275   */\n      swap5\n      pop\n        /* \"#utility.yul\":10118:10122   */\n      0x20\n        /* \"#utility.yul\":10115:10116   */\n      dup2\n        /* \"#utility.yul\":10111:10123   */\n      add\n        /* \"#utility.yul\":10106:10123   */\n      swap1\n      pop\n        /* \"#utility.yul\":10081:10289   */\n      jump(tag_176)\n    tag_178:\n        /* \"#utility.yul\":10317:10323   */\n      dup7\n        /* \"#utility.yul\":10308:10315   */\n      dup4\n        /* \"#utility.yul\":10305:10324   */\n      lt\n        /* \"#utility.yul\":10302:10481   */\n      iszero\n      tag_179\n      jumpi\n        /* \"#utility.yul\":10375:10384   */\n      dup5\n        /* \"#utility.yul\":10370:10373   */\n      dup10\n        /* \"#utility.yul\":10366:10385   */\n      add\n        /* \"#utility.yul\":10360:10386   */\n      mload\n        /* \"#utility.yul\":10418:10466   */\n      tag_180\n        /* \"#utility.yul\":10460:10464   */\n      0x1f\n        /* \"#utility.yul\":10452:10458   */\n      dup10\n        /* \"#utility.yul\":10448:10465   */\n      and\n        /* \"#utility.yul\":10437:10446   */\n      dup3\n        /* \"#utility.yul\":10418:10466   */\n      tag_58\n      jump\t// in\n    tag_180:\n        /* \"#utility.yul\":10410:10416   */\n      dup4\n        /* \"#utility.yul\":10403:10467   */\n      sstore\n        /* \"#utility.yul\":10325:10481   */\n      pop\n        /* \"#utility.yul\":10302:10481   */\n    tag_179:\n        /* \"#utility.yul\":10527:10528   */\n      0x01\n        /* \"#utility.yul\":10523:10524   */\n      0x02\n        /* \"#utility.yul\":10515:10521   */\n      dup9\n        /* \"#utility.yul\":10511:10525   */\n      mul\n        /* \"#utility.yul\":10507:10529   */\n      add\n        /* \"#utility.yul\":10501:10505   */\n      dup9\n        /* \"#utility.yul\":10494:10530   */\n      sstore\n        /* \"#utility.yul\":9929:10540   */\n      pop\n      pop\n      pop\n        /* \"#utility.yul\":9892:10779   */\n    tag_171:\n      pop\n        /* \"#utility.yul\":9482:10785   */\n      pop\n      pop\n      pop\n        /* \"#utility.yul\":9390:10785   */\n      pop\n      pop\n      jump\t// out\n\n    auxdata: 0xa26469706673582212205263457732327881b3efc4a7bc2503f76968e3f2214725980aa7d6a7b19178e164736f6c634300081a0033\n}\n",
				"bytecode": {
					"linkReferences": {},
					"object": "6080604052348015600e575f80fd5b5061074f8061001c5f395ff3fe608060405234801561000f575f80fd5b5060043610610034575f3560e01c8063746f7ed514610038578063f641090c14610056575b5f80fd5b610040610072565b60405161004d91906101d4565b60405180910390f35b610070600480360381019061006b9190610331565b610141565b005b6060600160405160200161008691906104a0565b604051602081830303815290604052805190602001205f6040516020016100ad91906104a0565b6040516020818303038152906040528051906020012003610105576040518060400160405280601781526020017f6d73673120616e64206d7367322061726520657175616c000000000000000000815250905061013e565b6040518060400160405280601b81526020017f6d73673120616e64206d73673220617265206e6f7420657175616c000000000081525090505b90565b815f908161014f919061064a565b50806001908161015f919061064a565b505050565b5f81519050919050565b5f82825260208201905092915050565b8281835e5f83830152505050565b5f601f19601f8301169050919050565b5f6101a682610164565b6101b0818561016e565b93506101c081856020860161017e565b6101c98161018c565b840191505092915050565b5f6020820190508181035f8301526101ec818461019c565b905092915050565b5f604051905090565b5f80fd5b5f80fd5b5f80fd5b5f80fd5b7f4e487b71000000000000000000000000000000000000000000000000000000005f52604160045260245ffd5b6102438261018c565b810181811067ffffffffffffffff821117156102625761026161020d565b5b80604052505050565b5f6102746101f4565b9050610280828261023a565b919050565b5f67ffffffffffffffff82111561029f5761029e61020d565b5b6102a88261018c565b9050602081019050919050565b828183375f83830152505050565b5f6102d56102d084610285565b61026b565b9050828152602081018484840111156102f1576102f0610209565b5b6102fc8482856102b5565b509392505050565b5f82601f83011261031857610317610205565b5b81356103288482602086016102c3565b91505092915050565b5f8060408385031215610347576103466101fd565b5b5f83013567ffffffffffffffff81111561036457610363610201565b5b61037085828601610304565b925050602083013567ffffffffffffffff81111561039157610390610201565b5b61039d85828601610304565b9150509250929050565b7f4e487b71000000000000000000000000000000000000000000000000000000005f52602260045260245ffd5b5f60028204905060018216806103eb57607f821691505b6020821081036103fe576103fd6103a7565b5b50919050565b5f81905092915050565b5f819050815f5260205f209050919050565b5f815461042c816103d4565b6104368186610404565b9450600182165f8114610450576001811461046557610497565b60ff1983168652811515820286019350610497565b61046e8561040e565b5f5b8381101561048f57815481890152600182019150602081019050610470565b838801955050505b50505092915050565b5f6104ab8284610420565b915081905092915050565b5f6020601f8301049050919050565b5f82821b905092915050565b5f600883026105007fffffffffffffffffffffffffffffffffffffffffffffffffffffffffffffffff826104c5565b61050a86836104c5565b95508019841693508086168417925050509392505050565b5f819050919050565b5f819050919050565b5f61054e61054961054484610522565b61052b565b610522565b9050919050565b5f819050919050565b61056783610534565b61057b61057382610555565b8484546104d1565b825550505050565b5f90565b61058f610583565b61059a81848461055e565b505050565b5b818110156105bd576105b25f82610587565b6001810190506105a0565b5050565b601f821115610602576105d38161040e565b6105dc846104b6565b810160208510156105eb578190505b6105ff6105f7856104b6565b83018261059f565b50505b505050565b5f82821c905092915050565b5f6106225f1984600802610607565b1980831691505092915050565b5f61063a8383610613565b9150826002028217905092915050565b61065382610164565b67ffffffffffffffff81111561066c5761066b61020d565b5b61067682546103d4565b6106818282856105c1565b5f60209050601f8311600181146106b2575f84156106a0578287015190505b6106aa858261062f565b865550610711565b601f1984166106c08661040e565b5f5b828110156106e7578489015182556001820191506020850194506020810190506106c2565b868310156107045784890151610700601f891682610613565b8355505b6001600288020188555050505b50505050505056fea26469706673582212205263457732327881b3efc4a7bc2503f76968e3f2214725980aa7d6a7b19178e164736f6c634300081a0033",
					"opcodes": "PUSH1 0x80 PUSH1 0x40 MSTORE CALLVALUE DUP1 ISZERO PUSH1 0xE JUMPI PUSH0 DUP1 REVERT JUMPDEST POP PUSH2 0x74F DUP1 PUSH2 0x1C PUSH0 CODECOPY PUSH0 RETURN INVALID PUSH1 0x80 PUSH1 0x40 MSTORE CALLVALUE DUP1 ISZERO PUSH2 0xF JUMPI PUSH0 DUP1 REVERT JUMPDEST POP PUSH1 0x4 CALLDATASIZE LT PUSH2 0x34 JUMPI PUSH0 CALLDATALOAD PUSH1 0xE0 SHR DUP1 PUSH4 0x746F7ED5 EQ PUSH2 0x38 JUMPI DUP1 PUSH4 0xF641090C EQ PUSH2 0x56 JUMPI JUMPDEST PUSH0 DUP1 REVERT JUMPDEST PUSH2 0x40 PUSH2 0x72 JUMP JUMPDEST PUSH1 0x40 MLOAD PUSH2 0x4D SWAP2 SWAP1 PUSH2 0x1D4 JUMP JUMPDEST PUSH1 0x40 MLOAD DUP1 SWAP2 SUB SWAP1 RETURN JUMPDEST PUSH2 0x70 PUSH1 0x4 DUP1 CALLDATASIZE SUB DUP2 ADD SWAP1 PUSH2 0x6B SWAP2 SWAP1 PUSH2 0x331 JUMP JUMPDEST PUSH2 0x141 JUMP JUMPDEST STOP JUMPDEST PUSH1 0x60 PUSH1 0x1 PUSH1 0x40 MLOAD PUSH1 0x20 ADD PUSH2 0x86 SWAP2 SWAP1 PUSH2 0x4A0 JUMP JUMPDEST PUSH1 0x40 MLOAD PUSH1 0x20 DUP2 DUP4 SUB SUB DUP2 MSTORE SWAP1 PUSH1 0x40 MSTORE DUP1 MLOAD SWAP1 PUSH1 0x20 ADD KECCAK256 PUSH0 PUSH1 0x40 MLOAD PUSH1 0x20 ADD PUSH2 0xAD SWAP2 SWAP1 PUSH2 0x4A0 JUMP JUMPDEST PUSH1 0x40 MLOAD PUSH1 0x20 DUP2 DUP4 SUB SUB DUP2 MSTORE SWAP1 PUSH1 0x40 MSTORE DUP1 MLOAD SWAP1 PUSH1 0x20 ADD KECCAK256 SUB PUSH2 0x105 JUMPI PUSH1 0x40 MLOAD DUP1 PUSH1 0x40 ADD PUSH1 0x40 MSTORE DUP1 PUSH1 0x17 DUP2 MSTORE PUSH1 0x20 ADD PUSH32 0x6D73673120616E64206D7367322061726520657175616C000000000000000000 DUP2 MSTORE POP SWAP1 POP PUSH2 0x13E JUMP JUMPDEST PUSH1 0x40 MLOAD DUP1 PUSH1 0x40 ADD PUSH1 0x40 MSTORE DUP1 PUSH1 0x1B DUP2 MSTORE PUSH1 0x20 ADD PUSH32 0x6D73673120616E64206D73673220617265206E6F7420657175616C0000000000 DUP2 MSTORE POP SWAP1 POP JUMPDEST SWAP1 JUMP JUMPDEST DUP2 PUSH0 SWAP1 DUP2 PUSH2 0x14F SWAP2 SWAP1 PUSH2 0x64A JUMP JUMPDEST POP DUP1 PUSH1 0x1 SWAP1 DUP2 PUSH2 0x15F SWAP2 SWAP1 PUSH2 0x64A JUMP JUMPDEST POP POP POP JUMP JUMPDEST PUSH0 DUP2 MLOAD SWAP1 POP SWAP2 SWAP1 POP JUMP JUMPDEST PUSH0 DUP3 DUP3 MSTORE PUSH1 0x20 DUP3 ADD SWAP1 POP SWAP3 SWAP2 POP POP JUMP JUMPDEST DUP3 DUP2 DUP4 MCOPY PUSH0 DUP4 DUP4 ADD MSTORE POP POP POP JUMP JUMPDEST PUSH0 PUSH1 0x1F NOT PUSH1 0x1F DUP4 ADD AND SWAP1 POP SWAP2 SWAP1 POP JUMP JUMPDEST PUSH0 PUSH2 0x1A6 DUP3 PUSH2 0x164 JUMP JUMPDEST PUSH2 0x1B0 DUP2 DUP6 PUSH2 0x16E JUMP JUMPDEST SWAP4 POP PUSH2 0x1C0 DUP2 DUP6 PUSH1 0x20 DUP7 ADD PUSH2 0x17E JUMP JUMPDEST PUSH2 0x1C9 DUP2 PUSH2 0x18C JUMP JUMPDEST DUP5 ADD SWAP2 POP POP SWAP3 SWAP2 POP POP JUMP JUMPDEST PUSH0 PUSH1 0x20 DUP3 ADD SWAP1 POP DUP2 DUP2 SUB PUSH0 DUP4 ADD MSTORE PUSH2 0x1EC DUP2 DUP5 PUSH2 0x19C JUMP JUMPDEST SWAP1 POP SWAP3 SWAP2 POP POP JUMP JUMPDEST PUSH0 PUSH1 0x40 MLOAD SWAP1 POP SWAP1 JUMP JUMPDEST PUSH0 DUP1 REVERT JUMPDEST PUSH0 DUP1 REVERT JUMPDEST PUSH0 DUP1 REVERT JUMPDEST PUSH0 DUP1 REVERT JUMPDEST PUSH32 0x4E487B7100000000000000000000000000000000000000000000000000000000 PUSH0 MSTORE PUSH1 0x41 PUSH1 0x4 MSTORE PUSH1 0x24 PUSH0 REVERT JUMPDEST PUSH2 0x243 DUP3 PUSH2 0x18C JUMP JUMPDEST DUP2 ADD DUP2 DUP2 LT PUSH8 0xFFFFFFFFFFFFFFFF DUP3 GT OR ISZERO PUSH2 0x262 JUMPI PUSH2 0x261 PUSH2 0x20D JUMP JUMPDEST JUMPDEST DUP1 PUSH1 0x40 MSTORE POP POP POP JUMP JUMPDEST PUSH0 PUSH2 0x274 PUSH2 0x1F4 JUMP JUMPDEST SWAP1 POP PUSH2 0x280 DUP3 DUP3 PUSH2 0x23A JUMP JUMPDEST SWAP2 SWAP1 POP JUMP JUMPDEST PUSH0 PUSH8 0xFFFFFFFFFFFFFFFF DUP3 GT ISZERO PUSH2 0x29F JUMPI PUSH2 0x29E PUSH2 0x20D JUMP JUMPDEST JUMPDEST PUSH2 0x2A8 DUP3 PUSH2 0x18C JUMP JUMPDEST SWAP1 POP PUSH1 0x20 DUP2 ADD SWAP1 POP SWAP2 SWAP1 POP JUMP JUMPDEST DUP3 DUP2 DUP4 CALLDATACOPY PUSH0 DUP4 DUP4 ADD MSTORE POP POP POP JUMP JUMPDEST PUSH0 PUSH2 0x2D5 PUSH2 0x2D0 DUP5 PUSH2 0x285 JUMP JUMPDEST PUSH2 0x26B JUMP JUMPDEST SWAP1 POP DUP3 DUP2 MSTORE PUSH1 0x20 DUP2 ADD DUP5 DUP5 DUP5 ADD GT ISZERO PUSH2 0x2F1 JUMPI PUSH2 0x2F0 PUSH2 0x209 JUMP JUMPDEST JUMPDEST PUSH2 0x2FC DUP5 DUP3 DUP6 PUSH2 0x2B5 JUMP JUMPDEST POP SWAP4 SWAP3 POP POP POP JUMP JUMPDEST PUSH0 DUP3 PUSH1 0x1F DUP4 ADD SLT PUSH2 0x318 JUMPI PUSH2 0x317 PUSH2 0x205 JUMP JUMPDEST JUMPDEST DUP2 CALLDATALOAD PUSH2 0x328 DUP5 DUP3 PUSH1 0x20 DUP7 ADD PUSH2 0x2C3 JUMP JUMPDEST SWAP2 POP POP SWAP3 SWAP2 POP POP JUMP JUMPDEST PUSH0 DUP1 PUSH1 0x40 DUP4 DUP6 SUB SLT ISZERO PUSH2 0x347 JUMPI PUSH2 0x346 PUSH2 0x1FD JUMP JUMPDEST JUMPDEST PUSH0 DUP4 ADD CALLDATALOAD PUSH8 0xFFFFFFFFFFFFFFFF DUP2 GT ISZERO PUSH2 0x364 JUMPI PUSH2 0x363 PUSH2 0x201 JUMP JUMPDEST JUMPDEST PUSH2 0x370 DUP6 DUP3 DUP7 ADD PUSH2 0x304 JUMP JUMPDEST SWAP3 POP POP PUSH1 0x20 DUP4 ADD CALLDATALOAD PUSH8 0xFFFFFFFFFFFFFFFF DUP2 GT ISZERO PUSH2 0x391 JUMPI PUSH2 0x390 PUSH2 0x201 JUMP JUMPDEST JUMPDEST PUSH2 0x39D DUP6 DUP3 DUP7 ADD PUSH2 0x304 JUMP JUMPDEST SWAP2 POP POP SWAP3 POP SWAP3 SWAP1 POP JUMP JUMPDEST PUSH32 0x4E487B7100000000000000000000000000000000000000000000000000000000 PUSH0 MSTORE PUSH1 0x22 PUSH1 0x4 MSTORE PUSH1 0x24 PUSH0 REVERT JUMPDEST PUSH0 PUSH1 0x2 DUP3 DIV SWAP1 POP PUSH1 0x1 DUP3 AND DUP1 PUSH2 0x3EB JUMPI PUSH1 0x7F DUP3 AND SWAP2 POP JUMPDEST PUSH1 0x20 DUP3 LT DUP2 SUB PUSH2 0x3FE JUMPI PUSH2 0x3FD PUSH2 0x3A7 JUMP JUMPDEST JUMPDEST POP SWAP2 SWAP1 POP JUMP JUMPDEST PUSH0 DUP2 SWAP1 POP SWAP3 SWAP2 POP POP JUMP JUMPDEST PUSH0 DUP2 SWAP1 POP DUP2 PUSH0 MSTORE PUSH1 0x20 PUSH0 KECCAK256 SWAP1 POP SWAP2 SWAP1 POP JUMP JUMPDEST PUSH0 DUP2 SLOAD PUSH2 0x42C DUP2 PUSH2 0x3D4 JUMP JUMPDEST PUSH2 0x436 DUP2 DUP7 PUSH2 0x404 JUMP JUMPDEST SWAP5 POP PUSH1 0x1 DUP3 AND PUSH0 DUP2 EQ PUSH2 0x450 JUMPI PUSH1 0x1 DUP2 EQ PUSH2 0x465 JUMPI PUSH2 0x497 JUMP JUMPDEST PUSH1 0xFF NOT DUP4 AND DUP7 MSTORE DUP2 ISZERO ISZERO DUP3 MUL DUP7 ADD SWAP4 POP PUSH2 0x497 JUMP JUMPDEST PUSH2 0x46E DUP6 PUSH2 0x40E JUMP JUMPDEST PUSH0 JUMPDEST DUP4 DUP2 LT ISZERO PUSH2 0x48F JUMPI DUP2 SLOAD DUP2 DUP10 ADD MSTORE PUSH1 0x1 DUP3 ADD SWAP2 POP PUSH1 0x20 DUP2 ADD SWAP1 POP PUSH2 0x470 JUMP JUMPDEST DUP4 DUP9 ADD SWAP6 POP POP POP JUMPDEST POP POP POP SWAP3 SWAP2 POP POP JUMP JUMPDEST PUSH0 PUSH2 0x4AB DUP3 DUP5 PUSH2 0x420 JUMP JUMPDEST SWAP2 POP DUP2 SWAP1 POP SWAP3 SWAP2 POP POP JUMP JUMPDEST PUSH0 PUSH1 0x20 PUSH1 0x1F DUP4 ADD DIV SWAP1 POP SWAP2 SWAP1 POP JUMP JUMPDEST PUSH0 DUP3 DUP3 SHL SWAP1 POP SWAP3 SWAP2 POP POP JUMP JUMPDEST PUSH0 PUSH1 0x8 DUP4 MUL PUSH2 0x500 PUSH32 0xFFFFFFFFFFFFFFFFFFFFFFFFFFFFFFFFFFFFFFFFFFFFFFFFFFFFFFFFFFFFFFFF DUP3 PUSH2 0x4C5 JUMP JUMPDEST PUSH2 0x50A DUP7 DUP4 PUSH2 0x4C5 JUMP JUMPDEST SWAP6 POP DUP1 NOT DUP5 AND SWAP4 POP DUP1 DUP7 AND DUP5 OR SWAP3 POP POP POP SWAP4 SWAP3 POP POP POP JUMP JUMPDEST PUSH0 DUP2 SWAP1 POP SWAP2 SWAP1 POP JUMP JUMPDEST PUSH0 DUP2 SWAP1 POP SWAP2 SWAP1 POP JUMP JUMPDEST PUSH0 PUSH2 0x54E PUSH2 0x549 PUSH2 0x544 DUP5 PUSH2 0x522 JUMP JUMPDEST PUSH2 0x52B JUMP JUMPDEST PUSH2 0x522 JUMP JUMPDEST SWAP1 POP SWAP2 SWAP1 POP JUMP JUMPDEST PUSH0 DUP2 SWAP1 POP SWAP2 SWAP1 POP JUMP JUMPDEST PUSH2 0x567 DUP4 PUSH2 0x534 JUMP JUMPDEST PUSH2 0x57B PUSH2 0x573 DUP3 PUSH2 0x555 JUMP JUMPDEST DUP5 DUP5 SLOAD PUSH2 0x4D1 JUMP JUMPDEST DUP3 SSTORE POP POP POP POP JUMP JUMPDEST PUSH0 SWAP1 JUMP JUMPDEST PUSH2 0x58F PUSH2 0x583 JUMP JUMPDEST PUSH2 0x59A DUP2 DUP5 DUP5 PUSH2 0x55E JUMP JUMPDEST POP POP POP JUMP JUMPDEST JUMPDEST DUP2 DUP2 LT ISZERO PUSH2 0x5BD JUMPI PUSH2 0x5B2 PUSH0 DUP3 PUSH2 0x587 JUMP JUMPDEST PUSH1 0x1 DUP2 ADD SWAP1 POP PUSH2 0x5A0 JUMP JUMPDEST POP POP JUMP JUMPDEST PUSH1 0x1F DUP3 GT ISZERO PUSH2 0x602 JUMPI PUSH2 0x5D3 DUP2 PUSH2 0x40E JUMP JUMPDEST PUSH2 0x5DC DUP5 PUSH2 0x4B6 JUMP JUMPDEST DUP2 ADD PUSH1 0x20 DUP6 LT ISZERO PUSH2 0x5EB JUMPI DUP2 SWAP1 POP JUMPDEST PUSH2 0x5FF PUSH2 0x5F7 DUP6 PUSH2 0x4B6 JUMP JUMPDEST DUP4 ADD DUP3 PUSH2 0x59F JUMP JUMPDEST POP POP JUMPDEST POP POP POP JUMP JUMPDEST PUSH0 DUP3 DUP3 SHR SWAP1 POP SWAP3 SWAP2 POP POP JUMP JUMPDEST PUSH0 PUSH2 0x622 PUSH0 NOT DUP5 PUSH1 0x8 MUL PUSH2 0x607 JUMP JUMPDEST NOT DUP1 DUP4 AND SWAP2 POP POP SWAP3 SWAP2 POP POP JUMP JUMPDEST PUSH0 PUSH2 0x63A DUP4 DUP4 PUSH2 0x613 JUMP JUMPDEST SWAP2 POP DUP3 PUSH1 0x2 MUL DUP3 OR SWAP1 POP SWAP3 SWAP2 POP POP JUMP JUMPDEST PUSH2 0x653 DUP3 PUSH2 0x164 JUMP JUMPDEST PUSH8 0xFFFFFFFFFFFFFFFF DUP2 GT ISZERO PUSH2 0x66C JUMPI PUSH2 0x66B PUSH2 0x20D JUMP JUMPDEST JUMPDEST PUSH2 0x676 DUP3 SLOAD PUSH2 0x3D4 JUMP JUMPDEST PUSH2 0x681 DUP3 DUP3 DUP6 PUSH2 0x5C1 JUMP JUMPDEST PUSH0 PUSH1 0x20 SWAP1 POP PUSH1 0x1F DUP4 GT PUSH1 0x1 DUP2 EQ PUSH2 0x6B2 JUMPI PUSH0 DUP5 ISZERO PUSH2 0x6A0 JUMPI DUP3 DUP8 ADD MLOAD SWAP1 POP JUMPDEST PUSH2 0x6AA DUP6 DUP3 PUSH2 0x62F JUMP JUMPDEST DUP7 SSTORE POP PUSH2 0x711 JUMP JUMPDEST PUSH1 0x1F NOT DUP5 AND PUSH2 0x6C0 DUP7 PUSH2 0x40E JUMP JUMPDEST PUSH0 JUMPDEST DUP3 DUP2 LT ISZERO PUSH2 0x6E7 JUMPI DUP5 DUP10 ADD MLOAD DUP3 SSTORE PUSH1 0x1 DUP3 ADD SWAP2 POP PUSH1 0x20 DUP6 ADD SWAP5 POP PUSH1 0x20 DUP2 ADD SWAP1 POP PUSH2 0x6C2 JUMP JUMPDEST DUP7 DUP4 LT ISZERO PUSH2 0x704 JUMPI DUP5 DUP10 ADD MLOAD PUSH2 0x700 PUSH1 0x1F DUP10 AND DUP3 PUSH2 0x613 JUMP JUMPDEST DUP4 SSTORE POP JUMPDEST PUSH1 0x1 PUSH1 0x2 DUP9 MUL ADD DUP9 SSTORE POP POP POP JUMPDEST POP POP POP POP POP POP JUMP INVALID LOG2 PUSH5 0x6970667358 0x22 SLT KECCAK256 MSTORE PUSH4 0x45773232 PUSH25 0x81B3EFC4A7BC2503F76968E3F2214725980AA7D6A7B19178E1 PUSH5 0x736F6C6343 STOP ADDMOD BYTE STOP CALLER "
				},
				"gasEstimates": {
					"creation": {
						"codeDepositCost": "374200",
						"executionCost": "409",
						"totalCost": "374609"
					},
					"external": {
						"compare_str()": "infinite",
						"store(string,string)": "infinite"
					}
				},
				"methodIdentifiers": {
					"compare_str()": "746f7ed5",
					"store(string,string)": "f641090c"
				}
			},
			"storageLayout": {
				"storage": [
					{
						"astId": 3,
						"contract": "Assignments/program-21.sol:Compare",
						"label": "msg1",
						"offset": 0,
						"slot": "0",
						"type": "t_string_storage"
					},
					{
						"astId": 5,
						"contract": "Assignments/program-21.sol:Compare",
						"label": "msg2",
						"offset": 0,
						"slot": "1",
						"type": "t_string_storage"
					}
				],
				"types": {
					"t_string_storage": {
						"encoding": "bytes",
						"label": "string",
						"numberOfBytes": "32"
					}
				}
			},
			"userdoc": {
				"kind": "user",
				"methods": {},
				"version": 1
			}
		}
	}
}