{
	"Assignments/program-9.sol": {
		"Counter": {
			"abi": [
				{
					"inputs": [],
					"stateMutability": "nonpayable",
					"type": "constructor"
				},
				{
					"inputs": [],
					"name": "Decrement",
					"outputs": [],
					"stateMutability": "nonpayable",
					"type": "function"
				},
				{
					"inputs": [],
					"name": "Increment",
					"outputs": [],
					"stateMutability": "nonpayable",
					"type": "function"
				},
				{
					"inputs": [],
					"name": "getCounter",
					"outputs": [
						{
							"internalType": "uint256",
							"name": "",
							"type": "uint256"
						}
					],
					"stateMutability": "view",
					"type": "function"
				},
				{
					"inputs": [],
					"name": "setCount",
					"outputs": [],
					"stateMutability": "nonpayable",
					"type": "function"
				}
			],
			"devdoc": {
				"kind": "dev",
				"methods": {},
				"version": 1
			},
			"evm": {
				"assembly": "    /* \"Assignments/program-9.sol\":62:584  contract Counter{... */\n  mstore(0x40, 0x80)\n    /* \"Assignments/program-9.sol\":124:174  constructor(){... */\n  callvalue\n  dup1\n  iszero\n  tag_1\n  jumpi\n  0x00\n  dup1\n  revert\ntag_1:\n  pop\n    /* \"Assignments/program-9.sol\":156:166  msg.sender */\n  caller\n    /* \"Assignments/program-9.sol\":148:153  owner */\n  0x01\n  0x00\n    /* \"Assignments/program-9.sol\":148:166  owner = msg.sender */\n  0x0100\n  exp\n  dup2\n  sload\n  dup2\n  0xffffffffffffffffffffffffffffffffffffffff\n  mul\n  not\n  and\n  swap1\n  dup4\n  0xffffffffffffffffffffffffffffffffffffffff\n  and\n  mul\n  or\n  swap1\n  sstore\n  pop\n    /* \"Assignments/program-9.sol\":62:584  contract Counter{... */\n  dataSize(sub_0)\n  dup1\n  dataOffset(sub_0)\n  0x00\n  codecopy\n  0x00\n  return\nstop\n\nsub_0: assembly {\n        /* \"Assignments/program-9.sol\":62:584  contract Counter{... */\n      mstore(0x40, 0x80)\n      callvalue\n      dup1\n      iszero\n      tag_1\n      jumpi\n      0x00\n      dup1\n      revert\n    tag_1:\n      pop\n      jumpi(tag_2, lt(calldatasize, 0x04))\n      shr(0xe0, calldataload(0x00))\n      dup1\n      0x20ed8b89\n      eq\n      tag_3\n      jumpi\n      dup1\n      0x648b7ce8\n      eq\n      tag_4\n      jumpi\n      dup1\n      0x8ada066e\n      eq\n      tag_5\n      jumpi\n      dup1\n      0xf3922ca2\n      eq\n      tag_6\n      jumpi\n    tag_2:\n      0x00\n      dup1\n      revert\n        /* \"Assignments/program-9.sol\":306:430  function Decrement() public{... */\n    tag_3:\n      tag_7\n      tag_8\n      jump\t// in\n    tag_7:\n      stop\n        /* \"Assignments/program-9.sol\":242:300  function Increment() public{... */\n    tag_4:\n      tag_9\n      tag_10\n      jump\t// in\n    tag_9:\n      stop\n        /* \"Assignments/program-9.sol\":437:581  function getCounter() public view returns(uint){... */\n    tag_5:\n      tag_11\n      tag_12\n      jump\t// in\n    tag_11:\n      mload(0x40)\n      tag_13\n      swap2\n      swap1\n      tag_14\n      jump\t// in\n    tag_13:\n      mload(0x40)\n      dup1\n      swap2\n      sub\n      swap1\n      return\n        /* \"Assignments/program-9.sol\":180:236  function setCount() public{... */\n    tag_6:\n      tag_15\n      tag_16\n      jump\t// in\n    tag_15:\n      stop\n        /* \"Assignments/program-9.sol\":306:430  function Decrement() public{... */\n    tag_8:\n        /* \"Assignments/program-9.sol\":362:363  0 */\n      0x00\n        /* \"Assignments/program-9.sol\":352:359  counter */\n      dup1\n      sload\n        /* \"Assignments/program-9.sol\":352:363  counter > 0 */\n      gt\n        /* \"Assignments/program-9.sol\":344:399  require(counter > 0,\"counter should not go below zero\") */\n      tag_18\n      jumpi\n      mload(0x40)\n      0x08c379a000000000000000000000000000000000000000000000000000000000\n      dup2\n      mstore\n      0x04\n      add\n      tag_19\n      swap1\n      tag_20\n      jump\t// in\n    tag_19:\n      mload(0x40)\n      dup1\n      swap2\n      sub\n      swap1\n      revert\n    tag_18:\n        /* \"Assignments/program-9.sol\":421:422  1 */\n      0x01\n        /* \"Assignments/program-9.sol\":410:417  counter */\n      0x00\n      dup1\n        /* \"Assignments/program-9.sol\":410:422  counter -= 1 */\n      dup3\n      dup3\n      sload\n      tag_21\n      swap2\n      swap1\n      tag_22\n      jump\t// in\n    tag_21:\n      swap3\n      pop\n      pop\n      dup2\n      swap1\n      sstore\n      pop\n        /* \"Assignments/program-9.sol\":306:430  function Decrement() public{... */\n      jump\t// out\n        /* \"Assignments/program-9.sol\":242:300  function Increment() public{... */\n    tag_10:\n        /* \"Assignments/program-9.sol\":291:292  1 */\n      0x01\n        /* \"Assignments/program-9.sol\":280:287  counter */\n      0x00\n      dup1\n        /* \"Assignments/program-9.sol\":280:292  counter += 1 */\n      dup3\n      dup3\n      sload\n      tag_24\n      swap2\n      swap1\n      tag_25\n      jump\t// in\n    tag_24:\n      swap3\n      pop\n      pop\n      dup2\n      swap1\n      sstore\n      pop\n        /* \"Assignments/program-9.sol\":242:300  function Increment() public{... */\n      jump\t// out\n        /* \"Assignments/program-9.sol\":437:581  function getCounter() public view returns(uint){... */\n    tag_12:\n        /* \"Assignments/program-9.sol\":479:483  uint */\n      0x00\n        /* \"Assignments/program-9.sol\":517:522  owner */\n      0x01\n      0x00\n      swap1\n      sload\n      swap1\n      0x0100\n      exp\n      swap1\n      div\n      0xffffffffffffffffffffffffffffffffffffffff\n      and\n        /* \"Assignments/program-9.sol\":503:522  msg.sender == owner */\n      0xffffffffffffffffffffffffffffffffffffffff\n      and\n        /* \"Assignments/program-9.sol\":503:513  msg.sender */\n      caller\n        /* \"Assignments/program-9.sol\":503:522  msg.sender == owner */\n      0xffffffffffffffffffffffffffffffffffffffff\n      and\n      eq\n        /* \"Assignments/program-9.sol\":495:548  require(msg.sender == owner, \"You are not the owner\") */\n      tag_27\n      jumpi\n      mload(0x40)\n      0x08c379a000000000000000000000000000000000000000000000000000000000\n      dup2\n      mstore\n      0x04\n      add\n      tag_28\n      swap1\n      tag_29\n      jump\t// in\n    tag_28:\n      mload(0x40)\n      dup1\n      swap2\n      sub\n      swap1\n      revert\n    tag_27:\n        /* \"Assignments/program-9.sol\":566:573  counter */\n      sload(0x00)\n        /* \"Assignments/program-9.sol\":559:573  return counter */\n      swap1\n      pop\n        /* \"Assignments/program-9.sol\":437:581  function getCounter() public view returns(uint){... */\n      swap1\n      jump\t// out\n        /* \"Assignments/program-9.sol\":180:236  function setCount() public{... */\n    tag_16:\n        /* \"Assignments/program-9.sol\":227:228  0 */\n      0x00\n        /* \"Assignments/program-9.sol\":217:224  counter */\n      dup1\n        /* \"Assignments/program-9.sol\":217:228  counter = 0 */\n      dup2\n      swap1\n      sstore\n      pop\n        /* \"Assignments/program-9.sol\":180:236  function setCount() public{... */\n      jump\t// out\n        /* \"#utility.yul\":7:84   */\n    tag_31:\n        /* \"#utility.yul\":44:51   */\n      0x00\n        /* \"#utility.yul\":73:78   */\n      dup2\n        /* \"#utility.yul\":62:78   */\n      swap1\n      pop\n        /* \"#utility.yul\":7:84   */\n      swap2\n      swap1\n      pop\n      jump\t// out\n        /* \"#utility.yul\":90:208   */\n    tag_32:\n        /* \"#utility.yul\":177:201   */\n      tag_42\n        /* \"#utility.yul\":195:200   */\n      dup2\n        /* \"#utility.yul\":177:201   */\n      tag_31\n      jump\t// in\n    tag_42:\n        /* \"#utility.yul\":172:175   */\n      dup3\n        /* \"#utility.yul\":165:202   */\n      mstore\n        /* \"#utility.yul\":90:208   */\n      pop\n      pop\n      jump\t// out\n        /* \"#utility.yul\":214:436   */\n    tag_14:\n        /* \"#utility.yul\":307:311   */\n      0x00\n        /* \"#utility.yul\":345:347   */\n      0x20\n        /* \"#utility.yul\":334:343   */\n      dup3\n        /* \"#utility.yul\":330:348   */\n      add\n        /* \"#utility.yul\":322:348   */\n      swap1\n      pop\n        /* \"#utility.yul\":358:429   */\n      tag_44\n        /* \"#utility.yul\":426:427   */\n      0x00\n        /* \"#utility.yul\":415:424   */\n      dup4\n        /* \"#utility.yul\":411:428   */\n      add\n        /* \"#utility.yul\":402:408   */\n      dup5\n        /* \"#utility.yul\":358:429   */\n      tag_32\n      jump\t// in\n    tag_44:\n        /* \"#utility.yul\":214:436   */\n      swap3\n      swap2\n      pop\n      pop\n      jump\t// out\n        /* \"#utility.yul\":442:611   */\n    tag_33:\n        /* \"#utility.yul\":526:537   */\n      0x00\n        /* \"#utility.yul\":560:566   */\n      dup3\n        /* \"#utility.yul\":555:558   */\n      dup3\n        /* \"#utility.yul\":548:567   */\n      mstore\n        /* \"#utility.yul\":600:604   */\n      0x20\n        /* \"#utility.yul\":595:598   */\n      dup3\n        /* \"#utility.yul\":591:605   */\n      add\n        /* \"#utility.yul\":576:605   */\n      swap1\n      pop\n        /* \"#utility.yul\":442:611   */\n      swap3\n      swap2\n      pop\n      pop\n      jump\t// out\n        /* \"#utility.yul\":617:799   */\n    tag_34:\n        /* \"#utility.yul\":757:791   */\n      0x636f756e7465722073686f756c64206e6f7420676f2062656c6f77207a65726f\n        /* \"#utility.yul\":753:754   */\n      0x00\n        /* \"#utility.yul\":745:751   */\n      dup3\n        /* \"#utility.yul\":741:755   */\n      add\n        /* \"#utility.yul\":734:792   */\n      mstore\n        /* \"#utility.yul\":617:799   */\n      pop\n      jump\t// out\n        /* \"#utility.yul\":805:1171   */\n    tag_35:\n        /* \"#utility.yul\":947:950   */\n      0x00\n        /* \"#utility.yul\":968:1035   */\n      tag_48\n        /* \"#utility.yul\":1032:1034   */\n      0x20\n        /* \"#utility.yul\":1027:1030   */\n      dup4\n        /* \"#utility.yul\":968:1035   */\n      tag_33\n      jump\t// in\n    tag_48:\n        /* \"#utility.yul\":961:1035   */\n      swap2\n      pop\n        /* \"#utility.yul\":1044:1137   */\n      tag_49\n        /* \"#utility.yul\":1133:1136   */\n      dup3\n        /* \"#utility.yul\":1044:1137   */\n      tag_34\n      jump\t// in\n    tag_49:\n        /* \"#utility.yul\":1162:1164   */\n      0x20\n        /* \"#utility.yul\":1157:1160   */\n      dup3\n        /* \"#utility.yul\":1153:1165   */\n      add\n        /* \"#utility.yul\":1146:1165   */\n      swap1\n      pop\n        /* \"#utility.yul\":805:1171   */\n      swap2\n      swap1\n      pop\n      jump\t// out\n        /* \"#utility.yul\":1177:1596   */\n    tag_20:\n        /* \"#utility.yul\":1343:1347   */\n      0x00\n        /* \"#utility.yul\":1381:1383   */\n      0x20\n        /* \"#utility.yul\":1370:1379   */\n      dup3\n        /* \"#utility.yul\":1366:1384   */\n      add\n        /* \"#utility.yul\":1358:1384   */\n      swap1\n      pop\n        /* \"#utility.yul\":1430:1439   */\n      dup2\n        /* \"#utility.yul\":1424:1428   */\n      dup2\n        /* \"#utility.yul\":1420:1440   */\n      sub\n        /* \"#utility.yul\":1416:1417   */\n      0x00\n        /* \"#utility.yul\":1405:1414   */\n      dup4\n        /* \"#utility.yul\":1401:1418   */\n      add\n        /* \"#utility.yul\":1394:1441   */\n      mstore\n        /* \"#utility.yul\":1458:1589   */\n      tag_51\n        /* \"#utility.yul\":1584:1588   */\n      dup2\n        /* \"#utility.yul\":1458:1589   */\n      tag_35\n      jump\t// in\n    tag_51:\n        /* \"#utility.yul\":1450:1589   */\n      swap1\n      pop\n        /* \"#utility.yul\":1177:1596   */\n      swap2\n      swap1\n      pop\n      jump\t// out\n        /* \"#utility.yul\":1602:1782   */\n    tag_36:\n        /* \"#utility.yul\":1650:1727   */\n      0x4e487b7100000000000000000000000000000000000000000000000000000000\n        /* \"#utility.yul\":1647:1648   */\n      0x00\n        /* \"#utility.yul\":1640:1728   */\n      mstore\n        /* \"#utility.yul\":1747:1751   */\n      0x11\n        /* \"#utility.yul\":1744:1745   */\n      0x04\n        /* \"#utility.yul\":1737:1752   */\n      mstore\n        /* \"#utility.yul\":1771:1775   */\n      0x24\n        /* \"#utility.yul\":1768:1769   */\n      0x00\n        /* \"#utility.yul\":1761:1776   */\n      revert\n        /* \"#utility.yul\":1788:1982   */\n    tag_22:\n        /* \"#utility.yul\":1828:1832   */\n      0x00\n        /* \"#utility.yul\":1848:1868   */\n      tag_54\n        /* \"#utility.yul\":1866:1867   */\n      dup3\n        /* \"#utility.yul\":1848:1868   */\n      tag_31\n      jump\t// in\n    tag_54:\n        /* \"#utility.yul\":1843:1868   */\n      swap2\n      pop\n        /* \"#utility.yul\":1882:1902   */\n      tag_55\n        /* \"#utility.yul\":1900:1901   */\n      dup4\n        /* \"#utility.yul\":1882:1902   */\n      tag_31\n      jump\t// in\n    tag_55:\n        /* \"#utility.yul\":1877:1902   */\n      swap3\n      pop\n        /* \"#utility.yul\":1926:1927   */\n      dup3\n        /* \"#utility.yul\":1923:1924   */\n      dup3\n        /* \"#utility.yul\":1919:1928   */\n      sub\n        /* \"#utility.yul\":1911:1928   */\n      swap1\n      pop\n        /* \"#utility.yul\":1950:1951   */\n      dup2\n        /* \"#utility.yul\":1944:1948   */\n      dup2\n        /* \"#utility.yul\":1941:1952   */\n      gt\n        /* \"#utility.yul\":1938:1975   */\n      iszero\n      tag_56\n      jumpi\n        /* \"#utility.yul\":1955:1973   */\n      tag_57\n      tag_36\n      jump\t// in\n    tag_57:\n        /* \"#utility.yul\":1938:1975   */\n    tag_56:\n        /* \"#utility.yul\":1788:1982   */\n      swap3\n      swap2\n      pop\n      pop\n      jump\t// out\n        /* \"#utility.yul\":1988:2179   */\n    tag_25:\n        /* \"#utility.yul\":2028:2031   */\n      0x00\n        /* \"#utility.yul\":2047:2067   */\n      tag_59\n        /* \"#utility.yul\":2065:2066   */\n      dup3\n        /* \"#utility.yul\":2047:2067   */\n      tag_31\n      jump\t// in\n    tag_59:\n        /* \"#utility.yul\":2042:2067   */\n      swap2\n      pop\n        /* \"#utility.yul\":2081:2101   */\n      tag_60\n        /* \"#utility.yul\":2099:2100   */\n      dup4\n        /* \"#utility.yul\":2081:2101   */\n      tag_31\n      jump\t// in\n    tag_60:\n        /* \"#utility.yul\":2076:2101   */\n      swap3\n      pop\n        /* \"#utility.yul\":2124:2125   */\n      dup3\n        /* \"#utility.yul\":2121:2122   */\n      dup3\n        /* \"#utility.yul\":2117:2126   */\n      add\n        /* \"#utility.yul\":2110:2126   */\n      swap1\n      pop\n        /* \"#utility.yul\":2145:2148   */\n      dup1\n        /* \"#utility.yul\":2142:2143   */\n      dup3\n        /* \"#utility.yul\":2139:2149   */\n      gt\n        /* \"#utility.yul\":2136:2172   */\n      iszero\n      tag_61\n      jumpi\n        /* \"#utility.yul\":2152:2170   */\n      tag_62\n      tag_36\n      jump\t// in\n    tag_62:\n        /* \"#utility.yul\":2136:2172   */\n    tag_61:\n        /* \"#utility.yul\":1988:2179   */\n      swap3\n      swap2\n      pop\n      pop\n      jump\t// out\n        /* \"#utility.yul\":2185:2356   */\n    tag_37:\n        /* \"#utility.yul\":2325:2348   */\n      0x596f7520617265206e6f7420746865206f776e65720000000000000000000000\n        /* \"#utility.yul\":2321:2322   */\n      0x00\n        /* \"#utility.yul\":2313:2319   */\n      dup3\n        /* \"#utility.yul\":2309:2323   */\n      add\n        /* \"#utility.yul\":2302:2349   */\n      mstore\n        /* \"#utility.yul\":2185:2356   */\n      pop\n      jump\t// out\n        /* \"#utility.yul\":2362:2728   */\n    tag_38:\n        /* \"#utility.yul\":2504:2507   */\n      0x00\n        /* \"#utility.yul\":2525:2592   */\n      tag_65\n        /* \"#utility.yul\":2589:2591   */\n      0x15\n        /* \"#utility.yul\":2584:2587   */\n      dup4\n        /* \"#utility.yul\":2525:2592   */\n      tag_33\n      jump\t// in\n    tag_65:\n        /* \"#utility.yul\":2518:2592   */\n      swap2\n      pop\n        /* \"#utility.yul\":2601:2694   */\n      tag_66\n        /* \"#utility.yul\":2690:2693   */\n      dup3\n        /* \"#utility.yul\":2601:2694   */\n      tag_37\n      jump\t// in\n    tag_66:\n        /* \"#utility.yul\":2719:2721   */\n      0x20\n        /* \"#utility.yul\":2714:2717   */\n      dup3\n        /* \"#utility.yul\":2710:2722   */\n      add\n        /* \"#utility.yul\":2703:2722   */\n      swap1\n      pop\n        /* \"#utility.yul\":2362:2728   */\n      swap2\n      swap1\n      pop\n      jump\t// out\n        /* \"#utility.yul\":2734:3153   */\n    tag_29:\n        /* \"#utility.yul\":2900:2904   */\n      0x00\n        /* \"#utility.yul\":2938:2940   */\n      0x20\n        /* \"#utility.yul\":2927:2936   */\n      dup3\n        /* \"#utility.yul\":2923:2941   */\n      add\n        /* \"#utility.yul\":2915:2941   */\n      swap1\n      pop\n        /* \"#utility.yul\":2987:2996   */\n      dup2\n        /* \"#utility.yul\":2981:2985   */\n      dup2\n        /* \"#utility.yul\":2977:2997   */\n      sub\n        /* \"#utility.yul\":2973:2974   */\n      0x00\n        /* \"#utility.yul\":2962:2971   */\n      dup4\n        /* \"#utility.yul\":2958:2975   */\n      add\n        /* \"#utility.yul\":2951:2998   */\n      mstore\n        /* \"#utility.yul\":3015:3146   */\n      tag_68\n        /* \"#utility.yul\":3141:3145   */\n      dup2\n        /* \"#utility.yul\":3015:3146   */\n      tag_38\n      jump\t// in\n    tag_68:\n        /* \"#utility.yul\":3007:3146   */\n      swap1\n      pop\n        /* \"#utility.yul\":2734:3153   */\n      swap2\n      swap1\n      pop\n      jump\t// out\n\n    auxdata: 0xa2646970667358221220629dac1d54fc9e476d0c655369f7a23acd943ab74af85ee36549a4e983b3167364736f6c634300081a0033\n}\n",
				"bytecode": {
					"linkReferences": {},
					"object": "6080604052348015600e575f80fd5b503360015f6101000a81548173ffffffffffffffffffffffffffffffffffffffff021916908373ffffffffffffffffffffffffffffffffffffffff16021790555061037a8061005c5f395ff3fe608060405234801561000f575f80fd5b506004361061004a575f3560e01c806320ed8b891461004e578063648b7ce8146100585780638ada066e14610062578063f3922ca214610080575b5f80fd5b61005661008a565b005b6100606100e7565b005b61006a610101565b60405161007791906101b8565b60405180910390f35b610088610198565b005b5f8054116100cd576040517f08c379a00000000000000000000000000000000000000000000000000000000081526004016100c49061022b565b60405180910390fd5b60015f808282546100de9190610276565b92505081905550565b60015f808282546100f891906102a9565b92505081905550565b5f60015f9054906101000a900473ffffffffffffffffffffffffffffffffffffffff1673ffffffffffffffffffffffffffffffffffffffff163373ffffffffffffffffffffffffffffffffffffffff1614610191576040517f08c379a000000000000000000000000000000000000000000000000000000000815260040161018890610326565b60405180910390fd5b5f54905090565b5f8081905550565b5f819050919050565b6101b2816101a0565b82525050565b5f6020820190506101cb5f8301846101a9565b92915050565b5f82825260208201905092915050565b7f636f756e7465722073686f756c64206e6f7420676f2062656c6f77207a65726f5f82015250565b5f6102156020836101d1565b9150610220826101e1565b602082019050919050565b5f6020820190508181035f83015261024281610209565b9050919050565b7f4e487b71000000000000000000000000000000000000000000000000000000005f52601160045260245ffd5b5f610280826101a0565b915061028b836101a0565b92508282039050818111156102a3576102a2610249565b5b92915050565b5f6102b3826101a0565b91506102be836101a0565b92508282019050808211156102d6576102d5610249565b5b92915050565b7f596f7520617265206e6f7420746865206f776e657200000000000000000000005f82015250565b5f6103106015836101d1565b915061031b826102dc565b602082019050919050565b5f6020820190508181035f83015261033d81610304565b905091905056fea2646970667358221220629dac1d54fc9e476d0c655369f7a23acd943ab74af85ee36549a4e983b3167364736f6c634300081a0033",
					"opcodes": "PUSH1 0x80 PUSH1 0x40 MSTORE CALLVALUE DUP1 ISZERO PUSH1 0xE JUMPI PUSH0 DUP1 REVERT JUMPDEST POP CALLER PUSH1 0x1 PUSH0 PUSH2 0x100 EXP DUP2 SLOAD DUP2 PUSH20 0xFFFFFFFFFFFFFFFFFFFFFFFFFFFFFFFFFFFFFFFF MUL NOT AND SWAP1 DUP4 PUSH20 0xFFFFFFFFFFFFFFFFFFFFFFFFFFFFFFFFFFFFFFFF AND MUL OR SWAP1 SSTORE POP PUSH2 0x37A DUP1 PUSH2 0x5C PUSH0 CODECOPY PUSH0 RETURN INVALID PUSH1 0x80 PUSH1 0x40 MSTORE CALLVALUE DUP1 ISZERO PUSH2 0xF JUMPI PUSH0 DUP1 REVERT JUMPDEST POP PUSH1 0x4 CALLDATASIZE LT PUSH2 0x4A JUMPI PUSH0 CALLDATALOAD PUSH1 0xE0 SHR DUP1 PUSH4 0x20ED8B89 EQ PUSH2 0x4E JUMPI DUP1 PUSH4 0x648B7CE8 EQ PUSH2 0x58 JUMPI DUP1 PUSH4 0x8ADA066E EQ PUSH2 0x62 JUMPI DUP1 PUSH4 0xF3922CA2 EQ PUSH2 0x80 JUMPI JUMPDEST PUSH0 DUP1 REVERT JUMPDEST PUSH2 0x56 PUSH2 0x8A JUMP JUMPDEST STOP JUMPDEST PUSH2 0x60 PUSH2 0xE7 JUMP JUMPDEST STOP JUMPDEST PUSH2 0x6A PUSH2 0x101 JUMP JUMPDEST PUSH1 0x40 MLOAD PUSH2 0x77 SWAP2 SWAP1 PUSH2 0x1B8 JUMP JUMPDEST PUSH1 0x40 MLOAD DUP1 SWAP2 SUB SWAP1 RETURN JUMPDEST PUSH2 0x88 PUSH2 0x198 JUMP JUMPDEST STOP JUMPDEST PUSH0 DUP1 SLOAD GT PUSH2 0xCD JUMPI PUSH1 0x40 MLOAD PUSH32 0x8C379A000000000000000000000000000000000000000000000000000000000 DUP2 MSTORE PUSH1 0x4 ADD PUSH2 0xC4 SWAP1 PUSH2 0x22B JUMP JUMPDEST PUSH1 0x40 MLOAD DUP1 SWAP2 SUB SWAP1 REVERT JUMPDEST PUSH1 0x1 PUSH0 DUP1 DUP3 DUP3 SLOAD PUSH2 0xDE SWAP2 SWAP1 PUSH2 0x276 JUMP JUMPDEST SWAP3 POP POP DUP2 SWAP1 SSTORE POP JUMP JUMPDEST PUSH1 0x1 PUSH0 DUP1 DUP3 DUP3 SLOAD PUSH2 0xF8 SWAP2 SWAP1 PUSH2 0x2A9 JUMP JUMPDEST SWAP3 POP POP DUP2 SWAP1 SSTORE POP JUMP JUMPDEST PUSH0 PUSH1 0x1 PUSH0 SWAP1 SLOAD SWAP1 PUSH2 0x100 EXP SWAP1 DIV PUSH20 0xFFFFFFFFFFFFFFFFFFFFFFFFFFFFFFFFFFFFFFFF AND PUSH20 0xFFFFFFFFFFFFFFFFFFFFFFFFFFFFFFFFFFFFFFFF AND CALLER PUSH20 0xFFFFFFFFFFFFFFFFFFFFFFFFFFFFFFFFFFFFFFFF AND EQ PUSH2 0x191 JUMPI PUSH1 0x40 MLOAD PUSH32 0x8C379A000000000000000000000000000000000000000000000000000000000 DUP2 MSTORE PUSH1 0x4 ADD PUSH2 0x188 SWAP1 PUSH2 0x326 JUMP JUMPDEST PUSH1 0x40 MLOAD DUP1 SWAP2 SUB SWAP1 REVERT JUMPDEST PUSH0 SLOAD SWAP1 POP SWAP1 JUMP JUMPDEST PUSH0 DUP1 DUP2 SWAP1 SSTORE POP JUMP JUMPDEST PUSH0 DUP2 SWAP1 POP SWAP2 SWAP1 POP JUMP JUMPDEST PUSH2 0x1B2 DUP2 PUSH2 0x1A0 JUMP JUMPDEST DUP3 MSTORE POP POP JUMP JUMPDEST PUSH0 PUSH1 0x20 DUP3 ADD SWAP1 POP PUSH2 0x1CB PUSH0 DUP4 ADD DUP5 PUSH2 0x1A9 JUMP JUMPDEST SWAP3 SWAP2 POP POP JUMP JUMPDEST PUSH0 DUP3 DUP3 MSTORE PUSH1 0x20 DUP3 ADD SWAP1 POP SWAP3 SWAP2 POP POP JUMP JUMPDEST PUSH32 0x636F756E7465722073686F756C64206E6F7420676F2062656C6F77207A65726F PUSH0 DUP3 ADD MSTORE POP JUMP JUMPDEST PUSH0 PUSH2 0x215 PUSH1 0x20 DUP4 PUSH2 0x1D1 JUMP JUMPDEST SWAP2 POP PUSH2 0x220 DUP3 PUSH2 0x1E1 JUMP JUMPDEST PUSH1 0x20 DUP3 ADD SWAP1 POP SWAP2 SWAP1 POP JUMP JUMPDEST PUSH0 PUSH1 0x20 DUP3 ADD SWAP1 POP DUP2 DUP2 SUB PUSH0 DUP4 ADD MSTORE PUSH2 0x242 DUP2 PUSH2 0x209 JUMP JUMPDEST SWAP1 POP SWAP2 SWAP1 POP JUMP JUMPDEST PUSH32 0x4E487B7100000000000000000000000000000000000000000000000000000000 PUSH0 MSTORE PUSH1 0x11 PUSH1 0x4 MSTORE PUSH1 0x24 PUSH0 REVERT JUMPDEST PUSH0 PUSH2 0x280 DUP3 PUSH2 0x1A0 JUMP JUMPDEST SWAP2 POP PUSH2 0x28B DUP4 PUSH2 0x1A0 JUMP JUMPDEST SWAP3 POP DUP3 DUP3 SUB SWAP1 POP DUP2 DUP2 GT ISZERO PUSH2 0x2A3 JUMPI PUSH2 0x2A2 PUSH2 0x249 JUMP JUMPDEST JUMPDEST SWAP3 SWAP2 POP POP JUMP JUMPDEST PUSH0 PUSH2 0x2B3 DUP3 PUSH2 0x1A0 JUMP JUMPDEST SWAP2 POP PUSH2 0x2BE DUP4 PUSH2 0x1A0 JUMP JUMPDEST SWAP3 POP DUP3 DUP3 ADD SWAP1 POP DUP1 DUP3 GT ISZERO PUSH2 0x2D6 JUMPI PUSH2 0x2D5 PUSH2 0x249 JUMP JUMPDEST JUMPDEST SWAP3 SWAP2 POP POP JUMP JUMPDEST PUSH32 0x596F7520617265206E6F7420746865206F776E65720000000000000000000000 PUSH0 DUP3 ADD MSTORE POP JUMP JUMPDEST PUSH0 PUSH2 0x310 PUSH1 0x15 DUP4 PUSH2 0x1D1 JUMP JUMPDEST SWAP2 POP PUSH2 0x31B DUP3 PUSH2 0x2DC JUMP JUMPDEST PUSH1 0x20 DUP3 ADD SWAP1 POP SWAP2 SWAP1 POP JUMP JUMPDEST PUSH0 PUSH1 0x20 DUP3 ADD SWAP1 POP DUP2 DUP2 SUB PUSH0 DUP4 ADD MSTORE PUSH2 0x33D DUP2 PUSH2 0x304 JUMP JUMPDEST SWAP1 POP SWAP2 SWAP1 POP JUMP INVALID LOG2 PUSH5 0x6970667358 0x22 SLT KECCAK256 PUSH3 0x9DAC1D SLOAD 0xFC SWAP15 SELFBALANCE PUSH14 0xC655369F7A23ACD943AB74AF85E 0xE3 PUSH6 0x49A4E983B316 PUSH20 0x64736F6C634300081A0033000000000000000000 "
				},
				"gasEstimates": {
					"creation": {
						"codeDepositCost": "178000",
						"executionCost": "24483",
						"totalCost": "202483"
					},
					"external": {
						"Decrement()": "infinite",
						"Increment()": "infinite",
						"getCounter()": "4622",
						"setCount()": "5200"
					}
				},
				"methodIdentifiers": {
					"Decrement()": "20ed8b89",
					"Increment()": "648b7ce8",
					"getCounter()": "8ada066e",
					"setCount()": "f3922ca2"
				}
			},
			"storageLayout": {
				"storage": [
					{
						"astId": 3,
						"contract": "Assignments/program-9.sol:Counter",
						"label": "counter",
						"offset": 0,
						"slot": "0",
						"type": "t_uint256"
					},
					{
						"astId": 5,
						"contract": "Assignments/program-9.sol:Counter",
						"label": "owner",
						"offset": 0,
						"slot": "1",
						"type": "t_address"
					}
				],
				"types": {
					"t_address": {
						"encoding": "inplace",
						"label": "address",
						"numberOfBytes": "20"
					},
					"t_uint256": {
						"encoding": "inplace",
						"label": "uint256",
						"numberOfBytes": "32"
					}
				}
			},
			"userdoc": {
				"kind": "user",
				"methods": {},
				"version": 1
			}
		}
	}
}