{
	"Assignments/program-5.sol": {
		"calculator": {
			"abi": [
				{
					"inputs": [
						{
							"internalType": "uint256",
							"name": "a",
							"type": "uint256"
						},
						{
							"internalType": "uint256",
							"name": "b",
							"type": "uint256"
						}
					],
					"name": "add",
					"outputs": [],
					"stateMutability": "nonpayable",
					"type": "function"
				},
				{
					"inputs": [
						{
							"internalType": "uint256",
							"name": "a",
							"type": "uint256"
						},
						{
							"internalType": "uint256",
							"name": "b",
							"type": "uint256"
						}
					],
					"name": "div",
					"outputs": [],
					"stateMutability": "nonpayable",
					"type": "function"
				},
				{
					"inputs": [
						{
							"internalType": "uint256",
							"name": "a",
							"type": "uint256"
						},
						{
							"internalType": "uint256",
							"name": "b",
							"type": "uint256"
						}
					],
					"name": "mul",
					"outputs": [],
					"stateMutability": "nonpayable",
					"type": "function"
				},
				{
					"inputs": [],
					"name": "result",
					"outputs": [
						{
							"internalType": "uint256",
							"name": "",
							"type": "uint256"
						}
					],
					"stateMutability": "view",
					"type": "function"
				},
				{
					"inputs": [
						{
							"internalType": "uint256",
							"name": "a",
							"type": "uint256"
						},
						{
							"internalType": "uint256",
							"name": "b",
							"type": "uint256"
						}
					],
					"name": "sub",
					"outputs": [],
					"stateMutability": "nonpayable",
					"type": "function"
				}
			],
			"devdoc": {
				"kind": "dev",
				"methods": {},
				"version": 1
			},
			"evm": {
				"assembly": "    /* \"Assignments/program-5.sol\":62:406  contract calculator{... */\n  mstore(0x40, 0x80)\n  callvalue\n  dup1\n  iszero\n  tag_1\n  jumpi\n  0x00\n  dup1\n  revert\ntag_1:\n  pop\n  dataSize(sub_0)\n  dup1\n  dataOffset(sub_0)\n  0x00\n  codecopy\n  0x00\n  return\nstop\n\nsub_0: assembly {\n        /* \"Assignments/program-5.sol\":62:406  contract calculator{... */\n      mstore(0x40, 0x80)\n      callvalue\n      dup1\n      iszero\n      tag_1\n      jumpi\n      0x00\n      dup1\n      revert\n    tag_1:\n      pop\n      jumpi(tag_2, lt(calldatasize, 0x04))\n      shr(0xe0, calldataload(0x00))\n      dup1\n      0x65372147\n      eq\n      tag_3\n      jumpi\n      dup1\n      0x771602f7\n      eq\n      tag_4\n      jumpi\n      dup1\n      0xa391c15b\n      eq\n      tag_5\n      jumpi\n      dup1\n      0xb67d77c5\n      eq\n      tag_6\n      jumpi\n      dup1\n      0xc8a4ac9c\n      eq\n      tag_7\n      jumpi\n    tag_2:\n      0x00\n      dup1\n      revert\n        /* \"Assignments/program-5.sol\":88:106  uint public result */\n    tag_3:\n      tag_8\n      tag_9\n      jump\t// in\n    tag_8:\n      mload(0x40)\n      tag_10\n      swap2\n      swap1\n      tag_11\n      jump\t// in\n    tag_10:\n      mload(0x40)\n      dup1\n      swap2\n      sub\n      swap1\n      return\n        /* \"Assignments/program-5.sol\":113:181  function add(uint a, uint b) public{... */\n    tag_4:\n      tag_12\n      0x04\n      dup1\n      calldatasize\n      sub\n      dup2\n      add\n      swap1\n      tag_13\n      swap2\n      swap1\n      tag_14\n      jump\t// in\n    tag_13:\n      tag_15\n      jump\t// in\n    tag_12:\n      stop\n        /* \"Assignments/program-5.sol\":335:403  function div(uint a, uint b) public{... */\n    tag_5:\n      tag_16\n      0x04\n      dup1\n      calldatasize\n      sub\n      dup2\n      add\n      swap1\n      tag_17\n      swap2\n      swap1\n      tag_14\n      jump\t// in\n    tag_17:\n      tag_18\n      jump\t// in\n    tag_16:\n      stop\n        /* \"Assignments/program-5.sol\":187:255  function sub(uint a, uint b) public{... */\n    tag_6:\n      tag_19\n      0x04\n      dup1\n      calldatasize\n      sub\n      dup2\n      add\n      swap1\n      tag_20\n      swap2\n      swap1\n      tag_14\n      jump\t// in\n    tag_20:\n      tag_21\n      jump\t// in\n    tag_19:\n      stop\n        /* \"Assignments/program-5.sol\":261:329  function mul(uint a, uint b) public{... */\n    tag_7:\n      tag_22\n      0x04\n      dup1\n      calldatasize\n      sub\n      dup2\n      add\n      swap1\n      tag_23\n      swap2\n      swap1\n      tag_14\n      jump\t// in\n    tag_23:\n      tag_24\n      jump\t// in\n    tag_22:\n      stop\n        /* \"Assignments/program-5.sol\":88:106  uint public result */\n    tag_9:\n      sload(0x00)\n      dup2\n      jump\t// out\n        /* \"Assignments/program-5.sol\":113:181  function add(uint a, uint b) public{... */\n    tag_15:\n        /* \"Assignments/program-5.sol\":172:173  b */\n      dup1\n        /* \"Assignments/program-5.sol\":168:169  a */\n      dup3\n        /* \"Assignments/program-5.sol\":168:173  a + b */\n      tag_26\n      swap2\n      swap1\n      tag_27\n      jump\t// in\n    tag_26:\n        /* \"Assignments/program-5.sol\":159:165  result */\n      0x00\n        /* \"Assignments/program-5.sol\":159:173  result = a + b */\n      dup2\n      swap1\n      sstore\n      pop\n        /* \"Assignments/program-5.sol\":113:181  function add(uint a, uint b) public{... */\n      pop\n      pop\n      jump\t// out\n        /* \"Assignments/program-5.sol\":335:403  function div(uint a, uint b) public{... */\n    tag_18:\n        /* \"Assignments/program-5.sol\":394:395  b */\n      dup1\n        /* \"Assignments/program-5.sol\":390:391  a */\n      dup3\n        /* \"Assignments/program-5.sol\":390:395  a / b */\n      tag_29\n      swap2\n      swap1\n      tag_30\n      jump\t// in\n    tag_29:\n        /* \"Assignments/program-5.sol\":381:387  result */\n      0x00\n        /* \"Assignments/program-5.sol\":381:395  result = a / b */\n      dup2\n      swap1\n      sstore\n      pop\n        /* \"Assignments/program-5.sol\":335:403  function div(uint a, uint b) public{... */\n      pop\n      pop\n      jump\t// out\n        /* \"Assignments/program-5.sol\":187:255  function sub(uint a, uint b) public{... */\n    tag_21:\n        /* \"Assignments/program-5.sol\":246:247  b */\n      dup1\n        /* \"Assignments/program-5.sol\":242:243  a */\n      dup3\n        /* \"Assignments/program-5.sol\":242:247  a - b */\n      tag_32\n      swap2\n      swap1\n      tag_33\n      jump\t// in\n    tag_32:\n        /* \"Assignments/program-5.sol\":233:239  result */\n      0x00\n        /* \"Assignments/program-5.sol\":233:247  result = a - b */\n      dup2\n      swap1\n      sstore\n      pop\n        /* \"Assignments/program-5.sol\":187:255  function sub(uint a, uint b) public{... */\n      pop\n      pop\n      jump\t// out\n        /* \"Assignments/program-5.sol\":261:329  function mul(uint a, uint b) public{... */\n    tag_24:\n        /* \"Assignments/program-5.sol\":320:321  b */\n      dup1\n        /* \"Assignments/program-5.sol\":316:317  a */\n      dup3\n        /* \"Assignments/program-5.sol\":316:321  a * b */\n      tag_35\n      swap2\n      swap1\n      tag_36\n      jump\t// in\n    tag_35:\n        /* \"Assignments/program-5.sol\":307:313  result */\n      0x00\n        /* \"Assignments/program-5.sol\":307:321  result = a * b */\n      dup2\n      swap1\n      sstore\n      pop\n        /* \"Assignments/program-5.sol\":261:329  function mul(uint a, uint b) public{... */\n      pop\n      pop\n      jump\t// out\n        /* \"#utility.yul\":7:84   */\n    tag_37:\n        /* \"#utility.yul\":44:51   */\n      0x00\n        /* \"#utility.yul\":73:78   */\n      dup2\n        /* \"#utility.yul\":62:78   */\n      swap1\n      pop\n        /* \"#utility.yul\":7:84   */\n      swap2\n      swap1\n      pop\n      jump\t// out\n        /* \"#utility.yul\":90:208   */\n    tag_38:\n        /* \"#utility.yul\":177:201   */\n      tag_49\n        /* \"#utility.yul\":195:200   */\n      dup2\n        /* \"#utility.yul\":177:201   */\n      tag_37\n      jump\t// in\n    tag_49:\n        /* \"#utility.yul\":172:175   */\n      dup3\n        /* \"#utility.yul\":165:202   */\n      mstore\n        /* \"#utility.yul\":90:208   */\n      pop\n      pop\n      jump\t// out\n        /* \"#utility.yul\":214:436   */\n    tag_11:\n        /* \"#utility.yul\":307:311   */\n      0x00\n        /* \"#utility.yul\":345:347   */\n      0x20\n        /* \"#utility.yul\":334:343   */\n      dup3\n        /* \"#utility.yul\":330:348   */\n      add\n        /* \"#utility.yul\":322:348   */\n      swap1\n      pop\n        /* \"#utility.yul\":358:429   */\n      tag_51\n        /* \"#utility.yul\":426:427   */\n      0x00\n        /* \"#utility.yul\":415:424   */\n      dup4\n        /* \"#utility.yul\":411:428   */\n      add\n        /* \"#utility.yul\":402:408   */\n      dup5\n        /* \"#utility.yul\":358:429   */\n      tag_38\n      jump\t// in\n    tag_51:\n        /* \"#utility.yul\":214:436   */\n      swap3\n      swap2\n      pop\n      pop\n      jump\t// out\n        /* \"#utility.yul\":523:640   */\n    tag_40:\n        /* \"#utility.yul\":632:633   */\n      0x00\n        /* \"#utility.yul\":629:630   */\n      dup1\n        /* \"#utility.yul\":622:634   */\n      revert\n        /* \"#utility.yul\":769:891   */\n    tag_42:\n        /* \"#utility.yul\":842:866   */\n      tag_56\n        /* \"#utility.yul\":860:865   */\n      dup2\n        /* \"#utility.yul\":842:866   */\n      tag_37\n      jump\t// in\n    tag_56:\n        /* \"#utility.yul\":835:840   */\n      dup2\n        /* \"#utility.yul\":832:867   */\n      eq\n        /* \"#utility.yul\":822:885   */\n      tag_57\n      jumpi\n        /* \"#utility.yul\":881:882   */\n      0x00\n        /* \"#utility.yul\":878:879   */\n      dup1\n        /* \"#utility.yul\":871:883   */\n      revert\n        /* \"#utility.yul\":822:885   */\n    tag_57:\n        /* \"#utility.yul\":769:891   */\n      pop\n      jump\t// out\n        /* \"#utility.yul\":897:1036   */\n    tag_43:\n        /* \"#utility.yul\":943:948   */\n      0x00\n        /* \"#utility.yul\":981:987   */\n      dup2\n        /* \"#utility.yul\":968:988   */\n      calldataload\n        /* \"#utility.yul\":959:988   */\n      swap1\n      pop\n        /* \"#utility.yul\":997:1030   */\n      tag_59\n        /* \"#utility.yul\":1024:1029   */\n      dup2\n        /* \"#utility.yul\":997:1030   */\n      tag_42\n      jump\t// in\n    tag_59:\n        /* \"#utility.yul\":897:1036   */\n      swap3\n      swap2\n      pop\n      pop\n      jump\t// out\n        /* \"#utility.yul\":1042:1516   */\n    tag_14:\n        /* \"#utility.yul\":1110:1116   */\n      0x00\n        /* \"#utility.yul\":1118:1124   */\n      dup1\n        /* \"#utility.yul\":1167:1169   */\n      0x40\n        /* \"#utility.yul\":1155:1164   */\n      dup4\n        /* \"#utility.yul\":1146:1153   */\n      dup6\n        /* \"#utility.yul\":1142:1165   */\n      sub\n        /* \"#utility.yul\":1138:1170   */\n      slt\n        /* \"#utility.yul\":1135:1254   */\n      iszero\n      tag_61\n      jumpi\n        /* \"#utility.yul\":1173:1252   */\n      tag_62\n      tag_40\n      jump\t// in\n    tag_62:\n        /* \"#utility.yul\":1135:1254   */\n    tag_61:\n        /* \"#utility.yul\":1293:1294   */\n      0x00\n        /* \"#utility.yul\":1318:1371   */\n      tag_63\n        /* \"#utility.yul\":1363:1370   */\n      dup6\n        /* \"#utility.yul\":1354:1360   */\n      dup3\n        /* \"#utility.yul\":1343:1352   */\n      dup7\n        /* \"#utility.yul\":1339:1361   */\n      add\n        /* \"#utility.yul\":1318:1371   */\n      tag_43\n      jump\t// in\n    tag_63:\n        /* \"#utility.yul\":1308:1371   */\n      swap3\n      pop\n        /* \"#utility.yul\":1264:1381   */\n      pop\n        /* \"#utility.yul\":1420:1422   */\n      0x20\n        /* \"#utility.yul\":1446:1499   */\n      tag_64\n        /* \"#utility.yul\":1491:1498   */\n      dup6\n        /* \"#utility.yul\":1482:1488   */\n      dup3\n        /* \"#utility.yul\":1471:1480   */\n      dup7\n        /* \"#utility.yul\":1467:1489   */\n      add\n        /* \"#utility.yul\":1446:1499   */\n      tag_43\n      jump\t// in\n    tag_64:\n        /* \"#utility.yul\":1436:1499   */\n      swap2\n      pop\n        /* \"#utility.yul\":1391:1509   */\n      pop\n        /* \"#utility.yul\":1042:1516   */\n      swap3\n      pop\n      swap3\n      swap1\n      pop\n      jump\t// out\n        /* \"#utility.yul\":1522:1702   */\n    tag_44:\n        /* \"#utility.yul\":1570:1647   */\n      0x4e487b7100000000000000000000000000000000000000000000000000000000\n        /* \"#utility.yul\":1567:1568   */\n      0x00\n        /* \"#utility.yul\":1560:1648   */\n      mstore\n        /* \"#utility.yul\":1667:1671   */\n      0x11\n        /* \"#utility.yul\":1664:1665   */\n      0x04\n        /* \"#utility.yul\":1657:1672   */\n      mstore\n        /* \"#utility.yul\":1691:1695   */\n      0x24\n        /* \"#utility.yul\":1688:1689   */\n      0x00\n        /* \"#utility.yul\":1681:1696   */\n      revert\n        /* \"#utility.yul\":1708:1899   */\n    tag_27:\n        /* \"#utility.yul\":1748:1751   */\n      0x00\n        /* \"#utility.yul\":1767:1787   */\n      tag_67\n        /* \"#utility.yul\":1785:1786   */\n      dup3\n        /* \"#utility.yul\":1767:1787   */\n      tag_37\n      jump\t// in\n    tag_67:\n        /* \"#utility.yul\":1762:1787   */\n      swap2\n      pop\n        /* \"#utility.yul\":1801:1821   */\n      tag_68\n        /* \"#utility.yul\":1819:1820   */\n      dup4\n        /* \"#utility.yul\":1801:1821   */\n      tag_37\n      jump\t// in\n    tag_68:\n        /* \"#utility.yul\":1796:1821   */\n      swap3\n      pop\n        /* \"#utility.yul\":1844:1845   */\n      dup3\n        /* \"#utility.yul\":1841:1842   */\n      dup3\n        /* \"#utility.yul\":1837:1846   */\n      add\n        /* \"#utility.yul\":1830:1846   */\n      swap1\n      pop\n        /* \"#utility.yul\":1865:1868   */\n      dup1\n        /* \"#utility.yul\":1862:1863   */\n      dup3\n        /* \"#utility.yul\":1859:1869   */\n      gt\n        /* \"#utility.yul\":1856:1892   */\n      iszero\n      tag_69\n      jumpi\n        /* \"#utility.yul\":1872:1890   */\n      tag_70\n      tag_44\n      jump\t// in\n    tag_70:\n        /* \"#utility.yul\":1856:1892   */\n    tag_69:\n        /* \"#utility.yul\":1708:1899   */\n      swap3\n      swap2\n      pop\n      pop\n      jump\t// out\n        /* \"#utility.yul\":1905:2085   */\n    tag_45:\n        /* \"#utility.yul\":1953:2030   */\n      0x4e487b7100000000000000000000000000000000000000000000000000000000\n        /* \"#utility.yul\":1950:1951   */\n      0x00\n        /* \"#utility.yul\":1943:2031   */\n      mstore\n        /* \"#utility.yul\":2050:2054   */\n      0x12\n        /* \"#utility.yul\":2047:2048   */\n      0x04\n        /* \"#utility.yul\":2040:2055   */\n      mstore\n        /* \"#utility.yul\":2074:2078   */\n      0x24\n        /* \"#utility.yul\":2071:2072   */\n      0x00\n        /* \"#utility.yul\":2064:2079   */\n      revert\n        /* \"#utility.yul\":2091:2276   */\n    tag_30:\n        /* \"#utility.yul\":2131:2132   */\n      0x00\n        /* \"#utility.yul\":2148:2168   */\n      tag_73\n        /* \"#utility.yul\":2166:2167   */\n      dup3\n        /* \"#utility.yul\":2148:2168   */\n      tag_37\n      jump\t// in\n    tag_73:\n        /* \"#utility.yul\":2143:2168   */\n      swap2\n      pop\n        /* \"#utility.yul\":2182:2202   */\n      tag_74\n        /* \"#utility.yul\":2200:2201   */\n      dup4\n        /* \"#utility.yul\":2182:2202   */\n      tag_37\n      jump\t// in\n    tag_74:\n        /* \"#utility.yul\":2177:2202   */\n      swap3\n      pop\n        /* \"#utility.yul\":2221:2222   */\n      dup3\n        /* \"#utility.yul\":2211:2246   */\n      tag_75\n      jumpi\n        /* \"#utility.yul\":2226:2244   */\n      tag_76\n      tag_45\n      jump\t// in\n    tag_76:\n        /* \"#utility.yul\":2211:2246   */\n    tag_75:\n        /* \"#utility.yul\":2268:2269   */\n      dup3\n        /* \"#utility.yul\":2265:2266   */\n      dup3\n        /* \"#utility.yul\":2261:2270   */\n      div\n        /* \"#utility.yul\":2256:2270   */\n      swap1\n      pop\n        /* \"#utility.yul\":2091:2276   */\n      swap3\n      swap2\n      pop\n      pop\n      jump\t// out\n        /* \"#utility.yul\":2282:2476   */\n    tag_33:\n        /* \"#utility.yul\":2322:2326   */\n      0x00\n        /* \"#utility.yul\":2342:2362   */\n      tag_78\n        /* \"#utility.yul\":2360:2361   */\n      dup3\n        /* \"#utility.yul\":2342:2362   */\n      tag_37\n      jump\t// in\n    tag_78:\n        /* \"#utility.yul\":2337:2362   */\n      swap2\n      pop\n        /* \"#utility.yul\":2376:2396   */\n      tag_79\n        /* \"#utility.yul\":2394:2395   */\n      dup4\n        /* \"#utility.yul\":2376:2396   */\n      tag_37\n      jump\t// in\n    tag_79:\n        /* \"#utility.yul\":2371:2396   */\n      swap3\n      pop\n        /* \"#utility.yul\":2420:2421   */\n      dup3\n        /* \"#utility.yul\":2417:2418   */\n      dup3\n        /* \"#utility.yul\":2413:2422   */\n      sub\n        /* \"#utility.yul\":2405:2422   */\n      swap1\n      pop\n        /* \"#utility.yul\":2444:2445   */\n      dup2\n        /* \"#utility.yul\":2438:2442   */\n      dup2\n        /* \"#utility.yul\":2435:2446   */\n      gt\n        /* \"#utility.yul\":2432:2469   */\n      iszero\n      tag_80\n      jumpi\n        /* \"#utility.yul\":2449:2467   */\n      tag_81\n      tag_44\n      jump\t// in\n    tag_81:\n        /* \"#utility.yul\":2432:2469   */\n    tag_80:\n        /* \"#utility.yul\":2282:2476   */\n      swap3\n      swap2\n      pop\n      pop\n      jump\t// out\n        /* \"#utility.yul\":2482:2892   */\n    tag_36:\n        /* \"#utility.yul\":2522:2529   */\n      0x00\n        /* \"#utility.yul\":2545:2565   */\n      tag_83\n        /* \"#utility.yul\":2563:2564   */\n      dup3\n        /* \"#utility.yul\":2545:2565   */\n      tag_37\n      jump\t// in\n    tag_83:\n        /* \"#utility.yul\":2540:2565   */\n      swap2\n      pop\n        /* \"#utility.yul\":2579:2599   */\n      tag_84\n        /* \"#utility.yul\":2597:2598   */\n      dup4\n        /* \"#utility.yul\":2579:2599   */\n      tag_37\n      jump\t// in\n    tag_84:\n        /* \"#utility.yul\":2574:2599   */\n      swap3\n      pop\n        /* \"#utility.yul\":2634:2635   */\n      dup3\n        /* \"#utility.yul\":2631:2632   */\n      dup3\n        /* \"#utility.yul\":2627:2636   */\n      mul\n        /* \"#utility.yul\":2656:2686   */\n      tag_85\n        /* \"#utility.yul\":2674:2685   */\n      dup2\n        /* \"#utility.yul\":2656:2686   */\n      tag_37\n      jump\t// in\n    tag_85:\n        /* \"#utility.yul\":2645:2686   */\n      swap2\n      pop\n        /* \"#utility.yul\":2835:2836   */\n      dup3\n        /* \"#utility.yul\":2826:2833   */\n      dup3\n        /* \"#utility.yul\":2822:2837   */\n      div\n        /* \"#utility.yul\":2819:2820   */\n      dup5\n        /* \"#utility.yul\":2816:2838   */\n      eq\n        /* \"#utility.yul\":2796:2797   */\n      dup4\n        /* \"#utility.yul\":2789:2798   */\n      iszero\n        /* \"#utility.yul\":2769:2852   */\n      or\n        /* \"#utility.yul\":2746:2885   */\n      tag_86\n      jumpi\n        /* \"#utility.yul\":2865:2883   */\n      tag_87\n      tag_44\n      jump\t// in\n    tag_87:\n        /* \"#utility.yul\":2746:2885   */\n    tag_86:\n        /* \"#utility.yul\":2530:2892   */\n      pop\n        /* \"#utility.yul\":2482:2892   */\n      swap3\n      swap2\n      pop\n      pop\n      jump\t// out\n\n    auxdata: 0xa26469706673582212201c9c800f274b13c494e21f734d60960e9cf1093a80b2050fecdeb399b67df7a564736f6c634300081a0033\n}\n",
				"bytecode": {
					"linkReferences": {},
					"object": "6080604052348015600e575f80fd5b506103448061001c5f395ff3fe608060405234801561000f575f80fd5b5060043610610055575f3560e01c80636537214714610059578063771602f714610077578063a391c15b14610093578063b67d77c5146100af578063c8a4ac9c146100cb575b5f80fd5b6100616100e7565b60405161006e9190610158565b60405180910390f35b610091600480360381019061008c919061019f565b6100ec565b005b6100ad60048036038101906100a8919061019f565b610101565b005b6100c960048036038101906100c4919061019f565b610116565b005b6100e560048036038101906100e0919061019f565b61012b565b005b5f5481565b80826100f8919061020a565b5f819055505050565b808261010d919061026a565b5f819055505050565b8082610122919061029a565b5f819055505050565b808261013791906102cd565b5f819055505050565b5f819050919050565b61015281610140565b82525050565b5f60208201905061016b5f830184610149565b92915050565b5f80fd5b61017e81610140565b8114610188575f80fd5b50565b5f8135905061019981610175565b92915050565b5f80604083850312156101b5576101b4610171565b5b5f6101c28582860161018b565b92505060206101d38582860161018b565b9150509250929050565b7f4e487b71000000000000000000000000000000000000000000000000000000005f52601160045260245ffd5b5f61021482610140565b915061021f83610140565b9250828201905080821115610237576102366101dd565b5b92915050565b7f4e487b71000000000000000000000000000000000000000000000000000000005f52601260045260245ffd5b5f61027482610140565b915061027f83610140565b92508261028f5761028e61023d565b5b828204905092915050565b5f6102a482610140565b91506102af83610140565b92508282039050818111156102c7576102c66101dd565b5b92915050565b5f6102d782610140565b91506102e283610140565b92508282026102f081610140565b91508282048414831517610307576103066101dd565b5b509291505056fea26469706673582212201c9c800f274b13c494e21f734d60960e9cf1093a80b2050fecdeb399b67df7a564736f6c634300081a0033",
					"opcodes": "PUSH1 0x80 PUSH1 0x40 MSTORE CALLVALUE DUP1 ISZERO PUSH1 0xE JUMPI PUSH0 DUP1 REVERT JUMPDEST POP PUSH2 0x344 DUP1 PUSH2 0x1C PUSH0 CODECOPY PUSH0 RETURN INVALID PUSH1 0x80 PUSH1 0x40 MSTORE CALLVALUE DUP1 ISZERO PUSH2 0xF JUMPI PUSH0 DUP1 REVERT JUMPDEST POP PUSH1 0x4 CALLDATASIZE LT PUSH2 0x55 JUMPI PUSH0 CALLDATALOAD PUSH1 0xE0 SHR DUP1 PUSH4 0x65372147 EQ PUSH2 0x59 JUMPI DUP1 PUSH4 0x771602F7 EQ PUSH2 0x77 JUMPI DUP1 PUSH4 0xA391C15B EQ PUSH2 0x93 JUMPI DUP1 PUSH4 0xB67D77C5 EQ PUSH2 0xAF JUMPI DUP1 PUSH4 0xC8A4AC9C EQ PUSH2 0xCB JUMPI JUMPDEST PUSH0 DUP1 REVERT JUMPDEST PUSH2 0x61 PUSH2 0xE7 JUMP JUMPDEST PUSH1 0x40 MLOAD PUSH2 0x6E SWAP2 SWAP1 PUSH2 0x158 JUMP JUMPDEST PUSH1 0x40 MLOAD DUP1 SWAP2 SUB SWAP1 RETURN JUMPDEST PUSH2 0x91 PUSH1 0x4 DUP1 CALLDATASIZE SUB DUP2 ADD SWAP1 PUSH2 0x8C SWAP2 SWAP1 PUSH2 0x19F JUMP JUMPDEST PUSH2 0xEC JUMP JUMPDEST STOP JUMPDEST PUSH2 0xAD PUSH1 0x4 DUP1 CALLDATASIZE SUB DUP2 ADD SWAP1 PUSH2 0xA8 SWAP2 SWAP1 PUSH2 0x19F JUMP JUMPDEST PUSH2 0x101 JUMP JUMPDEST STOP JUMPDEST PUSH2 0xC9 PUSH1 0x4 DUP1 CALLDATASIZE SUB DUP2 ADD SWAP1 PUSH2 0xC4 SWAP2 SWAP1 PUSH2 0x19F JUMP JUMPDEST PUSH2 0x116 JUMP JUMPDEST STOP JUMPDEST PUSH2 0xE5 PUSH1 0x4 DUP1 CALLDATASIZE SUB DUP2 ADD SWAP1 PUSH2 0xE0 SWAP2 SWAP1 PUSH2 0x19F JUMP JUMPDEST PUSH2 0x12B JUMP JUMPDEST STOP JUMPDEST PUSH0 SLOAD DUP2 JUMP JUMPDEST DUP1 DUP3 PUSH2 0xF8 SWAP2 SWAP1 PUSH2 0x20A JUMP JUMPDEST PUSH0 DUP2 SWAP1 SSTORE POP POP POP JUMP JUMPDEST DUP1 DUP3 PUSH2 0x10D SWAP2 SWAP1 PUSH2 0x26A JUMP JUMPDEST PUSH0 DUP2 SWAP1 SSTORE POP POP POP JUMP JUMPDEST DUP1 DUP3 PUSH2 0x122 SWAP2 SWAP1 PUSH2 0x29A JUMP JUMPDEST PUSH0 DUP2 SWAP1 SSTORE POP POP POP JUMP JUMPDEST DUP1 DUP3 PUSH2 0x137 SWAP2 SWAP1 PUSH2 0x2CD JUMP JUMPDEST PUSH0 DUP2 SWAP1 SSTORE POP POP POP JUMP JUMPDEST PUSH0 DUP2 SWAP1 POP SWAP2 SWAP1 POP JUMP JUMPDEST PUSH2 0x152 DUP2 PUSH2 0x140 JUMP JUMPDEST DUP3 MSTORE POP POP JUMP JUMPDEST PUSH0 PUSH1 0x20 DUP3 ADD SWAP1 POP PUSH2 0x16B PUSH0 DUP4 ADD DUP5 PUSH2 0x149 JUMP JUMPDEST SWAP3 SWAP2 POP POP JUMP JUMPDEST PUSH0 DUP1 REVERT JUMPDEST PUSH2 0x17E DUP2 PUSH2 0x140 JUMP JUMPDEST DUP2 EQ PUSH2 0x188 JUMPI PUSH0 DUP1 REVERT JUMPDEST POP JUMP JUMPDEST PUSH0 DUP2 CALLDATALOAD SWAP1 POP PUSH2 0x199 DUP2 PUSH2 0x175 JUMP JUMPDEST SWAP3 SWAP2 POP POP JUMP JUMPDEST PUSH0 DUP1 PUSH1 0x40 DUP4 DUP6 SUB SLT ISZERO PUSH2 0x1B5 JUMPI PUSH2 0x1B4 PUSH2 0x171 JUMP JUMPDEST JUMPDEST PUSH0 PUSH2 0x1C2 DUP6 DUP3 DUP7 ADD PUSH2 0x18B JUMP JUMPDEST SWAP3 POP POP PUSH1 0x20 PUSH2 0x1D3 DUP6 DUP3 DUP7 ADD PUSH2 0x18B JUMP JUMPDEST SWAP2 POP POP SWAP3 POP SWAP3 SWAP1 POP JUMP JUMPDEST PUSH32 0x4E487B7100000000000000000000000000000000000000000000000000000000 PUSH0 MSTORE PUSH1 0x11 PUSH1 0x4 MSTORE PUSH1 0x24 PUSH0 REVERT JUMPDEST PUSH0 PUSH2 0x214 DUP3 PUSH2 0x140 JUMP JUMPDEST SWAP2 POP PUSH2 0x21F DUP4 PUSH2 0x140 JUMP JUMPDEST SWAP3 POP DUP3 DUP3 ADD SWAP1 POP DUP1 DUP3 GT ISZERO PUSH2 0x237 JUMPI PUSH2 0x236 PUSH2 0x1DD JUMP JUMPDEST JUMPDEST SWAP3 SWAP2 POP POP JUMP JUMPDEST PUSH32 0x4E487B7100000000000000000000000000000000000000000000000000000000 PUSH0 MSTORE PUSH1 0x12 PUSH1 0x4 MSTORE PUSH1 0x24 PUSH0 REVERT JUMPDEST PUSH0 PUSH2 0x274 DUP3 PUSH2 0x140 JUMP JUMPDEST SWAP2 POP PUSH2 0x27F DUP4 PUSH2 0x140 JUMP JUMPDEST SWAP3 POP DUP3 PUSH2 0x28F JUMPI PUSH2 0x28E PUSH2 0x23D JUMP JUMPDEST JUMPDEST DUP3 DUP3 DIV SWAP1 POP SWAP3 SWAP2 POP POP JUMP JUMPDEST PUSH0 PUSH2 0x2A4 DUP3 PUSH2 0x140 JUMP JUMPDEST SWAP2 POP PUSH2 0x2AF DUP4 PUSH2 0x140 JUMP JUMPDEST SWAP3 POP DUP3 DUP3 SUB SWAP1 POP DUP2 DUP2 GT ISZERO PUSH2 0x2C7 JUMPI PUSH2 0x2C6 PUSH2 0x1DD JUMP JUMPDEST JUMPDEST SWAP3 SWAP2 POP POP JUMP JUMPDEST PUSH0 PUSH2 0x2D7 DUP3 PUSH2 0x140 JUMP JUMPDEST SWAP2 POP PUSH2 0x2E2 DUP4 PUSH2 0x140 JUMP JUMPDEST SWAP3 POP DUP3 DUP3 MUL PUSH2 0x2F0 DUP2 PUSH2 0x140 JUMP JUMPDEST SWAP2 POP DUP3 DUP3 DIV DUP5 EQ DUP4 ISZERO OR PUSH2 0x307 JUMPI PUSH2 0x306 PUSH2 0x1DD JUMP JUMPDEST JUMPDEST POP SWAP3 SWAP2 POP POP JUMP INVALID LOG2 PUSH5 0x6970667358 0x22 SLT KECCAK256 SHR SWAP13 DUP1 0xF 0x27 0x4B SGT 0xC4 SWAP5 0xE2 0x1F PUSH20 0x4D60960E9CF1093A80B2050FECDEB399B67DF7A5 PUSH5 0x736F6C6343 STOP ADDMOD BYTE STOP CALLER "
				},
				"gasEstimates": {
					"creation": {
						"codeDepositCost": "167200",
						"executionCost": "212",
						"totalCost": "167412"
					},
					"external": {
						"add(uint256,uint256)": "infinite",
						"div(uint256,uint256)": "infinite",
						"mul(uint256,uint256)": "infinite",
						"result()": "2402",
						"sub(uint256,uint256)": "infinite"
					}
				},
				"methodIdentifiers": {
					"add(uint256,uint256)": "771602f7",
					"div(uint256,uint256)": "a391c15b",
					"mul(uint256,uint256)": "c8a4ac9c",
					"result()": "65372147",
					"sub(uint256,uint256)": "b67d77c5"
				}
			},
			"storageLayout": {
				"storage": [
					{
						"astId": 3,
						"contract": "Assignments/program-5.sol:calculator",
						"label": "result",
						"offset": 0,
						"slot": "0",
						"type": "t_uint256"
					}
				],
				"types": {
					"t_uint256": {
						"encoding": "inplace",
						"label": "uint256",
						"numberOfBytes": "32"
					}
				}
			},
			"userdoc": {
				"kind": "user",
				"methods": {},
				"version": 1
			}
		}
	}
}