{
	"Assignments/cp2-1.sol": {
		"wallet": {
			"abi": [
				{
					"inputs": [
						{
							"internalType": "uint256",
							"name": "_balance",
							"type": "uint256"
						}
					],
					"stateMutability": "nonpayable",
					"type": "constructor"
				},
				{
					"inputs": [],
					"name": "deposit",
					"outputs": [],
					"stateMutability": "payable",
					"type": "function"
				},
				{
					"inputs": [],
					"name": "getBalance",
					"outputs": [
						{
							"internalType": "uint256",
							"name": "",
							"type": "uint256"
						}
					],
					"stateMutability": "view",
					"type": "function"
				}
			],
			"devdoc": {
				"kind": "dev",
				"methods": {},
				"version": 1
			},
			"evm": {
				"assembly": "    /* \"Assignments/cp2-1.sol\":62:515  contract wallet{... */\n  mstore(0x40, 0x80)\n    /* \"Assignments/cp2-1.sol\":123:215  constructor(uint _balance){... */\n  callvalue\n  dup1\n  iszero\n  tag_1\n  jumpi\n  0x00\n  dup1\n  revert\ntag_1:\n  pop\n  mload(0x40)\n  sub(codesize, bytecodeSize)\n  dup1\n  bytecodeSize\n  dup4\n  codecopy\n  dup2\n  dup2\n  add\n  0x40\n  mstore\n  dup2\n  add\n  swap1\n  tag_2\n  swap2\n  swap1\n  tag_3\n  jump\t// in\ntag_2:\n    /* \"Assignments/cp2-1.sol\":170:178  _balance */\n  dup1\n    /* \"Assignments/cp2-1.sol\":160:167  balance */\n  0x00\n    /* \"Assignments/cp2-1.sol\":160:178  balance = _balance */\n  dup2\n  swap1\n  sstore\n  pop\n    /* \"Assignments/cp2-1.sol\":197:207  msg.sender */\n  caller\n    /* \"Assignments/cp2-1.sol\":189:194  owner */\n  0x01\n  0x00\n    /* \"Assignments/cp2-1.sol\":189:207  owner = msg.sender */\n  0x0100\n  exp\n  dup2\n  sload\n  dup2\n  0xffffffffffffffffffffffffffffffffffffffff\n  mul\n  not\n  and\n  swap1\n  dup4\n  0xffffffffffffffffffffffffffffffffffffffff\n  and\n  mul\n  or\n  swap1\n  sstore\n  pop\n    /* \"Assignments/cp2-1.sol\":123:215  constructor(uint _balance){... */\n  pop\n    /* \"Assignments/cp2-1.sol\":62:515  contract wallet{... */\n  jump(tag_6)\n    /* \"#utility.yul\":88:205   */\ntag_8:\n    /* \"#utility.yul\":197:198   */\n  0x00\n    /* \"#utility.yul\":194:195   */\n  dup1\n    /* \"#utility.yul\":187:199   */\n  revert\n    /* \"#utility.yul\":334:411   */\ntag_10:\n    /* \"#utility.yul\":371:378   */\n  0x00\n    /* \"#utility.yul\":400:405   */\n  dup2\n    /* \"#utility.yul\":389:405   */\n  swap1\n  pop\n    /* \"#utility.yul\":334:411   */\n  swap2\n  swap1\n  pop\n  jump\t// out\n    /* \"#utility.yul\":417:539   */\ntag_11:\n    /* \"#utility.yul\":490:514   */\n  tag_19\n    /* \"#utility.yul\":508:513   */\n  dup2\n    /* \"#utility.yul\":490:514   */\n  tag_10\n  jump\t// in\ntag_19:\n    /* \"#utility.yul\":483:488   */\n  dup2\n    /* \"#utility.yul\":480:515   */\n  eq\n    /* \"#utility.yul\":470:533   */\n  tag_20\n  jumpi\n    /* \"#utility.yul\":529:530   */\n  0x00\n    /* \"#utility.yul\":526:527   */\n  dup1\n    /* \"#utility.yul\":519:531   */\n  revert\n    /* \"#utility.yul\":470:533   */\ntag_20:\n    /* \"#utility.yul\":417:539   */\n  pop\n  jump\t// out\n    /* \"#utility.yul\":545:688   */\ntag_12:\n    /* \"#utility.yul\":602:607   */\n  0x00\n    /* \"#utility.yul\":633:639   */\n  dup2\n    /* \"#utility.yul\":627:640   */\n  mload\n    /* \"#utility.yul\":618:640   */\n  swap1\n  pop\n    /* \"#utility.yul\":649:682   */\n  tag_22\n    /* \"#utility.yul\":676:681   */\n  dup2\n    /* \"#utility.yul\":649:682   */\n  tag_11\n  jump\t// in\ntag_22:\n    /* \"#utility.yul\":545:688   */\n  swap3\n  swap2\n  pop\n  pop\n  jump\t// out\n    /* \"#utility.yul\":694:1045   */\ntag_3:\n    /* \"#utility.yul\":764:770   */\n  0x00\n    /* \"#utility.yul\":813:815   */\n  0x20\n    /* \"#utility.yul\":801:810   */\n  dup3\n    /* \"#utility.yul\":792:799   */\n  dup5\n    /* \"#utility.yul\":788:811   */\n  sub\n    /* \"#utility.yul\":784:816   */\n  slt\n    /* \"#utility.yul\":781:900   */\n  iszero\n  tag_24\n  jumpi\n    /* \"#utility.yul\":819:898   */\n  tag_25\n  tag_8\n  jump\t// in\ntag_25:\n    /* \"#utility.yul\":781:900   */\ntag_24:\n    /* \"#utility.yul\":939:940   */\n  0x00\n    /* \"#utility.yul\":964:1028   */\n  tag_26\n    /* \"#utility.yul\":1020:1027   */\n  dup5\n    /* \"#utility.yul\":1011:1017   */\n  dup3\n    /* \"#utility.yul\":1000:1009   */\n  dup6\n    /* \"#utility.yul\":996:1018   */\n  add\n    /* \"#utility.yul\":964:1028   */\n  tag_12\n  jump\t// in\ntag_26:\n    /* \"#utility.yul\":954:1028   */\n  swap2\n  pop\n    /* \"#utility.yul\":910:1038   */\n  pop\n    /* \"#utility.yul\":694:1045   */\n  swap3\n  swap2\n  pop\n  pop\n  jump\t// out\n    /* \"Assignments/cp2-1.sol\":62:515  contract wallet{... */\ntag_6:\n  dataSize(sub_0)\n  dup1\n  dataOffset(sub_0)\n  0x00\n  codecopy\n  0x00\n  return\nstop\n\nsub_0: assembly {\n        /* \"Assignments/cp2-1.sol\":62:515  contract wallet{... */\n      mstore(0x40, 0x80)\n      jumpi(tag_1, lt(calldatasize, 0x04))\n      shr(0xe0, calldataload(0x00))\n      dup1\n      0x12065fe0\n      eq\n      tag_2\n      jumpi\n      dup1\n      0xd0e30db0\n      eq\n      tag_3\n      jumpi\n    tag_1:\n      0x00\n      dup1\n      revert\n        /* \"Assignments/cp2-1.sol\":368:512  function getBalance() public view returns(uint){... */\n    tag_2:\n      callvalue\n      dup1\n      iszero\n      tag_4\n      jumpi\n      0x00\n      dup1\n      revert\n    tag_4:\n      pop\n      tag_5\n      tag_6\n      jump\t// in\n    tag_5:\n      mload(0x40)\n      tag_7\n      swap2\n      swap1\n      tag_8\n      jump\t// in\n    tag_7:\n      mload(0x40)\n      dup1\n      swap2\n      sub\n      swap1\n      return\n        /* \"Assignments/cp2-1.sol\":221:362  function deposit() public payable{... */\n    tag_3:\n      tag_9\n      tag_10\n      jump\t// in\n    tag_9:\n      stop\n        /* \"Assignments/cp2-1.sol\":368:512  function getBalance() public view returns(uint){... */\n    tag_6:\n        /* \"Assignments/cp2-1.sol\":410:414  uint */\n      0x00\n        /* \"Assignments/cp2-1.sol\":448:453  owner */\n      0x01\n      0x00\n      swap1\n      sload\n      swap1\n      0x0100\n      exp\n      swap1\n      div\n      0xffffffffffffffffffffffffffffffffffffffff\n      and\n        /* \"Assignments/cp2-1.sol\":434:453  msg.sender == owner */\n      0xffffffffffffffffffffffffffffffffffffffff\n      and\n        /* \"Assignments/cp2-1.sol\":434:444  msg.sender */\n      caller\n        /* \"Assignments/cp2-1.sol\":434:453  msg.sender == owner */\n      0xffffffffffffffffffffffffffffffffffffffff\n      and\n      eq\n        /* \"Assignments/cp2-1.sol\":426:479  require(msg.sender == owner, \"You are not the owner\") */\n      tag_12\n      jumpi\n      mload(0x40)\n      0x08c379a000000000000000000000000000000000000000000000000000000000\n      dup2\n      mstore\n      0x04\n      add\n      tag_13\n      swap1\n      tag_14\n      jump\t// in\n    tag_13:\n      mload(0x40)\n      dup1\n      swap2\n      sub\n      swap1\n      revert\n    tag_12:\n        /* \"Assignments/cp2-1.sol\":497:504  balance */\n      sload(0x00)\n        /* \"Assignments/cp2-1.sol\":490:504  return balance */\n      swap1\n      pop\n        /* \"Assignments/cp2-1.sol\":368:512  function getBalance() public view returns(uint){... */\n      swap1\n      jump\t// out\n        /* \"Assignments/cp2-1.sol\":221:362  function deposit() public payable{... */\n    tag_10:\n        /* \"Assignments/cp2-1.sol\":290:291  0 */\n      0x00\n        /* \"Assignments/cp2-1.sol\":285:286  5 */\n      0x05\n        /* \"Assignments/cp2-1.sol\":273:282  msg.value */\n      callvalue\n        /* \"Assignments/cp2-1.sol\":273:286  msg.value % 5 */\n      tag_16\n      swap2\n      swap1\n      tag_17\n      jump\t// in\n    tag_16:\n        /* \"Assignments/cp2-1.sol\":273:291  msg.value % 5 == 0 */\n      eq\n        /* \"Assignments/cp2-1.sol\":265:323  require(msg.value % 5 == 0,\"Enter in multiples of 5 only\") */\n      tag_18\n      jumpi\n      mload(0x40)\n      0x08c379a000000000000000000000000000000000000000000000000000000000\n      dup2\n      mstore\n      0x04\n      add\n      tag_19\n      swap1\n      tag_20\n      jump\t// in\n    tag_19:\n      mload(0x40)\n      dup1\n      swap2\n      sub\n      swap1\n      revert\n    tag_18:\n        /* \"Assignments/cp2-1.sol\":345:354  msg.value */\n      callvalue\n        /* \"Assignments/cp2-1.sol\":334:341  balance */\n      0x00\n      dup1\n        /* \"Assignments/cp2-1.sol\":334:354  balance += msg.value */\n      dup3\n      dup3\n      sload\n      tag_21\n      swap2\n      swap1\n      tag_22\n      jump\t// in\n    tag_21:\n      swap3\n      pop\n      pop\n      dup2\n      swap1\n      sstore\n      pop\n        /* \"Assignments/cp2-1.sol\":221:362  function deposit() public payable{... */\n      jump\t// out\n        /* \"#utility.yul\":7:84   */\n    tag_23:\n        /* \"#utility.yul\":44:51   */\n      0x00\n        /* \"#utility.yul\":73:78   */\n      dup2\n        /* \"#utility.yul\":62:78   */\n      swap1\n      pop\n        /* \"#utility.yul\":7:84   */\n      swap2\n      swap1\n      pop\n      jump\t// out\n        /* \"#utility.yul\":90:208   */\n    tag_24:\n        /* \"#utility.yul\":177:201   */\n      tag_35\n        /* \"#utility.yul\":195:200   */\n      dup2\n        /* \"#utility.yul\":177:201   */\n      tag_23\n      jump\t// in\n    tag_35:\n        /* \"#utility.yul\":172:175   */\n      dup3\n        /* \"#utility.yul\":165:202   */\n      mstore\n        /* \"#utility.yul\":90:208   */\n      pop\n      pop\n      jump\t// out\n        /* \"#utility.yul\":214:436   */\n    tag_8:\n        /* \"#utility.yul\":307:311   */\n      0x00\n        /* \"#utility.yul\":345:347   */\n      0x20\n        /* \"#utility.yul\":334:343   */\n      dup3\n        /* \"#utility.yul\":330:348   */\n      add\n        /* \"#utility.yul\":322:348   */\n      swap1\n      pop\n        /* \"#utility.yul\":358:429   */\n      tag_37\n        /* \"#utility.yul\":426:427   */\n      0x00\n        /* \"#utility.yul\":415:424   */\n      dup4\n        /* \"#utility.yul\":411:428   */\n      add\n        /* \"#utility.yul\":402:408   */\n      dup5\n        /* \"#utility.yul\":358:429   */\n      tag_24\n      jump\t// in\n    tag_37:\n        /* \"#utility.yul\":214:436   */\n      swap3\n      swap2\n      pop\n      pop\n      jump\t// out\n        /* \"#utility.yul\":442:611   */\n    tag_25:\n        /* \"#utility.yul\":526:537   */\n      0x00\n        /* \"#utility.yul\":560:566   */\n      dup3\n        /* \"#utility.yul\":555:558   */\n      dup3\n        /* \"#utility.yul\":548:567   */\n      mstore\n        /* \"#utility.yul\":600:604   */\n      0x20\n        /* \"#utility.yul\":595:598   */\n      dup3\n        /* \"#utility.yul\":591:605   */\n      add\n        /* \"#utility.yul\":576:605   */\n      swap1\n      pop\n        /* \"#utility.yul\":442:611   */\n      swap3\n      swap2\n      pop\n      pop\n      jump\t// out\n        /* \"#utility.yul\":617:788   */\n    tag_26:\n        /* \"#utility.yul\":757:780   */\n      0x596f7520617265206e6f7420746865206f776e65720000000000000000000000\n        /* \"#utility.yul\":753:754   */\n      0x00\n        /* \"#utility.yul\":745:751   */\n      dup3\n        /* \"#utility.yul\":741:755   */\n      add\n        /* \"#utility.yul\":734:781   */\n      mstore\n        /* \"#utility.yul\":617:788   */\n      pop\n      jump\t// out\n        /* \"#utility.yul\":794:1160   */\n    tag_27:\n        /* \"#utility.yul\":936:939   */\n      0x00\n        /* \"#utility.yul\":957:1024   */\n      tag_41\n        /* \"#utility.yul\":1021:1023   */\n      0x15\n        /* \"#utility.yul\":1016:1019   */\n      dup4\n        /* \"#utility.yul\":957:1024   */\n      tag_25\n      jump\t// in\n    tag_41:\n        /* \"#utility.yul\":950:1024   */\n      swap2\n      pop\n        /* \"#utility.yul\":1033:1126   */\n      tag_42\n        /* \"#utility.yul\":1122:1125   */\n      dup3\n        /* \"#utility.yul\":1033:1126   */\n      tag_26\n      jump\t// in\n    tag_42:\n        /* \"#utility.yul\":1151:1153   */\n      0x20\n        /* \"#utility.yul\":1146:1149   */\n      dup3\n        /* \"#utility.yul\":1142:1154   */\n      add\n        /* \"#utility.yul\":1135:1154   */\n      swap1\n      pop\n        /* \"#utility.yul\":794:1160   */\n      swap2\n      swap1\n      pop\n      jump\t// out\n        /* \"#utility.yul\":1166:1585   */\n    tag_14:\n        /* \"#utility.yul\":1332:1336   */\n      0x00\n        /* \"#utility.yul\":1370:1372   */\n      0x20\n        /* \"#utility.yul\":1359:1368   */\n      dup3\n        /* \"#utility.yul\":1355:1373   */\n      add\n        /* \"#utility.yul\":1347:1373   */\n      swap1\n      pop\n        /* \"#utility.yul\":1419:1428   */\n      dup2\n        /* \"#utility.yul\":1413:1417   */\n      dup2\n        /* \"#utility.yul\":1409:1429   */\n      sub\n        /* \"#utility.yul\":1405:1406   */\n      0x00\n        /* \"#utility.yul\":1394:1403   */\n      dup4\n        /* \"#utility.yul\":1390:1407   */\n      add\n        /* \"#utility.yul\":1383:1430   */\n      mstore\n        /* \"#utility.yul\":1447:1578   */\n      tag_44\n        /* \"#utility.yul\":1573:1577   */\n      dup2\n        /* \"#utility.yul\":1447:1578   */\n      tag_27\n      jump\t// in\n    tag_44:\n        /* \"#utility.yul\":1439:1578   */\n      swap1\n      pop\n        /* \"#utility.yul\":1166:1585   */\n      swap2\n      swap1\n      pop\n      jump\t// out\n        /* \"#utility.yul\":1591:1771   */\n    tag_28:\n        /* \"#utility.yul\":1639:1716   */\n      0x4e487b7100000000000000000000000000000000000000000000000000000000\n        /* \"#utility.yul\":1636:1637   */\n      0x00\n        /* \"#utility.yul\":1629:1717   */\n      mstore\n        /* \"#utility.yul\":1736:1740   */\n      0x12\n        /* \"#utility.yul\":1733:1734   */\n      0x04\n        /* \"#utility.yul\":1726:1741   */\n      mstore\n        /* \"#utility.yul\":1760:1764   */\n      0x24\n        /* \"#utility.yul\":1757:1758   */\n      0x00\n        /* \"#utility.yul\":1750:1765   */\n      revert\n        /* \"#utility.yul\":1777:1953   */\n    tag_17:\n        /* \"#utility.yul\":1809:1810   */\n      0x00\n        /* \"#utility.yul\":1826:1846   */\n      tag_47\n        /* \"#utility.yul\":1844:1845   */\n      dup3\n        /* \"#utility.yul\":1826:1846   */\n      tag_23\n      jump\t// in\n    tag_47:\n        /* \"#utility.yul\":1821:1846   */\n      swap2\n      pop\n        /* \"#utility.yul\":1860:1880   */\n      tag_48\n        /* \"#utility.yul\":1878:1879   */\n      dup4\n        /* \"#utility.yul\":1860:1880   */\n      tag_23\n      jump\t// in\n    tag_48:\n        /* \"#utility.yul\":1855:1880   */\n      swap3\n      pop\n        /* \"#utility.yul\":1899:1900   */\n      dup3\n        /* \"#utility.yul\":1889:1924   */\n      tag_49\n      jumpi\n        /* \"#utility.yul\":1904:1922   */\n      tag_50\n      tag_28\n      jump\t// in\n    tag_50:\n        /* \"#utility.yul\":1889:1924   */\n    tag_49:\n        /* \"#utility.yul\":1945:1946   */\n      dup3\n        /* \"#utility.yul\":1942:1943   */\n      dup3\n        /* \"#utility.yul\":1938:1947   */\n      mod\n        /* \"#utility.yul\":1933:1947   */\n      swap1\n      pop\n        /* \"#utility.yul\":1777:1953   */\n      swap3\n      swap2\n      pop\n      pop\n      jump\t// out\n        /* \"#utility.yul\":1959:2137   */\n    tag_29:\n        /* \"#utility.yul\":2099:2129   */\n      0x456e74657220696e206d756c7469706c6573206f662035206f6e6c7900000000\n        /* \"#utility.yul\":2095:2096   */\n      0x00\n        /* \"#utility.yul\":2087:2093   */\n      dup3\n        /* \"#utility.yul\":2083:2097   */\n      add\n        /* \"#utility.yul\":2076:2130   */\n      mstore\n        /* \"#utility.yul\":1959:2137   */\n      pop\n      jump\t// out\n        /* \"#utility.yul\":2143:2509   */\n    tag_30:\n        /* \"#utility.yul\":2285:2288   */\n      0x00\n        /* \"#utility.yul\":2306:2373   */\n      tag_53\n        /* \"#utility.yul\":2370:2372   */\n      0x1c\n        /* \"#utility.yul\":2365:2368   */\n      dup4\n        /* \"#utility.yul\":2306:2373   */\n      tag_25\n      jump\t// in\n    tag_53:\n        /* \"#utility.yul\":2299:2373   */\n      swap2\n      pop\n        /* \"#utility.yul\":2382:2475   */\n      tag_54\n        /* \"#utility.yul\":2471:2474   */\n      dup3\n        /* \"#utility.yul\":2382:2475   */\n      tag_29\n      jump\t// in\n    tag_54:\n        /* \"#utility.yul\":2500:2502   */\n      0x20\n        /* \"#utility.yul\":2495:2498   */\n      dup3\n        /* \"#utility.yul\":2491:2503   */\n      add\n        /* \"#utility.yul\":2484:2503   */\n      swap1\n      pop\n        /* \"#utility.yul\":2143:2509   */\n      swap2\n      swap1\n      pop\n      jump\t// out\n        /* \"#utility.yul\":2515:2934   */\n    tag_20:\n        /* \"#utility.yul\":2681:2685   */\n      0x00\n        /* \"#utility.yul\":2719:2721   */\n      0x20\n        /* \"#utility.yul\":2708:2717   */\n      dup3\n        /* \"#utility.yul\":2704:2722   */\n      add\n        /* \"#utility.yul\":2696:2722   */\n      swap1\n      pop\n        /* \"#utility.yul\":2768:2777   */\n      dup2\n        /* \"#utility.yul\":2762:2766   */\n      dup2\n        /* \"#utility.yul\":2758:2778   */\n      sub\n        /* \"#utility.yul\":2754:2755   */\n      0x00\n        /* \"#utility.yul\":2743:2752   */\n      dup4\n        /* \"#utility.yul\":2739:2756   */\n      add\n        /* \"#utility.yul\":2732:2779   */\n      mstore\n        /* \"#utility.yul\":2796:2927   */\n      tag_56\n        /* \"#utility.yul\":2922:2926   */\n      dup2\n        /* \"#utility.yul\":2796:2927   */\n      tag_30\n      jump\t// in\n    tag_56:\n        /* \"#utility.yul\":2788:2927   */\n      swap1\n      pop\n        /* \"#utility.yul\":2515:2934   */\n      swap2\n      swap1\n      pop\n      jump\t// out\n        /* \"#utility.yul\":2940:3120   */\n    tag_31:\n        /* \"#utility.yul\":2988:3065   */\n      0x4e487b7100000000000000000000000000000000000000000000000000000000\n        /* \"#utility.yul\":2985:2986   */\n      0x00\n        /* \"#utility.yul\":2978:3066   */\n      mstore\n        /* \"#utility.yul\":3085:3089   */\n      0x11\n        /* \"#utility.yul\":3082:3083   */\n      0x04\n        /* \"#utility.yul\":3075:3090   */\n      mstore\n        /* \"#utility.yul\":3109:3113   */\n      0x24\n        /* \"#utility.yul\":3106:3107   */\n      0x00\n        /* \"#utility.yul\":3099:3114   */\n      revert\n        /* \"#utility.yul\":3126:3317   */\n    tag_22:\n        /* \"#utility.yul\":3166:3169   */\n      0x00\n        /* \"#utility.yul\":3185:3205   */\n      tag_59\n        /* \"#utility.yul\":3203:3204   */\n      dup3\n        /* \"#utility.yul\":3185:3205   */\n      tag_23\n      jump\t// in\n    tag_59:\n        /* \"#utility.yul\":3180:3205   */\n      swap2\n      pop\n        /* \"#utility.yul\":3219:3239   */\n      tag_60\n        /* \"#utility.yul\":3237:3238   */\n      dup4\n        /* \"#utility.yul\":3219:3239   */\n      tag_23\n      jump\t// in\n    tag_60:\n        /* \"#utility.yul\":3214:3239   */\n      swap3\n      pop\n        /* \"#utility.yul\":3262:3263   */\n      dup3\n        /* \"#utility.yul\":3259:3260   */\n      dup3\n        /* \"#utility.yul\":3255:3264   */\n      add\n        /* \"#utility.yul\":3248:3264   */\n      swap1\n      pop\n        /* \"#utility.yul\":3283:3286   */\n      dup1\n        /* \"#utility.yul\":3280:3281   */\n      dup3\n        /* \"#utility.yul\":3277:3287   */\n      gt\n        /* \"#utility.yul\":3274:3310   */\n      iszero\n      tag_61\n      jumpi\n        /* \"#utility.yul\":3290:3308   */\n      tag_62\n      tag_31\n      jump\t// in\n    tag_62:\n        /* \"#utility.yul\":3274:3310   */\n    tag_61:\n        /* \"#utility.yul\":3126:3317   */\n      swap3\n      swap2\n      pop\n      pop\n      jump\t// out\n\n    auxdata: 0xa26469706673582212205b32437e4354c5735c835b5d09bc1984263c51f73849318f3195bb8a968d8eca64736f6c634300081a0033\n}\n",
				"bytecode": {
					"linkReferences": {},
					"object": "6080604052348015600e575f80fd5b506040516104403803806104408339818101604052810190602e919060ab565b805f819055503360015f6101000a81548173ffffffffffffffffffffffffffffffffffffffff021916908373ffffffffffffffffffffffffffffffffffffffff1602179055505060d1565b5f80fd5b5f819050919050565b608d81607d565b81146096575f80fd5b50565b5f8151905060a5816086565b92915050565b5f6020828403121560bd5760bc6079565b5b5f60c8848285016099565b91505092915050565b610362806100de5f395ff3fe608060405260043610610028575f3560e01c806312065fe01461002c578063d0e30db014610056575b5f80fd5b348015610037575f80fd5b50610040610060565b60405161004d9190610176565b60405180910390f35b61005e6100f7565b005b5f60015f9054906101000a900473ffffffffffffffffffffffffffffffffffffffff1673ffffffffffffffffffffffffffffffffffffffff163373ffffffffffffffffffffffffffffffffffffffff16146100f0576040517f08c379a00000000000000000000000000000000000000000000000000000000081526004016100e7906101e9565b60405180910390fd5b5f54905090565b5f6005346101059190610234565b14610145576040517f08c379a000000000000000000000000000000000000000000000000000000000815260040161013c906102ae565b60405180910390fd5b345f8082825461015591906102f9565b92505081905550565b5f819050919050565b6101708161015e565b82525050565b5f6020820190506101895f830184610167565b92915050565b5f82825260208201905092915050565b7f596f7520617265206e6f7420746865206f776e657200000000000000000000005f82015250565b5f6101d360158361018f565b91506101de8261019f565b602082019050919050565b5f6020820190508181035f830152610200816101c7565b9050919050565b7f4e487b71000000000000000000000000000000000000000000000000000000005f52601260045260245ffd5b5f61023e8261015e565b91506102498361015e565b92508261025957610258610207565b5b828206905092915050565b7f456e74657220696e206d756c7469706c6573206f662035206f6e6c79000000005f82015250565b5f610298601c8361018f565b91506102a382610264565b602082019050919050565b5f6020820190508181035f8301526102c58161028c565b9050919050565b7f4e487b71000000000000000000000000000000000000000000000000000000005f52601160045260245ffd5b5f6103038261015e565b915061030e8361015e565b9250828201905080821115610326576103256102cc565b5b9291505056fea26469706673582212205b32437e4354c5735c835b5d09bc1984263c51f73849318f3195bb8a968d8eca64736f6c634300081a0033",
					"opcodes": "PUSH1 0x80 PUSH1 0x40 MSTORE CALLVALUE DUP1 ISZERO PUSH1 0xE JUMPI PUSH0 DUP1 REVERT JUMPDEST POP PUSH1 0x40 MLOAD PUSH2 0x440 CODESIZE SUB DUP1 PUSH2 0x440 DUP4 CODECOPY DUP2 DUP2 ADD PUSH1 0x40 MSTORE DUP2 ADD SWAP1 PUSH1 0x2E SWAP2 SWAP1 PUSH1 0xAB JUMP JUMPDEST DUP1 PUSH0 DUP2 SWAP1 SSTORE POP CALLER PUSH1 0x1 PUSH0 PUSH2 0x100 EXP DUP2 SLOAD DUP2 PUSH20 0xFFFFFFFFFFFFFFFFFFFFFFFFFFFFFFFFFFFFFFFF MUL NOT AND SWAP1 DUP4 PUSH20 0xFFFFFFFFFFFFFFFFFFFFFFFFFFFFFFFFFFFFFFFF AND MUL OR SWAP1 SSTORE POP POP PUSH1 0xD1 JUMP JUMPDEST PUSH0 DUP1 REVERT JUMPDEST PUSH0 DUP2 SWAP1 POP SWAP2 SWAP1 POP JUMP JUMPDEST PUSH1 0x8D DUP2 PUSH1 0x7D JUMP JUMPDEST DUP2 EQ PUSH1 0x96 JUMPI PUSH0 DUP1 REVERT JUMPDEST POP JUMP JUMPDEST PUSH0 DUP2 MLOAD SWAP1 POP PUSH1 0xA5 DUP2 PUSH1 0x86 JUMP JUMPDEST SWAP3 SWAP2 POP POP JUMP JUMPDEST PUSH0 PUSH1 0x20 DUP3 DUP5 SUB SLT ISZERO PUSH1 0xBD JUMPI PUSH1 0xBC PUSH1 0x79 JUMP JUMPDEST JUMPDEST PUSH0 PUSH1 0xC8 DUP5 DUP3 DUP6 ADD PUSH1 0x99 JUMP JUMPDEST SWAP2 POP POP SWAP3 SWAP2 POP POP JUMP JUMPDEST PUSH2 0x362 DUP1 PUSH2 0xDE PUSH0 CODECOPY PUSH0 RETURN INVALID PUSH1 0x80 PUSH1 0x40 MSTORE PUSH1 0x4 CALLDATASIZE LT PUSH2 0x28 JUMPI PUSH0 CALLDATALOAD PUSH1 0xE0 SHR DUP1 PUSH4 0x12065FE0 EQ PUSH2 0x2C JUMPI DUP1 PUSH4 0xD0E30DB0 EQ PUSH2 0x56 JUMPI JUMPDEST PUSH0 DUP1 REVERT JUMPDEST CALLVALUE DUP1 ISZERO PUSH2 0x37 JUMPI PUSH0 DUP1 REVERT JUMPDEST POP PUSH2 0x40 PUSH2 0x60 JUMP JUMPDEST PUSH1 0x40 MLOAD PUSH2 0x4D SWAP2 SWAP1 PUSH2 0x176 JUMP JUMPDEST PUSH1 0x40 MLOAD DUP1 SWAP2 SUB SWAP1 RETURN JUMPDEST PUSH2 0x5E PUSH2 0xF7 JUMP JUMPDEST STOP JUMPDEST PUSH0 PUSH1 0x1 PUSH0 SWAP1 SLOAD SWAP1 PUSH2 0x100 EXP SWAP1 DIV PUSH20 0xFFFFFFFFFFFFFFFFFFFFFFFFFFFFFFFFFFFFFFFF AND PUSH20 0xFFFFFFFFFFFFFFFFFFFFFFFFFFFFFFFFFFFFFFFF AND CALLER PUSH20 0xFFFFFFFFFFFFFFFFFFFFFFFFFFFFFFFFFFFFFFFF AND EQ PUSH2 0xF0 JUMPI PUSH1 0x40 MLOAD PUSH32 0x8C379A000000000000000000000000000000000000000000000000000000000 DUP2 MSTORE PUSH1 0x4 ADD PUSH2 0xE7 SWAP1 PUSH2 0x1E9 JUMP JUMPDEST PUSH1 0x40 MLOAD DUP1 SWAP2 SUB SWAP1 REVERT JUMPDEST PUSH0 SLOAD SWAP1 POP SWAP1 JUMP JUMPDEST PUSH0 PUSH1 0x5 CALLVALUE PUSH2 0x105 SWAP2 SWAP1 PUSH2 0x234 JUMP JUMPDEST EQ PUSH2 0x145 JUMPI PUSH1 0x40 MLOAD PUSH32 0x8C379A000000000000000000000000000000000000000000000000000000000 DUP2 MSTORE PUSH1 0x4 ADD PUSH2 0x13C SWAP1 PUSH2 0x2AE JUMP JUMPDEST PUSH1 0x40 MLOAD DUP1 SWAP2 SUB SWAP1 REVERT JUMPDEST CALLVALUE PUSH0 DUP1 DUP3 DUP3 SLOAD PUSH2 0x155 SWAP2 SWAP1 PUSH2 0x2F9 JUMP JUMPDEST SWAP3 POP POP DUP2 SWAP1 SSTORE POP JUMP JUMPDEST PUSH0 DUP2 SWAP1 POP SWAP2 SWAP1 POP JUMP JUMPDEST PUSH2 0x170 DUP2 PUSH2 0x15E JUMP JUMPDEST DUP3 MSTORE POP POP JUMP JUMPDEST PUSH0 PUSH1 0x20 DUP3 ADD SWAP1 POP PUSH2 0x189 PUSH0 DUP4 ADD DUP5 PUSH2 0x167 JUMP JUMPDEST SWAP3 SWAP2 POP POP JUMP JUMPDEST PUSH0 DUP3 DUP3 MSTORE PUSH1 0x20 DUP3 ADD SWAP1 POP SWAP3 SWAP2 POP POP JUMP JUMPDEST PUSH32 0x596F7520617265206E6F7420746865206F776E65720000000000000000000000 PUSH0 DUP3 ADD MSTORE POP JUMP JUMPDEST PUSH0 PUSH2 0x1D3 PUSH1 0x15 DUP4 PUSH2 0x18F JUMP JUMPDEST SWAP2 POP PUSH2 0x1DE DUP3 PUSH2 0x19F JUMP JUMPDEST PUSH1 0x20 DUP3 ADD SWAP1 POP SWAP2 SWAP1 POP JUMP JUMPDEST PUSH0 PUSH1 0x20 DUP3 ADD SWAP1 POP DUP2 DUP2 SUB PUSH0 DUP4 ADD MSTORE PUSH2 0x200 DUP2 PUSH2 0x1C7 JUMP JUMPDEST SWAP1 POP SWAP2 SWAP1 POP JUMP JUMPDEST PUSH32 0x4E487B7100000000000000000000000000000000000000000000000000000000 PUSH0 MSTORE PUSH1 0x12 PUSH1 0x4 MSTORE PUSH1 0x24 PUSH0 REVERT JUMPDEST PUSH0 PUSH2 0x23E DUP3 PUSH2 0x15E JUMP JUMPDEST SWAP2 POP PUSH2 0x249 DUP4 PUSH2 0x15E JUMP JUMPDEST SWAP3 POP DUP3 PUSH2 0x259 JUMPI PUSH2 0x258 PUSH2 0x207 JUMP JUMPDEST JUMPDEST DUP3 DUP3 MOD SWAP1 POP SWAP3 SWAP2 POP POP JUMP JUMPDEST PUSH32 0x456E74657220696E206D756C7469706C6573206F662035206F6E6C7900000000 PUSH0 DUP3 ADD MSTORE POP JUMP JUMPDEST PUSH0 PUSH2 0x298 PUSH1 0x1C DUP4 PUSH2 0x18F JUMP JUMPDEST SWAP2 POP PUSH2 0x2A3 DUP3 PUSH2 0x264 JUMP JUMPDEST PUSH1 0x20 DUP3 ADD SWAP1 POP SWAP2 SWAP1 POP JUMP JUMPDEST PUSH0 PUSH1 0x20 DUP3 ADD SWAP1 POP DUP2 DUP2 SUB PUSH0 DUP4 ADD MSTORE PUSH2 0x2C5 DUP2 PUSH2 0x28C JUMP JUMPDEST SWAP1 POP SWAP2 SWAP1 POP JUMP JUMPDEST PUSH32 0x4E487B7100000000000000000000000000000000000000000000000000000000 PUSH0 MSTORE PUSH1 0x11 PUSH1 0x4 MSTORE PUSH1 0x24 PUSH0 REVERT JUMPDEST PUSH0 PUSH2 0x303 DUP3 PUSH2 0x15E JUMP JUMPDEST SWAP2 POP PUSH2 0x30E DUP4 PUSH2 0x15E JUMP JUMPDEST SWAP3 POP DUP3 DUP3 ADD SWAP1 POP DUP1 DUP3 GT ISZERO PUSH2 0x326 JUMPI PUSH2 0x325 PUSH2 0x2CC JUMP JUMPDEST JUMPDEST SWAP3 SWAP2 POP POP JUMP INVALID LOG2 PUSH5 0x6970667358 0x22 SLT KECCAK256 JUMPDEST ORIGIN NUMBER PUSH31 0x4354C5735C835B5D09BC1984263C51F73849318F3195BB8A968D8ECA64736F PUSH13 0x634300081A0033000000000000 "
				},
				"gasEstimates": {
					"creation": {
						"codeDepositCost": "173200",
						"executionCost": "infinite",
						"totalCost": "infinite"
					},
					"external": {
						"deposit()": "infinite",
						"getBalance()": "4578"
					}
				},
				"methodIdentifiers": {
					"deposit()": "d0e30db0",
					"getBalance()": "12065fe0"
				}
			},
			"storageLayout": {
				"storage": [
					{
						"astId": 3,
						"contract": "Assignments/cp2-1.sol:wallet",
						"label": "balance",
						"offset": 0,
						"slot": "0",
						"type": "t_uint256"
					},
					{
						"astId": 5,
						"contract": "Assignments/cp2-1.sol:wallet",
						"label": "owner",
						"offset": 0,
						"slot": "1",
						"type": "t_address"
					}
				],
				"types": {
					"t_address": {
						"encoding": "inplace",
						"label": "address",
						"numberOfBytes": "20"
					},
					"t_uint256": {
						"encoding": "inplace",
						"label": "uint256",
						"numberOfBytes": "32"
					}
				}
			},
			"userdoc": {
				"kind": "user",
				"methods": {},
				"version": 1
			}
		}
	}
}