{
	"Assignments/program-3.sol": {
		"ValueStorage": {
			"abi": [
				{
					"inputs": [],
					"name": "a",
					"outputs": [
						{
							"internalType": "uint256",
							"name": "",
							"type": "uint256"
						}
					],
					"stateMutability": "view",
					"type": "function"
				},
				{
					"inputs": [],
					"name": "ab",
					"outputs": [
						{
							"internalType": "address",
							"name": "",
							"type": "address"
						}
					],
					"stateMutability": "view",
					"type": "function"
				},
				{
					"inputs": [],
					"name": "b",
					"outputs": [
						{
							"internalType": "bool",
							"name": "",
							"type": "bool"
						}
					],
					"stateMutability": "view",
					"type": "function"
				},
				{
					"inputs": [],
					"name": "message",
					"outputs": [
						{
							"internalType": "string",
							"name": "",
							"type": "string"
						}
					],
					"stateMutability": "view",
					"type": "function"
				},
				{
					"inputs": [
						{
							"internalType": "uint256",
							"name": "_a",
							"type": "uint256"
						},
						{
							"internalType": "string",
							"name": "_message",
							"type": "string"
						},
						{
							"internalType": "address",
							"name": "_ab",
							"type": "address"
						},
						{
							"internalType": "bool",
							"name": "_b",
							"type": "bool"
						}
					],
					"name": "setValues",
					"outputs": [],
					"stateMutability": "nonpayable",
					"type": "function"
				}
			],
			"devdoc": {
				"kind": "dev",
				"methods": {},
				"version": 1
			},
			"evm": {
				"assembly": "    /* \"Assignments/program-3.sol\":62:359  contract ValueStorage{... */\n  mstore(0x40, 0x80)\n  callvalue\n  dup1\n  iszero\n  tag_1\n  jumpi\n  0x00\n  dup1\n  revert\ntag_1:\n  pop\n  dataSize(sub_0)\n  dup1\n  dataOffset(sub_0)\n  0x00\n  codecopy\n  0x00\n  return\nstop\n\nsub_0: assembly {\n        /* \"Assignments/program-3.sol\":62:359  contract ValueStorage{... */\n      mstore(0x40, 0x80)\n      callvalue\n      dup1\n      iszero\n      tag_1\n      jumpi\n      0x00\n      dup1\n      revert\n    tag_1:\n      pop\n      jumpi(tag_2, lt(calldatasize, 0x04))\n      shr(0xe0, calldataload(0x00))\n      dup1\n      0x0dbe671f\n      eq\n      tag_3\n      jumpi\n      dup1\n      0x1fe5d6e3\n      eq\n      tag_4\n      jumpi\n      dup1\n      0x4df7e3d0\n      eq\n      tag_5\n      jumpi\n      dup1\n      0xe1fabe02\n      eq\n      tag_6\n      jumpi\n      dup1\n      0xe21f37ce\n      eq\n      tag_7\n      jumpi\n    tag_2:\n      0x00\n      dup1\n      revert\n        /* \"Assignments/program-3.sol\":90:103  uint public a */\n    tag_3:\n      tag_8\n      tag_9\n      jump\t// in\n    tag_8:\n      mload(0x40)\n      tag_10\n      swap2\n      swap1\n      tag_11\n      jump\t// in\n    tag_10:\n      mload(0x40)\n      dup1\n      swap2\n      sub\n      swap1\n      return\n        /* \"Assignments/program-3.sol\":138:155  address public ab */\n    tag_4:\n      tag_12\n      tag_13\n      jump\t// in\n    tag_12:\n      mload(0x40)\n      tag_14\n      swap2\n      swap1\n      tag_15\n      jump\t// in\n    tag_14:\n      mload(0x40)\n      dup1\n      swap2\n      sub\n      swap1\n      return\n        /* \"Assignments/program-3.sol\":162:175  bool public b */\n    tag_5:\n      tag_16\n      tag_17\n      jump\t// in\n    tag_16:\n      mload(0x40)\n      tag_18\n      swap2\n      swap1\n      tag_19\n      jump\t// in\n    tag_18:\n      mload(0x40)\n      dup1\n      swap2\n      sub\n      swap1\n      return\n        /* \"Assignments/program-3.sol\":184:354  function setValues(uint _a, string memory _message, address _ab, bool _b) public{... */\n    tag_6:\n      tag_20\n      0x04\n      dup1\n      calldatasize\n      sub\n      dup2\n      add\n      swap1\n      tag_21\n      swap2\n      swap1\n      tag_22\n      jump\t// in\n    tag_21:\n      tag_23\n      jump\t// in\n    tag_20:\n      stop\n        /* \"Assignments/program-3.sol\":110:131  string public message */\n    tag_7:\n      tag_24\n      tag_25\n      jump\t// in\n    tag_24:\n      mload(0x40)\n      tag_26\n      swap2\n      swap1\n      tag_27\n      jump\t// in\n    tag_26:\n      mload(0x40)\n      dup1\n      swap2\n      sub\n      swap1\n      return\n        /* \"Assignments/program-3.sol\":90:103  uint public a */\n    tag_9:\n      sload(0x00)\n      dup2\n      jump\t// out\n        /* \"Assignments/program-3.sol\":138:155  address public ab */\n    tag_13:\n      0x02\n      0x00\n      swap1\n      sload\n      swap1\n      0x0100\n      exp\n      swap1\n      div\n      0xffffffffffffffffffffffffffffffffffffffff\n      and\n      dup2\n      jump\t// out\n        /* \"Assignments/program-3.sol\":162:175  bool public b */\n    tag_17:\n      0x02\n      0x14\n      swap1\n      sload\n      swap1\n      0x0100\n      exp\n      swap1\n      div\n      0xff\n      and\n      dup2\n      jump\t// out\n        /* \"Assignments/program-3.sol\":184:354  function setValues(uint _a, string memory _message, address _ab, bool _b) public{... */\n    tag_23:\n        /* \"Assignments/program-3.sol\":279:281  _a */\n      dup4\n        /* \"Assignments/program-3.sol\":275:276  a */\n      0x00\n        /* \"Assignments/program-3.sol\":275:281  a = _a */\n      dup2\n      swap1\n      sstore\n      pop\n        /* \"Assignments/program-3.sol\":302:310  _message */\n      dup3\n        /* \"Assignments/program-3.sol\":292:299  message */\n      0x01\n        /* \"Assignments/program-3.sol\":292:310  message = _message */\n      swap1\n      dup2\n      tag_29\n      swap2\n      swap1\n      tag_30\n      jump\t// in\n    tag_29:\n      pop\n        /* \"Assignments/program-3.sol\":326:329  _ab */\n      dup2\n        /* \"Assignments/program-3.sol\":321:323  ab */\n      0x02\n      0x00\n        /* \"Assignments/program-3.sol\":321:329  ab = _ab */\n      0x0100\n      exp\n      dup2\n      sload\n      dup2\n      0xffffffffffffffffffffffffffffffffffffffff\n      mul\n      not\n      and\n      swap1\n      dup4\n      0xffffffffffffffffffffffffffffffffffffffff\n      and\n      mul\n      or\n      swap1\n      sstore\n      pop\n        /* \"Assignments/program-3.sol\":344:346  _b */\n      dup1\n        /* \"Assignments/program-3.sol\":340:341  b */\n      0x02\n      0x14\n        /* \"Assignments/program-3.sol\":340:346  b = _b */\n      0x0100\n      exp\n      dup2\n      sload\n      dup2\n      0xff\n      mul\n      not\n      and\n      swap1\n      dup4\n      iszero\n      iszero\n      mul\n      or\n      swap1\n      sstore\n      pop\n        /* \"Assignments/program-3.sol\":184:354  function setValues(uint _a, string memory _message, address _ab, bool _b) public{... */\n      pop\n      pop\n      pop\n      pop\n      jump\t// out\n        /* \"Assignments/program-3.sol\":110:131  string public message */\n    tag_25:\n      0x01\n      dup1\n      sload\n      tag_31\n      swap1\n      tag_32\n      jump\t// in\n    tag_31:\n      dup1\n      0x1f\n      add\n      0x20\n      dup1\n      swap2\n      div\n      mul\n      0x20\n      add\n      mload(0x40)\n      swap1\n      dup2\n      add\n      0x40\n      mstore\n      dup1\n      swap3\n      swap2\n      swap1\n      dup2\n      dup2\n      mstore\n      0x20\n      add\n      dup3\n      dup1\n      sload\n      tag_33\n      swap1\n      tag_32\n      jump\t// in\n    tag_33:\n      dup1\n      iszero\n      tag_34\n      jumpi\n      dup1\n      0x1f\n      lt\n      tag_35\n      jumpi\n      0x0100\n      dup1\n      dup4\n      sload\n      div\n      mul\n      dup4\n      mstore\n      swap2\n      0x20\n      add\n      swap2\n      jump(tag_34)\n    tag_35:\n      dup3\n      add\n      swap2\n      swap1\n      0x00\n      mstore\n      keccak256(0x00, 0x20)\n      swap1\n    tag_36:\n      dup2\n      sload\n      dup2\n      mstore\n      swap1\n      0x01\n      add\n      swap1\n      0x20\n      add\n      dup1\n      dup4\n      gt\n      tag_36\n      jumpi\n      dup3\n      swap1\n      sub\n      0x1f\n      and\n      dup3\n      add\n      swap2\n    tag_34:\n      pop\n      pop\n      pop\n      pop\n      pop\n      dup2\n      jump\t// out\n        /* \"#utility.yul\":7:84   */\n    tag_37:\n        /* \"#utility.yul\":44:51   */\n      0x00\n        /* \"#utility.yul\":73:78   */\n      dup2\n        /* \"#utility.yul\":62:78   */\n      swap1\n      pop\n        /* \"#utility.yul\":7:84   */\n      swap2\n      swap1\n      pop\n      jump\t// out\n        /* \"#utility.yul\":90:208   */\n    tag_38:\n        /* \"#utility.yul\":177:201   */\n      tag_86\n        /* \"#utility.yul\":195:200   */\n      dup2\n        /* \"#utility.yul\":177:201   */\n      tag_37\n      jump\t// in\n    tag_86:\n        /* \"#utility.yul\":172:175   */\n      dup3\n        /* \"#utility.yul\":165:202   */\n      mstore\n        /* \"#utility.yul\":90:208   */\n      pop\n      pop\n      jump\t// out\n        /* \"#utility.yul\":214:436   */\n    tag_11:\n        /* \"#utility.yul\":307:311   */\n      0x00\n        /* \"#utility.yul\":345:347   */\n      0x20\n        /* \"#utility.yul\":334:343   */\n      dup3\n        /* \"#utility.yul\":330:348   */\n      add\n        /* \"#utility.yul\":322:348   */\n      swap1\n      pop\n        /* \"#utility.yul\":358:429   */\n      tag_88\n        /* \"#utility.yul\":426:427   */\n      0x00\n        /* \"#utility.yul\":415:424   */\n      dup4\n        /* \"#utility.yul\":411:428   */\n      add\n        /* \"#utility.yul\":402:408   */\n      dup5\n        /* \"#utility.yul\":358:429   */\n      tag_38\n      jump\t// in\n    tag_88:\n        /* \"#utility.yul\":214:436   */\n      swap3\n      swap2\n      pop\n      pop\n      jump\t// out\n        /* \"#utility.yul\":442:568   */\n    tag_39:\n        /* \"#utility.yul\":479:486   */\n      0x00\n        /* \"#utility.yul\":519:561   */\n      0xffffffffffffffffffffffffffffffffffffffff\n        /* \"#utility.yul\":512:517   */\n      dup3\n        /* \"#utility.yul\":508:562   */\n      and\n        /* \"#utility.yul\":497:562   */\n      swap1\n      pop\n        /* \"#utility.yul\":442:568   */\n      swap2\n      swap1\n      pop\n      jump\t// out\n        /* \"#utility.yul\":574:670   */\n    tag_40:\n        /* \"#utility.yul\":611:618   */\n      0x00\n        /* \"#utility.yul\":640:664   */\n      tag_91\n        /* \"#utility.yul\":658:663   */\n      dup3\n        /* \"#utility.yul\":640:664   */\n      tag_39\n      jump\t// in\n    tag_91:\n        /* \"#utility.yul\":629:664   */\n      swap1\n      pop\n        /* \"#utility.yul\":574:670   */\n      swap2\n      swap1\n      pop\n      jump\t// out\n        /* \"#utility.yul\":676:794   */\n    tag_41:\n        /* \"#utility.yul\":763:787   */\n      tag_93\n        /* \"#utility.yul\":781:786   */\n      dup2\n        /* \"#utility.yul\":763:787   */\n      tag_40\n      jump\t// in\n    tag_93:\n        /* \"#utility.yul\":758:761   */\n      dup3\n        /* \"#utility.yul\":751:788   */\n      mstore\n        /* \"#utility.yul\":676:794   */\n      pop\n      pop\n      jump\t// out\n        /* \"#utility.yul\":800:1022   */\n    tag_15:\n        /* \"#utility.yul\":893:897   */\n      0x00\n        /* \"#utility.yul\":931:933   */\n      0x20\n        /* \"#utility.yul\":920:929   */\n      dup3\n        /* \"#utility.yul\":916:934   */\n      add\n        /* \"#utility.yul\":908:934   */\n      swap1\n      pop\n        /* \"#utility.yul\":944:1015   */\n      tag_95\n        /* \"#utility.yul\":1012:1013   */\n      0x00\n        /* \"#utility.yul\":1001:1010   */\n      dup4\n        /* \"#utility.yul\":997:1014   */\n      add\n        /* \"#utility.yul\":988:994   */\n      dup5\n        /* \"#utility.yul\":944:1015   */\n      tag_41\n      jump\t// in\n    tag_95:\n        /* \"#utility.yul\":800:1022   */\n      swap3\n      swap2\n      pop\n      pop\n      jump\t// out\n        /* \"#utility.yul\":1028:1118   */\n    tag_42:\n        /* \"#utility.yul\":1062:1069   */\n      0x00\n        /* \"#utility.yul\":1105:1110   */\n      dup2\n        /* \"#utility.yul\":1098:1111   */\n      iszero\n        /* \"#utility.yul\":1091:1112   */\n      iszero\n        /* \"#utility.yul\":1080:1112   */\n      swap1\n      pop\n        /* \"#utility.yul\":1028:1118   */\n      swap2\n      swap1\n      pop\n      jump\t// out\n        /* \"#utility.yul\":1124:1233   */\n    tag_43:\n        /* \"#utility.yul\":1205:1226   */\n      tag_98\n        /* \"#utility.yul\":1220:1225   */\n      dup2\n        /* \"#utility.yul\":1205:1226   */\n      tag_42\n      jump\t// in\n    tag_98:\n        /* \"#utility.yul\":1200:1203   */\n      dup3\n        /* \"#utility.yul\":1193:1227   */\n      mstore\n        /* \"#utility.yul\":1124:1233   */\n      pop\n      pop\n      jump\t// out\n        /* \"#utility.yul\":1239:1449   */\n    tag_19:\n        /* \"#utility.yul\":1326:1330   */\n      0x00\n        /* \"#utility.yul\":1364:1366   */\n      0x20\n        /* \"#utility.yul\":1353:1362   */\n      dup3\n        /* \"#utility.yul\":1349:1367   */\n      add\n        /* \"#utility.yul\":1341:1367   */\n      swap1\n      pop\n        /* \"#utility.yul\":1377:1442   */\n      tag_100\n        /* \"#utility.yul\":1439:1440   */\n      0x00\n        /* \"#utility.yul\":1428:1437   */\n      dup4\n        /* \"#utility.yul\":1424:1441   */\n      add\n        /* \"#utility.yul\":1415:1421   */\n      dup5\n        /* \"#utility.yul\":1377:1442   */\n      tag_43\n      jump\t// in\n    tag_100:\n        /* \"#utility.yul\":1239:1449   */\n      swap3\n      swap2\n      pop\n      pop\n      jump\t// out\n        /* \"#utility.yul\":1455:1530   */\n    tag_44:\n        /* \"#utility.yul\":1488:1494   */\n      0x00\n        /* \"#utility.yul\":1521:1523   */\n      0x40\n        /* \"#utility.yul\":1515:1524   */\n      mload\n        /* \"#utility.yul\":1505:1524   */\n      swap1\n      pop\n        /* \"#utility.yul\":1455:1530   */\n      swap1\n      jump\t// out\n        /* \"#utility.yul\":1536:1653   */\n    tag_45:\n        /* \"#utility.yul\":1645:1646   */\n      0x00\n        /* \"#utility.yul\":1642:1643   */\n      dup1\n        /* \"#utility.yul\":1635:1647   */\n      revert\n        /* \"#utility.yul\":1659:1776   */\n    tag_46:\n        /* \"#utility.yul\":1768:1769   */\n      0x00\n        /* \"#utility.yul\":1765:1766   */\n      dup1\n        /* \"#utility.yul\":1758:1770   */\n      revert\n        /* \"#utility.yul\":1782:1904   */\n    tag_47:\n        /* \"#utility.yul\":1855:1879   */\n      tag_105\n        /* \"#utility.yul\":1873:1878   */\n      dup2\n        /* \"#utility.yul\":1855:1879   */\n      tag_37\n      jump\t// in\n    tag_105:\n        /* \"#utility.yul\":1848:1853   */\n      dup2\n        /* \"#utility.yul\":1845:1880   */\n      eq\n        /* \"#utility.yul\":1835:1898   */\n      tag_106\n      jumpi\n        /* \"#utility.yul\":1894:1895   */\n      0x00\n        /* \"#utility.yul\":1891:1892   */\n      dup1\n        /* \"#utility.yul\":1884:1896   */\n      revert\n        /* \"#utility.yul\":1835:1898   */\n    tag_106:\n        /* \"#utility.yul\":1782:1904   */\n      pop\n      jump\t// out\n        /* \"#utility.yul\":1910:2049   */\n    tag_48:\n        /* \"#utility.yul\":1956:1961   */\n      0x00\n        /* \"#utility.yul\":1994:2000   */\n      dup2\n        /* \"#utility.yul\":1981:2001   */\n      calldataload\n        /* \"#utility.yul\":1972:2001   */\n      swap1\n      pop\n        /* \"#utility.yul\":2010:2043   */\n      tag_108\n        /* \"#utility.yul\":2037:2042   */\n      dup2\n        /* \"#utility.yul\":2010:2043   */\n      tag_47\n      jump\t// in\n    tag_108:\n        /* \"#utility.yul\":1910:2049   */\n      swap3\n      swap2\n      pop\n      pop\n      jump\t// out\n        /* \"#utility.yul\":2055:2172   */\n    tag_49:\n        /* \"#utility.yul\":2164:2165   */\n      0x00\n        /* \"#utility.yul\":2161:2162   */\n      dup1\n        /* \"#utility.yul\":2154:2166   */\n      revert\n        /* \"#utility.yul\":2178:2295   */\n    tag_50:\n        /* \"#utility.yul\":2287:2288   */\n      0x00\n        /* \"#utility.yul\":2284:2285   */\n      dup1\n        /* \"#utility.yul\":2277:2289   */\n      revert\n        /* \"#utility.yul\":2301:2403   */\n    tag_51:\n        /* \"#utility.yul\":2342:2348   */\n      0x00\n        /* \"#utility.yul\":2393:2395   */\n      0x1f\n        /* \"#utility.yul\":2389:2396   */\n      not\n        /* \"#utility.yul\":2384:2386   */\n      0x1f\n        /* \"#utility.yul\":2377:2382   */\n      dup4\n        /* \"#utility.yul\":2373:2387   */\n      add\n        /* \"#utility.yul\":2369:2397   */\n      and\n        /* \"#utility.yul\":2359:2397   */\n      swap1\n      pop\n        /* \"#utility.yul\":2301:2403   */\n      swap2\n      swap1\n      pop\n      jump\t// out\n        /* \"#utility.yul\":2409:2589   */\n    tag_52:\n        /* \"#utility.yul\":2457:2534   */\n      0x4e487b7100000000000000000000000000000000000000000000000000000000\n        /* \"#utility.yul\":2454:2455   */\n      0x00\n        /* \"#utility.yul\":2447:2535   */\n      mstore\n        /* \"#utility.yul\":2554:2558   */\n      0x41\n        /* \"#utility.yul\":2551:2552   */\n      0x04\n        /* \"#utility.yul\":2544:2559   */\n      mstore\n        /* \"#utility.yul\":2578:2582   */\n      0x24\n        /* \"#utility.yul\":2575:2576   */\n      0x00\n        /* \"#utility.yul\":2568:2583   */\n      revert\n        /* \"#utility.yul\":2595:2876   */\n    tag_53:\n        /* \"#utility.yul\":2678:2705   */\n      tag_114\n        /* \"#utility.yul\":2700:2704   */\n      dup3\n        /* \"#utility.yul\":2678:2705   */\n      tag_51\n      jump\t// in\n    tag_114:\n        /* \"#utility.yul\":2670:2676   */\n      dup2\n        /* \"#utility.yul\":2666:2706   */\n      add\n        /* \"#utility.yul\":2808:2814   */\n      dup2\n        /* \"#utility.yul\":2796:2806   */\n      dup2\n        /* \"#utility.yul\":2793:2815   */\n      lt\n        /* \"#utility.yul\":2772:2790   */\n      0xffffffffffffffff\n        /* \"#utility.yul\":2760:2770   */\n      dup3\n        /* \"#utility.yul\":2757:2791   */\n      gt\n        /* \"#utility.yul\":2754:2816   */\n      or\n        /* \"#utility.yul\":2751:2839   */\n      iszero\n      tag_115\n      jumpi\n        /* \"#utility.yul\":2819:2837   */\n      tag_116\n      tag_52\n      jump\t// in\n    tag_116:\n        /* \"#utility.yul\":2751:2839   */\n    tag_115:\n        /* \"#utility.yul\":2859:2869   */\n      dup1\n        /* \"#utility.yul\":2855:2857   */\n      0x40\n        /* \"#utility.yul\":2848:2870   */\n      mstore\n        /* \"#utility.yul\":2638:2876   */\n      pop\n        /* \"#utility.yul\":2595:2876   */\n      pop\n      pop\n      jump\t// out\n        /* \"#utility.yul\":2882:3011   */\n    tag_54:\n        /* \"#utility.yul\":2916:2922   */\n      0x00\n        /* \"#utility.yul\":2943:2963   */\n      tag_118\n      tag_44\n      jump\t// in\n    tag_118:\n        /* \"#utility.yul\":2933:2963   */\n      swap1\n      pop\n        /* \"#utility.yul\":2972:3005   */\n      tag_119\n        /* \"#utility.yul\":3000:3004   */\n      dup3\n        /* \"#utility.yul\":2992:2998   */\n      dup3\n        /* \"#utility.yul\":2972:3005   */\n      tag_53\n      jump\t// in\n    tag_119:\n        /* \"#utility.yul\":2882:3011   */\n      swap2\n      swap1\n      pop\n      jump\t// out\n        /* \"#utility.yul\":3017:3325   */\n    tag_55:\n        /* \"#utility.yul\":3079:3083   */\n      0x00\n        /* \"#utility.yul\":3169:3187   */\n      0xffffffffffffffff\n        /* \"#utility.yul\":3161:3167   */\n      dup3\n        /* \"#utility.yul\":3158:3188   */\n      gt\n        /* \"#utility.yul\":3155:3211   */\n      iszero\n      tag_121\n      jumpi\n        /* \"#utility.yul\":3191:3209   */\n      tag_122\n      tag_52\n      jump\t// in\n    tag_122:\n        /* \"#utility.yul\":3155:3211   */\n    tag_121:\n        /* \"#utility.yul\":3229:3258   */\n      tag_123\n        /* \"#utility.yul\":3251:3257   */\n      dup3\n        /* \"#utility.yul\":3229:3258   */\n      tag_51\n      jump\t// in\n    tag_123:\n        /* \"#utility.yul\":3221:3258   */\n      swap1\n      pop\n        /* \"#utility.yul\":3313:3317   */\n      0x20\n        /* \"#utility.yul\":3307:3311   */\n      dup2\n        /* \"#utility.yul\":3303:3318   */\n      add\n        /* \"#utility.yul\":3295:3318   */\n      swap1\n      pop\n        /* \"#utility.yul\":3017:3325   */\n      swap2\n      swap1\n      pop\n      jump\t// out\n        /* \"#utility.yul\":3331:3479   */\n    tag_56:\n        /* \"#utility.yul\":3429:3435   */\n      dup3\n        /* \"#utility.yul\":3424:3427   */\n      dup2\n        /* \"#utility.yul\":3419:3422   */\n      dup4\n        /* \"#utility.yul\":3406:3436   */\n      calldatacopy\n        /* \"#utility.yul\":3470:3471   */\n      0x00\n        /* \"#utility.yul\":3461:3467   */\n      dup4\n        /* \"#utility.yul\":3456:3459   */\n      dup4\n        /* \"#utility.yul\":3452:3468   */\n      add\n        /* \"#utility.yul\":3445:3472   */\n      mstore\n        /* \"#utility.yul\":3331:3479   */\n      pop\n      pop\n      pop\n      jump\t// out\n        /* \"#utility.yul\":3485:3910   */\n    tag_57:\n        /* \"#utility.yul\":3563:3568   */\n      0x00\n        /* \"#utility.yul\":3588:3654   */\n      tag_126\n        /* \"#utility.yul\":3604:3653   */\n      tag_127\n        /* \"#utility.yul\":3646:3652   */\n      dup5\n        /* \"#utility.yul\":3604:3653   */\n      tag_55\n      jump\t// in\n    tag_127:\n        /* \"#utility.yul\":3588:3654   */\n      tag_54\n      jump\t// in\n    tag_126:\n        /* \"#utility.yul\":3579:3654   */\n      swap1\n      pop\n        /* \"#utility.yul\":3677:3683   */\n      dup3\n        /* \"#utility.yul\":3670:3675   */\n      dup2\n        /* \"#utility.yul\":3663:3684   */\n      mstore\n        /* \"#utility.yul\":3715:3719   */\n      0x20\n        /* \"#utility.yul\":3708:3713   */\n      dup2\n        /* \"#utility.yul\":3704:3720   */\n      add\n        /* \"#utility.yul\":3753:3756   */\n      dup5\n        /* \"#utility.yul\":3744:3750   */\n      dup5\n        /* \"#utility.yul\":3739:3742   */\n      dup5\n        /* \"#utility.yul\":3735:3751   */\n      add\n        /* \"#utility.yul\":3732:3757   */\n      gt\n        /* \"#utility.yul\":3729:3841   */\n      iszero\n      tag_128\n      jumpi\n        /* \"#utility.yul\":3760:3839   */\n      tag_129\n      tag_50\n      jump\t// in\n    tag_129:\n        /* \"#utility.yul\":3729:3841   */\n    tag_128:\n        /* \"#utility.yul\":3850:3904   */\n      tag_130\n        /* \"#utility.yul\":3897:3903   */\n      dup5\n        /* \"#utility.yul\":3892:3895   */\n      dup3\n        /* \"#utility.yul\":3887:3890   */\n      dup6\n        /* \"#utility.yul\":3850:3904   */\n      tag_56\n      jump\t// in\n    tag_130:\n        /* \"#utility.yul\":3569:3910   */\n      pop\n        /* \"#utility.yul\":3485:3910   */\n      swap4\n      swap3\n      pop\n      pop\n      pop\n      jump\t// out\n        /* \"#utility.yul\":3930:4270   */\n    tag_58:\n        /* \"#utility.yul\":3986:3991   */\n      0x00\n        /* \"#utility.yul\":4035:4038   */\n      dup3\n        /* \"#utility.yul\":4028:4032   */\n      0x1f\n        /* \"#utility.yul\":4020:4026   */\n      dup4\n        /* \"#utility.yul\":4016:4033   */\n      add\n        /* \"#utility.yul\":4012:4039   */\n      slt\n        /* \"#utility.yul\":4002:4124   */\n      tag_132\n      jumpi\n        /* \"#utility.yul\":4043:4122   */\n      tag_133\n      tag_49\n      jump\t// in\n    tag_133:\n        /* \"#utility.yul\":4002:4124   */\n    tag_132:\n        /* \"#utility.yul\":4160:4166   */\n      dup2\n        /* \"#utility.yul\":4147:4167   */\n      calldataload\n        /* \"#utility.yul\":4185:4264   */\n      tag_134\n        /* \"#utility.yul\":4260:4263   */\n      dup5\n        /* \"#utility.yul\":4252:4258   */\n      dup3\n        /* \"#utility.yul\":4245:4249   */\n      0x20\n        /* \"#utility.yul\":4237:4243   */\n      dup7\n        /* \"#utility.yul\":4233:4250   */\n      add\n        /* \"#utility.yul\":4185:4264   */\n      tag_57\n      jump\t// in\n    tag_134:\n        /* \"#utility.yul\":4176:4264   */\n      swap2\n      pop\n        /* \"#utility.yul\":3992:4270   */\n      pop\n        /* \"#utility.yul\":3930:4270   */\n      swap3\n      swap2\n      pop\n      pop\n      jump\t// out\n        /* \"#utility.yul\":4276:4398   */\n    tag_59:\n        /* \"#utility.yul\":4349:4373   */\n      tag_136\n        /* \"#utility.yul\":4367:4372   */\n      dup2\n        /* \"#utility.yul\":4349:4373   */\n      tag_40\n      jump\t// in\n    tag_136:\n        /* \"#utility.yul\":4342:4347   */\n      dup2\n        /* \"#utility.yul\":4339:4374   */\n      eq\n        /* \"#utility.yul\":4329:4392   */\n      tag_137\n      jumpi\n        /* \"#utility.yul\":4388:4389   */\n      0x00\n        /* \"#utility.yul\":4385:4386   */\n      dup1\n        /* \"#utility.yul\":4378:4390   */\n      revert\n        /* \"#utility.yul\":4329:4392   */\n    tag_137:\n        /* \"#utility.yul\":4276:4398   */\n      pop\n      jump\t// out\n        /* \"#utility.yul\":4404:4543   */\n    tag_60:\n        /* \"#utility.yul\":4450:4455   */\n      0x00\n        /* \"#utility.yul\":4488:4494   */\n      dup2\n        /* \"#utility.yul\":4475:4495   */\n      calldataload\n        /* \"#utility.yul\":4466:4495   */\n      swap1\n      pop\n        /* \"#utility.yul\":4504:4537   */\n      tag_139\n        /* \"#utility.yul\":4531:4536   */\n      dup2\n        /* \"#utility.yul\":4504:4537   */\n      tag_59\n      jump\t// in\n    tag_139:\n        /* \"#utility.yul\":4404:4543   */\n      swap3\n      swap2\n      pop\n      pop\n      jump\t// out\n        /* \"#utility.yul\":4549:4665   */\n    tag_61:\n        /* \"#utility.yul\":4619:4640   */\n      tag_141\n        /* \"#utility.yul\":4634:4639   */\n      dup2\n        /* \"#utility.yul\":4619:4640   */\n      tag_42\n      jump\t// in\n    tag_141:\n        /* \"#utility.yul\":4612:4617   */\n      dup2\n        /* \"#utility.yul\":4609:4641   */\n      eq\n        /* \"#utility.yul\":4599:4659   */\n      tag_142\n      jumpi\n        /* \"#utility.yul\":4655:4656   */\n      0x00\n        /* \"#utility.yul\":4652:4653   */\n      dup1\n        /* \"#utility.yul\":4645:4657   */\n      revert\n        /* \"#utility.yul\":4599:4659   */\n    tag_142:\n        /* \"#utility.yul\":4549:4665   */\n      pop\n      jump\t// out\n        /* \"#utility.yul\":4671:4804   */\n    tag_62:\n        /* \"#utility.yul\":4714:4719   */\n      0x00\n        /* \"#utility.yul\":4752:4758   */\n      dup2\n        /* \"#utility.yul\":4739:4759   */\n      calldataload\n        /* \"#utility.yul\":4730:4759   */\n      swap1\n      pop\n        /* \"#utility.yul\":4768:4798   */\n      tag_144\n        /* \"#utility.yul\":4792:4797   */\n      dup2\n        /* \"#utility.yul\":4768:4798   */\n      tag_61\n      jump\t// in\n    tag_144:\n        /* \"#utility.yul\":4671:4804   */\n      swap3\n      swap2\n      pop\n      pop\n      jump\t// out\n        /* \"#utility.yul\":4810:5749   */\n    tag_22:\n        /* \"#utility.yul\":4903:4909   */\n      0x00\n        /* \"#utility.yul\":4911:4917   */\n      dup1\n        /* \"#utility.yul\":4919:4925   */\n      0x00\n        /* \"#utility.yul\":4927:4933   */\n      dup1\n        /* \"#utility.yul\":4976:4979   */\n      0x80\n        /* \"#utility.yul\":4964:4973   */\n      dup6\n        /* \"#utility.yul\":4955:4962   */\n      dup8\n        /* \"#utility.yul\":4951:4974   */\n      sub\n        /* \"#utility.yul\":4947:4980   */\n      slt\n        /* \"#utility.yul\":4944:5064   */\n      iszero\n      tag_146\n      jumpi\n        /* \"#utility.yul\":4983:5062   */\n      tag_147\n      tag_45\n      jump\t// in\n    tag_147:\n        /* \"#utility.yul\":4944:5064   */\n    tag_146:\n        /* \"#utility.yul\":5103:5104   */\n      0x00\n        /* \"#utility.yul\":5128:5181   */\n      tag_148\n        /* \"#utility.yul\":5173:5180   */\n      dup8\n        /* \"#utility.yul\":5164:5170   */\n      dup3\n        /* \"#utility.yul\":5153:5162   */\n      dup9\n        /* \"#utility.yul\":5149:5171   */\n      add\n        /* \"#utility.yul\":5128:5181   */\n      tag_48\n      jump\t// in\n    tag_148:\n        /* \"#utility.yul\":5118:5181   */\n      swap5\n      pop\n        /* \"#utility.yul\":5074:5191   */\n      pop\n        /* \"#utility.yul\":5258:5260   */\n      0x20\n        /* \"#utility.yul\":5247:5256   */\n      dup6\n        /* \"#utility.yul\":5243:5261   */\n      add\n        /* \"#utility.yul\":5230:5262   */\n      calldataload\n        /* \"#utility.yul\":5289:5307   */\n      0xffffffffffffffff\n        /* \"#utility.yul\":5281:5287   */\n      dup2\n        /* \"#utility.yul\":5278:5308   */\n      gt\n        /* \"#utility.yul\":5275:5392   */\n      iszero\n      tag_149\n      jumpi\n        /* \"#utility.yul\":5311:5390   */\n      tag_150\n      tag_46\n      jump\t// in\n    tag_150:\n        /* \"#utility.yul\":5275:5392   */\n    tag_149:\n        /* \"#utility.yul\":5416:5479   */\n      tag_151\n        /* \"#utility.yul\":5471:5478   */\n      dup8\n        /* \"#utility.yul\":5462:5468   */\n      dup3\n        /* \"#utility.yul\":5451:5460   */\n      dup9\n        /* \"#utility.yul\":5447:5469   */\n      add\n        /* \"#utility.yul\":5416:5479   */\n      tag_58\n      jump\t// in\n    tag_151:\n        /* \"#utility.yul\":5406:5479   */\n      swap4\n      pop\n        /* \"#utility.yul\":5201:5489   */\n      pop\n        /* \"#utility.yul\":5528:5530   */\n      0x40\n        /* \"#utility.yul\":5554:5607   */\n      tag_152\n        /* \"#utility.yul\":5599:5606   */\n      dup8\n        /* \"#utility.yul\":5590:5596   */\n      dup3\n        /* \"#utility.yul\":5579:5588   */\n      dup9\n        /* \"#utility.yul\":5575:5597   */\n      add\n        /* \"#utility.yul\":5554:5607   */\n      tag_60\n      jump\t// in\n    tag_152:\n        /* \"#utility.yul\":5544:5607   */\n      swap3\n      pop\n        /* \"#utility.yul\":5499:5617   */\n      pop\n        /* \"#utility.yul\":5656:5658   */\n      0x60\n        /* \"#utility.yul\":5682:5732   */\n      tag_153\n        /* \"#utility.yul\":5724:5731   */\n      dup8\n        /* \"#utility.yul\":5715:5721   */\n      dup3\n        /* \"#utility.yul\":5704:5713   */\n      dup9\n        /* \"#utility.yul\":5700:5722   */\n      add\n        /* \"#utility.yul\":5682:5732   */\n      tag_62\n      jump\t// in\n    tag_153:\n        /* \"#utility.yul\":5672:5732   */\n      swap2\n      pop\n        /* \"#utility.yul\":5627:5742   */\n      pop\n        /* \"#utility.yul\":4810:5749   */\n      swap3\n      swap6\n      swap2\n      swap5\n      pop\n      swap3\n      pop\n      jump\t// out\n        /* \"#utility.yul\":5755:5854   */\n    tag_63:\n        /* \"#utility.yul\":5807:5813   */\n      0x00\n        /* \"#utility.yul\":5841:5846   */\n      dup2\n        /* \"#utility.yul\":5835:5847   */\n      mload\n        /* \"#utility.yul\":5825:5847   */\n      swap1\n      pop\n        /* \"#utility.yul\":5755:5854   */\n      swap2\n      swap1\n      pop\n      jump\t// out\n        /* \"#utility.yul\":5860:6029   */\n    tag_64:\n        /* \"#utility.yul\":5944:5955   */\n      0x00\n        /* \"#utility.yul\":5978:5984   */\n      dup3\n        /* \"#utility.yul\":5973:5976   */\n      dup3\n        /* \"#utility.yul\":5966:5985   */\n      mstore\n        /* \"#utility.yul\":6018:6022   */\n      0x20\n        /* \"#utility.yul\":6013:6016   */\n      dup3\n        /* \"#utility.yul\":6009:6023   */\n      add\n        /* \"#utility.yul\":5994:6023   */\n      swap1\n      pop\n        /* \"#utility.yul\":5860:6029   */\n      swap3\n      swap2\n      pop\n      pop\n      jump\t// out\n        /* \"#utility.yul\":6035:6174   */\n    tag_65:\n        /* \"#utility.yul\":6124:6130   */\n      dup3\n        /* \"#utility.yul\":6119:6122   */\n      dup2\n        /* \"#utility.yul\":6114:6117   */\n      dup4\n        /* \"#utility.yul\":6108:6131   */\n      mcopy\n        /* \"#utility.yul\":6165:6166   */\n      0x00\n        /* \"#utility.yul\":6156:6162   */\n      dup4\n        /* \"#utility.yul\":6151:6154   */\n      dup4\n        /* \"#utility.yul\":6147:6163   */\n      add\n        /* \"#utility.yul\":6140:6167   */\n      mstore\n        /* \"#utility.yul\":6035:6174   */\n      pop\n      pop\n      pop\n      jump\t// out\n        /* \"#utility.yul\":6180:6557   */\n    tag_66:\n        /* \"#utility.yul\":6268:6271   */\n      0x00\n        /* \"#utility.yul\":6296:6335   */\n      tag_158\n        /* \"#utility.yul\":6329:6334   */\n      dup3\n        /* \"#utility.yul\":6296:6335   */\n      tag_63\n      jump\t// in\n    tag_158:\n        /* \"#utility.yul\":6351:6422   */\n      tag_159\n        /* \"#utility.yul\":6415:6421   */\n      dup2\n        /* \"#utility.yul\":6410:6413   */\n      dup6\n        /* \"#utility.yul\":6351:6422   */\n      tag_64\n      jump\t// in\n    tag_159:\n        /* \"#utility.yul\":6344:6422   */\n      swap4\n      pop\n        /* \"#utility.yul\":6431:6496   */\n      tag_160\n        /* \"#utility.yul\":6489:6495   */\n      dup2\n        /* \"#utility.yul\":6484:6487   */\n      dup6\n        /* \"#utility.yul\":6477:6481   */\n      0x20\n        /* \"#utility.yul\":6470:6475   */\n      dup7\n        /* \"#utility.yul\":6466:6482   */\n      add\n        /* \"#utility.yul\":6431:6496   */\n      tag_65\n      jump\t// in\n    tag_160:\n        /* \"#utility.yul\":6521:6550   */\n      tag_161\n        /* \"#utility.yul\":6543:6549   */\n      dup2\n        /* \"#utility.yul\":6521:6550   */\n      tag_51\n      jump\t// in\n    tag_161:\n        /* \"#utility.yul\":6516:6519   */\n      dup5\n        /* \"#utility.yul\":6512:6551   */\n      add\n        /* \"#utility.yul\":6505:6551   */\n      swap2\n      pop\n        /* \"#utility.yul\":6272:6557   */\n      pop\n        /* \"#utility.yul\":6180:6557   */\n      swap3\n      swap2\n      pop\n      pop\n      jump\t// out\n        /* \"#utility.yul\":6563:6876   */\n    tag_27:\n        /* \"#utility.yul\":6676:6680   */\n      0x00\n        /* \"#utility.yul\":6714:6716   */\n      0x20\n        /* \"#utility.yul\":6703:6712   */\n      dup3\n        /* \"#utility.yul\":6699:6717   */\n      add\n        /* \"#utility.yul\":6691:6717   */\n      swap1\n      pop\n        /* \"#utility.yul\":6763:6772   */\n      dup2\n        /* \"#utility.yul\":6757:6761   */\n      dup2\n        /* \"#utility.yul\":6753:6773   */\n      sub\n        /* \"#utility.yul\":6749:6750   */\n      0x00\n        /* \"#utility.yul\":6738:6747   */\n      dup4\n        /* \"#utility.yul\":6734:6751   */\n      add\n        /* \"#utility.yul\":6727:6774   */\n      mstore\n        /* \"#utility.yul\":6791:6869   */\n      tag_163\n        /* \"#utility.yul\":6864:6868   */\n      dup2\n        /* \"#utility.yul\":6855:6861   */\n      dup5\n        /* \"#utility.yul\":6791:6869   */\n      tag_66\n      jump\t// in\n    tag_163:\n        /* \"#utility.yul\":6783:6869   */\n      swap1\n      pop\n        /* \"#utility.yul\":6563:6876   */\n      swap3\n      swap2\n      pop\n      pop\n      jump\t// out\n        /* \"#utility.yul\":6882:7062   */\n    tag_67:\n        /* \"#utility.yul\":6930:7007   */\n      0x4e487b7100000000000000000000000000000000000000000000000000000000\n        /* \"#utility.yul\":6927:6928   */\n      0x00\n        /* \"#utility.yul\":6920:7008   */\n      mstore\n        /* \"#utility.yul\":7027:7031   */\n      0x22\n        /* \"#utility.yul\":7024:7025   */\n      0x04\n        /* \"#utility.yul\":7017:7032   */\n      mstore\n        /* \"#utility.yul\":7051:7055   */\n      0x24\n        /* \"#utility.yul\":7048:7049   */\n      0x00\n        /* \"#utility.yul\":7041:7056   */\n      revert\n        /* \"#utility.yul\":7068:7388   */\n    tag_32:\n        /* \"#utility.yul\":7112:7118   */\n      0x00\n        /* \"#utility.yul\":7149:7150   */\n      0x02\n        /* \"#utility.yul\":7143:7147   */\n      dup3\n        /* \"#utility.yul\":7139:7151   */\n      div\n        /* \"#utility.yul\":7129:7151   */\n      swap1\n      pop\n        /* \"#utility.yul\":7196:7197   */\n      0x01\n        /* \"#utility.yul\":7190:7194   */\n      dup3\n        /* \"#utility.yul\":7186:7198   */\n      and\n        /* \"#utility.yul\":7217:7235   */\n      dup1\n        /* \"#utility.yul\":7207:7288   */\n      tag_166\n      jumpi\n        /* \"#utility.yul\":7273:7277   */\n      0x7f\n        /* \"#utility.yul\":7265:7271   */\n      dup3\n        /* \"#utility.yul\":7261:7278   */\n      and\n        /* \"#utility.yul\":7251:7278   */\n      swap2\n      pop\n        /* \"#utility.yul\":7207:7288   */\n    tag_166:\n        /* \"#utility.yul\":7335:7337   */\n      0x20\n        /* \"#utility.yul\":7327:7333   */\n      dup3\n        /* \"#utility.yul\":7324:7338   */\n      lt\n        /* \"#utility.yul\":7304:7322   */\n      dup2\n        /* \"#utility.yul\":7301:7339   */\n      sub\n        /* \"#utility.yul\":7298:7382   */\n      tag_167\n      jumpi\n        /* \"#utility.yul\":7354:7372   */\n      tag_168\n      tag_67\n      jump\t// in\n    tag_168:\n        /* \"#utility.yul\":7298:7382   */\n    tag_167:\n        /* \"#utility.yul\":7119:7388   */\n      pop\n        /* \"#utility.yul\":7068:7388   */\n      swap2\n      swap1\n      pop\n      jump\t// out\n        /* \"#utility.yul\":7394:7535   */\n    tag_68:\n        /* \"#utility.yul\":7443:7447   */\n      0x00\n        /* \"#utility.yul\":7466:7469   */\n      dup2\n        /* \"#utility.yul\":7458:7469   */\n      swap1\n      pop\n        /* \"#utility.yul\":7489:7492   */\n      dup2\n        /* \"#utility.yul\":7486:7487   */\n      0x00\n        /* \"#utility.yul\":7479:7493   */\n      mstore\n        /* \"#utility.yul\":7523:7527   */\n      0x20\n        /* \"#utility.yul\":7520:7521   */\n      0x00\n        /* \"#utility.yul\":7510:7528   */\n      keccak256\n        /* \"#utility.yul\":7502:7528   */\n      swap1\n      pop\n        /* \"#utility.yul\":7394:7535   */\n      swap2\n      swap1\n      pop\n      jump\t// out\n        /* \"#utility.yul\":7541:7634   */\n    tag_69:\n        /* \"#utility.yul\":7578:7584   */\n      0x00\n        /* \"#utility.yul\":7625:7627   */\n      0x20\n        /* \"#utility.yul\":7620:7622   */\n      0x1f\n        /* \"#utility.yul\":7613:7618   */\n      dup4\n        /* \"#utility.yul\":7609:7623   */\n      add\n        /* \"#utility.yul\":7605:7628   */\n      div\n        /* \"#utility.yul\":7595:7628   */\n      swap1\n      pop\n        /* \"#utility.yul\":7541:7634   */\n      swap2\n      swap1\n      pop\n      jump\t// out\n        /* \"#utility.yul\":7640:7747   */\n    tag_70:\n        /* \"#utility.yul\":7684:7692   */\n      0x00\n        /* \"#utility.yul\":7734:7739   */\n      dup3\n        /* \"#utility.yul\":7728:7732   */\n      dup3\n        /* \"#utility.yul\":7724:7740   */\n      shl\n        /* \"#utility.yul\":7703:7740   */\n      swap1\n      pop\n        /* \"#utility.yul\":7640:7747   */\n      swap3\n      swap2\n      pop\n      pop\n      jump\t// out\n        /* \"#utility.yul\":7753:8146   */\n    tag_71:\n        /* \"#utility.yul\":7822:7828   */\n      0x00\n        /* \"#utility.yul\":7872:7873   */\n      0x08\n        /* \"#utility.yul\":7860:7870   */\n      dup4\n        /* \"#utility.yul\":7856:7874   */\n      mul\n        /* \"#utility.yul\":7895:7992   */\n      tag_173\n        /* \"#utility.yul\":7925:7991   */\n      0xffffffffffffffffffffffffffffffffffffffffffffffffffffffffffffffff\n        /* \"#utility.yul\":7914:7923   */\n      dup3\n        /* \"#utility.yul\":7895:7992   */\n      tag_70\n      jump\t// in\n    tag_173:\n        /* \"#utility.yul\":8013:8052   */\n      tag_174\n        /* \"#utility.yul\":8043:8051   */\n      dup7\n        /* \"#utility.yul\":8032:8041   */\n      dup4\n        /* \"#utility.yul\":8013:8052   */\n      tag_70\n      jump\t// in\n    tag_174:\n        /* \"#utility.yul\":8001:8052   */\n      swap6\n      pop\n        /* \"#utility.yul\":8085:8089   */\n      dup1\n        /* \"#utility.yul\":8081:8090   */\n      not\n        /* \"#utility.yul\":8074:8079   */\n      dup5\n        /* \"#utility.yul\":8070:8091   */\n      and\n        /* \"#utility.yul\":8061:8091   */\n      swap4\n      pop\n        /* \"#utility.yul\":8134:8138   */\n      dup1\n        /* \"#utility.yul\":8124:8132   */\n      dup7\n        /* \"#utility.yul\":8120:8139   */\n      and\n        /* \"#utility.yul\":8113:8118   */\n      dup5\n        /* \"#utility.yul\":8110:8140   */\n      or\n        /* \"#utility.yul\":8100:8140   */\n      swap3\n      pop\n        /* \"#utility.yul\":7829:8146   */\n      pop\n      pop\n        /* \"#utility.yul\":7753:8146   */\n      swap4\n      swap3\n      pop\n      pop\n      pop\n      jump\t// out\n        /* \"#utility.yul\":8152:8212   */\n    tag_72:\n        /* \"#utility.yul\":8180:8183   */\n      0x00\n        /* \"#utility.yul\":8201:8206   */\n      dup2\n        /* \"#utility.yul\":8194:8206   */\n      swap1\n      pop\n        /* \"#utility.yul\":8152:8212   */\n      swap2\n      swap1\n      pop\n      jump\t// out\n        /* \"#utility.yul\":8218:8360   */\n    tag_73:\n        /* \"#utility.yul\":8268:8277   */\n      0x00\n        /* \"#utility.yul\":8301:8354   */\n      tag_177\n        /* \"#utility.yul\":8319:8353   */\n      tag_178\n        /* \"#utility.yul\":8328:8352   */\n      tag_179\n        /* \"#utility.yul\":8346:8351   */\n      dup5\n        /* \"#utility.yul\":8328:8352   */\n      tag_37\n      jump\t// in\n    tag_179:\n        /* \"#utility.yul\":8319:8353   */\n      tag_72\n      jump\t// in\n    tag_178:\n        /* \"#utility.yul\":8301:8354   */\n      tag_37\n      jump\t// in\n    tag_177:\n        /* \"#utility.yul\":8288:8354   */\n      swap1\n      pop\n        /* \"#utility.yul\":8218:8360   */\n      swap2\n      swap1\n      pop\n      jump\t// out\n        /* \"#utility.yul\":8366:8441   */\n    tag_74:\n        /* \"#utility.yul\":8409:8412   */\n      0x00\n        /* \"#utility.yul\":8430:8435   */\n      dup2\n        /* \"#utility.yul\":8423:8435   */\n      swap1\n      pop\n        /* \"#utility.yul\":8366:8441   */\n      swap2\n      swap1\n      pop\n      jump\t// out\n        /* \"#utility.yul\":8447:8716   */\n    tag_75:\n        /* \"#utility.yul\":8557:8596   */\n      tag_182\n        /* \"#utility.yul\":8588:8595   */\n      dup4\n        /* \"#utility.yul\":8557:8596   */\n      tag_73\n      jump\t// in\n    tag_182:\n        /* \"#utility.yul\":8618:8709   */\n      tag_183\n        /* \"#utility.yul\":8667:8708   */\n      tag_184\n        /* \"#utility.yul\":8691:8707   */\n      dup3\n        /* \"#utility.yul\":8667:8708   */\n      tag_74\n      jump\t// in\n    tag_184:\n        /* \"#utility.yul\":8659:8665   */\n      dup5\n        /* \"#utility.yul\":8652:8656   */\n      dup5\n        /* \"#utility.yul\":8646:8657   */\n      sload\n        /* \"#utility.yul\":8618:8709   */\n      tag_71\n      jump\t// in\n    tag_183:\n        /* \"#utility.yul\":8612:8616   */\n      dup3\n        /* \"#utility.yul\":8605:8710   */\n      sstore\n        /* \"#utility.yul\":8523:8716   */\n      pop\n        /* \"#utility.yul\":8447:8716   */\n      pop\n      pop\n      pop\n      jump\t// out\n        /* \"#utility.yul\":8722:8795   */\n    tag_76:\n        /* \"#utility.yul\":8767:8770   */\n      0x00\n        /* \"#utility.yul\":8722:8795   */\n      swap1\n      jump\t// out\n        /* \"#utility.yul\":8801:8990   */\n    tag_77:\n        /* \"#utility.yul\":8878:8910   */\n      tag_187\n      tag_76\n      jump\t// in\n    tag_187:\n        /* \"#utility.yul\":8919:8984   */\n      tag_188\n        /* \"#utility.yul\":8977:8983   */\n      dup2\n        /* \"#utility.yul\":8969:8975   */\n      dup5\n        /* \"#utility.yul\":8963:8967   */\n      dup5\n        /* \"#utility.yul\":8919:8984   */\n      tag_75\n      jump\t// in\n    tag_188:\n        /* \"#utility.yul\":8854:8990   */\n      pop\n        /* \"#utility.yul\":8801:8990   */\n      pop\n      pop\n      jump\t// out\n        /* \"#utility.yul\":8996:9182   */\n    tag_78:\n        /* \"#utility.yul\":9056:9176   */\n    tag_190:\n        /* \"#utility.yul\":9073:9076   */\n      dup2\n        /* \"#utility.yul\":9066:9071   */\n      dup2\n        /* \"#utility.yul\":9063:9077   */\n      lt\n        /* \"#utility.yul\":9056:9176   */\n      iszero\n      tag_192\n      jumpi\n        /* \"#utility.yul\":9127:9166   */\n      tag_193\n        /* \"#utility.yul\":9164:9165   */\n      0x00\n        /* \"#utility.yul\":9157:9162   */\n      dup3\n        /* \"#utility.yul\":9127:9166   */\n      tag_77\n      jump\t// in\n    tag_193:\n        /* \"#utility.yul\":9100:9101   */\n      0x01\n        /* \"#utility.yul\":9093:9098   */\n      dup2\n        /* \"#utility.yul\":9089:9102   */\n      add\n        /* \"#utility.yul\":9080:9102   */\n      swap1\n      pop\n        /* \"#utility.yul\":9056:9176   */\n      jump(tag_190)\n    tag_192:\n        /* \"#utility.yul\":8996:9182   */\n      pop\n      pop\n      jump\t// out\n        /* \"#utility.yul\":9188:9731   */\n    tag_79:\n        /* \"#utility.yul\":9289:9291   */\n      0x1f\n        /* \"#utility.yul\":9284:9287   */\n      dup3\n        /* \"#utility.yul\":9281:9292   */\n      gt\n        /* \"#utility.yul\":9278:9724   */\n      iszero\n      tag_195\n      jumpi\n        /* \"#utility.yul\":9323:9361   */\n      tag_196\n        /* \"#utility.yul\":9355:9360   */\n      dup2\n        /* \"#utility.yul\":9323:9361   */\n      tag_68\n      jump\t// in\n    tag_196:\n        /* \"#utility.yul\":9407:9436   */\n      tag_197\n        /* \"#utility.yul\":9425:9435   */\n      dup5\n        /* \"#utility.yul\":9407:9436   */\n      tag_69\n      jump\t// in\n    tag_197:\n        /* \"#utility.yul\":9397:9405   */\n      dup2\n        /* \"#utility.yul\":9393:9437   */\n      add\n        /* \"#utility.yul\":9590:9592   */\n      0x20\n        /* \"#utility.yul\":9578:9588   */\n      dup6\n        /* \"#utility.yul\":9575:9593   */\n      lt\n        /* \"#utility.yul\":9572:9621   */\n      iszero\n      tag_198\n      jumpi\n        /* \"#utility.yul\":9611:9619   */\n      dup2\n        /* \"#utility.yul\":9596:9619   */\n      swap1\n      pop\n        /* \"#utility.yul\":9572:9621   */\n    tag_198:\n        /* \"#utility.yul\":9634:9714   */\n      tag_199\n        /* \"#utility.yul\":9690:9712   */\n      tag_200\n        /* \"#utility.yul\":9708:9711   */\n      dup6\n        /* \"#utility.yul\":9690:9712   */\n      tag_69\n      jump\t// in\n    tag_200:\n        /* \"#utility.yul\":9680:9688   */\n      dup4\n        /* \"#utility.yul\":9676:9713   */\n      add\n        /* \"#utility.yul\":9663:9674   */\n      dup3\n        /* \"#utility.yul\":9634:9714   */\n      tag_78\n      jump\t// in\n    tag_199:\n        /* \"#utility.yul\":9293:9724   */\n      pop\n      pop\n        /* \"#utility.yul\":9278:9724   */\n    tag_195:\n        /* \"#utility.yul\":9188:9731   */\n      pop\n      pop\n      pop\n      jump\t// out\n        /* \"#utility.yul\":9737:9854   */\n    tag_80:\n        /* \"#utility.yul\":9791:9799   */\n      0x00\n        /* \"#utility.yul\":9841:9846   */\n      dup3\n        /* \"#utility.yul\":9835:9839   */\n      dup3\n        /* \"#utility.yul\":9831:9847   */\n      shr\n        /* \"#utility.yul\":9810:9847   */\n      swap1\n      pop\n        /* \"#utility.yul\":9737:9854   */\n      swap3\n      swap2\n      pop\n      pop\n      jump\t// out\n        /* \"#utility.yul\":9860:10029   */\n    tag_81:\n        /* \"#utility.yul\":9904:9910   */\n      0x00\n        /* \"#utility.yul\":9937:9988   */\n      tag_203\n        /* \"#utility.yul\":9985:9986   */\n      0x00\n        /* \"#utility.yul\":9981:9987   */\n      not\n        /* \"#utility.yul\":9973:9978   */\n      dup5\n        /* \"#utility.yul\":9970:9971   */\n      0x08\n        /* \"#utility.yul\":9966:9979   */\n      mul\n        /* \"#utility.yul\":9937:9988   */\n      tag_80\n      jump\t// in\n    tag_203:\n        /* \"#utility.yul\":9933:9989   */\n      not\n        /* \"#utility.yul\":10018:10022   */\n      dup1\n        /* \"#utility.yul\":10012:10016   */\n      dup4\n        /* \"#utility.yul\":10008:10023   */\n      and\n        /* \"#utility.yul\":9998:10023   */\n      swap2\n      pop\n        /* \"#utility.yul\":9911:10029   */\n      pop\n        /* \"#utility.yul\":9860:10029   */\n      swap3\n      swap2\n      pop\n      pop\n      jump\t// out\n        /* \"#utility.yul\":10034:10329   */\n    tag_82:\n        /* \"#utility.yul\":10110:10114   */\n      0x00\n        /* \"#utility.yul\":10256:10285   */\n      tag_205\n        /* \"#utility.yul\":10281:10284   */\n      dup4\n        /* \"#utility.yul\":10275:10279   */\n      dup4\n        /* \"#utility.yul\":10256:10285   */\n      tag_81\n      jump\t// in\n    tag_205:\n        /* \"#utility.yul\":10248:10285   */\n      swap2\n      pop\n        /* \"#utility.yul\":10318:10321   */\n      dup3\n        /* \"#utility.yul\":10315:10316   */\n      0x02\n        /* \"#utility.yul\":10311:10322   */\n      mul\n        /* \"#utility.yul\":10305:10309   */\n      dup3\n        /* \"#utility.yul\":10302:10323   */\n      or\n        /* \"#utility.yul\":10294:10323   */\n      swap1\n      pop\n        /* \"#utility.yul\":10034:10329   */\n      swap3\n      swap2\n      pop\n      pop\n      jump\t// out\n        /* \"#utility.yul\":10334:11729   */\n    tag_30:\n        /* \"#utility.yul\":10451:10488   */\n      tag_207\n        /* \"#utility.yul\":10484:10487   */\n      dup3\n        /* \"#utility.yul\":10451:10488   */\n      tag_63\n      jump\t// in\n    tag_207:\n        /* \"#utility.yul\":10553:10571   */\n      0xffffffffffffffff\n        /* \"#utility.yul\":10545:10551   */\n      dup2\n        /* \"#utility.yul\":10542:10572   */\n      gt\n        /* \"#utility.yul\":10539:10595   */\n      iszero\n      tag_208\n      jumpi\n        /* \"#utility.yul\":10575:10593   */\n      tag_209\n      tag_52\n      jump\t// in\n    tag_209:\n        /* \"#utility.yul\":10539:10595   */\n    tag_208:\n        /* \"#utility.yul\":10619:10657   */\n      tag_210\n        /* \"#utility.yul\":10651:10655   */\n      dup3\n        /* \"#utility.yul\":10645:10656   */\n      sload\n        /* \"#utility.yul\":10619:10657   */\n      tag_32\n      jump\t// in\n    tag_210:\n        /* \"#utility.yul\":10704:10771   */\n      tag_211\n        /* \"#utility.yul\":10764:10770   */\n      dup3\n        /* \"#utility.yul\":10756:10762   */\n      dup3\n        /* \"#utility.yul\":10750:10754   */\n      dup6\n        /* \"#utility.yul\":10704:10771   */\n      tag_79\n      jump\t// in\n    tag_211:\n        /* \"#utility.yul\":10798:10799   */\n      0x00\n        /* \"#utility.yul\":10822:10826   */\n      0x20\n        /* \"#utility.yul\":10809:10826   */\n      swap1\n      pop\n        /* \"#utility.yul\":10854:10856   */\n      0x1f\n        /* \"#utility.yul\":10846:10852   */\n      dup4\n        /* \"#utility.yul\":10843:10857   */\n      gt\n        /* \"#utility.yul\":10871:10872   */\n      0x01\n        /* \"#utility.yul\":10866:11484   */\n      dup2\n      eq\n      tag_213\n      jumpi\n        /* \"#utility.yul\":11528:11529   */\n      0x00\n        /* \"#utility.yul\":11545:11551   */\n      dup5\n        /* \"#utility.yul\":11542:11619   */\n      iszero\n      tag_214\n      jumpi\n        /* \"#utility.yul\":11594:11603   */\n      dup3\n        /* \"#utility.yul\":11589:11592   */\n      dup8\n        /* \"#utility.yul\":11585:11604   */\n      add\n        /* \"#utility.yul\":11579:11605   */\n      mload\n        /* \"#utility.yul\":11570:11605   */\n      swap1\n      pop\n        /* \"#utility.yul\":11542:11619   */\n    tag_214:\n        /* \"#utility.yul\":11645:11712   */\n      tag_215\n        /* \"#utility.yul\":11705:11711   */\n      dup6\n        /* \"#utility.yul\":11698:11703   */\n      dup3\n        /* \"#utility.yul\":11645:11712   */\n      tag_82\n      jump\t// in\n    tag_215:\n        /* \"#utility.yul\":11639:11643   */\n      dup7\n        /* \"#utility.yul\":11632:11713   */\n      sstore\n        /* \"#utility.yul\":11501:11723   */\n      pop\n        /* \"#utility.yul\":10836:11723   */\n      jump(tag_212)\n        /* \"#utility.yul\":10866:11484   */\n    tag_213:\n        /* \"#utility.yul\":10918:10922   */\n      0x1f\n        /* \"#utility.yul\":10914:10923   */\n      not\n        /* \"#utility.yul\":10906:10912   */\n      dup5\n        /* \"#utility.yul\":10902:10924   */\n      and\n        /* \"#utility.yul\":10952:10989   */\n      tag_216\n        /* \"#utility.yul\":10984:10988   */\n      dup7\n        /* \"#utility.yul\":10952:10989   */\n      tag_68\n      jump\t// in\n    tag_216:\n        /* \"#utility.yul\":11011:11012   */\n      0x00\n        /* \"#utility.yul\":11025:11233   */\n    tag_217:\n        /* \"#utility.yul\":11039:11046   */\n      dup3\n        /* \"#utility.yul\":11036:11037   */\n      dup2\n        /* \"#utility.yul\":11033:11047   */\n      lt\n        /* \"#utility.yul\":11025:11233   */\n      iszero\n      tag_219\n      jumpi\n        /* \"#utility.yul\":11118:11127   */\n      dup5\n        /* \"#utility.yul\":11113:11116   */\n      dup10\n        /* \"#utility.yul\":11109:11128   */\n      add\n        /* \"#utility.yul\":11103:11129   */\n      mload\n        /* \"#utility.yul\":11095:11101   */\n      dup3\n        /* \"#utility.yul\":11088:11130   */\n      sstore\n        /* \"#utility.yul\":11169:11170   */\n      0x01\n        /* \"#utility.yul\":11161:11167   */\n      dup3\n        /* \"#utility.yul\":11157:11171   */\n      add\n        /* \"#utility.yul\":11147:11171   */\n      swap2\n      pop\n        /* \"#utility.yul\":11216:11218   */\n      0x20\n        /* \"#utility.yul\":11205:11214   */\n      dup6\n        /* \"#utility.yul\":11201:11219   */\n      add\n        /* \"#utility.yul\":11188:11219   */\n      swap5\n      pop\n        /* \"#utility.yul\":11062:11066   */\n      0x20\n        /* \"#utility.yul\":11059:11060   */\n      dup2\n        /* \"#utility.yul\":11055:11067   */\n      add\n        /* \"#utility.yul\":11050:11067   */\n      swap1\n      pop\n        /* \"#utility.yul\":11025:11233   */\n      jump(tag_217)\n    tag_219:\n        /* \"#utility.yul\":11261:11267   */\n      dup7\n        /* \"#utility.yul\":11252:11259   */\n      dup4\n        /* \"#utility.yul\":11249:11268   */\n      lt\n        /* \"#utility.yul\":11246:11425   */\n      iszero\n      tag_220\n      jumpi\n        /* \"#utility.yul\":11319:11328   */\n      dup5\n        /* \"#utility.yul\":11314:11317   */\n      dup10\n        /* \"#utility.yul\":11310:11329   */\n      add\n        /* \"#utility.yul\":11304:11330   */\n      mload\n        /* \"#utility.yul\":11362:11410   */\n      tag_221\n        /* \"#utility.yul\":11404:11408   */\n      0x1f\n        /* \"#utility.yul\":11396:11402   */\n      dup10\n        /* \"#utility.yul\":11392:11409   */\n      and\n        /* \"#utility.yul\":11381:11390   */\n      dup3\n        /* \"#utility.yul\":11362:11410   */\n      tag_81\n      jump\t// in\n    tag_221:\n        /* \"#utility.yul\":11354:11360   */\n      dup4\n        /* \"#utility.yul\":11347:11411   */\n      sstore\n        /* \"#utility.yul\":11269:11425   */\n      pop\n        /* \"#utility.yul\":11246:11425   */\n    tag_220:\n        /* \"#utility.yul\":11471:11472   */\n      0x01\n        /* \"#utility.yul\":11467:11468   */\n      0x02\n        /* \"#utility.yul\":11459:11465   */\n      dup9\n        /* \"#utility.yul\":11455:11469   */\n      mul\n        /* \"#utility.yul\":11451:11473   */\n      add\n        /* \"#utility.yul\":11445:11449   */\n      dup9\n        /* \"#utility.yul\":11438:11474   */\n      sstore\n        /* \"#utility.yul\":10873:11484   */\n      pop\n      pop\n      pop\n        /* \"#utility.yul\":10836:11723   */\n    tag_212:\n      pop\n        /* \"#utility.yul\":10426:11729   */\n      pop\n      pop\n      pop\n        /* \"#utility.yul\":10334:11729   */\n      pop\n      pop\n      jump\t// out\n\n    auxdata: 0xa2646970667358221220bf2b8d9f4201663c83e7be47a2c6f6231278ac33b247206445a354589dbe942b64736f6c634300081a0033\n}\n",
				"bytecode": {
					"linkReferences": {},
					"object": "6080604052348015600e575f80fd5b506108b28061001c5f395ff3fe608060405234801561000f575f80fd5b5060043610610055575f3560e01c80630dbe671f146100595780631fe5d6e3146100775780634df7e3d014610095578063e1fabe02146100b3578063e21f37ce146100cf575b5f80fd5b6100616100ed565b60405161006e9190610244565b60405180910390f35b61007f6100f2565b60405161008c919061029c565b60405180910390f35b61009d610117565b6040516100aa91906102cf565b60405180910390f35b6100cd60048036038101906100c891906104b3565b61012a565b005b6100d76101a0565b6040516100e49190610593565b60405180910390f35b5f5481565b60025f9054906101000a900473ffffffffffffffffffffffffffffffffffffffff1681565b600260149054906101000a900460ff1681565b835f81905550826001908161013f91906107ad565b508160025f6101000a81548173ffffffffffffffffffffffffffffffffffffffff021916908373ffffffffffffffffffffffffffffffffffffffff16021790555080600260146101000a81548160ff02191690831515021790555050505050565b600180546101ad906105e0565b80601f01602080910402602001604051908101604052809291908181526020018280546101d9906105e0565b80156102245780601f106101fb57610100808354040283529160200191610224565b820191905f5260205f20905b81548152906001019060200180831161020757829003601f168201915b505050505081565b5f819050919050565b61023e8161022c565b82525050565b5f6020820190506102575f830184610235565b92915050565b5f73ffffffffffffffffffffffffffffffffffffffff82169050919050565b5f6102868261025d565b9050919050565b6102968161027c565b82525050565b5f6020820190506102af5f83018461028d565b92915050565b5f8115159050919050565b6102c9816102b5565b82525050565b5f6020820190506102e25f8301846102c0565b92915050565b5f604051905090565b5f80fd5b5f80fd5b6103028161022c565b811461030c575f80fd5b50565b5f8135905061031d816102f9565b92915050565b5f80fd5b5f80fd5b5f601f19601f8301169050919050565b7f4e487b71000000000000000000000000000000000000000000000000000000005f52604160045260245ffd5b6103718261032b565b810181811067ffffffffffffffff821117156103905761038f61033b565b5b80604052505050565b5f6103a26102e8565b90506103ae8282610368565b919050565b5f67ffffffffffffffff8211156103cd576103cc61033b565b5b6103d68261032b565b9050602081019050919050565b828183375f83830152505050565b5f6104036103fe846103b3565b610399565b90508281526020810184848401111561041f5761041e610327565b5b61042a8482856103e3565b509392505050565b5f82601f83011261044657610445610323565b5b81356104568482602086016103f1565b91505092915050565b6104688161027c565b8114610472575f80fd5b50565b5f813590506104838161045f565b92915050565b610492816102b5565b811461049c575f80fd5b50565b5f813590506104ad81610489565b92915050565b5f805f80608085870312156104cb576104ca6102f1565b5b5f6104d88782880161030f565b945050602085013567ffffffffffffffff8111156104f9576104f86102f5565b5b61050587828801610432565b935050604061051687828801610475565b92505060606105278782880161049f565b91505092959194509250565b5f81519050919050565b5f82825260208201905092915050565b8281835e5f83830152505050565b5f61056582610533565b61056f818561053d565b935061057f81856020860161054d565b6105888161032b565b840191505092915050565b5f6020820190508181035f8301526105ab818461055b565b905092915050565b7f4e487b71000000000000000000000000000000000000000000000000000000005f52602260045260245ffd5b5f60028204905060018216806105f757607f821691505b60208210810361060a576106096105b3565b5b50919050565b5f819050815f5260205f209050919050565b5f6020601f8301049050919050565b5f82821b905092915050565b5f6008830261066c7fffffffffffffffffffffffffffffffffffffffffffffffffffffffffffffffff82610631565b6106768683610631565b95508019841693508086168417925050509392505050565b5f819050919050565b5f6106b16106ac6106a78461022c565b61068e565b61022c565b9050919050565b5f819050919050565b6106ca83610697565b6106de6106d6826106b8565b84845461063d565b825550505050565b5f90565b6106f26106e6565b6106fd8184846106c1565b505050565b5b81811015610720576107155f826106ea565b600181019050610703565b5050565b601f8211156107655761073681610610565b61073f84610622565b8101602085101561074e578190505b61076261075a85610622565b830182610702565b50505b505050565b5f82821c905092915050565b5f6107855f198460080261076a565b1980831691505092915050565b5f61079d8383610776565b9150826002028217905092915050565b6107b682610533565b67ffffffffffffffff8111156107cf576107ce61033b565b5b6107d982546105e0565b6107e4828285610724565b5f60209050601f831160018114610815575f8415610803578287015190505b61080d8582610792565b865550610874565b601f19841661082386610610565b5f5b8281101561084a57848901518255600182019150602085019450602081019050610825565b868310156108675784890151610863601f891682610776565b8355505b6001600288020188555050505b50505050505056fea2646970667358221220bf2b8d9f4201663c83e7be47a2c6f6231278ac33b247206445a354589dbe942b64736f6c634300081a0033",
					"opcodes": "PUSH1 0x80 PUSH1 0x40 MSTORE CALLVALUE DUP1 ISZERO PUSH1 0xE JUMPI PUSH0 DUP1 REVERT JUMPDEST POP PUSH2 0x8B2 DUP1 PUSH2 0x1C PUSH0 CODECOPY PUSH0 RETURN INVALID PUSH1 0x80 PUSH1 0x40 MSTORE CALLVALUE DUP1 ISZERO PUSH2 0xF JUMPI PUSH0 DUP1 REVERT JUMPDEST POP PUSH1 0x4 CALLDATASIZE LT PUSH2 0x55 JUMPI PUSH0 CALLDATALOAD PUSH1 0xE0 SHR DUP1 PUSH4 0xDBE671F EQ PUSH2 0x59 JUMPI DUP1 PUSH4 0x1FE5D6E3 EQ PUSH2 0x77 JUMPI DUP1 PUSH4 0x4DF7E3D0 EQ PUSH2 0x95 JUMPI DUP1 PUSH4 0xE1FABE02 EQ PUSH2 0xB3 JUMPI DUP1 PUSH4 0xE21F37CE EQ PUSH2 0xCF JUMPI JUMPDEST PUSH0 DUP1 REVERT JUMPDEST PUSH2 0x61 PUSH2 0xED JUMP JUMPDEST PUSH1 0x40 MLOAD PUSH2 0x6E SWAP2 SWAP1 PUSH2 0x244 JUMP JUMPDEST PUSH1 0x40 MLOAD DUP1 SWAP2 SUB SWAP1 RETURN JUMPDEST PUSH2 0x7F PUSH2 0xF2 JUMP JUMPDEST PUSH1 0x40 MLOAD PUSH2 0x8C SWAP2 SWAP1 PUSH2 0x29C JUMP JUMPDEST PUSH1 0x40 MLOAD DUP1 SWAP2 SUB SWAP1 RETURN JUMPDEST PUSH2 0x9D PUSH2 0x117 JUMP JUMPDEST PUSH1 0x40 MLOAD PUSH2 0xAA SWAP2 SWAP1 PUSH2 0x2CF JUMP JUMPDEST PUSH1 0x40 MLOAD DUP1 SWAP2 SUB SWAP1 RETURN JUMPDEST PUSH2 0xCD PUSH1 0x4 DUP1 CALLDATASIZE SUB DUP2 ADD SWAP1 PUSH2 0xC8 SWAP2 SWAP1 PUSH2 0x4B3 JUMP JUMPDEST PUSH2 0x12A JUMP JUMPDEST STOP JUMPDEST PUSH2 0xD7 PUSH2 0x1A0 JUMP JUMPDEST PUSH1 0x40 MLOAD PUSH2 0xE4 SWAP2 SWAP1 PUSH2 0x593 JUMP JUMPDEST PUSH1 0x40 MLOAD DUP1 SWAP2 SUB SWAP1 RETURN JUMPDEST PUSH0 SLOAD DUP2 JUMP JUMPDEST PUSH1 0x2 PUSH0 SWAP1 SLOAD SWAP1 PUSH2 0x100 EXP SWAP1 DIV PUSH20 0xFFFFFFFFFFFFFFFFFFFFFFFFFFFFFFFFFFFFFFFF AND DUP2 JUMP JUMPDEST PUSH1 0x2 PUSH1 0x14 SWAP1 SLOAD SWAP1 PUSH2 0x100 EXP SWAP1 DIV PUSH1 0xFF AND DUP2 JUMP JUMPDEST DUP4 PUSH0 DUP2 SWAP1 SSTORE POP DUP3 PUSH1 0x1 SWAP1 DUP2 PUSH2 0x13F SWAP2 SWAP1 PUSH2 0x7AD JUMP JUMPDEST POP DUP2 PUSH1 0x2 PUSH0 PUSH2 0x100 EXP DUP2 SLOAD DUP2 PUSH20 0xFFFFFFFFFFFFFFFFFFFFFFFFFFFFFFFFFFFFFFFF MUL NOT AND SWAP1 DUP4 PUSH20 0xFFFFFFFFFFFFFFFFFFFFFFFFFFFFFFFFFFFFFFFF AND MUL OR SWAP1 SSTORE POP DUP1 PUSH1 0x2 PUSH1 0x14 PUSH2 0x100 EXP DUP2 SLOAD DUP2 PUSH1 0xFF MUL NOT AND SWAP1 DUP4 ISZERO ISZERO MUL OR SWAP1 SSTORE POP POP POP POP POP JUMP JUMPDEST PUSH1 0x1 DUP1 SLOAD PUSH2 0x1AD SWAP1 PUSH2 0x5E0 JUMP JUMPDEST DUP1 PUSH1 0x1F ADD PUSH1 0x20 DUP1 SWAP2 DIV MUL PUSH1 0x20 ADD PUSH1 0x40 MLOAD SWAP1 DUP2 ADD PUSH1 0x40 MSTORE DUP1 SWAP3 SWAP2 SWAP1 DUP2 DUP2 MSTORE PUSH1 0x20 ADD DUP3 DUP1 SLOAD PUSH2 0x1D9 SWAP1 PUSH2 0x5E0 JUMP JUMPDEST DUP1 ISZERO PUSH2 0x224 JUMPI DUP1 PUSH1 0x1F LT PUSH2 0x1FB JUMPI PUSH2 0x100 DUP1 DUP4 SLOAD DIV MUL DUP4 MSTORE SWAP2 PUSH1 0x20 ADD SWAP2 PUSH2 0x224 JUMP JUMPDEST DUP3 ADD SWAP2 SWAP1 PUSH0 MSTORE PUSH1 0x20 PUSH0 KECCAK256 SWAP1 JUMPDEST DUP2 SLOAD DUP2 MSTORE SWAP1 PUSH1 0x1 ADD SWAP1 PUSH1 0x20 ADD DUP1 DUP4 GT PUSH2 0x207 JUMPI DUP3 SWAP1 SUB PUSH1 0x1F AND DUP3 ADD SWAP2 JUMPDEST POP POP POP POP POP DUP2 JUMP JUMPDEST PUSH0 DUP2 SWAP1 POP SWAP2 SWAP1 POP JUMP JUMPDEST PUSH2 0x23E DUP2 PUSH2 0x22C JUMP JUMPDEST DUP3 MSTORE POP POP JUMP JUMPDEST PUSH0 PUSH1 0x20 DUP3 ADD SWAP1 POP PUSH2 0x257 PUSH0 DUP4 ADD DUP5 PUSH2 0x235 JUMP JUMPDEST SWAP3 SWAP2 POP POP JUMP JUMPDEST PUSH0 PUSH20 0xFFFFFFFFFFFFFFFFFFFFFFFFFFFFFFFFFFFFFFFF DUP3 AND SWAP1 POP SWAP2 SWAP1 POP JUMP JUMPDEST PUSH0 PUSH2 0x286 DUP3 PUSH2 0x25D JUMP JUMPDEST SWAP1 POP SWAP2 SWAP1 POP JUMP JUMPDEST PUSH2 0x296 DUP2 PUSH2 0x27C JUMP JUMPDEST DUP3 MSTORE POP POP JUMP JUMPDEST PUSH0 PUSH1 0x20 DUP3 ADD SWAP1 POP PUSH2 0x2AF PUSH0 DUP4 ADD DUP5 PUSH2 0x28D JUMP JUMPDEST SWAP3 SWAP2 POP POP JUMP JUMPDEST PUSH0 DUP2 ISZERO ISZERO SWAP1 POP SWAP2 SWAP1 POP JUMP JUMPDEST PUSH2 0x2C9 DUP2 PUSH2 0x2B5 JUMP JUMPDEST DUP3 MSTORE POP POP JUMP JUMPDEST PUSH0 PUSH1 0x20 DUP3 ADD SWAP1 POP PUSH2 0x2E2 PUSH0 DUP4 ADD DUP5 PUSH2 0x2C0 JUMP JUMPDEST SWAP3 SWAP2 POP POP JUMP JUMPDEST PUSH0 PUSH1 0x40 MLOAD SWAP1 POP SWAP1 JUMP JUMPDEST PUSH0 DUP1 REVERT JUMPDEST PUSH0 DUP1 REVERT JUMPDEST PUSH2 0x302 DUP2 PUSH2 0x22C JUMP JUMPDEST DUP2 EQ PUSH2 0x30C JUMPI PUSH0 DUP1 REVERT JUMPDEST POP JUMP JUMPDEST PUSH0 DUP2 CALLDATALOAD SWAP1 POP PUSH2 0x31D DUP2 PUSH2 0x2F9 JUMP JUMPDEST SWAP3 SWAP2 POP POP JUMP JUMPDEST PUSH0 DUP1 REVERT JUMPDEST PUSH0 DUP1 REVERT JUMPDEST PUSH0 PUSH1 0x1F NOT PUSH1 0x1F DUP4 ADD AND SWAP1 POP SWAP2 SWAP1 POP JUMP JUMPDEST PUSH32 0x4E487B7100000000000000000000000000000000000000000000000000000000 PUSH0 MSTORE PUSH1 0x41 PUSH1 0x4 MSTORE PUSH1 0x24 PUSH0 REVERT JUMPDEST PUSH2 0x371 DUP3 PUSH2 0x32B JUMP JUMPDEST DUP2 ADD DUP2 DUP2 LT PUSH8 0xFFFFFFFFFFFFFFFF DUP3 GT OR ISZERO PUSH2 0x390 JUMPI PUSH2 0x38F PUSH2 0x33B JUMP JUMPDEST JUMPDEST DUP1 PUSH1 0x40 MSTORE POP POP POP JUMP JUMPDEST PUSH0 PUSH2 0x3A2 PUSH2 0x2E8 JUMP JUMPDEST SWAP1 POP PUSH2 0x3AE DUP3 DUP3 PUSH2 0x368 JUMP JUMPDEST SWAP2 SWAP1 POP JUMP JUMPDEST PUSH0 PUSH8 0xFFFFFFFFFFFFFFFF DUP3 GT ISZERO PUSH2 0x3CD JUMPI PUSH2 0x3CC PUSH2 0x33B JUMP JUMPDEST JUMPDEST PUSH2 0x3D6 DUP3 PUSH2 0x32B JUMP JUMPDEST SWAP1 POP PUSH1 0x20 DUP2 ADD SWAP1 POP SWAP2 SWAP1 POP JUMP JUMPDEST DUP3 DUP2 DUP4 CALLDATACOPY PUSH0 DUP4 DUP4 ADD MSTORE POP POP POP JUMP JUMPDEST PUSH0 PUSH2 0x403 PUSH2 0x3FE DUP5 PUSH2 0x3B3 JUMP JUMPDEST PUSH2 0x399 JUMP JUMPDEST SWAP1 POP DUP3 DUP2 MSTORE PUSH1 0x20 DUP2 ADD DUP5 DUP5 DUP5 ADD GT ISZERO PUSH2 0x41F JUMPI PUSH2 0x41E PUSH2 0x327 JUMP JUMPDEST JUMPDEST PUSH2 0x42A DUP5 DUP3 DUP6 PUSH2 0x3E3 JUMP JUMPDEST POP SWAP4 SWAP3 POP POP POP JUMP JUMPDEST PUSH0 DUP3 PUSH1 0x1F DUP4 ADD SLT PUSH2 0x446 JUMPI PUSH2 0x445 PUSH2 0x323 JUMP JUMPDEST JUMPDEST DUP2 CALLDATALOAD PUSH2 0x456 DUP5 DUP3 PUSH1 0x20 DUP7 ADD PUSH2 0x3F1 JUMP JUMPDEST SWAP2 POP POP SWAP3 SWAP2 POP POP JUMP JUMPDEST PUSH2 0x468 DUP2 PUSH2 0x27C JUMP JUMPDEST DUP2 EQ PUSH2 0x472 JUMPI PUSH0 DUP1 REVERT JUMPDEST POP JUMP JUMPDEST PUSH0 DUP2 CALLDATALOAD SWAP1 POP PUSH2 0x483 DUP2 PUSH2 0x45F JUMP JUMPDEST SWAP3 SWAP2 POP POP JUMP JUMPDEST PUSH2 0x492 DUP2 PUSH2 0x2B5 JUMP JUMPDEST DUP2 EQ PUSH2 0x49C JUMPI PUSH0 DUP1 REVERT JUMPDEST POP JUMP JUMPDEST PUSH0 DUP2 CALLDATALOAD SWAP1 POP PUSH2 0x4AD DUP2 PUSH2 0x489 JUMP JUMPDEST SWAP3 SWAP2 POP POP JUMP JUMPDEST PUSH0 DUP1 PUSH0 DUP1 PUSH1 0x80 DUP6 DUP8 SUB SLT ISZERO PUSH2 0x4CB JUMPI PUSH2 0x4CA PUSH2 0x2F1 JUMP JUMPDEST JUMPDEST PUSH0 PUSH2 0x4D8 DUP8 DUP3 DUP9 ADD PUSH2 0x30F JUMP JUMPDEST SWAP5 POP POP PUSH1 0x20 DUP6 ADD CALLDATALOAD PUSH8 0xFFFFFFFFFFFFFFFF DUP2 GT ISZERO PUSH2 0x4F9 JUMPI PUSH2 0x4F8 PUSH2 0x2F5 JUMP JUMPDEST JUMPDEST PUSH2 0x505 DUP8 DUP3 DUP9 ADD PUSH2 0x432 JUMP JUMPDEST SWAP4 POP POP PUSH1 0x40 PUSH2 0x516 DUP8 DUP3 DUP9 ADD PUSH2 0x475 JUMP JUMPDEST SWAP3 POP POP PUSH1 0x60 PUSH2 0x527 DUP8 DUP3 DUP9 ADD PUSH2 0x49F JUMP JUMPDEST SWAP2 POP POP SWAP3 SWAP6 SWAP2 SWAP5 POP SWAP3 POP JUMP JUMPDEST PUSH0 DUP2 MLOAD SWAP1 POP SWAP2 SWAP1 POP JUMP JUMPDEST PUSH0 DUP3 DUP3 MSTORE PUSH1 0x20 DUP3 ADD SWAP1 POP SWAP3 SWAP2 POP POP JUMP JUMPDEST DUP3 DUP2 DUP4 MCOPY PUSH0 DUP4 DUP4 ADD MSTORE POP POP POP JUMP JUMPDEST PUSH0 PUSH2 0x565 DUP3 PUSH2 0x533 JUMP JUMPDEST PUSH2 0x56F DUP2 DUP6 PUSH2 0x53D JUMP JUMPDEST SWAP4 POP PUSH2 0x57F DUP2 DUP6 PUSH1 0x20 DUP7 ADD PUSH2 0x54D JUMP JUMPDEST PUSH2 0x588 DUP2 PUSH2 0x32B JUMP JUMPDEST DUP5 ADD SWAP2 POP POP SWAP3 SWAP2 POP POP JUMP JUMPDEST PUSH0 PUSH1 0x20 DUP3 ADD SWAP1 POP DUP2 DUP2 SUB PUSH0 DUP4 ADD MSTORE PUSH2 0x5AB DUP2 DUP5 PUSH2 0x55B JUMP JUMPDEST SWAP1 POP SWAP3 SWAP2 POP POP JUMP JUMPDEST PUSH32 0x4E487B7100000000000000000000000000000000000000000000000000000000 PUSH0 MSTORE PUSH1 0x22 PUSH1 0x4 MSTORE PUSH1 0x24 PUSH0 REVERT JUMPDEST PUSH0 PUSH1 0x2 DUP3 DIV SWAP1 POP PUSH1 0x1 DUP3 AND DUP1 PUSH2 0x5F7 JUMPI PUSH1 0x7F DUP3 AND SWAP2 POP JUMPDEST PUSH1 0x20 DUP3 LT DUP2 SUB PUSH2 0x60A JUMPI PUSH2 0x609 PUSH2 0x5B3 JUMP JUMPDEST JUMPDEST POP SWAP2 SWAP1 POP JUMP JUMPDEST PUSH0 DUP2 SWAP1 POP DUP2 PUSH0 MSTORE PUSH1 0x20 PUSH0 KECCAK256 SWAP1 POP SWAP2 SWAP1 POP JUMP JUMPDEST PUSH0 PUSH1 0x20 PUSH1 0x1F DUP4 ADD DIV SWAP1 POP SWAP2 SWAP1 POP JUMP JUMPDEST PUSH0 DUP3 DUP3 SHL SWAP1 POP SWAP3 SWAP2 POP POP JUMP JUMPDEST PUSH0 PUSH1 0x8 DUP4 MUL PUSH2 0x66C PUSH32 0xFFFFFFFFFFFFFFFFFFFFFFFFFFFFFFFFFFFFFFFFFFFFFFFFFFFFFFFFFFFFFFFF DUP3 PUSH2 0x631 JUMP JUMPDEST PUSH2 0x676 DUP7 DUP4 PUSH2 0x631 JUMP JUMPDEST SWAP6 POP DUP1 NOT DUP5 AND SWAP4 POP DUP1 DUP7 AND DUP5 OR SWAP3 POP POP POP SWAP4 SWAP3 POP POP POP JUMP JUMPDEST PUSH0 DUP2 SWAP1 POP SWAP2 SWAP1 POP JUMP JUMPDEST PUSH0 PUSH2 0x6B1 PUSH2 0x6AC PUSH2 0x6A7 DUP5 PUSH2 0x22C JUMP JUMPDEST PUSH2 0x68E JUMP JUMPDEST PUSH2 0x22C JUMP JUMPDEST SWAP1 POP SWAP2 SWAP1 POP JUMP JUMPDEST PUSH0 DUP2 SWAP1 POP SWAP2 SWAP1 POP JUMP JUMPDEST PUSH2 0x6CA DUP4 PUSH2 0x697 JUMP JUMPDEST PUSH2 0x6DE PUSH2 0x6D6 DUP3 PUSH2 0x6B8 JUMP JUMPDEST DUP5 DUP5 SLOAD PUSH2 0x63D JUMP JUMPDEST DUP3 SSTORE POP POP POP POP JUMP JUMPDEST PUSH0 SWAP1 JUMP JUMPDEST PUSH2 0x6F2 PUSH2 0x6E6 JUMP JUMPDEST PUSH2 0x6FD DUP2 DUP5 DUP5 PUSH2 0x6C1 JUMP JUMPDEST POP POP POP JUMP JUMPDEST JUMPDEST DUP2 DUP2 LT ISZERO PUSH2 0x720 JUMPI PUSH2 0x715 PUSH0 DUP3 PUSH2 0x6EA JUMP JUMPDEST PUSH1 0x1 DUP2 ADD SWAP1 POP PUSH2 0x703 JUMP JUMPDEST POP POP JUMP JUMPDEST PUSH1 0x1F DUP3 GT ISZERO PUSH2 0x765 JUMPI PUSH2 0x736 DUP2 PUSH2 0x610 JUMP JUMPDEST PUSH2 0x73F DUP5 PUSH2 0x622 JUMP JUMPDEST DUP2 ADD PUSH1 0x20 DUP6 LT ISZERO PUSH2 0x74E JUMPI DUP2 SWAP1 POP JUMPDEST PUSH2 0x762 PUSH2 0x75A DUP6 PUSH2 0x622 JUMP JUMPDEST DUP4 ADD DUP3 PUSH2 0x702 JUMP JUMPDEST POP POP JUMPDEST POP POP POP JUMP JUMPDEST PUSH0 DUP3 DUP3 SHR SWAP1 POP SWAP3 SWAP2 POP POP JUMP JUMPDEST PUSH0 PUSH2 0x785 PUSH0 NOT DUP5 PUSH1 0x8 MUL PUSH2 0x76A JUMP JUMPDEST NOT DUP1 DUP4 AND SWAP2 POP POP SWAP3 SWAP2 POP POP JUMP JUMPDEST PUSH0 PUSH2 0x79D DUP4 DUP4 PUSH2 0x776 JUMP JUMPDEST SWAP2 POP DUP3 PUSH1 0x2 MUL DUP3 OR SWAP1 POP SWAP3 SWAP2 POP POP JUMP JUMPDEST PUSH2 0x7B6 DUP3 PUSH2 0x533 JUMP JUMPDEST PUSH8 0xFFFFFFFFFFFFFFFF DUP2 GT ISZERO PUSH2 0x7CF JUMPI PUSH2 0x7CE PUSH2 0x33B JUMP JUMPDEST JUMPDEST PUSH2 0x7D9 DUP3 SLOAD PUSH2 0x5E0 JUMP JUMPDEST PUSH2 0x7E4 DUP3 DUP3 DUP6 PUSH2 0x724 JUMP JUMPDEST PUSH0 PUSH1 0x20 SWAP1 POP PUSH1 0x1F DUP4 GT PUSH1 0x1 DUP2 EQ PUSH2 0x815 JUMPI PUSH0 DUP5 ISZERO PUSH2 0x803 JUMPI DUP3 DUP8 ADD MLOAD SWAP1 POP JUMPDEST PUSH2 0x80D DUP6 DUP3 PUSH2 0x792 JUMP JUMPDEST DUP7 SSTORE POP PUSH2 0x874 JUMP JUMPDEST PUSH1 0x1F NOT DUP5 AND PUSH2 0x823 DUP7 PUSH2 0x610 JUMP JUMPDEST PUSH0 JUMPDEST DUP3 DUP2 LT ISZERO PUSH2 0x84A JUMPI DUP5 DUP10 ADD MLOAD DUP3 SSTORE PUSH1 0x1 DUP3 ADD SWAP2 POP PUSH1 0x20 DUP6 ADD SWAP5 POP PUSH1 0x20 DUP2 ADD SWAP1 POP PUSH2 0x825 JUMP JUMPDEST DUP7 DUP4 LT ISZERO PUSH2 0x867 JUMPI DUP5 DUP10 ADD MLOAD PUSH2 0x863 PUSH1 0x1F DUP10 AND DUP3 PUSH2 0x776 JUMP JUMPDEST DUP4 SSTORE POP JUMPDEST PUSH1 0x1 PUSH1 0x2 DUP9 MUL ADD DUP9 SSTORE POP POP POP JUMPDEST POP POP POP POP POP POP JUMP INVALID LOG2 PUSH5 0x6970667358 0x22 SLT KECCAK256 0xBF 0x2B DUP14 SWAP16 TIMESTAMP ADD PUSH7 0x3C83E7BE47A2C6 0xF6 0x23 SLT PUSH25 0xAC33B247206445A354589DBE942B64736F6C634300081A0033 "
				},
				"gasEstimates": {
					"creation": {
						"codeDepositCost": "445200",
						"executionCost": "478",
						"totalCost": "445678"
					},
					"external": {
						"a()": "2402",
						"ab()": "2508",
						"b()": "2539",
						"message()": "infinite",
						"setValues(uint256,string,address,bool)": "infinite"
					}
				},
				"methodIdentifiers": {
					"a()": "0dbe671f",
					"ab()": "1fe5d6e3",
					"b()": "4df7e3d0",
					"message()": "e21f37ce",
					"setValues(uint256,string,address,bool)": "e1fabe02"
				}
			},
			"storageLayout": {
				"storage": [
					{
						"astId": 3,
						"contract": "Assignments/program-3.sol:ValueStorage",
						"label": "a",
						"offset": 0,
						"slot": "0",
						"type": "t_uint256"
					},
					{
						"astId": 5,
						"contract": "Assignments/program-3.sol:ValueStorage",
						"label": "message",
						"offset": 0,
						"slot": "1",
						"type": "t_string_storage"
					},
					{
						"astId": 7,
						"contract": "Assignments/program-3.sol:ValueStorage",
						"label": "ab",
						"offset": 0,
						"slot": "2",
						"type": "t_address"
					},
					{
						"astId": 9,
						"contract": "Assignments/program-3.sol:ValueStorage",
						"label": "b",
						"offset": 20,
						"slot": "2",
						"type": "t_bool"
					}
				],
				"types": {
					"t_address": {
						"encoding": "inplace",
						"label": "address",
						"numberOfBytes": "20"
					},
					"t_bool": {
						"encoding": "inplace",
						"label": "bool",
						"numberOfBytes": "1"
					},
					"t_string_storage": {
						"encoding": "bytes",
						"label": "string",
						"numberOfBytes": "32"
					},
					"t_uint256": {
						"encoding": "inplace",
						"label": "uint256",
						"numberOfBytes": "32"
					}
				}
			},
			"userdoc": {
				"kind": "user",
				"methods": {},
				"version": 1
			}
		}
	}
}