{
	"Assignments/program-14.sol": {
		"StringArray": {
			"abi": [
				{
					"inputs": [
						{
							"internalType": "string",
							"name": "_name",
							"type": "string"
						}
					],
					"name": "addName",
					"outputs": [],
					"stateMutability": "nonpayable",
					"type": "function"
				},
				{
					"inputs": [
						{
							"internalType": "uint256",
							"name": "",
							"type": "uint256"
						}
					],
					"name": "arr",
					"outputs": [
						{
							"internalType": "string",
							"name": "",
							"type": "string"
						}
					],
					"stateMutability": "view",
					"type": "function"
				},
				{
					"inputs": [
						{
							"internalType": "uint256",
							"name": "_index",
							"type": "uint256"
						}
					],
					"name": "getName",
					"outputs": [
						{
							"internalType": "string",
							"name": "",
							"type": "string"
						}
					],
					"stateMutability": "view",
					"type": "function"
				},
				{
					"inputs": [],
					"name": "getNamesCount",
					"outputs": [
						{
							"internalType": "uint256",
							"name": "",
							"type": "uint256"
						}
					],
					"stateMutability": "view",
					"type": "function"
				}
			],
			"devdoc": {
				"kind": "dev",
				"methods": {},
				"version": 1
			},
			"evm": {
				"assembly": "    /* \"Assignments/program-14.sol\":62:465  contract StringArray{... */\n  mstore(0x40, 0x80)\n  callvalue\n  dup1\n  iszero\n  tag_1\n  jumpi\n  0x00\n  dup1\n  revert\ntag_1:\n  pop\n  dataSize(sub_0)\n  dup1\n  dataOffset(sub_0)\n  0x00\n  codecopy\n  0x00\n  return\nstop\n\nsub_0: assembly {\n        /* \"Assignments/program-14.sol\":62:465  contract StringArray{... */\n      mstore(0x40, 0x80)\n      callvalue\n      dup1\n      iszero\n      tag_1\n      jumpi\n      0x00\n      dup1\n      revert\n    tag_1:\n      pop\n      jumpi(tag_2, lt(calldatasize, 0x04))\n      shr(0xe0, calldataload(0x00))\n      dup1\n      0x11456b47\n      eq\n      tag_3\n      jumpi\n      dup1\n      0x6b8ff574\n      eq\n      tag_4\n      jumpi\n      dup1\n      0x71e5ee5f\n      eq\n      tag_5\n      jumpi\n      dup1\n      0xaabe984d\n      eq\n      tag_6\n      jumpi\n    tag_2:\n      0x00\n      dup1\n      revert\n        /* \"Assignments/program-14.sol\":115:193  function addName(string memory _name) public{... */\n    tag_3:\n      tag_7\n      0x04\n      dup1\n      calldatasize\n      sub\n      dup2\n      add\n      swap1\n      tag_8\n      swap2\n      swap1\n      tag_9\n      jump\t// in\n    tag_8:\n      tag_10\n      jump\t// in\n    tag_7:\n      stop\n        /* \"Assignments/program-14.sol\":199:370  function getName(uint _index) public view returns(string memory){... */\n    tag_4:\n      tag_11\n      0x04\n      dup1\n      calldatasize\n      sub\n      dup2\n      add\n      swap1\n      tag_12\n      swap2\n      swap1\n      tag_13\n      jump\t// in\n    tag_12:\n      tag_14\n      jump\t// in\n    tag_11:\n      mload(0x40)\n      tag_15\n      swap2\n      swap1\n      tag_16\n      jump\t// in\n    tag_15:\n      mload(0x40)\n      dup1\n      swap2\n      sub\n      swap1\n      return\n        /* \"Assignments/program-14.sol\":89:108  string[] public arr */\n    tag_5:\n      tag_17\n      0x04\n      dup1\n      calldatasize\n      sub\n      dup2\n      add\n      swap1\n      tag_18\n      swap2\n      swap1\n      tag_13\n      jump\t// in\n    tag_18:\n      tag_19\n      jump\t// in\n    tag_17:\n      mload(0x40)\n      tag_20\n      swap2\n      swap1\n      tag_16\n      jump\t// in\n    tag_20:\n      mload(0x40)\n      dup1\n      swap2\n      sub\n      swap1\n      return\n        /* \"Assignments/program-14.sol\":376:462  function getNamesCount() public view returns(uint){... */\n    tag_6:\n      tag_21\n      tag_22\n      jump\t// in\n    tag_21:\n      mload(0x40)\n      tag_23\n      swap2\n      swap1\n      tag_24\n      jump\t// in\n    tag_23:\n      mload(0x40)\n      dup1\n      swap2\n      sub\n      swap1\n      return\n        /* \"Assignments/program-14.sol\":115:193  function addName(string memory _name) public{... */\n    tag_10:\n        /* \"Assignments/program-14.sol\":170:173  arr */\n      0x00\n        /* \"Assignments/program-14.sol\":179:184  _name */\n      dup2\n        /* \"Assignments/program-14.sol\":170:185  arr.push(_name) */\n      swap1\n      dup1\n      0x01\n      dup2\n      sload\n      add\n      dup1\n      dup3\n      sstore\n      dup1\n      swap2\n      pop\n      pop\n      0x01\n      swap1\n      sub\n      swap1\n      0x00\n      mstore\n      keccak256(0x00, 0x20)\n      add\n      0x00\n      swap1\n      swap2\n      swap1\n      swap2\n      swap1\n      swap2\n      pop\n      swap1\n      dup2\n      tag_27\n      swap2\n      swap1\n      tag_28\n      jump\t// in\n    tag_27:\n      pop\n        /* \"Assignments/program-14.sol\":115:193  function addName(string memory _name) public{... */\n      pop\n      jump\t// out\n        /* \"Assignments/program-14.sol\":199:370  function getName(uint _index) public view returns(string memory){... */\n    tag_14:\n        /* \"Assignments/program-14.sol\":249:262  string memory */\n      0x60\n        /* \"Assignments/program-14.sol\":291:306  getNamesCount() */\n      tag_30\n        /* \"Assignments/program-14.sol\":291:304  getNamesCount */\n      tag_22\n        /* \"Assignments/program-14.sol\":291:306  getNamesCount() */\n      jump\t// in\n    tag_30:\n        /* \"Assignments/program-14.sol\":282:288  _index */\n      dup3\n        /* \"Assignments/program-14.sol\":282:306  _index < getNamesCount() */\n      lt\n        /* \"Assignments/program-14.sol\":274:333  require(_index < getNamesCount(), \"index is out of bounds\") */\n      tag_31\n      jumpi\n      mload(0x40)\n      0x08c379a000000000000000000000000000000000000000000000000000000000\n      dup2\n      mstore\n      0x04\n      add\n      tag_32\n      swap1\n      tag_33\n      jump\t// in\n    tag_32:\n      mload(0x40)\n      dup1\n      swap2\n      sub\n      swap1\n      revert\n    tag_31:\n        /* \"Assignments/program-14.sol\":351:354  arr */\n      0x00\n        /* \"Assignments/program-14.sol\":355:361  _index */\n      dup3\n        /* \"Assignments/program-14.sol\":351:362  arr[_index] */\n      dup2\n      sload\n      dup2\n      lt\n      tag_34\n      jumpi\n      tag_35\n      tag_36\n      jump\t// in\n    tag_35:\n    tag_34:\n      swap1\n      0x00\n      mstore\n      keccak256(0x00, 0x20)\n      add\n        /* \"Assignments/program-14.sol\":344:362  return arr[_index] */\n      dup1\n      sload\n      tag_38\n      swap1\n      tag_39\n      jump\t// in\n    tag_38:\n      dup1\n      0x1f\n      add\n      0x20\n      dup1\n      swap2\n      div\n      mul\n      0x20\n      add\n      mload(0x40)\n      swap1\n      dup2\n      add\n      0x40\n      mstore\n      dup1\n      swap3\n      swap2\n      swap1\n      dup2\n      dup2\n      mstore\n      0x20\n      add\n      dup3\n      dup1\n      sload\n      tag_40\n      swap1\n      tag_39\n      jump\t// in\n    tag_40:\n      dup1\n      iszero\n      tag_41\n      jumpi\n      dup1\n      0x1f\n      lt\n      tag_42\n      jumpi\n      0x0100\n      dup1\n      dup4\n      sload\n      div\n      mul\n      dup4\n      mstore\n      swap2\n      0x20\n      add\n      swap2\n      jump(tag_41)\n    tag_42:\n      dup3\n      add\n      swap2\n      swap1\n      0x00\n      mstore\n      keccak256(0x00, 0x20)\n      swap1\n    tag_43:\n      dup2\n      sload\n      dup2\n      mstore\n      swap1\n      0x01\n      add\n      swap1\n      0x20\n      add\n      dup1\n      dup4\n      gt\n      tag_43\n      jumpi\n      dup3\n      swap1\n      sub\n      0x1f\n      and\n      dup3\n      add\n      swap2\n    tag_41:\n      pop\n      pop\n      pop\n      pop\n      pop\n      swap1\n      pop\n        /* \"Assignments/program-14.sol\":199:370  function getName(uint _index) public view returns(string memory){... */\n      swap2\n      swap1\n      pop\n      jump\t// out\n        /* \"Assignments/program-14.sol\":89:108  string[] public arr */\n    tag_19:\n      0x00\n      dup2\n      dup2\n      sload\n      dup2\n      lt\n      tag_44\n      jumpi\n      0x00\n      dup1\n      revert\n    tag_44:\n      swap1\n      0x00\n      mstore\n      keccak256(0x00, 0x20)\n      add\n      0x00\n      swap2\n      pop\n      swap1\n      pop\n      dup1\n      sload\n      tag_46\n      swap1\n      tag_39\n      jump\t// in\n    tag_46:\n      dup1\n      0x1f\n      add\n      0x20\n      dup1\n      swap2\n      div\n      mul\n      0x20\n      add\n      mload(0x40)\n      swap1\n      dup2\n      add\n      0x40\n      mstore\n      dup1\n      swap3\n      swap2\n      swap1\n      dup2\n      dup2\n      mstore\n      0x20\n      add\n      dup3\n      dup1\n      sload\n      tag_47\n      swap1\n      tag_39\n      jump\t// in\n    tag_47:\n      dup1\n      iszero\n      tag_48\n      jumpi\n      dup1\n      0x1f\n      lt\n      tag_49\n      jumpi\n      0x0100\n      dup1\n      dup4\n      sload\n      div\n      mul\n      dup4\n      mstore\n      swap2\n      0x20\n      add\n      swap2\n      jump(tag_48)\n    tag_49:\n      dup3\n      add\n      swap2\n      swap1\n      0x00\n      mstore\n      keccak256(0x00, 0x20)\n      swap1\n    tag_50:\n      dup2\n      sload\n      dup2\n      mstore\n      swap1\n      0x01\n      add\n      swap1\n      0x20\n      add\n      dup1\n      dup4\n      gt\n      tag_50\n      jumpi\n      dup3\n      swap1\n      sub\n      0x1f\n      and\n      dup3\n      add\n      swap2\n    tag_48:\n      pop\n      pop\n      pop\n      pop\n      pop\n      dup2\n      jump\t// out\n        /* \"Assignments/program-14.sol\":376:462  function getNamesCount() public view returns(uint){... */\n    tag_22:\n        /* \"Assignments/program-14.sol\":421:425  uint */\n      0x00\n        /* \"Assignments/program-14.sol\":444:447  arr */\n      dup1\n        /* \"Assignments/program-14.sol\":444:454  arr.length */\n      dup1\n      sload\n      swap1\n      pop\n        /* \"Assignments/program-14.sol\":437:454  return arr.length */\n      swap1\n      pop\n        /* \"Assignments/program-14.sol\":376:462  function getNamesCount() public view returns(uint){... */\n      swap1\n      jump\t// out\n        /* \"#utility.yul\":7:82   */\n    tag_52:\n        /* \"#utility.yul\":40:46   */\n      0x00\n        /* \"#utility.yul\":73:75   */\n      0x40\n        /* \"#utility.yul\":67:76   */\n      mload\n        /* \"#utility.yul\":57:76   */\n      swap1\n      pop\n        /* \"#utility.yul\":7:82   */\n      swap1\n      jump\t// out\n        /* \"#utility.yul\":88:205   */\n    tag_53:\n        /* \"#utility.yul\":197:198   */\n      0x00\n        /* \"#utility.yul\":194:195   */\n      dup1\n        /* \"#utility.yul\":187:199   */\n      revert\n        /* \"#utility.yul\":211:328   */\n    tag_54:\n        /* \"#utility.yul\":320:321   */\n      0x00\n        /* \"#utility.yul\":317:318   */\n      dup1\n        /* \"#utility.yul\":310:322   */\n      revert\n        /* \"#utility.yul\":334:451   */\n    tag_55:\n        /* \"#utility.yul\":443:444   */\n      0x00\n        /* \"#utility.yul\":440:441   */\n      dup1\n        /* \"#utility.yul\":433:445   */\n      revert\n        /* \"#utility.yul\":457:574   */\n    tag_56:\n        /* \"#utility.yul\":566:567   */\n      0x00\n        /* \"#utility.yul\":563:564   */\n      dup1\n        /* \"#utility.yul\":556:568   */\n      revert\n        /* \"#utility.yul\":580:682   */\n    tag_57:\n        /* \"#utility.yul\":621:627   */\n      0x00\n        /* \"#utility.yul\":672:674   */\n      0x1f\n        /* \"#utility.yul\":668:675   */\n      not\n        /* \"#utility.yul\":663:665   */\n      0x1f\n        /* \"#utility.yul\":656:661   */\n      dup4\n        /* \"#utility.yul\":652:666   */\n      add\n        /* \"#utility.yul\":648:676   */\n      and\n        /* \"#utility.yul\":638:676   */\n      swap1\n      pop\n        /* \"#utility.yul\":580:682   */\n      swap2\n      swap1\n      pop\n      jump\t// out\n        /* \"#utility.yul\":688:868   */\n    tag_58:\n        /* \"#utility.yul\":736:813   */\n      0x4e487b7100000000000000000000000000000000000000000000000000000000\n        /* \"#utility.yul\":733:734   */\n      0x00\n        /* \"#utility.yul\":726:814   */\n      mstore\n        /* \"#utility.yul\":833:837   */\n      0x41\n        /* \"#utility.yul\":830:831   */\n      0x04\n        /* \"#utility.yul\":823:838   */\n      mstore\n        /* \"#utility.yul\":857:861   */\n      0x24\n        /* \"#utility.yul\":854:855   */\n      0x00\n        /* \"#utility.yul\":847:862   */\n      revert\n        /* \"#utility.yul\":874:1155   */\n    tag_59:\n        /* \"#utility.yul\":957:984   */\n      tag_100\n        /* \"#utility.yul\":979:983   */\n      dup3\n        /* \"#utility.yul\":957:984   */\n      tag_57\n      jump\t// in\n    tag_100:\n        /* \"#utility.yul\":949:955   */\n      dup2\n        /* \"#utility.yul\":945:985   */\n      add\n        /* \"#utility.yul\":1087:1093   */\n      dup2\n        /* \"#utility.yul\":1075:1085   */\n      dup2\n        /* \"#utility.yul\":1072:1094   */\n      lt\n        /* \"#utility.yul\":1051:1069   */\n      0xffffffffffffffff\n        /* \"#utility.yul\":1039:1049   */\n      dup3\n        /* \"#utility.yul\":1036:1070   */\n      gt\n        /* \"#utility.yul\":1033:1095   */\n      or\n        /* \"#utility.yul\":1030:1118   */\n      iszero\n      tag_101\n      jumpi\n        /* \"#utility.yul\":1098:1116   */\n      tag_102\n      tag_58\n      jump\t// in\n    tag_102:\n        /* \"#utility.yul\":1030:1118   */\n    tag_101:\n        /* \"#utility.yul\":1138:1148   */\n      dup1\n        /* \"#utility.yul\":1134:1136   */\n      0x40\n        /* \"#utility.yul\":1127:1149   */\n      mstore\n        /* \"#utility.yul\":917:1155   */\n      pop\n        /* \"#utility.yul\":874:1155   */\n      pop\n      pop\n      jump\t// out\n        /* \"#utility.yul\":1161:1290   */\n    tag_60:\n        /* \"#utility.yul\":1195:1201   */\n      0x00\n        /* \"#utility.yul\":1222:1242   */\n      tag_104\n      tag_52\n      jump\t// in\n    tag_104:\n        /* \"#utility.yul\":1212:1242   */\n      swap1\n      pop\n        /* \"#utility.yul\":1251:1284   */\n      tag_105\n        /* \"#utility.yul\":1279:1283   */\n      dup3\n        /* \"#utility.yul\":1271:1277   */\n      dup3\n        /* \"#utility.yul\":1251:1284   */\n      tag_59\n      jump\t// in\n    tag_105:\n        /* \"#utility.yul\":1161:1290   */\n      swap2\n      swap1\n      pop\n      jump\t// out\n        /* \"#utility.yul\":1296:1604   */\n    tag_61:\n        /* \"#utility.yul\":1358:1362   */\n      0x00\n        /* \"#utility.yul\":1448:1466   */\n      0xffffffffffffffff\n        /* \"#utility.yul\":1440:1446   */\n      dup3\n        /* \"#utility.yul\":1437:1467   */\n      gt\n        /* \"#utility.yul\":1434:1490   */\n      iszero\n      tag_107\n      jumpi\n        /* \"#utility.yul\":1470:1488   */\n      tag_108\n      tag_58\n      jump\t// in\n    tag_108:\n        /* \"#utility.yul\":1434:1490   */\n    tag_107:\n        /* \"#utility.yul\":1508:1537   */\n      tag_109\n        /* \"#utility.yul\":1530:1536   */\n      dup3\n        /* \"#utility.yul\":1508:1537   */\n      tag_57\n      jump\t// in\n    tag_109:\n        /* \"#utility.yul\":1500:1537   */\n      swap1\n      pop\n        /* \"#utility.yul\":1592:1596   */\n      0x20\n        /* \"#utility.yul\":1586:1590   */\n      dup2\n        /* \"#utility.yul\":1582:1597   */\n      add\n        /* \"#utility.yul\":1574:1597   */\n      swap1\n      pop\n        /* \"#utility.yul\":1296:1604   */\n      swap2\n      swap1\n      pop\n      jump\t// out\n        /* \"#utility.yul\":1610:1758   */\n    tag_62:\n        /* \"#utility.yul\":1708:1714   */\n      dup3\n        /* \"#utility.yul\":1703:1706   */\n      dup2\n        /* \"#utility.yul\":1698:1701   */\n      dup4\n        /* \"#utility.yul\":1685:1715   */\n      calldatacopy\n        /* \"#utility.yul\":1749:1750   */\n      0x00\n        /* \"#utility.yul\":1740:1746   */\n      dup4\n        /* \"#utility.yul\":1735:1738   */\n      dup4\n        /* \"#utility.yul\":1731:1747   */\n      add\n        /* \"#utility.yul\":1724:1751   */\n      mstore\n        /* \"#utility.yul\":1610:1758   */\n      pop\n      pop\n      pop\n      jump\t// out\n        /* \"#utility.yul\":1764:2189   */\n    tag_63:\n        /* \"#utility.yul\":1842:1847   */\n      0x00\n        /* \"#utility.yul\":1867:1933   */\n      tag_112\n        /* \"#utility.yul\":1883:1932   */\n      tag_113\n        /* \"#utility.yul\":1925:1931   */\n      dup5\n        /* \"#utility.yul\":1883:1932   */\n      tag_61\n      jump\t// in\n    tag_113:\n        /* \"#utility.yul\":1867:1933   */\n      tag_60\n      jump\t// in\n    tag_112:\n        /* \"#utility.yul\":1858:1933   */\n      swap1\n      pop\n        /* \"#utility.yul\":1956:1962   */\n      dup3\n        /* \"#utility.yul\":1949:1954   */\n      dup2\n        /* \"#utility.yul\":1942:1963   */\n      mstore\n        /* \"#utility.yul\":1994:1998   */\n      0x20\n        /* \"#utility.yul\":1987:1992   */\n      dup2\n        /* \"#utility.yul\":1983:1999   */\n      add\n        /* \"#utility.yul\":2032:2035   */\n      dup5\n        /* \"#utility.yul\":2023:2029   */\n      dup5\n        /* \"#utility.yul\":2018:2021   */\n      dup5\n        /* \"#utility.yul\":2014:2030   */\n      add\n        /* \"#utility.yul\":2011:2036   */\n      gt\n        /* \"#utility.yul\":2008:2120   */\n      iszero\n      tag_114\n      jumpi\n        /* \"#utility.yul\":2039:2118   */\n      tag_115\n      tag_56\n      jump\t// in\n    tag_115:\n        /* \"#utility.yul\":2008:2120   */\n    tag_114:\n        /* \"#utility.yul\":2129:2183   */\n      tag_116\n        /* \"#utility.yul\":2176:2182   */\n      dup5\n        /* \"#utility.yul\":2171:2174   */\n      dup3\n        /* \"#utility.yul\":2166:2169   */\n      dup6\n        /* \"#utility.yul\":2129:2183   */\n      tag_62\n      jump\t// in\n    tag_116:\n        /* \"#utility.yul\":1848:2189   */\n      pop\n        /* \"#utility.yul\":1764:2189   */\n      swap4\n      swap3\n      pop\n      pop\n      pop\n      jump\t// out\n        /* \"#utility.yul\":2209:2549   */\n    tag_64:\n        /* \"#utility.yul\":2265:2270   */\n      0x00\n        /* \"#utility.yul\":2314:2317   */\n      dup3\n        /* \"#utility.yul\":2307:2311   */\n      0x1f\n        /* \"#utility.yul\":2299:2305   */\n      dup4\n        /* \"#utility.yul\":2295:2312   */\n      add\n        /* \"#utility.yul\":2291:2318   */\n      slt\n        /* \"#utility.yul\":2281:2403   */\n      tag_118\n      jumpi\n        /* \"#utility.yul\":2322:2401   */\n      tag_119\n      tag_55\n      jump\t// in\n    tag_119:\n        /* \"#utility.yul\":2281:2403   */\n    tag_118:\n        /* \"#utility.yul\":2439:2445   */\n      dup2\n        /* \"#utility.yul\":2426:2446   */\n      calldataload\n        /* \"#utility.yul\":2464:2543   */\n      tag_120\n        /* \"#utility.yul\":2539:2542   */\n      dup5\n        /* \"#utility.yul\":2531:2537   */\n      dup3\n        /* \"#utility.yul\":2524:2528   */\n      0x20\n        /* \"#utility.yul\":2516:2522   */\n      dup7\n        /* \"#utility.yul\":2512:2529   */\n      add\n        /* \"#utility.yul\":2464:2543   */\n      tag_63\n      jump\t// in\n    tag_120:\n        /* \"#utility.yul\":2455:2543   */\n      swap2\n      pop\n        /* \"#utility.yul\":2271:2549   */\n      pop\n        /* \"#utility.yul\":2209:2549   */\n      swap3\n      swap2\n      pop\n      pop\n      jump\t// out\n        /* \"#utility.yul\":2555:3064   */\n    tag_9:\n        /* \"#utility.yul\":2624:2630   */\n      0x00\n        /* \"#utility.yul\":2673:2675   */\n      0x20\n        /* \"#utility.yul\":2661:2670   */\n      dup3\n        /* \"#utility.yul\":2652:2659   */\n      dup5\n        /* \"#utility.yul\":2648:2671   */\n      sub\n        /* \"#utility.yul\":2644:2676   */\n      slt\n        /* \"#utility.yul\":2641:2760   */\n      iszero\n      tag_122\n      jumpi\n        /* \"#utility.yul\":2679:2758   */\n      tag_123\n      tag_53\n      jump\t// in\n    tag_123:\n        /* \"#utility.yul\":2641:2760   */\n    tag_122:\n        /* \"#utility.yul\":2827:2828   */\n      0x00\n        /* \"#utility.yul\":2816:2825   */\n      dup3\n        /* \"#utility.yul\":2812:2829   */\n      add\n        /* \"#utility.yul\":2799:2830   */\n      calldataload\n        /* \"#utility.yul\":2857:2875   */\n      0xffffffffffffffff\n        /* \"#utility.yul\":2849:2855   */\n      dup2\n        /* \"#utility.yul\":2846:2876   */\n      gt\n        /* \"#utility.yul\":2843:2960   */\n      iszero\n      tag_124\n      jumpi\n        /* \"#utility.yul\":2879:2958   */\n      tag_125\n      tag_54\n      jump\t// in\n    tag_125:\n        /* \"#utility.yul\":2843:2960   */\n    tag_124:\n        /* \"#utility.yul\":2984:3047   */\n      tag_126\n        /* \"#utility.yul\":3039:3046   */\n      dup5\n        /* \"#utility.yul\":3030:3036   */\n      dup3\n        /* \"#utility.yul\":3019:3028   */\n      dup6\n        /* \"#utility.yul\":3015:3037   */\n      add\n        /* \"#utility.yul\":2984:3047   */\n      tag_64\n      jump\t// in\n    tag_126:\n        /* \"#utility.yul\":2974:3047   */\n      swap2\n      pop\n        /* \"#utility.yul\":2770:3057   */\n      pop\n        /* \"#utility.yul\":2555:3064   */\n      swap3\n      swap2\n      pop\n      pop\n      jump\t// out\n        /* \"#utility.yul\":3070:3147   */\n    tag_65:\n        /* \"#utility.yul\":3107:3114   */\n      0x00\n        /* \"#utility.yul\":3136:3141   */\n      dup2\n        /* \"#utility.yul\":3125:3141   */\n      swap1\n      pop\n        /* \"#utility.yul\":3070:3147   */\n      swap2\n      swap1\n      pop\n      jump\t// out\n        /* \"#utility.yul\":3153:3275   */\n    tag_66:\n        /* \"#utility.yul\":3226:3250   */\n      tag_129\n        /* \"#utility.yul\":3244:3249   */\n      dup2\n        /* \"#utility.yul\":3226:3250   */\n      tag_65\n      jump\t// in\n    tag_129:\n        /* \"#utility.yul\":3219:3224   */\n      dup2\n        /* \"#utility.yul\":3216:3251   */\n      eq\n        /* \"#utility.yul\":3206:3269   */\n      tag_130\n      jumpi\n        /* \"#utility.yul\":3265:3266   */\n      0x00\n        /* \"#utility.yul\":3262:3263   */\n      dup1\n        /* \"#utility.yul\":3255:3267   */\n      revert\n        /* \"#utility.yul\":3206:3269   */\n    tag_130:\n        /* \"#utility.yul\":3153:3275   */\n      pop\n      jump\t// out\n        /* \"#utility.yul\":3281:3420   */\n    tag_67:\n        /* \"#utility.yul\":3327:3332   */\n      0x00\n        /* \"#utility.yul\":3365:3371   */\n      dup2\n        /* \"#utility.yul\":3352:3372   */\n      calldataload\n        /* \"#utility.yul\":3343:3372   */\n      swap1\n      pop\n        /* \"#utility.yul\":3381:3414   */\n      tag_132\n        /* \"#utility.yul\":3408:3413   */\n      dup2\n        /* \"#utility.yul\":3381:3414   */\n      tag_66\n      jump\t// in\n    tag_132:\n        /* \"#utility.yul\":3281:3420   */\n      swap3\n      swap2\n      pop\n      pop\n      jump\t// out\n        /* \"#utility.yul\":3426:3755   */\n    tag_13:\n        /* \"#utility.yul\":3485:3491   */\n      0x00\n        /* \"#utility.yul\":3534:3536   */\n      0x20\n        /* \"#utility.yul\":3522:3531   */\n      dup3\n        /* \"#utility.yul\":3513:3520   */\n      dup5\n        /* \"#utility.yul\":3509:3532   */\n      sub\n        /* \"#utility.yul\":3505:3537   */\n      slt\n        /* \"#utility.yul\":3502:3621   */\n      iszero\n      tag_134\n      jumpi\n        /* \"#utility.yul\":3540:3619   */\n      tag_135\n      tag_53\n      jump\t// in\n    tag_135:\n        /* \"#utility.yul\":3502:3621   */\n    tag_134:\n        /* \"#utility.yul\":3660:3661   */\n      0x00\n        /* \"#utility.yul\":3685:3738   */\n      tag_136\n        /* \"#utility.yul\":3730:3737   */\n      dup5\n        /* \"#utility.yul\":3721:3727   */\n      dup3\n        /* \"#utility.yul\":3710:3719   */\n      dup6\n        /* \"#utility.yul\":3706:3728   */\n      add\n        /* \"#utility.yul\":3685:3738   */\n      tag_67\n      jump\t// in\n    tag_136:\n        /* \"#utility.yul\":3675:3738   */\n      swap2\n      pop\n        /* \"#utility.yul\":3631:3748   */\n      pop\n        /* \"#utility.yul\":3426:3755   */\n      swap3\n      swap2\n      pop\n      pop\n      jump\t// out\n        /* \"#utility.yul\":3761:3860   */\n    tag_68:\n        /* \"#utility.yul\":3813:3819   */\n      0x00\n        /* \"#utility.yul\":3847:3852   */\n      dup2\n        /* \"#utility.yul\":3841:3853   */\n      mload\n        /* \"#utility.yul\":3831:3853   */\n      swap1\n      pop\n        /* \"#utility.yul\":3761:3860   */\n      swap2\n      swap1\n      pop\n      jump\t// out\n        /* \"#utility.yul\":3866:4035   */\n    tag_69:\n        /* \"#utility.yul\":3950:3961   */\n      0x00\n        /* \"#utility.yul\":3984:3990   */\n      dup3\n        /* \"#utility.yul\":3979:3982   */\n      dup3\n        /* \"#utility.yul\":3972:3991   */\n      mstore\n        /* \"#utility.yul\":4024:4028   */\n      0x20\n        /* \"#utility.yul\":4019:4022   */\n      dup3\n        /* \"#utility.yul\":4015:4029   */\n      add\n        /* \"#utility.yul\":4000:4029   */\n      swap1\n      pop\n        /* \"#utility.yul\":3866:4035   */\n      swap3\n      swap2\n      pop\n      pop\n      jump\t// out\n        /* \"#utility.yul\":4041:4180   */\n    tag_70:\n        /* \"#utility.yul\":4130:4136   */\n      dup3\n        /* \"#utility.yul\":4125:4128   */\n      dup2\n        /* \"#utility.yul\":4120:4123   */\n      dup4\n        /* \"#utility.yul\":4114:4137   */\n      mcopy\n        /* \"#utility.yul\":4171:4172   */\n      0x00\n        /* \"#utility.yul\":4162:4168   */\n      dup4\n        /* \"#utility.yul\":4157:4160   */\n      dup4\n        /* \"#utility.yul\":4153:4169   */\n      add\n        /* \"#utility.yul\":4146:4173   */\n      mstore\n        /* \"#utility.yul\":4041:4180   */\n      pop\n      pop\n      pop\n      jump\t// out\n        /* \"#utility.yul\":4186:4563   */\n    tag_71:\n        /* \"#utility.yul\":4274:4277   */\n      0x00\n        /* \"#utility.yul\":4302:4341   */\n      tag_141\n        /* \"#utility.yul\":4335:4340   */\n      dup3\n        /* \"#utility.yul\":4302:4341   */\n      tag_68\n      jump\t// in\n    tag_141:\n        /* \"#utility.yul\":4357:4428   */\n      tag_142\n        /* \"#utility.yul\":4421:4427   */\n      dup2\n        /* \"#utility.yul\":4416:4419   */\n      dup6\n        /* \"#utility.yul\":4357:4428   */\n      tag_69\n      jump\t// in\n    tag_142:\n        /* \"#utility.yul\":4350:4428   */\n      swap4\n      pop\n        /* \"#utility.yul\":4437:4502   */\n      tag_143\n        /* \"#utility.yul\":4495:4501   */\n      dup2\n        /* \"#utility.yul\":4490:4493   */\n      dup6\n        /* \"#utility.yul\":4483:4487   */\n      0x20\n        /* \"#utility.yul\":4476:4481   */\n      dup7\n        /* \"#utility.yul\":4472:4488   */\n      add\n        /* \"#utility.yul\":4437:4502   */\n      tag_70\n      jump\t// in\n    tag_143:\n        /* \"#utility.yul\":4527:4556   */\n      tag_144\n        /* \"#utility.yul\":4549:4555   */\n      dup2\n        /* \"#utility.yul\":4527:4556   */\n      tag_57\n      jump\t// in\n    tag_144:\n        /* \"#utility.yul\":4522:4525   */\n      dup5\n        /* \"#utility.yul\":4518:4557   */\n      add\n        /* \"#utility.yul\":4511:4557   */\n      swap2\n      pop\n        /* \"#utility.yul\":4278:4563   */\n      pop\n        /* \"#utility.yul\":4186:4563   */\n      swap3\n      swap2\n      pop\n      pop\n      jump\t// out\n        /* \"#utility.yul\":4569:4882   */\n    tag_16:\n        /* \"#utility.yul\":4682:4686   */\n      0x00\n        /* \"#utility.yul\":4720:4722   */\n      0x20\n        /* \"#utility.yul\":4709:4718   */\n      dup3\n        /* \"#utility.yul\":4705:4723   */\n      add\n        /* \"#utility.yul\":4697:4723   */\n      swap1\n      pop\n        /* \"#utility.yul\":4769:4778   */\n      dup2\n        /* \"#utility.yul\":4763:4767   */\n      dup2\n        /* \"#utility.yul\":4759:4779   */\n      sub\n        /* \"#utility.yul\":4755:4756   */\n      0x00\n        /* \"#utility.yul\":4744:4753   */\n      dup4\n        /* \"#utility.yul\":4740:4757   */\n      add\n        /* \"#utility.yul\":4733:4780   */\n      mstore\n        /* \"#utility.yul\":4797:4875   */\n      tag_146\n        /* \"#utility.yul\":4870:4874   */\n      dup2\n        /* \"#utility.yul\":4861:4867   */\n      dup5\n        /* \"#utility.yul\":4797:4875   */\n      tag_71\n      jump\t// in\n    tag_146:\n        /* \"#utility.yul\":4789:4875   */\n      swap1\n      pop\n        /* \"#utility.yul\":4569:4882   */\n      swap3\n      swap2\n      pop\n      pop\n      jump\t// out\n        /* \"#utility.yul\":4888:5006   */\n    tag_72:\n        /* \"#utility.yul\":4975:4999   */\n      tag_148\n        /* \"#utility.yul\":4993:4998   */\n      dup2\n        /* \"#utility.yul\":4975:4999   */\n      tag_65\n      jump\t// in\n    tag_148:\n        /* \"#utility.yul\":4970:4973   */\n      dup3\n        /* \"#utility.yul\":4963:5000   */\n      mstore\n        /* \"#utility.yul\":4888:5006   */\n      pop\n      pop\n      jump\t// out\n        /* \"#utility.yul\":5012:5234   */\n    tag_24:\n        /* \"#utility.yul\":5105:5109   */\n      0x00\n        /* \"#utility.yul\":5143:5145   */\n      0x20\n        /* \"#utility.yul\":5132:5141   */\n      dup3\n        /* \"#utility.yul\":5128:5146   */\n      add\n        /* \"#utility.yul\":5120:5146   */\n      swap1\n      pop\n        /* \"#utility.yul\":5156:5227   */\n      tag_150\n        /* \"#utility.yul\":5224:5225   */\n      0x00\n        /* \"#utility.yul\":5213:5222   */\n      dup4\n        /* \"#utility.yul\":5209:5226   */\n      add\n        /* \"#utility.yul\":5200:5206   */\n      dup5\n        /* \"#utility.yul\":5156:5227   */\n      tag_72\n      jump\t// in\n    tag_150:\n        /* \"#utility.yul\":5012:5234   */\n      swap3\n      swap2\n      pop\n      pop\n      jump\t// out\n        /* \"#utility.yul\":5240:5420   */\n    tag_73:\n        /* \"#utility.yul\":5288:5365   */\n      0x4e487b7100000000000000000000000000000000000000000000000000000000\n        /* \"#utility.yul\":5285:5286   */\n      0x00\n        /* \"#utility.yul\":5278:5366   */\n      mstore\n        /* \"#utility.yul\":5385:5389   */\n      0x22\n        /* \"#utility.yul\":5382:5383   */\n      0x04\n        /* \"#utility.yul\":5375:5390   */\n      mstore\n        /* \"#utility.yul\":5409:5413   */\n      0x24\n        /* \"#utility.yul\":5406:5407   */\n      0x00\n        /* \"#utility.yul\":5399:5414   */\n      revert\n        /* \"#utility.yul\":5426:5746   */\n    tag_39:\n        /* \"#utility.yul\":5470:5476   */\n      0x00\n        /* \"#utility.yul\":5507:5508   */\n      0x02\n        /* \"#utility.yul\":5501:5505   */\n      dup3\n        /* \"#utility.yul\":5497:5509   */\n      div\n        /* \"#utility.yul\":5487:5509   */\n      swap1\n      pop\n        /* \"#utility.yul\":5554:5555   */\n      0x01\n        /* \"#utility.yul\":5548:5552   */\n      dup3\n        /* \"#utility.yul\":5544:5556   */\n      and\n        /* \"#utility.yul\":5575:5593   */\n      dup1\n        /* \"#utility.yul\":5565:5646   */\n      tag_153\n      jumpi\n        /* \"#utility.yul\":5631:5635   */\n      0x7f\n        /* \"#utility.yul\":5623:5629   */\n      dup3\n        /* \"#utility.yul\":5619:5636   */\n      and\n        /* \"#utility.yul\":5609:5636   */\n      swap2\n      pop\n        /* \"#utility.yul\":5565:5646   */\n    tag_153:\n        /* \"#utility.yul\":5693:5695   */\n      0x20\n        /* \"#utility.yul\":5685:5691   */\n      dup3\n        /* \"#utility.yul\":5682:5696   */\n      lt\n        /* \"#utility.yul\":5662:5680   */\n      dup2\n        /* \"#utility.yul\":5659:5697   */\n      sub\n        /* \"#utility.yul\":5656:5740   */\n      tag_154\n      jumpi\n        /* \"#utility.yul\":5712:5730   */\n      tag_155\n      tag_73\n      jump\t// in\n    tag_155:\n        /* \"#utility.yul\":5656:5740   */\n    tag_154:\n        /* \"#utility.yul\":5477:5746   */\n      pop\n        /* \"#utility.yul\":5426:5746   */\n      swap2\n      swap1\n      pop\n      jump\t// out\n        /* \"#utility.yul\":5752:5893   */\n    tag_74:\n        /* \"#utility.yul\":5801:5805   */\n      0x00\n        /* \"#utility.yul\":5824:5827   */\n      dup2\n        /* \"#utility.yul\":5816:5827   */\n      swap1\n      pop\n        /* \"#utility.yul\":5847:5850   */\n      dup2\n        /* \"#utility.yul\":5844:5845   */\n      0x00\n        /* \"#utility.yul\":5837:5851   */\n      mstore\n        /* \"#utility.yul\":5881:5885   */\n      0x20\n        /* \"#utility.yul\":5878:5879   */\n      0x00\n        /* \"#utility.yul\":5868:5886   */\n      keccak256\n        /* \"#utility.yul\":5860:5886   */\n      swap1\n      pop\n        /* \"#utility.yul\":5752:5893   */\n      swap2\n      swap1\n      pop\n      jump\t// out\n        /* \"#utility.yul\":5899:5992   */\n    tag_75:\n        /* \"#utility.yul\":5936:5942   */\n      0x00\n        /* \"#utility.yul\":5983:5985   */\n      0x20\n        /* \"#utility.yul\":5978:5980   */\n      0x1f\n        /* \"#utility.yul\":5971:5976   */\n      dup4\n        /* \"#utility.yul\":5967:5981   */\n      add\n        /* \"#utility.yul\":5963:5986   */\n      div\n        /* \"#utility.yul\":5953:5986   */\n      swap1\n      pop\n        /* \"#utility.yul\":5899:5992   */\n      swap2\n      swap1\n      pop\n      jump\t// out\n        /* \"#utility.yul\":5998:6105   */\n    tag_76:\n        /* \"#utility.yul\":6042:6050   */\n      0x00\n        /* \"#utility.yul\":6092:6097   */\n      dup3\n        /* \"#utility.yul\":6086:6090   */\n      dup3\n        /* \"#utility.yul\":6082:6098   */\n      shl\n        /* \"#utility.yul\":6061:6098   */\n      swap1\n      pop\n        /* \"#utility.yul\":5998:6105   */\n      swap3\n      swap2\n      pop\n      pop\n      jump\t// out\n        /* \"#utility.yul\":6111:6504   */\n    tag_77:\n        /* \"#utility.yul\":6180:6186   */\n      0x00\n        /* \"#utility.yul\":6230:6231   */\n      0x08\n        /* \"#utility.yul\":6218:6228   */\n      dup4\n        /* \"#utility.yul\":6214:6232   */\n      mul\n        /* \"#utility.yul\":6253:6350   */\n      tag_160\n        /* \"#utility.yul\":6283:6349   */\n      0xffffffffffffffffffffffffffffffffffffffffffffffffffffffffffffffff\n        /* \"#utility.yul\":6272:6281   */\n      dup3\n        /* \"#utility.yul\":6253:6350   */\n      tag_76\n      jump\t// in\n    tag_160:\n        /* \"#utility.yul\":6371:6410   */\n      tag_161\n        /* \"#utility.yul\":6401:6409   */\n      dup7\n        /* \"#utility.yul\":6390:6399   */\n      dup4\n        /* \"#utility.yul\":6371:6410   */\n      tag_76\n      jump\t// in\n    tag_161:\n        /* \"#utility.yul\":6359:6410   */\n      swap6\n      pop\n        /* \"#utility.yul\":6443:6447   */\n      dup1\n        /* \"#utility.yul\":6439:6448   */\n      not\n        /* \"#utility.yul\":6432:6437   */\n      dup5\n        /* \"#utility.yul\":6428:6449   */\n      and\n        /* \"#utility.yul\":6419:6449   */\n      swap4\n      pop\n        /* \"#utility.yul\":6492:6496   */\n      dup1\n        /* \"#utility.yul\":6482:6490   */\n      dup7\n        /* \"#utility.yul\":6478:6497   */\n      and\n        /* \"#utility.yul\":6471:6476   */\n      dup5\n        /* \"#utility.yul\":6468:6498   */\n      or\n        /* \"#utility.yul\":6458:6498   */\n      swap3\n      pop\n        /* \"#utility.yul\":6187:6504   */\n      pop\n      pop\n        /* \"#utility.yul\":6111:6504   */\n      swap4\n      swap3\n      pop\n      pop\n      pop\n      jump\t// out\n        /* \"#utility.yul\":6510:6570   */\n    tag_78:\n        /* \"#utility.yul\":6538:6541   */\n      0x00\n        /* \"#utility.yul\":6559:6564   */\n      dup2\n        /* \"#utility.yul\":6552:6564   */\n      swap1\n      pop\n        /* \"#utility.yul\":6510:6570   */\n      swap2\n      swap1\n      pop\n      jump\t// out\n        /* \"#utility.yul\":6576:6718   */\n    tag_79:\n        /* \"#utility.yul\":6626:6635   */\n      0x00\n        /* \"#utility.yul\":6659:6712   */\n      tag_164\n        /* \"#utility.yul\":6677:6711   */\n      tag_165\n        /* \"#utility.yul\":6686:6710   */\n      tag_166\n        /* \"#utility.yul\":6704:6709   */\n      dup5\n        /* \"#utility.yul\":6686:6710   */\n      tag_65\n      jump\t// in\n    tag_166:\n        /* \"#utility.yul\":6677:6711   */\n      tag_78\n      jump\t// in\n    tag_165:\n        /* \"#utility.yul\":6659:6712   */\n      tag_65\n      jump\t// in\n    tag_164:\n        /* \"#utility.yul\":6646:6712   */\n      swap1\n      pop\n        /* \"#utility.yul\":6576:6718   */\n      swap2\n      swap1\n      pop\n      jump\t// out\n        /* \"#utility.yul\":6724:6799   */\n    tag_80:\n        /* \"#utility.yul\":6767:6770   */\n      0x00\n        /* \"#utility.yul\":6788:6793   */\n      dup2\n        /* \"#utility.yul\":6781:6793   */\n      swap1\n      pop\n        /* \"#utility.yul\":6724:6799   */\n      swap2\n      swap1\n      pop\n      jump\t// out\n        /* \"#utility.yul\":6805:7074   */\n    tag_81:\n        /* \"#utility.yul\":6915:6954   */\n      tag_169\n        /* \"#utility.yul\":6946:6953   */\n      dup4\n        /* \"#utility.yul\":6915:6954   */\n      tag_79\n      jump\t// in\n    tag_169:\n        /* \"#utility.yul\":6976:7067   */\n      tag_170\n        /* \"#utility.yul\":7025:7066   */\n      tag_171\n        /* \"#utility.yul\":7049:7065   */\n      dup3\n        /* \"#utility.yul\":7025:7066   */\n      tag_80\n      jump\t// in\n    tag_171:\n        /* \"#utility.yul\":7017:7023   */\n      dup5\n        /* \"#utility.yul\":7010:7014   */\n      dup5\n        /* \"#utility.yul\":7004:7015   */\n      sload\n        /* \"#utility.yul\":6976:7067   */\n      tag_77\n      jump\t// in\n    tag_170:\n        /* \"#utility.yul\":6970:6974   */\n      dup3\n        /* \"#utility.yul\":6963:7068   */\n      sstore\n        /* \"#utility.yul\":6881:7074   */\n      pop\n        /* \"#utility.yul\":6805:7074   */\n      pop\n      pop\n      pop\n      jump\t// out\n        /* \"#utility.yul\":7080:7153   */\n    tag_82:\n        /* \"#utility.yul\":7125:7128   */\n      0x00\n        /* \"#utility.yul\":7080:7153   */\n      swap1\n      jump\t// out\n        /* \"#utility.yul\":7159:7348   */\n    tag_83:\n        /* \"#utility.yul\":7236:7268   */\n      tag_174\n      tag_82\n      jump\t// in\n    tag_174:\n        /* \"#utility.yul\":7277:7342   */\n      tag_175\n        /* \"#utility.yul\":7335:7341   */\n      dup2\n        /* \"#utility.yul\":7327:7333   */\n      dup5\n        /* \"#utility.yul\":7321:7325   */\n      dup5\n        /* \"#utility.yul\":7277:7342   */\n      tag_81\n      jump\t// in\n    tag_175:\n        /* \"#utility.yul\":7212:7348   */\n      pop\n        /* \"#utility.yul\":7159:7348   */\n      pop\n      pop\n      jump\t// out\n        /* \"#utility.yul\":7354:7540   */\n    tag_84:\n        /* \"#utility.yul\":7414:7534   */\n    tag_177:\n        /* \"#utility.yul\":7431:7434   */\n      dup2\n        /* \"#utility.yul\":7424:7429   */\n      dup2\n        /* \"#utility.yul\":7421:7435   */\n      lt\n        /* \"#utility.yul\":7414:7534   */\n      iszero\n      tag_179\n      jumpi\n        /* \"#utility.yul\":7485:7524   */\n      tag_180\n        /* \"#utility.yul\":7522:7523   */\n      0x00\n        /* \"#utility.yul\":7515:7520   */\n      dup3\n        /* \"#utility.yul\":7485:7524   */\n      tag_83\n      jump\t// in\n    tag_180:\n        /* \"#utility.yul\":7458:7459   */\n      0x01\n        /* \"#utility.yul\":7451:7456   */\n      dup2\n        /* \"#utility.yul\":7447:7460   */\n      add\n        /* \"#utility.yul\":7438:7460   */\n      swap1\n      pop\n        /* \"#utility.yul\":7414:7534   */\n      jump(tag_177)\n    tag_179:\n        /* \"#utility.yul\":7354:7540   */\n      pop\n      pop\n      jump\t// out\n        /* \"#utility.yul\":7546:8089   */\n    tag_85:\n        /* \"#utility.yul\":7647:7649   */\n      0x1f\n        /* \"#utility.yul\":7642:7645   */\n      dup3\n        /* \"#utility.yul\":7639:7650   */\n      gt\n        /* \"#utility.yul\":7636:8082   */\n      iszero\n      tag_182\n      jumpi\n        /* \"#utility.yul\":7681:7719   */\n      tag_183\n        /* \"#utility.yul\":7713:7718   */\n      dup2\n        /* \"#utility.yul\":7681:7719   */\n      tag_74\n      jump\t// in\n    tag_183:\n        /* \"#utility.yul\":7765:7794   */\n      tag_184\n        /* \"#utility.yul\":7783:7793   */\n      dup5\n        /* \"#utility.yul\":7765:7794   */\n      tag_75\n      jump\t// in\n    tag_184:\n        /* \"#utility.yul\":7755:7763   */\n      dup2\n        /* \"#utility.yul\":7751:7795   */\n      add\n        /* \"#utility.yul\":7948:7950   */\n      0x20\n        /* \"#utility.yul\":7936:7946   */\n      dup6\n        /* \"#utility.yul\":7933:7951   */\n      lt\n        /* \"#utility.yul\":7930:7979   */\n      iszero\n      tag_185\n      jumpi\n        /* \"#utility.yul\":7969:7977   */\n      dup2\n        /* \"#utility.yul\":7954:7977   */\n      swap1\n      pop\n        /* \"#utility.yul\":7930:7979   */\n    tag_185:\n        /* \"#utility.yul\":7992:8072   */\n      tag_186\n        /* \"#utility.yul\":8048:8070   */\n      tag_187\n        /* \"#utility.yul\":8066:8069   */\n      dup6\n        /* \"#utility.yul\":8048:8070   */\n      tag_75\n      jump\t// in\n    tag_187:\n        /* \"#utility.yul\":8038:8046   */\n      dup4\n        /* \"#utility.yul\":8034:8071   */\n      add\n        /* \"#utility.yul\":8021:8032   */\n      dup3\n        /* \"#utility.yul\":7992:8072   */\n      tag_84\n      jump\t// in\n    tag_186:\n        /* \"#utility.yul\":7651:8082   */\n      pop\n      pop\n        /* \"#utility.yul\":7636:8082   */\n    tag_182:\n        /* \"#utility.yul\":7546:8089   */\n      pop\n      pop\n      pop\n      jump\t// out\n        /* \"#utility.yul\":8095:8212   */\n    tag_86:\n        /* \"#utility.yul\":8149:8157   */\n      0x00\n        /* \"#utility.yul\":8199:8204   */\n      dup3\n        /* \"#utility.yul\":8193:8197   */\n      dup3\n        /* \"#utility.yul\":8189:8205   */\n      shr\n        /* \"#utility.yul\":8168:8205   */\n      swap1\n      pop\n        /* \"#utility.yul\":8095:8212   */\n      swap3\n      swap2\n      pop\n      pop\n      jump\t// out\n        /* \"#utility.yul\":8218:8387   */\n    tag_87:\n        /* \"#utility.yul\":8262:8268   */\n      0x00\n        /* \"#utility.yul\":8295:8346   */\n      tag_190\n        /* \"#utility.yul\":8343:8344   */\n      0x00\n        /* \"#utility.yul\":8339:8345   */\n      not\n        /* \"#utility.yul\":8331:8336   */\n      dup5\n        /* \"#utility.yul\":8328:8329   */\n      0x08\n        /* \"#utility.yul\":8324:8337   */\n      mul\n        /* \"#utility.yul\":8295:8346   */\n      tag_86\n      jump\t// in\n    tag_190:\n        /* \"#utility.yul\":8291:8347   */\n      not\n        /* \"#utility.yul\":8376:8380   */\n      dup1\n        /* \"#utility.yul\":8370:8374   */\n      dup4\n        /* \"#utility.yul\":8366:8381   */\n      and\n        /* \"#utility.yul\":8356:8381   */\n      swap2\n      pop\n        /* \"#utility.yul\":8269:8387   */\n      pop\n        /* \"#utility.yul\":8218:8387   */\n      swap3\n      swap2\n      pop\n      pop\n      jump\t// out\n        /* \"#utility.yul\":8392:8687   */\n    tag_88:\n        /* \"#utility.yul\":8468:8472   */\n      0x00\n        /* \"#utility.yul\":8614:8643   */\n      tag_192\n        /* \"#utility.yul\":8639:8642   */\n      dup4\n        /* \"#utility.yul\":8633:8637   */\n      dup4\n        /* \"#utility.yul\":8614:8643   */\n      tag_87\n      jump\t// in\n    tag_192:\n        /* \"#utility.yul\":8606:8643   */\n      swap2\n      pop\n        /* \"#utility.yul\":8676:8679   */\n      dup3\n        /* \"#utility.yul\":8673:8674   */\n      0x02\n        /* \"#utility.yul\":8669:8680   */\n      mul\n        /* \"#utility.yul\":8663:8667   */\n      dup3\n        /* \"#utility.yul\":8660:8681   */\n      or\n        /* \"#utility.yul\":8652:8681   */\n      swap1\n      pop\n        /* \"#utility.yul\":8392:8687   */\n      swap3\n      swap2\n      pop\n      pop\n      jump\t// out\n        /* \"#utility.yul\":8692:10087   */\n    tag_28:\n        /* \"#utility.yul\":8809:8846   */\n      tag_194\n        /* \"#utility.yul\":8842:8845   */\n      dup3\n        /* \"#utility.yul\":8809:8846   */\n      tag_68\n      jump\t// in\n    tag_194:\n        /* \"#utility.yul\":8911:8929   */\n      0xffffffffffffffff\n        /* \"#utility.yul\":8903:8909   */\n      dup2\n        /* \"#utility.yul\":8900:8930   */\n      gt\n        /* \"#utility.yul\":8897:8953   */\n      iszero\n      tag_195\n      jumpi\n        /* \"#utility.yul\":8933:8951   */\n      tag_196\n      tag_58\n      jump\t// in\n    tag_196:\n        /* \"#utility.yul\":8897:8953   */\n    tag_195:\n        /* \"#utility.yul\":8977:9015   */\n      tag_197\n        /* \"#utility.yul\":9009:9013   */\n      dup3\n        /* \"#utility.yul\":9003:9014   */\n      sload\n        /* \"#utility.yul\":8977:9015   */\n      tag_39\n      jump\t// in\n    tag_197:\n        /* \"#utility.yul\":9062:9129   */\n      tag_198\n        /* \"#utility.yul\":9122:9128   */\n      dup3\n        /* \"#utility.yul\":9114:9120   */\n      dup3\n        /* \"#utility.yul\":9108:9112   */\n      dup6\n        /* \"#utility.yul\":9062:9129   */\n      tag_85\n      jump\t// in\n    tag_198:\n        /* \"#utility.yul\":9156:9157   */\n      0x00\n        /* \"#utility.yul\":9180:9184   */\n      0x20\n        /* \"#utility.yul\":9167:9184   */\n      swap1\n      pop\n        /* \"#utility.yul\":9212:9214   */\n      0x1f\n        /* \"#utility.yul\":9204:9210   */\n      dup4\n        /* \"#utility.yul\":9201:9215   */\n      gt\n        /* \"#utility.yul\":9229:9230   */\n      0x01\n        /* \"#utility.yul\":9224:9842   */\n      dup2\n      eq\n      tag_200\n      jumpi\n        /* \"#utility.yul\":9886:9887   */\n      0x00\n        /* \"#utility.yul\":9903:9909   */\n      dup5\n        /* \"#utility.yul\":9900:9977   */\n      iszero\n      tag_201\n      jumpi\n        /* \"#utility.yul\":9952:9961   */\n      dup3\n        /* \"#utility.yul\":9947:9950   */\n      dup8\n        /* \"#utility.yul\":9943:9962   */\n      add\n        /* \"#utility.yul\":9937:9963   */\n      mload\n        /* \"#utility.yul\":9928:9963   */\n      swap1\n      pop\n        /* \"#utility.yul\":9900:9977   */\n    tag_201:\n        /* \"#utility.yul\":10003:10070   */\n      tag_202\n        /* \"#utility.yul\":10063:10069   */\n      dup6\n        /* \"#utility.yul\":10056:10061   */\n      dup3\n        /* \"#utility.yul\":10003:10070   */\n      tag_88\n      jump\t// in\n    tag_202:\n        /* \"#utility.yul\":9997:10001   */\n      dup7\n        /* \"#utility.yul\":9990:10071   */\n      sstore\n        /* \"#utility.yul\":9859:10081   */\n      pop\n        /* \"#utility.yul\":9194:10081   */\n      jump(tag_199)\n        /* \"#utility.yul\":9224:9842   */\n    tag_200:\n        /* \"#utility.yul\":9276:9280   */\n      0x1f\n        /* \"#utility.yul\":9272:9281   */\n      not\n        /* \"#utility.yul\":9264:9270   */\n      dup5\n        /* \"#utility.yul\":9260:9282   */\n      and\n        /* \"#utility.yul\":9310:9347   */\n      tag_203\n        /* \"#utility.yul\":9342:9346   */\n      dup7\n        /* \"#utility.yul\":9310:9347   */\n      tag_74\n      jump\t// in\n    tag_203:\n        /* \"#utility.yul\":9369:9370   */\n      0x00\n        /* \"#utility.yul\":9383:9591   */\n    tag_204:\n        /* \"#utility.yul\":9397:9404   */\n      dup3\n        /* \"#utility.yul\":9394:9395   */\n      dup2\n        /* \"#utility.yul\":9391:9405   */\n      lt\n        /* \"#utility.yul\":9383:9591   */\n      iszero\n      tag_206\n      jumpi\n        /* \"#utility.yul\":9476:9485   */\n      dup5\n        /* \"#utility.yul\":9471:9474   */\n      dup10\n        /* \"#utility.yul\":9467:9486   */\n      add\n        /* \"#utility.yul\":9461:9487   */\n      mload\n        /* \"#utility.yul\":9453:9459   */\n      dup3\n        /* \"#utility.yul\":9446:9488   */\n      sstore\n        /* \"#utility.yul\":9527:9528   */\n      0x01\n        /* \"#utility.yul\":9519:9525   */\n      dup3\n        /* \"#utility.yul\":9515:9529   */\n      add\n        /* \"#utility.yul\":9505:9529   */\n      swap2\n      pop\n        /* \"#utility.yul\":9574:9576   */\n      0x20\n        /* \"#utility.yul\":9563:9572   */\n      dup6\n        /* \"#utility.yul\":9559:9577   */\n      add\n        /* \"#utility.yul\":9546:9577   */\n      swap5\n      pop\n        /* \"#utility.yul\":9420:9424   */\n      0x20\n        /* \"#utility.yul\":9417:9418   */\n      dup2\n        /* \"#utility.yul\":9413:9425   */\n      add\n        /* \"#utility.yul\":9408:9425   */\n      swap1\n      pop\n        /* \"#utility.yul\":9383:9591   */\n      jump(tag_204)\n    tag_206:\n        /* \"#utility.yul\":9619:9625   */\n      dup7\n        /* \"#utility.yul\":9610:9617   */\n      dup4\n        /* \"#utility.yul\":9607:9626   */\n      lt\n        /* \"#utility.yul\":9604:9783   */\n      iszero\n      tag_207\n      jumpi\n        /* \"#utility.yul\":9677:9686   */\n      dup5\n        /* \"#utility.yul\":9672:9675   */\n      dup10\n        /* \"#utility.yul\":9668:9687   */\n      add\n        /* \"#utility.yul\":9662:9688   */\n      mload\n        /* \"#utility.yul\":9720:9768   */\n      tag_208\n        /* \"#utility.yul\":9762:9766   */\n      0x1f\n        /* \"#utility.yul\":9754:9760   */\n      dup10\n        /* \"#utility.yul\":9750:9767   */\n      and\n        /* \"#utility.yul\":9739:9748   */\n      dup3\n        /* \"#utility.yul\":9720:9768   */\n      tag_87\n      jump\t// in\n    tag_208:\n        /* \"#utility.yul\":9712:9718   */\n      dup4\n        /* \"#utility.yul\":9705:9769   */\n      sstore\n        /* \"#utility.yul\":9627:9783   */\n      pop\n        /* \"#utility.yul\":9604:9783   */\n    tag_207:\n        /* \"#utility.yul\":9829:9830   */\n      0x01\n        /* \"#utility.yul\":9825:9826   */\n      0x02\n        /* \"#utility.yul\":9817:9823   */\n      dup9\n        /* \"#utility.yul\":9813:9827   */\n      mul\n        /* \"#utility.yul\":9809:9831   */\n      add\n        /* \"#utility.yul\":9803:9807   */\n      dup9\n        /* \"#utility.yul\":9796:9832   */\n      sstore\n        /* \"#utility.yul\":9231:9842   */\n      pop\n      pop\n      pop\n        /* \"#utility.yul\":9194:10081   */\n    tag_199:\n      pop\n        /* \"#utility.yul\":8784:10087   */\n      pop\n      pop\n      pop\n        /* \"#utility.yul\":8692:10087   */\n      pop\n      pop\n      jump\t// out\n        /* \"#utility.yul\":10093:10265   */\n    tag_89:\n        /* \"#utility.yul\":10233:10257   */\n      0x696e646578206973206f7574206f6620626f756e647300000000000000000000\n        /* \"#utility.yul\":10229:10230   */\n      0x00\n        /* \"#utility.yul\":10221:10227   */\n      dup3\n        /* \"#utility.yul\":10217:10231   */\n      add\n        /* \"#utility.yul\":10210:10258   */\n      mstore\n        /* \"#utility.yul\":10093:10265   */\n      pop\n      jump\t// out\n        /* \"#utility.yul\":10271:10637   */\n    tag_90:\n        /* \"#utility.yul\":10413:10416   */\n      0x00\n        /* \"#utility.yul\":10434:10501   */\n      tag_211\n        /* \"#utility.yul\":10498:10500   */\n      0x16\n        /* \"#utility.yul\":10493:10496   */\n      dup4\n        /* \"#utility.yul\":10434:10501   */\n      tag_69\n      jump\t// in\n    tag_211:\n        /* \"#utility.yul\":10427:10501   */\n      swap2\n      pop\n        /* \"#utility.yul\":10510:10603   */\n      tag_212\n        /* \"#utility.yul\":10599:10602   */\n      dup3\n        /* \"#utility.yul\":10510:10603   */\n      tag_89\n      jump\t// in\n    tag_212:\n        /* \"#utility.yul\":10628:10630   */\n      0x20\n        /* \"#utility.yul\":10623:10626   */\n      dup3\n        /* \"#utility.yul\":10619:10631   */\n      add\n        /* \"#utility.yul\":10612:10631   */\n      swap1\n      pop\n        /* \"#utility.yul\":10271:10637   */\n      swap2\n      swap1\n      pop\n      jump\t// out\n        /* \"#utility.yul\":10643:11062   */\n    tag_33:\n        /* \"#utility.yul\":10809:10813   */\n      0x00\n        /* \"#utility.yul\":10847:10849   */\n      0x20\n        /* \"#utility.yul\":10836:10845   */\n      dup3\n        /* \"#utility.yul\":10832:10850   */\n      add\n        /* \"#utility.yul\":10824:10850   */\n      swap1\n      pop\n        /* \"#utility.yul\":10896:10905   */\n      dup2\n        /* \"#utility.yul\":10890:10894   */\n      dup2\n        /* \"#utility.yul\":10886:10906   */\n      sub\n        /* \"#utility.yul\":10882:10883   */\n      0x00\n        /* \"#utility.yul\":10871:10880   */\n      dup4\n        /* \"#utility.yul\":10867:10884   */\n      add\n        /* \"#utility.yul\":10860:10907   */\n      mstore\n        /* \"#utility.yul\":10924:11055   */\n      tag_214\n        /* \"#utility.yul\":11050:11054   */\n      dup2\n        /* \"#utility.yul\":10924:11055   */\n      tag_90\n      jump\t// in\n    tag_214:\n        /* \"#utility.yul\":10916:11055   */\n      swap1\n      pop\n        /* \"#utility.yul\":10643:11062   */\n      swap2\n      swap1\n      pop\n      jump\t// out\n        /* \"#utility.yul\":11068:11248   */\n    tag_36:\n        /* \"#utility.yul\":11116:11193   */\n      0x4e487b7100000000000000000000000000000000000000000000000000000000\n        /* \"#utility.yul\":11113:11114   */\n      0x00\n        /* \"#utility.yul\":11106:11194   */\n      mstore\n        /* \"#utility.yul\":11213:11217   */\n      0x32\n        /* \"#utility.yul\":11210:11211   */\n      0x04\n        /* \"#utility.yul\":11203:11218   */\n      mstore\n        /* \"#utility.yul\":11237:11241   */\n      0x24\n        /* \"#utility.yul\":11234:11235   */\n      0x00\n        /* \"#utility.yul\":11227:11242   */\n      revert\n\n    auxdata: 0xa2646970667358221220491848465b5c6dad89322a4035c6d74b8eb475dffa20c3a9d5aa0672ab41e1ac64736f6c634300081a0033\n}\n",
				"bytecode": {
					"linkReferences": {},
					"object": "6080604052348015600e575f80fd5b506108ee8061001c5f395ff3fe608060405234801561000f575f80fd5b506004361061004a575f3560e01c806311456b471461004e5780636b8ff5741461006a57806371e5ee5f1461009a578063aabe984d146100ca575b5f80fd5b6100686004803603810190610063919061040d565b6100e8565b005b610084600480360381019061007f9190610487565b61011c565b6040516100919190610512565b60405180910390f35b6100b460048036038101906100af9190610487565b610210565b6040516100c19190610512565b60405180910390f35b6100d26102b5565b6040516100df9190610541565b60405180910390f35b5f81908060018154018082558091505060019003905f5260205f20015f9091909190915090816101189190610754565b5050565b60606101266102b5565b8210610167576040517f08c379a000000000000000000000000000000000000000000000000000000000815260040161015e9061086d565b60405180910390fd5b5f828154811061017a5761017961088b565b5b905f5260205f2001805461018d90610587565b80601f01602080910402602001604051908101604052809291908181526020018280546101b990610587565b80156102045780601f106101db57610100808354040283529160200191610204565b820191905f5260205f20905b8154815290600101906020018083116101e757829003601f168201915b50505050509050919050565b5f818154811061021e575f80fd5b905f5260205f20015f91509050805461023690610587565b80601f016020809104026020016040519081016040528092919081815260200182805461026290610587565b80156102ad5780601f10610284576101008083540402835291602001916102ad565b820191905f5260205f20905b81548152906001019060200180831161029057829003601f168201915b505050505081565b5f8080549050905090565b5f604051905090565b5f80fd5b5f80fd5b5f80fd5b5f80fd5b5f601f19601f8301169050919050565b7f4e487b71000000000000000000000000000000000000000000000000000000005f52604160045260245ffd5b61031f826102d9565b810181811067ffffffffffffffff8211171561033e5761033d6102e9565b5b80604052505050565b5f6103506102c0565b905061035c8282610316565b919050565b5f67ffffffffffffffff82111561037b5761037a6102e9565b5b610384826102d9565b9050602081019050919050565b828183375f83830152505050565b5f6103b16103ac84610361565b610347565b9050828152602081018484840111156103cd576103cc6102d5565b5b6103d8848285610391565b509392505050565b5f82601f8301126103f4576103f36102d1565b5b813561040484826020860161039f565b91505092915050565b5f60208284031215610422576104216102c9565b5b5f82013567ffffffffffffffff81111561043f5761043e6102cd565b5b61044b848285016103e0565b91505092915050565b5f819050919050565b61046681610454565b8114610470575f80fd5b50565b5f813590506104818161045d565b92915050565b5f6020828403121561049c5761049b6102c9565b5b5f6104a984828501610473565b91505092915050565b5f81519050919050565b5f82825260208201905092915050565b8281835e5f83830152505050565b5f6104e4826104b2565b6104ee81856104bc565b93506104fe8185602086016104cc565b610507816102d9565b840191505092915050565b5f6020820190508181035f83015261052a81846104da565b905092915050565b61053b81610454565b82525050565b5f6020820190506105545f830184610532565b92915050565b7f4e487b71000000000000000000000000000000000000000000000000000000005f52602260045260245ffd5b5f600282049050600182168061059e57607f821691505b6020821081036105b1576105b061055a565b5b50919050565b5f819050815f5260205f209050919050565b5f6020601f8301049050919050565b5f82821b905092915050565b5f600883026106137fffffffffffffffffffffffffffffffffffffffffffffffffffffffffffffffff826105d8565b61061d86836105d8565b95508019841693508086168417925050509392505050565b5f819050919050565b5f61065861065361064e84610454565b610635565b610454565b9050919050565b5f819050919050565b6106718361063e565b61068561067d8261065f565b8484546105e4565b825550505050565b5f90565b61069961068d565b6106a4818484610668565b505050565b5b818110156106c7576106bc5f82610691565b6001810190506106aa565b5050565b601f82111561070c576106dd816105b7565b6106e6846105c9565b810160208510156106f5578190505b610709610701856105c9565b8301826106a9565b50505b505050565b5f82821c905092915050565b5f61072c5f1984600802610711565b1980831691505092915050565b5f610744838361071d565b9150826002028217905092915050565b61075d826104b2565b67ffffffffffffffff811115610776576107756102e9565b5b6107808254610587565b61078b8282856106cb565b5f60209050601f8311600181146107bc575f84156107aa578287015190505b6107b48582610739565b86555061081b565b601f1984166107ca866105b7565b5f5b828110156107f1578489015182556001820191506020850194506020810190506107cc565b8683101561080e578489015161080a601f89168261071d565b8355505b6001600288020188555050505b505050505050565b7f696e646578206973206f7574206f6620626f756e6473000000000000000000005f82015250565b5f6108576016836104bc565b915061086282610823565b602082019050919050565b5f6020820190508181035f8301526108848161084b565b9050919050565b7f4e487b71000000000000000000000000000000000000000000000000000000005f52603260045260245ffdfea2646970667358221220491848465b5c6dad89322a4035c6d74b8eb475dffa20c3a9d5aa0672ab41e1ac64736f6c634300081a0033",
					"opcodes": "PUSH1 0x80 PUSH1 0x40 MSTORE CALLVALUE DUP1 ISZERO PUSH1 0xE JUMPI PUSH0 DUP1 REVERT JUMPDEST POP PUSH2 0x8EE DUP1 PUSH2 0x1C PUSH0 CODECOPY PUSH0 RETURN INVALID PUSH1 0x80 PUSH1 0x40 MSTORE CALLVALUE DUP1 ISZERO PUSH2 0xF JUMPI PUSH0 DUP1 REVERT JUMPDEST POP PUSH1 0x4 CALLDATASIZE LT PUSH2 0x4A JUMPI PUSH0 CALLDATALOAD PUSH1 0xE0 SHR DUP1 PUSH4 0x11456B47 EQ PUSH2 0x4E JUMPI DUP1 PUSH4 0x6B8FF574 EQ PUSH2 0x6A JUMPI DUP1 PUSH4 0x71E5EE5F EQ PUSH2 0x9A JUMPI DUP1 PUSH4 0xAABE984D EQ PUSH2 0xCA JUMPI JUMPDEST PUSH0 DUP1 REVERT JUMPDEST PUSH2 0x68 PUSH1 0x4 DUP1 CALLDATASIZE SUB DUP2 ADD SWAP1 PUSH2 0x63 SWAP2 SWAP1 PUSH2 0x40D JUMP JUMPDEST PUSH2 0xE8 JUMP JUMPDEST STOP JUMPDEST PUSH2 0x84 PUSH1 0x4 DUP1 CALLDATASIZE SUB DUP2 ADD SWAP1 PUSH2 0x7F SWAP2 SWAP1 PUSH2 0x487 JUMP JUMPDEST PUSH2 0x11C JUMP JUMPDEST PUSH1 0x40 MLOAD PUSH2 0x91 SWAP2 SWAP1 PUSH2 0x512 JUMP JUMPDEST PUSH1 0x40 MLOAD DUP1 SWAP2 SUB SWAP1 RETURN JUMPDEST PUSH2 0xB4 PUSH1 0x4 DUP1 CALLDATASIZE SUB DUP2 ADD SWAP1 PUSH2 0xAF SWAP2 SWAP1 PUSH2 0x487 JUMP JUMPDEST PUSH2 0x210 JUMP JUMPDEST PUSH1 0x40 MLOAD PUSH2 0xC1 SWAP2 SWAP1 PUSH2 0x512 JUMP JUMPDEST PUSH1 0x40 MLOAD DUP1 SWAP2 SUB SWAP1 RETURN JUMPDEST PUSH2 0xD2 PUSH2 0x2B5 JUMP JUMPDEST PUSH1 0x40 MLOAD PUSH2 0xDF SWAP2 SWAP1 PUSH2 0x541 JUMP JUMPDEST PUSH1 0x40 MLOAD DUP1 SWAP2 SUB SWAP1 RETURN JUMPDEST PUSH0 DUP2 SWAP1 DUP1 PUSH1 0x1 DUP2 SLOAD ADD DUP1 DUP3 SSTORE DUP1 SWAP2 POP POP PUSH1 0x1 SWAP1 SUB SWAP1 PUSH0 MSTORE PUSH1 0x20 PUSH0 KECCAK256 ADD PUSH0 SWAP1 SWAP2 SWAP1 SWAP2 SWAP1 SWAP2 POP SWAP1 DUP2 PUSH2 0x118 SWAP2 SWAP1 PUSH2 0x754 JUMP JUMPDEST POP POP JUMP JUMPDEST PUSH1 0x60 PUSH2 0x126 PUSH2 0x2B5 JUMP JUMPDEST DUP3 LT PUSH2 0x167 JUMPI PUSH1 0x40 MLOAD PUSH32 0x8C379A000000000000000000000000000000000000000000000000000000000 DUP2 MSTORE PUSH1 0x4 ADD PUSH2 0x15E SWAP1 PUSH2 0x86D JUMP JUMPDEST PUSH1 0x40 MLOAD DUP1 SWAP2 SUB SWAP1 REVERT JUMPDEST PUSH0 DUP3 DUP2 SLOAD DUP2 LT PUSH2 0x17A JUMPI PUSH2 0x179 PUSH2 0x88B JUMP JUMPDEST JUMPDEST SWAP1 PUSH0 MSTORE PUSH1 0x20 PUSH0 KECCAK256 ADD DUP1 SLOAD PUSH2 0x18D SWAP1 PUSH2 0x587 JUMP JUMPDEST DUP1 PUSH1 0x1F ADD PUSH1 0x20 DUP1 SWAP2 DIV MUL PUSH1 0x20 ADD PUSH1 0x40 MLOAD SWAP1 DUP2 ADD PUSH1 0x40 MSTORE DUP1 SWAP3 SWAP2 SWAP1 DUP2 DUP2 MSTORE PUSH1 0x20 ADD DUP3 DUP1 SLOAD PUSH2 0x1B9 SWAP1 PUSH2 0x587 JUMP JUMPDEST DUP1 ISZERO PUSH2 0x204 JUMPI DUP1 PUSH1 0x1F LT PUSH2 0x1DB JUMPI PUSH2 0x100 DUP1 DUP4 SLOAD DIV MUL DUP4 MSTORE SWAP2 PUSH1 0x20 ADD SWAP2 PUSH2 0x204 JUMP JUMPDEST DUP3 ADD SWAP2 SWAP1 PUSH0 MSTORE PUSH1 0x20 PUSH0 KECCAK256 SWAP1 JUMPDEST DUP2 SLOAD DUP2 MSTORE SWAP1 PUSH1 0x1 ADD SWAP1 PUSH1 0x20 ADD DUP1 DUP4 GT PUSH2 0x1E7 JUMPI DUP3 SWAP1 SUB PUSH1 0x1F AND DUP3 ADD SWAP2 JUMPDEST POP POP POP POP POP SWAP1 POP SWAP2 SWAP1 POP JUMP JUMPDEST PUSH0 DUP2 DUP2 SLOAD DUP2 LT PUSH2 0x21E JUMPI PUSH0 DUP1 REVERT JUMPDEST SWAP1 PUSH0 MSTORE PUSH1 0x20 PUSH0 KECCAK256 ADD PUSH0 SWAP2 POP SWAP1 POP DUP1 SLOAD PUSH2 0x236 SWAP1 PUSH2 0x587 JUMP JUMPDEST DUP1 PUSH1 0x1F ADD PUSH1 0x20 DUP1 SWAP2 DIV MUL PUSH1 0x20 ADD PUSH1 0x40 MLOAD SWAP1 DUP2 ADD PUSH1 0x40 MSTORE DUP1 SWAP3 SWAP2 SWAP1 DUP2 DUP2 MSTORE PUSH1 0x20 ADD DUP3 DUP1 SLOAD PUSH2 0x262 SWAP1 PUSH2 0x587 JUMP JUMPDEST DUP1 ISZERO PUSH2 0x2AD JUMPI DUP1 PUSH1 0x1F LT PUSH2 0x284 JUMPI PUSH2 0x100 DUP1 DUP4 SLOAD DIV MUL DUP4 MSTORE SWAP2 PUSH1 0x20 ADD SWAP2 PUSH2 0x2AD JUMP JUMPDEST DUP3 ADD SWAP2 SWAP1 PUSH0 MSTORE PUSH1 0x20 PUSH0 KECCAK256 SWAP1 JUMPDEST DUP2 SLOAD DUP2 MSTORE SWAP1 PUSH1 0x1 ADD SWAP1 PUSH1 0x20 ADD DUP1 DUP4 GT PUSH2 0x290 JUMPI DUP3 SWAP1 SUB PUSH1 0x1F AND DUP3 ADD SWAP2 JUMPDEST POP POP POP POP POP DUP2 JUMP JUMPDEST PUSH0 DUP1 DUP1 SLOAD SWAP1 POP SWAP1 POP SWAP1 JUMP JUMPDEST PUSH0 PUSH1 0x40 MLOAD SWAP1 POP SWAP1 JUMP JUMPDEST PUSH0 DUP1 REVERT JUMPDEST PUSH0 DUP1 REVERT JUMPDEST PUSH0 DUP1 REVERT JUMPDEST PUSH0 DUP1 REVERT JUMPDEST PUSH0 PUSH1 0x1F NOT PUSH1 0x1F DUP4 ADD AND SWAP1 POP SWAP2 SWAP1 POP JUMP JUMPDEST PUSH32 0x4E487B7100000000000000000000000000000000000000000000000000000000 PUSH0 MSTORE PUSH1 0x41 PUSH1 0x4 MSTORE PUSH1 0x24 PUSH0 REVERT JUMPDEST PUSH2 0x31F DUP3 PUSH2 0x2D9 JUMP JUMPDEST DUP2 ADD DUP2 DUP2 LT PUSH8 0xFFFFFFFFFFFFFFFF DUP3 GT OR ISZERO PUSH2 0x33E JUMPI PUSH2 0x33D PUSH2 0x2E9 JUMP JUMPDEST JUMPDEST DUP1 PUSH1 0x40 MSTORE POP POP POP JUMP JUMPDEST PUSH0 PUSH2 0x350 PUSH2 0x2C0 JUMP JUMPDEST SWAP1 POP PUSH2 0x35C DUP3 DUP3 PUSH2 0x316 JUMP JUMPDEST SWAP2 SWAP1 POP JUMP JUMPDEST PUSH0 PUSH8 0xFFFFFFFFFFFFFFFF DUP3 GT ISZERO PUSH2 0x37B JUMPI PUSH2 0x37A PUSH2 0x2E9 JUMP JUMPDEST JUMPDEST PUSH2 0x384 DUP3 PUSH2 0x2D9 JUMP JUMPDEST SWAP1 POP PUSH1 0x20 DUP2 ADD SWAP1 POP SWAP2 SWAP1 POP JUMP JUMPDEST DUP3 DUP2 DUP4 CALLDATACOPY PUSH0 DUP4 DUP4 ADD MSTORE POP POP POP JUMP JUMPDEST PUSH0 PUSH2 0x3B1 PUSH2 0x3AC DUP5 PUSH2 0x361 JUMP JUMPDEST PUSH2 0x347 JUMP JUMPDEST SWAP1 POP DUP3 DUP2 MSTORE PUSH1 0x20 DUP2 ADD DUP5 DUP5 DUP5 ADD GT ISZERO PUSH2 0x3CD JUMPI PUSH2 0x3CC PUSH2 0x2D5 JUMP JUMPDEST JUMPDEST PUSH2 0x3D8 DUP5 DUP3 DUP6 PUSH2 0x391 JUMP JUMPDEST POP SWAP4 SWAP3 POP POP POP JUMP JUMPDEST PUSH0 DUP3 PUSH1 0x1F DUP4 ADD SLT PUSH2 0x3F4 JUMPI PUSH2 0x3F3 PUSH2 0x2D1 JUMP JUMPDEST JUMPDEST DUP2 CALLDATALOAD PUSH2 0x404 DUP5 DUP3 PUSH1 0x20 DUP7 ADD PUSH2 0x39F JUMP JUMPDEST SWAP2 POP POP SWAP3 SWAP2 POP POP JUMP JUMPDEST PUSH0 PUSH1 0x20 DUP3 DUP5 SUB SLT ISZERO PUSH2 0x422 JUMPI PUSH2 0x421 PUSH2 0x2C9 JUMP JUMPDEST JUMPDEST PUSH0 DUP3 ADD CALLDATALOAD PUSH8 0xFFFFFFFFFFFFFFFF DUP2 GT ISZERO PUSH2 0x43F JUMPI PUSH2 0x43E PUSH2 0x2CD JUMP JUMPDEST JUMPDEST PUSH2 0x44B DUP5 DUP3 DUP6 ADD PUSH2 0x3E0 JUMP JUMPDEST SWAP2 POP POP SWAP3 SWAP2 POP POP JUMP JUMPDEST PUSH0 DUP2 SWAP1 POP SWAP2 SWAP1 POP JUMP JUMPDEST PUSH2 0x466 DUP2 PUSH2 0x454 JUMP JUMPDEST DUP2 EQ PUSH2 0x470 JUMPI PUSH0 DUP1 REVERT JUMPDEST POP JUMP JUMPDEST PUSH0 DUP2 CALLDATALOAD SWAP1 POP PUSH2 0x481 DUP2 PUSH2 0x45D JUMP JUMPDEST SWAP3 SWAP2 POP POP JUMP JUMPDEST PUSH0 PUSH1 0x20 DUP3 DUP5 SUB SLT ISZERO PUSH2 0x49C JUMPI PUSH2 0x49B PUSH2 0x2C9 JUMP JUMPDEST JUMPDEST PUSH0 PUSH2 0x4A9 DUP5 DUP3 DUP6 ADD PUSH2 0x473 JUMP JUMPDEST SWAP2 POP POP SWAP3 SWAP2 POP POP JUMP JUMPDEST PUSH0 DUP2 MLOAD SWAP1 POP SWAP2 SWAP1 POP JUMP JUMPDEST PUSH0 DUP3 DUP3 MSTORE PUSH1 0x20 DUP3 ADD SWAP1 POP SWAP3 SWAP2 POP POP JUMP JUMPDEST DUP3 DUP2 DUP4 MCOPY PUSH0 DUP4 DUP4 ADD MSTORE POP POP POP JUMP JUMPDEST PUSH0 PUSH2 0x4E4 DUP3 PUSH2 0x4B2 JUMP JUMPDEST PUSH2 0x4EE DUP2 DUP6 PUSH2 0x4BC JUMP JUMPDEST SWAP4 POP PUSH2 0x4FE DUP2 DUP6 PUSH1 0x20 DUP7 ADD PUSH2 0x4CC JUMP JUMPDEST PUSH2 0x507 DUP2 PUSH2 0x2D9 JUMP JUMPDEST DUP5 ADD SWAP2 POP POP SWAP3 SWAP2 POP POP JUMP JUMPDEST PUSH0 PUSH1 0x20 DUP3 ADD SWAP1 POP DUP2 DUP2 SUB PUSH0 DUP4 ADD MSTORE PUSH2 0x52A DUP2 DUP5 PUSH2 0x4DA JUMP JUMPDEST SWAP1 POP SWAP3 SWAP2 POP POP JUMP JUMPDEST PUSH2 0x53B DUP2 PUSH2 0x454 JUMP JUMPDEST DUP3 MSTORE POP POP JUMP JUMPDEST PUSH0 PUSH1 0x20 DUP3 ADD SWAP1 POP PUSH2 0x554 PUSH0 DUP4 ADD DUP5 PUSH2 0x532 JUMP JUMPDEST SWAP3 SWAP2 POP POP JUMP JUMPDEST PUSH32 0x4E487B7100000000000000000000000000000000000000000000000000000000 PUSH0 MSTORE PUSH1 0x22 PUSH1 0x4 MSTORE PUSH1 0x24 PUSH0 REVERT JUMPDEST PUSH0 PUSH1 0x2 DUP3 DIV SWAP1 POP PUSH1 0x1 DUP3 AND DUP1 PUSH2 0x59E JUMPI PUSH1 0x7F DUP3 AND SWAP2 POP JUMPDEST PUSH1 0x20 DUP3 LT DUP2 SUB PUSH2 0x5B1 JUMPI PUSH2 0x5B0 PUSH2 0x55A JUMP JUMPDEST JUMPDEST POP SWAP2 SWAP1 POP JUMP JUMPDEST PUSH0 DUP2 SWAP1 POP DUP2 PUSH0 MSTORE PUSH1 0x20 PUSH0 KECCAK256 SWAP1 POP SWAP2 SWAP1 POP JUMP JUMPDEST PUSH0 PUSH1 0x20 PUSH1 0x1F DUP4 ADD DIV SWAP1 POP SWAP2 SWAP1 POP JUMP JUMPDEST PUSH0 DUP3 DUP3 SHL SWAP1 POP SWAP3 SWAP2 POP POP JUMP JUMPDEST PUSH0 PUSH1 0x8 DUP4 MUL PUSH2 0x613 PUSH32 0xFFFFFFFFFFFFFFFFFFFFFFFFFFFFFFFFFFFFFFFFFFFFFFFFFFFFFFFFFFFFFFFF DUP3 PUSH2 0x5D8 JUMP JUMPDEST PUSH2 0x61D DUP7 DUP4 PUSH2 0x5D8 JUMP JUMPDEST SWAP6 POP DUP1 NOT DUP5 AND SWAP4 POP DUP1 DUP7 AND DUP5 OR SWAP3 POP POP POP SWAP4 SWAP3 POP POP POP JUMP JUMPDEST PUSH0 DUP2 SWAP1 POP SWAP2 SWAP1 POP JUMP JUMPDEST PUSH0 PUSH2 0x658 PUSH2 0x653 PUSH2 0x64E DUP5 PUSH2 0x454 JUMP JUMPDEST PUSH2 0x635 JUMP JUMPDEST PUSH2 0x454 JUMP JUMPDEST SWAP1 POP SWAP2 SWAP1 POP JUMP JUMPDEST PUSH0 DUP2 SWAP1 POP SWAP2 SWAP1 POP JUMP JUMPDEST PUSH2 0x671 DUP4 PUSH2 0x63E JUMP JUMPDEST PUSH2 0x685 PUSH2 0x67D DUP3 PUSH2 0x65F JUMP JUMPDEST DUP5 DUP5 SLOAD PUSH2 0x5E4 JUMP JUMPDEST DUP3 SSTORE POP POP POP POP JUMP JUMPDEST PUSH0 SWAP1 JUMP JUMPDEST PUSH2 0x699 PUSH2 0x68D JUMP JUMPDEST PUSH2 0x6A4 DUP2 DUP5 DUP5 PUSH2 0x668 JUMP JUMPDEST POP POP POP JUMP JUMPDEST JUMPDEST DUP2 DUP2 LT ISZERO PUSH2 0x6C7 JUMPI PUSH2 0x6BC PUSH0 DUP3 PUSH2 0x691 JUMP JUMPDEST PUSH1 0x1 DUP2 ADD SWAP1 POP PUSH2 0x6AA JUMP JUMPDEST POP POP JUMP JUMPDEST PUSH1 0x1F DUP3 GT ISZERO PUSH2 0x70C JUMPI PUSH2 0x6DD DUP2 PUSH2 0x5B7 JUMP JUMPDEST PUSH2 0x6E6 DUP5 PUSH2 0x5C9 JUMP JUMPDEST DUP2 ADD PUSH1 0x20 DUP6 LT ISZERO PUSH2 0x6F5 JUMPI DUP2 SWAP1 POP JUMPDEST PUSH2 0x709 PUSH2 0x701 DUP6 PUSH2 0x5C9 JUMP JUMPDEST DUP4 ADD DUP3 PUSH2 0x6A9 JUMP JUMPDEST POP POP JUMPDEST POP POP POP JUMP JUMPDEST PUSH0 DUP3 DUP3 SHR SWAP1 POP SWAP3 SWAP2 POP POP JUMP JUMPDEST PUSH0 PUSH2 0x72C PUSH0 NOT DUP5 PUSH1 0x8 MUL PUSH2 0x711 JUMP JUMPDEST NOT DUP1 DUP4 AND SWAP2 POP POP SWAP3 SWAP2 POP POP JUMP JUMPDEST PUSH0 PUSH2 0x744 DUP4 DUP4 PUSH2 0x71D JUMP JUMPDEST SWAP2 POP DUP3 PUSH1 0x2 MUL DUP3 OR SWAP1 POP SWAP3 SWAP2 POP POP JUMP JUMPDEST PUSH2 0x75D DUP3 PUSH2 0x4B2 JUMP JUMPDEST PUSH8 0xFFFFFFFFFFFFFFFF DUP2 GT ISZERO PUSH2 0x776 JUMPI PUSH2 0x775 PUSH2 0x2E9 JUMP JUMPDEST JUMPDEST PUSH2 0x780 DUP3 SLOAD PUSH2 0x587 JUMP JUMPDEST PUSH2 0x78B DUP3 DUP3 DUP6 PUSH2 0x6CB JUMP JUMPDEST PUSH0 PUSH1 0x20 SWAP1 POP PUSH1 0x1F DUP4 GT PUSH1 0x1 DUP2 EQ PUSH2 0x7BC JUMPI PUSH0 DUP5 ISZERO PUSH2 0x7AA JUMPI DUP3 DUP8 ADD MLOAD SWAP1 POP JUMPDEST PUSH2 0x7B4 DUP6 DUP3 PUSH2 0x739 JUMP JUMPDEST DUP7 SSTORE POP PUSH2 0x81B JUMP JUMPDEST PUSH1 0x1F NOT DUP5 AND PUSH2 0x7CA DUP7 PUSH2 0x5B7 JUMP JUMPDEST PUSH0 JUMPDEST DUP3 DUP2 LT ISZERO PUSH2 0x7F1 JUMPI DUP5 DUP10 ADD MLOAD DUP3 SSTORE PUSH1 0x1 DUP3 ADD SWAP2 POP PUSH1 0x20 DUP6 ADD SWAP5 POP PUSH1 0x20 DUP2 ADD SWAP1 POP PUSH2 0x7CC JUMP JUMPDEST DUP7 DUP4 LT ISZERO PUSH2 0x80E JUMPI DUP5 DUP10 ADD MLOAD PUSH2 0x80A PUSH1 0x1F DUP10 AND DUP3 PUSH2 0x71D JUMP JUMPDEST DUP4 SSTORE POP JUMPDEST PUSH1 0x1 PUSH1 0x2 DUP9 MUL ADD DUP9 SSTORE POP POP POP JUMPDEST POP POP POP POP POP POP JUMP JUMPDEST PUSH32 0x696E646578206973206F7574206F6620626F756E647300000000000000000000 PUSH0 DUP3 ADD MSTORE POP JUMP JUMPDEST PUSH0 PUSH2 0x857 PUSH1 0x16 DUP4 PUSH2 0x4BC JUMP JUMPDEST SWAP2 POP PUSH2 0x862 DUP3 PUSH2 0x823 JUMP JUMPDEST PUSH1 0x20 DUP3 ADD SWAP1 POP SWAP2 SWAP1 POP JUMP JUMPDEST PUSH0 PUSH1 0x20 DUP3 ADD SWAP1 POP DUP2 DUP2 SUB PUSH0 DUP4 ADD MSTORE PUSH2 0x884 DUP2 PUSH2 0x84B JUMP JUMPDEST SWAP1 POP SWAP2 SWAP1 POP JUMP JUMPDEST PUSH32 0x4E487B7100000000000000000000000000000000000000000000000000000000 PUSH0 MSTORE PUSH1 0x32 PUSH1 0x4 MSTORE PUSH1 0x24 PUSH0 REVERT INVALID LOG2 PUSH5 0x6970667358 0x22 SLT KECCAK256 BLOBHASH XOR BASEFEE CHAINID JUMPDEST TLOAD PUSH14 0xAD89322A4035C6D74B8EB475DFFA KECCAK256 0xC3 0xA9 0xD5 0xAA MOD PUSH19 0xAB41E1AC64736F6C634300081A003300000000 "
				},
				"gasEstimates": {
					"creation": {
						"codeDepositCost": "457200",
						"executionCost": "491",
						"totalCost": "457691"
					},
					"external": {
						"addName(string)": "infinite",
						"arr(uint256)": "infinite",
						"getName(uint256)": "infinite",
						"getNamesCount()": "2484"
					}
				},
				"methodIdentifiers": {
					"addName(string)": "11456b47",
					"arr(uint256)": "71e5ee5f",
					"getName(uint256)": "6b8ff574",
					"getNamesCount()": "aabe984d"
				}
			},
			"storageLayout": {
				"storage": [
					{
						"astId": 4,
						"contract": "Assignments/program-14.sol:StringArray",
						"label": "arr",
						"offset": 0,
						"slot": "0",
						"type": "t_array(t_string_storage)dyn_storage"
					}
				],
				"types": {
					"t_array(t_string_storage)dyn_storage": {
						"base": "t_string_storage",
						"encoding": "dynamic_array",
						"label": "string[]",
						"numberOfBytes": "32"
					},
					"t_string_storage": {
						"encoding": "bytes",
						"label": "string",
						"numberOfBytes": "32"
					}
				}
			},
			"userdoc": {
				"kind": "user",
				"methods": {},
				"version": 1
			}
		}
	}
}