{
	"Assignments/program-10.sol": {
		"Votes": {
			"abi": [
				{
					"inputs": [],
					"name": "check",
					"outputs": [
						{
							"internalType": "string",
							"name": "",
							"type": "string"
						}
					],
					"stateMutability": "view",
					"type": "function"
				},
				{
					"inputs": [
						{
							"internalType": "bool",
							"name": "vote",
							"type": "bool"
						}
					],
					"name": "getVote",
					"outputs": [],
					"stateMutability": "nonpayable",
					"type": "function"
				}
			],
			"devdoc": {
				"kind": "dev",
				"methods": {},
				"version": 1
			},
			"evm": {
				"assembly": "    /* \"Assignments/program-10.sol\":62:592  contract Votes{... */\n  mstore(0x40, 0x80)\n  callvalue\n  dup1\n  iszero\n  tag_1\n  jumpi\n  0x00\n  dup1\n  revert\ntag_1:\n  pop\n  dataSize(sub_0)\n  dup1\n  dataOffset(sub_0)\n  0x00\n  codecopy\n  0x00\n  return\nstop\n\nsub_0: assembly {\n        /* \"Assignments/program-10.sol\":62:592  contract Votes{... */\n      mstore(0x40, 0x80)\n      callvalue\n      dup1\n      iszero\n      tag_1\n      jumpi\n      0x00\n      dup1\n      revert\n    tag_1:\n      pop\n      jumpi(tag_2, lt(calldatasize, 0x04))\n      shr(0xe0, calldataload(0x00))\n      dup1\n      0x919840ad\n      eq\n      tag_3\n      jumpi\n      dup1\n      0xe7af45c9\n      eq\n      tag_4\n      jumpi\n    tag_2:\n      0x00\n      dup1\n      revert\n        /* \"Assignments/program-10.sol\":291:589  function check() public view returns (string memory) {... */\n    tag_3:\n      tag_5\n      tag_6\n      jump\t// in\n    tag_5:\n      mload(0x40)\n      tag_7\n      swap2\n      swap1\n      tag_8\n      jump\t// in\n    tag_7:\n      mload(0x40)\n      dup1\n      swap2\n      sub\n      swap1\n      return\n        /* \"Assignments/program-10.sol\":124:285  function getVote(bool vote) public{... */\n    tag_4:\n      tag_9\n      0x04\n      dup1\n      calldatasize\n      sub\n      dup2\n      add\n      swap1\n      tag_10\n      swap2\n      swap1\n      tag_11\n      jump\t// in\n    tag_10:\n      tag_12\n      jump\t// in\n    tag_9:\n      stop\n        /* \"Assignments/program-10.sol\":291:589  function check() public view returns (string memory) {... */\n    tag_6:\n        /* \"Assignments/program-10.sol\":329:342  string memory */\n      0x60\n        /* \"Assignments/program-10.sol\":369:376  NoVotes */\n      sload(0x01)\n        /* \"Assignments/program-10.sol\":358:366  YesVotes */\n      sload(0x00)\n        /* \"Assignments/program-10.sol\":358:376  YesVotes > NoVotes */\n      gt\n        /* \"Assignments/program-10.sol\":355:582  if(YesVotes > NoVotes) {... */\n      iszero\n      tag_14\n      jumpi\n        /* \"Assignments/program-10.sol\":393:417  return \"Proposal Passed\" */\n      mload(0x40)\n      dup1\n      0x40\n      add\n      0x40\n      mstore\n      dup1\n      0x0f\n      dup2\n      mstore\n      0x20\n      add\n      0x50726f706f73616c205061737365640000000000000000000000000000000000\n      dup2\n      mstore\n      pop\n      swap1\n      pop\n      jump(tag_13)\n        /* \"Assignments/program-10.sol\":355:582  if(YesVotes > NoVotes) {... */\n    tag_14:\n        /* \"Assignments/program-10.sol\":460:467  NoVotes */\n      sload(0x01)\n        /* \"Assignments/program-10.sol\":448:456  YesVotes */\n      sload(0x00)\n        /* \"Assignments/program-10.sol\":448:467  YesVotes == NoVotes */\n      sub\n        /* \"Assignments/program-10.sol\":445:582  if(YesVotes == NoVotes){... */\n      tag_16\n      jumpi\n        /* \"Assignments/program-10.sol\":483:505  return \"Proposal Tied\" */\n      mload(0x40)\n      dup1\n      0x40\n      add\n      0x40\n      mstore\n      dup1\n      0x0d\n      dup2\n      mstore\n      0x20\n      add\n      0x50726f706f73616c205469656400000000000000000000000000000000000000\n      dup2\n      mstore\n      pop\n      swap1\n      pop\n      jump(tag_13)\n        /* \"Assignments/program-10.sol\":445:582  if(YesVotes == NoVotes){... */\n    tag_16:\n        /* \"Assignments/program-10.sol\":546:570  return \"Proposal Failed\" */\n      mload(0x40)\n      dup1\n      0x40\n      add\n      0x40\n      mstore\n      dup1\n      0x0f\n      dup2\n      mstore\n      0x20\n      add\n      0x50726f706f73616c204661696c65640000000000000000000000000000000000\n      dup2\n      mstore\n      pop\n      swap1\n      pop\n        /* \"Assignments/program-10.sol\":291:589  function check() public view returns (string memory) {... */\n    tag_13:\n      swap1\n      jump\t// out\n        /* \"Assignments/program-10.sol\":124:285  function getVote(bool vote) public{... */\n    tag_12:\n        /* \"Assignments/program-10.sol\":180:184  true */\n      0x01\n        /* \"Assignments/program-10.sol\":172:184  vote == true */\n      iszero\n      iszero\n        /* \"Assignments/program-10.sol\":172:176  vote */\n      dup2\n        /* \"Assignments/program-10.sol\":172:184  vote == true */\n      iszero\n      iszero\n      sub\n        /* \"Assignments/program-10.sol\":169:278  if(vote == true){... */\n      tag_19\n      jumpi\n        /* \"Assignments/program-10.sol\":212:213  1 */\n      0x01\n        /* \"Assignments/program-10.sol\":200:208  YesVotes */\n      0x00\n      dup1\n        /* \"Assignments/program-10.sol\":200:213  YesVotes += 1 */\n      dup3\n      dup3\n      sload\n      tag_20\n      swap2\n      swap1\n      tag_21\n      jump\t// in\n    tag_20:\n      swap3\n      pop\n      pop\n      dup2\n      swap1\n      sstore\n      pop\n        /* \"Assignments/program-10.sol\":169:278  if(vote == true){... */\n      jump(tag_22)\n    tag_19:\n        /* \"Assignments/program-10.sol\":265:266  1 */\n      0x01\n        /* \"Assignments/program-10.sol\":254:261  NoVotes */\n      dup1\n      0x00\n        /* \"Assignments/program-10.sol\":254:266  NoVotes += 1 */\n      dup3\n      dup3\n      sload\n      tag_23\n      swap2\n      swap1\n      tag_21\n      jump\t// in\n    tag_23:\n      swap3\n      pop\n      pop\n      dup2\n      swap1\n      sstore\n      pop\n        /* \"Assignments/program-10.sol\":169:278  if(vote == true){... */\n    tag_22:\n        /* \"Assignments/program-10.sol\":124:285  function getVote(bool vote) public{... */\n      pop\n      jump\t// out\n        /* \"#utility.yul\":7:106   */\n    tag_24:\n        /* \"#utility.yul\":59:65   */\n      0x00\n        /* \"#utility.yul\":93:98   */\n      dup2\n        /* \"#utility.yul\":87:99   */\n      mload\n        /* \"#utility.yul\":77:99   */\n      swap1\n      pop\n        /* \"#utility.yul\":7:106   */\n      swap2\n      swap1\n      pop\n      jump\t// out\n        /* \"#utility.yul\":112:281   */\n    tag_25:\n        /* \"#utility.yul\":196:207   */\n      0x00\n        /* \"#utility.yul\":230:236   */\n      dup3\n        /* \"#utility.yul\":225:228   */\n      dup3\n        /* \"#utility.yul\":218:237   */\n      mstore\n        /* \"#utility.yul\":270:274   */\n      0x20\n        /* \"#utility.yul\":265:268   */\n      dup3\n        /* \"#utility.yul\":261:275   */\n      add\n        /* \"#utility.yul\":246:275   */\n      swap1\n      pop\n        /* \"#utility.yul\":112:281   */\n      swap3\n      swap2\n      pop\n      pop\n      jump\t// out\n        /* \"#utility.yul\":287:426   */\n    tag_26:\n        /* \"#utility.yul\":376:382   */\n      dup3\n        /* \"#utility.yul\":371:374   */\n      dup2\n        /* \"#utility.yul\":366:369   */\n      dup4\n        /* \"#utility.yul\":360:383   */\n      mcopy\n        /* \"#utility.yul\":417:418   */\n      0x00\n        /* \"#utility.yul\":408:414   */\n      dup4\n        /* \"#utility.yul\":403:406   */\n      dup4\n        /* \"#utility.yul\":399:415   */\n      add\n        /* \"#utility.yul\":392:419   */\n      mstore\n        /* \"#utility.yul\":287:426   */\n      pop\n      pop\n      pop\n      jump\t// out\n        /* \"#utility.yul\":432:534   */\n    tag_27:\n        /* \"#utility.yul\":473:479   */\n      0x00\n        /* \"#utility.yul\":524:526   */\n      0x1f\n        /* \"#utility.yul\":520:527   */\n      not\n        /* \"#utility.yul\":515:517   */\n      0x1f\n        /* \"#utility.yul\":508:513   */\n      dup4\n        /* \"#utility.yul\":504:518   */\n      add\n        /* \"#utility.yul\":500:528   */\n      and\n        /* \"#utility.yul\":490:528   */\n      swap1\n      pop\n        /* \"#utility.yul\":432:534   */\n      swap2\n      swap1\n      pop\n      jump\t// out\n        /* \"#utility.yul\":540:917   */\n    tag_28:\n        /* \"#utility.yul\":628:631   */\n      0x00\n        /* \"#utility.yul\":656:695   */\n      tag_43\n        /* \"#utility.yul\":689:694   */\n      dup3\n        /* \"#utility.yul\":656:695   */\n      tag_24\n      jump\t// in\n    tag_43:\n        /* \"#utility.yul\":711:782   */\n      tag_44\n        /* \"#utility.yul\":775:781   */\n      dup2\n        /* \"#utility.yul\":770:773   */\n      dup6\n        /* \"#utility.yul\":711:782   */\n      tag_25\n      jump\t// in\n    tag_44:\n        /* \"#utility.yul\":704:782   */\n      swap4\n      pop\n        /* \"#utility.yul\":791:856   */\n      tag_45\n        /* \"#utility.yul\":849:855   */\n      dup2\n        /* \"#utility.yul\":844:847   */\n      dup6\n        /* \"#utility.yul\":837:841   */\n      0x20\n        /* \"#utility.yul\":830:835   */\n      dup7\n        /* \"#utility.yul\":826:842   */\n      add\n        /* \"#utility.yul\":791:856   */\n      tag_26\n      jump\t// in\n    tag_45:\n        /* \"#utility.yul\":881:910   */\n      tag_46\n        /* \"#utility.yul\":903:909   */\n      dup2\n        /* \"#utility.yul\":881:910   */\n      tag_27\n      jump\t// in\n    tag_46:\n        /* \"#utility.yul\":876:879   */\n      dup5\n        /* \"#utility.yul\":872:911   */\n      add\n        /* \"#utility.yul\":865:911   */\n      swap2\n      pop\n        /* \"#utility.yul\":632:917   */\n      pop\n        /* \"#utility.yul\":540:917   */\n      swap3\n      swap2\n      pop\n      pop\n      jump\t// out\n        /* \"#utility.yul\":923:1236   */\n    tag_8:\n        /* \"#utility.yul\":1036:1040   */\n      0x00\n        /* \"#utility.yul\":1074:1076   */\n      0x20\n        /* \"#utility.yul\":1063:1072   */\n      dup3\n        /* \"#utility.yul\":1059:1077   */\n      add\n        /* \"#utility.yul\":1051:1077   */\n      swap1\n      pop\n        /* \"#utility.yul\":1123:1132   */\n      dup2\n        /* \"#utility.yul\":1117:1121   */\n      dup2\n        /* \"#utility.yul\":1113:1133   */\n      sub\n        /* \"#utility.yul\":1109:1110   */\n      0x00\n        /* \"#utility.yul\":1098:1107   */\n      dup4\n        /* \"#utility.yul\":1094:1111   */\n      add\n        /* \"#utility.yul\":1087:1134   */\n      mstore\n        /* \"#utility.yul\":1151:1229   */\n      tag_48\n        /* \"#utility.yul\":1224:1228   */\n      dup2\n        /* \"#utility.yul\":1215:1221   */\n      dup5\n        /* \"#utility.yul\":1151:1229   */\n      tag_28\n      jump\t// in\n    tag_48:\n        /* \"#utility.yul\":1143:1229   */\n      swap1\n      pop\n        /* \"#utility.yul\":923:1236   */\n      swap3\n      swap2\n      pop\n      pop\n      jump\t// out\n        /* \"#utility.yul\":1323:1440   */\n    tag_30:\n        /* \"#utility.yul\":1432:1433   */\n      0x00\n        /* \"#utility.yul\":1429:1430   */\n      dup1\n        /* \"#utility.yul\":1422:1434   */\n      revert\n        /* \"#utility.yul\":1569:1659   */\n    tag_32:\n        /* \"#utility.yul\":1603:1610   */\n      0x00\n        /* \"#utility.yul\":1646:1651   */\n      dup2\n        /* \"#utility.yul\":1639:1652   */\n      iszero\n        /* \"#utility.yul\":1632:1653   */\n      iszero\n        /* \"#utility.yul\":1621:1653   */\n      swap1\n      pop\n        /* \"#utility.yul\":1569:1659   */\n      swap2\n      swap1\n      pop\n      jump\t// out\n        /* \"#utility.yul\":1665:1781   */\n    tag_33:\n        /* \"#utility.yul\":1735:1756   */\n      tag_54\n        /* \"#utility.yul\":1750:1755   */\n      dup2\n        /* \"#utility.yul\":1735:1756   */\n      tag_32\n      jump\t// in\n    tag_54:\n        /* \"#utility.yul\":1728:1733   */\n      dup2\n        /* \"#utility.yul\":1725:1757   */\n      eq\n        /* \"#utility.yul\":1715:1775   */\n      tag_55\n      jumpi\n        /* \"#utility.yul\":1771:1772   */\n      0x00\n        /* \"#utility.yul\":1768:1769   */\n      dup1\n        /* \"#utility.yul\":1761:1773   */\n      revert\n        /* \"#utility.yul\":1715:1775   */\n    tag_55:\n        /* \"#utility.yul\":1665:1781   */\n      pop\n      jump\t// out\n        /* \"#utility.yul\":1787:1920   */\n    tag_34:\n        /* \"#utility.yul\":1830:1835   */\n      0x00\n        /* \"#utility.yul\":1868:1874   */\n      dup2\n        /* \"#utility.yul\":1855:1875   */\n      calldataload\n        /* \"#utility.yul\":1846:1875   */\n      swap1\n      pop\n        /* \"#utility.yul\":1884:1914   */\n      tag_57\n        /* \"#utility.yul\":1908:1913   */\n      dup2\n        /* \"#utility.yul\":1884:1914   */\n      tag_33\n      jump\t// in\n    tag_57:\n        /* \"#utility.yul\":1787:1920   */\n      swap3\n      swap2\n      pop\n      pop\n      jump\t// out\n        /* \"#utility.yul\":1926:2249   */\n    tag_11:\n        /* \"#utility.yul\":1982:1988   */\n      0x00\n        /* \"#utility.yul\":2031:2033   */\n      0x20\n        /* \"#utility.yul\":2019:2028   */\n      dup3\n        /* \"#utility.yul\":2010:2017   */\n      dup5\n        /* \"#utility.yul\":2006:2029   */\n      sub\n        /* \"#utility.yul\":2002:2034   */\n      slt\n        /* \"#utility.yul\":1999:2118   */\n      iszero\n      tag_59\n      jumpi\n        /* \"#utility.yul\":2037:2116   */\n      tag_60\n      tag_30\n      jump\t// in\n    tag_60:\n        /* \"#utility.yul\":1999:2118   */\n    tag_59:\n        /* \"#utility.yul\":2157:2158   */\n      0x00\n        /* \"#utility.yul\":2182:2232   */\n      tag_61\n        /* \"#utility.yul\":2224:2231   */\n      dup5\n        /* \"#utility.yul\":2215:2221   */\n      dup3\n        /* \"#utility.yul\":2204:2213   */\n      dup6\n        /* \"#utility.yul\":2200:2222   */\n      add\n        /* \"#utility.yul\":2182:2232   */\n      tag_34\n      jump\t// in\n    tag_61:\n        /* \"#utility.yul\":2172:2232   */\n      swap2\n      pop\n        /* \"#utility.yul\":2128:2242   */\n      pop\n        /* \"#utility.yul\":1926:2249   */\n      swap3\n      swap2\n      pop\n      pop\n      jump\t// out\n        /* \"#utility.yul\":2255:2332   */\n    tag_35:\n        /* \"#utility.yul\":2292:2299   */\n      0x00\n        /* \"#utility.yul\":2321:2326   */\n      dup2\n        /* \"#utility.yul\":2310:2326   */\n      swap1\n      pop\n        /* \"#utility.yul\":2255:2332   */\n      swap2\n      swap1\n      pop\n      jump\t// out\n        /* \"#utility.yul\":2338:2518   */\n    tag_36:\n        /* \"#utility.yul\":2386:2463   */\n      0x4e487b7100000000000000000000000000000000000000000000000000000000\n        /* \"#utility.yul\":2383:2384   */\n      0x00\n        /* \"#utility.yul\":2376:2464   */\n      mstore\n        /* \"#utility.yul\":2483:2487   */\n      0x11\n        /* \"#utility.yul\":2480:2481   */\n      0x04\n        /* \"#utility.yul\":2473:2488   */\n      mstore\n        /* \"#utility.yul\":2507:2511   */\n      0x24\n        /* \"#utility.yul\":2504:2505   */\n      0x00\n        /* \"#utility.yul\":2497:2512   */\n      revert\n        /* \"#utility.yul\":2524:2715   */\n    tag_21:\n        /* \"#utility.yul\":2564:2567   */\n      0x00\n        /* \"#utility.yul\":2583:2603   */\n      tag_65\n        /* \"#utility.yul\":2601:2602   */\n      dup3\n        /* \"#utility.yul\":2583:2603   */\n      tag_35\n      jump\t// in\n    tag_65:\n        /* \"#utility.yul\":2578:2603   */\n      swap2\n      pop\n        /* \"#utility.yul\":2617:2637   */\n      tag_66\n        /* \"#utility.yul\":2635:2636   */\n      dup4\n        /* \"#utility.yul\":2617:2637   */\n      tag_35\n      jump\t// in\n    tag_66:\n        /* \"#utility.yul\":2612:2637   */\n      swap3\n      pop\n        /* \"#utility.yul\":2660:2661   */\n      dup3\n        /* \"#utility.yul\":2657:2658   */\n      dup3\n        /* \"#utility.yul\":2653:2662   */\n      add\n        /* \"#utility.yul\":2646:2662   */\n      swap1\n      pop\n        /* \"#utility.yul\":2681:2684   */\n      dup1\n        /* \"#utility.yul\":2678:2679   */\n      dup3\n        /* \"#utility.yul\":2675:2685   */\n      gt\n        /* \"#utility.yul\":2672:2708   */\n      iszero\n      tag_67\n      jumpi\n        /* \"#utility.yul\":2688:2706   */\n      tag_68\n      tag_36\n      jump\t// in\n    tag_68:\n        /* \"#utility.yul\":2672:2708   */\n    tag_67:\n        /* \"#utility.yul\":2524:2715   */\n      swap3\n      swap2\n      pop\n      pop\n      jump\t// out\n\n    auxdata: 0xa26469706673582212207d728d8208e9a42cf9be56414ac9c8937faef88832135df9fa1fd6a33149c97864736f6c634300081a0033\n}\n",
				"bytecode": {
					"linkReferences": {},
					"object": "6080604052348015600e575f80fd5b506103178061001c5f395ff3fe608060405234801561000f575f80fd5b5060043610610034575f3560e01c8063919840ad14610038578063e7af45c914610056575b5f80fd5b610040610072565b60405161004d91906101f4565b60405180910390f35b610070600480360381019061006b919061024d565b61013f565b005b60606001545f5411156100bc576040518060400160405280600f81526020017f50726f706f73616c205061737365640000000000000000000000000000000000815250905061013c565b6001545f5403610103576040518060400160405280600d81526020017f50726f706f73616c205469656400000000000000000000000000000000000000815250905061013c565b6040518060400160405280600f81526020017f50726f706f73616c204661696c6564000000000000000000000000000000000081525090505b90565b60011515811515036101685760015f8082825461015c91906102ae565b92505081905550610181565b6001805f82825461017991906102ae565b925050819055505b50565b5f81519050919050565b5f82825260208201905092915050565b8281835e5f83830152505050565b5f601f19601f8301169050919050565b5f6101c682610184565b6101d0818561018e565b93506101e081856020860161019e565b6101e9816101ac565b840191505092915050565b5f6020820190508181035f83015261020c81846101bc565b905092915050565b5f80fd5b5f8115159050919050565b61022c81610218565b8114610236575f80fd5b50565b5f8135905061024781610223565b92915050565b5f6020828403121561026257610261610214565b5b5f61026f84828501610239565b91505092915050565b5f819050919050565b7f4e487b71000000000000000000000000000000000000000000000000000000005f52601160045260245ffd5b5f6102b882610278565b91506102c383610278565b92508282019050808211156102db576102da610281565b5b9291505056fea26469706673582212207d728d8208e9a42cf9be56414ac9c8937faef88832135df9fa1fd6a33149c97864736f6c634300081a0033",
					"opcodes": "PUSH1 0x80 PUSH1 0x40 MSTORE CALLVALUE DUP1 ISZERO PUSH1 0xE JUMPI PUSH0 DUP1 REVERT JUMPDEST POP PUSH2 0x317 DUP1 PUSH2 0x1C PUSH0 CODECOPY PUSH0 RETURN INVALID PUSH1 0x80 PUSH1 0x40 MSTORE CALLVALUE DUP1 ISZERO PUSH2 0xF JUMPI PUSH0 DUP1 REVERT JUMPDEST POP PUSH1 0x4 CALLDATASIZE LT PUSH2 0x34 JUMPI PUSH0 CALLDATALOAD PUSH1 0xE0 SHR DUP1 PUSH4 0x919840AD EQ PUSH2 0x38 JUMPI DUP1 PUSH4 0xE7AF45C9 EQ PUSH2 0x56 JUMPI JUMPDEST PUSH0 DUP1 REVERT JUMPDEST PUSH2 0x40 PUSH2 0x72 JUMP JUMPDEST PUSH1 0x40 MLOAD PUSH2 0x4D SWAP2 SWAP1 PUSH2 0x1F4 JUMP JUMPDEST PUSH1 0x40 MLOAD DUP1 SWAP2 SUB SWAP1 RETURN JUMPDEST PUSH2 0x70 PUSH1 0x4 DUP1 CALLDATASIZE SUB DUP2 ADD SWAP1 PUSH2 0x6B SWAP2 SWAP1 PUSH2 0x24D JUMP JUMPDEST PUSH2 0x13F JUMP JUMPDEST STOP JUMPDEST PUSH1 0x60 PUSH1 0x1 SLOAD PUSH0 SLOAD GT ISZERO PUSH2 0xBC JUMPI PUSH1 0x40 MLOAD DUP1 PUSH1 0x40 ADD PUSH1 0x40 MSTORE DUP1 PUSH1 0xF DUP2 MSTORE PUSH1 0x20 ADD PUSH32 0x50726F706F73616C205061737365640000000000000000000000000000000000 DUP2 MSTORE POP SWAP1 POP PUSH2 0x13C JUMP JUMPDEST PUSH1 0x1 SLOAD PUSH0 SLOAD SUB PUSH2 0x103 JUMPI PUSH1 0x40 MLOAD DUP1 PUSH1 0x40 ADD PUSH1 0x40 MSTORE DUP1 PUSH1 0xD DUP2 MSTORE PUSH1 0x20 ADD PUSH32 0x50726F706F73616C205469656400000000000000000000000000000000000000 DUP2 MSTORE POP SWAP1 POP PUSH2 0x13C JUMP JUMPDEST PUSH1 0x40 MLOAD DUP1 PUSH1 0x40 ADD PUSH1 0x40 MSTORE DUP1 PUSH1 0xF DUP2 MSTORE PUSH1 0x20 ADD PUSH32 0x50726F706F73616C204661696C65640000000000000000000000000000000000 DUP2 MSTORE POP SWAP1 POP JUMPDEST SWAP1 JUMP JUMPDEST PUSH1 0x1 ISZERO ISZERO DUP2 ISZERO ISZERO SUB PUSH2 0x168 JUMPI PUSH1 0x1 PUSH0 DUP1 DUP3 DUP3 SLOAD PUSH2 0x15C SWAP2 SWAP1 PUSH2 0x2AE JUMP JUMPDEST SWAP3 POP POP DUP2 SWAP1 SSTORE POP PUSH2 0x181 JUMP JUMPDEST PUSH1 0x1 DUP1 PUSH0 DUP3 DUP3 SLOAD PUSH2 0x179 SWAP2 SWAP1 PUSH2 0x2AE JUMP JUMPDEST SWAP3 POP POP DUP2 SWAP1 SSTORE POP JUMPDEST POP JUMP JUMPDEST PUSH0 DUP2 MLOAD SWAP1 POP SWAP2 SWAP1 POP JUMP JUMPDEST PUSH0 DUP3 DUP3 MSTORE PUSH1 0x20 DUP3 ADD SWAP1 POP SWAP3 SWAP2 POP POP JUMP JUMPDEST DUP3 DUP2 DUP4 MCOPY PUSH0 DUP4 DUP4 ADD MSTORE POP POP POP JUMP JUMPDEST PUSH0 PUSH1 0x1F NOT PUSH1 0x1F DUP4 ADD AND SWAP1 POP SWAP2 SWAP1 POP JUMP JUMPDEST PUSH0 PUSH2 0x1C6 DUP3 PUSH2 0x184 JUMP JUMPDEST PUSH2 0x1D0 DUP2 DUP6 PUSH2 0x18E JUMP JUMPDEST SWAP4 POP PUSH2 0x1E0 DUP2 DUP6 PUSH1 0x20 DUP7 ADD PUSH2 0x19E JUMP JUMPDEST PUSH2 0x1E9 DUP2 PUSH2 0x1AC JUMP JUMPDEST DUP5 ADD SWAP2 POP POP SWAP3 SWAP2 POP POP JUMP JUMPDEST PUSH0 PUSH1 0x20 DUP3 ADD SWAP1 POP DUP2 DUP2 SUB PUSH0 DUP4 ADD MSTORE PUSH2 0x20C DUP2 DUP5 PUSH2 0x1BC JUMP JUMPDEST SWAP1 POP SWAP3 SWAP2 POP POP JUMP JUMPDEST PUSH0 DUP1 REVERT JUMPDEST PUSH0 DUP2 ISZERO ISZERO SWAP1 POP SWAP2 SWAP1 POP JUMP JUMPDEST PUSH2 0x22C DUP2 PUSH2 0x218 JUMP JUMPDEST DUP2 EQ PUSH2 0x236 JUMPI PUSH0 DUP1 REVERT JUMPDEST POP JUMP JUMPDEST PUSH0 DUP2 CALLDATALOAD SWAP1 POP PUSH2 0x247 DUP2 PUSH2 0x223 JUMP JUMPDEST SWAP3 SWAP2 POP POP JUMP JUMPDEST PUSH0 PUSH1 0x20 DUP3 DUP5 SUB SLT ISZERO PUSH2 0x262 JUMPI PUSH2 0x261 PUSH2 0x214 JUMP JUMPDEST JUMPDEST PUSH0 PUSH2 0x26F DUP5 DUP3 DUP6 ADD PUSH2 0x239 JUMP JUMPDEST SWAP2 POP POP SWAP3 SWAP2 POP POP JUMP JUMPDEST PUSH0 DUP2 SWAP1 POP SWAP2 SWAP1 POP JUMP JUMPDEST PUSH32 0x4E487B7100000000000000000000000000000000000000000000000000000000 PUSH0 MSTORE PUSH1 0x11 PUSH1 0x4 MSTORE PUSH1 0x24 PUSH0 REVERT JUMPDEST PUSH0 PUSH2 0x2B8 DUP3 PUSH2 0x278 JUMP JUMPDEST SWAP2 POP PUSH2 0x2C3 DUP4 PUSH2 0x278 JUMP JUMPDEST SWAP3 POP DUP3 DUP3 ADD SWAP1 POP DUP1 DUP3 GT ISZERO PUSH2 0x2DB JUMPI PUSH2 0x2DA PUSH2 0x281 JUMP JUMPDEST JUMPDEST SWAP3 SWAP2 POP POP JUMP INVALID LOG2 PUSH5 0x6970667358 0x22 SLT KECCAK256 PUSH30 0x728D8208E9A42CF9BE56414AC9C8937FAEF88832135DF9FA1FD6A33149C9 PUSH25 0x64736F6C634300081A00330000000000000000000000000000 "
				},
				"gasEstimates": {
					"creation": {
						"codeDepositCost": "158200",
						"executionCost": "200",
						"totalCost": "158400"
					},
					"external": {
						"check()": "infinite",
						"getVote(bool)": "infinite"
					}
				},
				"methodIdentifiers": {
					"check()": "919840ad",
					"getVote(bool)": "e7af45c9"
				}
			},
			"storageLayout": {
				"storage": [
					{
						"astId": 3,
						"contract": "Assignments/program-10.sol:Votes",
						"label": "YesVotes",
						"offset": 0,
						"slot": "0",
						"type": "t_uint256"
					},
					{
						"astId": 5,
						"contract": "Assignments/program-10.sol:Votes",
						"label": "NoVotes",
						"offset": 0,
						"slot": "1",
						"type": "t_uint256"
					}
				],
				"types": {
					"t_uint256": {
						"encoding": "inplace",
						"label": "uint256",
						"numberOfBytes": "32"
					}
				}
			},
			"userdoc": {
				"kind": "user",
				"methods": {},
				"version": 1
			}
		}
	}
}