{
	"Assignments/program-13.sol": {
		"FixedArray": {
			"abi": [
				{
					"inputs": [
						{
							"internalType": "uint256",
							"name": "",
							"type": "uint256"
						}
					],
					"name": "arr",
					"outputs": [
						{
							"internalType": "uint256",
							"name": "",
							"type": "uint256"
						}
					],
					"stateMutability": "view",
					"type": "function"
				},
				{
					"inputs": [
						{
							"internalType": "uint256",
							"name": "index",
							"type": "uint256"
						}
					],
					"name": "retrieve",
					"outputs": [
						{
							"internalType": "uint256",
							"name": "",
							"type": "uint256"
						}
					],
					"stateMutability": "view",
					"type": "function"
				},
				{
					"inputs": [
						{
							"internalType": "uint256",
							"name": "_num",
							"type": "uint256"
						},
						{
							"internalType": "uint256",
							"name": "_index",
							"type": "uint256"
						}
					],
					"name": "updateNumber",
					"outputs": [],
					"stateMutability": "nonpayable",
					"type": "function"
				}
			],
			"devdoc": {
				"kind": "dev",
				"methods": {},
				"version": 1
			},
			"evm": {
				"assembly": "    /* \"Assignments/program-13.sol\":62:379  contract FixedArray{... */\n  mstore(0x40, 0x80)\n    /* \"Assignments/program-13.sol\":88:127  uint[5] public arr = [1, 21, 33, 5 ,78] */\n  mload(0x40)\n  dup1\n  0xa0\n  add\n  0x40\n  mstore\n  dup1\n    /* \"Assignments/program-13.sol\":110:111  1 */\n  0x01\n    /* \"Assignments/program-13.sol\":88:127  uint[5] public arr = [1, 21, 33, 5 ,78] */\n  0xff\n  and\n  dup2\n  mstore\n  0x20\n  add\n    /* \"Assignments/program-13.sol\":113:115  21 */\n  0x15\n    /* \"Assignments/program-13.sol\":88:127  uint[5] public arr = [1, 21, 33, 5 ,78] */\n  0xff\n  and\n  dup2\n  mstore\n  0x20\n  add\n    /* \"Assignments/program-13.sol\":117:119  33 */\n  0x21\n    /* \"Assignments/program-13.sol\":88:127  uint[5] public arr = [1, 21, 33, 5 ,78] */\n  0xff\n  and\n  dup2\n  mstore\n  0x20\n  add\n    /* \"Assignments/program-13.sol\":121:122  5 */\n  0x05\n    /* \"Assignments/program-13.sol\":88:127  uint[5] public arr = [1, 21, 33, 5 ,78] */\n  0xff\n  and\n  dup2\n  mstore\n  0x20\n  add\n    /* \"Assignments/program-13.sol\":124:126  78 */\n  0x4e\n    /* \"Assignments/program-13.sol\":88:127  uint[5] public arr = [1, 21, 33, 5 ,78] */\n  0xff\n  and\n  dup2\n  mstore\n  pop\n  0x00\n  swap1\n  0x05\n  tag_1\n  swap3\n  swap2\n  swap1\n  tag_2\n  jump\t// in\ntag_1:\n  pop\n    /* \"Assignments/program-13.sol\":62:379  contract FixedArray{... */\n  callvalue\n  dup1\n  iszero\n  tag_3\n  jumpi\n  0x00\n  dup1\n  revert\ntag_3:\n  pop\n  jump(tag_4)\ntag_2:\n  dup3\n  0x05\n  dup2\n  add\n  swap3\n  dup3\n  iszero\n  tag_5\n  jumpi\n  swap2\n  0x20\n  mul\n  dup3\n  add\ntag_6:\n  dup3\n  dup2\n  gt\n  iszero\n  tag_7\n  jumpi\n  dup3\n  mload\n  dup3\n  swap1\n  0xff\n  and\n  swap1\n  sstore\n  swap2\n  0x20\n  add\n  swap2\n  swap1\n  0x01\n  add\n  swap1\n  jump(tag_6)\ntag_7:\ntag_5:\n  pop\n  swap1\n  pop\n  tag_8\n  swap2\n  swap1\n  tag_9\n  jump\t// in\ntag_8:\n  pop\n  swap1\n  jump\t// out\ntag_9:\ntag_10:\n  dup1\n  dup3\n  gt\n  iszero\n  tag_11\n  jumpi\n  0x00\n  dup2\n  0x00\n  swap1\n  sstore\n  pop\n  0x01\n  add\n  jump(tag_10)\ntag_11:\n  pop\n  swap1\n  jump\t// out\ntag_4:\n  dataSize(sub_0)\n  dup1\n  dataOffset(sub_0)\n  0x00\n  codecopy\n  0x00\n  return\nstop\n\nsub_0: assembly {\n        /* \"Assignments/program-13.sol\":62:379  contract FixedArray{... */\n      mstore(0x40, 0x80)\n      callvalue\n      dup1\n      iszero\n      tag_1\n      jumpi\n      0x00\n      dup1\n      revert\n    tag_1:\n      pop\n      jumpi(tag_2, lt(calldatasize, 0x04))\n      shr(0xe0, calldataload(0x00))\n      dup1\n      0x71e5ee5f\n      eq\n      tag_3\n      jumpi\n      dup1\n      0x8f88708b\n      eq\n      tag_4\n      jumpi\n      dup1\n      0x91819bf3\n      eq\n      tag_5\n      jumpi\n    tag_2:\n      0x00\n      dup1\n      revert\n        /* \"Assignments/program-13.sol\":88:127  uint[5] public arr = [1, 21, 33, 5 ,78] */\n    tag_3:\n      tag_6\n      0x04\n      dup1\n      calldatasize\n      sub\n      dup2\n      add\n      swap1\n      tag_7\n      swap2\n      swap1\n      tag_8\n      jump\t// in\n    tag_7:\n      tag_9\n      jump\t// in\n    tag_6:\n      mload(0x40)\n      tag_10\n      swap2\n      swap1\n      tag_11\n      jump\t// in\n    tag_10:\n      mload(0x40)\n      dup1\n      swap2\n      sub\n      swap1\n      return\n        /* \"Assignments/program-13.sol\":285:376  function retrieve(uint index) public view returns(uint){... */\n    tag_4:\n      tag_12\n      0x04\n      dup1\n      calldatasize\n      sub\n      dup2\n      add\n      swap1\n      tag_13\n      swap2\n      swap1\n      tag_8\n      jump\t// in\n    tag_13:\n      tag_14\n      jump\t// in\n    tag_12:\n      mload(0x40)\n      tag_15\n      swap2\n      swap1\n      tag_11\n      jump\t// in\n    tag_15:\n      mload(0x40)\n      dup1\n      swap2\n      sub\n      swap1\n      return\n        /* \"Assignments/program-13.sol\":134:277  function updateNumber(uint _num , uint _index) public{... */\n    tag_5:\n      tag_16\n      0x04\n      dup1\n      calldatasize\n      sub\n      dup2\n      add\n      swap1\n      tag_17\n      swap2\n      swap1\n      tag_18\n      jump\t// in\n    tag_17:\n      tag_19\n      jump\t// in\n    tag_16:\n      stop\n        /* \"Assignments/program-13.sol\":88:127  uint[5] public arr = [1, 21, 33, 5 ,78] */\n    tag_9:\n      0x00\n      dup2\n      0x05\n      dup2\n      lt\n      tag_20\n      jumpi\n      0x00\n      dup1\n      revert\n    tag_20:\n      add\n      0x00\n      swap2\n      pop\n      swap1\n      pop\n      sload\n      dup2\n      jump\t// out\n        /* \"Assignments/program-13.sol\":285:376  function retrieve(uint index) public view returns(uint){... */\n    tag_14:\n        /* \"Assignments/program-13.sol\":335:339  uint */\n      0x00\n        /* \"Assignments/program-13.sol\":358:361  arr */\n      dup1\n        /* \"Assignments/program-13.sol\":362:367  index */\n      dup3\n        /* \"Assignments/program-13.sol\":358:368  arr[index] */\n      0x05\n      dup2\n      lt\n      tag_23\n      jumpi\n      tag_24\n      tag_25\n      jump\t// in\n    tag_24:\n    tag_23:\n      add\n      sload\n        /* \"Assignments/program-13.sol\":351:368  return arr[index] */\n      swap1\n      pop\n        /* \"Assignments/program-13.sol\":285:376  function retrieve(uint index) public view returns(uint){... */\n      swap2\n      swap1\n      pop\n      jump\t// out\n        /* \"Assignments/program-13.sol\":134:277  function updateNumber(uint _num , uint _index) public{... */\n    tag_19:\n        /* \"Assignments/program-13.sol\":215:216  5 */\n      0x05\n        /* \"Assignments/program-13.sol\":206:212  _index */\n      dup2\n        /* \"Assignments/program-13.sol\":206:216  _index < 5 */\n      lt\n        /* \"Assignments/program-13.sol\":198:240  require(_index < 5, \"Index out of bounds\") */\n      tag_28\n      jumpi\n      mload(0x40)\n      0x08c379a000000000000000000000000000000000000000000000000000000000\n      dup2\n      mstore\n      0x04\n      add\n      tag_29\n      swap1\n      tag_30\n      jump\t// in\n    tag_29:\n      mload(0x40)\n      dup1\n      swap2\n      sub\n      swap1\n      revert\n    tag_28:\n        /* \"Assignments/program-13.sol\":265:269  _num */\n      dup2\n        /* \"Assignments/program-13.sol\":251:254  arr */\n      0x00\n        /* \"Assignments/program-13.sol\":255:261  _index */\n      dup3\n        /* \"Assignments/program-13.sol\":251:262  arr[_index] */\n      0x05\n      dup2\n      lt\n      tag_31\n      jumpi\n      tag_32\n      tag_25\n      jump\t// in\n    tag_32:\n    tag_31:\n      add\n        /* \"Assignments/program-13.sol\":251:269  arr[_index] = _num */\n      dup2\n      swap1\n      sstore\n      pop\n        /* \"Assignments/program-13.sol\":134:277  function updateNumber(uint _num , uint _index) public{... */\n      pop\n      pop\n      jump\t// out\n        /* \"#utility.yul\":88:205   */\n    tag_35:\n        /* \"#utility.yul\":197:198   */\n      0x00\n        /* \"#utility.yul\":194:195   */\n      dup1\n        /* \"#utility.yul\":187:199   */\n      revert\n        /* \"#utility.yul\":334:411   */\n    tag_37:\n        /* \"#utility.yul\":371:378   */\n      0x00\n        /* \"#utility.yul\":400:405   */\n      dup2\n        /* \"#utility.yul\":389:405   */\n      swap1\n      pop\n        /* \"#utility.yul\":334:411   */\n      swap2\n      swap1\n      pop\n      jump\t// out\n        /* \"#utility.yul\":417:539   */\n    tag_38:\n        /* \"#utility.yul\":490:514   */\n      tag_50\n        /* \"#utility.yul\":508:513   */\n      dup2\n        /* \"#utility.yul\":490:514   */\n      tag_37\n      jump\t// in\n    tag_50:\n        /* \"#utility.yul\":483:488   */\n      dup2\n        /* \"#utility.yul\":480:515   */\n      eq\n        /* \"#utility.yul\":470:533   */\n      tag_51\n      jumpi\n        /* \"#utility.yul\":529:530   */\n      0x00\n        /* \"#utility.yul\":526:527   */\n      dup1\n        /* \"#utility.yul\":519:531   */\n      revert\n        /* \"#utility.yul\":470:533   */\n    tag_51:\n        /* \"#utility.yul\":417:539   */\n      pop\n      jump\t// out\n        /* \"#utility.yul\":545:684   */\n    tag_39:\n        /* \"#utility.yul\":591:596   */\n      0x00\n        /* \"#utility.yul\":629:635   */\n      dup2\n        /* \"#utility.yul\":616:636   */\n      calldataload\n        /* \"#utility.yul\":607:636   */\n      swap1\n      pop\n        /* \"#utility.yul\":645:678   */\n      tag_53\n        /* \"#utility.yul\":672:677   */\n      dup2\n        /* \"#utility.yul\":645:678   */\n      tag_38\n      jump\t// in\n    tag_53:\n        /* \"#utility.yul\":545:684   */\n      swap3\n      swap2\n      pop\n      pop\n      jump\t// out\n        /* \"#utility.yul\":690:1019   */\n    tag_8:\n        /* \"#utility.yul\":749:755   */\n      0x00\n        /* \"#utility.yul\":798:800   */\n      0x20\n        /* \"#utility.yul\":786:795   */\n      dup3\n        /* \"#utility.yul\":777:784   */\n      dup5\n        /* \"#utility.yul\":773:796   */\n      sub\n        /* \"#utility.yul\":769:801   */\n      slt\n        /* \"#utility.yul\":766:885   */\n      iszero\n      tag_55\n      jumpi\n        /* \"#utility.yul\":804:883   */\n      tag_56\n      tag_35\n      jump\t// in\n    tag_56:\n        /* \"#utility.yul\":766:885   */\n    tag_55:\n        /* \"#utility.yul\":924:925   */\n      0x00\n        /* \"#utility.yul\":949:1002   */\n      tag_57\n        /* \"#utility.yul\":994:1001   */\n      dup5\n        /* \"#utility.yul\":985:991   */\n      dup3\n        /* \"#utility.yul\":974:983   */\n      dup6\n        /* \"#utility.yul\":970:992   */\n      add\n        /* \"#utility.yul\":949:1002   */\n      tag_39\n      jump\t// in\n    tag_57:\n        /* \"#utility.yul\":939:1002   */\n      swap2\n      pop\n        /* \"#utility.yul\":895:1012   */\n      pop\n        /* \"#utility.yul\":690:1019   */\n      swap3\n      swap2\n      pop\n      pop\n      jump\t// out\n        /* \"#utility.yul\":1025:1143   */\n    tag_40:\n        /* \"#utility.yul\":1112:1136   */\n      tag_59\n        /* \"#utility.yul\":1130:1135   */\n      dup2\n        /* \"#utility.yul\":1112:1136   */\n      tag_37\n      jump\t// in\n    tag_59:\n        /* \"#utility.yul\":1107:1110   */\n      dup3\n        /* \"#utility.yul\":1100:1137   */\n      mstore\n        /* \"#utility.yul\":1025:1143   */\n      pop\n      pop\n      jump\t// out\n        /* \"#utility.yul\":1149:1371   */\n    tag_11:\n        /* \"#utility.yul\":1242:1246   */\n      0x00\n        /* \"#utility.yul\":1280:1282   */\n      0x20\n        /* \"#utility.yul\":1269:1278   */\n      dup3\n        /* \"#utility.yul\":1265:1283   */\n      add\n        /* \"#utility.yul\":1257:1283   */\n      swap1\n      pop\n        /* \"#utility.yul\":1293:1364   */\n      tag_61\n        /* \"#utility.yul\":1361:1362   */\n      0x00\n        /* \"#utility.yul\":1350:1359   */\n      dup4\n        /* \"#utility.yul\":1346:1363   */\n      add\n        /* \"#utility.yul\":1337:1343   */\n      dup5\n        /* \"#utility.yul\":1293:1364   */\n      tag_40\n      jump\t// in\n    tag_61:\n        /* \"#utility.yul\":1149:1371   */\n      swap3\n      swap2\n      pop\n      pop\n      jump\t// out\n        /* \"#utility.yul\":1377:1851   */\n    tag_18:\n        /* \"#utility.yul\":1445:1451   */\n      0x00\n        /* \"#utility.yul\":1453:1459   */\n      dup1\n        /* \"#utility.yul\":1502:1504   */\n      0x40\n        /* \"#utility.yul\":1490:1499   */\n      dup4\n        /* \"#utility.yul\":1481:1488   */\n      dup6\n        /* \"#utility.yul\":1477:1500   */\n      sub\n        /* \"#utility.yul\":1473:1505   */\n      slt\n        /* \"#utility.yul\":1470:1589   */\n      iszero\n      tag_63\n      jumpi\n        /* \"#utility.yul\":1508:1587   */\n      tag_64\n      tag_35\n      jump\t// in\n    tag_64:\n        /* \"#utility.yul\":1470:1589   */\n    tag_63:\n        /* \"#utility.yul\":1628:1629   */\n      0x00\n        /* \"#utility.yul\":1653:1706   */\n      tag_65\n        /* \"#utility.yul\":1698:1705   */\n      dup6\n        /* \"#utility.yul\":1689:1695   */\n      dup3\n        /* \"#utility.yul\":1678:1687   */\n      dup7\n        /* \"#utility.yul\":1674:1696   */\n      add\n        /* \"#utility.yul\":1653:1706   */\n      tag_39\n      jump\t// in\n    tag_65:\n        /* \"#utility.yul\":1643:1706   */\n      swap3\n      pop\n        /* \"#utility.yul\":1599:1716   */\n      pop\n        /* \"#utility.yul\":1755:1757   */\n      0x20\n        /* \"#utility.yul\":1781:1834   */\n      tag_66\n        /* \"#utility.yul\":1826:1833   */\n      dup6\n        /* \"#utility.yul\":1817:1823   */\n      dup3\n        /* \"#utility.yul\":1806:1815   */\n      dup7\n        /* \"#utility.yul\":1802:1824   */\n      add\n        /* \"#utility.yul\":1781:1834   */\n      tag_39\n      jump\t// in\n    tag_66:\n        /* \"#utility.yul\":1771:1834   */\n      swap2\n      pop\n        /* \"#utility.yul\":1726:1844   */\n      pop\n        /* \"#utility.yul\":1377:1851   */\n      swap3\n      pop\n      swap3\n      swap1\n      pop\n      jump\t// out\n        /* \"#utility.yul\":1857:2037   */\n    tag_25:\n        /* \"#utility.yul\":1905:1982   */\n      0x4e487b7100000000000000000000000000000000000000000000000000000000\n        /* \"#utility.yul\":1902:1903   */\n      0x00\n        /* \"#utility.yul\":1895:1983   */\n      mstore\n        /* \"#utility.yul\":2002:2006   */\n      0x32\n        /* \"#utility.yul\":1999:2000   */\n      0x04\n        /* \"#utility.yul\":1992:2007   */\n      mstore\n        /* \"#utility.yul\":2026:2030   */\n      0x24\n        /* \"#utility.yul\":2023:2024   */\n      0x00\n        /* \"#utility.yul\":2016:2031   */\n      revert\n        /* \"#utility.yul\":2043:2212   */\n    tag_41:\n        /* \"#utility.yul\":2127:2138   */\n      0x00\n        /* \"#utility.yul\":2161:2167   */\n      dup3\n        /* \"#utility.yul\":2156:2159   */\n      dup3\n        /* \"#utility.yul\":2149:2168   */\n      mstore\n        /* \"#utility.yul\":2201:2205   */\n      0x20\n        /* \"#utility.yul\":2196:2199   */\n      dup3\n        /* \"#utility.yul\":2192:2206   */\n      add\n        /* \"#utility.yul\":2177:2206   */\n      swap1\n      pop\n        /* \"#utility.yul\":2043:2212   */\n      swap3\n      swap2\n      pop\n      pop\n      jump\t// out\n        /* \"#utility.yul\":2218:2387   */\n    tag_42:\n        /* \"#utility.yul\":2358:2379   */\n      0x496e646578206f7574206f6620626f756e647300000000000000000000000000\n        /* \"#utility.yul\":2354:2355   */\n      0x00\n        /* \"#utility.yul\":2346:2352   */\n      dup3\n        /* \"#utility.yul\":2342:2356   */\n      add\n        /* \"#utility.yul\":2335:2380   */\n      mstore\n        /* \"#utility.yul\":2218:2387   */\n      pop\n      jump\t// out\n        /* \"#utility.yul\":2393:2759   */\n    tag_43:\n        /* \"#utility.yul\":2535:2538   */\n      0x00\n        /* \"#utility.yul\":2556:2623   */\n      tag_71\n        /* \"#utility.yul\":2620:2622   */\n      0x13\n        /* \"#utility.yul\":2615:2618   */\n      dup4\n        /* \"#utility.yul\":2556:2623   */\n      tag_41\n      jump\t// in\n    tag_71:\n        /* \"#utility.yul\":2549:2623   */\n      swap2\n      pop\n        /* \"#utility.yul\":2632:2725   */\n      tag_72\n        /* \"#utility.yul\":2721:2724   */\n      dup3\n        /* \"#utility.yul\":2632:2725   */\n      tag_42\n      jump\t// in\n    tag_72:\n        /* \"#utility.yul\":2750:2752   */\n      0x20\n        /* \"#utility.yul\":2745:2748   */\n      dup3\n        /* \"#utility.yul\":2741:2753   */\n      add\n        /* \"#utility.yul\":2734:2753   */\n      swap1\n      pop\n        /* \"#utility.yul\":2393:2759   */\n      swap2\n      swap1\n      pop\n      jump\t// out\n        /* \"#utility.yul\":2765:3184   */\n    tag_30:\n        /* \"#utility.yul\":2931:2935   */\n      0x00\n        /* \"#utility.yul\":2969:2971   */\n      0x20\n        /* \"#utility.yul\":2958:2967   */\n      dup3\n        /* \"#utility.yul\":2954:2972   */\n      add\n        /* \"#utility.yul\":2946:2972   */\n      swap1\n      pop\n        /* \"#utility.yul\":3018:3027   */\n      dup2\n        /* \"#utility.yul\":3012:3016   */\n      dup2\n        /* \"#utility.yul\":3008:3028   */\n      sub\n        /* \"#utility.yul\":3004:3005   */\n      0x00\n        /* \"#utility.yul\":2993:3002   */\n      dup4\n        /* \"#utility.yul\":2989:3006   */\n      add\n        /* \"#utility.yul\":2982:3029   */\n      mstore\n        /* \"#utility.yul\":3046:3177   */\n      tag_74\n        /* \"#utility.yul\":3172:3176   */\n      dup2\n        /* \"#utility.yul\":3046:3177   */\n      tag_43\n      jump\t// in\n    tag_74:\n        /* \"#utility.yul\":3038:3177   */\n      swap1\n      pop\n        /* \"#utility.yul\":2765:3184   */\n      swap2\n      swap1\n      pop\n      jump\t// out\n\n    auxdata: 0xa26469706673582212206bc89e8e3cca91b137fbb617c929d90ccb4d7fdb77bfe2dc9ab95ee06b4bdb2c64736f6c634300081a0033\n}\n",
				"bytecode": {
					"linkReferences": {},
					"object": "60806040526040518060a00160405280600160ff168152602001601560ff168152602001602160ff168152602001600560ff168152602001604e60ff168152505f906005604c929190605c565b503480156057575f80fd5b5060b5565b8260058101928215608d579160200282015b82811115608c578251829060ff16905591602001919060010190606e565b5b50905060989190609c565b5090565b5b8082111560b1575f815f905550600101609d565b5090565b6102f7806100c25f395ff3fe608060405234801561000f575f80fd5b506004361061003f575f3560e01c806371e5ee5f146100435780638f88708b1461007357806391819bf3146100a3575b5f80fd5b61005d6004803603810190610058919061018b565b6100bf565b60405161006a91906101c5565b60405180910390f35b61008d6004803603810190610088919061018b565b6100d7565b60405161009a91906101c5565b60405180910390f35b6100bd60048036038101906100b891906101de565b6100f4565b005b5f81600581106100cd575f80fd5b015f915090505481565b5f8082600581106100eb576100ea61021c565b5b01549050919050565b60058110610137576040517f08c379a000000000000000000000000000000000000000000000000000000000815260040161012e906102a3565b60405180910390fd5b815f826005811061014b5761014a61021c565b5b01819055505050565b5f80fd5b5f819050919050565b61016a81610158565b8114610174575f80fd5b50565b5f8135905061018581610161565b92915050565b5f602082840312156101a05761019f610154565b5b5f6101ad84828501610177565b91505092915050565b6101bf81610158565b82525050565b5f6020820190506101d85f8301846101b6565b92915050565b5f80604083850312156101f4576101f3610154565b5b5f61020185828601610177565b925050602061021285828601610177565b9150509250929050565b7f4e487b71000000000000000000000000000000000000000000000000000000005f52603260045260245ffd5b5f82825260208201905092915050565b7f496e646578206f7574206f6620626f756e6473000000000000000000000000005f82015250565b5f61028d601383610249565b915061029882610259565b602082019050919050565b5f6020820190508181035f8301526102ba81610281565b905091905056fea26469706673582212206bc89e8e3cca91b137fbb617c929d90ccb4d7fdb77bfe2dc9ab95ee06b4bdb2c64736f6c634300081a0033",
					"opcodes": "PUSH1 0x80 PUSH1 0x40 MSTORE PUSH1 0x40 MLOAD DUP1 PUSH1 0xA0 ADD PUSH1 0x40 MSTORE DUP1 PUSH1 0x1 PUSH1 0xFF AND DUP2 MSTORE PUSH1 0x20 ADD PUSH1 0x15 PUSH1 0xFF AND DUP2 MSTORE PUSH1 0x20 ADD PUSH1 0x21 PUSH1 0xFF AND DUP2 MSTORE PUSH1 0x20 ADD PUSH1 0x5 PUSH1 0xFF AND DUP2 MSTORE PUSH1 0x20 ADD PUSH1 0x4E PUSH1 0xFF AND DUP2 MSTORE POP PUSH0 SWAP1 PUSH1 0x5 PUSH1 0x4C SWAP3 SWAP2 SWAP1 PUSH1 0x5C JUMP JUMPDEST POP CALLVALUE DUP1 ISZERO PUSH1 0x57 JUMPI PUSH0 DUP1 REVERT JUMPDEST POP PUSH1 0xB5 JUMP JUMPDEST DUP3 PUSH1 0x5 DUP2 ADD SWAP3 DUP3 ISZERO PUSH1 0x8D JUMPI SWAP2 PUSH1 0x20 MUL DUP3 ADD JUMPDEST DUP3 DUP2 GT ISZERO PUSH1 0x8C JUMPI DUP3 MLOAD DUP3 SWAP1 PUSH1 0xFF AND SWAP1 SSTORE SWAP2 PUSH1 0x20 ADD SWAP2 SWAP1 PUSH1 0x1 ADD SWAP1 PUSH1 0x6E JUMP JUMPDEST JUMPDEST POP SWAP1 POP PUSH1 0x98 SWAP2 SWAP1 PUSH1 0x9C JUMP JUMPDEST POP SWAP1 JUMP JUMPDEST JUMPDEST DUP1 DUP3 GT ISZERO PUSH1 0xB1 JUMPI PUSH0 DUP2 PUSH0 SWAP1 SSTORE POP PUSH1 0x1 ADD PUSH1 0x9D JUMP JUMPDEST POP SWAP1 JUMP JUMPDEST PUSH2 0x2F7 DUP1 PUSH2 0xC2 PUSH0 CODECOPY PUSH0 RETURN INVALID PUSH1 0x80 PUSH1 0x40 MSTORE CALLVALUE DUP1 ISZERO PUSH2 0xF JUMPI PUSH0 DUP1 REVERT JUMPDEST POP PUSH1 0x4 CALLDATASIZE LT PUSH2 0x3F JUMPI PUSH0 CALLDATALOAD PUSH1 0xE0 SHR DUP1 PUSH4 0x71E5EE5F EQ PUSH2 0x43 JUMPI DUP1 PUSH4 0x8F88708B EQ PUSH2 0x73 JUMPI DUP1 PUSH4 0x91819BF3 EQ PUSH2 0xA3 JUMPI JUMPDEST PUSH0 DUP1 REVERT JUMPDEST PUSH2 0x5D PUSH1 0x4 DUP1 CALLDATASIZE SUB DUP2 ADD SWAP1 PUSH2 0x58 SWAP2 SWAP1 PUSH2 0x18B JUMP JUMPDEST PUSH2 0xBF JUMP JUMPDEST PUSH1 0x40 MLOAD PUSH2 0x6A SWAP2 SWAP1 PUSH2 0x1C5 JUMP JUMPDEST PUSH1 0x40 MLOAD DUP1 SWAP2 SUB SWAP1 RETURN JUMPDEST PUSH2 0x8D PUSH1 0x4 DUP1 CALLDATASIZE SUB DUP2 ADD SWAP1 PUSH2 0x88 SWAP2 SWAP1 PUSH2 0x18B JUMP JUMPDEST PUSH2 0xD7 JUMP JUMPDEST PUSH1 0x40 MLOAD PUSH2 0x9A SWAP2 SWAP1 PUSH2 0x1C5 JUMP JUMPDEST PUSH1 0x40 MLOAD DUP1 SWAP2 SUB SWAP1 RETURN JUMPDEST PUSH2 0xBD PUSH1 0x4 DUP1 CALLDATASIZE SUB DUP2 ADD SWAP1 PUSH2 0xB8 SWAP2 SWAP1 PUSH2 0x1DE JUMP JUMPDEST PUSH2 0xF4 JUMP JUMPDEST STOP JUMPDEST PUSH0 DUP2 PUSH1 0x5 DUP2 LT PUSH2 0xCD JUMPI PUSH0 DUP1 REVERT JUMPDEST ADD PUSH0 SWAP2 POP SWAP1 POP SLOAD DUP2 JUMP JUMPDEST PUSH0 DUP1 DUP3 PUSH1 0x5 DUP2 LT PUSH2 0xEB JUMPI PUSH2 0xEA PUSH2 0x21C JUMP JUMPDEST JUMPDEST ADD SLOAD SWAP1 POP SWAP2 SWAP1 POP JUMP JUMPDEST PUSH1 0x5 DUP2 LT PUSH2 0x137 JUMPI PUSH1 0x40 MLOAD PUSH32 0x8C379A000000000000000000000000000000000000000000000000000000000 DUP2 MSTORE PUSH1 0x4 ADD PUSH2 0x12E SWAP1 PUSH2 0x2A3 JUMP JUMPDEST PUSH1 0x40 MLOAD DUP1 SWAP2 SUB SWAP1 REVERT JUMPDEST DUP2 PUSH0 DUP3 PUSH1 0x5 DUP2 LT PUSH2 0x14B JUMPI PUSH2 0x14A PUSH2 0x21C JUMP JUMPDEST JUMPDEST ADD DUP2 SWAP1 SSTORE POP POP POP JUMP JUMPDEST PUSH0 DUP1 REVERT JUMPDEST PUSH0 DUP2 SWAP1 POP SWAP2 SWAP1 POP JUMP JUMPDEST PUSH2 0x16A DUP2 PUSH2 0x158 JUMP JUMPDEST DUP2 EQ PUSH2 0x174 JUMPI PUSH0 DUP1 REVERT JUMPDEST POP JUMP JUMPDEST PUSH0 DUP2 CALLDATALOAD SWAP1 POP PUSH2 0x185 DUP2 PUSH2 0x161 JUMP JUMPDEST SWAP3 SWAP2 POP POP JUMP JUMPDEST PUSH0 PUSH1 0x20 DUP3 DUP5 SUB SLT ISZERO PUSH2 0x1A0 JUMPI PUSH2 0x19F PUSH2 0x154 JUMP JUMPDEST JUMPDEST PUSH0 PUSH2 0x1AD DUP5 DUP3 DUP6 ADD PUSH2 0x177 JUMP JUMPDEST SWAP2 POP POP SWAP3 SWAP2 POP POP JUMP JUMPDEST PUSH2 0x1BF DUP2 PUSH2 0x158 JUMP JUMPDEST DUP3 MSTORE POP POP JUMP JUMPDEST PUSH0 PUSH1 0x20 DUP3 ADD SWAP1 POP PUSH2 0x1D8 PUSH0 DUP4 ADD DUP5 PUSH2 0x1B6 JUMP JUMPDEST SWAP3 SWAP2 POP POP JUMP JUMPDEST PUSH0 DUP1 PUSH1 0x40 DUP4 DUP6 SUB SLT ISZERO PUSH2 0x1F4 JUMPI PUSH2 0x1F3 PUSH2 0x154 JUMP JUMPDEST JUMPDEST PUSH0 PUSH2 0x201 DUP6 DUP3 DUP7 ADD PUSH2 0x177 JUMP JUMPDEST SWAP3 POP POP PUSH1 0x20 PUSH2 0x212 DUP6 DUP3 DUP7 ADD PUSH2 0x177 JUMP JUMPDEST SWAP2 POP POP SWAP3 POP SWAP3 SWAP1 POP JUMP JUMPDEST PUSH32 0x4E487B7100000000000000000000000000000000000000000000000000000000 PUSH0 MSTORE PUSH1 0x32 PUSH1 0x4 MSTORE PUSH1 0x24 PUSH0 REVERT JUMPDEST PUSH0 DUP3 DUP3 MSTORE PUSH1 0x20 DUP3 ADD SWAP1 POP SWAP3 SWAP2 POP POP JUMP JUMPDEST PUSH32 0x496E646578206F7574206F6620626F756E647300000000000000000000000000 PUSH0 DUP3 ADD MSTORE POP JUMP JUMPDEST PUSH0 PUSH2 0x28D PUSH1 0x13 DUP4 PUSH2 0x249 JUMP JUMPDEST SWAP2 POP PUSH2 0x298 DUP3 PUSH2 0x259 JUMP JUMPDEST PUSH1 0x20 DUP3 ADD SWAP1 POP SWAP2 SWAP1 POP JUMP JUMPDEST PUSH0 PUSH1 0x20 DUP3 ADD SWAP1 POP DUP2 DUP2 SUB PUSH0 DUP4 ADD MSTORE PUSH2 0x2BA DUP2 PUSH2 0x281 JUMP JUMPDEST SWAP1 POP SWAP2 SWAP1 POP JUMP INVALID LOG2 PUSH5 0x6970667358 0x22 SLT KECCAK256 PUSH12 0xC89E8E3CCA91B137FBB617C9 0x29 0xD9 0xC 0xCB 0x4D PUSH32 0xDB77BFE2DC9AB95EE06B4BDB2C64736F6C634300081A00330000000000000000 "
				},
				"gasEstimates": {
					"creation": {
						"codeDepositCost": "151800",
						"executionCost": "infinite",
						"totalCost": "infinite"
					},
					"external": {
						"arr(uint256)": "infinite",
						"retrieve(uint256)": "infinite",
						"updateNumber(uint256,uint256)": "infinite"
					}
				},
				"methodIdentifiers": {
					"arr(uint256)": "71e5ee5f",
					"retrieve(uint256)": "8f88708b",
					"updateNumber(uint256,uint256)": "91819bf3"
				}
			},
			"storageLayout": {
				"storage": [
					{
						"astId": 11,
						"contract": "Assignments/program-13.sol:FixedArray",
						"label": "arr",
						"offset": 0,
						"slot": "0",
						"type": "t_array(t_uint256)5_storage"
					}
				],
				"types": {
					"t_array(t_uint256)5_storage": {
						"base": "t_uint256",
						"encoding": "inplace",
						"label": "uint256[5]",
						"numberOfBytes": "160"
					},
					"t_uint256": {
						"encoding": "inplace",
						"label": "uint256",
						"numberOfBytes": "32"
					}
				}
			},
			"userdoc": {
				"kind": "user",
				"methods": {},
				"version": 1
			}
		}
	}
}