{
	"Assignments/program-18.sol": {
		"CarRental": {
			"abi": [
				{
					"inputs": [
						{
							"internalType": "uint256",
							"name": "_price",
							"type": "uint256"
						}
					],
					"name": "UpdatePrice",
					"outputs": [],
					"stateMutability": "pure",
					"type": "function"
				},
				{
					"inputs": [
						{
							"internalType": "string",
							"name": "_model",
							"type": "string"
						},
						{
							"internalType": "uint256",
							"name": "_price",
							"type": "uint256"
						},
						{
							"internalType": "bool",
							"name": "_availability",
							"type": "bool"
						}
					],
					"name": "addCar",
					"outputs": [],
					"stateMutability": "nonpayable",
					"type": "function"
				},
				{
					"inputs": [
						{
							"internalType": "uint256",
							"name": "",
							"type": "uint256"
						}
					],
					"name": "car",
					"outputs": [
						{
							"internalType": "string",
							"name": "model",
							"type": "string"
						},
						{
							"internalType": "uint256",
							"name": "price",
							"type": "uint256"
						},
						{
							"internalType": "bool",
							"name": "availability",
							"type": "bool"
						}
					],
					"stateMutability": "view",
					"type": "function"
				},
				{
					"inputs": [
						{
							"internalType": "uint256",
							"name": "_index",
							"type": "uint256"
						}
					],
					"name": "retrieve",
					"outputs": [
						{
							"internalType": "string",
							"name": "",
							"type": "string"
						},
						{
							"internalType": "uint256",
							"name": "",
							"type": "uint256"
						},
						{
							"internalType": "bool",
							"name": "",
							"type": "bool"
						}
					],
					"stateMutability": "view",
					"type": "function"
				}
			],
			"devdoc": {
				"kind": "dev",
				"methods": {},
				"version": 1
			},
			"evm": {
				"assembly": "    /* \"Assignments/program-18.sol\":62:658  contract CarRental{... */\n  mstore(0x40, 0x80)\n  callvalue\n  dup1\n  iszero\n  tag_1\n  jumpi\n  0x00\n  dup1\n  revert\ntag_1:\n  pop\n  dataSize(sub_0)\n  dup1\n  dataOffset(sub_0)\n  0x00\n  codecopy\n  0x00\n  return\nstop\n\nsub_0: assembly {\n        /* \"Assignments/program-18.sol\":62:658  contract CarRental{... */\n      mstore(0x40, 0x80)\n      callvalue\n      dup1\n      iszero\n      tag_1\n      jumpi\n      0x00\n      dup1\n      revert\n    tag_1:\n      pop\n      jumpi(tag_2, lt(calldatasize, 0x04))\n      shr(0xe0, calldataload(0x00))\n      dup1\n      0x097a12b0\n      eq\n      tag_3\n      jumpi\n      dup1\n      0x1a15ab71\n      eq\n      tag_4\n      jumpi\n      dup1\n      0x8f88708b\n      eq\n      tag_5\n      jumpi\n      dup1\n      0x91ebc320\n      eq\n      tag_6\n      jumpi\n    tag_2:\n      0x00\n      dup1\n      revert\n        /* \"Assignments/program-18.sol\":207:347  function addCar(string memory _model, uint _price, bool _availability) public{... */\n    tag_3:\n      tag_7\n      0x04\n      dup1\n      calldatasize\n      sub\n      dup2\n      add\n      swap1\n      tag_8\n      swap2\n      swap1\n      tag_9\n      jump\t// in\n    tag_8:\n      tag_10\n      jump\t// in\n    tag_7:\n      stop\n        /* \"Assignments/program-18.sol\":353:462  function UpdatePrice(uint _price) public pure{... */\n    tag_4:\n      tag_11\n      0x04\n      dup1\n      calldatasize\n      sub\n      dup2\n      add\n      swap1\n      tag_12\n      swap2\n      swap1\n      tag_13\n      jump\t// in\n    tag_12:\n      tag_14\n      jump\t// in\n    tag_11:\n      stop\n        /* \"Assignments/program-18.sol\":468:655  function retrieve(uint _index) public view returns(string memory, uint, bool){... */\n    tag_5:\n      tag_15\n      0x04\n      dup1\n      calldatasize\n      sub\n      dup2\n      add\n      swap1\n      tag_16\n      swap2\n      swap1\n      tag_13\n      jump\t// in\n    tag_16:\n      tag_17\n      jump\t// in\n    tag_15:\n      mload(0x40)\n      tag_18\n      swap4\n      swap3\n      swap2\n      swap1\n      tag_19\n      jump\t// in\n    tag_18:\n      mload(0x40)\n      dup1\n      swap2\n      sub\n      swap1\n      return\n        /* \"Assignments/program-18.sol\":184:200  Car[] public car */\n    tag_6:\n      tag_20\n      0x04\n      dup1\n      calldatasize\n      sub\n      dup2\n      add\n      swap1\n      tag_21\n      swap2\n      swap1\n      tag_13\n      jump\t// in\n    tag_21:\n      tag_22\n      jump\t// in\n    tag_20:\n      mload(0x40)\n      tag_23\n      swap4\n      swap3\n      swap2\n      swap1\n      tag_19\n      jump\t// in\n    tag_23:\n      mload(0x40)\n      dup1\n      swap2\n      sub\n      swap1\n      return\n        /* \"Assignments/program-18.sol\":207:347  function addCar(string memory _model, uint _price, bool _availability) public{... */\n    tag_10:\n        /* \"Assignments/program-18.sol\":295:298  car */\n      0x00\n        /* \"Assignments/program-18.sol\":304:338  Car(_model, _price, _availability) */\n      mload(0x40)\n      dup1\n      0x60\n      add\n      0x40\n      mstore\n      dup1\n        /* \"Assignments/program-18.sol\":308:314  _model */\n      dup6\n        /* \"Assignments/program-18.sol\":304:338  Car(_model, _price, _availability) */\n      dup2\n      mstore\n      0x20\n      add\n        /* \"Assignments/program-18.sol\":316:322  _price */\n      dup5\n        /* \"Assignments/program-18.sol\":304:338  Car(_model, _price, _availability) */\n      dup2\n      mstore\n      0x20\n      add\n        /* \"Assignments/program-18.sol\":324:337  _availability */\n      dup4\n        /* \"Assignments/program-18.sol\":304:338  Car(_model, _price, _availability) */\n      iszero\n      iszero\n      dup2\n      mstore\n      pop\n        /* \"Assignments/program-18.sol\":295:339  car.push(Car(_model, _price, _availability)) */\n      swap1\n      dup1\n      0x01\n      dup2\n      sload\n      add\n      dup1\n      dup3\n      sstore\n      dup1\n      swap2\n      pop\n      pop\n      0x01\n      swap1\n      sub\n      swap1\n      0x00\n      mstore\n      keccak256(0x00, 0x20)\n      swap1\n      0x03\n      mul\n      add\n      0x00\n      swap1\n      swap2\n      swap1\n      swap2\n      swap1\n      swap2\n      pop\n      0x00\n      dup3\n      add\n      mload\n      dup2\n      0x00\n      add\n      swap1\n      dup2\n      tag_26\n      swap2\n      swap1\n      tag_27\n      jump\t// in\n    tag_26:\n      pop\n      0x20\n      dup3\n      add\n      mload\n      dup2\n      0x01\n      add\n      sstore\n      0x40\n      dup3\n      add\n      mload\n      dup2\n      0x02\n      add\n      exp(0x0100, 0x00)\n      dup2\n      sload\n      dup2\n      0xff\n      mul\n      not\n      and\n      swap1\n      dup4\n      iszero\n      iszero\n      mul\n      or\n      swap1\n      sstore\n      pop\n      pop\n      pop\n        /* \"Assignments/program-18.sol\":207:347  function addCar(string memory _model, uint _price, bool _availability) public{... */\n      pop\n      pop\n      pop\n      jump\t// out\n        /* \"Assignments/program-18.sol\":353:462  function UpdatePrice(uint _price) public pure{... */\n    tag_14:\n        /* \"Assignments/program-18.sol\":409:424  Car memory car1 */\n      tag_29\n      tag_30\n      jump\t// in\n    tag_29:\n        /* \"Assignments/program-18.sol\":448:454  _price */\n      dup2\n        /* \"Assignments/program-18.sol\":435:439  car1 */\n      dup2\n        /* \"Assignments/program-18.sol\":435:445  car1.price */\n      0x20\n      add\n        /* \"Assignments/program-18.sol\":435:454  car1.price = _price */\n      dup2\n      dup2\n      mstore\n      pop\n      pop\n        /* \"Assignments/program-18.sol\":398:462  {... */\n      pop\n        /* \"Assignments/program-18.sol\":353:462  function UpdatePrice(uint _price) public pure{... */\n      pop\n      jump\t// out\n        /* \"Assignments/program-18.sol\":468:655  function retrieve(uint _index) public view returns(string memory, uint, bool){... */\n    tag_17:\n        /* \"Assignments/program-18.sol\":519:532  string memory */\n      0x60\n        /* \"Assignments/program-18.sol\":534:538  uint */\n      0x00\n        /* \"Assignments/program-18.sol\":540:544  bool */\n      dup1\n        /* \"Assignments/program-18.sol\":556:572  Car storage car2 */\n      0x00\n        /* \"Assignments/program-18.sol\":575:578  car */\n      dup1\n        /* \"Assignments/program-18.sol\":579:585  _index */\n      dup6\n        /* \"Assignments/program-18.sol\":575:586  car[_index] */\n      dup2\n      sload\n      dup2\n      lt\n      tag_32\n      jumpi\n      tag_33\n      tag_34\n      jump\t// in\n    tag_33:\n    tag_32:\n      swap1\n      0x00\n      mstore\n      keccak256(0x00, 0x20)\n      swap1\n      0x03\n      mul\n      add\n        /* \"Assignments/program-18.sol\":556:586  Car storage car2 = car[_index] */\n      swap1\n      pop\n        /* \"Assignments/program-18.sol\":605:609  car2 */\n      dup1\n        /* \"Assignments/program-18.sol\":605:615  car2.model */\n      0x00\n      add\n        /* \"Assignments/program-18.sol\":617:621  car2 */\n      dup2\n        /* \"Assignments/program-18.sol\":617:627  car2.price */\n      0x01\n      add\n      sload\n        /* \"Assignments/program-18.sol\":629:633  car2 */\n      dup3\n        /* \"Assignments/program-18.sol\":629:646  car2.availability */\n      0x02\n      add\n      0x00\n      swap1\n      sload\n      swap1\n      0x0100\n      exp\n      swap1\n      div\n      0xff\n      and\n        /* \"Assignments/program-18.sol\":597:647  return (car2.model, car2.price, car2.availability) */\n      dup3\n      dup1\n      sload\n      tag_36\n      swap1\n      tag_37\n      jump\t// in\n    tag_36:\n      dup1\n      0x1f\n      add\n      0x20\n      dup1\n      swap2\n      div\n      mul\n      0x20\n      add\n      mload(0x40)\n      swap1\n      dup2\n      add\n      0x40\n      mstore\n      dup1\n      swap3\n      swap2\n      swap1\n      dup2\n      dup2\n      mstore\n      0x20\n      add\n      dup3\n      dup1\n      sload\n      tag_38\n      swap1\n      tag_37\n      jump\t// in\n    tag_38:\n      dup1\n      iszero\n      tag_39\n      jumpi\n      dup1\n      0x1f\n      lt\n      tag_40\n      jumpi\n      0x0100\n      dup1\n      dup4\n      sload\n      div\n      mul\n      dup4\n      mstore\n      swap2\n      0x20\n      add\n      swap2\n      jump(tag_39)\n    tag_40:\n      dup3\n      add\n      swap2\n      swap1\n      0x00\n      mstore\n      keccak256(0x00, 0x20)\n      swap1\n    tag_41:\n      dup2\n      sload\n      dup2\n      mstore\n      swap1\n      0x01\n      add\n      swap1\n      0x20\n      add\n      dup1\n      dup4\n      gt\n      tag_41\n      jumpi\n      dup3\n      swap1\n      sub\n      0x1f\n      and\n      dup3\n      add\n      swap2\n    tag_39:\n      pop\n      pop\n      pop\n      pop\n      pop\n      swap3\n      pop\n      swap4\n      pop\n      swap4\n      pop\n      swap4\n      pop\n      pop\n        /* \"Assignments/program-18.sol\":468:655  function retrieve(uint _index) public view returns(string memory, uint, bool){... */\n      swap2\n      swap4\n      swap1\n      swap3\n      pop\n      jump\t// out\n        /* \"Assignments/program-18.sol\":184:200  Car[] public car */\n    tag_22:\n      0x00\n      dup2\n      dup2\n      sload\n      dup2\n      lt\n      tag_42\n      jumpi\n      0x00\n      dup1\n      revert\n    tag_42:\n      swap1\n      0x00\n      mstore\n      keccak256(0x00, 0x20)\n      swap1\n      0x03\n      mul\n      add\n      0x00\n      swap2\n      pop\n      swap1\n      pop\n      dup1\n      0x00\n      add\n      dup1\n      sload\n      tag_44\n      swap1\n      tag_37\n      jump\t// in\n    tag_44:\n      dup1\n      0x1f\n      add\n      0x20\n      dup1\n      swap2\n      div\n      mul\n      0x20\n      add\n      mload(0x40)\n      swap1\n      dup2\n      add\n      0x40\n      mstore\n      dup1\n      swap3\n      swap2\n      swap1\n      dup2\n      dup2\n      mstore\n      0x20\n      add\n      dup3\n      dup1\n      sload\n      tag_45\n      swap1\n      tag_37\n      jump\t// in\n    tag_45:\n      dup1\n      iszero\n      tag_46\n      jumpi\n      dup1\n      0x1f\n      lt\n      tag_47\n      jumpi\n      0x0100\n      dup1\n      dup4\n      sload\n      div\n      mul\n      dup4\n      mstore\n      swap2\n      0x20\n      add\n      swap2\n      jump(tag_46)\n    tag_47:\n      dup3\n      add\n      swap2\n      swap1\n      0x00\n      mstore\n      keccak256(0x00, 0x20)\n      swap1\n    tag_48:\n      dup2\n      sload\n      dup2\n      mstore\n      swap1\n      0x01\n      add\n      swap1\n      0x20\n      add\n      dup1\n      dup4\n      gt\n      tag_48\n      jumpi\n      dup3\n      swap1\n      sub\n      0x1f\n      and\n      dup3\n      add\n      swap2\n    tag_46:\n      pop\n      pop\n      pop\n      pop\n      pop\n      swap1\n      dup1\n      0x01\n      add\n      sload\n      swap1\n      dup1\n      0x02\n      add\n      0x00\n      swap1\n      sload\n      swap1\n      0x0100\n      exp\n      swap1\n      div\n      0xff\n      and\n      swap1\n      pop\n      dup4\n      jump\t// out\n    tag_30:\n      mload(0x40)\n      dup1\n      0x60\n      add\n      0x40\n      mstore\n      dup1\n      0x60\n      dup2\n      mstore\n      0x20\n      add\n      0x00\n      dup2\n      mstore\n      0x20\n      add\n      iszero(iszero(0x00))\n      dup2\n      mstore\n      pop\n      swap1\n      jump\t// out\n        /* \"#utility.yul\":7:82   */\n    tag_49:\n        /* \"#utility.yul\":40:46   */\n      0x00\n        /* \"#utility.yul\":73:75   */\n      0x40\n        /* \"#utility.yul\":67:76   */\n      mload\n        /* \"#utility.yul\":57:76   */\n      swap1\n      pop\n        /* \"#utility.yul\":7:82   */\n      swap1\n      jump\t// out\n        /* \"#utility.yul\":88:205   */\n    tag_50:\n        /* \"#utility.yul\":197:198   */\n      0x00\n        /* \"#utility.yul\":194:195   */\n      dup1\n        /* \"#utility.yul\":187:199   */\n      revert\n        /* \"#utility.yul\":211:328   */\n    tag_51:\n        /* \"#utility.yul\":320:321   */\n      0x00\n        /* \"#utility.yul\":317:318   */\n      dup1\n        /* \"#utility.yul\":310:322   */\n      revert\n        /* \"#utility.yul\":334:451   */\n    tag_52:\n        /* \"#utility.yul\":443:444   */\n      0x00\n        /* \"#utility.yul\":440:441   */\n      dup1\n        /* \"#utility.yul\":433:445   */\n      revert\n        /* \"#utility.yul\":457:574   */\n    tag_53:\n        /* \"#utility.yul\":566:567   */\n      0x00\n        /* \"#utility.yul\":563:564   */\n      dup1\n        /* \"#utility.yul\":556:568   */\n      revert\n        /* \"#utility.yul\":580:682   */\n    tag_54:\n        /* \"#utility.yul\":621:627   */\n      0x00\n        /* \"#utility.yul\":672:674   */\n      0x1f\n        /* \"#utility.yul\":668:675   */\n      not\n        /* \"#utility.yul\":663:665   */\n      0x1f\n        /* \"#utility.yul\":656:661   */\n      dup4\n        /* \"#utility.yul\":652:666   */\n      add\n        /* \"#utility.yul\":648:676   */\n      and\n        /* \"#utility.yul\":638:676   */\n      swap1\n      pop\n        /* \"#utility.yul\":580:682   */\n      swap2\n      swap1\n      pop\n      jump\t// out\n        /* \"#utility.yul\":688:868   */\n    tag_55:\n        /* \"#utility.yul\":736:813   */\n      0x4e487b7100000000000000000000000000000000000000000000000000000000\n        /* \"#utility.yul\":733:734   */\n      0x00\n        /* \"#utility.yul\":726:814   */\n      mstore\n        /* \"#utility.yul\":833:837   */\n      0x41\n        /* \"#utility.yul\":830:831   */\n      0x04\n        /* \"#utility.yul\":823:838   */\n      mstore\n        /* \"#utility.yul\":857:861   */\n      0x24\n        /* \"#utility.yul\":854:855   */\n      0x00\n        /* \"#utility.yul\":847:862   */\n      revert\n        /* \"#utility.yul\":874:1155   */\n    tag_56:\n        /* \"#utility.yul\":957:984   */\n      tag_99\n        /* \"#utility.yul\":979:983   */\n      dup3\n        /* \"#utility.yul\":957:984   */\n      tag_54\n      jump\t// in\n    tag_99:\n        /* \"#utility.yul\":949:955   */\n      dup2\n        /* \"#utility.yul\":945:985   */\n      add\n        /* \"#utility.yul\":1087:1093   */\n      dup2\n        /* \"#utility.yul\":1075:1085   */\n      dup2\n        /* \"#utility.yul\":1072:1094   */\n      lt\n        /* \"#utility.yul\":1051:1069   */\n      0xffffffffffffffff\n        /* \"#utility.yul\":1039:1049   */\n      dup3\n        /* \"#utility.yul\":1036:1070   */\n      gt\n        /* \"#utility.yul\":1033:1095   */\n      or\n        /* \"#utility.yul\":1030:1118   */\n      iszero\n      tag_100\n      jumpi\n        /* \"#utility.yul\":1098:1116   */\n      tag_101\n      tag_55\n      jump\t// in\n    tag_101:\n        /* \"#utility.yul\":1030:1118   */\n    tag_100:\n        /* \"#utility.yul\":1138:1148   */\n      dup1\n        /* \"#utility.yul\":1134:1136   */\n      0x40\n        /* \"#utility.yul\":1127:1149   */\n      mstore\n        /* \"#utility.yul\":917:1155   */\n      pop\n        /* \"#utility.yul\":874:1155   */\n      pop\n      pop\n      jump\t// out\n        /* \"#utility.yul\":1161:1290   */\n    tag_57:\n        /* \"#utility.yul\":1195:1201   */\n      0x00\n        /* \"#utility.yul\":1222:1242   */\n      tag_103\n      tag_49\n      jump\t// in\n    tag_103:\n        /* \"#utility.yul\":1212:1242   */\n      swap1\n      pop\n        /* \"#utility.yul\":1251:1284   */\n      tag_104\n        /* \"#utility.yul\":1279:1283   */\n      dup3\n        /* \"#utility.yul\":1271:1277   */\n      dup3\n        /* \"#utility.yul\":1251:1284   */\n      tag_56\n      jump\t// in\n    tag_104:\n        /* \"#utility.yul\":1161:1290   */\n      swap2\n      swap1\n      pop\n      jump\t// out\n        /* \"#utility.yul\":1296:1604   */\n    tag_58:\n        /* \"#utility.yul\":1358:1362   */\n      0x00\n        /* \"#utility.yul\":1448:1466   */\n      0xffffffffffffffff\n        /* \"#utility.yul\":1440:1446   */\n      dup3\n        /* \"#utility.yul\":1437:1467   */\n      gt\n        /* \"#utility.yul\":1434:1490   */\n      iszero\n      tag_106\n      jumpi\n        /* \"#utility.yul\":1470:1488   */\n      tag_107\n      tag_55\n      jump\t// in\n    tag_107:\n        /* \"#utility.yul\":1434:1490   */\n    tag_106:\n        /* \"#utility.yul\":1508:1537   */\n      tag_108\n        /* \"#utility.yul\":1530:1536   */\n      dup3\n        /* \"#utility.yul\":1508:1537   */\n      tag_54\n      jump\t// in\n    tag_108:\n        /* \"#utility.yul\":1500:1537   */\n      swap1\n      pop\n        /* \"#utility.yul\":1592:1596   */\n      0x20\n        /* \"#utility.yul\":1586:1590   */\n      dup2\n        /* \"#utility.yul\":1582:1597   */\n      add\n        /* \"#utility.yul\":1574:1597   */\n      swap1\n      pop\n        /* \"#utility.yul\":1296:1604   */\n      swap2\n      swap1\n      pop\n      jump\t// out\n        /* \"#utility.yul\":1610:1758   */\n    tag_59:\n        /* \"#utility.yul\":1708:1714   */\n      dup3\n        /* \"#utility.yul\":1703:1706   */\n      dup2\n        /* \"#utility.yul\":1698:1701   */\n      dup4\n        /* \"#utility.yul\":1685:1715   */\n      calldatacopy\n        /* \"#utility.yul\":1749:1750   */\n      0x00\n        /* \"#utility.yul\":1740:1746   */\n      dup4\n        /* \"#utility.yul\":1735:1738   */\n      dup4\n        /* \"#utility.yul\":1731:1747   */\n      add\n        /* \"#utility.yul\":1724:1751   */\n      mstore\n        /* \"#utility.yul\":1610:1758   */\n      pop\n      pop\n      pop\n      jump\t// out\n        /* \"#utility.yul\":1764:2189   */\n    tag_60:\n        /* \"#utility.yul\":1842:1847   */\n      0x00\n        /* \"#utility.yul\":1867:1933   */\n      tag_111\n        /* \"#utility.yul\":1883:1932   */\n      tag_112\n        /* \"#utility.yul\":1925:1931   */\n      dup5\n        /* \"#utility.yul\":1883:1932   */\n      tag_58\n      jump\t// in\n    tag_112:\n        /* \"#utility.yul\":1867:1933   */\n      tag_57\n      jump\t// in\n    tag_111:\n        /* \"#utility.yul\":1858:1933   */\n      swap1\n      pop\n        /* \"#utility.yul\":1956:1962   */\n      dup3\n        /* \"#utility.yul\":1949:1954   */\n      dup2\n        /* \"#utility.yul\":1942:1963   */\n      mstore\n        /* \"#utility.yul\":1994:1998   */\n      0x20\n        /* \"#utility.yul\":1987:1992   */\n      dup2\n        /* \"#utility.yul\":1983:1999   */\n      add\n        /* \"#utility.yul\":2032:2035   */\n      dup5\n        /* \"#utility.yul\":2023:2029   */\n      dup5\n        /* \"#utility.yul\":2018:2021   */\n      dup5\n        /* \"#utility.yul\":2014:2030   */\n      add\n        /* \"#utility.yul\":2011:2036   */\n      gt\n        /* \"#utility.yul\":2008:2120   */\n      iszero\n      tag_113\n      jumpi\n        /* \"#utility.yul\":2039:2118   */\n      tag_114\n      tag_53\n      jump\t// in\n    tag_114:\n        /* \"#utility.yul\":2008:2120   */\n    tag_113:\n        /* \"#utility.yul\":2129:2183   */\n      tag_115\n        /* \"#utility.yul\":2176:2182   */\n      dup5\n        /* \"#utility.yul\":2171:2174   */\n      dup3\n        /* \"#utility.yul\":2166:2169   */\n      dup6\n        /* \"#utility.yul\":2129:2183   */\n      tag_59\n      jump\t// in\n    tag_115:\n        /* \"#utility.yul\":1848:2189   */\n      pop\n        /* \"#utility.yul\":1764:2189   */\n      swap4\n      swap3\n      pop\n      pop\n      pop\n      jump\t// out\n        /* \"#utility.yul\":2209:2549   */\n    tag_61:\n        /* \"#utility.yul\":2265:2270   */\n      0x00\n        /* \"#utility.yul\":2314:2317   */\n      dup3\n        /* \"#utility.yul\":2307:2311   */\n      0x1f\n        /* \"#utility.yul\":2299:2305   */\n      dup4\n        /* \"#utility.yul\":2295:2312   */\n      add\n        /* \"#utility.yul\":2291:2318   */\n      slt\n        /* \"#utility.yul\":2281:2403   */\n      tag_117\n      jumpi\n        /* \"#utility.yul\":2322:2401   */\n      tag_118\n      tag_52\n      jump\t// in\n    tag_118:\n        /* \"#utility.yul\":2281:2403   */\n    tag_117:\n        /* \"#utility.yul\":2439:2445   */\n      dup2\n        /* \"#utility.yul\":2426:2446   */\n      calldataload\n        /* \"#utility.yul\":2464:2543   */\n      tag_119\n        /* \"#utility.yul\":2539:2542   */\n      dup5\n        /* \"#utility.yul\":2531:2537   */\n      dup3\n        /* \"#utility.yul\":2524:2528   */\n      0x20\n        /* \"#utility.yul\":2516:2522   */\n      dup7\n        /* \"#utility.yul\":2512:2529   */\n      add\n        /* \"#utility.yul\":2464:2543   */\n      tag_60\n      jump\t// in\n    tag_119:\n        /* \"#utility.yul\":2455:2543   */\n      swap2\n      pop\n        /* \"#utility.yul\":2271:2549   */\n      pop\n        /* \"#utility.yul\":2209:2549   */\n      swap3\n      swap2\n      pop\n      pop\n      jump\t// out\n        /* \"#utility.yul\":2555:2632   */\n    tag_62:\n        /* \"#utility.yul\":2592:2599   */\n      0x00\n        /* \"#utility.yul\":2621:2626   */\n      dup2\n        /* \"#utility.yul\":2610:2626   */\n      swap1\n      pop\n        /* \"#utility.yul\":2555:2632   */\n      swap2\n      swap1\n      pop\n      jump\t// out\n        /* \"#utility.yul\":2638:2760   */\n    tag_63:\n        /* \"#utility.yul\":2711:2735   */\n      tag_122\n        /* \"#utility.yul\":2729:2734   */\n      dup2\n        /* \"#utility.yul\":2711:2735   */\n      tag_62\n      jump\t// in\n    tag_122:\n        /* \"#utility.yul\":2704:2709   */\n      dup2\n        /* \"#utility.yul\":2701:2736   */\n      eq\n        /* \"#utility.yul\":2691:2754   */\n      tag_123\n      jumpi\n        /* \"#utility.yul\":2750:2751   */\n      0x00\n        /* \"#utility.yul\":2747:2748   */\n      dup1\n        /* \"#utility.yul\":2740:2752   */\n      revert\n        /* \"#utility.yul\":2691:2754   */\n    tag_123:\n        /* \"#utility.yul\":2638:2760   */\n      pop\n      jump\t// out\n        /* \"#utility.yul\":2766:2905   */\n    tag_64:\n        /* \"#utility.yul\":2812:2817   */\n      0x00\n        /* \"#utility.yul\":2850:2856   */\n      dup2\n        /* \"#utility.yul\":2837:2857   */\n      calldataload\n        /* \"#utility.yul\":2828:2857   */\n      swap1\n      pop\n        /* \"#utility.yul\":2866:2899   */\n      tag_125\n        /* \"#utility.yul\":2893:2898   */\n      dup2\n        /* \"#utility.yul\":2866:2899   */\n      tag_63\n      jump\t// in\n    tag_125:\n        /* \"#utility.yul\":2766:2905   */\n      swap3\n      swap2\n      pop\n      pop\n      jump\t// out\n        /* \"#utility.yul\":2911:3001   */\n    tag_65:\n        /* \"#utility.yul\":2945:2952   */\n      0x00\n        /* \"#utility.yul\":2988:2993   */\n      dup2\n        /* \"#utility.yul\":2981:2994   */\n      iszero\n        /* \"#utility.yul\":2974:2995   */\n      iszero\n        /* \"#utility.yul\":2963:2995   */\n      swap1\n      pop\n        /* \"#utility.yul\":2911:3001   */\n      swap2\n      swap1\n      pop\n      jump\t// out\n        /* \"#utility.yul\":3007:3123   */\n    tag_66:\n        /* \"#utility.yul\":3077:3098   */\n      tag_128\n        /* \"#utility.yul\":3092:3097   */\n      dup2\n        /* \"#utility.yul\":3077:3098   */\n      tag_65\n      jump\t// in\n    tag_128:\n        /* \"#utility.yul\":3070:3075   */\n      dup2\n        /* \"#utility.yul\":3067:3099   */\n      eq\n        /* \"#utility.yul\":3057:3117   */\n      tag_129\n      jumpi\n        /* \"#utility.yul\":3113:3114   */\n      0x00\n        /* \"#utility.yul\":3110:3111   */\n      dup1\n        /* \"#utility.yul\":3103:3115   */\n      revert\n        /* \"#utility.yul\":3057:3117   */\n    tag_129:\n        /* \"#utility.yul\":3007:3123   */\n      pop\n      jump\t// out\n        /* \"#utility.yul\":3129:3262   */\n    tag_67:\n        /* \"#utility.yul\":3172:3177   */\n      0x00\n        /* \"#utility.yul\":3210:3216   */\n      dup2\n        /* \"#utility.yul\":3197:3217   */\n      calldataload\n        /* \"#utility.yul\":3188:3217   */\n      swap1\n      pop\n        /* \"#utility.yul\":3226:3256   */\n      tag_131\n        /* \"#utility.yul\":3250:3255   */\n      dup2\n        /* \"#utility.yul\":3226:3256   */\n      tag_66\n      jump\t// in\n    tag_131:\n        /* \"#utility.yul\":3129:3262   */\n      swap3\n      swap2\n      pop\n      pop\n      jump\t// out\n        /* \"#utility.yul\":3268:4061   */\n    tag_9:\n        /* \"#utility.yul\":3352:3358   */\n      0x00\n        /* \"#utility.yul\":3360:3366   */\n      dup1\n        /* \"#utility.yul\":3368:3374   */\n      0x00\n        /* \"#utility.yul\":3417:3419   */\n      0x60\n        /* \"#utility.yul\":3405:3414   */\n      dup5\n        /* \"#utility.yul\":3396:3403   */\n      dup7\n        /* \"#utility.yul\":3392:3415   */\n      sub\n        /* \"#utility.yul\":3388:3420   */\n      slt\n        /* \"#utility.yul\":3385:3504   */\n      iszero\n      tag_133\n      jumpi\n        /* \"#utility.yul\":3423:3502   */\n      tag_134\n      tag_50\n      jump\t// in\n    tag_134:\n        /* \"#utility.yul\":3385:3504   */\n    tag_133:\n        /* \"#utility.yul\":3571:3572   */\n      0x00\n        /* \"#utility.yul\":3560:3569   */\n      dup5\n        /* \"#utility.yul\":3556:3573   */\n      add\n        /* \"#utility.yul\":3543:3574   */\n      calldataload\n        /* \"#utility.yul\":3601:3619   */\n      0xffffffffffffffff\n        /* \"#utility.yul\":3593:3599   */\n      dup2\n        /* \"#utility.yul\":3590:3620   */\n      gt\n        /* \"#utility.yul\":3587:3704   */\n      iszero\n      tag_135\n      jumpi\n        /* \"#utility.yul\":3623:3702   */\n      tag_136\n      tag_51\n      jump\t// in\n    tag_136:\n        /* \"#utility.yul\":3587:3704   */\n    tag_135:\n        /* \"#utility.yul\":3728:3791   */\n      tag_137\n        /* \"#utility.yul\":3783:3790   */\n      dup7\n        /* \"#utility.yul\":3774:3780   */\n      dup3\n        /* \"#utility.yul\":3763:3772   */\n      dup8\n        /* \"#utility.yul\":3759:3781   */\n      add\n        /* \"#utility.yul\":3728:3791   */\n      tag_61\n      jump\t// in\n    tag_137:\n        /* \"#utility.yul\":3718:3791   */\n      swap4\n      pop\n        /* \"#utility.yul\":3514:3801   */\n      pop\n        /* \"#utility.yul\":3840:3842   */\n      0x20\n        /* \"#utility.yul\":3866:3919   */\n      tag_138\n        /* \"#utility.yul\":3911:3918   */\n      dup7\n        /* \"#utility.yul\":3902:3908   */\n      dup3\n        /* \"#utility.yul\":3891:3900   */\n      dup8\n        /* \"#utility.yul\":3887:3909   */\n      add\n        /* \"#utility.yul\":3866:3919   */\n      tag_64\n      jump\t// in\n    tag_138:\n        /* \"#utility.yul\":3856:3919   */\n      swap3\n      pop\n        /* \"#utility.yul\":3811:3929   */\n      pop\n        /* \"#utility.yul\":3968:3970   */\n      0x40\n        /* \"#utility.yul\":3994:4044   */\n      tag_139\n        /* \"#utility.yul\":4036:4043   */\n      dup7\n        /* \"#utility.yul\":4027:4033   */\n      dup3\n        /* \"#utility.yul\":4016:4025   */\n      dup8\n        /* \"#utility.yul\":4012:4034   */\n      add\n        /* \"#utility.yul\":3994:4044   */\n      tag_67\n      jump\t// in\n    tag_139:\n        /* \"#utility.yul\":3984:4044   */\n      swap2\n      pop\n        /* \"#utility.yul\":3939:4054   */\n      pop\n        /* \"#utility.yul\":3268:4061   */\n      swap3\n      pop\n      swap3\n      pop\n      swap3\n      jump\t// out\n        /* \"#utility.yul\":4067:4396   */\n    tag_13:\n        /* \"#utility.yul\":4126:4132   */\n      0x00\n        /* \"#utility.yul\":4175:4177   */\n      0x20\n        /* \"#utility.yul\":4163:4172   */\n      dup3\n        /* \"#utility.yul\":4154:4161   */\n      dup5\n        /* \"#utility.yul\":4150:4173   */\n      sub\n        /* \"#utility.yul\":4146:4178   */\n      slt\n        /* \"#utility.yul\":4143:4262   */\n      iszero\n      tag_141\n      jumpi\n        /* \"#utility.yul\":4181:4260   */\n      tag_142\n      tag_50\n      jump\t// in\n    tag_142:\n        /* \"#utility.yul\":4143:4262   */\n    tag_141:\n        /* \"#utility.yul\":4301:4302   */\n      0x00\n        /* \"#utility.yul\":4326:4379   */\n      tag_143\n        /* \"#utility.yul\":4371:4378   */\n      dup5\n        /* \"#utility.yul\":4362:4368   */\n      dup3\n        /* \"#utility.yul\":4351:4360   */\n      dup6\n        /* \"#utility.yul\":4347:4369   */\n      add\n        /* \"#utility.yul\":4326:4379   */\n      tag_64\n      jump\t// in\n    tag_143:\n        /* \"#utility.yul\":4316:4379   */\n      swap2\n      pop\n        /* \"#utility.yul\":4272:4389   */\n      pop\n        /* \"#utility.yul\":4067:4396   */\n      swap3\n      swap2\n      pop\n      pop\n      jump\t// out\n        /* \"#utility.yul\":4402:4501   */\n    tag_68:\n        /* \"#utility.yul\":4454:4460   */\n      0x00\n        /* \"#utility.yul\":4488:4493   */\n      dup2\n        /* \"#utility.yul\":4482:4494   */\n      mload\n        /* \"#utility.yul\":4472:4494   */\n      swap1\n      pop\n        /* \"#utility.yul\":4402:4501   */\n      swap2\n      swap1\n      pop\n      jump\t// out\n        /* \"#utility.yul\":4507:4676   */\n    tag_69:\n        /* \"#utility.yul\":4591:4602   */\n      0x00\n        /* \"#utility.yul\":4625:4631   */\n      dup3\n        /* \"#utility.yul\":4620:4623   */\n      dup3\n        /* \"#utility.yul\":4613:4632   */\n      mstore\n        /* \"#utility.yul\":4665:4669   */\n      0x20\n        /* \"#utility.yul\":4660:4663   */\n      dup3\n        /* \"#utility.yul\":4656:4670   */\n      add\n        /* \"#utility.yul\":4641:4670   */\n      swap1\n      pop\n        /* \"#utility.yul\":4507:4676   */\n      swap3\n      swap2\n      pop\n      pop\n      jump\t// out\n        /* \"#utility.yul\":4682:4821   */\n    tag_70:\n        /* \"#utility.yul\":4771:4777   */\n      dup3\n        /* \"#utility.yul\":4766:4769   */\n      dup2\n        /* \"#utility.yul\":4761:4764   */\n      dup4\n        /* \"#utility.yul\":4755:4778   */\n      mcopy\n        /* \"#utility.yul\":4812:4813   */\n      0x00\n        /* \"#utility.yul\":4803:4809   */\n      dup4\n        /* \"#utility.yul\":4798:4801   */\n      dup4\n        /* \"#utility.yul\":4794:4810   */\n      add\n        /* \"#utility.yul\":4787:4814   */\n      mstore\n        /* \"#utility.yul\":4682:4821   */\n      pop\n      pop\n      pop\n      jump\t// out\n        /* \"#utility.yul\":4827:5204   */\n    tag_71:\n        /* \"#utility.yul\":4915:4918   */\n      0x00\n        /* \"#utility.yul\":4943:4982   */\n      tag_148\n        /* \"#utility.yul\":4976:4981   */\n      dup3\n        /* \"#utility.yul\":4943:4982   */\n      tag_68\n      jump\t// in\n    tag_148:\n        /* \"#utility.yul\":4998:5069   */\n      tag_149\n        /* \"#utility.yul\":5062:5068   */\n      dup2\n        /* \"#utility.yul\":5057:5060   */\n      dup6\n        /* \"#utility.yul\":4998:5069   */\n      tag_69\n      jump\t// in\n    tag_149:\n        /* \"#utility.yul\":4991:5069   */\n      swap4\n      pop\n        /* \"#utility.yul\":5078:5143   */\n      tag_150\n        /* \"#utility.yul\":5136:5142   */\n      dup2\n        /* \"#utility.yul\":5131:5134   */\n      dup6\n        /* \"#utility.yul\":5124:5128   */\n      0x20\n        /* \"#utility.yul\":5117:5122   */\n      dup7\n        /* \"#utility.yul\":5113:5129   */\n      add\n        /* \"#utility.yul\":5078:5143   */\n      tag_70\n      jump\t// in\n    tag_150:\n        /* \"#utility.yul\":5168:5197   */\n      tag_151\n        /* \"#utility.yul\":5190:5196   */\n      dup2\n        /* \"#utility.yul\":5168:5197   */\n      tag_54\n      jump\t// in\n    tag_151:\n        /* \"#utility.yul\":5163:5166   */\n      dup5\n        /* \"#utility.yul\":5159:5198   */\n      add\n        /* \"#utility.yul\":5152:5198   */\n      swap2\n      pop\n        /* \"#utility.yul\":4919:5204   */\n      pop\n        /* \"#utility.yul\":4827:5204   */\n      swap3\n      swap2\n      pop\n      pop\n      jump\t// out\n        /* \"#utility.yul\":5210:5328   */\n    tag_72:\n        /* \"#utility.yul\":5297:5321   */\n      tag_153\n        /* \"#utility.yul\":5315:5320   */\n      dup2\n        /* \"#utility.yul\":5297:5321   */\n      tag_62\n      jump\t// in\n    tag_153:\n        /* \"#utility.yul\":5292:5295   */\n      dup3\n        /* \"#utility.yul\":5285:5322   */\n      mstore\n        /* \"#utility.yul\":5210:5328   */\n      pop\n      pop\n      jump\t// out\n        /* \"#utility.yul\":5334:5443   */\n    tag_73:\n        /* \"#utility.yul\":5415:5436   */\n      tag_155\n        /* \"#utility.yul\":5430:5435   */\n      dup2\n        /* \"#utility.yul\":5415:5436   */\n      tag_65\n      jump\t// in\n    tag_155:\n        /* \"#utility.yul\":5410:5413   */\n      dup3\n        /* \"#utility.yul\":5403:5437   */\n      mstore\n        /* \"#utility.yul\":5334:5443   */\n      pop\n      pop\n      jump\t// out\n        /* \"#utility.yul\":5449:5970   */\n    tag_19:\n        /* \"#utility.yul\":5612:5616   */\n      0x00\n        /* \"#utility.yul\":5650:5652   */\n      0x60\n        /* \"#utility.yul\":5639:5648   */\n      dup3\n        /* \"#utility.yul\":5635:5653   */\n      add\n        /* \"#utility.yul\":5627:5653   */\n      swap1\n      pop\n        /* \"#utility.yul\":5699:5708   */\n      dup2\n        /* \"#utility.yul\":5693:5697   */\n      dup2\n        /* \"#utility.yul\":5689:5709   */\n      sub\n        /* \"#utility.yul\":5685:5686   */\n      0x00\n        /* \"#utility.yul\":5674:5683   */\n      dup4\n        /* \"#utility.yul\":5670:5687   */\n      add\n        /* \"#utility.yul\":5663:5710   */\n      mstore\n        /* \"#utility.yul\":5727:5805   */\n      tag_157\n        /* \"#utility.yul\":5800:5804   */\n      dup2\n        /* \"#utility.yul\":5791:5797   */\n      dup7\n        /* \"#utility.yul\":5727:5805   */\n      tag_71\n      jump\t// in\n    tag_157:\n        /* \"#utility.yul\":5719:5805   */\n      swap1\n      pop\n        /* \"#utility.yul\":5815:5887   */\n      tag_158\n        /* \"#utility.yul\":5883:5885   */\n      0x20\n        /* \"#utility.yul\":5872:5881   */\n      dup4\n        /* \"#utility.yul\":5868:5886   */\n      add\n        /* \"#utility.yul\":5859:5865   */\n      dup6\n        /* \"#utility.yul\":5815:5887   */\n      tag_72\n      jump\t// in\n    tag_158:\n        /* \"#utility.yul\":5897:5963   */\n      tag_159\n        /* \"#utility.yul\":5959:5961   */\n      0x40\n        /* \"#utility.yul\":5948:5957   */\n      dup4\n        /* \"#utility.yul\":5944:5962   */\n      add\n        /* \"#utility.yul\":5935:5941   */\n      dup5\n        /* \"#utility.yul\":5897:5963   */\n      tag_73\n      jump\t// in\n    tag_159:\n        /* \"#utility.yul\":5449:5970   */\n      swap5\n      swap4\n      pop\n      pop\n      pop\n      pop\n      jump\t// out\n        /* \"#utility.yul\":5976:6156   */\n    tag_74:\n        /* \"#utility.yul\":6024:6101   */\n      0x4e487b7100000000000000000000000000000000000000000000000000000000\n        /* \"#utility.yul\":6021:6022   */\n      0x00\n        /* \"#utility.yul\":6014:6102   */\n      mstore\n        /* \"#utility.yul\":6121:6125   */\n      0x22\n        /* \"#utility.yul\":6118:6119   */\n      0x04\n        /* \"#utility.yul\":6111:6126   */\n      mstore\n        /* \"#utility.yul\":6145:6149   */\n      0x24\n        /* \"#utility.yul\":6142:6143   */\n      0x00\n        /* \"#utility.yul\":6135:6150   */\n      revert\n        /* \"#utility.yul\":6162:6482   */\n    tag_37:\n        /* \"#utility.yul\":6206:6212   */\n      0x00\n        /* \"#utility.yul\":6243:6244   */\n      0x02\n        /* \"#utility.yul\":6237:6241   */\n      dup3\n        /* \"#utility.yul\":6233:6245   */\n      div\n        /* \"#utility.yul\":6223:6245   */\n      swap1\n      pop\n        /* \"#utility.yul\":6290:6291   */\n      0x01\n        /* \"#utility.yul\":6284:6288   */\n      dup3\n        /* \"#utility.yul\":6280:6292   */\n      and\n        /* \"#utility.yul\":6311:6329   */\n      dup1\n        /* \"#utility.yul\":6301:6382   */\n      tag_162\n      jumpi\n        /* \"#utility.yul\":6367:6371   */\n      0x7f\n        /* \"#utility.yul\":6359:6365   */\n      dup3\n        /* \"#utility.yul\":6355:6372   */\n      and\n        /* \"#utility.yul\":6345:6372   */\n      swap2\n      pop\n        /* \"#utility.yul\":6301:6382   */\n    tag_162:\n        /* \"#utility.yul\":6429:6431   */\n      0x20\n        /* \"#utility.yul\":6421:6427   */\n      dup3\n        /* \"#utility.yul\":6418:6432   */\n      lt\n        /* \"#utility.yul\":6398:6416   */\n      dup2\n        /* \"#utility.yul\":6395:6433   */\n      sub\n        /* \"#utility.yul\":6392:6476   */\n      tag_163\n      jumpi\n        /* \"#utility.yul\":6448:6466   */\n      tag_164\n      tag_74\n      jump\t// in\n    tag_164:\n        /* \"#utility.yul\":6392:6476   */\n    tag_163:\n        /* \"#utility.yul\":6213:6482   */\n      pop\n        /* \"#utility.yul\":6162:6482   */\n      swap2\n      swap1\n      pop\n      jump\t// out\n        /* \"#utility.yul\":6488:6629   */\n    tag_75:\n        /* \"#utility.yul\":6537:6541   */\n      0x00\n        /* \"#utility.yul\":6560:6563   */\n      dup2\n        /* \"#utility.yul\":6552:6563   */\n      swap1\n      pop\n        /* \"#utility.yul\":6583:6586   */\n      dup2\n        /* \"#utility.yul\":6580:6581   */\n      0x00\n        /* \"#utility.yul\":6573:6587   */\n      mstore\n        /* \"#utility.yul\":6617:6621   */\n      0x20\n        /* \"#utility.yul\":6614:6615   */\n      0x00\n        /* \"#utility.yul\":6604:6622   */\n      keccak256\n        /* \"#utility.yul\":6596:6622   */\n      swap1\n      pop\n        /* \"#utility.yul\":6488:6629   */\n      swap2\n      swap1\n      pop\n      jump\t// out\n        /* \"#utility.yul\":6635:6728   */\n    tag_76:\n        /* \"#utility.yul\":6672:6678   */\n      0x00\n        /* \"#utility.yul\":6719:6721   */\n      0x20\n        /* \"#utility.yul\":6714:6716   */\n      0x1f\n        /* \"#utility.yul\":6707:6712   */\n      dup4\n        /* \"#utility.yul\":6703:6717   */\n      add\n        /* \"#utility.yul\":6699:6722   */\n      div\n        /* \"#utility.yul\":6689:6722   */\n      swap1\n      pop\n        /* \"#utility.yul\":6635:6728   */\n      swap2\n      swap1\n      pop\n      jump\t// out\n        /* \"#utility.yul\":6734:6841   */\n    tag_77:\n        /* \"#utility.yul\":6778:6786   */\n      0x00\n        /* \"#utility.yul\":6828:6833   */\n      dup3\n        /* \"#utility.yul\":6822:6826   */\n      dup3\n        /* \"#utility.yul\":6818:6834   */\n      shl\n        /* \"#utility.yul\":6797:6834   */\n      swap1\n      pop\n        /* \"#utility.yul\":6734:6841   */\n      swap3\n      swap2\n      pop\n      pop\n      jump\t// out\n        /* \"#utility.yul\":6847:7240   */\n    tag_78:\n        /* \"#utility.yul\":6916:6922   */\n      0x00\n        /* \"#utility.yul\":6966:6967   */\n      0x08\n        /* \"#utility.yul\":6954:6964   */\n      dup4\n        /* \"#utility.yul\":6950:6968   */\n      mul\n        /* \"#utility.yul\":6989:7086   */\n      tag_169\n        /* \"#utility.yul\":7019:7085   */\n      0xffffffffffffffffffffffffffffffffffffffffffffffffffffffffffffffff\n        /* \"#utility.yul\":7008:7017   */\n      dup3\n        /* \"#utility.yul\":6989:7086   */\n      tag_77\n      jump\t// in\n    tag_169:\n        /* \"#utility.yul\":7107:7146   */\n      tag_170\n        /* \"#utility.yul\":7137:7145   */\n      dup7\n        /* \"#utility.yul\":7126:7135   */\n      dup4\n        /* \"#utility.yul\":7107:7146   */\n      tag_77\n      jump\t// in\n    tag_170:\n        /* \"#utility.yul\":7095:7146   */\n      swap6\n      pop\n        /* \"#utility.yul\":7179:7183   */\n      dup1\n        /* \"#utility.yul\":7175:7184   */\n      not\n        /* \"#utility.yul\":7168:7173   */\n      dup5\n        /* \"#utility.yul\":7164:7185   */\n      and\n        /* \"#utility.yul\":7155:7185   */\n      swap4\n      pop\n        /* \"#utility.yul\":7228:7232   */\n      dup1\n        /* \"#utility.yul\":7218:7226   */\n      dup7\n        /* \"#utility.yul\":7214:7233   */\n      and\n        /* \"#utility.yul\":7207:7212   */\n      dup5\n        /* \"#utility.yul\":7204:7234   */\n      or\n        /* \"#utility.yul\":7194:7234   */\n      swap3\n      pop\n        /* \"#utility.yul\":6923:7240   */\n      pop\n      pop\n        /* \"#utility.yul\":6847:7240   */\n      swap4\n      swap3\n      pop\n      pop\n      pop\n      jump\t// out\n        /* \"#utility.yul\":7246:7306   */\n    tag_79:\n        /* \"#utility.yul\":7274:7277   */\n      0x00\n        /* \"#utility.yul\":7295:7300   */\n      dup2\n        /* \"#utility.yul\":7288:7300   */\n      swap1\n      pop\n        /* \"#utility.yul\":7246:7306   */\n      swap2\n      swap1\n      pop\n      jump\t// out\n        /* \"#utility.yul\":7312:7454   */\n    tag_80:\n        /* \"#utility.yul\":7362:7371   */\n      0x00\n        /* \"#utility.yul\":7395:7448   */\n      tag_173\n        /* \"#utility.yul\":7413:7447   */\n      tag_174\n        /* \"#utility.yul\":7422:7446   */\n      tag_175\n        /* \"#utility.yul\":7440:7445   */\n      dup5\n        /* \"#utility.yul\":7422:7446   */\n      tag_62\n      jump\t// in\n    tag_175:\n        /* \"#utility.yul\":7413:7447   */\n      tag_79\n      jump\t// in\n    tag_174:\n        /* \"#utility.yul\":7395:7448   */\n      tag_62\n      jump\t// in\n    tag_173:\n        /* \"#utility.yul\":7382:7448   */\n      swap1\n      pop\n        /* \"#utility.yul\":7312:7454   */\n      swap2\n      swap1\n      pop\n      jump\t// out\n        /* \"#utility.yul\":7460:7535   */\n    tag_81:\n        /* \"#utility.yul\":7503:7506   */\n      0x00\n        /* \"#utility.yul\":7524:7529   */\n      dup2\n        /* \"#utility.yul\":7517:7529   */\n      swap1\n      pop\n        /* \"#utility.yul\":7460:7535   */\n      swap2\n      swap1\n      pop\n      jump\t// out\n        /* \"#utility.yul\":7541:7810   */\n    tag_82:\n        /* \"#utility.yul\":7651:7690   */\n      tag_178\n        /* \"#utility.yul\":7682:7689   */\n      dup4\n        /* \"#utility.yul\":7651:7690   */\n      tag_80\n      jump\t// in\n    tag_178:\n        /* \"#utility.yul\":7712:7803   */\n      tag_179\n        /* \"#utility.yul\":7761:7802   */\n      tag_180\n        /* \"#utility.yul\":7785:7801   */\n      dup3\n        /* \"#utility.yul\":7761:7802   */\n      tag_81\n      jump\t// in\n    tag_180:\n        /* \"#utility.yul\":7753:7759   */\n      dup5\n        /* \"#utility.yul\":7746:7750   */\n      dup5\n        /* \"#utility.yul\":7740:7751   */\n      sload\n        /* \"#utility.yul\":7712:7803   */\n      tag_78\n      jump\t// in\n    tag_179:\n        /* \"#utility.yul\":7706:7710   */\n      dup3\n        /* \"#utility.yul\":7699:7804   */\n      sstore\n        /* \"#utility.yul\":7617:7810   */\n      pop\n        /* \"#utility.yul\":7541:7810   */\n      pop\n      pop\n      pop\n      jump\t// out\n        /* \"#utility.yul\":7816:7889   */\n    tag_83:\n        /* \"#utility.yul\":7861:7864   */\n      0x00\n        /* \"#utility.yul\":7816:7889   */\n      swap1\n      jump\t// out\n        /* \"#utility.yul\":7895:8084   */\n    tag_84:\n        /* \"#utility.yul\":7972:8004   */\n      tag_183\n      tag_83\n      jump\t// in\n    tag_183:\n        /* \"#utility.yul\":8013:8078   */\n      tag_184\n        /* \"#utility.yul\":8071:8077   */\n      dup2\n        /* \"#utility.yul\":8063:8069   */\n      dup5\n        /* \"#utility.yul\":8057:8061   */\n      dup5\n        /* \"#utility.yul\":8013:8078   */\n      tag_82\n      jump\t// in\n    tag_184:\n        /* \"#utility.yul\":7948:8084   */\n      pop\n        /* \"#utility.yul\":7895:8084   */\n      pop\n      pop\n      jump\t// out\n        /* \"#utility.yul\":8090:8276   */\n    tag_85:\n        /* \"#utility.yul\":8150:8270   */\n    tag_186:\n        /* \"#utility.yul\":8167:8170   */\n      dup2\n        /* \"#utility.yul\":8160:8165   */\n      dup2\n        /* \"#utility.yul\":8157:8171   */\n      lt\n        /* \"#utility.yul\":8150:8270   */\n      iszero\n      tag_188\n      jumpi\n        /* \"#utility.yul\":8221:8260   */\n      tag_189\n        /* \"#utility.yul\":8258:8259   */\n      0x00\n        /* \"#utility.yul\":8251:8256   */\n      dup3\n        /* \"#utility.yul\":8221:8260   */\n      tag_84\n      jump\t// in\n    tag_189:\n        /* \"#utility.yul\":8194:8195   */\n      0x01\n        /* \"#utility.yul\":8187:8192   */\n      dup2\n        /* \"#utility.yul\":8183:8196   */\n      add\n        /* \"#utility.yul\":8174:8196   */\n      swap1\n      pop\n        /* \"#utility.yul\":8150:8270   */\n      jump(tag_186)\n    tag_188:\n        /* \"#utility.yul\":8090:8276   */\n      pop\n      pop\n      jump\t// out\n        /* \"#utility.yul\":8282:8825   */\n    tag_86:\n        /* \"#utility.yul\":8383:8385   */\n      0x1f\n        /* \"#utility.yul\":8378:8381   */\n      dup3\n        /* \"#utility.yul\":8375:8386   */\n      gt\n        /* \"#utility.yul\":8372:8818   */\n      iszero\n      tag_191\n      jumpi\n        /* \"#utility.yul\":8417:8455   */\n      tag_192\n        /* \"#utility.yul\":8449:8454   */\n      dup2\n        /* \"#utility.yul\":8417:8455   */\n      tag_75\n      jump\t// in\n    tag_192:\n        /* \"#utility.yul\":8501:8530   */\n      tag_193\n        /* \"#utility.yul\":8519:8529   */\n      dup5\n        /* \"#utility.yul\":8501:8530   */\n      tag_76\n      jump\t// in\n    tag_193:\n        /* \"#utility.yul\":8491:8499   */\n      dup2\n        /* \"#utility.yul\":8487:8531   */\n      add\n        /* \"#utility.yul\":8684:8686   */\n      0x20\n        /* \"#utility.yul\":8672:8682   */\n      dup6\n        /* \"#utility.yul\":8669:8687   */\n      lt\n        /* \"#utility.yul\":8666:8715   */\n      iszero\n      tag_194\n      jumpi\n        /* \"#utility.yul\":8705:8713   */\n      dup2\n        /* \"#utility.yul\":8690:8713   */\n      swap1\n      pop\n        /* \"#utility.yul\":8666:8715   */\n    tag_194:\n        /* \"#utility.yul\":8728:8808   */\n      tag_195\n        /* \"#utility.yul\":8784:8806   */\n      tag_196\n        /* \"#utility.yul\":8802:8805   */\n      dup6\n        /* \"#utility.yul\":8784:8806   */\n      tag_76\n      jump\t// in\n    tag_196:\n        /* \"#utility.yul\":8774:8782   */\n      dup4\n        /* \"#utility.yul\":8770:8807   */\n      add\n        /* \"#utility.yul\":8757:8768   */\n      dup3\n        /* \"#utility.yul\":8728:8808   */\n      tag_85\n      jump\t// in\n    tag_195:\n        /* \"#utility.yul\":8387:8818   */\n      pop\n      pop\n        /* \"#utility.yul\":8372:8818   */\n    tag_191:\n        /* \"#utility.yul\":8282:8825   */\n      pop\n      pop\n      pop\n      jump\t// out\n        /* \"#utility.yul\":8831:8948   */\n    tag_87:\n        /* \"#utility.yul\":8885:8893   */\n      0x00\n        /* \"#utility.yul\":8935:8940   */\n      dup3\n        /* \"#utility.yul\":8929:8933   */\n      dup3\n        /* \"#utility.yul\":8925:8941   */\n      shr\n        /* \"#utility.yul\":8904:8941   */\n      swap1\n      pop\n        /* \"#utility.yul\":8831:8948   */\n      swap3\n      swap2\n      pop\n      pop\n      jump\t// out\n        /* \"#utility.yul\":8954:9123   */\n    tag_88:\n        /* \"#utility.yul\":8998:9004   */\n      0x00\n        /* \"#utility.yul\":9031:9082   */\n      tag_199\n        /* \"#utility.yul\":9079:9080   */\n      0x00\n        /* \"#utility.yul\":9075:9081   */\n      not\n        /* \"#utility.yul\":9067:9072   */\n      dup5\n        /* \"#utility.yul\":9064:9065   */\n      0x08\n        /* \"#utility.yul\":9060:9073   */\n      mul\n        /* \"#utility.yul\":9031:9082   */\n      tag_87\n      jump\t// in\n    tag_199:\n        /* \"#utility.yul\":9027:9083   */\n      not\n        /* \"#utility.yul\":9112:9116   */\n      dup1\n        /* \"#utility.yul\":9106:9110   */\n      dup4\n        /* \"#utility.yul\":9102:9117   */\n      and\n        /* \"#utility.yul\":9092:9117   */\n      swap2\n      pop\n        /* \"#utility.yul\":9005:9123   */\n      pop\n        /* \"#utility.yul\":8954:9123   */\n      swap3\n      swap2\n      pop\n      pop\n      jump\t// out\n        /* \"#utility.yul\":9128:9423   */\n    tag_89:\n        /* \"#utility.yul\":9204:9208   */\n      0x00\n        /* \"#utility.yul\":9350:9379   */\n      tag_201\n        /* \"#utility.yul\":9375:9378   */\n      dup4\n        /* \"#utility.yul\":9369:9373   */\n      dup4\n        /* \"#utility.yul\":9350:9379   */\n      tag_88\n      jump\t// in\n    tag_201:\n        /* \"#utility.yul\":9342:9379   */\n      swap2\n      pop\n        /* \"#utility.yul\":9412:9415   */\n      dup3\n        /* \"#utility.yul\":9409:9410   */\n      0x02\n        /* \"#utility.yul\":9405:9416   */\n      mul\n        /* \"#utility.yul\":9399:9403   */\n      dup3\n        /* \"#utility.yul\":9396:9417   */\n      or\n        /* \"#utility.yul\":9388:9417   */\n      swap1\n      pop\n        /* \"#utility.yul\":9128:9423   */\n      swap3\n      swap2\n      pop\n      pop\n      jump\t// out\n        /* \"#utility.yul\":9428:10823   */\n    tag_27:\n        /* \"#utility.yul\":9545:9582   */\n      tag_203\n        /* \"#utility.yul\":9578:9581   */\n      dup3\n        /* \"#utility.yul\":9545:9582   */\n      tag_68\n      jump\t// in\n    tag_203:\n        /* \"#utility.yul\":9647:9665   */\n      0xffffffffffffffff\n        /* \"#utility.yul\":9639:9645   */\n      dup2\n        /* \"#utility.yul\":9636:9666   */\n      gt\n        /* \"#utility.yul\":9633:9689   */\n      iszero\n      tag_204\n      jumpi\n        /* \"#utility.yul\":9669:9687   */\n      tag_205\n      tag_55\n      jump\t// in\n    tag_205:\n        /* \"#utility.yul\":9633:9689   */\n    tag_204:\n        /* \"#utility.yul\":9713:9751   */\n      tag_206\n        /* \"#utility.yul\":9745:9749   */\n      dup3\n        /* \"#utility.yul\":9739:9750   */\n      sload\n        /* \"#utility.yul\":9713:9751   */\n      tag_37\n      jump\t// in\n    tag_206:\n        /* \"#utility.yul\":9798:9865   */\n      tag_207\n        /* \"#utility.yul\":9858:9864   */\n      dup3\n        /* \"#utility.yul\":9850:9856   */\n      dup3\n        /* \"#utility.yul\":9844:9848   */\n      dup6\n        /* \"#utility.yul\":9798:9865   */\n      tag_86\n      jump\t// in\n    tag_207:\n        /* \"#utility.yul\":9892:9893   */\n      0x00\n        /* \"#utility.yul\":9916:9920   */\n      0x20\n        /* \"#utility.yul\":9903:9920   */\n      swap1\n      pop\n        /* \"#utility.yul\":9948:9950   */\n      0x1f\n        /* \"#utility.yul\":9940:9946   */\n      dup4\n        /* \"#utility.yul\":9937:9951   */\n      gt\n        /* \"#utility.yul\":9965:9966   */\n      0x01\n        /* \"#utility.yul\":9960:10578   */\n      dup2\n      eq\n      tag_209\n      jumpi\n        /* \"#utility.yul\":10622:10623   */\n      0x00\n        /* \"#utility.yul\":10639:10645   */\n      dup5\n        /* \"#utility.yul\":10636:10713   */\n      iszero\n      tag_210\n      jumpi\n        /* \"#utility.yul\":10688:10697   */\n      dup3\n        /* \"#utility.yul\":10683:10686   */\n      dup8\n        /* \"#utility.yul\":10679:10698   */\n      add\n        /* \"#utility.yul\":10673:10699   */\n      mload\n        /* \"#utility.yul\":10664:10699   */\n      swap1\n      pop\n        /* \"#utility.yul\":10636:10713   */\n    tag_210:\n        /* \"#utility.yul\":10739:10806   */\n      tag_211\n        /* \"#utility.yul\":10799:10805   */\n      dup6\n        /* \"#utility.yul\":10792:10797   */\n      dup3\n        /* \"#utility.yul\":10739:10806   */\n      tag_89\n      jump\t// in\n    tag_211:\n        /* \"#utility.yul\":10733:10737   */\n      dup7\n        /* \"#utility.yul\":10726:10807   */\n      sstore\n        /* \"#utility.yul\":10595:10817   */\n      pop\n        /* \"#utility.yul\":9930:10817   */\n      jump(tag_208)\n        /* \"#utility.yul\":9960:10578   */\n    tag_209:\n        /* \"#utility.yul\":10012:10016   */\n      0x1f\n        /* \"#utility.yul\":10008:10017   */\n      not\n        /* \"#utility.yul\":10000:10006   */\n      dup5\n        /* \"#utility.yul\":9996:10018   */\n      and\n        /* \"#utility.yul\":10046:10083   */\n      tag_212\n        /* \"#utility.yul\":10078:10082   */\n      dup7\n        /* \"#utility.yul\":10046:10083   */\n      tag_75\n      jump\t// in\n    tag_212:\n        /* \"#utility.yul\":10105:10106   */\n      0x00\n        /* \"#utility.yul\":10119:10327   */\n    tag_213:\n        /* \"#utility.yul\":10133:10140   */\n      dup3\n        /* \"#utility.yul\":10130:10131   */\n      dup2\n        /* \"#utility.yul\":10127:10141   */\n      lt\n        /* \"#utility.yul\":10119:10327   */\n      iszero\n      tag_215\n      jumpi\n        /* \"#utility.yul\":10212:10221   */\n      dup5\n        /* \"#utility.yul\":10207:10210   */\n      dup10\n        /* \"#utility.yul\":10203:10222   */\n      add\n        /* \"#utility.yul\":10197:10223   */\n      mload\n        /* \"#utility.yul\":10189:10195   */\n      dup3\n        /* \"#utility.yul\":10182:10224   */\n      sstore\n        /* \"#utility.yul\":10263:10264   */\n      0x01\n        /* \"#utility.yul\":10255:10261   */\n      dup3\n        /* \"#utility.yul\":10251:10265   */\n      add\n        /* \"#utility.yul\":10241:10265   */\n      swap2\n      pop\n        /* \"#utility.yul\":10310:10312   */\n      0x20\n        /* \"#utility.yul\":10299:10308   */\n      dup6\n        /* \"#utility.yul\":10295:10313   */\n      add\n        /* \"#utility.yul\":10282:10313   */\n      swap5\n      pop\n        /* \"#utility.yul\":10156:10160   */\n      0x20\n        /* \"#utility.yul\":10153:10154   */\n      dup2\n        /* \"#utility.yul\":10149:10161   */\n      add\n        /* \"#utility.yul\":10144:10161   */\n      swap1\n      pop\n        /* \"#utility.yul\":10119:10327   */\n      jump(tag_213)\n    tag_215:\n        /* \"#utility.yul\":10355:10361   */\n      dup7\n        /* \"#utility.yul\":10346:10353   */\n      dup4\n        /* \"#utility.yul\":10343:10362   */\n      lt\n        /* \"#utility.yul\":10340:10519   */\n      iszero\n      tag_216\n      jumpi\n        /* \"#utility.yul\":10413:10422   */\n      dup5\n        /* \"#utility.yul\":10408:10411   */\n      dup10\n        /* \"#utility.yul\":10404:10423   */\n      add\n        /* \"#utility.yul\":10398:10424   */\n      mload\n        /* \"#utility.yul\":10456:10504   */\n      tag_217\n        /* \"#utility.yul\":10498:10502   */\n      0x1f\n        /* \"#utility.yul\":10490:10496   */\n      dup10\n        /* \"#utility.yul\":10486:10503   */\n      and\n        /* \"#utility.yul\":10475:10484   */\n      dup3\n        /* \"#utility.yul\":10456:10504   */\n      tag_88\n      jump\t// in\n    tag_217:\n        /* \"#utility.yul\":10448:10454   */\n      dup4\n        /* \"#utility.yul\":10441:10505   */\n      sstore\n        /* \"#utility.yul\":10363:10519   */\n      pop\n        /* \"#utility.yul\":10340:10519   */\n    tag_216:\n        /* \"#utility.yul\":10565:10566   */\n      0x01\n        /* \"#utility.yul\":10561:10562   */\n      0x02\n        /* \"#utility.yul\":10553:10559   */\n      dup9\n        /* \"#utility.yul\":10549:10563   */\n      mul\n        /* \"#utility.yul\":10545:10567   */\n      add\n        /* \"#utility.yul\":10539:10543   */\n      dup9\n        /* \"#utility.yul\":10532:10568   */\n      sstore\n        /* \"#utility.yul\":9967:10578   */\n      pop\n      pop\n      pop\n        /* \"#utility.yul\":9930:10817   */\n    tag_208:\n      pop\n        /* \"#utility.yul\":9520:10823   */\n      pop\n      pop\n      pop\n        /* \"#utility.yul\":9428:10823   */\n      pop\n      pop\n      jump\t// out\n        /* \"#utility.yul\":10829:11009   */\n    tag_34:\n        /* \"#utility.yul\":10877:10954   */\n      0x4e487b7100000000000000000000000000000000000000000000000000000000\n        /* \"#utility.yul\":10874:10875   */\n      0x00\n        /* \"#utility.yul\":10867:10955   */\n      mstore\n        /* \"#utility.yul\":10974:10978   */\n      0x32\n        /* \"#utility.yul\":10971:10972   */\n      0x04\n        /* \"#utility.yul\":10964:10979   */\n      mstore\n        /* \"#utility.yul\":10998:11002   */\n      0x24\n        /* \"#utility.yul\":10995:10996   */\n      0x00\n        /* \"#utility.yul\":10988:11003   */\n      revert\n\n    auxdata: 0xa2646970667358221220d96aa1ffbc5af00612a04c447f9a64c5bc8becd4da707f5f2f20f12da8d512aa64736f6c634300081a0033\n}\n",
				"bytecode": {
					"linkReferences": {},
					"object": "6080604052348015600e575f80fd5b506109788061001c5f395ff3fe608060405234801561000f575f80fd5b506004361061004a575f3560e01c8063097a12b01461004e5780631a15ab711461006a5780638f88708b1461008657806391ebc320146100b8575b5f80fd5b610068600480360381019061006391906104fb565b6100ea565b005b610084600480360381019061007f9190610567565b610172565b005b6100a0600480360381019061009b9190610567565b610188565b6040516100af93929190610610565b60405180910390f35b6100d260048036038101906100cd9190610567565b61025f565b6040516100e193929190610610565b60405180910390f35b5f6040518060600160405280858152602001848152602001831515815250908060018154018082558091505060019003905f5260205f2090600302015f909190919091505f820151815f0190816101419190610846565b50602082015181600101556040820151816002015f6101000a81548160ff0219169083151502179055505050505050565b61017a610325565b818160200181815250505050565b60605f805f8085815481106101a05761019f610915565b5b905f5260205f2090600302019050805f018160010154826002015f9054906101000a900460ff168280546101d390610679565b80601f01602080910402602001604051908101604052809291908181526020018280546101ff90610679565b801561024a5780601f106102215761010080835404028352916020019161024a565b820191905f5260205f20905b81548152906001019060200180831161022d57829003601f168201915b50505050509250935093509350509193909250565b5f818154811061026d575f80fd5b905f5260205f2090600302015f91509050805f01805461028c90610679565b80601f01602080910402602001604051908101604052809291908181526020018280546102b890610679565b80156103035780601f106102da57610100808354040283529160200191610303565b820191905f5260205f20905b8154815290600101906020018083116102e657829003601f168201915b505050505090806001015490806002015f9054906101000a900460ff16905083565b6040518060600160405280606081526020015f81526020015f151581525090565b5f604051905090565b5f80fd5b5f80fd5b5f80fd5b5f80fd5b5f601f19601f8301169050919050565b7f4e487b71000000000000000000000000000000000000000000000000000000005f52604160045260245ffd5b6103a58261035f565b810181811067ffffffffffffffff821117156103c4576103c361036f565b5b80604052505050565b5f6103d6610346565b90506103e2828261039c565b919050565b5f67ffffffffffffffff8211156104015761040061036f565b5b61040a8261035f565b9050602081019050919050565b828183375f83830152505050565b5f610437610432846103e7565b6103cd565b9050828152602081018484840111156104535761045261035b565b5b61045e848285610417565b509392505050565b5f82601f83011261047a57610479610357565b5b813561048a848260208601610425565b91505092915050565b5f819050919050565b6104a581610493565b81146104af575f80fd5b50565b5f813590506104c08161049c565b92915050565b5f8115159050919050565b6104da816104c6565b81146104e4575f80fd5b50565b5f813590506104f5816104d1565b92915050565b5f805f606084860312156105125761051161034f565b5b5f84013567ffffffffffffffff81111561052f5761052e610353565b5b61053b86828701610466565b935050602061054c868287016104b2565b925050604061055d868287016104e7565b9150509250925092565b5f6020828403121561057c5761057b61034f565b5b5f610589848285016104b2565b91505092915050565b5f81519050919050565b5f82825260208201905092915050565b8281835e5f83830152505050565b5f6105c482610592565b6105ce818561059c565b93506105de8185602086016105ac565b6105e78161035f565b840191505092915050565b6105fb81610493565b82525050565b61060a816104c6565b82525050565b5f6060820190508181035f83015261062881866105ba565b905061063760208301856105f2565b6106446040830184610601565b949350505050565b7f4e487b71000000000000000000000000000000000000000000000000000000005f52602260045260245ffd5b5f600282049050600182168061069057607f821691505b6020821081036106a3576106a261064c565b5b50919050565b5f819050815f5260205f209050919050565b5f6020601f8301049050919050565b5f82821b905092915050565b5f600883026107057fffffffffffffffffffffffffffffffffffffffffffffffffffffffffffffffff826106ca565b61070f86836106ca565b95508019841693508086168417925050509392505050565b5f819050919050565b5f61074a61074561074084610493565b610727565b610493565b9050919050565b5f819050919050565b61076383610730565b61077761076f82610751565b8484546106d6565b825550505050565b5f90565b61078b61077f565b61079681848461075a565b505050565b5b818110156107b9576107ae5f82610783565b60018101905061079c565b5050565b601f8211156107fe576107cf816106a9565b6107d8846106bb565b810160208510156107e7578190505b6107fb6107f3856106bb565b83018261079b565b50505b505050565b5f82821c905092915050565b5f61081e5f1984600802610803565b1980831691505092915050565b5f610836838361080f565b9150826002028217905092915050565b61084f82610592565b67ffffffffffffffff8111156108685761086761036f565b5b6108728254610679565b61087d8282856107bd565b5f60209050601f8311600181146108ae575f841561089c578287015190505b6108a6858261082b565b86555061090d565b601f1984166108bc866106a9565b5f5b828110156108e3578489015182556001820191506020850194506020810190506108be565b8683101561090057848901516108fc601f89168261080f565b8355505b6001600288020188555050505b505050505050565b7f4e487b71000000000000000000000000000000000000000000000000000000005f52603260045260245ffdfea2646970667358221220d96aa1ffbc5af00612a04c447f9a64c5bc8becd4da707f5f2f20f12da8d512aa64736f6c634300081a0033",
					"opcodes": "PUSH1 0x80 PUSH1 0x40 MSTORE CALLVALUE DUP1 ISZERO PUSH1 0xE JUMPI PUSH0 DUP1 REVERT JUMPDEST POP PUSH2 0x978 DUP1 PUSH2 0x1C PUSH0 CODECOPY PUSH0 RETURN INVALID PUSH1 0x80 PUSH1 0x40 MSTORE CALLVALUE DUP1 ISZERO PUSH2 0xF JUMPI PUSH0 DUP1 REVERT JUMPDEST POP PUSH1 0x4 CALLDATASIZE LT PUSH2 0x4A JUMPI PUSH0 CALLDATALOAD PUSH1 0xE0 SHR DUP1 PUSH4 0x97A12B0 EQ PUSH2 0x4E JUMPI DUP1 PUSH4 0x1A15AB71 EQ PUSH2 0x6A JUMPI DUP1 PUSH4 0x8F88708B EQ PUSH2 0x86 JUMPI DUP1 PUSH4 0x91EBC320 EQ PUSH2 0xB8 JUMPI JUMPDEST PUSH0 DUP1 REVERT JUMPDEST PUSH2 0x68 PUSH1 0x4 DUP1 CALLDATASIZE SUB DUP2 ADD SWAP1 PUSH2 0x63 SWAP2 SWAP1 PUSH2 0x4FB JUMP JUMPDEST PUSH2 0xEA JUMP JUMPDEST STOP JUMPDEST PUSH2 0x84 PUSH1 0x4 DUP1 CALLDATASIZE SUB DUP2 ADD SWAP1 PUSH2 0x7F SWAP2 SWAP1 PUSH2 0x567 JUMP JUMPDEST PUSH2 0x172 JUMP JUMPDEST STOP JUMPDEST PUSH2 0xA0 PUSH1 0x4 DUP1 CALLDATASIZE SUB DUP2 ADD SWAP1 PUSH2 0x9B SWAP2 SWAP1 PUSH2 0x567 JUMP JUMPDEST PUSH2 0x188 JUMP JUMPDEST PUSH1 0x40 MLOAD PUSH2 0xAF SWAP4 SWAP3 SWAP2 SWAP1 PUSH2 0x610 JUMP JUMPDEST PUSH1 0x40 MLOAD DUP1 SWAP2 SUB SWAP1 RETURN JUMPDEST PUSH2 0xD2 PUSH1 0x4 DUP1 CALLDATASIZE SUB DUP2 ADD SWAP1 PUSH2 0xCD SWAP2 SWAP1 PUSH2 0x567 JUMP JUMPDEST PUSH2 0x25F JUMP JUMPDEST PUSH1 0x40 MLOAD PUSH2 0xE1 SWAP4 SWAP3 SWAP2 SWAP1 PUSH2 0x610 JUMP JUMPDEST PUSH1 0x40 MLOAD DUP1 SWAP2 SUB SWAP1 RETURN JUMPDEST PUSH0 PUSH1 0x40 MLOAD DUP1 PUSH1 0x60 ADD PUSH1 0x40 MSTORE DUP1 DUP6 DUP2 MSTORE PUSH1 0x20 ADD DUP5 DUP2 MSTORE PUSH1 0x20 ADD DUP4 ISZERO ISZERO DUP2 MSTORE POP SWAP1 DUP1 PUSH1 0x1 DUP2 SLOAD ADD DUP1 DUP3 SSTORE DUP1 SWAP2 POP POP PUSH1 0x1 SWAP1 SUB SWAP1 PUSH0 MSTORE PUSH1 0x20 PUSH0 KECCAK256 SWAP1 PUSH1 0x3 MUL ADD PUSH0 SWAP1 SWAP2 SWAP1 SWAP2 SWAP1 SWAP2 POP PUSH0 DUP3 ADD MLOAD DUP2 PUSH0 ADD SWAP1 DUP2 PUSH2 0x141 SWAP2 SWAP1 PUSH2 0x846 JUMP JUMPDEST POP PUSH1 0x20 DUP3 ADD MLOAD DUP2 PUSH1 0x1 ADD SSTORE PUSH1 0x40 DUP3 ADD MLOAD DUP2 PUSH1 0x2 ADD PUSH0 PUSH2 0x100 EXP DUP2 SLOAD DUP2 PUSH1 0xFF MUL NOT AND SWAP1 DUP4 ISZERO ISZERO MUL OR SWAP1 SSTORE POP POP POP POP POP POP JUMP JUMPDEST PUSH2 0x17A PUSH2 0x325 JUMP JUMPDEST DUP2 DUP2 PUSH1 0x20 ADD DUP2 DUP2 MSTORE POP POP POP POP JUMP JUMPDEST PUSH1 0x60 PUSH0 DUP1 PUSH0 DUP1 DUP6 DUP2 SLOAD DUP2 LT PUSH2 0x1A0 JUMPI PUSH2 0x19F PUSH2 0x915 JUMP JUMPDEST JUMPDEST SWAP1 PUSH0 MSTORE PUSH1 0x20 PUSH0 KECCAK256 SWAP1 PUSH1 0x3 MUL ADD SWAP1 POP DUP1 PUSH0 ADD DUP2 PUSH1 0x1 ADD SLOAD DUP3 PUSH1 0x2 ADD PUSH0 SWAP1 SLOAD SWAP1 PUSH2 0x100 EXP SWAP1 DIV PUSH1 0xFF AND DUP3 DUP1 SLOAD PUSH2 0x1D3 SWAP1 PUSH2 0x679 JUMP JUMPDEST DUP1 PUSH1 0x1F ADD PUSH1 0x20 DUP1 SWAP2 DIV MUL PUSH1 0x20 ADD PUSH1 0x40 MLOAD SWAP1 DUP2 ADD PUSH1 0x40 MSTORE DUP1 SWAP3 SWAP2 SWAP1 DUP2 DUP2 MSTORE PUSH1 0x20 ADD DUP3 DUP1 SLOAD PUSH2 0x1FF SWAP1 PUSH2 0x679 JUMP JUMPDEST DUP1 ISZERO PUSH2 0x24A JUMPI DUP1 PUSH1 0x1F LT PUSH2 0x221 JUMPI PUSH2 0x100 DUP1 DUP4 SLOAD DIV MUL DUP4 MSTORE SWAP2 PUSH1 0x20 ADD SWAP2 PUSH2 0x24A JUMP JUMPDEST DUP3 ADD SWAP2 SWAP1 PUSH0 MSTORE PUSH1 0x20 PUSH0 KECCAK256 SWAP1 JUMPDEST DUP2 SLOAD DUP2 MSTORE SWAP1 PUSH1 0x1 ADD SWAP1 PUSH1 0x20 ADD DUP1 DUP4 GT PUSH2 0x22D JUMPI DUP3 SWAP1 SUB PUSH1 0x1F AND DUP3 ADD SWAP2 JUMPDEST POP POP POP POP POP SWAP3 POP SWAP4 POP SWAP4 POP SWAP4 POP POP SWAP2 SWAP4 SWAP1 SWAP3 POP JUMP JUMPDEST PUSH0 DUP2 DUP2 SLOAD DUP2 LT PUSH2 0x26D JUMPI PUSH0 DUP1 REVERT JUMPDEST SWAP1 PUSH0 MSTORE PUSH1 0x20 PUSH0 KECCAK256 SWAP1 PUSH1 0x3 MUL ADD PUSH0 SWAP2 POP SWAP1 POP DUP1 PUSH0 ADD DUP1 SLOAD PUSH2 0x28C SWAP1 PUSH2 0x679 JUMP JUMPDEST DUP1 PUSH1 0x1F ADD PUSH1 0x20 DUP1 SWAP2 DIV MUL PUSH1 0x20 ADD PUSH1 0x40 MLOAD SWAP1 DUP2 ADD PUSH1 0x40 MSTORE DUP1 SWAP3 SWAP2 SWAP1 DUP2 DUP2 MSTORE PUSH1 0x20 ADD DUP3 DUP1 SLOAD PUSH2 0x2B8 SWAP1 PUSH2 0x679 JUMP JUMPDEST DUP1 ISZERO PUSH2 0x303 JUMPI DUP1 PUSH1 0x1F LT PUSH2 0x2DA JUMPI PUSH2 0x100 DUP1 DUP4 SLOAD DIV MUL DUP4 MSTORE SWAP2 PUSH1 0x20 ADD SWAP2 PUSH2 0x303 JUMP JUMPDEST DUP3 ADD SWAP2 SWAP1 PUSH0 MSTORE PUSH1 0x20 PUSH0 KECCAK256 SWAP1 JUMPDEST DUP2 SLOAD DUP2 MSTORE SWAP1 PUSH1 0x1 ADD SWAP1 PUSH1 0x20 ADD DUP1 DUP4 GT PUSH2 0x2E6 JUMPI DUP3 SWAP1 SUB PUSH1 0x1F AND DUP3 ADD SWAP2 JUMPDEST POP POP POP POP POP SWAP1 DUP1 PUSH1 0x1 ADD SLOAD SWAP1 DUP1 PUSH1 0x2 ADD PUSH0 SWAP1 SLOAD SWAP1 PUSH2 0x100 EXP SWAP1 DIV PUSH1 0xFF AND SWAP1 POP DUP4 JUMP JUMPDEST PUSH1 0x40 MLOAD DUP1 PUSH1 0x60 ADD PUSH1 0x40 MSTORE DUP1 PUSH1 0x60 DUP2 MSTORE PUSH1 0x20 ADD PUSH0 DUP2 MSTORE PUSH1 0x20 ADD PUSH0 ISZERO ISZERO DUP2 MSTORE POP SWAP1 JUMP JUMPDEST PUSH0 PUSH1 0x40 MLOAD SWAP1 POP SWAP1 JUMP JUMPDEST PUSH0 DUP1 REVERT JUMPDEST PUSH0 DUP1 REVERT JUMPDEST PUSH0 DUP1 REVERT JUMPDEST PUSH0 DUP1 REVERT JUMPDEST PUSH0 PUSH1 0x1F NOT PUSH1 0x1F DUP4 ADD AND SWAP1 POP SWAP2 SWAP1 POP JUMP JUMPDEST PUSH32 0x4E487B7100000000000000000000000000000000000000000000000000000000 PUSH0 MSTORE PUSH1 0x41 PUSH1 0x4 MSTORE PUSH1 0x24 PUSH0 REVERT JUMPDEST PUSH2 0x3A5 DUP3 PUSH2 0x35F JUMP JUMPDEST DUP2 ADD DUP2 DUP2 LT PUSH8 0xFFFFFFFFFFFFFFFF DUP3 GT OR ISZERO PUSH2 0x3C4 JUMPI PUSH2 0x3C3 PUSH2 0x36F JUMP JUMPDEST JUMPDEST DUP1 PUSH1 0x40 MSTORE POP POP POP JUMP JUMPDEST PUSH0 PUSH2 0x3D6 PUSH2 0x346 JUMP JUMPDEST SWAP1 POP PUSH2 0x3E2 DUP3 DUP3 PUSH2 0x39C JUMP JUMPDEST SWAP2 SWAP1 POP JUMP JUMPDEST PUSH0 PUSH8 0xFFFFFFFFFFFFFFFF DUP3 GT ISZERO PUSH2 0x401 JUMPI PUSH2 0x400 PUSH2 0x36F JUMP JUMPDEST JUMPDEST PUSH2 0x40A DUP3 PUSH2 0x35F JUMP JUMPDEST SWAP1 POP PUSH1 0x20 DUP2 ADD SWAP1 POP SWAP2 SWAP1 POP JUMP JUMPDEST DUP3 DUP2 DUP4 CALLDATACOPY PUSH0 DUP4 DUP4 ADD MSTORE POP POP POP JUMP JUMPDEST PUSH0 PUSH2 0x437 PUSH2 0x432 DUP5 PUSH2 0x3E7 JUMP JUMPDEST PUSH2 0x3CD JUMP JUMPDEST SWAP1 POP DUP3 DUP2 MSTORE PUSH1 0x20 DUP2 ADD DUP5 DUP5 DUP5 ADD GT ISZERO PUSH2 0x453 JUMPI PUSH2 0x452 PUSH2 0x35B JUMP JUMPDEST JUMPDEST PUSH2 0x45E DUP5 DUP3 DUP6 PUSH2 0x417 JUMP JUMPDEST POP SWAP4 SWAP3 POP POP POP JUMP JUMPDEST PUSH0 DUP3 PUSH1 0x1F DUP4 ADD SLT PUSH2 0x47A JUMPI PUSH2 0x479 PUSH2 0x357 JUMP JUMPDEST JUMPDEST DUP2 CALLDATALOAD PUSH2 0x48A DUP5 DUP3 PUSH1 0x20 DUP7 ADD PUSH2 0x425 JUMP JUMPDEST SWAP2 POP POP SWAP3 SWAP2 POP POP JUMP JUMPDEST PUSH0 DUP2 SWAP1 POP SWAP2 SWAP1 POP JUMP JUMPDEST PUSH2 0x4A5 DUP2 PUSH2 0x493 JUMP JUMPDEST DUP2 EQ PUSH2 0x4AF JUMPI PUSH0 DUP1 REVERT JUMPDEST POP JUMP JUMPDEST PUSH0 DUP2 CALLDATALOAD SWAP1 POP PUSH2 0x4C0 DUP2 PUSH2 0x49C JUMP JUMPDEST SWAP3 SWAP2 POP POP JUMP JUMPDEST PUSH0 DUP2 ISZERO ISZERO SWAP1 POP SWAP2 SWAP1 POP JUMP JUMPDEST PUSH2 0x4DA DUP2 PUSH2 0x4C6 JUMP JUMPDEST DUP2 EQ PUSH2 0x4E4 JUMPI PUSH0 DUP1 REVERT JUMPDEST POP JUMP JUMPDEST PUSH0 DUP2 CALLDATALOAD SWAP1 POP PUSH2 0x4F5 DUP2 PUSH2 0x4D1 JUMP JUMPDEST SWAP3 SWAP2 POP POP JUMP JUMPDEST PUSH0 DUP1 PUSH0 PUSH1 0x60 DUP5 DUP7 SUB SLT ISZERO PUSH2 0x512 JUMPI PUSH2 0x511 PUSH2 0x34F JUMP JUMPDEST JUMPDEST PUSH0 DUP5 ADD CALLDATALOAD PUSH8 0xFFFFFFFFFFFFFFFF DUP2 GT ISZERO PUSH2 0x52F JUMPI PUSH2 0x52E PUSH2 0x353 JUMP JUMPDEST JUMPDEST PUSH2 0x53B DUP7 DUP3 DUP8 ADD PUSH2 0x466 JUMP JUMPDEST SWAP4 POP POP PUSH1 0x20 PUSH2 0x54C DUP7 DUP3 DUP8 ADD PUSH2 0x4B2 JUMP JUMPDEST SWAP3 POP POP PUSH1 0x40 PUSH2 0x55D DUP7 DUP3 DUP8 ADD PUSH2 0x4E7 JUMP JUMPDEST SWAP2 POP POP SWAP3 POP SWAP3 POP SWAP3 JUMP JUMPDEST PUSH0 PUSH1 0x20 DUP3 DUP5 SUB SLT ISZERO PUSH2 0x57C JUMPI PUSH2 0x57B PUSH2 0x34F JUMP JUMPDEST JUMPDEST PUSH0 PUSH2 0x589 DUP5 DUP3 DUP6 ADD PUSH2 0x4B2 JUMP JUMPDEST SWAP2 POP POP SWAP3 SWAP2 POP POP JUMP JUMPDEST PUSH0 DUP2 MLOAD SWAP1 POP SWAP2 SWAP1 POP JUMP JUMPDEST PUSH0 DUP3 DUP3 MSTORE PUSH1 0x20 DUP3 ADD SWAP1 POP SWAP3 SWAP2 POP POP JUMP JUMPDEST DUP3 DUP2 DUP4 MCOPY PUSH0 DUP4 DUP4 ADD MSTORE POP POP POP JUMP JUMPDEST PUSH0 PUSH2 0x5C4 DUP3 PUSH2 0x592 JUMP JUMPDEST PUSH2 0x5CE DUP2 DUP6 PUSH2 0x59C JUMP JUMPDEST SWAP4 POP PUSH2 0x5DE DUP2 DUP6 PUSH1 0x20 DUP7 ADD PUSH2 0x5AC JUMP JUMPDEST PUSH2 0x5E7 DUP2 PUSH2 0x35F JUMP JUMPDEST DUP5 ADD SWAP2 POP POP SWAP3 SWAP2 POP POP JUMP JUMPDEST PUSH2 0x5FB DUP2 PUSH2 0x493 JUMP JUMPDEST DUP3 MSTORE POP POP JUMP JUMPDEST PUSH2 0x60A DUP2 PUSH2 0x4C6 JUMP JUMPDEST DUP3 MSTORE POP POP JUMP JUMPDEST PUSH0 PUSH1 0x60 DUP3 ADD SWAP1 POP DUP2 DUP2 SUB PUSH0 DUP4 ADD MSTORE PUSH2 0x628 DUP2 DUP7 PUSH2 0x5BA JUMP JUMPDEST SWAP1 POP PUSH2 0x637 PUSH1 0x20 DUP4 ADD DUP6 PUSH2 0x5F2 JUMP JUMPDEST PUSH2 0x644 PUSH1 0x40 DUP4 ADD DUP5 PUSH2 0x601 JUMP JUMPDEST SWAP5 SWAP4 POP POP POP POP JUMP JUMPDEST PUSH32 0x4E487B7100000000000000000000000000000000000000000000000000000000 PUSH0 MSTORE PUSH1 0x22 PUSH1 0x4 MSTORE PUSH1 0x24 PUSH0 REVERT JUMPDEST PUSH0 PUSH1 0x2 DUP3 DIV SWAP1 POP PUSH1 0x1 DUP3 AND DUP1 PUSH2 0x690 JUMPI PUSH1 0x7F DUP3 AND SWAP2 POP JUMPDEST PUSH1 0x20 DUP3 LT DUP2 SUB PUSH2 0x6A3 JUMPI PUSH2 0x6A2 PUSH2 0x64C JUMP JUMPDEST JUMPDEST POP SWAP2 SWAP1 POP JUMP JUMPDEST PUSH0 DUP2 SWAP1 POP DUP2 PUSH0 MSTORE PUSH1 0x20 PUSH0 KECCAK256 SWAP1 POP SWAP2 SWAP1 POP JUMP JUMPDEST PUSH0 PUSH1 0x20 PUSH1 0x1F DUP4 ADD DIV SWAP1 POP SWAP2 SWAP1 POP JUMP JUMPDEST PUSH0 DUP3 DUP3 SHL SWAP1 POP SWAP3 SWAP2 POP POP JUMP JUMPDEST PUSH0 PUSH1 0x8 DUP4 MUL PUSH2 0x705 PUSH32 0xFFFFFFFFFFFFFFFFFFFFFFFFFFFFFFFFFFFFFFFFFFFFFFFFFFFFFFFFFFFFFFFF DUP3 PUSH2 0x6CA JUMP JUMPDEST PUSH2 0x70F DUP7 DUP4 PUSH2 0x6CA JUMP JUMPDEST SWAP6 POP DUP1 NOT DUP5 AND SWAP4 POP DUP1 DUP7 AND DUP5 OR SWAP3 POP POP POP SWAP4 SWAP3 POP POP POP JUMP JUMPDEST PUSH0 DUP2 SWAP1 POP SWAP2 SWAP1 POP JUMP JUMPDEST PUSH0 PUSH2 0x74A PUSH2 0x745 PUSH2 0x740 DUP5 PUSH2 0x493 JUMP JUMPDEST PUSH2 0x727 JUMP JUMPDEST PUSH2 0x493 JUMP JUMPDEST SWAP1 POP SWAP2 SWAP1 POP JUMP JUMPDEST PUSH0 DUP2 SWAP1 POP SWAP2 SWAP1 POP JUMP JUMPDEST PUSH2 0x763 DUP4 PUSH2 0x730 JUMP JUMPDEST PUSH2 0x777 PUSH2 0x76F DUP3 PUSH2 0x751 JUMP JUMPDEST DUP5 DUP5 SLOAD PUSH2 0x6D6 JUMP JUMPDEST DUP3 SSTORE POP POP POP POP JUMP JUMPDEST PUSH0 SWAP1 JUMP JUMPDEST PUSH2 0x78B PUSH2 0x77F JUMP JUMPDEST PUSH2 0x796 DUP2 DUP5 DUP5 PUSH2 0x75A JUMP JUMPDEST POP POP POP JUMP JUMPDEST JUMPDEST DUP2 DUP2 LT ISZERO PUSH2 0x7B9 JUMPI PUSH2 0x7AE PUSH0 DUP3 PUSH2 0x783 JUMP JUMPDEST PUSH1 0x1 DUP2 ADD SWAP1 POP PUSH2 0x79C JUMP JUMPDEST POP POP JUMP JUMPDEST PUSH1 0x1F DUP3 GT ISZERO PUSH2 0x7FE JUMPI PUSH2 0x7CF DUP2 PUSH2 0x6A9 JUMP JUMPDEST PUSH2 0x7D8 DUP5 PUSH2 0x6BB JUMP JUMPDEST DUP2 ADD PUSH1 0x20 DUP6 LT ISZERO PUSH2 0x7E7 JUMPI DUP2 SWAP1 POP JUMPDEST PUSH2 0x7FB PUSH2 0x7F3 DUP6 PUSH2 0x6BB JUMP JUMPDEST DUP4 ADD DUP3 PUSH2 0x79B JUMP JUMPDEST POP POP JUMPDEST POP POP POP JUMP JUMPDEST PUSH0 DUP3 DUP3 SHR SWAP1 POP SWAP3 SWAP2 POP POP JUMP JUMPDEST PUSH0 PUSH2 0x81E PUSH0 NOT DUP5 PUSH1 0x8 MUL PUSH2 0x803 JUMP JUMPDEST NOT DUP1 DUP4 AND SWAP2 POP POP SWAP3 SWAP2 POP POP JUMP JUMPDEST PUSH0 PUSH2 0x836 DUP4 DUP4 PUSH2 0x80F JUMP JUMPDEST SWAP2 POP DUP3 PUSH1 0x2 MUL DUP3 OR SWAP1 POP SWAP3 SWAP2 POP POP JUMP JUMPDEST PUSH2 0x84F DUP3 PUSH2 0x592 JUMP JUMPDEST PUSH8 0xFFFFFFFFFFFFFFFF DUP2 GT ISZERO PUSH2 0x868 JUMPI PUSH2 0x867 PUSH2 0x36F JUMP JUMPDEST JUMPDEST PUSH2 0x872 DUP3 SLOAD PUSH2 0x679 JUMP JUMPDEST PUSH2 0x87D DUP3 DUP3 DUP6 PUSH2 0x7BD JUMP JUMPDEST PUSH0 PUSH1 0x20 SWAP1 POP PUSH1 0x1F DUP4 GT PUSH1 0x1 DUP2 EQ PUSH2 0x8AE JUMPI PUSH0 DUP5 ISZERO PUSH2 0x89C JUMPI DUP3 DUP8 ADD MLOAD SWAP1 POP JUMPDEST PUSH2 0x8A6 DUP6 DUP3 PUSH2 0x82B JUMP JUMPDEST DUP7 SSTORE POP PUSH2 0x90D JUMP JUMPDEST PUSH1 0x1F NOT DUP5 AND PUSH2 0x8BC DUP7 PUSH2 0x6A9 JUMP JUMPDEST PUSH0 JUMPDEST DUP3 DUP2 LT ISZERO PUSH2 0x8E3 JUMPI DUP5 DUP10 ADD MLOAD DUP3 SSTORE PUSH1 0x1 DUP3 ADD SWAP2 POP PUSH1 0x20 DUP6 ADD SWAP5 POP PUSH1 0x20 DUP2 ADD SWAP1 POP PUSH2 0x8BE JUMP JUMPDEST DUP7 DUP4 LT ISZERO PUSH2 0x900 JUMPI DUP5 DUP10 ADD MLOAD PUSH2 0x8FC PUSH1 0x1F DUP10 AND DUP3 PUSH2 0x80F JUMP JUMPDEST DUP4 SSTORE POP JUMPDEST PUSH1 0x1 PUSH1 0x2 DUP9 MUL ADD DUP9 SSTORE POP POP POP JUMPDEST POP POP POP POP POP POP JUMP JUMPDEST PUSH32 0x4E487B7100000000000000000000000000000000000000000000000000000000 PUSH0 MSTORE PUSH1 0x32 PUSH1 0x4 MSTORE PUSH1 0x24 PUSH0 REVERT INVALID LOG2 PUSH5 0x6970667358 0x22 SLT KECCAK256 0xD9 PUSH11 0xA1FFBC5AF00612A04C447F SWAP11 PUSH5 0xC5BC8BECD4 0xDA PUSH17 0x7F5F2F20F12DA8D512AA64736F6C634300 ADDMOD BYTE STOP CALLER "
				},
				"gasEstimates": {
					"creation": {
						"codeDepositCost": "484800",
						"executionCost": "516",
						"totalCost": "485316"
					},
					"external": {
						"UpdatePrice(uint256)": "536",
						"addCar(string,uint256,bool)": "infinite",
						"car(uint256)": "infinite",
						"retrieve(uint256)": "infinite"
					}
				},
				"methodIdentifiers": {
					"UpdatePrice(uint256)": "1a15ab71",
					"addCar(string,uint256,bool)": "097a12b0",
					"car(uint256)": "91ebc320",
					"retrieve(uint256)": "8f88708b"
				}
			},
			"storageLayout": {
				"storage": [
					{
						"astId": 12,
						"contract": "Assignments/program-18.sol:CarRental",
						"label": "car",
						"offset": 0,
						"slot": "0",
						"type": "t_array(t_struct(Car)8_storage)dyn_storage"
					}
				],
				"types": {
					"t_array(t_struct(Car)8_storage)dyn_storage": {
						"base": "t_struct(Car)8_storage",
						"encoding": "dynamic_array",
						"label": "struct CarRental.Car[]",
						"numberOfBytes": "32"
					},
					"t_bool": {
						"encoding": "inplace",
						"label": "bool",
						"numberOfBytes": "1"
					},
					"t_string_storage": {
						"encoding": "bytes",
						"label": "string",
						"numberOfBytes": "32"
					},
					"t_struct(Car)8_storage": {
						"encoding": "inplace",
						"label": "struct CarRental.Car",
						"members": [
							{
								"astId": 3,
								"contract": "Assignments/program-18.sol:CarRental",
								"label": "model",
								"offset": 0,
								"slot": "0",
								"type": "t_string_storage"
							},
							{
								"astId": 5,
								"contract": "Assignments/program-18.sol:CarRental",
								"label": "price",
								"offset": 0,
								"slot": "1",
								"type": "t_uint256"
							},
							{
								"astId": 7,
								"contract": "Assignments/program-18.sol:CarRental",
								"label": "availability",
								"offset": 0,
								"slot": "2",
								"type": "t_bool"
							}
						],
						"numberOfBytes": "96"
					},
					"t_uint256": {
						"encoding": "inplace",
						"label": "uint256",
						"numberOfBytes": "32"
					}
				}
			},
			"userdoc": {
				"kind": "user",
				"methods": {},
				"version": 1
			}
		}
	}
}