{
	"Assignments/program-19.sol": {
		"Voting": {
			"abi": [
				{
					"inputs": [
						{
							"internalType": "string",
							"name": "_name",
							"type": "string"
						},
						{
							"internalType": "uint256",
							"name": "_votes",
							"type": "uint256"
						}
					],
					"name": "addCandidate",
					"outputs": [],
					"stateMutability": "nonpayable",
					"type": "function"
				},
				{
					"inputs": [
						{
							"internalType": "uint256",
							"name": "",
							"type": "uint256"
						}
					],
					"name": "candidates",
					"outputs": [
						{
							"internalType": "string",
							"name": "name",
							"type": "string"
						},
						{
							"internalType": "uint256",
							"name": "votes",
							"type": "uint256"
						}
					],
					"stateMutability": "view",
					"type": "function"
				},
				{
					"inputs": [
						{
							"internalType": "uint256",
							"name": "_index",
							"type": "uint256"
						}
					],
					"name": "getCandidate",
					"outputs": [
						{
							"internalType": "string",
							"name": "",
							"type": "string"
						},
						{
							"internalType": "uint256",
							"name": "",
							"type": "uint256"
						}
					],
					"stateMutability": "view",
					"type": "function"
				},
				{
					"inputs": [],
					"name": "getTotalCandidates",
					"outputs": [
						{
							"internalType": "uint256",
							"name": "",
							"type": "uint256"
						}
					],
					"stateMutability": "view",
					"type": "function"
				},
				{
					"inputs": [],
					"name": "getTotalVotes",
					"outputs": [
						{
							"internalType": "uint256",
							"name": "",
							"type": "uint256"
						}
					],
					"stateMutability": "view",
					"type": "function"
				},
				{
					"inputs": [
						{
							"internalType": "uint256",
							"name": "_index",
							"type": "uint256"
						}
					],
					"name": "vote",
					"outputs": [],
					"stateMutability": "nonpayable",
					"type": "function"
				}
			],
			"devdoc": {
				"kind": "dev",
				"methods": {},
				"version": 1
			},
			"evm": {
				"assembly": "    /* \"Assignments/program-19.sol\":62:953  contract Voting{... */\n  mstore(0x40, 0x80)\n  callvalue\n  dup1\n  iszero\n  tag_1\n  jumpi\n  0x00\n  dup1\n  revert\ntag_1:\n  pop\n  dataSize(sub_0)\n  dup1\n  dataOffset(sub_0)\n  0x00\n  codecopy\n  0x00\n  return\nstop\n\nsub_0: assembly {\n        /* \"Assignments/program-19.sol\":62:953  contract Voting{... */\n      mstore(0x40, 0x80)\n      callvalue\n      dup1\n      iszero\n      tag_1\n      jumpi\n      0x00\n      dup1\n      revert\n    tag_1:\n      pop\n      jumpi(tag_2, lt(calldatasize, 0x04))\n      shr(0xe0, calldataload(0x00))\n      dup1\n      0x0121b93f\n      eq\n      tag_3\n      jumpi\n      dup1\n      0x0deb56ab\n      eq\n      tag_4\n      jumpi\n      dup1\n      0x3477ee2e\n      eq\n      tag_5\n      jumpi\n      dup1\n      0x35b8e820\n      eq\n      tag_6\n      jumpi\n      dup1\n      0x9a0e7d66\n      eq\n      tag_7\n      jumpi\n      dup1\n      0xe23cec7b\n      eq\n      tag_8\n      jumpi\n    tag_2:\n      0x00\n      dup1\n      revert\n        /* \"Assignments/program-19.sol\":322:405  function vote(uint _index) public {... */\n    tag_3:\n      tag_9\n      0x04\n      dup1\n      calldatasize\n      sub\n      dup2\n      add\n      swap1\n      tag_10\n      swap2\n      swap1\n      tag_11\n      jump\t// in\n    tag_10:\n      tag_12\n      jump\t// in\n    tag_9:\n      stop\n        /* \"Assignments/program-19.sol\":611:711  function getTotalCandidates() public view returns (uint) {... */\n    tag_4:\n      tag_13\n      tag_14\n      jump\t// in\n    tag_13:\n      mload(0x40)\n      tag_15\n      swap2\n      swap1\n      tag_16\n      jump\t// in\n    tag_15:\n      mload(0x40)\n      dup1\n      swap2\n      sub\n      swap1\n      return\n        /* \"Assignments/program-19.sol\":157:186  Candidate[] public candidates */\n    tag_5:\n      tag_17\n      0x04\n      dup1\n      calldatasize\n      sub\n      dup2\n      add\n      swap1\n      tag_18\n      swap2\n      swap1\n      tag_11\n      jump\t// in\n    tag_18:\n      tag_19\n      jump\t// in\n    tag_17:\n      mload(0x40)\n      tag_20\n      swap3\n      swap2\n      swap1\n      tag_21\n      jump\t// in\n    tag_20:\n      mload(0x40)\n      dup1\n      swap2\n      sub\n      swap1\n      return\n        /* \"Assignments/program-19.sol\":411:605  function getCandidate(uint _index) public view returns (string memory, uint) {... */\n    tag_6:\n      tag_22\n      0x04\n      dup1\n      calldatasize\n      sub\n      dup2\n      add\n      swap1\n      tag_23\n      swap2\n      swap1\n      tag_11\n      jump\t// in\n    tag_23:\n      tag_24\n      jump\t// in\n    tag_22:\n      mload(0x40)\n      tag_25\n      swap3\n      swap2\n      swap1\n      tag_21\n      jump\t// in\n    tag_25:\n      mload(0x40)\n      dup1\n      swap2\n      sub\n      swap1\n      return\n        /* \"Assignments/program-19.sol\":717:950  function getTotalVotes() public view returns (uint) {... */\n    tag_7:\n      tag_26\n      tag_27\n      jump\t// in\n    tag_26:\n      mload(0x40)\n      tag_28\n      swap2\n      swap1\n      tag_16\n      jump\t// in\n    tag_28:\n      mload(0x40)\n      dup1\n      swap2\n      sub\n      swap1\n      return\n        /* \"Assignments/program-19.sol\":193:316  function addCandidate(string memory _name, uint _votes) public {... */\n    tag_8:\n      tag_29\n      0x04\n      dup1\n      calldatasize\n      sub\n      dup2\n      add\n      swap1\n      tag_30\n      swap2\n      swap1\n      tag_31\n      jump\t// in\n    tag_30:\n      tag_32\n      jump\t// in\n    tag_29:\n      stop\n        /* \"Assignments/program-19.sol\":322:405  function vote(uint _index) public {... */\n    tag_12:\n        /* \"Assignments/program-19.sol\":395:396  1 */\n      0x01\n        /* \"Assignments/program-19.sol\":367:377  candidates */\n      0x00\n        /* \"Assignments/program-19.sol\":378:384  _index */\n      dup3\n        /* \"Assignments/program-19.sol\":367:385  candidates[_index] */\n      dup2\n      sload\n      dup2\n      lt\n      tag_34\n      jumpi\n      tag_35\n      tag_36\n      jump\t// in\n    tag_35:\n    tag_34:\n      swap1\n      0x00\n      mstore\n      keccak256(0x00, 0x20)\n      swap1\n      0x02\n      mul\n      add\n        /* \"Assignments/program-19.sol\":367:391  candidates[_index].votes */\n      0x01\n      add\n      0x00\n        /* \"Assignments/program-19.sol\":367:396  candidates[_index].votes += 1 */\n      dup3\n      dup3\n      sload\n      tag_38\n      swap2\n      swap1\n      tag_39\n      jump\t// in\n    tag_38:\n      swap3\n      pop\n      pop\n      dup2\n      swap1\n      sstore\n      pop\n        /* \"Assignments/program-19.sol\":322:405  function vote(uint _index) public {... */\n      pop\n      jump\t// out\n        /* \"Assignments/program-19.sol\":611:711  function getTotalCandidates() public view returns (uint) {... */\n    tag_14:\n        /* \"Assignments/program-19.sol\":662:666  uint */\n      0x00\n        /* \"Assignments/program-19.sol\":686:696  candidates */\n      dup1\n        /* \"Assignments/program-19.sol\":686:703  candidates.length */\n      dup1\n      sload\n      swap1\n      pop\n        /* \"Assignments/program-19.sol\":679:703  return candidates.length */\n      swap1\n      pop\n        /* \"Assignments/program-19.sol\":611:711  function getTotalCandidates() public view returns (uint) {... */\n      swap1\n      jump\t// out\n        /* \"Assignments/program-19.sol\":157:186  Candidate[] public candidates */\n    tag_19:\n      0x00\n      dup2\n      dup2\n      sload\n      dup2\n      lt\n      tag_41\n      jumpi\n      0x00\n      dup1\n      revert\n    tag_41:\n      swap1\n      0x00\n      mstore\n      keccak256(0x00, 0x20)\n      swap1\n      0x02\n      mul\n      add\n      0x00\n      swap2\n      pop\n      swap1\n      pop\n      dup1\n      0x00\n      add\n      dup1\n      sload\n      tag_43\n      swap1\n      tag_44\n      jump\t// in\n    tag_43:\n      dup1\n      0x1f\n      add\n      0x20\n      dup1\n      swap2\n      div\n      mul\n      0x20\n      add\n      mload(0x40)\n      swap1\n      dup2\n      add\n      0x40\n      mstore\n      dup1\n      swap3\n      swap2\n      swap1\n      dup2\n      dup2\n      mstore\n      0x20\n      add\n      dup3\n      dup1\n      sload\n      tag_45\n      swap1\n      tag_44\n      jump\t// in\n    tag_45:\n      dup1\n      iszero\n      tag_46\n      jumpi\n      dup1\n      0x1f\n      lt\n      tag_47\n      jumpi\n      0x0100\n      dup1\n      dup4\n      sload\n      div\n      mul\n      dup4\n      mstore\n      swap2\n      0x20\n      add\n      swap2\n      jump(tag_46)\n    tag_47:\n      dup3\n      add\n      swap2\n      swap1\n      0x00\n      mstore\n      keccak256(0x00, 0x20)\n      swap1\n    tag_48:\n      dup2\n      sload\n      dup2\n      mstore\n      swap1\n      0x01\n      add\n      swap1\n      0x20\n      add\n      dup1\n      dup4\n      gt\n      tag_48\n      jumpi\n      dup3\n      swap1\n      sub\n      0x1f\n      and\n      dup3\n      add\n      swap2\n    tag_46:\n      pop\n      pop\n      pop\n      pop\n      pop\n      swap1\n      dup1\n      0x01\n      add\n      sload\n      swap1\n      pop\n      dup3\n      jump\t// out\n        /* \"Assignments/program-19.sol\":411:605  function getCandidate(uint _index) public view returns (string memory, uint) {... */\n    tag_24:\n        /* \"Assignments/program-19.sol\":467:480  string memory */\n      0x60\n        /* \"Assignments/program-19.sol\":482:486  uint */\n      0x00\n        /* \"Assignments/program-19.sol\":499:525  Candidate memory candidate */\n      dup1\n        /* \"Assignments/program-19.sol\":528:538  candidates */\n      0x00\n        /* \"Assignments/program-19.sol\":539:545  _index */\n      dup5\n        /* \"Assignments/program-19.sol\":528:546  candidates[_index] */\n      dup2\n      sload\n      dup2\n      lt\n      tag_50\n      jumpi\n      tag_51\n      tag_36\n      jump\t// in\n    tag_51:\n    tag_50:\n      swap1\n      0x00\n      mstore\n      keccak256(0x00, 0x20)\n      swap1\n      0x02\n      mul\n      add\n        /* \"Assignments/program-19.sol\":499:546  Candidate memory candidate = candidates[_index] */\n      mload(0x40)\n      dup1\n      0x40\n      add\n      0x40\n      mstore\n      swap1\n      dup2\n      0x00\n      dup3\n      add\n      dup1\n      sload\n      tag_53\n      swap1\n      tag_44\n      jump\t// in\n    tag_53:\n      dup1\n      0x1f\n      add\n      0x20\n      dup1\n      swap2\n      div\n      mul\n      0x20\n      add\n      mload(0x40)\n      swap1\n      dup2\n      add\n      0x40\n      mstore\n      dup1\n      swap3\n      swap2\n      swap1\n      dup2\n      dup2\n      mstore\n      0x20\n      add\n      dup3\n      dup1\n      sload\n      tag_54\n      swap1\n      tag_44\n      jump\t// in\n    tag_54:\n      dup1\n      iszero\n      tag_55\n      jumpi\n      dup1\n      0x1f\n      lt\n      tag_56\n      jumpi\n      0x0100\n      dup1\n      dup4\n      sload\n      div\n      mul\n      dup4\n      mstore\n      swap2\n      0x20\n      add\n      swap2\n      jump(tag_55)\n    tag_56:\n      dup3\n      add\n      swap2\n      swap1\n      0x00\n      mstore\n      keccak256(0x00, 0x20)\n      swap1\n    tag_57:\n      dup2\n      sload\n      dup2\n      mstore\n      swap1\n      0x01\n      add\n      swap1\n      0x20\n      add\n      dup1\n      dup4\n      gt\n      tag_57\n      jumpi\n      dup3\n      swap1\n      sub\n      0x1f\n      and\n      dup3\n      add\n      swap2\n    tag_55:\n      pop\n      pop\n      pop\n      pop\n      pop\n      dup2\n      mstore\n      0x20\n      add\n      0x01\n      dup3\n      add\n      sload\n      dup2\n      mstore\n      pop\n      pop\n      swap1\n      pop\n        /* \"Assignments/program-19.sol\":565:574  candidate */\n      dup1\n        /* \"Assignments/program-19.sol\":565:579  candidate.name */\n      0x00\n      add\n      mload\n        /* \"Assignments/program-19.sol\":581:590  candidate */\n      dup2\n        /* \"Assignments/program-19.sol\":581:596  candidate.votes */\n      0x20\n      add\n      mload\n        /* \"Assignments/program-19.sol\":557:597  return (candidate.name, candidate.votes) */\n      swap3\n      pop\n      swap3\n      pop\n      pop\n        /* \"Assignments/program-19.sol\":411:605  function getCandidate(uint _index) public view returns (string memory, uint) {... */\n      swap2\n      pop\n      swap2\n      jump\t// out\n        /* \"Assignments/program-19.sol\":717:950  function getTotalVotes() public view returns (uint) {... */\n    tag_27:\n        /* \"Assignments/program-19.sol\":763:767  uint */\n      0x00\n        /* \"Assignments/program-19.sol\":780:795  uint totalVotes */\n      dup1\n        /* \"Assignments/program-19.sol\":798:799  0 */\n      0x00\n        /* \"Assignments/program-19.sol\":780:799  uint totalVotes = 0 */\n      swap1\n      pop\n        /* \"Assignments/program-19.sol\":815:821  uint i */\n      0x00\n        /* \"Assignments/program-19.sol\":810:915  for (uint i = 0; i < candidates.length; i++) {... */\n    tag_59:\n        /* \"Assignments/program-19.sol\":831:841  candidates */\n      0x00\n        /* \"Assignments/program-19.sol\":831:848  candidates.length */\n      dup1\n      sload\n      swap1\n      pop\n        /* \"Assignments/program-19.sol\":827:828  i */\n      dup2\n        /* \"Assignments/program-19.sol\":827:848  i < candidates.length */\n      lt\n        /* \"Assignments/program-19.sol\":810:915  for (uint i = 0; i < candidates.length; i++) {... */\n      iszero\n      tag_60\n      jumpi\n        /* \"Assignments/program-19.sol\":884:894  candidates */\n      0x00\n        /* \"Assignments/program-19.sol\":895:896  i */\n      dup2\n        /* \"Assignments/program-19.sol\":884:897  candidates[i] */\n      dup2\n      sload\n      dup2\n      lt\n      tag_62\n      jumpi\n      tag_63\n      tag_36\n      jump\t// in\n    tag_63:\n    tag_62:\n      swap1\n      0x00\n      mstore\n      keccak256(0x00, 0x20)\n      swap1\n      0x02\n      mul\n      add\n        /* \"Assignments/program-19.sol\":884:903  candidates[i].votes */\n      0x01\n      add\n      sload\n        /* \"Assignments/program-19.sol\":870:903  totalVotes += candidates[i].votes */\n      dup3\n      tag_65\n      swap2\n      swap1\n      tag_39\n      jump\t// in\n    tag_65:\n      swap2\n      pop\n        /* \"Assignments/program-19.sol\":850:853  i++ */\n      dup1\n      dup1\n      0x01\n      add\n      swap2\n      pop\n      pop\n        /* \"Assignments/program-19.sol\":810:915  for (uint i = 0; i < candidates.length; i++) {... */\n      jump(tag_59)\n    tag_60:\n      pop\n        /* \"Assignments/program-19.sol\":932:942  totalVotes */\n      dup1\n        /* \"Assignments/program-19.sol\":925:942  return totalVotes */\n      swap2\n      pop\n      pop\n        /* \"Assignments/program-19.sol\":717:950  function getTotalVotes() public view returns (uint) {... */\n      swap1\n      jump\t// out\n        /* \"Assignments/program-19.sol\":193:316  function addCandidate(string memory _name, uint _votes) public {... */\n    tag_32:\n        /* \"Assignments/program-19.sol\":267:277  candidates */\n      0x00\n        /* \"Assignments/program-19.sol\":283:307  Candidate(_name, _votes) */\n      mload(0x40)\n      dup1\n      0x40\n      add\n      0x40\n      mstore\n      dup1\n        /* \"Assignments/program-19.sol\":293:298  _name */\n      dup5\n        /* \"Assignments/program-19.sol\":283:307  Candidate(_name, _votes) */\n      dup2\n      mstore\n      0x20\n      add\n        /* \"Assignments/program-19.sol\":300:306  _votes */\n      dup4\n        /* \"Assignments/program-19.sol\":283:307  Candidate(_name, _votes) */\n      dup2\n      mstore\n      pop\n        /* \"Assignments/program-19.sol\":267:308  candidates.push(Candidate(_name, _votes)) */\n      swap1\n      dup1\n      0x01\n      dup2\n      sload\n      add\n      dup1\n      dup3\n      sstore\n      dup1\n      swap2\n      pop\n      pop\n      0x01\n      swap1\n      sub\n      swap1\n      0x00\n      mstore\n      keccak256(0x00, 0x20)\n      swap1\n      0x02\n      mul\n      add\n      0x00\n      swap1\n      swap2\n      swap1\n      swap2\n      swap1\n      swap2\n      pop\n      0x00\n      dup3\n      add\n      mload\n      dup2\n      0x00\n      add\n      swap1\n      dup2\n      tag_68\n      swap2\n      swap1\n      tag_69\n      jump\t// in\n    tag_68:\n      pop\n      0x20\n      dup3\n      add\n      mload\n      dup2\n      0x01\n      add\n      sstore\n      pop\n      pop\n        /* \"Assignments/program-19.sol\":193:316  function addCandidate(string memory _name, uint _votes) public {... */\n      pop\n      pop\n      jump\t// out\n        /* \"#utility.yul\":7:82   */\n    tag_70:\n        /* \"#utility.yul\":40:46   */\n      0x00\n        /* \"#utility.yul\":73:75   */\n      0x40\n        /* \"#utility.yul\":67:76   */\n      mload\n        /* \"#utility.yul\":57:76   */\n      swap1\n      pop\n        /* \"#utility.yul\":7:82   */\n      swap1\n      jump\t// out\n        /* \"#utility.yul\":88:205   */\n    tag_71:\n        /* \"#utility.yul\":197:198   */\n      0x00\n        /* \"#utility.yul\":194:195   */\n      dup1\n        /* \"#utility.yul\":187:199   */\n      revert\n        /* \"#utility.yul\":211:328   */\n    tag_72:\n        /* \"#utility.yul\":320:321   */\n      0x00\n        /* \"#utility.yul\":317:318   */\n      dup1\n        /* \"#utility.yul\":310:322   */\n      revert\n        /* \"#utility.yul\":334:411   */\n    tag_73:\n        /* \"#utility.yul\":371:378   */\n      0x00\n        /* \"#utility.yul\":400:405   */\n      dup2\n        /* \"#utility.yul\":389:405   */\n      swap1\n      pop\n        /* \"#utility.yul\":334:411   */\n      swap2\n      swap1\n      pop\n      jump\t// out\n        /* \"#utility.yul\":417:539   */\n    tag_74:\n        /* \"#utility.yul\":490:514   */\n      tag_114\n        /* \"#utility.yul\":508:513   */\n      dup2\n        /* \"#utility.yul\":490:514   */\n      tag_73\n      jump\t// in\n    tag_114:\n        /* \"#utility.yul\":483:488   */\n      dup2\n        /* \"#utility.yul\":480:515   */\n      eq\n        /* \"#utility.yul\":470:533   */\n      tag_115\n      jumpi\n        /* \"#utility.yul\":529:530   */\n      0x00\n        /* \"#utility.yul\":526:527   */\n      dup1\n        /* \"#utility.yul\":519:531   */\n      revert\n        /* \"#utility.yul\":470:533   */\n    tag_115:\n        /* \"#utility.yul\":417:539   */\n      pop\n      jump\t// out\n        /* \"#utility.yul\":545:684   */\n    tag_75:\n        /* \"#utility.yul\":591:596   */\n      0x00\n        /* \"#utility.yul\":629:635   */\n      dup2\n        /* \"#utility.yul\":616:636   */\n      calldataload\n        /* \"#utility.yul\":607:636   */\n      swap1\n      pop\n        /* \"#utility.yul\":645:678   */\n      tag_117\n        /* \"#utility.yul\":672:677   */\n      dup2\n        /* \"#utility.yul\":645:678   */\n      tag_74\n      jump\t// in\n    tag_117:\n        /* \"#utility.yul\":545:684   */\n      swap3\n      swap2\n      pop\n      pop\n      jump\t// out\n        /* \"#utility.yul\":690:1019   */\n    tag_11:\n        /* \"#utility.yul\":749:755   */\n      0x00\n        /* \"#utility.yul\":798:800   */\n      0x20\n        /* \"#utility.yul\":786:795   */\n      dup3\n        /* \"#utility.yul\":777:784   */\n      dup5\n        /* \"#utility.yul\":773:796   */\n      sub\n        /* \"#utility.yul\":769:801   */\n      slt\n        /* \"#utility.yul\":766:885   */\n      iszero\n      tag_119\n      jumpi\n        /* \"#utility.yul\":804:883   */\n      tag_120\n      tag_71\n      jump\t// in\n    tag_120:\n        /* \"#utility.yul\":766:885   */\n    tag_119:\n        /* \"#utility.yul\":924:925   */\n      0x00\n        /* \"#utility.yul\":949:1002   */\n      tag_121\n        /* \"#utility.yul\":994:1001   */\n      dup5\n        /* \"#utility.yul\":985:991   */\n      dup3\n        /* \"#utility.yul\":974:983   */\n      dup6\n        /* \"#utility.yul\":970:992   */\n      add\n        /* \"#utility.yul\":949:1002   */\n      tag_75\n      jump\t// in\n    tag_121:\n        /* \"#utility.yul\":939:1002   */\n      swap2\n      pop\n        /* \"#utility.yul\":895:1012   */\n      pop\n        /* \"#utility.yul\":690:1019   */\n      swap3\n      swap2\n      pop\n      pop\n      jump\t// out\n        /* \"#utility.yul\":1025:1143   */\n    tag_76:\n        /* \"#utility.yul\":1112:1136   */\n      tag_123\n        /* \"#utility.yul\":1130:1135   */\n      dup2\n        /* \"#utility.yul\":1112:1136   */\n      tag_73\n      jump\t// in\n    tag_123:\n        /* \"#utility.yul\":1107:1110   */\n      dup3\n        /* \"#utility.yul\":1100:1137   */\n      mstore\n        /* \"#utility.yul\":1025:1143   */\n      pop\n      pop\n      jump\t// out\n        /* \"#utility.yul\":1149:1371   */\n    tag_16:\n        /* \"#utility.yul\":1242:1246   */\n      0x00\n        /* \"#utility.yul\":1280:1282   */\n      0x20\n        /* \"#utility.yul\":1269:1278   */\n      dup3\n        /* \"#utility.yul\":1265:1283   */\n      add\n        /* \"#utility.yul\":1257:1283   */\n      swap1\n      pop\n        /* \"#utility.yul\":1293:1364   */\n      tag_125\n        /* \"#utility.yul\":1361:1362   */\n      0x00\n        /* \"#utility.yul\":1350:1359   */\n      dup4\n        /* \"#utility.yul\":1346:1363   */\n      add\n        /* \"#utility.yul\":1337:1343   */\n      dup5\n        /* \"#utility.yul\":1293:1364   */\n      tag_76\n      jump\t// in\n    tag_125:\n        /* \"#utility.yul\":1149:1371   */\n      swap3\n      swap2\n      pop\n      pop\n      jump\t// out\n        /* \"#utility.yul\":1377:1476   */\n    tag_77:\n        /* \"#utility.yul\":1429:1435   */\n      0x00\n        /* \"#utility.yul\":1463:1468   */\n      dup2\n        /* \"#utility.yul\":1457:1469   */\n      mload\n        /* \"#utility.yul\":1447:1469   */\n      swap1\n      pop\n        /* \"#utility.yul\":1377:1476   */\n      swap2\n      swap1\n      pop\n      jump\t// out\n        /* \"#utility.yul\":1482:1651   */\n    tag_78:\n        /* \"#utility.yul\":1566:1577   */\n      0x00\n        /* \"#utility.yul\":1600:1606   */\n      dup3\n        /* \"#utility.yul\":1595:1598   */\n      dup3\n        /* \"#utility.yul\":1588:1607   */\n      mstore\n        /* \"#utility.yul\":1640:1644   */\n      0x20\n        /* \"#utility.yul\":1635:1638   */\n      dup3\n        /* \"#utility.yul\":1631:1645   */\n      add\n        /* \"#utility.yul\":1616:1645   */\n      swap1\n      pop\n        /* \"#utility.yul\":1482:1651   */\n      swap3\n      swap2\n      pop\n      pop\n      jump\t// out\n        /* \"#utility.yul\":1657:1796   */\n    tag_79:\n        /* \"#utility.yul\":1746:1752   */\n      dup3\n        /* \"#utility.yul\":1741:1744   */\n      dup2\n        /* \"#utility.yul\":1736:1739   */\n      dup4\n        /* \"#utility.yul\":1730:1753   */\n      mcopy\n        /* \"#utility.yul\":1787:1788   */\n      0x00\n        /* \"#utility.yul\":1778:1784   */\n      dup4\n        /* \"#utility.yul\":1773:1776   */\n      dup4\n        /* \"#utility.yul\":1769:1785   */\n      add\n        /* \"#utility.yul\":1762:1789   */\n      mstore\n        /* \"#utility.yul\":1657:1796   */\n      pop\n      pop\n      pop\n      jump\t// out\n        /* \"#utility.yul\":1802:1904   */\n    tag_80:\n        /* \"#utility.yul\":1843:1849   */\n      0x00\n        /* \"#utility.yul\":1894:1896   */\n      0x1f\n        /* \"#utility.yul\":1890:1897   */\n      not\n        /* \"#utility.yul\":1885:1887   */\n      0x1f\n        /* \"#utility.yul\":1878:1883   */\n      dup4\n        /* \"#utility.yul\":1874:1888   */\n      add\n        /* \"#utility.yul\":1870:1898   */\n      and\n        /* \"#utility.yul\":1860:1898   */\n      swap1\n      pop\n        /* \"#utility.yul\":1802:1904   */\n      swap2\n      swap1\n      pop\n      jump\t// out\n        /* \"#utility.yul\":1910:2287   */\n    tag_81:\n        /* \"#utility.yul\":1998:2001   */\n      0x00\n        /* \"#utility.yul\":2026:2065   */\n      tag_131\n        /* \"#utility.yul\":2059:2064   */\n      dup3\n        /* \"#utility.yul\":2026:2065   */\n      tag_77\n      jump\t// in\n    tag_131:\n        /* \"#utility.yul\":2081:2152   */\n      tag_132\n        /* \"#utility.yul\":2145:2151   */\n      dup2\n        /* \"#utility.yul\":2140:2143   */\n      dup6\n        /* \"#utility.yul\":2081:2152   */\n      tag_78\n      jump\t// in\n    tag_132:\n        /* \"#utility.yul\":2074:2152   */\n      swap4\n      pop\n        /* \"#utility.yul\":2161:2226   */\n      tag_133\n        /* \"#utility.yul\":2219:2225   */\n      dup2\n        /* \"#utility.yul\":2214:2217   */\n      dup6\n        /* \"#utility.yul\":2207:2211   */\n      0x20\n        /* \"#utility.yul\":2200:2205   */\n      dup7\n        /* \"#utility.yul\":2196:2212   */\n      add\n        /* \"#utility.yul\":2161:2226   */\n      tag_79\n      jump\t// in\n    tag_133:\n        /* \"#utility.yul\":2251:2280   */\n      tag_134\n        /* \"#utility.yul\":2273:2279   */\n      dup2\n        /* \"#utility.yul\":2251:2280   */\n      tag_80\n      jump\t// in\n    tag_134:\n        /* \"#utility.yul\":2246:2249   */\n      dup5\n        /* \"#utility.yul\":2242:2281   */\n      add\n        /* \"#utility.yul\":2235:2281   */\n      swap2\n      pop\n        /* \"#utility.yul\":2002:2287   */\n      pop\n        /* \"#utility.yul\":1910:2287   */\n      swap3\n      swap2\n      pop\n      pop\n      jump\t// out\n        /* \"#utility.yul\":2293:2716   */\n    tag_21:\n        /* \"#utility.yul\":2434:2438   */\n      0x00\n        /* \"#utility.yul\":2472:2474   */\n      0x40\n        /* \"#utility.yul\":2461:2470   */\n      dup3\n        /* \"#utility.yul\":2457:2475   */\n      add\n        /* \"#utility.yul\":2449:2475   */\n      swap1\n      pop\n        /* \"#utility.yul\":2521:2530   */\n      dup2\n        /* \"#utility.yul\":2515:2519   */\n      dup2\n        /* \"#utility.yul\":2511:2531   */\n      sub\n        /* \"#utility.yul\":2507:2508   */\n      0x00\n        /* \"#utility.yul\":2496:2505   */\n      dup4\n        /* \"#utility.yul\":2492:2509   */\n      add\n        /* \"#utility.yul\":2485:2532   */\n      mstore\n        /* \"#utility.yul\":2549:2627   */\n      tag_136\n        /* \"#utility.yul\":2622:2626   */\n      dup2\n        /* \"#utility.yul\":2613:2619   */\n      dup6\n        /* \"#utility.yul\":2549:2627   */\n      tag_81\n      jump\t// in\n    tag_136:\n        /* \"#utility.yul\":2541:2627   */\n      swap1\n      pop\n        /* \"#utility.yul\":2637:2709   */\n      tag_137\n        /* \"#utility.yul\":2705:2707   */\n      0x20\n        /* \"#utility.yul\":2694:2703   */\n      dup4\n        /* \"#utility.yul\":2690:2708   */\n      add\n        /* \"#utility.yul\":2681:2687   */\n      dup5\n        /* \"#utility.yul\":2637:2709   */\n      tag_76\n      jump\t// in\n    tag_137:\n        /* \"#utility.yul\":2293:2716   */\n      swap4\n      swap3\n      pop\n      pop\n      pop\n      jump\t// out\n        /* \"#utility.yul\":2722:2839   */\n    tag_82:\n        /* \"#utility.yul\":2831:2832   */\n      0x00\n        /* \"#utility.yul\":2828:2829   */\n      dup1\n        /* \"#utility.yul\":2821:2833   */\n      revert\n        /* \"#utility.yul\":2845:2962   */\n    tag_83:\n        /* \"#utility.yul\":2954:2955   */\n      0x00\n        /* \"#utility.yul\":2951:2952   */\n      dup1\n        /* \"#utility.yul\":2944:2956   */\n      revert\n        /* \"#utility.yul\":2968:3148   */\n    tag_84:\n        /* \"#utility.yul\":3016:3093   */\n      0x4e487b7100000000000000000000000000000000000000000000000000000000\n        /* \"#utility.yul\":3013:3014   */\n      0x00\n        /* \"#utility.yul\":3006:3094   */\n      mstore\n        /* \"#utility.yul\":3113:3117   */\n      0x41\n        /* \"#utility.yul\":3110:3111   */\n      0x04\n        /* \"#utility.yul\":3103:3118   */\n      mstore\n        /* \"#utility.yul\":3137:3141   */\n      0x24\n        /* \"#utility.yul\":3134:3135   */\n      0x00\n        /* \"#utility.yul\":3127:3142   */\n      revert\n        /* \"#utility.yul\":3154:3435   */\n    tag_85:\n        /* \"#utility.yul\":3237:3264   */\n      tag_142\n        /* \"#utility.yul\":3259:3263   */\n      dup3\n        /* \"#utility.yul\":3237:3264   */\n      tag_80\n      jump\t// in\n    tag_142:\n        /* \"#utility.yul\":3229:3235   */\n      dup2\n        /* \"#utility.yul\":3225:3265   */\n      add\n        /* \"#utility.yul\":3367:3373   */\n      dup2\n        /* \"#utility.yul\":3355:3365   */\n      dup2\n        /* \"#utility.yul\":3352:3374   */\n      lt\n        /* \"#utility.yul\":3331:3349   */\n      0xffffffffffffffff\n        /* \"#utility.yul\":3319:3329   */\n      dup3\n        /* \"#utility.yul\":3316:3350   */\n      gt\n        /* \"#utility.yul\":3313:3375   */\n      or\n        /* \"#utility.yul\":3310:3398   */\n      iszero\n      tag_143\n      jumpi\n        /* \"#utility.yul\":3378:3396   */\n      tag_144\n      tag_84\n      jump\t// in\n    tag_144:\n        /* \"#utility.yul\":3310:3398   */\n    tag_143:\n        /* \"#utility.yul\":3418:3428   */\n      dup1\n        /* \"#utility.yul\":3414:3416   */\n      0x40\n        /* \"#utility.yul\":3407:3429   */\n      mstore\n        /* \"#utility.yul\":3197:3435   */\n      pop\n        /* \"#utility.yul\":3154:3435   */\n      pop\n      pop\n      jump\t// out\n        /* \"#utility.yul\":3441:3570   */\n    tag_86:\n        /* \"#utility.yul\":3475:3481   */\n      0x00\n        /* \"#utility.yul\":3502:3522   */\n      tag_146\n      tag_70\n      jump\t// in\n    tag_146:\n        /* \"#utility.yul\":3492:3522   */\n      swap1\n      pop\n        /* \"#utility.yul\":3531:3564   */\n      tag_147\n        /* \"#utility.yul\":3559:3563   */\n      dup3\n        /* \"#utility.yul\":3551:3557   */\n      dup3\n        /* \"#utility.yul\":3531:3564   */\n      tag_85\n      jump\t// in\n    tag_147:\n        /* \"#utility.yul\":3441:3570   */\n      swap2\n      swap1\n      pop\n      jump\t// out\n        /* \"#utility.yul\":3576:3884   */\n    tag_87:\n        /* \"#utility.yul\":3638:3642   */\n      0x00\n        /* \"#utility.yul\":3728:3746   */\n      0xffffffffffffffff\n        /* \"#utility.yul\":3720:3726   */\n      dup3\n        /* \"#utility.yul\":3717:3747   */\n      gt\n        /* \"#utility.yul\":3714:3770   */\n      iszero\n      tag_149\n      jumpi\n        /* \"#utility.yul\":3750:3768   */\n      tag_150\n      tag_84\n      jump\t// in\n    tag_150:\n        /* \"#utility.yul\":3714:3770   */\n    tag_149:\n        /* \"#utility.yul\":3788:3817   */\n      tag_151\n        /* \"#utility.yul\":3810:3816   */\n      dup3\n        /* \"#utility.yul\":3788:3817   */\n      tag_80\n      jump\t// in\n    tag_151:\n        /* \"#utility.yul\":3780:3817   */\n      swap1\n      pop\n        /* \"#utility.yul\":3872:3876   */\n      0x20\n        /* \"#utility.yul\":3866:3870   */\n      dup2\n        /* \"#utility.yul\":3862:3877   */\n      add\n        /* \"#utility.yul\":3854:3877   */\n      swap1\n      pop\n        /* \"#utility.yul\":3576:3884   */\n      swap2\n      swap1\n      pop\n      jump\t// out\n        /* \"#utility.yul\":3890:4038   */\n    tag_88:\n        /* \"#utility.yul\":3988:3994   */\n      dup3\n        /* \"#utility.yul\":3983:3986   */\n      dup2\n        /* \"#utility.yul\":3978:3981   */\n      dup4\n        /* \"#utility.yul\":3965:3995   */\n      calldatacopy\n        /* \"#utility.yul\":4029:4030   */\n      0x00\n        /* \"#utility.yul\":4020:4026   */\n      dup4\n        /* \"#utility.yul\":4015:4018   */\n      dup4\n        /* \"#utility.yul\":4011:4027   */\n      add\n        /* \"#utility.yul\":4004:4031   */\n      mstore\n        /* \"#utility.yul\":3890:4038   */\n      pop\n      pop\n      pop\n      jump\t// out\n        /* \"#utility.yul\":4044:4469   */\n    tag_89:\n        /* \"#utility.yul\":4122:4127   */\n      0x00\n        /* \"#utility.yul\":4147:4213   */\n      tag_154\n        /* \"#utility.yul\":4163:4212   */\n      tag_155\n        /* \"#utility.yul\":4205:4211   */\n      dup5\n        /* \"#utility.yul\":4163:4212   */\n      tag_87\n      jump\t// in\n    tag_155:\n        /* \"#utility.yul\":4147:4213   */\n      tag_86\n      jump\t// in\n    tag_154:\n        /* \"#utility.yul\":4138:4213   */\n      swap1\n      pop\n        /* \"#utility.yul\":4236:4242   */\n      dup3\n        /* \"#utility.yul\":4229:4234   */\n      dup2\n        /* \"#utility.yul\":4222:4243   */\n      mstore\n        /* \"#utility.yul\":4274:4278   */\n      0x20\n        /* \"#utility.yul\":4267:4272   */\n      dup2\n        /* \"#utility.yul\":4263:4279   */\n      add\n        /* \"#utility.yul\":4312:4315   */\n      dup5\n        /* \"#utility.yul\":4303:4309   */\n      dup5\n        /* \"#utility.yul\":4298:4301   */\n      dup5\n        /* \"#utility.yul\":4294:4310   */\n      add\n        /* \"#utility.yul\":4291:4316   */\n      gt\n        /* \"#utility.yul\":4288:4400   */\n      iszero\n      tag_156\n      jumpi\n        /* \"#utility.yul\":4319:4398   */\n      tag_157\n      tag_83\n      jump\t// in\n    tag_157:\n        /* \"#utility.yul\":4288:4400   */\n    tag_156:\n        /* \"#utility.yul\":4409:4463   */\n      tag_158\n        /* \"#utility.yul\":4456:4462   */\n      dup5\n        /* \"#utility.yul\":4451:4454   */\n      dup3\n        /* \"#utility.yul\":4446:4449   */\n      dup6\n        /* \"#utility.yul\":4409:4463   */\n      tag_88\n      jump\t// in\n    tag_158:\n        /* \"#utility.yul\":4128:4469   */\n      pop\n        /* \"#utility.yul\":4044:4469   */\n      swap4\n      swap3\n      pop\n      pop\n      pop\n      jump\t// out\n        /* \"#utility.yul\":4489:4829   */\n    tag_90:\n        /* \"#utility.yul\":4545:4550   */\n      0x00\n        /* \"#utility.yul\":4594:4597   */\n      dup3\n        /* \"#utility.yul\":4587:4591   */\n      0x1f\n        /* \"#utility.yul\":4579:4585   */\n      dup4\n        /* \"#utility.yul\":4575:4592   */\n      add\n        /* \"#utility.yul\":4571:4598   */\n      slt\n        /* \"#utility.yul\":4561:4683   */\n      tag_160\n      jumpi\n        /* \"#utility.yul\":4602:4681   */\n      tag_161\n      tag_82\n      jump\t// in\n    tag_161:\n        /* \"#utility.yul\":4561:4683   */\n    tag_160:\n        /* \"#utility.yul\":4719:4725   */\n      dup2\n        /* \"#utility.yul\":4706:4726   */\n      calldataload\n        /* \"#utility.yul\":4744:4823   */\n      tag_162\n        /* \"#utility.yul\":4819:4822   */\n      dup5\n        /* \"#utility.yul\":4811:4817   */\n      dup3\n        /* \"#utility.yul\":4804:4808   */\n      0x20\n        /* \"#utility.yul\":4796:4802   */\n      dup7\n        /* \"#utility.yul\":4792:4809   */\n      add\n        /* \"#utility.yul\":4744:4823   */\n      tag_89\n      jump\t// in\n    tag_162:\n        /* \"#utility.yul\":4735:4823   */\n      swap2\n      pop\n        /* \"#utility.yul\":4551:4829   */\n      pop\n        /* \"#utility.yul\":4489:4829   */\n      swap3\n      swap2\n      pop\n      pop\n      jump\t// out\n        /* \"#utility.yul\":4835:5489   */\n    tag_31:\n        /* \"#utility.yul\":4913:4919   */\n      0x00\n        /* \"#utility.yul\":4921:4927   */\n      dup1\n        /* \"#utility.yul\":4970:4972   */\n      0x40\n        /* \"#utility.yul\":4958:4967   */\n      dup4\n        /* \"#utility.yul\":4949:4956   */\n      dup6\n        /* \"#utility.yul\":4945:4968   */\n      sub\n        /* \"#utility.yul\":4941:4973   */\n      slt\n        /* \"#utility.yul\":4938:5057   */\n      iszero\n      tag_164\n      jumpi\n        /* \"#utility.yul\":4976:5055   */\n      tag_165\n      tag_71\n      jump\t// in\n    tag_165:\n        /* \"#utility.yul\":4938:5057   */\n    tag_164:\n        /* \"#utility.yul\":5124:5125   */\n      0x00\n        /* \"#utility.yul\":5113:5122   */\n      dup4\n        /* \"#utility.yul\":5109:5126   */\n      add\n        /* \"#utility.yul\":5096:5127   */\n      calldataload\n        /* \"#utility.yul\":5154:5172   */\n      0xffffffffffffffff\n        /* \"#utility.yul\":5146:5152   */\n      dup2\n        /* \"#utility.yul\":5143:5173   */\n      gt\n        /* \"#utility.yul\":5140:5257   */\n      iszero\n      tag_166\n      jumpi\n        /* \"#utility.yul\":5176:5255   */\n      tag_167\n      tag_72\n      jump\t// in\n    tag_167:\n        /* \"#utility.yul\":5140:5257   */\n    tag_166:\n        /* \"#utility.yul\":5281:5344   */\n      tag_168\n        /* \"#utility.yul\":5336:5343   */\n      dup6\n        /* \"#utility.yul\":5327:5333   */\n      dup3\n        /* \"#utility.yul\":5316:5325   */\n      dup7\n        /* \"#utility.yul\":5312:5334   */\n      add\n        /* \"#utility.yul\":5281:5344   */\n      tag_90\n      jump\t// in\n    tag_168:\n        /* \"#utility.yul\":5271:5344   */\n      swap3\n      pop\n        /* \"#utility.yul\":5067:5354   */\n      pop\n        /* \"#utility.yul\":5393:5395   */\n      0x20\n        /* \"#utility.yul\":5419:5472   */\n      tag_169\n        /* \"#utility.yul\":5464:5471   */\n      dup6\n        /* \"#utility.yul\":5455:5461   */\n      dup3\n        /* \"#utility.yul\":5444:5453   */\n      dup7\n        /* \"#utility.yul\":5440:5462   */\n      add\n        /* \"#utility.yul\":5419:5472   */\n      tag_75\n      jump\t// in\n    tag_169:\n        /* \"#utility.yul\":5409:5472   */\n      swap2\n      pop\n        /* \"#utility.yul\":5364:5482   */\n      pop\n        /* \"#utility.yul\":4835:5489   */\n      swap3\n      pop\n      swap3\n      swap1\n      pop\n      jump\t// out\n        /* \"#utility.yul\":5495:5675   */\n    tag_36:\n        /* \"#utility.yul\":5543:5620   */\n      0x4e487b7100000000000000000000000000000000000000000000000000000000\n        /* \"#utility.yul\":5540:5541   */\n      0x00\n        /* \"#utility.yul\":5533:5621   */\n      mstore\n        /* \"#utility.yul\":5640:5644   */\n      0x32\n        /* \"#utility.yul\":5637:5638   */\n      0x04\n        /* \"#utility.yul\":5630:5645   */\n      mstore\n        /* \"#utility.yul\":5664:5668   */\n      0x24\n        /* \"#utility.yul\":5661:5662   */\n      0x00\n        /* \"#utility.yul\":5654:5669   */\n      revert\n        /* \"#utility.yul\":5681:5861   */\n    tag_91:\n        /* \"#utility.yul\":5729:5806   */\n      0x4e487b7100000000000000000000000000000000000000000000000000000000\n        /* \"#utility.yul\":5726:5727   */\n      0x00\n        /* \"#utility.yul\":5719:5807   */\n      mstore\n        /* \"#utility.yul\":5826:5830   */\n      0x11\n        /* \"#utility.yul\":5823:5824   */\n      0x04\n        /* \"#utility.yul\":5816:5831   */\n      mstore\n        /* \"#utility.yul\":5850:5854   */\n      0x24\n        /* \"#utility.yul\":5847:5848   */\n      0x00\n        /* \"#utility.yul\":5840:5855   */\n      revert\n        /* \"#utility.yul\":5867:6058   */\n    tag_39:\n        /* \"#utility.yul\":5907:5910   */\n      0x00\n        /* \"#utility.yul\":5926:5946   */\n      tag_173\n        /* \"#utility.yul\":5944:5945   */\n      dup3\n        /* \"#utility.yul\":5926:5946   */\n      tag_73\n      jump\t// in\n    tag_173:\n        /* \"#utility.yul\":5921:5946   */\n      swap2\n      pop\n        /* \"#utility.yul\":5960:5980   */\n      tag_174\n        /* \"#utility.yul\":5978:5979   */\n      dup4\n        /* \"#utility.yul\":5960:5980   */\n      tag_73\n      jump\t// in\n    tag_174:\n        /* \"#utility.yul\":5955:5980   */\n      swap3\n      pop\n        /* \"#utility.yul\":6003:6004   */\n      dup3\n        /* \"#utility.yul\":6000:6001   */\n      dup3\n        /* \"#utility.yul\":5996:6005   */\n      add\n        /* \"#utility.yul\":5989:6005   */\n      swap1\n      pop\n        /* \"#utility.yul\":6024:6027   */\n      dup1\n        /* \"#utility.yul\":6021:6022   */\n      dup3\n        /* \"#utility.yul\":6018:6028   */\n      gt\n        /* \"#utility.yul\":6015:6051   */\n      iszero\n      tag_175\n      jumpi\n        /* \"#utility.yul\":6031:6049   */\n      tag_176\n      tag_91\n      jump\t// in\n    tag_176:\n        /* \"#utility.yul\":6015:6051   */\n    tag_175:\n        /* \"#utility.yul\":5867:6058   */\n      swap3\n      swap2\n      pop\n      pop\n      jump\t// out\n        /* \"#utility.yul\":6064:6244   */\n    tag_92:\n        /* \"#utility.yul\":6112:6189   */\n      0x4e487b7100000000000000000000000000000000000000000000000000000000\n        /* \"#utility.yul\":6109:6110   */\n      0x00\n        /* \"#utility.yul\":6102:6190   */\n      mstore\n        /* \"#utility.yul\":6209:6213   */\n      0x22\n        /* \"#utility.yul\":6206:6207   */\n      0x04\n        /* \"#utility.yul\":6199:6214   */\n      mstore\n        /* \"#utility.yul\":6233:6237   */\n      0x24\n        /* \"#utility.yul\":6230:6231   */\n      0x00\n        /* \"#utility.yul\":6223:6238   */\n      revert\n        /* \"#utility.yul\":6250:6570   */\n    tag_44:\n        /* \"#utility.yul\":6294:6300   */\n      0x00\n        /* \"#utility.yul\":6331:6332   */\n      0x02\n        /* \"#utility.yul\":6325:6329   */\n      dup3\n        /* \"#utility.yul\":6321:6333   */\n      div\n        /* \"#utility.yul\":6311:6333   */\n      swap1\n      pop\n        /* \"#utility.yul\":6378:6379   */\n      0x01\n        /* \"#utility.yul\":6372:6376   */\n      dup3\n        /* \"#utility.yul\":6368:6380   */\n      and\n        /* \"#utility.yul\":6399:6417   */\n      dup1\n        /* \"#utility.yul\":6389:6470   */\n      tag_179\n      jumpi\n        /* \"#utility.yul\":6455:6459   */\n      0x7f\n        /* \"#utility.yul\":6447:6453   */\n      dup3\n        /* \"#utility.yul\":6443:6460   */\n      and\n        /* \"#utility.yul\":6433:6460   */\n      swap2\n      pop\n        /* \"#utility.yul\":6389:6470   */\n    tag_179:\n        /* \"#utility.yul\":6517:6519   */\n      0x20\n        /* \"#utility.yul\":6509:6515   */\n      dup3\n        /* \"#utility.yul\":6506:6520   */\n      lt\n        /* \"#utility.yul\":6486:6504   */\n      dup2\n        /* \"#utility.yul\":6483:6521   */\n      sub\n        /* \"#utility.yul\":6480:6564   */\n      tag_180\n      jumpi\n        /* \"#utility.yul\":6536:6554   */\n      tag_181\n      tag_92\n      jump\t// in\n    tag_181:\n        /* \"#utility.yul\":6480:6564   */\n    tag_180:\n        /* \"#utility.yul\":6301:6570   */\n      pop\n        /* \"#utility.yul\":6250:6570   */\n      swap2\n      swap1\n      pop\n      jump\t// out\n        /* \"#utility.yul\":6576:6717   */\n    tag_93:\n        /* \"#utility.yul\":6625:6629   */\n      0x00\n        /* \"#utility.yul\":6648:6651   */\n      dup2\n        /* \"#utility.yul\":6640:6651   */\n      swap1\n      pop\n        /* \"#utility.yul\":6671:6674   */\n      dup2\n        /* \"#utility.yul\":6668:6669   */\n      0x00\n        /* \"#utility.yul\":6661:6675   */\n      mstore\n        /* \"#utility.yul\":6705:6709   */\n      0x20\n        /* \"#utility.yul\":6702:6703   */\n      0x00\n        /* \"#utility.yul\":6692:6710   */\n      keccak256\n        /* \"#utility.yul\":6684:6710   */\n      swap1\n      pop\n        /* \"#utility.yul\":6576:6717   */\n      swap2\n      swap1\n      pop\n      jump\t// out\n        /* \"#utility.yul\":6723:6816   */\n    tag_94:\n        /* \"#utility.yul\":6760:6766   */\n      0x00\n        /* \"#utility.yul\":6807:6809   */\n      0x20\n        /* \"#utility.yul\":6802:6804   */\n      0x1f\n        /* \"#utility.yul\":6795:6800   */\n      dup4\n        /* \"#utility.yul\":6791:6805   */\n      add\n        /* \"#utility.yul\":6787:6810   */\n      div\n        /* \"#utility.yul\":6777:6810   */\n      swap1\n      pop\n        /* \"#utility.yul\":6723:6816   */\n      swap2\n      swap1\n      pop\n      jump\t// out\n        /* \"#utility.yul\":6822:6929   */\n    tag_95:\n        /* \"#utility.yul\":6866:6874   */\n      0x00\n        /* \"#utility.yul\":6916:6921   */\n      dup3\n        /* \"#utility.yul\":6910:6914   */\n      dup3\n        /* \"#utility.yul\":6906:6922   */\n      shl\n        /* \"#utility.yul\":6885:6922   */\n      swap1\n      pop\n        /* \"#utility.yul\":6822:6929   */\n      swap3\n      swap2\n      pop\n      pop\n      jump\t// out\n        /* \"#utility.yul\":6935:7328   */\n    tag_96:\n        /* \"#utility.yul\":7004:7010   */\n      0x00\n        /* \"#utility.yul\":7054:7055   */\n      0x08\n        /* \"#utility.yul\":7042:7052   */\n      dup4\n        /* \"#utility.yul\":7038:7056   */\n      mul\n        /* \"#utility.yul\":7077:7174   */\n      tag_186\n        /* \"#utility.yul\":7107:7173   */\n      0xffffffffffffffffffffffffffffffffffffffffffffffffffffffffffffffff\n        /* \"#utility.yul\":7096:7105   */\n      dup3\n        /* \"#utility.yul\":7077:7174   */\n      tag_95\n      jump\t// in\n    tag_186:\n        /* \"#utility.yul\":7195:7234   */\n      tag_187\n        /* \"#utility.yul\":7225:7233   */\n      dup7\n        /* \"#utility.yul\":7214:7223   */\n      dup4\n        /* \"#utility.yul\":7195:7234   */\n      tag_95\n      jump\t// in\n    tag_187:\n        /* \"#utility.yul\":7183:7234   */\n      swap6\n      pop\n        /* \"#utility.yul\":7267:7271   */\n      dup1\n        /* \"#utility.yul\":7263:7272   */\n      not\n        /* \"#utility.yul\":7256:7261   */\n      dup5\n        /* \"#utility.yul\":7252:7273   */\n      and\n        /* \"#utility.yul\":7243:7273   */\n      swap4\n      pop\n        /* \"#utility.yul\":7316:7320   */\n      dup1\n        /* \"#utility.yul\":7306:7314   */\n      dup7\n        /* \"#utility.yul\":7302:7321   */\n      and\n        /* \"#utility.yul\":7295:7300   */\n      dup5\n        /* \"#utility.yul\":7292:7322   */\n      or\n        /* \"#utility.yul\":7282:7322   */\n      swap3\n      pop\n        /* \"#utility.yul\":7011:7328   */\n      pop\n      pop\n        /* \"#utility.yul\":6935:7328   */\n      swap4\n      swap3\n      pop\n      pop\n      pop\n      jump\t// out\n        /* \"#utility.yul\":7334:7394   */\n    tag_97:\n        /* \"#utility.yul\":7362:7365   */\n      0x00\n        /* \"#utility.yul\":7383:7388   */\n      dup2\n        /* \"#utility.yul\":7376:7388   */\n      swap1\n      pop\n        /* \"#utility.yul\":7334:7394   */\n      swap2\n      swap1\n      pop\n      jump\t// out\n        /* \"#utility.yul\":7400:7542   */\n    tag_98:\n        /* \"#utility.yul\":7450:7459   */\n      0x00\n        /* \"#utility.yul\":7483:7536   */\n      tag_190\n        /* \"#utility.yul\":7501:7535   */\n      tag_191\n        /* \"#utility.yul\":7510:7534   */\n      tag_192\n        /* \"#utility.yul\":7528:7533   */\n      dup5\n        /* \"#utility.yul\":7510:7534   */\n      tag_73\n      jump\t// in\n    tag_192:\n        /* \"#utility.yul\":7501:7535   */\n      tag_97\n      jump\t// in\n    tag_191:\n        /* \"#utility.yul\":7483:7536   */\n      tag_73\n      jump\t// in\n    tag_190:\n        /* \"#utility.yul\":7470:7536   */\n      swap1\n      pop\n        /* \"#utility.yul\":7400:7542   */\n      swap2\n      swap1\n      pop\n      jump\t// out\n        /* \"#utility.yul\":7548:7623   */\n    tag_99:\n        /* \"#utility.yul\":7591:7594   */\n      0x00\n        /* \"#utility.yul\":7612:7617   */\n      dup2\n        /* \"#utility.yul\":7605:7617   */\n      swap1\n      pop\n        /* \"#utility.yul\":7548:7623   */\n      swap2\n      swap1\n      pop\n      jump\t// out\n        /* \"#utility.yul\":7629:7898   */\n    tag_100:\n        /* \"#utility.yul\":7739:7778   */\n      tag_195\n        /* \"#utility.yul\":7770:7777   */\n      dup4\n        /* \"#utility.yul\":7739:7778   */\n      tag_98\n      jump\t// in\n    tag_195:\n        /* \"#utility.yul\":7800:7891   */\n      tag_196\n        /* \"#utility.yul\":7849:7890   */\n      tag_197\n        /* \"#utility.yul\":7873:7889   */\n      dup3\n        /* \"#utility.yul\":7849:7890   */\n      tag_99\n      jump\t// in\n    tag_197:\n        /* \"#utility.yul\":7841:7847   */\n      dup5\n        /* \"#utility.yul\":7834:7838   */\n      dup5\n        /* \"#utility.yul\":7828:7839   */\n      sload\n        /* \"#utility.yul\":7800:7891   */\n      tag_96\n      jump\t// in\n    tag_196:\n        /* \"#utility.yul\":7794:7798   */\n      dup3\n        /* \"#utility.yul\":7787:7892   */\n      sstore\n        /* \"#utility.yul\":7705:7898   */\n      pop\n        /* \"#utility.yul\":7629:7898   */\n      pop\n      pop\n      pop\n      jump\t// out\n        /* \"#utility.yul\":7904:7977   */\n    tag_101:\n        /* \"#utility.yul\":7949:7952   */\n      0x00\n        /* \"#utility.yul\":7904:7977   */\n      swap1\n      jump\t// out\n        /* \"#utility.yul\":7983:8172   */\n    tag_102:\n        /* \"#utility.yul\":8060:8092   */\n      tag_200\n      tag_101\n      jump\t// in\n    tag_200:\n        /* \"#utility.yul\":8101:8166   */\n      tag_201\n        /* \"#utility.yul\":8159:8165   */\n      dup2\n        /* \"#utility.yul\":8151:8157   */\n      dup5\n        /* \"#utility.yul\":8145:8149   */\n      dup5\n        /* \"#utility.yul\":8101:8166   */\n      tag_100\n      jump\t// in\n    tag_201:\n        /* \"#utility.yul\":8036:8172   */\n      pop\n        /* \"#utility.yul\":7983:8172   */\n      pop\n      pop\n      jump\t// out\n        /* \"#utility.yul\":8178:8364   */\n    tag_103:\n        /* \"#utility.yul\":8238:8358   */\n    tag_203:\n        /* \"#utility.yul\":8255:8258   */\n      dup2\n        /* \"#utility.yul\":8248:8253   */\n      dup2\n        /* \"#utility.yul\":8245:8259   */\n      lt\n        /* \"#utility.yul\":8238:8358   */\n      iszero\n      tag_205\n      jumpi\n        /* \"#utility.yul\":8309:8348   */\n      tag_206\n        /* \"#utility.yul\":8346:8347   */\n      0x00\n        /* \"#utility.yul\":8339:8344   */\n      dup3\n        /* \"#utility.yul\":8309:8348   */\n      tag_102\n      jump\t// in\n    tag_206:\n        /* \"#utility.yul\":8282:8283   */\n      0x01\n        /* \"#utility.yul\":8275:8280   */\n      dup2\n        /* \"#utility.yul\":8271:8284   */\n      add\n        /* \"#utility.yul\":8262:8284   */\n      swap1\n      pop\n        /* \"#utility.yul\":8238:8358   */\n      jump(tag_203)\n    tag_205:\n        /* \"#utility.yul\":8178:8364   */\n      pop\n      pop\n      jump\t// out\n        /* \"#utility.yul\":8370:8913   */\n    tag_104:\n        /* \"#utility.yul\":8471:8473   */\n      0x1f\n        /* \"#utility.yul\":8466:8469   */\n      dup3\n        /* \"#utility.yul\":8463:8474   */\n      gt\n        /* \"#utility.yul\":8460:8906   */\n      iszero\n      tag_208\n      jumpi\n        /* \"#utility.yul\":8505:8543   */\n      tag_209\n        /* \"#utility.yul\":8537:8542   */\n      dup2\n        /* \"#utility.yul\":8505:8543   */\n      tag_93\n      jump\t// in\n    tag_209:\n        /* \"#utility.yul\":8589:8618   */\n      tag_210\n        /* \"#utility.yul\":8607:8617   */\n      dup5\n        /* \"#utility.yul\":8589:8618   */\n      tag_94\n      jump\t// in\n    tag_210:\n        /* \"#utility.yul\":8579:8587   */\n      dup2\n        /* \"#utility.yul\":8575:8619   */\n      add\n        /* \"#utility.yul\":8772:8774   */\n      0x20\n        /* \"#utility.yul\":8760:8770   */\n      dup6\n        /* \"#utility.yul\":8757:8775   */\n      lt\n        /* \"#utility.yul\":8754:8803   */\n      iszero\n      tag_211\n      jumpi\n        /* \"#utility.yul\":8793:8801   */\n      dup2\n        /* \"#utility.yul\":8778:8801   */\n      swap1\n      pop\n        /* \"#utility.yul\":8754:8803   */\n    tag_211:\n        /* \"#utility.yul\":8816:8896   */\n      tag_212\n        /* \"#utility.yul\":8872:8894   */\n      tag_213\n        /* \"#utility.yul\":8890:8893   */\n      dup6\n        /* \"#utility.yul\":8872:8894   */\n      tag_94\n      jump\t// in\n    tag_213:\n        /* \"#utility.yul\":8862:8870   */\n      dup4\n        /* \"#utility.yul\":8858:8895   */\n      add\n        /* \"#utility.yul\":8845:8856   */\n      dup3\n        /* \"#utility.yul\":8816:8896   */\n      tag_103\n      jump\t// in\n    tag_212:\n        /* \"#utility.yul\":8475:8906   */\n      pop\n      pop\n        /* \"#utility.yul\":8460:8906   */\n    tag_208:\n        /* \"#utility.yul\":8370:8913   */\n      pop\n      pop\n      pop\n      jump\t// out\n        /* \"#utility.yul\":8919:9036   */\n    tag_105:\n        /* \"#utility.yul\":8973:8981   */\n      0x00\n        /* \"#utility.yul\":9023:9028   */\n      dup3\n        /* \"#utility.yul\":9017:9021   */\n      dup3\n        /* \"#utility.yul\":9013:9029   */\n      shr\n        /* \"#utility.yul\":8992:9029   */\n      swap1\n      pop\n        /* \"#utility.yul\":8919:9036   */\n      swap3\n      swap2\n      pop\n      pop\n      jump\t// out\n        /* \"#utility.yul\":9042:9211   */\n    tag_106:\n        /* \"#utility.yul\":9086:9092   */\n      0x00\n        /* \"#utility.yul\":9119:9170   */\n      tag_216\n        /* \"#utility.yul\":9167:9168   */\n      0x00\n        /* \"#utility.yul\":9163:9169   */\n      not\n        /* \"#utility.yul\":9155:9160   */\n      dup5\n        /* \"#utility.yul\":9152:9153   */\n      0x08\n        /* \"#utility.yul\":9148:9161   */\n      mul\n        /* \"#utility.yul\":9119:9170   */\n      tag_105\n      jump\t// in\n    tag_216:\n        /* \"#utility.yul\":9115:9171   */\n      not\n        /* \"#utility.yul\":9200:9204   */\n      dup1\n        /* \"#utility.yul\":9194:9198   */\n      dup4\n        /* \"#utility.yul\":9190:9205   */\n      and\n        /* \"#utility.yul\":9180:9205   */\n      swap2\n      pop\n        /* \"#utility.yul\":9093:9211   */\n      pop\n        /* \"#utility.yul\":9042:9211   */\n      swap3\n      swap2\n      pop\n      pop\n      jump\t// out\n        /* \"#utility.yul\":9216:9511   */\n    tag_107:\n        /* \"#utility.yul\":9292:9296   */\n      0x00\n        /* \"#utility.yul\":9438:9467   */\n      tag_218\n        /* \"#utility.yul\":9463:9466   */\n      dup4\n        /* \"#utility.yul\":9457:9461   */\n      dup4\n        /* \"#utility.yul\":9438:9467   */\n      tag_106\n      jump\t// in\n    tag_218:\n        /* \"#utility.yul\":9430:9467   */\n      swap2\n      pop\n        /* \"#utility.yul\":9500:9503   */\n      dup3\n        /* \"#utility.yul\":9497:9498   */\n      0x02\n        /* \"#utility.yul\":9493:9504   */\n      mul\n        /* \"#utility.yul\":9487:9491   */\n      dup3\n        /* \"#utility.yul\":9484:9505   */\n      or\n        /* \"#utility.yul\":9476:9505   */\n      swap1\n      pop\n        /* \"#utility.yul\":9216:9511   */\n      swap3\n      swap2\n      pop\n      pop\n      jump\t// out\n        /* \"#utility.yul\":9516:10911   */\n    tag_69:\n        /* \"#utility.yul\":9633:9670   */\n      tag_220\n        /* \"#utility.yul\":9666:9669   */\n      dup3\n        /* \"#utility.yul\":9633:9670   */\n      tag_77\n      jump\t// in\n    tag_220:\n        /* \"#utility.yul\":9735:9753   */\n      0xffffffffffffffff\n        /* \"#utility.yul\":9727:9733   */\n      dup2\n        /* \"#utility.yul\":9724:9754   */\n      gt\n        /* \"#utility.yul\":9721:9777   */\n      iszero\n      tag_221\n      jumpi\n        /* \"#utility.yul\":9757:9775   */\n      tag_222\n      tag_84\n      jump\t// in\n    tag_222:\n        /* \"#utility.yul\":9721:9777   */\n    tag_221:\n        /* \"#utility.yul\":9801:9839   */\n      tag_223\n        /* \"#utility.yul\":9833:9837   */\n      dup3\n        /* \"#utility.yul\":9827:9838   */\n      sload\n        /* \"#utility.yul\":9801:9839   */\n      tag_44\n      jump\t// in\n    tag_223:\n        /* \"#utility.yul\":9886:9953   */\n      tag_224\n        /* \"#utility.yul\":9946:9952   */\n      dup3\n        /* \"#utility.yul\":9938:9944   */\n      dup3\n        /* \"#utility.yul\":9932:9936   */\n      dup6\n        /* \"#utility.yul\":9886:9953   */\n      tag_104\n      jump\t// in\n    tag_224:\n        /* \"#utility.yul\":9980:9981   */\n      0x00\n        /* \"#utility.yul\":10004:10008   */\n      0x20\n        /* \"#utility.yul\":9991:10008   */\n      swap1\n      pop\n        /* \"#utility.yul\":10036:10038   */\n      0x1f\n        /* \"#utility.yul\":10028:10034   */\n      dup4\n        /* \"#utility.yul\":10025:10039   */\n      gt\n        /* \"#utility.yul\":10053:10054   */\n      0x01\n        /* \"#utility.yul\":10048:10666   */\n      dup2\n      eq\n      tag_226\n      jumpi\n        /* \"#utility.yul\":10710:10711   */\n      0x00\n        /* \"#utility.yul\":10727:10733   */\n      dup5\n        /* \"#utility.yul\":10724:10801   */\n      iszero\n      tag_227\n      jumpi\n        /* \"#utility.yul\":10776:10785   */\n      dup3\n        /* \"#utility.yul\":10771:10774   */\n      dup8\n        /* \"#utility.yul\":10767:10786   */\n      add\n        /* \"#utility.yul\":10761:10787   */\n      mload\n        /* \"#utility.yul\":10752:10787   */\n      swap1\n      pop\n        /* \"#utility.yul\":10724:10801   */\n    tag_227:\n        /* \"#utility.yul\":10827:10894   */\n      tag_228\n        /* \"#utility.yul\":10887:10893   */\n      dup6\n        /* \"#utility.yul\":10880:10885   */\n      dup3\n        /* \"#utility.yul\":10827:10894   */\n      tag_107\n      jump\t// in\n    tag_228:\n        /* \"#utility.yul\":10821:10825   */\n      dup7\n        /* \"#utility.yul\":10814:10895   */\n      sstore\n        /* \"#utility.yul\":10683:10905   */\n      pop\n        /* \"#utility.yul\":10018:10905   */\n      jump(tag_225)\n        /* \"#utility.yul\":10048:10666   */\n    tag_226:\n        /* \"#utility.yul\":10100:10104   */\n      0x1f\n        /* \"#utility.yul\":10096:10105   */\n      not\n        /* \"#utility.yul\":10088:10094   */\n      dup5\n        /* \"#utility.yul\":10084:10106   */\n      and\n        /* \"#utility.yul\":10134:10171   */\n      tag_229\n        /* \"#utility.yul\":10166:10170   */\n      dup7\n        /* \"#utility.yul\":10134:10171   */\n      tag_93\n      jump\t// in\n    tag_229:\n        /* \"#utility.yul\":10193:10194   */\n      0x00\n        /* \"#utility.yul\":10207:10415   */\n    tag_230:\n        /* \"#utility.yul\":10221:10228   */\n      dup3\n        /* \"#utility.yul\":10218:10219   */\n      dup2\n        /* \"#utility.yul\":10215:10229   */\n      lt\n        /* \"#utility.yul\":10207:10415   */\n      iszero\n      tag_232\n      jumpi\n        /* \"#utility.yul\":10300:10309   */\n      dup5\n        /* \"#utility.yul\":10295:10298   */\n      dup10\n        /* \"#utility.yul\":10291:10310   */\n      add\n        /* \"#utility.yul\":10285:10311   */\n      mload\n        /* \"#utility.yul\":10277:10283   */\n      dup3\n        /* \"#utility.yul\":10270:10312   */\n      sstore\n        /* \"#utility.yul\":10351:10352   */\n      0x01\n        /* \"#utility.yul\":10343:10349   */\n      dup3\n        /* \"#utility.yul\":10339:10353   */\n      add\n        /* \"#utility.yul\":10329:10353   */\n      swap2\n      pop\n        /* \"#utility.yul\":10398:10400   */\n      0x20\n        /* \"#utility.yul\":10387:10396   */\n      dup6\n        /* \"#utility.yul\":10383:10401   */\n      add\n        /* \"#utility.yul\":10370:10401   */\n      swap5\n      pop\n        /* \"#utility.yul\":10244:10248   */\n      0x20\n        /* \"#utility.yul\":10241:10242   */\n      dup2\n        /* \"#utility.yul\":10237:10249   */\n      add\n        /* \"#utility.yul\":10232:10249   */\n      swap1\n      pop\n        /* \"#utility.yul\":10207:10415   */\n      jump(tag_230)\n    tag_232:\n        /* \"#utility.yul\":10443:10449   */\n      dup7\n        /* \"#utility.yul\":10434:10441   */\n      dup4\n        /* \"#utility.yul\":10431:10450   */\n      lt\n        /* \"#utility.yul\":10428:10607   */\n      iszero\n      tag_233\n      jumpi\n        /* \"#utility.yul\":10501:10510   */\n      dup5\n        /* \"#utility.yul\":10496:10499   */\n      dup10\n        /* \"#utility.yul\":10492:10511   */\n      add\n        /* \"#utility.yul\":10486:10512   */\n      mload\n        /* \"#utility.yul\":10544:10592   */\n      tag_234\n        /* \"#utility.yul\":10586:10590   */\n      0x1f\n        /* \"#utility.yul\":10578:10584   */\n      dup10\n        /* \"#utility.yul\":10574:10591   */\n      and\n        /* \"#utility.yul\":10563:10572   */\n      dup3\n        /* \"#utility.yul\":10544:10592   */\n      tag_106\n      jump\t// in\n    tag_234:\n        /* \"#utility.yul\":10536:10542   */\n      dup4\n        /* \"#utility.yul\":10529:10593   */\n      sstore\n        /* \"#utility.yul\":10451:10607   */\n      pop\n        /* \"#utility.yul\":10428:10607   */\n    tag_233:\n        /* \"#utility.yul\":10653:10654   */\n      0x01\n        /* \"#utility.yul\":10649:10650   */\n      0x02\n        /* \"#utility.yul\":10641:10647   */\n      dup9\n        /* \"#utility.yul\":10637:10651   */\n      mul\n        /* \"#utility.yul\":10633:10655   */\n      add\n        /* \"#utility.yul\":10627:10631   */\n      dup9\n        /* \"#utility.yul\":10620:10656   */\n      sstore\n        /* \"#utility.yul\":10055:10666   */\n      pop\n      pop\n      pop\n        /* \"#utility.yul\":10018:10905   */\n    tag_225:\n      pop\n        /* \"#utility.yul\":9608:10911   */\n      pop\n      pop\n      pop\n        /* \"#utility.yul\":9516:10911   */\n      pop\n      pop\n      jump\t// out\n\n    auxdata: 0xa26469706673582212209c73a54db223666e1148ca23ee9212799f77aea632807cadcba017ec606784a064736f6c634300081a0033\n}\n",
				"bytecode": {
					"linkReferences": {},
					"object": "6080604052348015600e575f80fd5b50610a108061001c5f395ff3fe608060405234801561000f575f80fd5b5060043610610060575f3560e01c80630121b93f146100645780630deb56ab146100805780633477ee2e1461009e57806335b8e820146100cf5780639a0e7d6614610100578063e23cec7b1461011e575b5f80fd5b61007e6004803603810190610079919061040d565b61013a565b005b610088610176565b6040516100959190610447565b60405180910390f35b6100b860048036038101906100b3919061040d565b610181565b6040516100c69291906104d0565b60405180910390f35b6100e960048036038101906100e4919061040d565b610235565b6040516100f79291906104d0565b60405180910390f35b610108610311565b6040516101159190610447565b60405180910390f35b6101386004803603810190610133919061062a565b610369565b005b60015f828154811061014f5761014e610684565b5b905f5260205f2090600202016001015f82825461016c91906106de565b9250508190555050565b5f8080549050905090565b5f818154811061018f575f80fd5b905f5260205f2090600202015f91509050805f0180546101ae9061073e565b80601f01602080910402602001604051908101604052809291908181526020018280546101da9061073e565b80156102255780601f106101fc57610100808354040283529160200191610225565b820191905f5260205f20905b81548152906001019060200180831161020857829003601f168201915b5050505050908060010154905082565b60605f805f848154811061024c5761024b610684565b5b905f5260205f2090600202016040518060400160405290815f820180546102729061073e565b80601f016020809104026020016040519081016040528092919081815260200182805461029e9061073e565b80156102e95780601f106102c0576101008083540402835291602001916102e9565b820191905f5260205f20905b8154815290600101906020018083116102cc57829003601f168201915b505050505081526020016001820154815250509050805f015181602001519250925050915091565b5f805f90505f5b5f80549050811015610361575f818154811061033757610336610684565b5b905f5260205f209060020201600101548261035291906106de565b91508080600101915050610318565b508091505090565b5f604051806040016040528084815260200183815250908060018154018082558091505060019003905f5260205f2090600202015f909190919091505f820151815f0190816103b8919061090b565b506020820151816001015550505050565b5f604051905090565b5f80fd5b5f80fd5b5f819050919050565b6103ec816103da565b81146103f6575f80fd5b50565b5f81359050610407816103e3565b92915050565b5f60208284031215610422576104216103d2565b5b5f61042f848285016103f9565b91505092915050565b610441816103da565b82525050565b5f60208201905061045a5f830184610438565b92915050565b5f81519050919050565b5f82825260208201905092915050565b8281835e5f83830152505050565b5f601f19601f8301169050919050565b5f6104a282610460565b6104ac818561046a565b93506104bc81856020860161047a565b6104c581610488565b840191505092915050565b5f6040820190508181035f8301526104e88185610498565b90506104f76020830184610438565b9392505050565b5f80fd5b5f80fd5b7f4e487b71000000000000000000000000000000000000000000000000000000005f52604160045260245ffd5b61053c82610488565b810181811067ffffffffffffffff8211171561055b5761055a610506565b5b80604052505050565b5f61056d6103c9565b90506105798282610533565b919050565b5f67ffffffffffffffff82111561059857610597610506565b5b6105a182610488565b9050602081019050919050565b828183375f83830152505050565b5f6105ce6105c98461057e565b610564565b9050828152602081018484840111156105ea576105e9610502565b5b6105f58482856105ae565b509392505050565b5f82601f830112610611576106106104fe565b5b81356106218482602086016105bc565b91505092915050565b5f80604083850312156106405761063f6103d2565b5b5f83013567ffffffffffffffff81111561065d5761065c6103d6565b5b610669858286016105fd565b925050602061067a858286016103f9565b9150509250929050565b7f4e487b71000000000000000000000000000000000000000000000000000000005f52603260045260245ffd5b7f4e487b71000000000000000000000000000000000000000000000000000000005f52601160045260245ffd5b5f6106e8826103da565b91506106f3836103da565b925082820190508082111561070b5761070a6106b1565b5b92915050565b7f4e487b71000000000000000000000000000000000000000000000000000000005f52602260045260245ffd5b5f600282049050600182168061075557607f821691505b60208210810361076857610767610711565b5b50919050565b5f819050815f5260205f209050919050565b5f6020601f8301049050919050565b5f82821b905092915050565b5f600883026107ca7fffffffffffffffffffffffffffffffffffffffffffffffffffffffffffffffff8261078f565b6107d4868361078f565b95508019841693508086168417925050509392505050565b5f819050919050565b5f61080f61080a610805846103da565b6107ec565b6103da565b9050919050565b5f819050919050565b610828836107f5565b61083c61083482610816565b84845461079b565b825550505050565b5f90565b610850610844565b61085b81848461081f565b505050565b5b8181101561087e576108735f82610848565b600181019050610861565b5050565b601f8211156108c3576108948161076e565b61089d84610780565b810160208510156108ac578190505b6108c06108b885610780565b830182610860565b50505b505050565b5f82821c905092915050565b5f6108e35f19846008026108c8565b1980831691505092915050565b5f6108fb83836108d4565b9150826002028217905092915050565b61091482610460565b67ffffffffffffffff81111561092d5761092c610506565b5b610937825461073e565b610942828285610882565b5f60209050601f831160018114610973575f8415610961578287015190505b61096b85826108f0565b8655506109d2565b601f1984166109818661076e565b5f5b828110156109a857848901518255600182019150602085019450602081019050610983565b868310156109c557848901516109c1601f8916826108d4565b8355505b6001600288020188555050505b50505050505056fea26469706673582212209c73a54db223666e1148ca23ee9212799f77aea632807cadcba017ec606784a064736f6c634300081a0033",
					"opcodes": "PUSH1 0x80 PUSH1 0x40 MSTORE CALLVALUE DUP1 ISZERO PUSH1 0xE JUMPI PUSH0 DUP1 REVERT JUMPDEST POP PUSH2 0xA10 DUP1 PUSH2 0x1C PUSH0 CODECOPY PUSH0 RETURN INVALID PUSH1 0x80 PUSH1 0x40 MSTORE CALLVALUE DUP1 ISZERO PUSH2 0xF JUMPI PUSH0 DUP1 REVERT JUMPDEST POP PUSH1 0x4 CALLDATASIZE LT PUSH2 0x60 JUMPI PUSH0 CALLDATALOAD PUSH1 0xE0 SHR DUP1 PUSH4 0x121B93F EQ PUSH2 0x64 JUMPI DUP1 PUSH4 0xDEB56AB EQ PUSH2 0x80 JUMPI DUP1 PUSH4 0x3477EE2E EQ PUSH2 0x9E JUMPI DUP1 PUSH4 0x35B8E820 EQ PUSH2 0xCF JUMPI DUP1 PUSH4 0x9A0E7D66 EQ PUSH2 0x100 JUMPI DUP1 PUSH4 0xE23CEC7B EQ PUSH2 0x11E JUMPI JUMPDEST PUSH0 DUP1 REVERT JUMPDEST PUSH2 0x7E PUSH1 0x4 DUP1 CALLDATASIZE SUB DUP2 ADD SWAP1 PUSH2 0x79 SWAP2 SWAP1 PUSH2 0x40D JUMP JUMPDEST PUSH2 0x13A JUMP JUMPDEST STOP JUMPDEST PUSH2 0x88 PUSH2 0x176 JUMP JUMPDEST PUSH1 0x40 MLOAD PUSH2 0x95 SWAP2 SWAP1 PUSH2 0x447 JUMP JUMPDEST PUSH1 0x40 MLOAD DUP1 SWAP2 SUB SWAP1 RETURN JUMPDEST PUSH2 0xB8 PUSH1 0x4 DUP1 CALLDATASIZE SUB DUP2 ADD SWAP1 PUSH2 0xB3 SWAP2 SWAP1 PUSH2 0x40D JUMP JUMPDEST PUSH2 0x181 JUMP JUMPDEST PUSH1 0x40 MLOAD PUSH2 0xC6 SWAP3 SWAP2 SWAP1 PUSH2 0x4D0 JUMP JUMPDEST PUSH1 0x40 MLOAD DUP1 SWAP2 SUB SWAP1 RETURN JUMPDEST PUSH2 0xE9 PUSH1 0x4 DUP1 CALLDATASIZE SUB DUP2 ADD SWAP1 PUSH2 0xE4 SWAP2 SWAP1 PUSH2 0x40D JUMP JUMPDEST PUSH2 0x235 JUMP JUMPDEST PUSH1 0x40 MLOAD PUSH2 0xF7 SWAP3 SWAP2 SWAP1 PUSH2 0x4D0 JUMP JUMPDEST PUSH1 0x40 MLOAD DUP1 SWAP2 SUB SWAP1 RETURN JUMPDEST PUSH2 0x108 PUSH2 0x311 JUMP JUMPDEST PUSH1 0x40 MLOAD PUSH2 0x115 SWAP2 SWAP1 PUSH2 0x447 JUMP JUMPDEST PUSH1 0x40 MLOAD DUP1 SWAP2 SUB SWAP1 RETURN JUMPDEST PUSH2 0x138 PUSH1 0x4 DUP1 CALLDATASIZE SUB DUP2 ADD SWAP1 PUSH2 0x133 SWAP2 SWAP1 PUSH2 0x62A JUMP JUMPDEST PUSH2 0x369 JUMP JUMPDEST STOP JUMPDEST PUSH1 0x1 PUSH0 DUP3 DUP2 SLOAD DUP2 LT PUSH2 0x14F JUMPI PUSH2 0x14E PUSH2 0x684 JUMP JUMPDEST JUMPDEST SWAP1 PUSH0 MSTORE PUSH1 0x20 PUSH0 KECCAK256 SWAP1 PUSH1 0x2 MUL ADD PUSH1 0x1 ADD PUSH0 DUP3 DUP3 SLOAD PUSH2 0x16C SWAP2 SWAP1 PUSH2 0x6DE JUMP JUMPDEST SWAP3 POP POP DUP2 SWAP1 SSTORE POP POP JUMP JUMPDEST PUSH0 DUP1 DUP1 SLOAD SWAP1 POP SWAP1 POP SWAP1 JUMP JUMPDEST PUSH0 DUP2 DUP2 SLOAD DUP2 LT PUSH2 0x18F JUMPI PUSH0 DUP1 REVERT JUMPDEST SWAP1 PUSH0 MSTORE PUSH1 0x20 PUSH0 KECCAK256 SWAP1 PUSH1 0x2 MUL ADD PUSH0 SWAP2 POP SWAP1 POP DUP1 PUSH0 ADD DUP1 SLOAD PUSH2 0x1AE SWAP1 PUSH2 0x73E JUMP JUMPDEST DUP1 PUSH1 0x1F ADD PUSH1 0x20 DUP1 SWAP2 DIV MUL PUSH1 0x20 ADD PUSH1 0x40 MLOAD SWAP1 DUP2 ADD PUSH1 0x40 MSTORE DUP1 SWAP3 SWAP2 SWAP1 DUP2 DUP2 MSTORE PUSH1 0x20 ADD DUP3 DUP1 SLOAD PUSH2 0x1DA SWAP1 PUSH2 0x73E JUMP JUMPDEST DUP1 ISZERO PUSH2 0x225 JUMPI DUP1 PUSH1 0x1F LT PUSH2 0x1FC JUMPI PUSH2 0x100 DUP1 DUP4 SLOAD DIV MUL DUP4 MSTORE SWAP2 PUSH1 0x20 ADD SWAP2 PUSH2 0x225 JUMP JUMPDEST DUP3 ADD SWAP2 SWAP1 PUSH0 MSTORE PUSH1 0x20 PUSH0 KECCAK256 SWAP1 JUMPDEST DUP2 SLOAD DUP2 MSTORE SWAP1 PUSH1 0x1 ADD SWAP1 PUSH1 0x20 ADD DUP1 DUP4 GT PUSH2 0x208 JUMPI DUP3 SWAP1 SUB PUSH1 0x1F AND DUP3 ADD SWAP2 JUMPDEST POP POP POP POP POP SWAP1 DUP1 PUSH1 0x1 ADD SLOAD SWAP1 POP DUP3 JUMP JUMPDEST PUSH1 0x60 PUSH0 DUP1 PUSH0 DUP5 DUP2 SLOAD DUP2 LT PUSH2 0x24C JUMPI PUSH2 0x24B PUSH2 0x684 JUMP JUMPDEST JUMPDEST SWAP1 PUSH0 MSTORE PUSH1 0x20 PUSH0 KECCAK256 SWAP1 PUSH1 0x2 MUL ADD PUSH1 0x40 MLOAD DUP1 PUSH1 0x40 ADD PUSH1 0x40 MSTORE SWAP1 DUP2 PUSH0 DUP3 ADD DUP1 SLOAD PUSH2 0x272 SWAP1 PUSH2 0x73E JUMP JUMPDEST DUP1 PUSH1 0x1F ADD PUSH1 0x20 DUP1 SWAP2 DIV MUL PUSH1 0x20 ADD PUSH1 0x40 MLOAD SWAP1 DUP2 ADD PUSH1 0x40 MSTORE DUP1 SWAP3 SWAP2 SWAP1 DUP2 DUP2 MSTORE PUSH1 0x20 ADD DUP3 DUP1 SLOAD PUSH2 0x29E SWAP1 PUSH2 0x73E JUMP JUMPDEST DUP1 ISZERO PUSH2 0x2E9 JUMPI DUP1 PUSH1 0x1F LT PUSH2 0x2C0 JUMPI PUSH2 0x100 DUP1 DUP4 SLOAD DIV MUL DUP4 MSTORE SWAP2 PUSH1 0x20 ADD SWAP2 PUSH2 0x2E9 JUMP JUMPDEST DUP3 ADD SWAP2 SWAP1 PUSH0 MSTORE PUSH1 0x20 PUSH0 KECCAK256 SWAP1 JUMPDEST DUP2 SLOAD DUP2 MSTORE SWAP1 PUSH1 0x1 ADD SWAP1 PUSH1 0x20 ADD DUP1 DUP4 GT PUSH2 0x2CC JUMPI DUP3 SWAP1 SUB PUSH1 0x1F AND DUP3 ADD SWAP2 JUMPDEST POP POP POP POP POP DUP2 MSTORE PUSH1 0x20 ADD PUSH1 0x1 DUP3 ADD SLOAD DUP2 MSTORE POP POP SWAP1 POP DUP1 PUSH0 ADD MLOAD DUP2 PUSH1 0x20 ADD MLOAD SWAP3 POP SWAP3 POP POP SWAP2 POP SWAP2 JUMP JUMPDEST PUSH0 DUP1 PUSH0 SWAP1 POP PUSH0 JUMPDEST PUSH0 DUP1 SLOAD SWAP1 POP DUP2 LT ISZERO PUSH2 0x361 JUMPI PUSH0 DUP2 DUP2 SLOAD DUP2 LT PUSH2 0x337 JUMPI PUSH2 0x336 PUSH2 0x684 JUMP JUMPDEST JUMPDEST SWAP1 PUSH0 MSTORE PUSH1 0x20 PUSH0 KECCAK256 SWAP1 PUSH1 0x2 MUL ADD PUSH1 0x1 ADD SLOAD DUP3 PUSH2 0x352 SWAP2 SWAP1 PUSH2 0x6DE JUMP JUMPDEST SWAP2 POP DUP1 DUP1 PUSH1 0x1 ADD SWAP2 POP POP PUSH2 0x318 JUMP JUMPDEST POP DUP1 SWAP2 POP POP SWAP1 JUMP JUMPDEST PUSH0 PUSH1 0x40 MLOAD DUP1 PUSH1 0x40 ADD PUSH1 0x40 MSTORE DUP1 DUP5 DUP2 MSTORE PUSH1 0x20 ADD DUP4 DUP2 MSTORE POP SWAP1 DUP1 PUSH1 0x1 DUP2 SLOAD ADD DUP1 DUP3 SSTORE DUP1 SWAP2 POP POP PUSH1 0x1 SWAP1 SUB SWAP1 PUSH0 MSTORE PUSH1 0x20 PUSH0 KECCAK256 SWAP1 PUSH1 0x2 MUL ADD PUSH0 SWAP1 SWAP2 SWAP1 SWAP2 SWAP1 SWAP2 POP PUSH0 DUP3 ADD MLOAD DUP2 PUSH0 ADD SWAP1 DUP2 PUSH2 0x3B8 SWAP2 SWAP1 PUSH2 0x90B JUMP JUMPDEST POP PUSH1 0x20 DUP3 ADD MLOAD DUP2 PUSH1 0x1 ADD SSTORE POP POP POP POP JUMP JUMPDEST PUSH0 PUSH1 0x40 MLOAD SWAP1 POP SWAP1 JUMP JUMPDEST PUSH0 DUP1 REVERT JUMPDEST PUSH0 DUP1 REVERT JUMPDEST PUSH0 DUP2 SWAP1 POP SWAP2 SWAP1 POP JUMP JUMPDEST PUSH2 0x3EC DUP2 PUSH2 0x3DA JUMP JUMPDEST DUP2 EQ PUSH2 0x3F6 JUMPI PUSH0 DUP1 REVERT JUMPDEST POP JUMP JUMPDEST PUSH0 DUP2 CALLDATALOAD SWAP1 POP PUSH2 0x407 DUP2 PUSH2 0x3E3 JUMP JUMPDEST SWAP3 SWAP2 POP POP JUMP JUMPDEST PUSH0 PUSH1 0x20 DUP3 DUP5 SUB SLT ISZERO PUSH2 0x422 JUMPI PUSH2 0x421 PUSH2 0x3D2 JUMP JUMPDEST JUMPDEST PUSH0 PUSH2 0x42F DUP5 DUP3 DUP6 ADD PUSH2 0x3F9 JUMP JUMPDEST SWAP2 POP POP SWAP3 SWAP2 POP POP JUMP JUMPDEST PUSH2 0x441 DUP2 PUSH2 0x3DA JUMP JUMPDEST DUP3 MSTORE POP POP JUMP JUMPDEST PUSH0 PUSH1 0x20 DUP3 ADD SWAP1 POP PUSH2 0x45A PUSH0 DUP4 ADD DUP5 PUSH2 0x438 JUMP JUMPDEST SWAP3 SWAP2 POP POP JUMP JUMPDEST PUSH0 DUP2 MLOAD SWAP1 POP SWAP2 SWAP1 POP JUMP JUMPDEST PUSH0 DUP3 DUP3 MSTORE PUSH1 0x20 DUP3 ADD SWAP1 POP SWAP3 SWAP2 POP POP JUMP JUMPDEST DUP3 DUP2 DUP4 MCOPY PUSH0 DUP4 DUP4 ADD MSTORE POP POP POP JUMP JUMPDEST PUSH0 PUSH1 0x1F NOT PUSH1 0x1F DUP4 ADD AND SWAP1 POP SWAP2 SWAP1 POP JUMP JUMPDEST PUSH0 PUSH2 0x4A2 DUP3 PUSH2 0x460 JUMP JUMPDEST PUSH2 0x4AC DUP2 DUP6 PUSH2 0x46A JUMP JUMPDEST SWAP4 POP PUSH2 0x4BC DUP2 DUP6 PUSH1 0x20 DUP7 ADD PUSH2 0x47A JUMP JUMPDEST PUSH2 0x4C5 DUP2 PUSH2 0x488 JUMP JUMPDEST DUP5 ADD SWAP2 POP POP SWAP3 SWAP2 POP POP JUMP JUMPDEST PUSH0 PUSH1 0x40 DUP3 ADD SWAP1 POP DUP2 DUP2 SUB PUSH0 DUP4 ADD MSTORE PUSH2 0x4E8 DUP2 DUP6 PUSH2 0x498 JUMP JUMPDEST SWAP1 POP PUSH2 0x4F7 PUSH1 0x20 DUP4 ADD DUP5 PUSH2 0x438 JUMP JUMPDEST SWAP4 SWAP3 POP POP POP JUMP JUMPDEST PUSH0 DUP1 REVERT JUMPDEST PUSH0 DUP1 REVERT JUMPDEST PUSH32 0x4E487B7100000000000000000000000000000000000000000000000000000000 PUSH0 MSTORE PUSH1 0x41 PUSH1 0x4 MSTORE PUSH1 0x24 PUSH0 REVERT JUMPDEST PUSH2 0x53C DUP3 PUSH2 0x488 JUMP JUMPDEST DUP2 ADD DUP2 DUP2 LT PUSH8 0xFFFFFFFFFFFFFFFF DUP3 GT OR ISZERO PUSH2 0x55B JUMPI PUSH2 0x55A PUSH2 0x506 JUMP JUMPDEST JUMPDEST DUP1 PUSH1 0x40 MSTORE POP POP POP JUMP JUMPDEST PUSH0 PUSH2 0x56D PUSH2 0x3C9 JUMP JUMPDEST SWAP1 POP PUSH2 0x579 DUP3 DUP3 PUSH2 0x533 JUMP JUMPDEST SWAP2 SWAP1 POP JUMP JUMPDEST PUSH0 PUSH8 0xFFFFFFFFFFFFFFFF DUP3 GT ISZERO PUSH2 0x598 JUMPI PUSH2 0x597 PUSH2 0x506 JUMP JUMPDEST JUMPDEST PUSH2 0x5A1 DUP3 PUSH2 0x488 JUMP JUMPDEST SWAP1 POP PUSH1 0x20 DUP2 ADD SWAP1 POP SWAP2 SWAP1 POP JUMP JUMPDEST DUP3 DUP2 DUP4 CALLDATACOPY PUSH0 DUP4 DUP4 ADD MSTORE POP POP POP JUMP JUMPDEST PUSH0 PUSH2 0x5CE PUSH2 0x5C9 DUP5 PUSH2 0x57E JUMP JUMPDEST PUSH2 0x564 JUMP JUMPDEST SWAP1 POP DUP3 DUP2 MSTORE PUSH1 0x20 DUP2 ADD DUP5 DUP5 DUP5 ADD GT ISZERO PUSH2 0x5EA JUMPI PUSH2 0x5E9 PUSH2 0x502 JUMP JUMPDEST JUMPDEST PUSH2 0x5F5 DUP5 DUP3 DUP6 PUSH2 0x5AE JUMP JUMPDEST POP SWAP4 SWAP3 POP POP POP JUMP JUMPDEST PUSH0 DUP3 PUSH1 0x1F DUP4 ADD SLT PUSH2 0x611 JUMPI PUSH2 0x610 PUSH2 0x4FE JUMP JUMPDEST JUMPDEST DUP2 CALLDATALOAD PUSH2 0x621 DUP5 DUP3 PUSH1 0x20 DUP7 ADD PUSH2 0x5BC JUMP JUMPDEST SWAP2 POP POP SWAP3 SWAP2 POP POP JUMP JUMPDEST PUSH0 DUP1 PUSH1 0x40 DUP4 DUP6 SUB SLT ISZERO PUSH2 0x640 JUMPI PUSH2 0x63F PUSH2 0x3D2 JUMP JUMPDEST JUMPDEST PUSH0 DUP4 ADD CALLDATALOAD PUSH8 0xFFFFFFFFFFFFFFFF DUP2 GT ISZERO PUSH2 0x65D JUMPI PUSH2 0x65C PUSH2 0x3D6 JUMP JUMPDEST JUMPDEST PUSH2 0x669 DUP6 DUP3 DUP7 ADD PUSH2 0x5FD JUMP JUMPDEST SWAP3 POP POP PUSH1 0x20 PUSH2 0x67A DUP6 DUP3 DUP7 ADD PUSH2 0x3F9 JUMP JUMPDEST SWAP2 POP POP SWAP3 POP SWAP3 SWAP1 POP JUMP JUMPDEST PUSH32 0x4E487B7100000000000000000000000000000000000000000000000000000000 PUSH0 MSTORE PUSH1 0x32 PUSH1 0x4 MSTORE PUSH1 0x24 PUSH0 REVERT JUMPDEST PUSH32 0x4E487B7100000000000000000000000000000000000000000000000000000000 PUSH0 MSTORE PUSH1 0x11 PUSH1 0x4 MSTORE PUSH1 0x24 PUSH0 REVERT JUMPDEST PUSH0 PUSH2 0x6E8 DUP3 PUSH2 0x3DA JUMP JUMPDEST SWAP2 POP PUSH2 0x6F3 DUP4 PUSH2 0x3DA JUMP JUMPDEST SWAP3 POP DUP3 DUP3 ADD SWAP1 POP DUP1 DUP3 GT ISZERO PUSH2 0x70B JUMPI PUSH2 0x70A PUSH2 0x6B1 JUMP JUMPDEST JUMPDEST SWAP3 SWAP2 POP POP JUMP JUMPDEST PUSH32 0x4E487B7100000000000000000000000000000000000000000000000000000000 PUSH0 MSTORE PUSH1 0x22 PUSH1 0x4 MSTORE PUSH1 0x24 PUSH0 REVERT JUMPDEST PUSH0 PUSH1 0x2 DUP3 DIV SWAP1 POP PUSH1 0x1 DUP3 AND DUP1 PUSH2 0x755 JUMPI PUSH1 0x7F DUP3 AND SWAP2 POP JUMPDEST PUSH1 0x20 DUP3 LT DUP2 SUB PUSH2 0x768 JUMPI PUSH2 0x767 PUSH2 0x711 JUMP JUMPDEST JUMPDEST POP SWAP2 SWAP1 POP JUMP JUMPDEST PUSH0 DUP2 SWAP1 POP DUP2 PUSH0 MSTORE PUSH1 0x20 PUSH0 KECCAK256 SWAP1 POP SWAP2 SWAP1 POP JUMP JUMPDEST PUSH0 PUSH1 0x20 PUSH1 0x1F DUP4 ADD DIV SWAP1 POP SWAP2 SWAP1 POP JUMP JUMPDEST PUSH0 DUP3 DUP3 SHL SWAP1 POP SWAP3 SWAP2 POP POP JUMP JUMPDEST PUSH0 PUSH1 0x8 DUP4 MUL PUSH2 0x7CA PUSH32 0xFFFFFFFFFFFFFFFFFFFFFFFFFFFFFFFFFFFFFFFFFFFFFFFFFFFFFFFFFFFFFFFF DUP3 PUSH2 0x78F JUMP JUMPDEST PUSH2 0x7D4 DUP7 DUP4 PUSH2 0x78F JUMP JUMPDEST SWAP6 POP DUP1 NOT DUP5 AND SWAP4 POP DUP1 DUP7 AND DUP5 OR SWAP3 POP POP POP SWAP4 SWAP3 POP POP POP JUMP JUMPDEST PUSH0 DUP2 SWAP1 POP SWAP2 SWAP1 POP JUMP JUMPDEST PUSH0 PUSH2 0x80F PUSH2 0x80A PUSH2 0x805 DUP5 PUSH2 0x3DA JUMP JUMPDEST PUSH2 0x7EC JUMP JUMPDEST PUSH2 0x3DA JUMP JUMPDEST SWAP1 POP SWAP2 SWAP1 POP JUMP JUMPDEST PUSH0 DUP2 SWAP1 POP SWAP2 SWAP1 POP JUMP JUMPDEST PUSH2 0x828 DUP4 PUSH2 0x7F5 JUMP JUMPDEST PUSH2 0x83C PUSH2 0x834 DUP3 PUSH2 0x816 JUMP JUMPDEST DUP5 DUP5 SLOAD PUSH2 0x79B JUMP JUMPDEST DUP3 SSTORE POP POP POP POP JUMP JUMPDEST PUSH0 SWAP1 JUMP JUMPDEST PUSH2 0x850 PUSH2 0x844 JUMP JUMPDEST PUSH2 0x85B DUP2 DUP5 DUP5 PUSH2 0x81F JUMP JUMPDEST POP POP POP JUMP JUMPDEST JUMPDEST DUP2 DUP2 LT ISZERO PUSH2 0x87E JUMPI PUSH2 0x873 PUSH0 DUP3 PUSH2 0x848 JUMP JUMPDEST PUSH1 0x1 DUP2 ADD SWAP1 POP PUSH2 0x861 JUMP JUMPDEST POP POP JUMP JUMPDEST PUSH1 0x1F DUP3 GT ISZERO PUSH2 0x8C3 JUMPI PUSH2 0x894 DUP2 PUSH2 0x76E JUMP JUMPDEST PUSH2 0x89D DUP5 PUSH2 0x780 JUMP JUMPDEST DUP2 ADD PUSH1 0x20 DUP6 LT ISZERO PUSH2 0x8AC JUMPI DUP2 SWAP1 POP JUMPDEST PUSH2 0x8C0 PUSH2 0x8B8 DUP6 PUSH2 0x780 JUMP JUMPDEST DUP4 ADD DUP3 PUSH2 0x860 JUMP JUMPDEST POP POP JUMPDEST POP POP POP JUMP JUMPDEST PUSH0 DUP3 DUP3 SHR SWAP1 POP SWAP3 SWAP2 POP POP JUMP JUMPDEST PUSH0 PUSH2 0x8E3 PUSH0 NOT DUP5 PUSH1 0x8 MUL PUSH2 0x8C8 JUMP JUMPDEST NOT DUP1 DUP4 AND SWAP2 POP POP SWAP3 SWAP2 POP POP JUMP JUMPDEST PUSH0 PUSH2 0x8FB DUP4 DUP4 PUSH2 0x8D4 JUMP JUMPDEST SWAP2 POP DUP3 PUSH1 0x2 MUL DUP3 OR SWAP1 POP SWAP3 SWAP2 POP POP JUMP JUMPDEST PUSH2 0x914 DUP3 PUSH2 0x460 JUMP JUMPDEST PUSH8 0xFFFFFFFFFFFFFFFF DUP2 GT ISZERO PUSH2 0x92D JUMPI PUSH2 0x92C PUSH2 0x506 JUMP JUMPDEST JUMPDEST PUSH2 0x937 DUP3 SLOAD PUSH2 0x73E JUMP JUMPDEST PUSH2 0x942 DUP3 DUP3 DUP6 PUSH2 0x882 JUMP JUMPDEST PUSH0 PUSH1 0x20 SWAP1 POP PUSH1 0x1F DUP4 GT PUSH1 0x1 DUP2 EQ PUSH2 0x973 JUMPI PUSH0 DUP5 ISZERO PUSH2 0x961 JUMPI DUP3 DUP8 ADD MLOAD SWAP1 POP JUMPDEST PUSH2 0x96B DUP6 DUP3 PUSH2 0x8F0 JUMP JUMPDEST DUP7 SSTORE POP PUSH2 0x9D2 JUMP JUMPDEST PUSH1 0x1F NOT DUP5 AND PUSH2 0x981 DUP7 PUSH2 0x76E JUMP JUMPDEST PUSH0 JUMPDEST DUP3 DUP2 LT ISZERO PUSH2 0x9A8 JUMPI DUP5 DUP10 ADD MLOAD DUP3 SSTORE PUSH1 0x1 DUP3 ADD SWAP2 POP PUSH1 0x20 DUP6 ADD SWAP5 POP PUSH1 0x20 DUP2 ADD SWAP1 POP PUSH2 0x983 JUMP JUMPDEST DUP7 DUP4 LT ISZERO PUSH2 0x9C5 JUMPI DUP5 DUP10 ADD MLOAD PUSH2 0x9C1 PUSH1 0x1F DUP10 AND DUP3 PUSH2 0x8D4 JUMP JUMPDEST DUP4 SSTORE POP JUMPDEST PUSH1 0x1 PUSH1 0x2 DUP9 MUL ADD DUP9 SSTORE POP POP POP JUMPDEST POP POP POP POP POP POP JUMP INVALID LOG2 PUSH5 0x6970667358 0x22 SLT KECCAK256 SWAP13 PUSH20 0xA54DB223666E1148CA23EE9212799F77AEA63280 PUSH29 0xADCBA017EC606784A064736F6C634300081A0033000000000000000000 "
				},
				"gasEstimates": {
					"creation": {
						"codeDepositCost": "515200",
						"executionCost": "547",
						"totalCost": "515747"
					},
					"external": {
						"addCandidate(string,uint256)": "infinite",
						"candidates(uint256)": "infinite",
						"getCandidate(uint256)": "infinite",
						"getTotalCandidates()": "2440",
						"getTotalVotes()": "infinite",
						"vote(uint256)": "infinite"
					}
				},
				"methodIdentifiers": {
					"addCandidate(string,uint256)": "e23cec7b",
					"candidates(uint256)": "3477ee2e",
					"getCandidate(uint256)": "35b8e820",
					"getTotalCandidates()": "0deb56ab",
					"getTotalVotes()": "9a0e7d66",
					"vote(uint256)": "0121b93f"
				}
			},
			"storageLayout": {
				"storage": [
					{
						"astId": 10,
						"contract": "Assignments/program-19.sol:Voting",
						"label": "candidates",
						"offset": 0,
						"slot": "0",
						"type": "t_array(t_struct(Candidate)6_storage)dyn_storage"
					}
				],
				"types": {
					"t_array(t_struct(Candidate)6_storage)dyn_storage": {
						"base": "t_struct(Candidate)6_storage",
						"encoding": "dynamic_array",
						"label": "struct Voting.Candidate[]",
						"numberOfBytes": "32"
					},
					"t_string_storage": {
						"encoding": "bytes",
						"label": "string",
						"numberOfBytes": "32"
					},
					"t_struct(Candidate)6_storage": {
						"encoding": "inplace",
						"label": "struct Voting.Candidate",
						"members": [
							{
								"astId": 3,
								"contract": "Assignments/program-19.sol:Voting",
								"label": "name",
								"offset": 0,
								"slot": "0",
								"type": "t_string_storage"
							},
							{
								"astId": 5,
								"contract": "Assignments/program-19.sol:Voting",
								"label": "votes",
								"offset": 0,
								"slot": "1",
								"type": "t_uint256"
							}
						],
						"numberOfBytes": "64"
					},
					"t_uint256": {
						"encoding": "inplace",
						"label": "uint256",
						"numberOfBytes": "32"
					}
				}
			},
			"userdoc": {
				"kind": "user",
				"methods": {},
				"version": 1
			}
		}
	}
}