{
	"Assignments/CP3-Q1.sol": {
		"ManageStudents": {
			"abi": [
				{
					"inputs": [
						{
							"internalType": "string",
							"name": "_name",
							"type": "string"
						},
						{
							"internalType": "uint256",
							"name": "_age",
							"type": "uint256"
						},
						{
							"internalType": "bool",
							"name": "_isEnrolled",
							"type": "bool"
						}
					],
					"name": "addStudent",
					"outputs": [],
					"stateMutability": "nonpayable",
					"type": "function"
				},
				{
					"inputs": [
						{
							"internalType": "uint256",
							"name": "_index",
							"type": "uint256"
						}
					],
					"name": "getStudent",
					"outputs": [
						{
							"internalType": "string",
							"name": "",
							"type": "string"
						},
						{
							"internalType": "uint256",
							"name": "",
							"type": "uint256"
						},
						{
							"internalType": "bool",
							"name": "",
							"type": "bool"
						}
					],
					"stateMutability": "view",
					"type": "function"
				},
				{
					"inputs": [
						{
							"internalType": "uint256",
							"name": "",
							"type": "uint256"
						}
					],
					"name": "student",
					"outputs": [
						{
							"internalType": "string",
							"name": "name",
							"type": "string"
						},
						{
							"internalType": "uint256",
							"name": "age",
							"type": "uint256"
						},
						{
							"internalType": "bool",
							"name": "isEnrolled",
							"type": "bool"
						}
					],
					"stateMutability": "view",
					"type": "function"
				}
			],
			"devdoc": {
				"kind": "dev",
				"methods": {},
				"version": 1
			},
			"evm": {
				"assembly": "    /* \"Assignments/CP3-Q1.sol\":62:762  contract ManageStudents{... */\n  mstore(0x40, 0x80)\n  callvalue\n  dup1\n  iszero\n  tag_1\n  jumpi\n  0x00\n  dup1\n  revert\ntag_1:\n  pop\n  dataSize(sub_0)\n  dup1\n  dataOffset(sub_0)\n  0x00\n  codecopy\n  0x00\n  return\nstop\n\nsub_0: assembly {\n        /* \"Assignments/CP3-Q1.sol\":62:762  contract ManageStudents{... */\n      mstore(0x40, 0x80)\n      callvalue\n      dup1\n      iszero\n      tag_1\n      jumpi\n      0x00\n      dup1\n      revert\n    tag_1:\n      pop\n      jumpi(tag_2, lt(calldatasize, 0x04))\n      shr(0xe0, calldataload(0x00))\n      dup1\n      0x1dfc2962\n      eq\n      tag_3\n      jumpi\n      dup1\n      0x35f34232\n      eq\n      tag_4\n      jumpi\n      dup1\n      0x642f9163\n      eq\n      tag_5\n      jumpi\n    tag_2:\n      0x00\n      dup1\n      revert\n        /* \"Assignments/CP3-Q1.sol\":218:547  function addStudent(string memory _name, uint _age, bool _isEnrolled) public{... */\n    tag_3:\n      tag_6\n      0x04\n      dup1\n      calldatasize\n      sub\n      dup2\n      add\n      swap1\n      tag_7\n      swap2\n      swap1\n      tag_8\n      jump\t// in\n    tag_7:\n      tag_9\n      jump\t// in\n    tag_6:\n      stop\n        /* \"Assignments/CP3-Q1.sol\":187:211  Student[] public student */\n    tag_4:\n      tag_10\n      0x04\n      dup1\n      calldatasize\n      sub\n      dup2\n      add\n      swap1\n      tag_11\n      swap2\n      swap1\n      tag_12\n      jump\t// in\n    tag_11:\n      tag_13\n      jump\t// in\n    tag_10:\n      mload(0x40)\n      tag_14\n      swap4\n      swap3\n      swap2\n      swap1\n      tag_15\n      jump\t// in\n    tag_14:\n      mload(0x40)\n      dup1\n      swap2\n      sub\n      swap1\n      return\n        /* \"Assignments/CP3-Q1.sol\":553:759  function getStudent(uint _index)public view returns(string memory, uint, bool){... */\n    tag_5:\n      tag_16\n      0x04\n      dup1\n      calldatasize\n      sub\n      dup2\n      add\n      swap1\n      tag_17\n      swap2\n      swap1\n      tag_12\n      jump\t// in\n    tag_17:\n      tag_18\n      jump\t// in\n    tag_16:\n      mload(0x40)\n      tag_19\n      swap4\n      swap3\n      swap2\n      swap1\n      tag_15\n      jump\t// in\n    tag_19:\n      mload(0x40)\n      dup1\n      swap2\n      sub\n      swap1\n      return\n        /* \"Assignments/CP3-Q1.sol\":218:547  function addStudent(string memory _name, uint _age, bool _isEnrolled) public{... */\n    tag_9:\n        /* \"Assignments/CP3-Q1.sol\":321:323  18 */\n      0x12\n        /* \"Assignments/CP3-Q1.sol\":313:317  _age */\n      dup3\n        /* \"Assignments/CP3-Q1.sol\":313:323  _age >= 18 */\n      lt\n      iszero\n        /* \"Assignments/CP3-Q1.sol\":305:366  require(_age >= 18, \"students must be at least 18 years old\") */\n      tag_21\n      jumpi\n      mload(0x40)\n      0x08c379a000000000000000000000000000000000000000000000000000000000\n      dup2\n      mstore\n      0x04\n      add\n      tag_22\n      swap1\n      tag_23\n      jump\t// in\n    tag_22:\n      mload(0x40)\n      dup1\n      swap2\n      sub\n      swap1\n      revert\n    tag_21:\n        /* \"Assignments/CP3-Q1.sol\":433:454  abi.encodePacked(\" \") */\n      add(0x20, mload(0x40))\n      tag_24\n      swap1\n      tag_25\n      jump\t// in\n    tag_24:\n      mload(0x40)\n      0x20\n      dup2\n      dup4\n      sub\n      sub\n      dup2\n      mstore\n      swap1\n      0x40\n      mstore\n        /* \"Assignments/CP3-Q1.sol\":423:455  keccak256(abi.encodePacked(\" \")) */\n      dup1\n      mload\n      swap1\n      0x20\n      add\n      keccak256\n        /* \"Assignments/CP3-Q1.sol\":412:417  _name */\n      dup4\n        /* \"Assignments/CP3-Q1.sol\":395:418  abi.encodePacked(_name) */\n      add(0x20, mload(0x40))\n      tag_26\n      swap2\n      swap1\n      tag_27\n      jump\t// in\n    tag_26:\n      mload(0x40)\n      0x20\n      dup2\n      dup4\n      sub\n      sub\n      dup2\n      mstore\n      swap1\n      0x40\n      mstore\n        /* \"Assignments/CP3-Q1.sol\":385:419  keccak256(abi.encodePacked(_name)) */\n      dup1\n      mload\n      swap1\n      0x20\n      add\n      keccak256\n        /* \"Assignments/CP3-Q1.sol\":385:455  keccak256(abi.encodePacked(_name)) != keccak256(abi.encodePacked(\" \")) */\n      sub\n        /* \"Assignments/CP3-Q1.sol\":377:480  require(keccak256(abi.encodePacked(_name)) != keccak256(abi.encodePacked(\" \")), \"name cannot be empty\") */\n      tag_28\n      jumpi\n      mload(0x40)\n      0x08c379a000000000000000000000000000000000000000000000000000000000\n      dup2\n      mstore\n      0x04\n      add\n      tag_29\n      swap1\n      tag_30\n      jump\t// in\n    tag_29:\n      mload(0x40)\n      dup1\n      swap2\n      sub\n      swap1\n      revert\n    tag_28:\n        /* \"Assignments/CP3-Q1.sol\":491:498  student */\n      0x00\n        /* \"Assignments/CP3-Q1.sol\":504:538  Student( _name, _age, _isEnrolled) */\n      mload(0x40)\n      dup1\n      0x60\n      add\n      0x40\n      mstore\n      dup1\n        /* \"Assignments/CP3-Q1.sol\":513:518  _name */\n      dup6\n        /* \"Assignments/CP3-Q1.sol\":504:538  Student( _name, _age, _isEnrolled) */\n      dup2\n      mstore\n      0x20\n      add\n        /* \"Assignments/CP3-Q1.sol\":520:524  _age */\n      dup5\n        /* \"Assignments/CP3-Q1.sol\":504:538  Student( _name, _age, _isEnrolled) */\n      dup2\n      mstore\n      0x20\n      add\n        /* \"Assignments/CP3-Q1.sol\":526:537  _isEnrolled */\n      dup4\n        /* \"Assignments/CP3-Q1.sol\":504:538  Student( _name, _age, _isEnrolled) */\n      iszero\n      iszero\n      dup2\n      mstore\n      pop\n        /* \"Assignments/CP3-Q1.sol\":491:539  student.push(Student( _name, _age, _isEnrolled)) */\n      swap1\n      dup1\n      0x01\n      dup2\n      sload\n      add\n      dup1\n      dup3\n      sstore\n      dup1\n      swap2\n      pop\n      pop\n      0x01\n      swap1\n      sub\n      swap1\n      0x00\n      mstore\n      keccak256(0x00, 0x20)\n      swap1\n      0x03\n      mul\n      add\n      0x00\n      swap1\n      swap2\n      swap1\n      swap2\n      swap1\n      swap2\n      pop\n      0x00\n      dup3\n      add\n      mload\n      dup2\n      0x00\n      add\n      swap1\n      dup2\n      tag_32\n      swap2\n      swap1\n      tag_33\n      jump\t// in\n    tag_32:\n      pop\n      0x20\n      dup3\n      add\n      mload\n      dup2\n      0x01\n      add\n      sstore\n      0x40\n      dup3\n      add\n      mload\n      dup2\n      0x02\n      add\n      exp(0x0100, 0x00)\n      dup2\n      sload\n      dup2\n      0xff\n      mul\n      not\n      and\n      swap1\n      dup4\n      iszero\n      iszero\n      mul\n      or\n      swap1\n      sstore\n      pop\n      pop\n      pop\n        /* \"Assignments/CP3-Q1.sol\":218:547  function addStudent(string memory _name, uint _age, bool _isEnrolled) public{... */\n      pop\n      pop\n      pop\n      jump\t// out\n        /* \"Assignments/CP3-Q1.sol\":187:211  Student[] public student */\n    tag_13:\n      0x00\n      dup2\n      dup2\n      sload\n      dup2\n      lt\n      tag_34\n      jumpi\n      0x00\n      dup1\n      revert\n    tag_34:\n      swap1\n      0x00\n      mstore\n      keccak256(0x00, 0x20)\n      swap1\n      0x03\n      mul\n      add\n      0x00\n      swap2\n      pop\n      swap1\n      pop\n      dup1\n      0x00\n      add\n      dup1\n      sload\n      tag_36\n      swap1\n      tag_37\n      jump\t// in\n    tag_36:\n      dup1\n      0x1f\n      add\n      0x20\n      dup1\n      swap2\n      div\n      mul\n      0x20\n      add\n      mload(0x40)\n      swap1\n      dup2\n      add\n      0x40\n      mstore\n      dup1\n      swap3\n      swap2\n      swap1\n      dup2\n      dup2\n      mstore\n      0x20\n      add\n      dup3\n      dup1\n      sload\n      tag_38\n      swap1\n      tag_37\n      jump\t// in\n    tag_38:\n      dup1\n      iszero\n      tag_39\n      jumpi\n      dup1\n      0x1f\n      lt\n      tag_40\n      jumpi\n      0x0100\n      dup1\n      dup4\n      sload\n      div\n      mul\n      dup4\n      mstore\n      swap2\n      0x20\n      add\n      swap2\n      jump(tag_39)\n    tag_40:\n      dup3\n      add\n      swap2\n      swap1\n      0x00\n      mstore\n      keccak256(0x00, 0x20)\n      swap1\n    tag_41:\n      dup2\n      sload\n      dup2\n      mstore\n      swap1\n      0x01\n      add\n      swap1\n      0x20\n      add\n      dup1\n      dup4\n      gt\n      tag_41\n      jumpi\n      dup3\n      swap1\n      sub\n      0x1f\n      and\n      dup3\n      add\n      swap2\n    tag_39:\n      pop\n      pop\n      pop\n      pop\n      pop\n      swap1\n      dup1\n      0x01\n      add\n      sload\n      swap1\n      dup1\n      0x02\n      add\n      0x00\n      swap1\n      sload\n      swap1\n      0x0100\n      exp\n      swap1\n      div\n      0xff\n      and\n      swap1\n      pop\n      dup4\n      jump\t// out\n        /* \"Assignments/CP3-Q1.sol\":553:759  function getStudent(uint _index)public view returns(string memory, uint, bool){... */\n    tag_18:\n        /* \"Assignments/CP3-Q1.sol\":605:618  string memory */\n      0x60\n        /* \"Assignments/CP3-Q1.sol\":620:624  uint */\n      0x00\n        /* \"Assignments/CP3-Q1.sol\":626:630  bool */\n      dup1\n        /* \"Assignments/CP3-Q1.sol\":642:665  Student memory student1 */\n      0x00\n        /* \"Assignments/CP3-Q1.sol\":668:675  student */\n      dup1\n        /* \"Assignments/CP3-Q1.sol\":676:682  _index */\n      dup6\n        /* \"Assignments/CP3-Q1.sol\":668:683  student[_index] */\n      dup2\n      sload\n      dup2\n      lt\n      tag_43\n      jumpi\n      tag_44\n      tag_45\n      jump\t// in\n    tag_44:\n    tag_43:\n      swap1\n      0x00\n      mstore\n      keccak256(0x00, 0x20)\n      swap1\n      0x03\n      mul\n      add\n        /* \"Assignments/CP3-Q1.sol\":642:683  Student memory student1 = student[_index] */\n      mload(0x40)\n      dup1\n      0x60\n      add\n      0x40\n      mstore\n      swap1\n      dup2\n      0x00\n      dup3\n      add\n      dup1\n      sload\n      tag_47\n      swap1\n      tag_37\n      jump\t// in\n    tag_47:\n      dup1\n      0x1f\n      add\n      0x20\n      dup1\n      swap2\n      div\n      mul\n      0x20\n      add\n      mload(0x40)\n      swap1\n      dup2\n      add\n      0x40\n      mstore\n      dup1\n      swap3\n      swap2\n      swap1\n      dup2\n      dup2\n      mstore\n      0x20\n      add\n      dup3\n      dup1\n      sload\n      tag_48\n      swap1\n      tag_37\n      jump\t// in\n    tag_48:\n      dup1\n      iszero\n      tag_49\n      jumpi\n      dup1\n      0x1f\n      lt\n      tag_50\n      jumpi\n      0x0100\n      dup1\n      dup4\n      sload\n      div\n      mul\n      dup4\n      mstore\n      swap2\n      0x20\n      add\n      swap2\n      jump(tag_49)\n    tag_50:\n      dup3\n      add\n      swap2\n      swap1\n      0x00\n      mstore\n      keccak256(0x00, 0x20)\n      swap1\n    tag_51:\n      dup2\n      sload\n      dup2\n      mstore\n      swap1\n      0x01\n      add\n      swap1\n      0x20\n      add\n      dup1\n      dup4\n      gt\n      tag_51\n      jumpi\n      dup3\n      swap1\n      sub\n      0x1f\n      and\n      dup3\n      add\n      swap2\n    tag_49:\n      pop\n      pop\n      pop\n      pop\n      pop\n      dup2\n      mstore\n      0x20\n      add\n      0x01\n      dup3\n      add\n      sload\n      dup2\n      mstore\n      0x20\n      add\n      0x02\n      dup3\n      add\n      0x00\n      swap1\n      sload\n      swap1\n      0x0100\n      exp\n      swap1\n      div\n      0xff\n      and\n      iszero\n      iszero\n      iszero\n      iszero\n      dup2\n      mstore\n      pop\n      pop\n      swap1\n      pop\n        /* \"Assignments/CP3-Q1.sol\":702:710  student1 */\n      dup1\n        /* \"Assignments/CP3-Q1.sol\":702:715  student1.name */\n      0x00\n      add\n      mload\n        /* \"Assignments/CP3-Q1.sol\":717:725  student1 */\n      dup2\n        /* \"Assignments/CP3-Q1.sol\":717:729  student1.age */\n      0x20\n      add\n      mload\n        /* \"Assignments/CP3-Q1.sol\":731:739  student1 */\n      dup3\n        /* \"Assignments/CP3-Q1.sol\":731:750  student1.isEnrolled */\n      0x40\n      add\n      mload\n        /* \"Assignments/CP3-Q1.sol\":694:751  return (student1.name, student1.age, student1.isEnrolled) */\n      swap4\n      pop\n      swap4\n      pop\n      swap4\n      pop\n      pop\n        /* \"Assignments/CP3-Q1.sol\":553:759  function getStudent(uint _index)public view returns(string memory, uint, bool){... */\n      swap2\n      swap4\n      swap1\n      swap3\n      pop\n      jump\t// out\n        /* \"#utility.yul\":7:82   */\n    tag_52:\n        /* \"#utility.yul\":40:46   */\n      0x00\n        /* \"#utility.yul\":73:75   */\n      0x40\n        /* \"#utility.yul\":67:76   */\n      mload\n        /* \"#utility.yul\":57:76   */\n      swap1\n      pop\n        /* \"#utility.yul\":7:82   */\n      swap1\n      jump\t// out\n        /* \"#utility.yul\":88:205   */\n    tag_53:\n        /* \"#utility.yul\":197:198   */\n      0x00\n        /* \"#utility.yul\":194:195   */\n      dup1\n        /* \"#utility.yul\":187:199   */\n      revert\n        /* \"#utility.yul\":211:328   */\n    tag_54:\n        /* \"#utility.yul\":320:321   */\n      0x00\n        /* \"#utility.yul\":317:318   */\n      dup1\n        /* \"#utility.yul\":310:322   */\n      revert\n        /* \"#utility.yul\":334:451   */\n    tag_55:\n        /* \"#utility.yul\":443:444   */\n      0x00\n        /* \"#utility.yul\":440:441   */\n      dup1\n        /* \"#utility.yul\":433:445   */\n      revert\n        /* \"#utility.yul\":457:574   */\n    tag_56:\n        /* \"#utility.yul\":566:567   */\n      0x00\n        /* \"#utility.yul\":563:564   */\n      dup1\n        /* \"#utility.yul\":556:568   */\n      revert\n        /* \"#utility.yul\":580:682   */\n    tag_57:\n        /* \"#utility.yul\":621:627   */\n      0x00\n        /* \"#utility.yul\":672:674   */\n      0x1f\n        /* \"#utility.yul\":668:675   */\n      not\n        /* \"#utility.yul\":663:665   */\n      0x1f\n        /* \"#utility.yul\":656:661   */\n      dup4\n        /* \"#utility.yul\":652:666   */\n      add\n        /* \"#utility.yul\":648:676   */\n      and\n        /* \"#utility.yul\":638:676   */\n      swap1\n      pop\n        /* \"#utility.yul\":580:682   */\n      swap2\n      swap1\n      pop\n      jump\t// out\n        /* \"#utility.yul\":688:868   */\n    tag_58:\n        /* \"#utility.yul\":736:813   */\n      0x4e487b7100000000000000000000000000000000000000000000000000000000\n        /* \"#utility.yul\":733:734   */\n      0x00\n        /* \"#utility.yul\":726:814   */\n      mstore\n        /* \"#utility.yul\":833:837   */\n      0x41\n        /* \"#utility.yul\":830:831   */\n      0x04\n        /* \"#utility.yul\":823:838   */\n      mstore\n        /* \"#utility.yul\":857:861   */\n      0x24\n        /* \"#utility.yul\":854:855   */\n      0x00\n        /* \"#utility.yul\":847:862   */\n      revert\n        /* \"#utility.yul\":874:1155   */\n    tag_59:\n        /* \"#utility.yul\":957:984   */\n      tag_110\n        /* \"#utility.yul\":979:983   */\n      dup3\n        /* \"#utility.yul\":957:984   */\n      tag_57\n      jump\t// in\n    tag_110:\n        /* \"#utility.yul\":949:955   */\n      dup2\n        /* \"#utility.yul\":945:985   */\n      add\n        /* \"#utility.yul\":1087:1093   */\n      dup2\n        /* \"#utility.yul\":1075:1085   */\n      dup2\n        /* \"#utility.yul\":1072:1094   */\n      lt\n        /* \"#utility.yul\":1051:1069   */\n      0xffffffffffffffff\n        /* \"#utility.yul\":1039:1049   */\n      dup3\n        /* \"#utility.yul\":1036:1070   */\n      gt\n        /* \"#utility.yul\":1033:1095   */\n      or\n        /* \"#utility.yul\":1030:1118   */\n      iszero\n      tag_111\n      jumpi\n        /* \"#utility.yul\":1098:1116   */\n      tag_112\n      tag_58\n      jump\t// in\n    tag_112:\n        /* \"#utility.yul\":1030:1118   */\n    tag_111:\n        /* \"#utility.yul\":1138:1148   */\n      dup1\n        /* \"#utility.yul\":1134:1136   */\n      0x40\n        /* \"#utility.yul\":1127:1149   */\n      mstore\n        /* \"#utility.yul\":917:1155   */\n      pop\n        /* \"#utility.yul\":874:1155   */\n      pop\n      pop\n      jump\t// out\n        /* \"#utility.yul\":1161:1290   */\n    tag_60:\n        /* \"#utility.yul\":1195:1201   */\n      0x00\n        /* \"#utility.yul\":1222:1242   */\n      tag_114\n      tag_52\n      jump\t// in\n    tag_114:\n        /* \"#utility.yul\":1212:1242   */\n      swap1\n      pop\n        /* \"#utility.yul\":1251:1284   */\n      tag_115\n        /* \"#utility.yul\":1279:1283   */\n      dup3\n        /* \"#utility.yul\":1271:1277   */\n      dup3\n        /* \"#utility.yul\":1251:1284   */\n      tag_59\n      jump\t// in\n    tag_115:\n        /* \"#utility.yul\":1161:1290   */\n      swap2\n      swap1\n      pop\n      jump\t// out\n        /* \"#utility.yul\":1296:1604   */\n    tag_61:\n        /* \"#utility.yul\":1358:1362   */\n      0x00\n        /* \"#utility.yul\":1448:1466   */\n      0xffffffffffffffff\n        /* \"#utility.yul\":1440:1446   */\n      dup3\n        /* \"#utility.yul\":1437:1467   */\n      gt\n        /* \"#utility.yul\":1434:1490   */\n      iszero\n      tag_117\n      jumpi\n        /* \"#utility.yul\":1470:1488   */\n      tag_118\n      tag_58\n      jump\t// in\n    tag_118:\n        /* \"#utility.yul\":1434:1490   */\n    tag_117:\n        /* \"#utility.yul\":1508:1537   */\n      tag_119\n        /* \"#utility.yul\":1530:1536   */\n      dup3\n        /* \"#utility.yul\":1508:1537   */\n      tag_57\n      jump\t// in\n    tag_119:\n        /* \"#utility.yul\":1500:1537   */\n      swap1\n      pop\n        /* \"#utility.yul\":1592:1596   */\n      0x20\n        /* \"#utility.yul\":1586:1590   */\n      dup2\n        /* \"#utility.yul\":1582:1597   */\n      add\n        /* \"#utility.yul\":1574:1597   */\n      swap1\n      pop\n        /* \"#utility.yul\":1296:1604   */\n      swap2\n      swap1\n      pop\n      jump\t// out\n        /* \"#utility.yul\":1610:1758   */\n    tag_62:\n        /* \"#utility.yul\":1708:1714   */\n      dup3\n        /* \"#utility.yul\":1703:1706   */\n      dup2\n        /* \"#utility.yul\":1698:1701   */\n      dup4\n        /* \"#utility.yul\":1685:1715   */\n      calldatacopy\n        /* \"#utility.yul\":1749:1750   */\n      0x00\n        /* \"#utility.yul\":1740:1746   */\n      dup4\n        /* \"#utility.yul\":1735:1738   */\n      dup4\n        /* \"#utility.yul\":1731:1747   */\n      add\n        /* \"#utility.yul\":1724:1751   */\n      mstore\n        /* \"#utility.yul\":1610:1758   */\n      pop\n      pop\n      pop\n      jump\t// out\n        /* \"#utility.yul\":1764:2189   */\n    tag_63:\n        /* \"#utility.yul\":1842:1847   */\n      0x00\n        /* \"#utility.yul\":1867:1933   */\n      tag_122\n        /* \"#utility.yul\":1883:1932   */\n      tag_123\n        /* \"#utility.yul\":1925:1931   */\n      dup5\n        /* \"#utility.yul\":1883:1932   */\n      tag_61\n      jump\t// in\n    tag_123:\n        /* \"#utility.yul\":1867:1933   */\n      tag_60\n      jump\t// in\n    tag_122:\n        /* \"#utility.yul\":1858:1933   */\n      swap1\n      pop\n        /* \"#utility.yul\":1956:1962   */\n      dup3\n        /* \"#utility.yul\":1949:1954   */\n      dup2\n        /* \"#utility.yul\":1942:1963   */\n      mstore\n        /* \"#utility.yul\":1994:1998   */\n      0x20\n        /* \"#utility.yul\":1987:1992   */\n      dup2\n        /* \"#utility.yul\":1983:1999   */\n      add\n        /* \"#utility.yul\":2032:2035   */\n      dup5\n        /* \"#utility.yul\":2023:2029   */\n      dup5\n        /* \"#utility.yul\":2018:2021   */\n      dup5\n        /* \"#utility.yul\":2014:2030   */\n      add\n        /* \"#utility.yul\":2011:2036   */\n      gt\n        /* \"#utility.yul\":2008:2120   */\n      iszero\n      tag_124\n      jumpi\n        /* \"#utility.yul\":2039:2118   */\n      tag_125\n      tag_56\n      jump\t// in\n    tag_125:\n        /* \"#utility.yul\":2008:2120   */\n    tag_124:\n        /* \"#utility.yul\":2129:2183   */\n      tag_126\n        /* \"#utility.yul\":2176:2182   */\n      dup5\n        /* \"#utility.yul\":2171:2174   */\n      dup3\n        /* \"#utility.yul\":2166:2169   */\n      dup6\n        /* \"#utility.yul\":2129:2183   */\n      tag_62\n      jump\t// in\n    tag_126:\n        /* \"#utility.yul\":1848:2189   */\n      pop\n        /* \"#utility.yul\":1764:2189   */\n      swap4\n      swap3\n      pop\n      pop\n      pop\n      jump\t// out\n        /* \"#utility.yul\":2209:2549   */\n    tag_64:\n        /* \"#utility.yul\":2265:2270   */\n      0x00\n        /* \"#utility.yul\":2314:2317   */\n      dup3\n        /* \"#utility.yul\":2307:2311   */\n      0x1f\n        /* \"#utility.yul\":2299:2305   */\n      dup4\n        /* \"#utility.yul\":2295:2312   */\n      add\n        /* \"#utility.yul\":2291:2318   */\n      slt\n        /* \"#utility.yul\":2281:2403   */\n      tag_128\n      jumpi\n        /* \"#utility.yul\":2322:2401   */\n      tag_129\n      tag_55\n      jump\t// in\n    tag_129:\n        /* \"#utility.yul\":2281:2403   */\n    tag_128:\n        /* \"#utility.yul\":2439:2445   */\n      dup2\n        /* \"#utility.yul\":2426:2446   */\n      calldataload\n        /* \"#utility.yul\":2464:2543   */\n      tag_130\n        /* \"#utility.yul\":2539:2542   */\n      dup5\n        /* \"#utility.yul\":2531:2537   */\n      dup3\n        /* \"#utility.yul\":2524:2528   */\n      0x20\n        /* \"#utility.yul\":2516:2522   */\n      dup7\n        /* \"#utility.yul\":2512:2529   */\n      add\n        /* \"#utility.yul\":2464:2543   */\n      tag_63\n      jump\t// in\n    tag_130:\n        /* \"#utility.yul\":2455:2543   */\n      swap2\n      pop\n        /* \"#utility.yul\":2271:2549   */\n      pop\n        /* \"#utility.yul\":2209:2549   */\n      swap3\n      swap2\n      pop\n      pop\n      jump\t// out\n        /* \"#utility.yul\":2555:2632   */\n    tag_65:\n        /* \"#utility.yul\":2592:2599   */\n      0x00\n        /* \"#utility.yul\":2621:2626   */\n      dup2\n        /* \"#utility.yul\":2610:2626   */\n      swap1\n      pop\n        /* \"#utility.yul\":2555:2632   */\n      swap2\n      swap1\n      pop\n      jump\t// out\n        /* \"#utility.yul\":2638:2760   */\n    tag_66:\n        /* \"#utility.yul\":2711:2735   */\n      tag_133\n        /* \"#utility.yul\":2729:2734   */\n      dup2\n        /* \"#utility.yul\":2711:2735   */\n      tag_65\n      jump\t// in\n    tag_133:\n        /* \"#utility.yul\":2704:2709   */\n      dup2\n        /* \"#utility.yul\":2701:2736   */\n      eq\n        /* \"#utility.yul\":2691:2754   */\n      tag_134\n      jumpi\n        /* \"#utility.yul\":2750:2751   */\n      0x00\n        /* \"#utility.yul\":2747:2748   */\n      dup1\n        /* \"#utility.yul\":2740:2752   */\n      revert\n        /* \"#utility.yul\":2691:2754   */\n    tag_134:\n        /* \"#utility.yul\":2638:2760   */\n      pop\n      jump\t// out\n        /* \"#utility.yul\":2766:2905   */\n    tag_67:\n        /* \"#utility.yul\":2812:2817   */\n      0x00\n        /* \"#utility.yul\":2850:2856   */\n      dup2\n        /* \"#utility.yul\":2837:2857   */\n      calldataload\n        /* \"#utility.yul\":2828:2857   */\n      swap1\n      pop\n        /* \"#utility.yul\":2866:2899   */\n      tag_136\n        /* \"#utility.yul\":2893:2898   */\n      dup2\n        /* \"#utility.yul\":2866:2899   */\n      tag_66\n      jump\t// in\n    tag_136:\n        /* \"#utility.yul\":2766:2905   */\n      swap3\n      swap2\n      pop\n      pop\n      jump\t// out\n        /* \"#utility.yul\":2911:3001   */\n    tag_68:\n        /* \"#utility.yul\":2945:2952   */\n      0x00\n        /* \"#utility.yul\":2988:2993   */\n      dup2\n        /* \"#utility.yul\":2981:2994   */\n      iszero\n        /* \"#utility.yul\":2974:2995   */\n      iszero\n        /* \"#utility.yul\":2963:2995   */\n      swap1\n      pop\n        /* \"#utility.yul\":2911:3001   */\n      swap2\n      swap1\n      pop\n      jump\t// out\n        /* \"#utility.yul\":3007:3123   */\n    tag_69:\n        /* \"#utility.yul\":3077:3098   */\n      tag_139\n        /* \"#utility.yul\":3092:3097   */\n      dup2\n        /* \"#utility.yul\":3077:3098   */\n      tag_68\n      jump\t// in\n    tag_139:\n        /* \"#utility.yul\":3070:3075   */\n      dup2\n        /* \"#utility.yul\":3067:3099   */\n      eq\n        /* \"#utility.yul\":3057:3117   */\n      tag_140\n      jumpi\n        /* \"#utility.yul\":3113:3114   */\n      0x00\n        /* \"#utility.yul\":3110:3111   */\n      dup1\n        /* \"#utility.yul\":3103:3115   */\n      revert\n        /* \"#utility.yul\":3057:3117   */\n    tag_140:\n        /* \"#utility.yul\":3007:3123   */\n      pop\n      jump\t// out\n        /* \"#utility.yul\":3129:3262   */\n    tag_70:\n        /* \"#utility.yul\":3172:3177   */\n      0x00\n        /* \"#utility.yul\":3210:3216   */\n      dup2\n        /* \"#utility.yul\":3197:3217   */\n      calldataload\n        /* \"#utility.yul\":3188:3217   */\n      swap1\n      pop\n        /* \"#utility.yul\":3226:3256   */\n      tag_142\n        /* \"#utility.yul\":3250:3255   */\n      dup2\n        /* \"#utility.yul\":3226:3256   */\n      tag_69\n      jump\t// in\n    tag_142:\n        /* \"#utility.yul\":3129:3262   */\n      swap3\n      swap2\n      pop\n      pop\n      jump\t// out\n        /* \"#utility.yul\":3268:4061   */\n    tag_8:\n        /* \"#utility.yul\":3352:3358   */\n      0x00\n        /* \"#utility.yul\":3360:3366   */\n      dup1\n        /* \"#utility.yul\":3368:3374   */\n      0x00\n        /* \"#utility.yul\":3417:3419   */\n      0x60\n        /* \"#utility.yul\":3405:3414   */\n      dup5\n        /* \"#utility.yul\":3396:3403   */\n      dup7\n        /* \"#utility.yul\":3392:3415   */\n      sub\n        /* \"#utility.yul\":3388:3420   */\n      slt\n        /* \"#utility.yul\":3385:3504   */\n      iszero\n      tag_144\n      jumpi\n        /* \"#utility.yul\":3423:3502   */\n      tag_145\n      tag_53\n      jump\t// in\n    tag_145:\n        /* \"#utility.yul\":3385:3504   */\n    tag_144:\n        /* \"#utility.yul\":3571:3572   */\n      0x00\n        /* \"#utility.yul\":3560:3569   */\n      dup5\n        /* \"#utility.yul\":3556:3573   */\n      add\n        /* \"#utility.yul\":3543:3574   */\n      calldataload\n        /* \"#utility.yul\":3601:3619   */\n      0xffffffffffffffff\n        /* \"#utility.yul\":3593:3599   */\n      dup2\n        /* \"#utility.yul\":3590:3620   */\n      gt\n        /* \"#utility.yul\":3587:3704   */\n      iszero\n      tag_146\n      jumpi\n        /* \"#utility.yul\":3623:3702   */\n      tag_147\n      tag_54\n      jump\t// in\n    tag_147:\n        /* \"#utility.yul\":3587:3704   */\n    tag_146:\n        /* \"#utility.yul\":3728:3791   */\n      tag_148\n        /* \"#utility.yul\":3783:3790   */\n      dup7\n        /* \"#utility.yul\":3774:3780   */\n      dup3\n        /* \"#utility.yul\":3763:3772   */\n      dup8\n        /* \"#utility.yul\":3759:3781   */\n      add\n        /* \"#utility.yul\":3728:3791   */\n      tag_64\n      jump\t// in\n    tag_148:\n        /* \"#utility.yul\":3718:3791   */\n      swap4\n      pop\n        /* \"#utility.yul\":3514:3801   */\n      pop\n        /* \"#utility.yul\":3840:3842   */\n      0x20\n        /* \"#utility.yul\":3866:3919   */\n      tag_149\n        /* \"#utility.yul\":3911:3918   */\n      dup7\n        /* \"#utility.yul\":3902:3908   */\n      dup3\n        /* \"#utility.yul\":3891:3900   */\n      dup8\n        /* \"#utility.yul\":3887:3909   */\n      add\n        /* \"#utility.yul\":3866:3919   */\n      tag_67\n      jump\t// in\n    tag_149:\n        /* \"#utility.yul\":3856:3919   */\n      swap3\n      pop\n        /* \"#utility.yul\":3811:3929   */\n      pop\n        /* \"#utility.yul\":3968:3970   */\n      0x40\n        /* \"#utility.yul\":3994:4044   */\n      tag_150\n        /* \"#utility.yul\":4036:4043   */\n      dup7\n        /* \"#utility.yul\":4027:4033   */\n      dup3\n        /* \"#utility.yul\":4016:4025   */\n      dup8\n        /* \"#utility.yul\":4012:4034   */\n      add\n        /* \"#utility.yul\":3994:4044   */\n      tag_70\n      jump\t// in\n    tag_150:\n        /* \"#utility.yul\":3984:4044   */\n      swap2\n      pop\n        /* \"#utility.yul\":3939:4054   */\n      pop\n        /* \"#utility.yul\":3268:4061   */\n      swap3\n      pop\n      swap3\n      pop\n      swap3\n      jump\t// out\n        /* \"#utility.yul\":4067:4396   */\n    tag_12:\n        /* \"#utility.yul\":4126:4132   */\n      0x00\n        /* \"#utility.yul\":4175:4177   */\n      0x20\n        /* \"#utility.yul\":4163:4172   */\n      dup3\n        /* \"#utility.yul\":4154:4161   */\n      dup5\n        /* \"#utility.yul\":4150:4173   */\n      sub\n        /* \"#utility.yul\":4146:4178   */\n      slt\n        /* \"#utility.yul\":4143:4262   */\n      iszero\n      tag_152\n      jumpi\n        /* \"#utility.yul\":4181:4260   */\n      tag_153\n      tag_53\n      jump\t// in\n    tag_153:\n        /* \"#utility.yul\":4143:4262   */\n    tag_152:\n        /* \"#utility.yul\":4301:4302   */\n      0x00\n        /* \"#utility.yul\":4326:4379   */\n      tag_154\n        /* \"#utility.yul\":4371:4378   */\n      dup5\n        /* \"#utility.yul\":4362:4368   */\n      dup3\n        /* \"#utility.yul\":4351:4360   */\n      dup6\n        /* \"#utility.yul\":4347:4369   */\n      add\n        /* \"#utility.yul\":4326:4379   */\n      tag_67\n      jump\t// in\n    tag_154:\n        /* \"#utility.yul\":4316:4379   */\n      swap2\n      pop\n        /* \"#utility.yul\":4272:4389   */\n      pop\n        /* \"#utility.yul\":4067:4396   */\n      swap3\n      swap2\n      pop\n      pop\n      jump\t// out\n        /* \"#utility.yul\":4402:4501   */\n    tag_71:\n        /* \"#utility.yul\":4454:4460   */\n      0x00\n        /* \"#utility.yul\":4488:4493   */\n      dup2\n        /* \"#utility.yul\":4482:4494   */\n      mload\n        /* \"#utility.yul\":4472:4494   */\n      swap1\n      pop\n        /* \"#utility.yul\":4402:4501   */\n      swap2\n      swap1\n      pop\n      jump\t// out\n        /* \"#utility.yul\":4507:4676   */\n    tag_72:\n        /* \"#utility.yul\":4591:4602   */\n      0x00\n        /* \"#utility.yul\":4625:4631   */\n      dup3\n        /* \"#utility.yul\":4620:4623   */\n      dup3\n        /* \"#utility.yul\":4613:4632   */\n      mstore\n        /* \"#utility.yul\":4665:4669   */\n      0x20\n        /* \"#utility.yul\":4660:4663   */\n      dup3\n        /* \"#utility.yul\":4656:4670   */\n      add\n        /* \"#utility.yul\":4641:4670   */\n      swap1\n      pop\n        /* \"#utility.yul\":4507:4676   */\n      swap3\n      swap2\n      pop\n      pop\n      jump\t// out\n        /* \"#utility.yul\":4682:4821   */\n    tag_73:\n        /* \"#utility.yul\":4771:4777   */\n      dup3\n        /* \"#utility.yul\":4766:4769   */\n      dup2\n        /* \"#utility.yul\":4761:4764   */\n      dup4\n        /* \"#utility.yul\":4755:4778   */\n      mcopy\n        /* \"#utility.yul\":4812:4813   */\n      0x00\n        /* \"#utility.yul\":4803:4809   */\n      dup4\n        /* \"#utility.yul\":4798:4801   */\n      dup4\n        /* \"#utility.yul\":4794:4810   */\n      add\n        /* \"#utility.yul\":4787:4814   */\n      mstore\n        /* \"#utility.yul\":4682:4821   */\n      pop\n      pop\n      pop\n      jump\t// out\n        /* \"#utility.yul\":4827:5204   */\n    tag_74:\n        /* \"#utility.yul\":4915:4918   */\n      0x00\n        /* \"#utility.yul\":4943:4982   */\n      tag_159\n        /* \"#utility.yul\":4976:4981   */\n      dup3\n        /* \"#utility.yul\":4943:4982   */\n      tag_71\n      jump\t// in\n    tag_159:\n        /* \"#utility.yul\":4998:5069   */\n      tag_160\n        /* \"#utility.yul\":5062:5068   */\n      dup2\n        /* \"#utility.yul\":5057:5060   */\n      dup6\n        /* \"#utility.yul\":4998:5069   */\n      tag_72\n      jump\t// in\n    tag_160:\n        /* \"#utility.yul\":4991:5069   */\n      swap4\n      pop\n        /* \"#utility.yul\":5078:5143   */\n      tag_161\n        /* \"#utility.yul\":5136:5142   */\n      dup2\n        /* \"#utility.yul\":5131:5134   */\n      dup6\n        /* \"#utility.yul\":5124:5128   */\n      0x20\n        /* \"#utility.yul\":5117:5122   */\n      dup7\n        /* \"#utility.yul\":5113:5129   */\n      add\n        /* \"#utility.yul\":5078:5143   */\n      tag_73\n      jump\t// in\n    tag_161:\n        /* \"#utility.yul\":5168:5197   */\n      tag_162\n        /* \"#utility.yul\":5190:5196   */\n      dup2\n        /* \"#utility.yul\":5168:5197   */\n      tag_57\n      jump\t// in\n    tag_162:\n        /* \"#utility.yul\":5163:5166   */\n      dup5\n        /* \"#utility.yul\":5159:5198   */\n      add\n        /* \"#utility.yul\":5152:5198   */\n      swap2\n      pop\n        /* \"#utility.yul\":4919:5204   */\n      pop\n        /* \"#utility.yul\":4827:5204   */\n      swap3\n      swap2\n      pop\n      pop\n      jump\t// out\n        /* \"#utility.yul\":5210:5328   */\n    tag_75:\n        /* \"#utility.yul\":5297:5321   */\n      tag_164\n        /* \"#utility.yul\":5315:5320   */\n      dup2\n        /* \"#utility.yul\":5297:5321   */\n      tag_65\n      jump\t// in\n    tag_164:\n        /* \"#utility.yul\":5292:5295   */\n      dup3\n        /* \"#utility.yul\":5285:5322   */\n      mstore\n        /* \"#utility.yul\":5210:5328   */\n      pop\n      pop\n      jump\t// out\n        /* \"#utility.yul\":5334:5443   */\n    tag_76:\n        /* \"#utility.yul\":5415:5436   */\n      tag_166\n        /* \"#utility.yul\":5430:5435   */\n      dup2\n        /* \"#utility.yul\":5415:5436   */\n      tag_68\n      jump\t// in\n    tag_166:\n        /* \"#utility.yul\":5410:5413   */\n      dup3\n        /* \"#utility.yul\":5403:5437   */\n      mstore\n        /* \"#utility.yul\":5334:5443   */\n      pop\n      pop\n      jump\t// out\n        /* \"#utility.yul\":5449:5970   */\n    tag_15:\n        /* \"#utility.yul\":5612:5616   */\n      0x00\n        /* \"#utility.yul\":5650:5652   */\n      0x60\n        /* \"#utility.yul\":5639:5648   */\n      dup3\n        /* \"#utility.yul\":5635:5653   */\n      add\n        /* \"#utility.yul\":5627:5653   */\n      swap1\n      pop\n        /* \"#utility.yul\":5699:5708   */\n      dup2\n        /* \"#utility.yul\":5693:5697   */\n      dup2\n        /* \"#utility.yul\":5689:5709   */\n      sub\n        /* \"#utility.yul\":5685:5686   */\n      0x00\n        /* \"#utility.yul\":5674:5683   */\n      dup4\n        /* \"#utility.yul\":5670:5687   */\n      add\n        /* \"#utility.yul\":5663:5710   */\n      mstore\n        /* \"#utility.yul\":5727:5805   */\n      tag_168\n        /* \"#utility.yul\":5800:5804   */\n      dup2\n        /* \"#utility.yul\":5791:5797   */\n      dup7\n        /* \"#utility.yul\":5727:5805   */\n      tag_74\n      jump\t// in\n    tag_168:\n        /* \"#utility.yul\":5719:5805   */\n      swap1\n      pop\n        /* \"#utility.yul\":5815:5887   */\n      tag_169\n        /* \"#utility.yul\":5883:5885   */\n      0x20\n        /* \"#utility.yul\":5872:5881   */\n      dup4\n        /* \"#utility.yul\":5868:5886   */\n      add\n        /* \"#utility.yul\":5859:5865   */\n      dup6\n        /* \"#utility.yul\":5815:5887   */\n      tag_75\n      jump\t// in\n    tag_169:\n        /* \"#utility.yul\":5897:5963   */\n      tag_170\n        /* \"#utility.yul\":5959:5961   */\n      0x40\n        /* \"#utility.yul\":5948:5957   */\n      dup4\n        /* \"#utility.yul\":5944:5962   */\n      add\n        /* \"#utility.yul\":5935:5941   */\n      dup5\n        /* \"#utility.yul\":5897:5963   */\n      tag_76\n      jump\t// in\n    tag_170:\n        /* \"#utility.yul\":5449:5970   */\n      swap5\n      swap4\n      pop\n      pop\n      pop\n      pop\n      jump\t// out\n        /* \"#utility.yul\":5976:6201   */\n    tag_77:\n        /* \"#utility.yul\":6116:6150   */\n      0x73747564656e7473206d757374206265206174206c6561737420313820796561\n        /* \"#utility.yul\":6112:6113   */\n      0x00\n        /* \"#utility.yul\":6104:6110   */\n      dup3\n        /* \"#utility.yul\":6100:6114   */\n      add\n        /* \"#utility.yul\":6093:6151   */\n      mstore\n        /* \"#utility.yul\":6185:6193   */\n      0x7273206f6c640000000000000000000000000000000000000000000000000000\n        /* \"#utility.yul\":6180:6182   */\n      0x20\n        /* \"#utility.yul\":6172:6178   */\n      dup3\n        /* \"#utility.yul\":6168:6183   */\n      add\n        /* \"#utility.yul\":6161:6194   */\n      mstore\n        /* \"#utility.yul\":5976:6201   */\n      pop\n      jump\t// out\n        /* \"#utility.yul\":6207:6573   */\n    tag_78:\n        /* \"#utility.yul\":6349:6352   */\n      0x00\n        /* \"#utility.yul\":6370:6437   */\n      tag_173\n        /* \"#utility.yul\":6434:6436   */\n      0x26\n        /* \"#utility.yul\":6429:6432   */\n      dup4\n        /* \"#utility.yul\":6370:6437   */\n      tag_72\n      jump\t// in\n    tag_173:\n        /* \"#utility.yul\":6363:6437   */\n      swap2\n      pop\n        /* \"#utility.yul\":6446:6539   */\n      tag_174\n        /* \"#utility.yul\":6535:6538   */\n      dup3\n        /* \"#utility.yul\":6446:6539   */\n      tag_77\n      jump\t// in\n    tag_174:\n        /* \"#utility.yul\":6564:6566   */\n      0x40\n        /* \"#utility.yul\":6559:6562   */\n      dup3\n        /* \"#utility.yul\":6555:6567   */\n      add\n        /* \"#utility.yul\":6548:6567   */\n      swap1\n      pop\n        /* \"#utility.yul\":6207:6573   */\n      swap2\n      swap1\n      pop\n      jump\t// out\n        /* \"#utility.yul\":6579:6998   */\n    tag_23:\n        /* \"#utility.yul\":6745:6749   */\n      0x00\n        /* \"#utility.yul\":6783:6785   */\n      0x20\n        /* \"#utility.yul\":6772:6781   */\n      dup3\n        /* \"#utility.yul\":6768:6786   */\n      add\n        /* \"#utility.yul\":6760:6786   */\n      swap1\n      pop\n        /* \"#utility.yul\":6832:6841   */\n      dup2\n        /* \"#utility.yul\":6826:6830   */\n      dup2\n        /* \"#utility.yul\":6822:6842   */\n      sub\n        /* \"#utility.yul\":6818:6819   */\n      0x00\n        /* \"#utility.yul\":6807:6816   */\n      dup4\n        /* \"#utility.yul\":6803:6820   */\n      add\n        /* \"#utility.yul\":6796:6843   */\n      mstore\n        /* \"#utility.yul\":6860:6991   */\n      tag_176\n        /* \"#utility.yul\":6986:6990   */\n      dup2\n        /* \"#utility.yul\":6860:6991   */\n      tag_78\n      jump\t// in\n    tag_176:\n        /* \"#utility.yul\":6852:6991   */\n      swap1\n      pop\n        /* \"#utility.yul\":6579:6998   */\n      swap2\n      swap1\n      pop\n      jump\t// out\n        /* \"#utility.yul\":7004:7152   */\n    tag_79:\n        /* \"#utility.yul\":7106:7117   */\n      0x00\n        /* \"#utility.yul\":7143:7146   */\n      dup2\n        /* \"#utility.yul\":7128:7146   */\n      swap1\n      pop\n        /* \"#utility.yul\":7004:7152   */\n      swap3\n      swap2\n      pop\n      pop\n      jump\t// out\n        /* \"#utility.yul\":7158:7309   */\n    tag_80:\n        /* \"#utility.yul\":7298:7301   */\n      0x2000000000000000000000000000000000000000000000000000000000000000\n        /* \"#utility.yul\":7294:7295   */\n      0x00\n        /* \"#utility.yul\":7286:7292   */\n      dup3\n        /* \"#utility.yul\":7282:7296   */\n      add\n        /* \"#utility.yul\":7275:7302   */\n      mstore\n        /* \"#utility.yul\":7158:7309   */\n      pop\n      jump\t// out\n        /* \"#utility.yul\":7315:7715   */\n    tag_81:\n        /* \"#utility.yul\":7475:7478   */\n      0x00\n        /* \"#utility.yul\":7496:7580   */\n      tag_180\n        /* \"#utility.yul\":7578:7579   */\n      0x01\n        /* \"#utility.yul\":7573:7576   */\n      dup4\n        /* \"#utility.yul\":7496:7580   */\n      tag_79\n      jump\t// in\n    tag_180:\n        /* \"#utility.yul\":7489:7580   */\n      swap2\n      pop\n        /* \"#utility.yul\":7589:7682   */\n      tag_181\n        /* \"#utility.yul\":7678:7681   */\n      dup3\n        /* \"#utility.yul\":7589:7682   */\n      tag_80\n      jump\t// in\n    tag_181:\n        /* \"#utility.yul\":7707:7708   */\n      0x01\n        /* \"#utility.yul\":7702:7705   */\n      dup3\n        /* \"#utility.yul\":7698:7709   */\n      add\n        /* \"#utility.yul\":7691:7709   */\n      swap1\n      pop\n        /* \"#utility.yul\":7315:7715   */\n      swap2\n      swap1\n      pop\n      jump\t// out\n        /* \"#utility.yul\":7721:8102   */\n    tag_25:\n        /* \"#utility.yul\":7906:7909   */\n      0x00\n        /* \"#utility.yul\":7928:8076   */\n      tag_183\n        /* \"#utility.yul\":8072:8075   */\n      dup3\n        /* \"#utility.yul\":7928:8076   */\n      tag_81\n      jump\t// in\n    tag_183:\n        /* \"#utility.yul\":7921:8076   */\n      swap2\n      pop\n        /* \"#utility.yul\":8093:8096   */\n      dup2\n        /* \"#utility.yul\":8086:8096   */\n      swap1\n      pop\n        /* \"#utility.yul\":7721:8102   */\n      swap2\n      swap1\n      pop\n      jump\t// out\n        /* \"#utility.yul\":8108:8498   */\n    tag_82:\n        /* \"#utility.yul\":8214:8217   */\n      0x00\n        /* \"#utility.yul\":8242:8281   */\n      tag_185\n        /* \"#utility.yul\":8275:8280   */\n      dup3\n        /* \"#utility.yul\":8242:8281   */\n      tag_71\n      jump\t// in\n    tag_185:\n        /* \"#utility.yul\":8297:8386   */\n      tag_186\n        /* \"#utility.yul\":8379:8385   */\n      dup2\n        /* \"#utility.yul\":8374:8377   */\n      dup6\n        /* \"#utility.yul\":8297:8386   */\n      tag_79\n      jump\t// in\n    tag_186:\n        /* \"#utility.yul\":8290:8386   */\n      swap4\n      pop\n        /* \"#utility.yul\":8395:8460   */\n      tag_187\n        /* \"#utility.yul\":8453:8459   */\n      dup2\n        /* \"#utility.yul\":8448:8451   */\n      dup6\n        /* \"#utility.yul\":8441:8445   */\n      0x20\n        /* \"#utility.yul\":8434:8439   */\n      dup7\n        /* \"#utility.yul\":8430:8446   */\n      add\n        /* \"#utility.yul\":8395:8460   */\n      tag_73\n      jump\t// in\n    tag_187:\n        /* \"#utility.yul\":8485:8491   */\n      dup1\n        /* \"#utility.yul\":8480:8483   */\n      dup5\n        /* \"#utility.yul\":8476:8492   */\n      add\n        /* \"#utility.yul\":8469:8492   */\n      swap2\n      pop\n        /* \"#utility.yul\":8218:8498   */\n      pop\n        /* \"#utility.yul\":8108:8498   */\n      swap3\n      swap2\n      pop\n      pop\n      jump\t// out\n        /* \"#utility.yul\":8504:8779   */\n    tag_27:\n        /* \"#utility.yul\":8636:8639   */\n      0x00\n        /* \"#utility.yul\":8658:8753   */\n      tag_189\n        /* \"#utility.yul\":8749:8752   */\n      dup3\n        /* \"#utility.yul\":8740:8746   */\n      dup5\n        /* \"#utility.yul\":8658:8753   */\n      tag_82\n      jump\t// in\n    tag_189:\n        /* \"#utility.yul\":8651:8753   */\n      swap2\n      pop\n        /* \"#utility.yul\":8770:8773   */\n      dup2\n        /* \"#utility.yul\":8763:8773   */\n      swap1\n      pop\n        /* \"#utility.yul\":8504:8779   */\n      swap3\n      swap2\n      pop\n      pop\n      jump\t// out\n        /* \"#utility.yul\":8785:8955   */\n    tag_83:\n        /* \"#utility.yul\":8925:8947   */\n      0x6e616d652063616e6e6f7420626520656d707479000000000000000000000000\n        /* \"#utility.yul\":8921:8922   */\n      0x00\n        /* \"#utility.yul\":8913:8919   */\n      dup3\n        /* \"#utility.yul\":8909:8923   */\n      add\n        /* \"#utility.yul\":8902:8948   */\n      mstore\n        /* \"#utility.yul\":8785:8955   */\n      pop\n      jump\t// out\n        /* \"#utility.yul\":8961:9327   */\n    tag_84:\n        /* \"#utility.yul\":9103:9106   */\n      0x00\n        /* \"#utility.yul\":9124:9191   */\n      tag_192\n        /* \"#utility.yul\":9188:9190   */\n      0x14\n        /* \"#utility.yul\":9183:9186   */\n      dup4\n        /* \"#utility.yul\":9124:9191   */\n      tag_72\n      jump\t// in\n    tag_192:\n        /* \"#utility.yul\":9117:9191   */\n      swap2\n      pop\n        /* \"#utility.yul\":9200:9293   */\n      tag_193\n        /* \"#utility.yul\":9289:9292   */\n      dup3\n        /* \"#utility.yul\":9200:9293   */\n      tag_83\n      jump\t// in\n    tag_193:\n        /* \"#utility.yul\":9318:9320   */\n      0x20\n        /* \"#utility.yul\":9313:9316   */\n      dup3\n        /* \"#utility.yul\":9309:9321   */\n      add\n        /* \"#utility.yul\":9302:9321   */\n      swap1\n      pop\n        /* \"#utility.yul\":8961:9327   */\n      swap2\n      swap1\n      pop\n      jump\t// out\n        /* \"#utility.yul\":9333:9752   */\n    tag_30:\n        /* \"#utility.yul\":9499:9503   */\n      0x00\n        /* \"#utility.yul\":9537:9539   */\n      0x20\n        /* \"#utility.yul\":9526:9535   */\n      dup3\n        /* \"#utility.yul\":9522:9540   */\n      add\n        /* \"#utility.yul\":9514:9540   */\n      swap1\n      pop\n        /* \"#utility.yul\":9586:9595   */\n      dup2\n        /* \"#utility.yul\":9580:9584   */\n      dup2\n        /* \"#utility.yul\":9576:9596   */\n      sub\n        /* \"#utility.yul\":9572:9573   */\n      0x00\n        /* \"#utility.yul\":9561:9570   */\n      dup4\n        /* \"#utility.yul\":9557:9574   */\n      add\n        /* \"#utility.yul\":9550:9597   */\n      mstore\n        /* \"#utility.yul\":9614:9745   */\n      tag_195\n        /* \"#utility.yul\":9740:9744   */\n      dup2\n        /* \"#utility.yul\":9614:9745   */\n      tag_84\n      jump\t// in\n    tag_195:\n        /* \"#utility.yul\":9606:9745   */\n      swap1\n      pop\n        /* \"#utility.yul\":9333:9752   */\n      swap2\n      swap1\n      pop\n      jump\t// out\n        /* \"#utility.yul\":9758:9938   */\n    tag_85:\n        /* \"#utility.yul\":9806:9883   */\n      0x4e487b7100000000000000000000000000000000000000000000000000000000\n        /* \"#utility.yul\":9803:9804   */\n      0x00\n        /* \"#utility.yul\":9796:9884   */\n      mstore\n        /* \"#utility.yul\":9903:9907   */\n      0x22\n        /* \"#utility.yul\":9900:9901   */\n      0x04\n        /* \"#utility.yul\":9893:9908   */\n      mstore\n        /* \"#utility.yul\":9927:9931   */\n      0x24\n        /* \"#utility.yul\":9924:9925   */\n      0x00\n        /* \"#utility.yul\":9917:9932   */\n      revert\n        /* \"#utility.yul\":9944:10264   */\n    tag_37:\n        /* \"#utility.yul\":9988:9994   */\n      0x00\n        /* \"#utility.yul\":10025:10026   */\n      0x02\n        /* \"#utility.yul\":10019:10023   */\n      dup3\n        /* \"#utility.yul\":10015:10027   */\n      div\n        /* \"#utility.yul\":10005:10027   */\n      swap1\n      pop\n        /* \"#utility.yul\":10072:10073   */\n      0x01\n        /* \"#utility.yul\":10066:10070   */\n      dup3\n        /* \"#utility.yul\":10062:10074   */\n      and\n        /* \"#utility.yul\":10093:10111   */\n      dup1\n        /* \"#utility.yul\":10083:10164   */\n      tag_198\n      jumpi\n        /* \"#utility.yul\":10149:10153   */\n      0x7f\n        /* \"#utility.yul\":10141:10147   */\n      dup3\n        /* \"#utility.yul\":10137:10154   */\n      and\n        /* \"#utility.yul\":10127:10154   */\n      swap2\n      pop\n        /* \"#utility.yul\":10083:10164   */\n    tag_198:\n        /* \"#utility.yul\":10211:10213   */\n      0x20\n        /* \"#utility.yul\":10203:10209   */\n      dup3\n        /* \"#utility.yul\":10200:10214   */\n      lt\n        /* \"#utility.yul\":10180:10198   */\n      dup2\n        /* \"#utility.yul\":10177:10215   */\n      sub\n        /* \"#utility.yul\":10174:10258   */\n      tag_199\n      jumpi\n        /* \"#utility.yul\":10230:10248   */\n      tag_200\n      tag_85\n      jump\t// in\n    tag_200:\n        /* \"#utility.yul\":10174:10258   */\n    tag_199:\n        /* \"#utility.yul\":9995:10264   */\n      pop\n        /* \"#utility.yul\":9944:10264   */\n      swap2\n      swap1\n      pop\n      jump\t// out\n        /* \"#utility.yul\":10270:10411   */\n    tag_86:\n        /* \"#utility.yul\":10319:10323   */\n      0x00\n        /* \"#utility.yul\":10342:10345   */\n      dup2\n        /* \"#utility.yul\":10334:10345   */\n      swap1\n      pop\n        /* \"#utility.yul\":10365:10368   */\n      dup2\n        /* \"#utility.yul\":10362:10363   */\n      0x00\n        /* \"#utility.yul\":10355:10369   */\n      mstore\n        /* \"#utility.yul\":10399:10403   */\n      0x20\n        /* \"#utility.yul\":10396:10397   */\n      0x00\n        /* \"#utility.yul\":10386:10404   */\n      keccak256\n        /* \"#utility.yul\":10378:10404   */\n      swap1\n      pop\n        /* \"#utility.yul\":10270:10411   */\n      swap2\n      swap1\n      pop\n      jump\t// out\n        /* \"#utility.yul\":10417:10510   */\n    tag_87:\n        /* \"#utility.yul\":10454:10460   */\n      0x00\n        /* \"#utility.yul\":10501:10503   */\n      0x20\n        /* \"#utility.yul\":10496:10498   */\n      0x1f\n        /* \"#utility.yul\":10489:10494   */\n      dup4\n        /* \"#utility.yul\":10485:10499   */\n      add\n        /* \"#utility.yul\":10481:10504   */\n      div\n        /* \"#utility.yul\":10471:10504   */\n      swap1\n      pop\n        /* \"#utility.yul\":10417:10510   */\n      swap2\n      swap1\n      pop\n      jump\t// out\n        /* \"#utility.yul\":10516:10623   */\n    tag_88:\n        /* \"#utility.yul\":10560:10568   */\n      0x00\n        /* \"#utility.yul\":10610:10615   */\n      dup3\n        /* \"#utility.yul\":10604:10608   */\n      dup3\n        /* \"#utility.yul\":10600:10616   */\n      shl\n        /* \"#utility.yul\":10579:10616   */\n      swap1\n      pop\n        /* \"#utility.yul\":10516:10623   */\n      swap3\n      swap2\n      pop\n      pop\n      jump\t// out\n        /* \"#utility.yul\":10629:11022   */\n    tag_89:\n        /* \"#utility.yul\":10698:10704   */\n      0x00\n        /* \"#utility.yul\":10748:10749   */\n      0x08\n        /* \"#utility.yul\":10736:10746   */\n      dup4\n        /* \"#utility.yul\":10732:10750   */\n      mul\n        /* \"#utility.yul\":10771:10868   */\n      tag_205\n        /* \"#utility.yul\":10801:10867   */\n      0xffffffffffffffffffffffffffffffffffffffffffffffffffffffffffffffff\n        /* \"#utility.yul\":10790:10799   */\n      dup3\n        /* \"#utility.yul\":10771:10868   */\n      tag_88\n      jump\t// in\n    tag_205:\n        /* \"#utility.yul\":10889:10928   */\n      tag_206\n        /* \"#utility.yul\":10919:10927   */\n      dup7\n        /* \"#utility.yul\":10908:10917   */\n      dup4\n        /* \"#utility.yul\":10889:10928   */\n      tag_88\n      jump\t// in\n    tag_206:\n        /* \"#utility.yul\":10877:10928   */\n      swap6\n      pop\n        /* \"#utility.yul\":10961:10965   */\n      dup1\n        /* \"#utility.yul\":10957:10966   */\n      not\n        /* \"#utility.yul\":10950:10955   */\n      dup5\n        /* \"#utility.yul\":10946:10967   */\n      and\n        /* \"#utility.yul\":10937:10967   */\n      swap4\n      pop\n        /* \"#utility.yul\":11010:11014   */\n      dup1\n        /* \"#utility.yul\":11000:11008   */\n      dup7\n        /* \"#utility.yul\":10996:11015   */\n      and\n        /* \"#utility.yul\":10989:10994   */\n      dup5\n        /* \"#utility.yul\":10986:11016   */\n      or\n        /* \"#utility.yul\":10976:11016   */\n      swap3\n      pop\n        /* \"#utility.yul\":10705:11022   */\n      pop\n      pop\n        /* \"#utility.yul\":10629:11022   */\n      swap4\n      swap3\n      pop\n      pop\n      pop\n      jump\t// out\n        /* \"#utility.yul\":11028:11088   */\n    tag_90:\n        /* \"#utility.yul\":11056:11059   */\n      0x00\n        /* \"#utility.yul\":11077:11082   */\n      dup2\n        /* \"#utility.yul\":11070:11082   */\n      swap1\n      pop\n        /* \"#utility.yul\":11028:11088   */\n      swap2\n      swap1\n      pop\n      jump\t// out\n        /* \"#utility.yul\":11094:11236   */\n    tag_91:\n        /* \"#utility.yul\":11144:11153   */\n      0x00\n        /* \"#utility.yul\":11177:11230   */\n      tag_209\n        /* \"#utility.yul\":11195:11229   */\n      tag_210\n        /* \"#utility.yul\":11204:11228   */\n      tag_211\n        /* \"#utility.yul\":11222:11227   */\n      dup5\n        /* \"#utility.yul\":11204:11228   */\n      tag_65\n      jump\t// in\n    tag_211:\n        /* \"#utility.yul\":11195:11229   */\n      tag_90\n      jump\t// in\n    tag_210:\n        /* \"#utility.yul\":11177:11230   */\n      tag_65\n      jump\t// in\n    tag_209:\n        /* \"#utility.yul\":11164:11230   */\n      swap1\n      pop\n        /* \"#utility.yul\":11094:11236   */\n      swap2\n      swap1\n      pop\n      jump\t// out\n        /* \"#utility.yul\":11242:11317   */\n    tag_92:\n        /* \"#utility.yul\":11285:11288   */\n      0x00\n        /* \"#utility.yul\":11306:11311   */\n      dup2\n        /* \"#utility.yul\":11299:11311   */\n      swap1\n      pop\n        /* \"#utility.yul\":11242:11317   */\n      swap2\n      swap1\n      pop\n      jump\t// out\n        /* \"#utility.yul\":11323:11592   */\n    tag_93:\n        /* \"#utility.yul\":11433:11472   */\n      tag_214\n        /* \"#utility.yul\":11464:11471   */\n      dup4\n        /* \"#utility.yul\":11433:11472   */\n      tag_91\n      jump\t// in\n    tag_214:\n        /* \"#utility.yul\":11494:11585   */\n      tag_215\n        /* \"#utility.yul\":11543:11584   */\n      tag_216\n        /* \"#utility.yul\":11567:11583   */\n      dup3\n        /* \"#utility.yul\":11543:11584   */\n      tag_92\n      jump\t// in\n    tag_216:\n        /* \"#utility.yul\":11535:11541   */\n      dup5\n        /* \"#utility.yul\":11528:11532   */\n      dup5\n        /* \"#utility.yul\":11522:11533   */\n      sload\n        /* \"#utility.yul\":11494:11585   */\n      tag_89\n      jump\t// in\n    tag_215:\n        /* \"#utility.yul\":11488:11492   */\n      dup3\n        /* \"#utility.yul\":11481:11586   */\n      sstore\n        /* \"#utility.yul\":11399:11592   */\n      pop\n        /* \"#utility.yul\":11323:11592   */\n      pop\n      pop\n      pop\n      jump\t// out\n        /* \"#utility.yul\":11598:11671   */\n    tag_94:\n        /* \"#utility.yul\":11643:11646   */\n      0x00\n        /* \"#utility.yul\":11598:11671   */\n      swap1\n      jump\t// out\n        /* \"#utility.yul\":11677:11866   */\n    tag_95:\n        /* \"#utility.yul\":11754:11786   */\n      tag_219\n      tag_94\n      jump\t// in\n    tag_219:\n        /* \"#utility.yul\":11795:11860   */\n      tag_220\n        /* \"#utility.yul\":11853:11859   */\n      dup2\n        /* \"#utility.yul\":11845:11851   */\n      dup5\n        /* \"#utility.yul\":11839:11843   */\n      dup5\n        /* \"#utility.yul\":11795:11860   */\n      tag_93\n      jump\t// in\n    tag_220:\n        /* \"#utility.yul\":11730:11866   */\n      pop\n        /* \"#utility.yul\":11677:11866   */\n      pop\n      pop\n      jump\t// out\n        /* \"#utility.yul\":11872:12058   */\n    tag_96:\n        /* \"#utility.yul\":11932:12052   */\n    tag_222:\n        /* \"#utility.yul\":11949:11952   */\n      dup2\n        /* \"#utility.yul\":11942:11947   */\n      dup2\n        /* \"#utility.yul\":11939:11953   */\n      lt\n        /* \"#utility.yul\":11932:12052   */\n      iszero\n      tag_224\n      jumpi\n        /* \"#utility.yul\":12003:12042   */\n      tag_225\n        /* \"#utility.yul\":12040:12041   */\n      0x00\n        /* \"#utility.yul\":12033:12038   */\n      dup3\n        /* \"#utility.yul\":12003:12042   */\n      tag_95\n      jump\t// in\n    tag_225:\n        /* \"#utility.yul\":11976:11977   */\n      0x01\n        /* \"#utility.yul\":11969:11974   */\n      dup2\n        /* \"#utility.yul\":11965:11978   */\n      add\n        /* \"#utility.yul\":11956:11978   */\n      swap1\n      pop\n        /* \"#utility.yul\":11932:12052   */\n      jump(tag_222)\n    tag_224:\n        /* \"#utility.yul\":11872:12058   */\n      pop\n      pop\n      jump\t// out\n        /* \"#utility.yul\":12064:12607   */\n    tag_97:\n        /* \"#utility.yul\":12165:12167   */\n      0x1f\n        /* \"#utility.yul\":12160:12163   */\n      dup3\n        /* \"#utility.yul\":12157:12168   */\n      gt\n        /* \"#utility.yul\":12154:12600   */\n      iszero\n      tag_227\n      jumpi\n        /* \"#utility.yul\":12199:12237   */\n      tag_228\n        /* \"#utility.yul\":12231:12236   */\n      dup2\n        /* \"#utility.yul\":12199:12237   */\n      tag_86\n      jump\t// in\n    tag_228:\n        /* \"#utility.yul\":12283:12312   */\n      tag_229\n        /* \"#utility.yul\":12301:12311   */\n      dup5\n        /* \"#utility.yul\":12283:12312   */\n      tag_87\n      jump\t// in\n    tag_229:\n        /* \"#utility.yul\":12273:12281   */\n      dup2\n        /* \"#utility.yul\":12269:12313   */\n      add\n        /* \"#utility.yul\":12466:12468   */\n      0x20\n        /* \"#utility.yul\":12454:12464   */\n      dup6\n        /* \"#utility.yul\":12451:12469   */\n      lt\n        /* \"#utility.yul\":12448:12497   */\n      iszero\n      tag_230\n      jumpi\n        /* \"#utility.yul\":12487:12495   */\n      dup2\n        /* \"#utility.yul\":12472:12495   */\n      swap1\n      pop\n        /* \"#utility.yul\":12448:12497   */\n    tag_230:\n        /* \"#utility.yul\":12510:12590   */\n      tag_231\n        /* \"#utility.yul\":12566:12588   */\n      tag_232\n        /* \"#utility.yul\":12584:12587   */\n      dup6\n        /* \"#utility.yul\":12566:12588   */\n      tag_87\n      jump\t// in\n    tag_232:\n        /* \"#utility.yul\":12556:12564   */\n      dup4\n        /* \"#utility.yul\":12552:12589   */\n      add\n        /* \"#utility.yul\":12539:12550   */\n      dup3\n        /* \"#utility.yul\":12510:12590   */\n      tag_96\n      jump\t// in\n    tag_231:\n        /* \"#utility.yul\":12169:12600   */\n      pop\n      pop\n        /* \"#utility.yul\":12154:12600   */\n    tag_227:\n        /* \"#utility.yul\":12064:12607   */\n      pop\n      pop\n      pop\n      jump\t// out\n        /* \"#utility.yul\":12613:12730   */\n    tag_98:\n        /* \"#utility.yul\":12667:12675   */\n      0x00\n        /* \"#utility.yul\":12717:12722   */\n      dup3\n        /* \"#utility.yul\":12711:12715   */\n      dup3\n        /* \"#utility.yul\":12707:12723   */\n      shr\n        /* \"#utility.yul\":12686:12723   */\n      swap1\n      pop\n        /* \"#utility.yul\":12613:12730   */\n      swap3\n      swap2\n      pop\n      pop\n      jump\t// out\n        /* \"#utility.yul\":12736:12905   */\n    tag_99:\n        /* \"#utility.yul\":12780:12786   */\n      0x00\n        /* \"#utility.yul\":12813:12864   */\n      tag_235\n        /* \"#utility.yul\":12861:12862   */\n      0x00\n        /* \"#utility.yul\":12857:12863   */\n      not\n        /* \"#utility.yul\":12849:12854   */\n      dup5\n        /* \"#utility.yul\":12846:12847   */\n      0x08\n        /* \"#utility.yul\":12842:12855   */\n      mul\n        /* \"#utility.yul\":12813:12864   */\n      tag_98\n      jump\t// in\n    tag_235:\n        /* \"#utility.yul\":12809:12865   */\n      not\n        /* \"#utility.yul\":12894:12898   */\n      dup1\n        /* \"#utility.yul\":12888:12892   */\n      dup4\n        /* \"#utility.yul\":12884:12899   */\n      and\n        /* \"#utility.yul\":12874:12899   */\n      swap2\n      pop\n        /* \"#utility.yul\":12787:12905   */\n      pop\n        /* \"#utility.yul\":12736:12905   */\n      swap3\n      swap2\n      pop\n      pop\n      jump\t// out\n        /* \"#utility.yul\":12910:13205   */\n    tag_100:\n        /* \"#utility.yul\":12986:12990   */\n      0x00\n        /* \"#utility.yul\":13132:13161   */\n      tag_237\n        /* \"#utility.yul\":13157:13160   */\n      dup4\n        /* \"#utility.yul\":13151:13155   */\n      dup4\n        /* \"#utility.yul\":13132:13161   */\n      tag_99\n      jump\t// in\n    tag_237:\n        /* \"#utility.yul\":13124:13161   */\n      swap2\n      pop\n        /* \"#utility.yul\":13194:13197   */\n      dup3\n        /* \"#utility.yul\":13191:13192   */\n      0x02\n        /* \"#utility.yul\":13187:13198   */\n      mul\n        /* \"#utility.yul\":13181:13185   */\n      dup3\n        /* \"#utility.yul\":13178:13199   */\n      or\n        /* \"#utility.yul\":13170:13199   */\n      swap1\n      pop\n        /* \"#utility.yul\":12910:13205   */\n      swap3\n      swap2\n      pop\n      pop\n      jump\t// out\n        /* \"#utility.yul\":13210:14605   */\n    tag_33:\n        /* \"#utility.yul\":13327:13364   */\n      tag_239\n        /* \"#utility.yul\":13360:13363   */\n      dup3\n        /* \"#utility.yul\":13327:13364   */\n      tag_71\n      jump\t// in\n    tag_239:\n        /* \"#utility.yul\":13429:13447   */\n      0xffffffffffffffff\n        /* \"#utility.yul\":13421:13427   */\n      dup2\n        /* \"#utility.yul\":13418:13448   */\n      gt\n        /* \"#utility.yul\":13415:13471   */\n      iszero\n      tag_240\n      jumpi\n        /* \"#utility.yul\":13451:13469   */\n      tag_241\n      tag_58\n      jump\t// in\n    tag_241:\n        /* \"#utility.yul\":13415:13471   */\n    tag_240:\n        /* \"#utility.yul\":13495:13533   */\n      tag_242\n        /* \"#utility.yul\":13527:13531   */\n      dup3\n        /* \"#utility.yul\":13521:13532   */\n      sload\n        /* \"#utility.yul\":13495:13533   */\n      tag_37\n      jump\t// in\n    tag_242:\n        /* \"#utility.yul\":13580:13647   */\n      tag_243\n        /* \"#utility.yul\":13640:13646   */\n      dup3\n        /* \"#utility.yul\":13632:13638   */\n      dup3\n        /* \"#utility.yul\":13626:13630   */\n      dup6\n        /* \"#utility.yul\":13580:13647   */\n      tag_97\n      jump\t// in\n    tag_243:\n        /* \"#utility.yul\":13674:13675   */\n      0x00\n        /* \"#utility.yul\":13698:13702   */\n      0x20\n        /* \"#utility.yul\":13685:13702   */\n      swap1\n      pop\n        /* \"#utility.yul\":13730:13732   */\n      0x1f\n        /* \"#utility.yul\":13722:13728   */\n      dup4\n        /* \"#utility.yul\":13719:13733   */\n      gt\n        /* \"#utility.yul\":13747:13748   */\n      0x01\n        /* \"#utility.yul\":13742:14360   */\n      dup2\n      eq\n      tag_245\n      jumpi\n        /* \"#utility.yul\":14404:14405   */\n      0x00\n        /* \"#utility.yul\":14421:14427   */\n      dup5\n        /* \"#utility.yul\":14418:14495   */\n      iszero\n      tag_246\n      jumpi\n        /* \"#utility.yul\":14470:14479   */\n      dup3\n        /* \"#utility.yul\":14465:14468   */\n      dup8\n        /* \"#utility.yul\":14461:14480   */\n      add\n        /* \"#utility.yul\":14455:14481   */\n      mload\n        /* \"#utility.yul\":14446:14481   */\n      swap1\n      pop\n        /* \"#utility.yul\":14418:14495   */\n    tag_246:\n        /* \"#utility.yul\":14521:14588   */\n      tag_247\n        /* \"#utility.yul\":14581:14587   */\n      dup6\n        /* \"#utility.yul\":14574:14579   */\n      dup3\n        /* \"#utility.yul\":14521:14588   */\n      tag_100\n      jump\t// in\n    tag_247:\n        /* \"#utility.yul\":14515:14519   */\n      dup7\n        /* \"#utility.yul\":14508:14589   */\n      sstore\n        /* \"#utility.yul\":14377:14599   */\n      pop\n        /* \"#utility.yul\":13712:14599   */\n      jump(tag_244)\n        /* \"#utility.yul\":13742:14360   */\n    tag_245:\n        /* \"#utility.yul\":13794:13798   */\n      0x1f\n        /* \"#utility.yul\":13790:13799   */\n      not\n        /* \"#utility.yul\":13782:13788   */\n      dup5\n        /* \"#utility.yul\":13778:13800   */\n      and\n        /* \"#utility.yul\":13828:13865   */\n      tag_248\n        /* \"#utility.yul\":13860:13864   */\n      dup7\n        /* \"#utility.yul\":13828:13865   */\n      tag_86\n      jump\t// in\n    tag_248:\n        /* \"#utility.yul\":13887:13888   */\n      0x00\n        /* \"#utility.yul\":13901:14109   */\n    tag_249:\n        /* \"#utility.yul\":13915:13922   */\n      dup3\n        /* \"#utility.yul\":13912:13913   */\n      dup2\n        /* \"#utility.yul\":13909:13923   */\n      lt\n        /* \"#utility.yul\":13901:14109   */\n      iszero\n      tag_251\n      jumpi\n        /* \"#utility.yul\":13994:14003   */\n      dup5\n        /* \"#utility.yul\":13989:13992   */\n      dup10\n        /* \"#utility.yul\":13985:14004   */\n      add\n        /* \"#utility.yul\":13979:14005   */\n      mload\n        /* \"#utility.yul\":13971:13977   */\n      dup3\n        /* \"#utility.yul\":13964:14006   */\n      sstore\n        /* \"#utility.yul\":14045:14046   */\n      0x01\n        /* \"#utility.yul\":14037:14043   */\n      dup3\n        /* \"#utility.yul\":14033:14047   */\n      add\n        /* \"#utility.yul\":14023:14047   */\n      swap2\n      pop\n        /* \"#utility.yul\":14092:14094   */\n      0x20\n        /* \"#utility.yul\":14081:14090   */\n      dup6\n        /* \"#utility.yul\":14077:14095   */\n      add\n        /* \"#utility.yul\":14064:14095   */\n      swap5\n      pop\n        /* \"#utility.yul\":13938:13942   */\n      0x20\n        /* \"#utility.yul\":13935:13936   */\n      dup2\n        /* \"#utility.yul\":13931:13943   */\n      add\n        /* \"#utility.yul\":13926:13943   */\n      swap1\n      pop\n        /* \"#utility.yul\":13901:14109   */\n      jump(tag_249)\n    tag_251:\n        /* \"#utility.yul\":14137:14143   */\n      dup7\n        /* \"#utility.yul\":14128:14135   */\n      dup4\n        /* \"#utility.yul\":14125:14144   */\n      lt\n        /* \"#utility.yul\":14122:14301   */\n      iszero\n      tag_252\n      jumpi\n        /* \"#utility.yul\":14195:14204   */\n      dup5\n        /* \"#utility.yul\":14190:14193   */\n      dup10\n        /* \"#utility.yul\":14186:14205   */\n      add\n        /* \"#utility.yul\":14180:14206   */\n      mload\n        /* \"#utility.yul\":14238:14286   */\n      tag_253\n        /* \"#utility.yul\":14280:14284   */\n      0x1f\n        /* \"#utility.yul\":14272:14278   */\n      dup10\n        /* \"#utility.yul\":14268:14285   */\n      and\n        /* \"#utility.yul\":14257:14266   */\n      dup3\n        /* \"#utility.yul\":14238:14286   */\n      tag_99\n      jump\t// in\n    tag_253:\n        /* \"#utility.yul\":14230:14236   */\n      dup4\n        /* \"#utility.yul\":14223:14287   */\n      sstore\n        /* \"#utility.yul\":14145:14301   */\n      pop\n        /* \"#utility.yul\":14122:14301   */\n    tag_252:\n        /* \"#utility.yul\":14347:14348   */\n      0x01\n        /* \"#utility.yul\":14343:14344   */\n      0x02\n        /* \"#utility.yul\":14335:14341   */\n      dup9\n        /* \"#utility.yul\":14331:14345   */\n      mul\n        /* \"#utility.yul\":14327:14349   */\n      add\n        /* \"#utility.yul\":14321:14325   */\n      dup9\n        /* \"#utility.yul\":14314:14350   */\n      sstore\n        /* \"#utility.yul\":13749:14360   */\n      pop\n      pop\n      pop\n        /* \"#utility.yul\":13712:14599   */\n    tag_244:\n      pop\n        /* \"#utility.yul\":13302:14605   */\n      pop\n      pop\n      pop\n        /* \"#utility.yul\":13210:14605   */\n      pop\n      pop\n      jump\t// out\n        /* \"#utility.yul\":14611:14791   */\n    tag_45:\n        /* \"#utility.yul\":14659:14736   */\n      0x4e487b7100000000000000000000000000000000000000000000000000000000\n        /* \"#utility.yul\":14656:14657   */\n      0x00\n        /* \"#utility.yul\":14649:14737   */\n      mstore\n        /* \"#utility.yul\":14756:14760   */\n      0x32\n        /* \"#utility.yul\":14753:14754   */\n      0x04\n        /* \"#utility.yul\":14746:14761   */\n      mstore\n        /* \"#utility.yul\":14780:14784   */\n      0x24\n        /* \"#utility.yul\":14777:14778   */\n      0x00\n        /* \"#utility.yul\":14770:14785   */\n      revert\n\n    auxdata: 0xa26469706673582212205db140105351b67cc4590ec7fdb27cae8655800c04df4800dfb6037d0ae67d9d64736f6c634300081a0033\n}\n",
				"bytecode": {
					"linkReferences": {},
					"object": "6080604052348015600e575f80fd5b50610bb78061001c5f395ff3fe608060405234801561000f575f80fd5b506004361061003f575f3560e01c80631dfc29621461004357806335f342321461005f578063642f916314610091575b5f80fd5b61005d60048036038101906100589190610596565b6100c3565b005b61007960048036038101906100749190610602565b61021b565b604051610088939291906106ab565b60405180910390f35b6100ab60048036038101906100a69190610602565b6102e1565b6040516100ba939291906106ab565b60405180910390f35b6012821015610107576040517f08c379a00000000000000000000000000000000000000000000000000000000081526004016100fe90610757565b60405180910390fd5b604051602001610116906107c9565b604051602081830303815290604052805190602001208360405160200161013d919061080d565b6040516020818303038152906040528051906020012003610193576040517f08c379a000000000000000000000000000000000000000000000000000000000815260040161018a9061086d565b60405180910390fd5b5f6040518060600160405280858152602001848152602001831515815250908060018154018082558091505060019003905f5260205f2090600302015f909190919091505f820151815f0190816101ea9190610a85565b50602082015181600101556040820151816002015f6101000a81548160ff0219169083151502179055505050505050565b5f8181548110610229575f80fd5b905f5260205f2090600302015f91509050805f018054610248906108b8565b80601f0160208091040260200160405190810160405280929190818152602001828054610274906108b8565b80156102bf5780601f10610296576101008083540402835291602001916102bf565b820191905f5260205f20905b8154815290600101906020018083116102a257829003601f168201915b505050505090806001015490806002015f9054906101000a900460ff16905083565b60605f805f8085815481106102f9576102f8610b54565b5b905f5260205f2090600302016040518060600160405290815f8201805461031f906108b8565b80601f016020809104026020016040519081016040528092919081815260200182805461034b906108b8565b80156103965780601f1061036d57610100808354040283529160200191610396565b820191905f5260205f20905b81548152906001019060200180831161037957829003601f168201915b5050505050815260200160018201548152602001600282015f9054906101000a900460ff1615151515815250509050805f015181602001518260400151935093509350509193909250565b5f604051905090565b5f80fd5b5f80fd5b5f80fd5b5f80fd5b5f601f19601f8301169050919050565b7f4e487b71000000000000000000000000000000000000000000000000000000005f52604160045260245ffd5b610440826103fa565b810181811067ffffffffffffffff8211171561045f5761045e61040a565b5b80604052505050565b5f6104716103e1565b905061047d8282610437565b919050565b5f67ffffffffffffffff82111561049c5761049b61040a565b5b6104a5826103fa565b9050602081019050919050565b828183375f83830152505050565b5f6104d26104cd84610482565b610468565b9050828152602081018484840111156104ee576104ed6103f6565b5b6104f98482856104b2565b509392505050565b5f82601f830112610515576105146103f2565b5b81356105258482602086016104c0565b91505092915050565b5f819050919050565b6105408161052e565b811461054a575f80fd5b50565b5f8135905061055b81610537565b92915050565b5f8115159050919050565b61057581610561565b811461057f575f80fd5b50565b5f813590506105908161056c565b92915050565b5f805f606084860312156105ad576105ac6103ea565b5b5f84013567ffffffffffffffff8111156105ca576105c96103ee565b5b6105d686828701610501565b93505060206105e78682870161054d565b92505060406105f886828701610582565b9150509250925092565b5f60208284031215610617576106166103ea565b5b5f6106248482850161054d565b91505092915050565b5f81519050919050565b5f82825260208201905092915050565b8281835e5f83830152505050565b5f61065f8261062d565b6106698185610637565b9350610679818560208601610647565b610682816103fa565b840191505092915050565b6106968161052e565b82525050565b6106a581610561565b82525050565b5f6060820190508181035f8301526106c38186610655565b90506106d2602083018561068d565b6106df604083018461069c565b949350505050565b7f73747564656e7473206d757374206265206174206c65617374203138207965615f8201527f7273206f6c640000000000000000000000000000000000000000000000000000602082015250565b5f610741602683610637565b915061074c826106e7565b604082019050919050565b5f6020820190508181035f83015261076e81610735565b9050919050565b5f81905092915050565b7f20000000000000000000000000000000000000000000000000000000000000005f82015250565b5f6107b3600183610775565b91506107be8261077f565b600182019050919050565b5f6107d3826107a7565b9150819050919050565b5f6107e78261062d565b6107f18185610775565b9350610801818560208601610647565b80840191505092915050565b5f61081882846107dd565b915081905092915050565b7f6e616d652063616e6e6f7420626520656d7074790000000000000000000000005f82015250565b5f610857601483610637565b915061086282610823565b602082019050919050565b5f6020820190508181035f8301526108848161084b565b9050919050565b7f4e487b71000000000000000000000000000000000000000000000000000000005f52602260045260245ffd5b5f60028204905060018216806108cf57607f821691505b6020821081036108e2576108e161088b565b5b50919050565b5f819050815f5260205f209050919050565b5f6020601f8301049050919050565b5f82821b905092915050565b5f600883026109447fffffffffffffffffffffffffffffffffffffffffffffffffffffffffffffffff82610909565b61094e8683610909565b95508019841693508086168417925050509392505050565b5f819050919050565b5f61098961098461097f8461052e565b610966565b61052e565b9050919050565b5f819050919050565b6109a28361096f565b6109b66109ae82610990565b848454610915565b825550505050565b5f90565b6109ca6109be565b6109d5818484610999565b505050565b5b818110156109f8576109ed5f826109c2565b6001810190506109db565b5050565b601f821115610a3d57610a0e816108e8565b610a17846108fa565b81016020851015610a26578190505b610a3a610a32856108fa565b8301826109da565b50505b505050565b5f82821c905092915050565b5f610a5d5f1984600802610a42565b1980831691505092915050565b5f610a758383610a4e565b9150826002028217905092915050565b610a8e8261062d565b67ffffffffffffffff811115610aa757610aa661040a565b5b610ab182546108b8565b610abc8282856109fc565b5f60209050601f831160018114610aed575f8415610adb578287015190505b610ae58582610a6a565b865550610b4c565b601f198416610afb866108e8565b5f5b82811015610b2257848901518255600182019150602085019450602081019050610afd565b86831015610b3f5784890151610b3b601f891682610a4e565b8355505b6001600288020188555050505b505050505050565b7f4e487b71000000000000000000000000000000000000000000000000000000005f52603260045260245ffdfea26469706673582212205db140105351b67cc4590ec7fdb27cae8655800c04df4800dfb6037d0ae67d9d64736f6c634300081a0033",
					"opcodes": "PUSH1 0x80 PUSH1 0x40 MSTORE CALLVALUE DUP1 ISZERO PUSH1 0xE JUMPI PUSH0 DUP1 REVERT JUMPDEST POP PUSH2 0xBB7 DUP1 PUSH2 0x1C PUSH0 CODECOPY PUSH0 RETURN INVALID PUSH1 0x80 PUSH1 0x40 MSTORE CALLVALUE DUP1 ISZERO PUSH2 0xF JUMPI PUSH0 DUP1 REVERT JUMPDEST POP PUSH1 0x4 CALLDATASIZE LT PUSH2 0x3F JUMPI PUSH0 CALLDATALOAD PUSH1 0xE0 SHR DUP1 PUSH4 0x1DFC2962 EQ PUSH2 0x43 JUMPI DUP1 PUSH4 0x35F34232 EQ PUSH2 0x5F JUMPI DUP1 PUSH4 0x642F9163 EQ PUSH2 0x91 JUMPI JUMPDEST PUSH0 DUP1 REVERT JUMPDEST PUSH2 0x5D PUSH1 0x4 DUP1 CALLDATASIZE SUB DUP2 ADD SWAP1 PUSH2 0x58 SWAP2 SWAP1 PUSH2 0x596 JUMP JUMPDEST PUSH2 0xC3 JUMP JUMPDEST STOP JUMPDEST PUSH2 0x79 PUSH1 0x4 DUP1 CALLDATASIZE SUB DUP2 ADD SWAP1 PUSH2 0x74 SWAP2 SWAP1 PUSH2 0x602 JUMP JUMPDEST PUSH2 0x21B JUMP JUMPDEST PUSH1 0x40 MLOAD PUSH2 0x88 SWAP4 SWAP3 SWAP2 SWAP1 PUSH2 0x6AB JUMP JUMPDEST PUSH1 0x40 MLOAD DUP1 SWAP2 SUB SWAP1 RETURN JUMPDEST PUSH2 0xAB PUSH1 0x4 DUP1 CALLDATASIZE SUB DUP2 ADD SWAP1 PUSH2 0xA6 SWAP2 SWAP1 PUSH2 0x602 JUMP JUMPDEST PUSH2 0x2E1 JUMP JUMPDEST PUSH1 0x40 MLOAD PUSH2 0xBA SWAP4 SWAP3 SWAP2 SWAP1 PUSH2 0x6AB JUMP JUMPDEST PUSH1 0x40 MLOAD DUP1 SWAP2 SUB SWAP1 RETURN JUMPDEST PUSH1 0x12 DUP3 LT ISZERO PUSH2 0x107 JUMPI PUSH1 0x40 MLOAD PUSH32 0x8C379A000000000000000000000000000000000000000000000000000000000 DUP2 MSTORE PUSH1 0x4 ADD PUSH2 0xFE SWAP1 PUSH2 0x757 JUMP JUMPDEST PUSH1 0x40 MLOAD DUP1 SWAP2 SUB SWAP1 REVERT JUMPDEST PUSH1 0x40 MLOAD PUSH1 0x20 ADD PUSH2 0x116 SWAP1 PUSH2 0x7C9 JUMP JUMPDEST PUSH1 0x40 MLOAD PUSH1 0x20 DUP2 DUP4 SUB SUB DUP2 MSTORE SWAP1 PUSH1 0x40 MSTORE DUP1 MLOAD SWAP1 PUSH1 0x20 ADD KECCAK256 DUP4 PUSH1 0x40 MLOAD PUSH1 0x20 ADD PUSH2 0x13D SWAP2 SWAP1 PUSH2 0x80D JUMP JUMPDEST PUSH1 0x40 MLOAD PUSH1 0x20 DUP2 DUP4 SUB SUB DUP2 MSTORE SWAP1 PUSH1 0x40 MSTORE DUP1 MLOAD SWAP1 PUSH1 0x20 ADD KECCAK256 SUB PUSH2 0x193 JUMPI PUSH1 0x40 MLOAD PUSH32 0x8C379A000000000000000000000000000000000000000000000000000000000 DUP2 MSTORE PUSH1 0x4 ADD PUSH2 0x18A SWAP1 PUSH2 0x86D JUMP JUMPDEST PUSH1 0x40 MLOAD DUP1 SWAP2 SUB SWAP1 REVERT JUMPDEST PUSH0 PUSH1 0x40 MLOAD DUP1 PUSH1 0x60 ADD PUSH1 0x40 MSTORE DUP1 DUP6 DUP2 MSTORE PUSH1 0x20 ADD DUP5 DUP2 MSTORE PUSH1 0x20 ADD DUP4 ISZERO ISZERO DUP2 MSTORE POP SWAP1 DUP1 PUSH1 0x1 DUP2 SLOAD ADD DUP1 DUP3 SSTORE DUP1 SWAP2 POP POP PUSH1 0x1 SWAP1 SUB SWAP1 PUSH0 MSTORE PUSH1 0x20 PUSH0 KECCAK256 SWAP1 PUSH1 0x3 MUL ADD PUSH0 SWAP1 SWAP2 SWAP1 SWAP2 SWAP1 SWAP2 POP PUSH0 DUP3 ADD MLOAD DUP2 PUSH0 ADD SWAP1 DUP2 PUSH2 0x1EA SWAP2 SWAP1 PUSH2 0xA85 JUMP JUMPDEST POP PUSH1 0x20 DUP3 ADD MLOAD DUP2 PUSH1 0x1 ADD SSTORE PUSH1 0x40 DUP3 ADD MLOAD DUP2 PUSH1 0x2 ADD PUSH0 PUSH2 0x100 EXP DUP2 SLOAD DUP2 PUSH1 0xFF MUL NOT AND SWAP1 DUP4 ISZERO ISZERO MUL OR SWAP1 SSTORE POP POP POP POP POP POP JUMP JUMPDEST PUSH0 DUP2 DUP2 SLOAD DUP2 LT PUSH2 0x229 JUMPI PUSH0 DUP1 REVERT JUMPDEST SWAP1 PUSH0 MSTORE PUSH1 0x20 PUSH0 KECCAK256 SWAP1 PUSH1 0x3 MUL ADD PUSH0 SWAP2 POP SWAP1 POP DUP1 PUSH0 ADD DUP1 SLOAD PUSH2 0x248 SWAP1 PUSH2 0x8B8 JUMP JUMPDEST DUP1 PUSH1 0x1F ADD PUSH1 0x20 DUP1 SWAP2 DIV MUL PUSH1 0x20 ADD PUSH1 0x40 MLOAD SWAP1 DUP2 ADD PUSH1 0x40 MSTORE DUP1 SWAP3 SWAP2 SWAP1 DUP2 DUP2 MSTORE PUSH1 0x20 ADD DUP3 DUP1 SLOAD PUSH2 0x274 SWAP1 PUSH2 0x8B8 JUMP JUMPDEST DUP1 ISZERO PUSH2 0x2BF JUMPI DUP1 PUSH1 0x1F LT PUSH2 0x296 JUMPI PUSH2 0x100 DUP1 DUP4 SLOAD DIV MUL DUP4 MSTORE SWAP2 PUSH1 0x20 ADD SWAP2 PUSH2 0x2BF JUMP JUMPDEST DUP3 ADD SWAP2 SWAP1 PUSH0 MSTORE PUSH1 0x20 PUSH0 KECCAK256 SWAP1 JUMPDEST DUP2 SLOAD DUP2 MSTORE SWAP1 PUSH1 0x1 ADD SWAP1 PUSH1 0x20 ADD DUP1 DUP4 GT PUSH2 0x2A2 JUMPI DUP3 SWAP1 SUB PUSH1 0x1F AND DUP3 ADD SWAP2 JUMPDEST POP POP POP POP POP SWAP1 DUP1 PUSH1 0x1 ADD SLOAD SWAP1 DUP1 PUSH1 0x2 ADD PUSH0 SWAP1 SLOAD SWAP1 PUSH2 0x100 EXP SWAP1 DIV PUSH1 0xFF AND SWAP1 POP DUP4 JUMP JUMPDEST PUSH1 0x60 PUSH0 DUP1 PUSH0 DUP1 DUP6 DUP2 SLOAD DUP2 LT PUSH2 0x2F9 JUMPI PUSH2 0x2F8 PUSH2 0xB54 JUMP JUMPDEST JUMPDEST SWAP1 PUSH0 MSTORE PUSH1 0x20 PUSH0 KECCAK256 SWAP1 PUSH1 0x3 MUL ADD PUSH1 0x40 MLOAD DUP1 PUSH1 0x60 ADD PUSH1 0x40 MSTORE SWAP1 DUP2 PUSH0 DUP3 ADD DUP1 SLOAD PUSH2 0x31F SWAP1 PUSH2 0x8B8 JUMP JUMPDEST DUP1 PUSH1 0x1F ADD PUSH1 0x20 DUP1 SWAP2 DIV MUL PUSH1 0x20 ADD PUSH1 0x40 MLOAD SWAP1 DUP2 ADD PUSH1 0x40 MSTORE DUP1 SWAP3 SWAP2 SWAP1 DUP2 DUP2 MSTORE PUSH1 0x20 ADD DUP3 DUP1 SLOAD PUSH2 0x34B SWAP1 PUSH2 0x8B8 JUMP JUMPDEST DUP1 ISZERO PUSH2 0x396 JUMPI DUP1 PUSH1 0x1F LT PUSH2 0x36D JUMPI PUSH2 0x100 DUP1 DUP4 SLOAD DIV MUL DUP4 MSTORE SWAP2 PUSH1 0x20 ADD SWAP2 PUSH2 0x396 JUMP JUMPDEST DUP3 ADD SWAP2 SWAP1 PUSH0 MSTORE PUSH1 0x20 PUSH0 KECCAK256 SWAP1 JUMPDEST DUP2 SLOAD DUP2 MSTORE SWAP1 PUSH1 0x1 ADD SWAP1 PUSH1 0x20 ADD DUP1 DUP4 GT PUSH2 0x379 JUMPI DUP3 SWAP1 SUB PUSH1 0x1F AND DUP3 ADD SWAP2 JUMPDEST POP POP POP POP POP DUP2 MSTORE PUSH1 0x20 ADD PUSH1 0x1 DUP3 ADD SLOAD DUP2 MSTORE PUSH1 0x20 ADD PUSH1 0x2 DUP3 ADD PUSH0 SWAP1 SLOAD SWAP1 PUSH2 0x100 EXP SWAP1 DIV PUSH1 0xFF AND ISZERO ISZERO ISZERO ISZERO DUP2 MSTORE POP POP SWAP1 POP DUP1 PUSH0 ADD MLOAD DUP2 PUSH1 0x20 ADD MLOAD DUP3 PUSH1 0x40 ADD MLOAD SWAP4 POP SWAP4 POP SWAP4 POP POP SWAP2 SWAP4 SWAP1 SWAP3 POP JUMP JUMPDEST PUSH0 PUSH1 0x40 MLOAD SWAP1 POP SWAP1 JUMP JUMPDEST PUSH0 DUP1 REVERT JUMPDEST PUSH0 DUP1 REVERT JUMPDEST PUSH0 DUP1 REVERT JUMPDEST PUSH0 DUP1 REVERT JUMPDEST PUSH0 PUSH1 0x1F NOT PUSH1 0x1F DUP4 ADD AND SWAP1 POP SWAP2 SWAP1 POP JUMP JUMPDEST PUSH32 0x4E487B7100000000000000000000000000000000000000000000000000000000 PUSH0 MSTORE PUSH1 0x41 PUSH1 0x4 MSTORE PUSH1 0x24 PUSH0 REVERT JUMPDEST PUSH2 0x440 DUP3 PUSH2 0x3FA JUMP JUMPDEST DUP2 ADD DUP2 DUP2 LT PUSH8 0xFFFFFFFFFFFFFFFF DUP3 GT OR ISZERO PUSH2 0x45F JUMPI PUSH2 0x45E PUSH2 0x40A JUMP JUMPDEST JUMPDEST DUP1 PUSH1 0x40 MSTORE POP POP POP JUMP JUMPDEST PUSH0 PUSH2 0x471 PUSH2 0x3E1 JUMP JUMPDEST SWAP1 POP PUSH2 0x47D DUP3 DUP3 PUSH2 0x437 JUMP JUMPDEST SWAP2 SWAP1 POP JUMP JUMPDEST PUSH0 PUSH8 0xFFFFFFFFFFFFFFFF DUP3 GT ISZERO PUSH2 0x49C JUMPI PUSH2 0x49B PUSH2 0x40A JUMP JUMPDEST JUMPDEST PUSH2 0x4A5 DUP3 PUSH2 0x3FA JUMP JUMPDEST SWAP1 POP PUSH1 0x20 DUP2 ADD SWAP1 POP SWAP2 SWAP1 POP JUMP JUMPDEST DUP3 DUP2 DUP4 CALLDATACOPY PUSH0 DUP4 DUP4 ADD MSTORE POP POP POP JUMP JUMPDEST PUSH0 PUSH2 0x4D2 PUSH2 0x4CD DUP5 PUSH2 0x482 JUMP JUMPDEST PUSH2 0x468 JUMP JUMPDEST SWAP1 POP DUP3 DUP2 MSTORE PUSH1 0x20 DUP2 ADD DUP5 DUP5 DUP5 ADD GT ISZERO PUSH2 0x4EE JUMPI PUSH2 0x4ED PUSH2 0x3F6 JUMP JUMPDEST JUMPDEST PUSH2 0x4F9 DUP5 DUP3 DUP6 PUSH2 0x4B2 JUMP JUMPDEST POP SWAP4 SWAP3 POP POP POP JUMP JUMPDEST PUSH0 DUP3 PUSH1 0x1F DUP4 ADD SLT PUSH2 0x515 JUMPI PUSH2 0x514 PUSH2 0x3F2 JUMP JUMPDEST JUMPDEST DUP2 CALLDATALOAD PUSH2 0x525 DUP5 DUP3 PUSH1 0x20 DUP7 ADD PUSH2 0x4C0 JUMP JUMPDEST SWAP2 POP POP SWAP3 SWAP2 POP POP JUMP JUMPDEST PUSH0 DUP2 SWAP1 POP SWAP2 SWAP1 POP JUMP JUMPDEST PUSH2 0x540 DUP2 PUSH2 0x52E JUMP JUMPDEST DUP2 EQ PUSH2 0x54A JUMPI PUSH0 DUP1 REVERT JUMPDEST POP JUMP JUMPDEST PUSH0 DUP2 CALLDATALOAD SWAP1 POP PUSH2 0x55B DUP2 PUSH2 0x537 JUMP JUMPDEST SWAP3 SWAP2 POP POP JUMP JUMPDEST PUSH0 DUP2 ISZERO ISZERO SWAP1 POP SWAP2 SWAP1 POP JUMP JUMPDEST PUSH2 0x575 DUP2 PUSH2 0x561 JUMP JUMPDEST DUP2 EQ PUSH2 0x57F JUMPI PUSH0 DUP1 REVERT JUMPDEST POP JUMP JUMPDEST PUSH0 DUP2 CALLDATALOAD SWAP1 POP PUSH2 0x590 DUP2 PUSH2 0x56C JUMP JUMPDEST SWAP3 SWAP2 POP POP JUMP JUMPDEST PUSH0 DUP1 PUSH0 PUSH1 0x60 DUP5 DUP7 SUB SLT ISZERO PUSH2 0x5AD JUMPI PUSH2 0x5AC PUSH2 0x3EA JUMP JUMPDEST JUMPDEST PUSH0 DUP5 ADD CALLDATALOAD PUSH8 0xFFFFFFFFFFFFFFFF DUP2 GT ISZERO PUSH2 0x5CA JUMPI PUSH2 0x5C9 PUSH2 0x3EE JUMP JUMPDEST JUMPDEST PUSH2 0x5D6 DUP7 DUP3 DUP8 ADD PUSH2 0x501 JUMP JUMPDEST SWAP4 POP POP PUSH1 0x20 PUSH2 0x5E7 DUP7 DUP3 DUP8 ADD PUSH2 0x54D JUMP JUMPDEST SWAP3 POP POP PUSH1 0x40 PUSH2 0x5F8 DUP7 DUP3 DUP8 ADD PUSH2 0x582 JUMP JUMPDEST SWAP2 POP POP SWAP3 POP SWAP3 POP SWAP3 JUMP JUMPDEST PUSH0 PUSH1 0x20 DUP3 DUP5 SUB SLT ISZERO PUSH2 0x617 JUMPI PUSH2 0x616 PUSH2 0x3EA JUMP JUMPDEST JUMPDEST PUSH0 PUSH2 0x624 DUP5 DUP3 DUP6 ADD PUSH2 0x54D JUMP JUMPDEST SWAP2 POP POP SWAP3 SWAP2 POP POP JUMP JUMPDEST PUSH0 DUP2 MLOAD SWAP1 POP SWAP2 SWAP1 POP JUMP JUMPDEST PUSH0 DUP3 DUP3 MSTORE PUSH1 0x20 DUP3 ADD SWAP1 POP SWAP3 SWAP2 POP POP JUMP JUMPDEST DUP3 DUP2 DUP4 MCOPY PUSH0 DUP4 DUP4 ADD MSTORE POP POP POP JUMP JUMPDEST PUSH0 PUSH2 0x65F DUP3 PUSH2 0x62D JUMP JUMPDEST PUSH2 0x669 DUP2 DUP6 PUSH2 0x637 JUMP JUMPDEST SWAP4 POP PUSH2 0x679 DUP2 DUP6 PUSH1 0x20 DUP7 ADD PUSH2 0x647 JUMP JUMPDEST PUSH2 0x682 DUP2 PUSH2 0x3FA JUMP JUMPDEST DUP5 ADD SWAP2 POP POP SWAP3 SWAP2 POP POP JUMP JUMPDEST PUSH2 0x696 DUP2 PUSH2 0x52E JUMP JUMPDEST DUP3 MSTORE POP POP JUMP JUMPDEST PUSH2 0x6A5 DUP2 PUSH2 0x561 JUMP JUMPDEST DUP3 MSTORE POP POP JUMP JUMPDEST PUSH0 PUSH1 0x60 DUP3 ADD SWAP1 POP DUP2 DUP2 SUB PUSH0 DUP4 ADD MSTORE PUSH2 0x6C3 DUP2 DUP7 PUSH2 0x655 JUMP JUMPDEST SWAP1 POP PUSH2 0x6D2 PUSH1 0x20 DUP4 ADD DUP6 PUSH2 0x68D JUMP JUMPDEST PUSH2 0x6DF PUSH1 0x40 DUP4 ADD DUP5 PUSH2 0x69C JUMP JUMPDEST SWAP5 SWAP4 POP POP POP POP JUMP JUMPDEST PUSH32 0x73747564656E7473206D757374206265206174206C6561737420313820796561 PUSH0 DUP3 ADD MSTORE PUSH32 0x7273206F6C640000000000000000000000000000000000000000000000000000 PUSH1 0x20 DUP3 ADD MSTORE POP JUMP JUMPDEST PUSH0 PUSH2 0x741 PUSH1 0x26 DUP4 PUSH2 0x637 JUMP JUMPDEST SWAP2 POP PUSH2 0x74C DUP3 PUSH2 0x6E7 JUMP JUMPDEST PUSH1 0x40 DUP3 ADD SWAP1 POP SWAP2 SWAP1 POP JUMP JUMPDEST PUSH0 PUSH1 0x20 DUP3 ADD SWAP1 POP DUP2 DUP2 SUB PUSH0 DUP4 ADD MSTORE PUSH2 0x76E DUP2 PUSH2 0x735 JUMP JUMPDEST SWAP1 POP SWAP2 SWAP1 POP JUMP JUMPDEST PUSH0 DUP2 SWAP1 POP SWAP3 SWAP2 POP POP JUMP JUMPDEST PUSH32 0x2000000000000000000000000000000000000000000000000000000000000000 PUSH0 DUP3 ADD MSTORE POP JUMP JUMPDEST PUSH0 PUSH2 0x7B3 PUSH1 0x1 DUP4 PUSH2 0x775 JUMP JUMPDEST SWAP2 POP PUSH2 0x7BE DUP3 PUSH2 0x77F JUMP JUMPDEST PUSH1 0x1 DUP3 ADD SWAP1 POP SWAP2 SWAP1 POP JUMP JUMPDEST PUSH0 PUSH2 0x7D3 DUP3 PUSH2 0x7A7 JUMP JUMPDEST SWAP2 POP DUP2 SWAP1 POP SWAP2 SWAP1 POP JUMP JUMPDEST PUSH0 PUSH2 0x7E7 DUP3 PUSH2 0x62D JUMP JUMPDEST PUSH2 0x7F1 DUP2 DUP6 PUSH2 0x775 JUMP JUMPDEST SWAP4 POP PUSH2 0x801 DUP2 DUP6 PUSH1 0x20 DUP7 ADD PUSH2 0x647 JUMP JUMPDEST DUP1 DUP5 ADD SWAP2 POP POP SWAP3 SWAP2 POP POP JUMP JUMPDEST PUSH0 PUSH2 0x818 DUP3 DUP5 PUSH2 0x7DD JUMP JUMPDEST SWAP2 POP DUP2 SWAP1 POP SWAP3 SWAP2 POP POP JUMP JUMPDEST PUSH32 0x6E616D652063616E6E6F7420626520656D707479000000000000000000000000 PUSH0 DUP3 ADD MSTORE POP JUMP JUMPDEST PUSH0 PUSH2 0x857 PUSH1 0x14 DUP4 PUSH2 0x637 JUMP JUMPDEST SWAP2 POP PUSH2 0x862 DUP3 PUSH2 0x823 JUMP JUMPDEST PUSH1 0x20 DUP3 ADD SWAP1 POP SWAP2 SWAP1 POP JUMP JUMPDEST PUSH0 PUSH1 0x20 DUP3 ADD SWAP1 POP DUP2 DUP2 SUB PUSH0 DUP4 ADD MSTORE PUSH2 0x884 DUP2 PUSH2 0x84B JUMP JUMPDEST SWAP1 POP SWAP2 SWAP1 POP JUMP JUMPDEST PUSH32 0x4E487B7100000000000000000000000000000000000000000000000000000000 PUSH0 MSTORE PUSH1 0x22 PUSH1 0x4 MSTORE PUSH1 0x24 PUSH0 REVERT JUMPDEST PUSH0 PUSH1 0x2 DUP3 DIV SWAP1 POP PUSH1 0x1 DUP3 AND DUP1 PUSH2 0x8CF JUMPI PUSH1 0x7F DUP3 AND SWAP2 POP JUMPDEST PUSH1 0x20 DUP3 LT DUP2 SUB PUSH2 0x8E2 JUMPI PUSH2 0x8E1 PUSH2 0x88B JUMP JUMPDEST JUMPDEST POP SWAP2 SWAP1 POP JUMP JUMPDEST PUSH0 DUP2 SWAP1 POP DUP2 PUSH0 MSTORE PUSH1 0x20 PUSH0 KECCAK256 SWAP1 POP SWAP2 SWAP1 POP JUMP JUMPDEST PUSH0 PUSH1 0x20 PUSH1 0x1F DUP4 ADD DIV SWAP1 POP SWAP2 SWAP1 POP JUMP JUMPDEST PUSH0 DUP3 DUP3 SHL SWAP1 POP SWAP3 SWAP2 POP POP JUMP JUMPDEST PUSH0 PUSH1 0x8 DUP4 MUL PUSH2 0x944 PUSH32 0xFFFFFFFFFFFFFFFFFFFFFFFFFFFFFFFFFFFFFFFFFFFFFFFFFFFFFFFFFFFFFFFF DUP3 PUSH2 0x909 JUMP JUMPDEST PUSH2 0x94E DUP7 DUP4 PUSH2 0x909 JUMP JUMPDEST SWAP6 POP DUP1 NOT DUP5 AND SWAP4 POP DUP1 DUP7 AND DUP5 OR SWAP3 POP POP POP SWAP4 SWAP3 POP POP POP JUMP JUMPDEST PUSH0 DUP2 SWAP1 POP SWAP2 SWAP1 POP JUMP JUMPDEST PUSH0 PUSH2 0x989 PUSH2 0x984 PUSH2 0x97F DUP5 PUSH2 0x52E JUMP JUMPDEST PUSH2 0x966 JUMP JUMPDEST PUSH2 0x52E JUMP JUMPDEST SWAP1 POP SWAP2 SWAP1 POP JUMP JUMPDEST PUSH0 DUP2 SWAP1 POP SWAP2 SWAP1 POP JUMP JUMPDEST PUSH2 0x9A2 DUP4 PUSH2 0x96F JUMP JUMPDEST PUSH2 0x9B6 PUSH2 0x9AE DUP3 PUSH2 0x990 JUMP JUMPDEST DUP5 DUP5 SLOAD PUSH2 0x915 JUMP JUMPDEST DUP3 SSTORE POP POP POP POP JUMP JUMPDEST PUSH0 SWAP1 JUMP JUMPDEST PUSH2 0x9CA PUSH2 0x9BE JUMP JUMPDEST PUSH2 0x9D5 DUP2 DUP5 DUP5 PUSH2 0x999 JUMP JUMPDEST POP POP POP JUMP JUMPDEST JUMPDEST DUP2 DUP2 LT ISZERO PUSH2 0x9F8 JUMPI PUSH2 0x9ED PUSH0 DUP3 PUSH2 0x9C2 JUMP JUMPDEST PUSH1 0x1 DUP2 ADD SWAP1 POP PUSH2 0x9DB JUMP JUMPDEST POP POP JUMP JUMPDEST PUSH1 0x1F DUP3 GT ISZERO PUSH2 0xA3D JUMPI PUSH2 0xA0E DUP2 PUSH2 0x8E8 JUMP JUMPDEST PUSH2 0xA17 DUP5 PUSH2 0x8FA JUMP JUMPDEST DUP2 ADD PUSH1 0x20 DUP6 LT ISZERO PUSH2 0xA26 JUMPI DUP2 SWAP1 POP JUMPDEST PUSH2 0xA3A PUSH2 0xA32 DUP6 PUSH2 0x8FA JUMP JUMPDEST DUP4 ADD DUP3 PUSH2 0x9DA JUMP JUMPDEST POP POP JUMPDEST POP POP POP JUMP JUMPDEST PUSH0 DUP3 DUP3 SHR SWAP1 POP SWAP3 SWAP2 POP POP JUMP JUMPDEST PUSH0 PUSH2 0xA5D PUSH0 NOT DUP5 PUSH1 0x8 MUL PUSH2 0xA42 JUMP JUMPDEST NOT DUP1 DUP4 AND SWAP2 POP POP SWAP3 SWAP2 POP POP JUMP JUMPDEST PUSH0 PUSH2 0xA75 DUP4 DUP4 PUSH2 0xA4E JUMP JUMPDEST SWAP2 POP DUP3 PUSH1 0x2 MUL DUP3 OR SWAP1 POP SWAP3 SWAP2 POP POP JUMP JUMPDEST PUSH2 0xA8E DUP3 PUSH2 0x62D JUMP JUMPDEST PUSH8 0xFFFFFFFFFFFFFFFF DUP2 GT ISZERO PUSH2 0xAA7 JUMPI PUSH2 0xAA6 PUSH2 0x40A JUMP JUMPDEST JUMPDEST PUSH2 0xAB1 DUP3 SLOAD PUSH2 0x8B8 JUMP JUMPDEST PUSH2 0xABC DUP3 DUP3 DUP6 PUSH2 0x9FC JUMP JUMPDEST PUSH0 PUSH1 0x20 SWAP1 POP PUSH1 0x1F DUP4 GT PUSH1 0x1 DUP2 EQ PUSH2 0xAED JUMPI PUSH0 DUP5 ISZERO PUSH2 0xADB JUMPI DUP3 DUP8 ADD MLOAD SWAP1 POP JUMPDEST PUSH2 0xAE5 DUP6 DUP3 PUSH2 0xA6A JUMP JUMPDEST DUP7 SSTORE POP PUSH2 0xB4C JUMP JUMPDEST PUSH1 0x1F NOT DUP5 AND PUSH2 0xAFB DUP7 PUSH2 0x8E8 JUMP JUMPDEST PUSH0 JUMPDEST DUP3 DUP2 LT ISZERO PUSH2 0xB22 JUMPI DUP5 DUP10 ADD MLOAD DUP3 SSTORE PUSH1 0x1 DUP3 ADD SWAP2 POP PUSH1 0x20 DUP6 ADD SWAP5 POP PUSH1 0x20 DUP2 ADD SWAP1 POP PUSH2 0xAFD JUMP JUMPDEST DUP7 DUP4 LT ISZERO PUSH2 0xB3F JUMPI DUP5 DUP10 ADD MLOAD PUSH2 0xB3B PUSH1 0x1F DUP10 AND DUP3 PUSH2 0xA4E JUMP JUMPDEST DUP4 SSTORE POP JUMPDEST PUSH1 0x1 PUSH1 0x2 DUP9 MUL ADD DUP9 SSTORE POP POP POP JUMPDEST POP POP POP POP POP POP JUMP JUMPDEST PUSH32 0x4E487B7100000000000000000000000000000000000000000000000000000000 PUSH0 MSTORE PUSH1 0x32 PUSH1 0x4 MSTORE PUSH1 0x24 PUSH0 REVERT INVALID LOG2 PUSH5 0x6970667358 0x22 SLT KECCAK256 TSTORE 0xB1 BLOCKHASH LT MSTORE8 MLOAD 0xB6 PUSH29 0xC4590EC7FDB27CAE8655800C04DF4800DFB6037D0AE67D9D64736F6C63 NUMBER STOP ADDMOD BYTE STOP CALLER "
				},
				"gasEstimates": {
					"creation": {
						"codeDepositCost": "599800",
						"executionCost": "630",
						"totalCost": "600430"
					},
					"external": {
						"addStudent(string,uint256,bool)": "infinite",
						"getStudent(uint256)": "infinite",
						"student(uint256)": "infinite"
					}
				},
				"methodIdentifiers": {
					"addStudent(string,uint256,bool)": "1dfc2962",
					"getStudent(uint256)": "642f9163",
					"student(uint256)": "35f34232"
				}
			},
			"storageLayout": {
				"storage": [
					{
						"astId": 12,
						"contract": "Assignments/CP3-Q1.sol:ManageStudents",
						"label": "student",
						"offset": 0,
						"slot": "0",
						"type": "t_array(t_struct(Student)8_storage)dyn_storage"
					}
				],
				"types": {
					"t_array(t_struct(Student)8_storage)dyn_storage": {
						"base": "t_struct(Student)8_storage",
						"encoding": "dynamic_array",
						"label": "struct ManageStudents.Student[]",
						"numberOfBytes": "32"
					},
					"t_bool": {
						"encoding": "inplace",
						"label": "bool",
						"numberOfBytes": "1"
					},
					"t_string_storage": {
						"encoding": "bytes",
						"label": "string",
						"numberOfBytes": "32"
					},
					"t_struct(Student)8_storage": {
						"encoding": "inplace",
						"label": "struct ManageStudents.Student",
						"members": [
							{
								"astId": 3,
								"contract": "Assignments/CP3-Q1.sol:ManageStudents",
								"label": "name",
								"offset": 0,
								"slot": "0",
								"type": "t_string_storage"
							},
							{
								"astId": 5,
								"contract": "Assignments/CP3-Q1.sol:ManageStudents",
								"label": "age",
								"offset": 0,
								"slot": "1",
								"type": "t_uint256"
							},
							{
								"astId": 7,
								"contract": "Assignments/CP3-Q1.sol:ManageStudents",
								"label": "isEnrolled",
								"offset": 0,
								"slot": "2",
								"type": "t_bool"
							}
						],
						"numberOfBytes": "96"
					},
					"t_uint256": {
						"encoding": "inplace",
						"label": "uint256",
						"numberOfBytes": "32"
					}
				}
			},
			"userdoc": {
				"kind": "user",
				"methods": {},
				"version": 1
			}
		}
	}
}