{
	"Assignments/cp2-3.sol": {
		"Inventory": {
			"abi": [
				{
					"inputs": [
						{
							"internalType": "uint256",
							"name": "_item1",
							"type": "uint256"
						},
						{
							"internalType": "uint256",
							"name": "_item2",
							"type": "uint256"
						}
					],
					"stateMutability": "nonpayable",
					"type": "constructor"
				},
				{
					"inputs": [
						{
							"internalType": "bool",
							"name": "lockedVariable",
							"type": "bool"
						},
						{
							"internalType": "uint256",
							"name": "a",
							"type": "uint256"
						}
					],
					"name": "Add1",
					"outputs": [],
					"stateMutability": "nonpayable",
					"type": "function"
				},
				{
					"inputs": [
						{
							"internalType": "bool",
							"name": "lockedVariable",
							"type": "bool"
						},
						{
							"internalType": "uint256",
							"name": "a",
							"type": "uint256"
						}
					],
					"name": "Add2",
					"outputs": [],
					"stateMutability": "nonpayable",
					"type": "function"
				},
				{
					"inputs": [],
					"name": "Check1",
					"outputs": [
						{
							"internalType": "uint256",
							"name": "",
							"type": "uint256"
						}
					],
					"stateMutability": "view",
					"type": "function"
				},
				{
					"inputs": [],
					"name": "Check2",
					"outputs": [
						{
							"internalType": "uint256",
							"name": "",
							"type": "uint256"
						}
					],
					"stateMutability": "view",
					"type": "function"
				},
				{
					"inputs": [
						{
							"internalType": "bool",
							"name": "lockedVariable",
							"type": "bool"
						},
						{
							"internalType": "uint256",
							"name": "a",
							"type": "uint256"
						}
					],
					"name": "Remove1",
					"outputs": [],
					"stateMutability": "nonpayable",
					"type": "function"
				},
				{
					"inputs": [
						{
							"internalType": "bool",
							"name": "lockedVariable",
							"type": "bool"
						},
						{
							"internalType": "uint256",
							"name": "a",
							"type": "uint256"
						}
					],
					"name": "Remove2",
					"outputs": [],
					"stateMutability": "nonpayable",
					"type": "function"
				},
				{
					"inputs": [
						{
							"internalType": "bool",
							"name": "lockedVariable",
							"type": "bool"
						}
					],
					"name": "status",
					"outputs": [
						{
							"internalType": "string",
							"name": "",
							"type": "string"
						}
					],
					"stateMutability": "pure",
					"type": "function"
				}
			],
			"devdoc": {
				"kind": "dev",
				"methods": {},
				"version": 1
			},
			"evm": {
				"assembly": "    /* \"Assignments/cp2-3.sol\":62:1694  contract Inventory{... */\n  mstore(0x40, 0x80)\n    /* \"Assignments/cp2-3.sol\":141:265  constructor(uint _item1, uint _item2){... */\n  callvalue\n  dup1\n  iszero\n  tag_1\n  jumpi\n  0x00\n  dup1\n  revert\ntag_1:\n  pop\n  mload(0x40)\n  sub(codesize, bytecodeSize)\n  dup1\n  bytecodeSize\n  dup4\n  codecopy\n  dup2\n  dup2\n  add\n  0x40\n  mstore\n  dup2\n  add\n  swap1\n  tag_2\n  swap2\n  swap1\n  tag_3\n  jump\t// in\ntag_2:\n    /* \"Assignments/cp2-3.sol\":197:203  _item1 */\n  dup2\n    /* \"Assignments/cp2-3.sol\":189:194  Item1 */\n  0x00\n    /* \"Assignments/cp2-3.sol\":189:203  Item1 = _item1 */\n  dup2\n  swap1\n  sstore\n  pop\n    /* \"Assignments/cp2-3.sol\":222:228  _item2 */\n  dup1\n    /* \"Assignments/cp2-3.sol\":214:219  Item2 */\n  0x01\n    /* \"Assignments/cp2-3.sol\":214:228  Item2 = _item2 */\n  dup2\n  swap1\n  sstore\n  pop\n    /* \"Assignments/cp2-3.sol\":247:257  msg.sender */\n  caller\n    /* \"Assignments/cp2-3.sol\":239:244  owner */\n  0x02\n  0x00\n    /* \"Assignments/cp2-3.sol\":239:257  owner = msg.sender */\n  0x0100\n  exp\n  dup2\n  sload\n  dup2\n  0xffffffffffffffffffffffffffffffffffffffff\n  mul\n  not\n  and\n  swap1\n  dup4\n  0xffffffffffffffffffffffffffffffffffffffff\n  and\n  mul\n  or\n  swap1\n  sstore\n  pop\n    /* \"Assignments/cp2-3.sol\":141:265  constructor(uint _item1, uint _item2){... */\n  pop\n  pop\n    /* \"Assignments/cp2-3.sol\":62:1694  contract Inventory{... */\n  jump(tag_6)\n    /* \"#utility.yul\":88:205   */\ntag_8:\n    /* \"#utility.yul\":197:198   */\n  0x00\n    /* \"#utility.yul\":194:195   */\n  dup1\n    /* \"#utility.yul\":187:199   */\n  revert\n    /* \"#utility.yul\":334:411   */\ntag_10:\n    /* \"#utility.yul\":371:378   */\n  0x00\n    /* \"#utility.yul\":400:405   */\n  dup2\n    /* \"#utility.yul\":389:405   */\n  swap1\n  pop\n    /* \"#utility.yul\":334:411   */\n  swap2\n  swap1\n  pop\n  jump\t// out\n    /* \"#utility.yul\":417:539   */\ntag_11:\n    /* \"#utility.yul\":490:514   */\n  tag_19\n    /* \"#utility.yul\":508:513   */\n  dup2\n    /* \"#utility.yul\":490:514   */\n  tag_10\n  jump\t// in\ntag_19:\n    /* \"#utility.yul\":483:488   */\n  dup2\n    /* \"#utility.yul\":480:515   */\n  eq\n    /* \"#utility.yul\":470:533   */\n  tag_20\n  jumpi\n    /* \"#utility.yul\":529:530   */\n  0x00\n    /* \"#utility.yul\":526:527   */\n  dup1\n    /* \"#utility.yul\":519:531   */\n  revert\n    /* \"#utility.yul\":470:533   */\ntag_20:\n    /* \"#utility.yul\":417:539   */\n  pop\n  jump\t// out\n    /* \"#utility.yul\":545:688   */\ntag_12:\n    /* \"#utility.yul\":602:607   */\n  0x00\n    /* \"#utility.yul\":633:639   */\n  dup2\n    /* \"#utility.yul\":627:640   */\n  mload\n    /* \"#utility.yul\":618:640   */\n  swap1\n  pop\n    /* \"#utility.yul\":649:682   */\n  tag_22\n    /* \"#utility.yul\":676:681   */\n  dup2\n    /* \"#utility.yul\":649:682   */\n  tag_11\n  jump\t// in\ntag_22:\n    /* \"#utility.yul\":545:688   */\n  swap3\n  swap2\n  pop\n  pop\n  jump\t// out\n    /* \"#utility.yul\":694:1201   */\ntag_3:\n    /* \"#utility.yul\":773:779   */\n  0x00\n    /* \"#utility.yul\":781:787   */\n  dup1\n    /* \"#utility.yul\":830:832   */\n  0x40\n    /* \"#utility.yul\":818:827   */\n  dup4\n    /* \"#utility.yul\":809:816   */\n  dup6\n    /* \"#utility.yul\":805:828   */\n  sub\n    /* \"#utility.yul\":801:833   */\n  slt\n    /* \"#utility.yul\":798:917   */\n  iszero\n  tag_24\n  jumpi\n    /* \"#utility.yul\":836:915   */\n  tag_25\n  tag_8\n  jump\t// in\ntag_25:\n    /* \"#utility.yul\":798:917   */\ntag_24:\n    /* \"#utility.yul\":956:957   */\n  0x00\n    /* \"#utility.yul\":981:1045   */\n  tag_26\n    /* \"#utility.yul\":1037:1044   */\n  dup6\n    /* \"#utility.yul\":1028:1034   */\n  dup3\n    /* \"#utility.yul\":1017:1026   */\n  dup7\n    /* \"#utility.yul\":1013:1035   */\n  add\n    /* \"#utility.yul\":981:1045   */\n  tag_12\n  jump\t// in\ntag_26:\n    /* \"#utility.yul\":971:1045   */\n  swap3\n  pop\n    /* \"#utility.yul\":927:1055   */\n  pop\n    /* \"#utility.yul\":1094:1096   */\n  0x20\n    /* \"#utility.yul\":1120:1184   */\n  tag_27\n    /* \"#utility.yul\":1176:1183   */\n  dup6\n    /* \"#utility.yul\":1167:1173   */\n  dup3\n    /* \"#utility.yul\":1156:1165   */\n  dup7\n    /* \"#utility.yul\":1152:1174   */\n  add\n    /* \"#utility.yul\":1120:1184   */\n  tag_12\n  jump\t// in\ntag_27:\n    /* \"#utility.yul\":1110:1184   */\n  swap2\n  pop\n    /* \"#utility.yul\":1065:1194   */\n  pop\n    /* \"#utility.yul\":694:1201   */\n  swap3\n  pop\n  swap3\n  swap1\n  pop\n  jump\t// out\n    /* \"Assignments/cp2-3.sol\":62:1694  contract Inventory{... */\ntag_6:\n  dataSize(sub_0)\n  dup1\n  dataOffset(sub_0)\n  0x00\n  codecopy\n  0x00\n  return\nstop\n\nsub_0: assembly {\n        /* \"Assignments/cp2-3.sol\":62:1694  contract Inventory{... */\n      mstore(0x40, 0x80)\n      callvalue\n      dup1\n      iszero\n      tag_1\n      jumpi\n      0x00\n      dup1\n      revert\n    tag_1:\n      pop\n      jumpi(tag_2, lt(calldatasize, 0x04))\n      shr(0xe0, calldataload(0x00))\n      dup1\n      0xb86a42cd\n      gt\n      tag_10\n      jumpi\n      dup1\n      0xb86a42cd\n      eq\n      tag_6\n      jumpi\n      dup1\n      0xbfa2c46b\n      eq\n      tag_7\n      jumpi\n      dup1\n      0xc84dabcf\n      eq\n      tag_8\n      jumpi\n      dup1\n      0xec7e71fe\n      eq\n      tag_9\n      jumpi\n      jump(tag_2)\n    tag_10:\n      dup1\n      0x05b49aa7\n      eq\n      tag_3\n      jumpi\n      dup1\n      0x0de72dad\n      eq\n      tag_4\n      jumpi\n      dup1\n      0x1916cbfa\n      eq\n      tag_5\n      jumpi\n    tag_2:\n      0x00\n      dup1\n      revert\n        /* \"Assignments/cp2-3.sol\":956:1175  function Remove1(bool lockedVariable, uint a)public{... */\n    tag_3:\n      tag_11\n      0x04\n      dup1\n      calldatasize\n      sub\n      dup2\n      add\n      swap1\n      tag_12\n      swap2\n      swap1\n      tag_13\n      jump\t// in\n    tag_12:\n      tag_14\n      jump\t// in\n    tag_11:\n      stop\n        /* \"Assignments/cp2-3.sol\":1551:1689  function Check2() public view returns(uint){... */\n    tag_4:\n      tag_15\n      tag_16\n      jump\t// in\n    tag_15:\n      mload(0x40)\n      tag_17\n      swap2\n      swap1\n      tag_18\n      jump\t// in\n    tag_17:\n      mload(0x40)\n      dup1\n      swap2\n      sub\n      swap1\n      return\n        /* \"Assignments/cp2-3.sol\":512:728  function Add1(bool lockedVariable, uint a)public{... */\n    tag_5:\n      tag_19\n      0x04\n      dup1\n      calldatasize\n      sub\n      dup2\n      add\n      swap1\n      tag_20\n      swap2\n      swap1\n      tag_13\n      jump\t// in\n    tag_20:\n      tag_21\n      jump\t// in\n    tag_19:\n      stop\n        /* \"Assignments/cp2-3.sol\":1406:1544  function Check1() public view returns(uint){... */\n    tag_6:\n      tag_22\n      tag_23\n      jump\t// in\n    tag_22:\n      mload(0x40)\n      tag_24\n      swap2\n      swap1\n      tag_18\n      jump\t// in\n    tag_24:\n      mload(0x40)\n      dup1\n      swap2\n      sub\n      swap1\n      return\n        /* \"Assignments/cp2-3.sol\":734:950  function Add2(bool lockedVariable, uint a)public{... */\n    tag_7:\n      tag_25\n      0x04\n      dup1\n      calldatasize\n      sub\n      dup2\n      add\n      swap1\n      tag_26\n      swap2\n      swap1\n      tag_13\n      jump\t// in\n    tag_26:\n      tag_27\n      jump\t// in\n    tag_25:\n      stop\n        /* \"Assignments/cp2-3.sol\":271:506  function status(bool lockedVariable)public pure returns(string memory){... */\n    tag_8:\n      tag_28\n      0x04\n      dup1\n      calldatasize\n      sub\n      dup2\n      add\n      swap1\n      tag_29\n      swap2\n      swap1\n      tag_30\n      jump\t// in\n    tag_29:\n      tag_31\n      jump\t// in\n    tag_28:\n      mload(0x40)\n      tag_32\n      swap2\n      swap1\n      tag_33\n      jump\t// in\n    tag_32:\n      mload(0x40)\n      dup1\n      swap2\n      sub\n      swap1\n      return\n        /* \"Assignments/cp2-3.sol\":1181:1400  function Remove2(bool lockedVariable, uint a)public{... */\n    tag_9:\n      tag_34\n      0x04\n      dup1\n      calldatasize\n      sub\n      dup2\n      add\n      swap1\n      tag_35\n      swap2\n      swap1\n      tag_13\n      jump\t// in\n    tag_35:\n      tag_36\n      jump\t// in\n    tag_34:\n      stop\n        /* \"Assignments/cp2-3.sol\":956:1175  function Remove1(bool lockedVariable, uint a)public{... */\n    tag_14:\n        /* \"Assignments/cp2-3.sol\":1044:1049  false */\n      0x00\n        /* \"Assignments/cp2-3.sol\":1026:1049  lockedVariable == false */\n      iszero\n      iszero\n        /* \"Assignments/cp2-3.sol\":1026:1040  lockedVariable */\n      dup3\n        /* \"Assignments/cp2-3.sol\":1026:1049  lockedVariable == false */\n      iszero\n      iszero\n      eq\n        /* \"Assignments/cp2-3.sol\":1018:1082  require(lockedVariable == false, \"Inventory locked, cannot add\") */\n      tag_38\n      jumpi\n      mload(0x40)\n      0x08c379a000000000000000000000000000000000000000000000000000000000\n      dup2\n      mstore\n      0x04\n      add\n      tag_39\n      swap1\n      tag_40\n      jump\t// in\n    tag_39:\n      mload(0x40)\n      dup1\n      swap2\n      sub\n      swap1\n      revert\n    tag_38:\n        /* \"Assignments/cp2-3.sol\":1115:1120  owner */\n      0x02\n      0x00\n      swap1\n      sload\n      swap1\n      0x0100\n      exp\n      swap1\n      div\n      0xffffffffffffffffffffffffffffffffffffffff\n      and\n        /* \"Assignments/cp2-3.sol\":1101:1120  msg.sender == owner */\n      0xffffffffffffffffffffffffffffffffffffffff\n      and\n        /* \"Assignments/cp2-3.sol\":1101:1111  msg.sender */\n      caller\n        /* \"Assignments/cp2-3.sol\":1101:1120  msg.sender == owner */\n      0xffffffffffffffffffffffffffffffffffffffff\n      and\n      eq\n        /* \"Assignments/cp2-3.sol\":1093:1146  require(msg.sender == owner, \"You are not the owner\") */\n      tag_41\n      jumpi\n      mload(0x40)\n      0x08c379a000000000000000000000000000000000000000000000000000000000\n      dup2\n      mstore\n      0x04\n      add\n      tag_42\n      swap1\n      tag_43\n      jump\t// in\n    tag_42:\n      mload(0x40)\n      dup1\n      swap2\n      sub\n      swap1\n      revert\n    tag_41:\n        /* \"Assignments/cp2-3.sol\":1166:1167  a */\n      dup1\n        /* \"Assignments/cp2-3.sol\":1157:1162  Item1 */\n      0x00\n      dup1\n        /* \"Assignments/cp2-3.sol\":1157:1167  Item1 -= a */\n      dup3\n      dup3\n      sload\n      tag_44\n      swap2\n      swap1\n      tag_45\n      jump\t// in\n    tag_44:\n      swap3\n      pop\n      pop\n      dup2\n      swap1\n      sstore\n      pop\n        /* \"Assignments/cp2-3.sol\":956:1175  function Remove1(bool lockedVariable, uint a)public{... */\n      pop\n      pop\n      jump\t// out\n        /* \"Assignments/cp2-3.sol\":1551:1689  function Check2() public view returns(uint){... */\n    tag_16:\n        /* \"Assignments/cp2-3.sol\":1589:1593  uint */\n      0x00\n        /* \"Assignments/cp2-3.sol\":1627:1632  owner */\n      0x02\n      0x00\n      swap1\n      sload\n      swap1\n      0x0100\n      exp\n      swap1\n      div\n      0xffffffffffffffffffffffffffffffffffffffff\n      and\n        /* \"Assignments/cp2-3.sol\":1613:1632  msg.sender == owner */\n      0xffffffffffffffffffffffffffffffffffffffff\n      and\n        /* \"Assignments/cp2-3.sol\":1613:1623  msg.sender */\n      caller\n        /* \"Assignments/cp2-3.sol\":1613:1632  msg.sender == owner */\n      0xffffffffffffffffffffffffffffffffffffffff\n      and\n      eq\n        /* \"Assignments/cp2-3.sol\":1605:1658  require(msg.sender == owner, \"You are not the owner\") */\n      tag_47\n      jumpi\n      mload(0x40)\n      0x08c379a000000000000000000000000000000000000000000000000000000000\n      dup2\n      mstore\n      0x04\n      add\n      tag_48\n      swap1\n      tag_43\n      jump\t// in\n    tag_48:\n      mload(0x40)\n      dup1\n      swap2\n      sub\n      swap1\n      revert\n    tag_47:\n        /* \"Assignments/cp2-3.sol\":1676:1681  Item2 */\n      sload(0x01)\n        /* \"Assignments/cp2-3.sol\":1669:1681  return Item2 */\n      swap1\n      pop\n        /* \"Assignments/cp2-3.sol\":1551:1689  function Check2() public view returns(uint){... */\n      swap1\n      jump\t// out\n        /* \"Assignments/cp2-3.sol\":512:728  function Add1(bool lockedVariable, uint a)public{... */\n    tag_21:\n        /* \"Assignments/cp2-3.sol\":597:602  false */\n      0x00\n        /* \"Assignments/cp2-3.sol\":579:602  lockedVariable == false */\n      iszero\n      iszero\n        /* \"Assignments/cp2-3.sol\":579:593  lockedVariable */\n      dup3\n        /* \"Assignments/cp2-3.sol\":579:602  lockedVariable == false */\n      iszero\n      iszero\n      eq\n        /* \"Assignments/cp2-3.sol\":571:635  require(lockedVariable == false, \"Inventory locked, cannot add\") */\n      tag_50\n      jumpi\n      mload(0x40)\n      0x08c379a000000000000000000000000000000000000000000000000000000000\n      dup2\n      mstore\n      0x04\n      add\n      tag_51\n      swap1\n      tag_40\n      jump\t// in\n    tag_51:\n      mload(0x40)\n      dup1\n      swap2\n      sub\n      swap1\n      revert\n    tag_50:\n        /* \"Assignments/cp2-3.sol\":668:673  owner */\n      0x02\n      0x00\n      swap1\n      sload\n      swap1\n      0x0100\n      exp\n      swap1\n      div\n      0xffffffffffffffffffffffffffffffffffffffff\n      and\n        /* \"Assignments/cp2-3.sol\":654:673  msg.sender == owner */\n      0xffffffffffffffffffffffffffffffffffffffff\n      and\n        /* \"Assignments/cp2-3.sol\":654:664  msg.sender */\n      caller\n        /* \"Assignments/cp2-3.sol\":654:673  msg.sender == owner */\n      0xffffffffffffffffffffffffffffffffffffffff\n      and\n      eq\n        /* \"Assignments/cp2-3.sol\":646:699  require(msg.sender == owner, \"You are not the owner\") */\n      tag_52\n      jumpi\n      mload(0x40)\n      0x08c379a000000000000000000000000000000000000000000000000000000000\n      dup2\n      mstore\n      0x04\n      add\n      tag_53\n      swap1\n      tag_43\n      jump\t// in\n    tag_53:\n      mload(0x40)\n      dup1\n      swap2\n      sub\n      swap1\n      revert\n    tag_52:\n        /* \"Assignments/cp2-3.sol\":719:720  a */\n      dup1\n        /* \"Assignments/cp2-3.sol\":710:715  Item1 */\n      0x00\n      dup1\n        /* \"Assignments/cp2-3.sol\":710:720  Item1 += a */\n      dup3\n      dup3\n      sload\n      tag_54\n      swap2\n      swap1\n      tag_55\n      jump\t// in\n    tag_54:\n      swap3\n      pop\n      pop\n      dup2\n      swap1\n      sstore\n      pop\n        /* \"Assignments/cp2-3.sol\":512:728  function Add1(bool lockedVariable, uint a)public{... */\n      pop\n      pop\n      jump\t// out\n        /* \"Assignments/cp2-3.sol\":1406:1544  function Check1() public view returns(uint){... */\n    tag_23:\n        /* \"Assignments/cp2-3.sol\":1444:1448  uint */\n      0x00\n        /* \"Assignments/cp2-3.sol\":1482:1487  owner */\n      0x02\n      0x00\n      swap1\n      sload\n      swap1\n      0x0100\n      exp\n      swap1\n      div\n      0xffffffffffffffffffffffffffffffffffffffff\n      and\n        /* \"Assignments/cp2-3.sol\":1468:1487  msg.sender == owner */\n      0xffffffffffffffffffffffffffffffffffffffff\n      and\n        /* \"Assignments/cp2-3.sol\":1468:1478  msg.sender */\n      caller\n        /* \"Assignments/cp2-3.sol\":1468:1487  msg.sender == owner */\n      0xffffffffffffffffffffffffffffffffffffffff\n      and\n      eq\n        /* \"Assignments/cp2-3.sol\":1460:1513  require(msg.sender == owner, \"You are not the owner\") */\n      tag_57\n      jumpi\n      mload(0x40)\n      0x08c379a000000000000000000000000000000000000000000000000000000000\n      dup2\n      mstore\n      0x04\n      add\n      tag_58\n      swap1\n      tag_43\n      jump\t// in\n    tag_58:\n      mload(0x40)\n      dup1\n      swap2\n      sub\n      swap1\n      revert\n    tag_57:\n        /* \"Assignments/cp2-3.sol\":1531:1536  Item1 */\n      sload(0x00)\n        /* \"Assignments/cp2-3.sol\":1524:1536  return Item1 */\n      swap1\n      pop\n        /* \"Assignments/cp2-3.sol\":1406:1544  function Check1() public view returns(uint){... */\n      swap1\n      jump\t// out\n        /* \"Assignments/cp2-3.sol\":734:950  function Add2(bool lockedVariable, uint a)public{... */\n    tag_27:\n        /* \"Assignments/cp2-3.sol\":819:824  false */\n      0x00\n        /* \"Assignments/cp2-3.sol\":801:824  lockedVariable == false */\n      iszero\n      iszero\n        /* \"Assignments/cp2-3.sol\":801:815  lockedVariable */\n      dup3\n        /* \"Assignments/cp2-3.sol\":801:824  lockedVariable == false */\n      iszero\n      iszero\n      eq\n        /* \"Assignments/cp2-3.sol\":793:857  require(lockedVariable == false, \"Inventory locked, cannot add\") */\n      tag_60\n      jumpi\n      mload(0x40)\n      0x08c379a000000000000000000000000000000000000000000000000000000000\n      dup2\n      mstore\n      0x04\n      add\n      tag_61\n      swap1\n      tag_40\n      jump\t// in\n    tag_61:\n      mload(0x40)\n      dup1\n      swap2\n      sub\n      swap1\n      revert\n    tag_60:\n        /* \"Assignments/cp2-3.sol\":890:895  owner */\n      0x02\n      0x00\n      swap1\n      sload\n      swap1\n      0x0100\n      exp\n      swap1\n      div\n      0xffffffffffffffffffffffffffffffffffffffff\n      and\n        /* \"Assignments/cp2-3.sol\":876:895  msg.sender == owner */\n      0xffffffffffffffffffffffffffffffffffffffff\n      and\n        /* \"Assignments/cp2-3.sol\":876:886  msg.sender */\n      caller\n        /* \"Assignments/cp2-3.sol\":876:895  msg.sender == owner */\n      0xffffffffffffffffffffffffffffffffffffffff\n      and\n      eq\n        /* \"Assignments/cp2-3.sol\":868:921  require(msg.sender == owner, \"You are not the owner\") */\n      tag_62\n      jumpi\n      mload(0x40)\n      0x08c379a000000000000000000000000000000000000000000000000000000000\n      dup2\n      mstore\n      0x04\n      add\n      tag_63\n      swap1\n      tag_43\n      jump\t// in\n    tag_63:\n      mload(0x40)\n      dup1\n      swap2\n      sub\n      swap1\n      revert\n    tag_62:\n        /* \"Assignments/cp2-3.sol\":941:942  a */\n      dup1\n        /* \"Assignments/cp2-3.sol\":932:937  Item2 */\n      0x01\n      0x00\n        /* \"Assignments/cp2-3.sol\":932:942  Item2 += a */\n      dup3\n      dup3\n      sload\n      tag_64\n      swap2\n      swap1\n      tag_55\n      jump\t// in\n    tag_64:\n      swap3\n      pop\n      pop\n      dup2\n      swap1\n      sstore\n      pop\n        /* \"Assignments/cp2-3.sol\":734:950  function Add2(bool lockedVariable, uint a)public{... */\n      pop\n      pop\n      jump\t// out\n        /* \"Assignments/cp2-3.sol\":271:506  function status(bool lockedVariable)public pure returns(string memory){... */\n    tag_31:\n        /* \"Assignments/cp2-3.sol\":327:340  string memory */\n      0x60\n        /* \"Assignments/cp2-3.sol\":373:377  true */\n      0x01\n        /* \"Assignments/cp2-3.sol\":355:377  lockedVariable == true */\n      iszero\n      iszero\n        /* \"Assignments/cp2-3.sol\":355:369  lockedVariable */\n      dup3\n        /* \"Assignments/cp2-3.sol\":355:377  lockedVariable == true */\n      iszero\n      iszero\n      sub\n        /* \"Assignments/cp2-3.sol\":352:499  if(lockedVariable == true){... */\n      tag_66\n      jumpi\n        /* \"Assignments/cp2-3.sol\":393:418  return \"Inventory Locked\" */\n      mload(0x40)\n      dup1\n      0x40\n      add\n      0x40\n      mstore\n      dup1\n      0x10\n      dup2\n      mstore\n      0x20\n      add\n      0x496e76656e746f7279204c6f636b656400000000000000000000000000000000\n      dup2\n      mstore\n      pop\n      swap1\n      pop\n      jump(tag_65)\n        /* \"Assignments/cp2-3.sol\":352:499  if(lockedVariable == true){... */\n    tag_66:\n        /* \"Assignments/cp2-3.sol\":460:487  return \"Inventory Unlocked\" */\n      mload(0x40)\n      dup1\n      0x40\n      add\n      0x40\n      mstore\n      dup1\n      0x12\n      dup2\n      mstore\n      0x20\n      add\n      0x496e76656e746f727920556e6c6f636b65640000000000000000000000000000\n      dup2\n      mstore\n      pop\n      swap1\n      pop\n        /* \"Assignments/cp2-3.sol\":271:506  function status(bool lockedVariable)public pure returns(string memory){... */\n    tag_65:\n      swap2\n      swap1\n      pop\n      jump\t// out\n        /* \"Assignments/cp2-3.sol\":1181:1400  function Remove2(bool lockedVariable, uint a)public{... */\n    tag_36:\n        /* \"Assignments/cp2-3.sol\":1269:1274  false */\n      0x00\n        /* \"Assignments/cp2-3.sol\":1251:1274  lockedVariable == false */\n      iszero\n      iszero\n        /* \"Assignments/cp2-3.sol\":1251:1265  lockedVariable */\n      dup3\n        /* \"Assignments/cp2-3.sol\":1251:1274  lockedVariable == false */\n      iszero\n      iszero\n      eq\n        /* \"Assignments/cp2-3.sol\":1243:1307  require(lockedVariable == false, \"Inventory locked, cannot add\") */\n      tag_69\n      jumpi\n      mload(0x40)\n      0x08c379a000000000000000000000000000000000000000000000000000000000\n      dup2\n      mstore\n      0x04\n      add\n      tag_70\n      swap1\n      tag_40\n      jump\t// in\n    tag_70:\n      mload(0x40)\n      dup1\n      swap2\n      sub\n      swap1\n      revert\n    tag_69:\n        /* \"Assignments/cp2-3.sol\":1340:1345  owner */\n      0x02\n      0x00\n      swap1\n      sload\n      swap1\n      0x0100\n      exp\n      swap1\n      div\n      0xffffffffffffffffffffffffffffffffffffffff\n      and\n        /* \"Assignments/cp2-3.sol\":1326:1345  msg.sender == owner */\n      0xffffffffffffffffffffffffffffffffffffffff\n      and\n        /* \"Assignments/cp2-3.sol\":1326:1336  msg.sender */\n      caller\n        /* \"Assignments/cp2-3.sol\":1326:1345  msg.sender == owner */\n      0xffffffffffffffffffffffffffffffffffffffff\n      and\n      eq\n        /* \"Assignments/cp2-3.sol\":1318:1371  require(msg.sender == owner, \"You are not the owner\") */\n      tag_71\n      jumpi\n      mload(0x40)\n      0x08c379a000000000000000000000000000000000000000000000000000000000\n      dup2\n      mstore\n      0x04\n      add\n      tag_72\n      swap1\n      tag_43\n      jump\t// in\n    tag_72:\n      mload(0x40)\n      dup1\n      swap2\n      sub\n      swap1\n      revert\n    tag_71:\n        /* \"Assignments/cp2-3.sol\":1391:1392  a */\n      dup1\n        /* \"Assignments/cp2-3.sol\":1382:1387  Item2 */\n      0x01\n      0x00\n        /* \"Assignments/cp2-3.sol\":1382:1392  Item2 -= a */\n      dup3\n      dup3\n      sload\n      tag_73\n      swap2\n      swap1\n      tag_45\n      jump\t// in\n    tag_73:\n      swap3\n      pop\n      pop\n      dup2\n      swap1\n      sstore\n      pop\n        /* \"Assignments/cp2-3.sol\":1181:1400  function Remove2(bool lockedVariable, uint a)public{... */\n      pop\n      pop\n      jump\t// out\n        /* \"#utility.yul\":88:205   */\n    tag_75:\n        /* \"#utility.yul\":197:198   */\n      0x00\n        /* \"#utility.yul\":194:195   */\n      dup1\n        /* \"#utility.yul\":187:199   */\n      revert\n        /* \"#utility.yul\":334:424   */\n    tag_77:\n        /* \"#utility.yul\":368:375   */\n      0x00\n        /* \"#utility.yul\":411:416   */\n      dup2\n        /* \"#utility.yul\":404:417   */\n      iszero\n        /* \"#utility.yul\":397:418   */\n      iszero\n        /* \"#utility.yul\":386:418   */\n      swap1\n      pop\n        /* \"#utility.yul\":334:424   */\n      swap2\n      swap1\n      pop\n      jump\t// out\n        /* \"#utility.yul\":430:546   */\n    tag_78:\n        /* \"#utility.yul\":500:521   */\n      tag_100\n        /* \"#utility.yul\":515:520   */\n      dup2\n        /* \"#utility.yul\":500:521   */\n      tag_77\n      jump\t// in\n    tag_100:\n        /* \"#utility.yul\":493:498   */\n      dup2\n        /* \"#utility.yul\":490:522   */\n      eq\n        /* \"#utility.yul\":480:540   */\n      tag_101\n      jumpi\n        /* \"#utility.yul\":536:537   */\n      0x00\n        /* \"#utility.yul\":533:534   */\n      dup1\n        /* \"#utility.yul\":526:538   */\n      revert\n        /* \"#utility.yul\":480:540   */\n    tag_101:\n        /* \"#utility.yul\":430:546   */\n      pop\n      jump\t// out\n        /* \"#utility.yul\":552:685   */\n    tag_79:\n        /* \"#utility.yul\":595:600   */\n      0x00\n        /* \"#utility.yul\":633:639   */\n      dup2\n        /* \"#utility.yul\":620:640   */\n      calldataload\n        /* \"#utility.yul\":611:640   */\n      swap1\n      pop\n        /* \"#utility.yul\":649:679   */\n      tag_103\n        /* \"#utility.yul\":673:678   */\n      dup2\n        /* \"#utility.yul\":649:679   */\n      tag_78\n      jump\t// in\n    tag_103:\n        /* \"#utility.yul\":552:685   */\n      swap3\n      swap2\n      pop\n      pop\n      jump\t// out\n        /* \"#utility.yul\":691:768   */\n    tag_80:\n        /* \"#utility.yul\":728:735   */\n      0x00\n        /* \"#utility.yul\":757:762   */\n      dup2\n        /* \"#utility.yul\":746:762   */\n      swap1\n      pop\n        /* \"#utility.yul\":691:768   */\n      swap2\n      swap1\n      pop\n      jump\t// out\n        /* \"#utility.yul\":774:896   */\n    tag_81:\n        /* \"#utility.yul\":847:871   */\n      tag_106\n        /* \"#utility.yul\":865:870   */\n      dup2\n        /* \"#utility.yul\":847:871   */\n      tag_80\n      jump\t// in\n    tag_106:\n        /* \"#utility.yul\":840:845   */\n      dup2\n        /* \"#utility.yul\":837:872   */\n      eq\n        /* \"#utility.yul\":827:890   */\n      tag_107\n      jumpi\n        /* \"#utility.yul\":886:887   */\n      0x00\n        /* \"#utility.yul\":883:884   */\n      dup1\n        /* \"#utility.yul\":876:888   */\n      revert\n        /* \"#utility.yul\":827:890   */\n    tag_107:\n        /* \"#utility.yul\":774:896   */\n      pop\n      jump\t// out\n        /* \"#utility.yul\":902:1041   */\n    tag_82:\n        /* \"#utility.yul\":948:953   */\n      0x00\n        /* \"#utility.yul\":986:992   */\n      dup2\n        /* \"#utility.yul\":973:993   */\n      calldataload\n        /* \"#utility.yul\":964:993   */\n      swap1\n      pop\n        /* \"#utility.yul\":1002:1035   */\n      tag_109\n        /* \"#utility.yul\":1029:1034   */\n      dup2\n        /* \"#utility.yul\":1002:1035   */\n      tag_81\n      jump\t// in\n    tag_109:\n        /* \"#utility.yul\":902:1041   */\n      swap3\n      swap2\n      pop\n      pop\n      jump\t// out\n        /* \"#utility.yul\":1047:1515   */\n    tag_13:\n        /* \"#utility.yul\":1112:1118   */\n      0x00\n        /* \"#utility.yul\":1120:1126   */\n      dup1\n        /* \"#utility.yul\":1169:1171   */\n      0x40\n        /* \"#utility.yul\":1157:1166   */\n      dup4\n        /* \"#utility.yul\":1148:1155   */\n      dup6\n        /* \"#utility.yul\":1144:1167   */\n      sub\n        /* \"#utility.yul\":1140:1172   */\n      slt\n        /* \"#utility.yul\":1137:1256   */\n      iszero\n      tag_111\n      jumpi\n        /* \"#utility.yul\":1175:1254   */\n      tag_112\n      tag_75\n      jump\t// in\n    tag_112:\n        /* \"#utility.yul\":1137:1256   */\n    tag_111:\n        /* \"#utility.yul\":1295:1296   */\n      0x00\n        /* \"#utility.yul\":1320:1370   */\n      tag_113\n        /* \"#utility.yul\":1362:1369   */\n      dup6\n        /* \"#utility.yul\":1353:1359   */\n      dup3\n        /* \"#utility.yul\":1342:1351   */\n      dup7\n        /* \"#utility.yul\":1338:1360   */\n      add\n        /* \"#utility.yul\":1320:1370   */\n      tag_79\n      jump\t// in\n    tag_113:\n        /* \"#utility.yul\":1310:1370   */\n      swap3\n      pop\n        /* \"#utility.yul\":1266:1380   */\n      pop\n        /* \"#utility.yul\":1419:1421   */\n      0x20\n        /* \"#utility.yul\":1445:1498   */\n      tag_114\n        /* \"#utility.yul\":1490:1497   */\n      dup6\n        /* \"#utility.yul\":1481:1487   */\n      dup3\n        /* \"#utility.yul\":1470:1479   */\n      dup7\n        /* \"#utility.yul\":1466:1488   */\n      add\n        /* \"#utility.yul\":1445:1498   */\n      tag_82\n      jump\t// in\n    tag_114:\n        /* \"#utility.yul\":1435:1498   */\n      swap2\n      pop\n        /* \"#utility.yul\":1390:1508   */\n      pop\n        /* \"#utility.yul\":1047:1515   */\n      swap3\n      pop\n      swap3\n      swap1\n      pop\n      jump\t// out\n        /* \"#utility.yul\":1521:1639   */\n    tag_83:\n        /* \"#utility.yul\":1608:1632   */\n      tag_116\n        /* \"#utility.yul\":1626:1631   */\n      dup2\n        /* \"#utility.yul\":1608:1632   */\n      tag_80\n      jump\t// in\n    tag_116:\n        /* \"#utility.yul\":1603:1606   */\n      dup3\n        /* \"#utility.yul\":1596:1633   */\n      mstore\n        /* \"#utility.yul\":1521:1639   */\n      pop\n      pop\n      jump\t// out\n        /* \"#utility.yul\":1645:1867   */\n    tag_18:\n        /* \"#utility.yul\":1738:1742   */\n      0x00\n        /* \"#utility.yul\":1776:1778   */\n      0x20\n        /* \"#utility.yul\":1765:1774   */\n      dup3\n        /* \"#utility.yul\":1761:1779   */\n      add\n        /* \"#utility.yul\":1753:1779   */\n      swap1\n      pop\n        /* \"#utility.yul\":1789:1860   */\n      tag_118\n        /* \"#utility.yul\":1857:1858   */\n      0x00\n        /* \"#utility.yul\":1846:1855   */\n      dup4\n        /* \"#utility.yul\":1842:1859   */\n      add\n        /* \"#utility.yul\":1833:1839   */\n      dup5\n        /* \"#utility.yul\":1789:1860   */\n      tag_83\n      jump\t// in\n    tag_118:\n        /* \"#utility.yul\":1645:1867   */\n      swap3\n      swap2\n      pop\n      pop\n      jump\t// out\n        /* \"#utility.yul\":1873:2196   */\n    tag_30:\n        /* \"#utility.yul\":1929:1935   */\n      0x00\n        /* \"#utility.yul\":1978:1980   */\n      0x20\n        /* \"#utility.yul\":1966:1975   */\n      dup3\n        /* \"#utility.yul\":1957:1964   */\n      dup5\n        /* \"#utility.yul\":1953:1976   */\n      sub\n        /* \"#utility.yul\":1949:1981   */\n      slt\n        /* \"#utility.yul\":1946:2065   */\n      iszero\n      tag_120\n      jumpi\n        /* \"#utility.yul\":1984:2063   */\n      tag_121\n      tag_75\n      jump\t// in\n    tag_121:\n        /* \"#utility.yul\":1946:2065   */\n    tag_120:\n        /* \"#utility.yul\":2104:2105   */\n      0x00\n        /* \"#utility.yul\":2129:2179   */\n      tag_122\n        /* \"#utility.yul\":2171:2178   */\n      dup5\n        /* \"#utility.yul\":2162:2168   */\n      dup3\n        /* \"#utility.yul\":2151:2160   */\n      dup6\n        /* \"#utility.yul\":2147:2169   */\n      add\n        /* \"#utility.yul\":2129:2179   */\n      tag_79\n      jump\t// in\n    tag_122:\n        /* \"#utility.yul\":2119:2179   */\n      swap2\n      pop\n        /* \"#utility.yul\":2075:2189   */\n      pop\n        /* \"#utility.yul\":1873:2196   */\n      swap3\n      swap2\n      pop\n      pop\n      jump\t// out\n        /* \"#utility.yul\":2202:2301   */\n    tag_84:\n        /* \"#utility.yul\":2254:2260   */\n      0x00\n        /* \"#utility.yul\":2288:2293   */\n      dup2\n        /* \"#utility.yul\":2282:2294   */\n      mload\n        /* \"#utility.yul\":2272:2294   */\n      swap1\n      pop\n        /* \"#utility.yul\":2202:2301   */\n      swap2\n      swap1\n      pop\n      jump\t// out\n        /* \"#utility.yul\":2307:2476   */\n    tag_85:\n        /* \"#utility.yul\":2391:2402   */\n      0x00\n        /* \"#utility.yul\":2425:2431   */\n      dup3\n        /* \"#utility.yul\":2420:2423   */\n      dup3\n        /* \"#utility.yul\":2413:2432   */\n      mstore\n        /* \"#utility.yul\":2465:2469   */\n      0x20\n        /* \"#utility.yul\":2460:2463   */\n      dup3\n        /* \"#utility.yul\":2456:2470   */\n      add\n        /* \"#utility.yul\":2441:2470   */\n      swap1\n      pop\n        /* \"#utility.yul\":2307:2476   */\n      swap3\n      swap2\n      pop\n      pop\n      jump\t// out\n        /* \"#utility.yul\":2482:2621   */\n    tag_86:\n        /* \"#utility.yul\":2571:2577   */\n      dup3\n        /* \"#utility.yul\":2566:2569   */\n      dup2\n        /* \"#utility.yul\":2561:2564   */\n      dup4\n        /* \"#utility.yul\":2555:2578   */\n      mcopy\n        /* \"#utility.yul\":2612:2613   */\n      0x00\n        /* \"#utility.yul\":2603:2609   */\n      dup4\n        /* \"#utility.yul\":2598:2601   */\n      dup4\n        /* \"#utility.yul\":2594:2610   */\n      add\n        /* \"#utility.yul\":2587:2614   */\n      mstore\n        /* \"#utility.yul\":2482:2621   */\n      pop\n      pop\n      pop\n      jump\t// out\n        /* \"#utility.yul\":2627:2729   */\n    tag_87:\n        /* \"#utility.yul\":2668:2674   */\n      0x00\n        /* \"#utility.yul\":2719:2721   */\n      0x1f\n        /* \"#utility.yul\":2715:2722   */\n      not\n        /* \"#utility.yul\":2710:2712   */\n      0x1f\n        /* \"#utility.yul\":2703:2708   */\n      dup4\n        /* \"#utility.yul\":2699:2713   */\n      add\n        /* \"#utility.yul\":2695:2723   */\n      and\n        /* \"#utility.yul\":2685:2723   */\n      swap1\n      pop\n        /* \"#utility.yul\":2627:2729   */\n      swap2\n      swap1\n      pop\n      jump\t// out\n        /* \"#utility.yul\":2735:3112   */\n    tag_88:\n        /* \"#utility.yul\":2823:2826   */\n      0x00\n        /* \"#utility.yul\":2851:2890   */\n      tag_128\n        /* \"#utility.yul\":2884:2889   */\n      dup3\n        /* \"#utility.yul\":2851:2890   */\n      tag_84\n      jump\t// in\n    tag_128:\n        /* \"#utility.yul\":2906:2977   */\n      tag_129\n        /* \"#utility.yul\":2970:2976   */\n      dup2\n        /* \"#utility.yul\":2965:2968   */\n      dup6\n        /* \"#utility.yul\":2906:2977   */\n      tag_85\n      jump\t// in\n    tag_129:\n        /* \"#utility.yul\":2899:2977   */\n      swap4\n      pop\n        /* \"#utility.yul\":2986:3051   */\n      tag_130\n        /* \"#utility.yul\":3044:3050   */\n      dup2\n        /* \"#utility.yul\":3039:3042   */\n      dup6\n        /* \"#utility.yul\":3032:3036   */\n      0x20\n        /* \"#utility.yul\":3025:3030   */\n      dup7\n        /* \"#utility.yul\":3021:3037   */\n      add\n        /* \"#utility.yul\":2986:3051   */\n      tag_86\n      jump\t// in\n    tag_130:\n        /* \"#utility.yul\":3076:3105   */\n      tag_131\n        /* \"#utility.yul\":3098:3104   */\n      dup2\n        /* \"#utility.yul\":3076:3105   */\n      tag_87\n      jump\t// in\n    tag_131:\n        /* \"#utility.yul\":3071:3074   */\n      dup5\n        /* \"#utility.yul\":3067:3106   */\n      add\n        /* \"#utility.yul\":3060:3106   */\n      swap2\n      pop\n        /* \"#utility.yul\":2827:3112   */\n      pop\n        /* \"#utility.yul\":2735:3112   */\n      swap3\n      swap2\n      pop\n      pop\n      jump\t// out\n        /* \"#utility.yul\":3118:3431   */\n    tag_33:\n        /* \"#utility.yul\":3231:3235   */\n      0x00\n        /* \"#utility.yul\":3269:3271   */\n      0x20\n        /* \"#utility.yul\":3258:3267   */\n      dup3\n        /* \"#utility.yul\":3254:3272   */\n      add\n        /* \"#utility.yul\":3246:3272   */\n      swap1\n      pop\n        /* \"#utility.yul\":3318:3327   */\n      dup2\n        /* \"#utility.yul\":3312:3316   */\n      dup2\n        /* \"#utility.yul\":3308:3328   */\n      sub\n        /* \"#utility.yul\":3304:3305   */\n      0x00\n        /* \"#utility.yul\":3293:3302   */\n      dup4\n        /* \"#utility.yul\":3289:3306   */\n      add\n        /* \"#utility.yul\":3282:3329   */\n      mstore\n        /* \"#utility.yul\":3346:3424   */\n      tag_133\n        /* \"#utility.yul\":3419:3423   */\n      dup2\n        /* \"#utility.yul\":3410:3416   */\n      dup5\n        /* \"#utility.yul\":3346:3424   */\n      tag_88\n      jump\t// in\n    tag_133:\n        /* \"#utility.yul\":3338:3424   */\n      swap1\n      pop\n        /* \"#utility.yul\":3118:3431   */\n      swap3\n      swap2\n      pop\n      pop\n      jump\t// out\n        /* \"#utility.yul\":3437:3615   */\n    tag_89:\n        /* \"#utility.yul\":3577:3607   */\n      0x496e76656e746f7279206c6f636b65642c2063616e6e6f742061646400000000\n        /* \"#utility.yul\":3573:3574   */\n      0x00\n        /* \"#utility.yul\":3565:3571   */\n      dup3\n        /* \"#utility.yul\":3561:3575   */\n      add\n        /* \"#utility.yul\":3554:3608   */\n      mstore\n        /* \"#utility.yul\":3437:3615   */\n      pop\n      jump\t// out\n        /* \"#utility.yul\":3621:3987   */\n    tag_90:\n        /* \"#utility.yul\":3763:3766   */\n      0x00\n        /* \"#utility.yul\":3784:3851   */\n      tag_136\n        /* \"#utility.yul\":3848:3850   */\n      0x1c\n        /* \"#utility.yul\":3843:3846   */\n      dup4\n        /* \"#utility.yul\":3784:3851   */\n      tag_85\n      jump\t// in\n    tag_136:\n        /* \"#utility.yul\":3777:3851   */\n      swap2\n      pop\n        /* \"#utility.yul\":3860:3953   */\n      tag_137\n        /* \"#utility.yul\":3949:3952   */\n      dup3\n        /* \"#utility.yul\":3860:3953   */\n      tag_89\n      jump\t// in\n    tag_137:\n        /* \"#utility.yul\":3978:3980   */\n      0x20\n        /* \"#utility.yul\":3973:3976   */\n      dup3\n        /* \"#utility.yul\":3969:3981   */\n      add\n        /* \"#utility.yul\":3962:3981   */\n      swap1\n      pop\n        /* \"#utility.yul\":3621:3987   */\n      swap2\n      swap1\n      pop\n      jump\t// out\n        /* \"#utility.yul\":3993:4412   */\n    tag_40:\n        /* \"#utility.yul\":4159:4163   */\n      0x00\n        /* \"#utility.yul\":4197:4199   */\n      0x20\n        /* \"#utility.yul\":4186:4195   */\n      dup3\n        /* \"#utility.yul\":4182:4200   */\n      add\n        /* \"#utility.yul\":4174:4200   */\n      swap1\n      pop\n        /* \"#utility.yul\":4246:4255   */\n      dup2\n        /* \"#utility.yul\":4240:4244   */\n      dup2\n        /* \"#utility.yul\":4236:4256   */\n      sub\n        /* \"#utility.yul\":4232:4233   */\n      0x00\n        /* \"#utility.yul\":4221:4230   */\n      dup4\n        /* \"#utility.yul\":4217:4234   */\n      add\n        /* \"#utility.yul\":4210:4257   */\n      mstore\n        /* \"#utility.yul\":4274:4405   */\n      tag_139\n        /* \"#utility.yul\":4400:4404   */\n      dup2\n        /* \"#utility.yul\":4274:4405   */\n      tag_90\n      jump\t// in\n    tag_139:\n        /* \"#utility.yul\":4266:4405   */\n      swap1\n      pop\n        /* \"#utility.yul\":3993:4412   */\n      swap2\n      swap1\n      pop\n      jump\t// out\n        /* \"#utility.yul\":4418:4589   */\n    tag_91:\n        /* \"#utility.yul\":4558:4581   */\n      0x596f7520617265206e6f7420746865206f776e65720000000000000000000000\n        /* \"#utility.yul\":4554:4555   */\n      0x00\n        /* \"#utility.yul\":4546:4552   */\n      dup3\n        /* \"#utility.yul\":4542:4556   */\n      add\n        /* \"#utility.yul\":4535:4582   */\n      mstore\n        /* \"#utility.yul\":4418:4589   */\n      pop\n      jump\t// out\n        /* \"#utility.yul\":4595:4961   */\n    tag_92:\n        /* \"#utility.yul\":4737:4740   */\n      0x00\n        /* \"#utility.yul\":4758:4825   */\n      tag_142\n        /* \"#utility.yul\":4822:4824   */\n      0x15\n        /* \"#utility.yul\":4817:4820   */\n      dup4\n        /* \"#utility.yul\":4758:4825   */\n      tag_85\n      jump\t// in\n    tag_142:\n        /* \"#utility.yul\":4751:4825   */\n      swap2\n      pop\n        /* \"#utility.yul\":4834:4927   */\n      tag_143\n        /* \"#utility.yul\":4923:4926   */\n      dup3\n        /* \"#utility.yul\":4834:4927   */\n      tag_91\n      jump\t// in\n    tag_143:\n        /* \"#utility.yul\":4952:4954   */\n      0x20\n        /* \"#utility.yul\":4947:4950   */\n      dup3\n        /* \"#utility.yul\":4943:4955   */\n      add\n        /* \"#utility.yul\":4936:4955   */\n      swap1\n      pop\n        /* \"#utility.yul\":4595:4961   */\n      swap2\n      swap1\n      pop\n      jump\t// out\n        /* \"#utility.yul\":4967:5386   */\n    tag_43:\n        /* \"#utility.yul\":5133:5137   */\n      0x00\n        /* \"#utility.yul\":5171:5173   */\n      0x20\n        /* \"#utility.yul\":5160:5169   */\n      dup3\n        /* \"#utility.yul\":5156:5174   */\n      add\n        /* \"#utility.yul\":5148:5174   */\n      swap1\n      pop\n        /* \"#utility.yul\":5220:5229   */\n      dup2\n        /* \"#utility.yul\":5214:5218   */\n      dup2\n        /* \"#utility.yul\":5210:5230   */\n      sub\n        /* \"#utility.yul\":5206:5207   */\n      0x00\n        /* \"#utility.yul\":5195:5204   */\n      dup4\n        /* \"#utility.yul\":5191:5208   */\n      add\n        /* \"#utility.yul\":5184:5231   */\n      mstore\n        /* \"#utility.yul\":5248:5379   */\n      tag_145\n        /* \"#utility.yul\":5374:5378   */\n      dup2\n        /* \"#utility.yul\":5248:5379   */\n      tag_92\n      jump\t// in\n    tag_145:\n        /* \"#utility.yul\":5240:5379   */\n      swap1\n      pop\n        /* \"#utility.yul\":4967:5386   */\n      swap2\n      swap1\n      pop\n      jump\t// out\n        /* \"#utility.yul\":5392:5572   */\n    tag_93:\n        /* \"#utility.yul\":5440:5517   */\n      0x4e487b7100000000000000000000000000000000000000000000000000000000\n        /* \"#utility.yul\":5437:5438   */\n      0x00\n        /* \"#utility.yul\":5430:5518   */\n      mstore\n        /* \"#utility.yul\":5537:5541   */\n      0x11\n        /* \"#utility.yul\":5534:5535   */\n      0x04\n        /* \"#utility.yul\":5527:5542   */\n      mstore\n        /* \"#utility.yul\":5561:5565   */\n      0x24\n        /* \"#utility.yul\":5558:5559   */\n      0x00\n        /* \"#utility.yul\":5551:5566   */\n      revert\n        /* \"#utility.yul\":5578:5772   */\n    tag_45:\n        /* \"#utility.yul\":5618:5622   */\n      0x00\n        /* \"#utility.yul\":5638:5658   */\n      tag_148\n        /* \"#utility.yul\":5656:5657   */\n      dup3\n        /* \"#utility.yul\":5638:5658   */\n      tag_80\n      jump\t// in\n    tag_148:\n        /* \"#utility.yul\":5633:5658   */\n      swap2\n      pop\n        /* \"#utility.yul\":5672:5692   */\n      tag_149\n        /* \"#utility.yul\":5690:5691   */\n      dup4\n        /* \"#utility.yul\":5672:5692   */\n      tag_80\n      jump\t// in\n    tag_149:\n        /* \"#utility.yul\":5667:5692   */\n      swap3\n      pop\n        /* \"#utility.yul\":5716:5717   */\n      dup3\n        /* \"#utility.yul\":5713:5714   */\n      dup3\n        /* \"#utility.yul\":5709:5718   */\n      sub\n        /* \"#utility.yul\":5701:5718   */\n      swap1\n      pop\n        /* \"#utility.yul\":5740:5741   */\n      dup2\n        /* \"#utility.yul\":5734:5738   */\n      dup2\n        /* \"#utility.yul\":5731:5742   */\n      gt\n        /* \"#utility.yul\":5728:5765   */\n      iszero\n      tag_150\n      jumpi\n        /* \"#utility.yul\":5745:5763   */\n      tag_151\n      tag_93\n      jump\t// in\n    tag_151:\n        /* \"#utility.yul\":5728:5765   */\n    tag_150:\n        /* \"#utility.yul\":5578:5772   */\n      swap3\n      swap2\n      pop\n      pop\n      jump\t// out\n        /* \"#utility.yul\":5778:5969   */\n    tag_55:\n        /* \"#utility.yul\":5818:5821   */\n      0x00\n        /* \"#utility.yul\":5837:5857   */\n      tag_153\n        /* \"#utility.yul\":5855:5856   */\n      dup3\n        /* \"#utility.yul\":5837:5857   */\n      tag_80\n      jump\t// in\n    tag_153:\n        /* \"#utility.yul\":5832:5857   */\n      swap2\n      pop\n        /* \"#utility.yul\":5871:5891   */\n      tag_154\n        /* \"#utility.yul\":5889:5890   */\n      dup4\n        /* \"#utility.yul\":5871:5891   */\n      tag_80\n      jump\t// in\n    tag_154:\n        /* \"#utility.yul\":5866:5891   */\n      swap3\n      pop\n        /* \"#utility.yul\":5914:5915   */\n      dup3\n        /* \"#utility.yul\":5911:5912   */\n      dup3\n        /* \"#utility.yul\":5907:5916   */\n      add\n        /* \"#utility.yul\":5900:5916   */\n      swap1\n      pop\n        /* \"#utility.yul\":5935:5938   */\n      dup1\n        /* \"#utility.yul\":5932:5933   */\n      dup3\n        /* \"#utility.yul\":5929:5939   */\n      gt\n        /* \"#utility.yul\":5926:5962   */\n      iszero\n      tag_155\n      jumpi\n        /* \"#utility.yul\":5942:5960   */\n      tag_156\n      tag_93\n      jump\t// in\n    tag_156:\n        /* \"#utility.yul\":5926:5962   */\n    tag_155:\n        /* \"#utility.yul\":5778:5969   */\n      swap3\n      swap2\n      pop\n      pop\n      jump\t// out\n\n    auxdata: 0xa26469706673582212201b67799177369c4f217d183200ef1f326b1c764c08b5a7ca1daf0ef26c01099564736f6c634300081a0033\n}\n",
				"bytecode": {
					"linkReferences": {},
					"object": "608060405234801561000f575f80fd5b50604051610b02380380610b02833981810160405281019061003191906100bc565b815f81905550806001819055503360025f6101000a81548173ffffffffffffffffffffffffffffffffffffffff021916908373ffffffffffffffffffffffffffffffffffffffff16021790555050506100fa565b5f80fd5b5f819050919050565b61009b81610089565b81146100a5575f80fd5b50565b5f815190506100b681610092565b92915050565b5f80604083850312156100d2576100d1610085565b5b5f6100df858286016100a8565b92505060206100f0858286016100a8565b9150509250929050565b6109fb806101075f395ff3fe608060405234801561000f575f80fd5b506004361061007b575f3560e01c8063b86a42cd11610059578063b86a42cd146100d5578063bfa2c46b146100f3578063c84dabcf1461010f578063ec7e71fe1461013f5761007b565b806305b49aa71461007f5780630de72dad1461009b5780631916cbfa146100b9575b5f80fd5b61009960048036038101906100949190610741565b61015b565b005b6100a361024b565b6040516100b0919061078e565b60405180910390f35b6100d360048036038101906100ce9190610741565b6102e3565b005b6100dd6103d3565b6040516100ea919061078e565b60405180910390f35b61010d60048036038101906101089190610741565b61046a565b005b610129600480360381019061012491906107a7565b61055b565b6040516101369190610842565b60405180910390f35b61015960048036038101906101549190610741565b6105e4565b005b5f1515821515146101a1576040517f08c379a0000000000000000000000000000000000000000000000000000000008152600401610198906108ac565b60405180910390fd5b60025f9054906101000a900473ffffffffffffffffffffffffffffffffffffffff1673ffffffffffffffffffffffffffffffffffffffff163373ffffffffffffffffffffffffffffffffffffffff1614610230576040517f08c379a000000000000000000000000000000000000000000000000000000000815260040161022790610914565b60405180910390fd5b805f80828254610240919061095f565b925050819055505050565b5f60025f9054906101000a900473ffffffffffffffffffffffffffffffffffffffff1673ffffffffffffffffffffffffffffffffffffffff163373ffffffffffffffffffffffffffffffffffffffff16146102db576040517f08c379a00000000000000000000000000000000000000000000000000000000081526004016102d290610914565b60405180910390fd5b600154905090565b5f151582151514610329576040517f08c379a0000000000000000000000000000000000000000000000000000000008152600401610320906108ac565b60405180910390fd5b60025f9054906101000a900473ffffffffffffffffffffffffffffffffffffffff1673ffffffffffffffffffffffffffffffffffffffff163373ffffffffffffffffffffffffffffffffffffffff16146103b8576040517f08c379a00000000000000000000000000000000000000000000000000000000081526004016103af90610914565b60405180910390fd5b805f808282546103c89190610992565b925050819055505050565b5f60025f9054906101000a900473ffffffffffffffffffffffffffffffffffffffff1673ffffffffffffffffffffffffffffffffffffffff163373ffffffffffffffffffffffffffffffffffffffff1614610463576040517f08c379a000000000000000000000000000000000000000000000000000000000815260040161045a90610914565b60405180910390fd5b5f54905090565b5f1515821515146104b0576040517f08c379a00000000000000000000000000000000000000000000000000000000081526004016104a7906108ac565b60405180910390fd5b60025f9054906101000a900473ffffffffffffffffffffffffffffffffffffffff1673ffffffffffffffffffffffffffffffffffffffff163373ffffffffffffffffffffffffffffffffffffffff161461053f576040517f08c379a000000000000000000000000000000000000000000000000000000000815260040161053690610914565b60405180910390fd5b8060015f8282546105509190610992565b925050819055505050565b606060011515821515036105a6576040518060400160405280601081526020017f496e76656e746f7279204c6f636b65640000000000000000000000000000000081525090506105df565b6040518060400160405280601281526020017f496e76656e746f727920556e6c6f636b6564000000000000000000000000000081525090505b919050565b5f15158215151461062a576040517f08c379a0000000000000000000000000000000000000000000000000000000008152600401610621906108ac565b60405180910390fd5b60025f9054906101000a900473ffffffffffffffffffffffffffffffffffffffff1673ffffffffffffffffffffffffffffffffffffffff163373ffffffffffffffffffffffffffffffffffffffff16146106b9576040517f08c379a00000000000000000000000000000000000000000000000000000000081526004016106b090610914565b60405180910390fd5b8060015f8282546106ca919061095f565b925050819055505050565b5f80fd5b5f8115159050919050565b6106ed816106d9565b81146106f7575f80fd5b50565b5f81359050610708816106e4565b92915050565b5f819050919050565b6107208161070e565b811461072a575f80fd5b50565b5f8135905061073b81610717565b92915050565b5f8060408385031215610757576107566106d5565b5b5f610764858286016106fa565b92505060206107758582860161072d565b9150509250929050565b6107888161070e565b82525050565b5f6020820190506107a15f83018461077f565b92915050565b5f602082840312156107bc576107bb6106d5565b5b5f6107c9848285016106fa565b91505092915050565b5f81519050919050565b5f82825260208201905092915050565b8281835e5f83830152505050565b5f601f19601f8301169050919050565b5f610814826107d2565b61081e81856107dc565b935061082e8185602086016107ec565b610837816107fa565b840191505092915050565b5f6020820190508181035f83015261085a818461080a565b905092915050565b7f496e76656e746f7279206c6f636b65642c2063616e6e6f7420616464000000005f82015250565b5f610896601c836107dc565b91506108a182610862565b602082019050919050565b5f6020820190508181035f8301526108c38161088a565b9050919050565b7f596f7520617265206e6f7420746865206f776e657200000000000000000000005f82015250565b5f6108fe6015836107dc565b9150610909826108ca565b602082019050919050565b5f6020820190508181035f83015261092b816108f2565b9050919050565b7f4e487b71000000000000000000000000000000000000000000000000000000005f52601160045260245ffd5b5f6109698261070e565b91506109748361070e565b925082820390508181111561098c5761098b610932565b5b92915050565b5f61099c8261070e565b91506109a78361070e565b92508282019050808211156109bf576109be610932565b5b9291505056fea26469706673582212201b67799177369c4f217d183200ef1f326b1c764c08b5a7ca1daf0ef26c01099564736f6c634300081a0033",
					"opcodes": "PUSH1 0x80 PUSH1 0x40 MSTORE CALLVALUE DUP1 ISZERO PUSH2 0xF JUMPI PUSH0 DUP1 REVERT JUMPDEST POP PUSH1 0x40 MLOAD PUSH2 0xB02 CODESIZE SUB DUP1 PUSH2 0xB02 DUP4 CODECOPY DUP2 DUP2 ADD PUSH1 0x40 MSTORE DUP2 ADD SWAP1 PUSH2 0x31 SWAP2 SWAP1 PUSH2 0xBC JUMP JUMPDEST DUP2 PUSH0 DUP2 SWAP1 SSTORE POP DUP1 PUSH1 0x1 DUP2 SWAP1 SSTORE POP CALLER PUSH1 0x2 PUSH0 PUSH2 0x100 EXP DUP2 SLOAD DUP2 PUSH20 0xFFFFFFFFFFFFFFFFFFFFFFFFFFFFFFFFFFFFFFFF MUL NOT AND SWAP1 DUP4 PUSH20 0xFFFFFFFFFFFFFFFFFFFFFFFFFFFFFFFFFFFFFFFF AND MUL OR SWAP1 SSTORE POP POP POP PUSH2 0xFA JUMP JUMPDEST PUSH0 DUP1 REVERT JUMPDEST PUSH0 DUP2 SWAP1 POP SWAP2 SWAP1 POP JUMP JUMPDEST PUSH2 0x9B DUP2 PUSH2 0x89 JUMP JUMPDEST DUP2 EQ PUSH2 0xA5 JUMPI PUSH0 DUP1 REVERT JUMPDEST POP JUMP JUMPDEST PUSH0 DUP2 MLOAD SWAP1 POP PUSH2 0xB6 DUP2 PUSH2 0x92 JUMP JUMPDEST SWAP3 SWAP2 POP POP JUMP JUMPDEST PUSH0 DUP1 PUSH1 0x40 DUP4 DUP6 SUB SLT ISZERO PUSH2 0xD2 JUMPI PUSH2 0xD1 PUSH2 0x85 JUMP JUMPDEST JUMPDEST PUSH0 PUSH2 0xDF DUP6 DUP3 DUP7 ADD PUSH2 0xA8 JUMP JUMPDEST SWAP3 POP POP PUSH1 0x20 PUSH2 0xF0 DUP6 DUP3 DUP7 ADD PUSH2 0xA8 JUMP JUMPDEST SWAP2 POP POP SWAP3 POP SWAP3 SWAP1 POP JUMP JUMPDEST PUSH2 0x9FB DUP1 PUSH2 0x107 PUSH0 CODECOPY PUSH0 RETURN INVALID PUSH1 0x80 PUSH1 0x40 MSTORE CALLVALUE DUP1 ISZERO PUSH2 0xF JUMPI PUSH0 DUP1 REVERT JUMPDEST POP PUSH1 0x4 CALLDATASIZE LT PUSH2 0x7B JUMPI PUSH0 CALLDATALOAD PUSH1 0xE0 SHR DUP1 PUSH4 0xB86A42CD GT PUSH2 0x59 JUMPI DUP1 PUSH4 0xB86A42CD EQ PUSH2 0xD5 JUMPI DUP1 PUSH4 0xBFA2C46B EQ PUSH2 0xF3 JUMPI DUP1 PUSH4 0xC84DABCF EQ PUSH2 0x10F JUMPI DUP1 PUSH4 0xEC7E71FE EQ PUSH2 0x13F JUMPI PUSH2 0x7B JUMP JUMPDEST DUP1 PUSH4 0x5B49AA7 EQ PUSH2 0x7F JUMPI DUP1 PUSH4 0xDE72DAD EQ PUSH2 0x9B JUMPI DUP1 PUSH4 0x1916CBFA EQ PUSH2 0xB9 JUMPI JUMPDEST PUSH0 DUP1 REVERT JUMPDEST PUSH2 0x99 PUSH1 0x4 DUP1 CALLDATASIZE SUB DUP2 ADD SWAP1 PUSH2 0x94 SWAP2 SWAP1 PUSH2 0x741 JUMP JUMPDEST PUSH2 0x15B JUMP JUMPDEST STOP JUMPDEST PUSH2 0xA3 PUSH2 0x24B JUMP JUMPDEST PUSH1 0x40 MLOAD PUSH2 0xB0 SWAP2 SWAP1 PUSH2 0x78E JUMP JUMPDEST PUSH1 0x40 MLOAD DUP1 SWAP2 SUB SWAP1 RETURN JUMPDEST PUSH2 0xD3 PUSH1 0x4 DUP1 CALLDATASIZE SUB DUP2 ADD SWAP1 PUSH2 0xCE SWAP2 SWAP1 PUSH2 0x741 JUMP JUMPDEST PUSH2 0x2E3 JUMP JUMPDEST STOP JUMPDEST PUSH2 0xDD PUSH2 0x3D3 JUMP JUMPDEST PUSH1 0x40 MLOAD PUSH2 0xEA SWAP2 SWAP1 PUSH2 0x78E JUMP JUMPDEST PUSH1 0x40 MLOAD DUP1 SWAP2 SUB SWAP1 RETURN JUMPDEST PUSH2 0x10D PUSH1 0x4 DUP1 CALLDATASIZE SUB DUP2 ADD SWAP1 PUSH2 0x108 SWAP2 SWAP1 PUSH2 0x741 JUMP JUMPDEST PUSH2 0x46A JUMP JUMPDEST STOP JUMPDEST PUSH2 0x129 PUSH1 0x4 DUP1 CALLDATASIZE SUB DUP2 ADD SWAP1 PUSH2 0x124 SWAP2 SWAP1 PUSH2 0x7A7 JUMP JUMPDEST PUSH2 0x55B JUMP JUMPDEST PUSH1 0x40 MLOAD PUSH2 0x136 SWAP2 SWAP1 PUSH2 0x842 JUMP JUMPDEST PUSH1 0x40 MLOAD DUP1 SWAP2 SUB SWAP1 RETURN JUMPDEST PUSH2 0x159 PUSH1 0x4 DUP1 CALLDATASIZE SUB DUP2 ADD SWAP1 PUSH2 0x154 SWAP2 SWAP1 PUSH2 0x741 JUMP JUMPDEST PUSH2 0x5E4 JUMP JUMPDEST STOP JUMPDEST PUSH0 ISZERO ISZERO DUP3 ISZERO ISZERO EQ PUSH2 0x1A1 JUMPI PUSH1 0x40 MLOAD PUSH32 0x8C379A000000000000000000000000000000000000000000000000000000000 DUP2 MSTORE PUSH1 0x4 ADD PUSH2 0x198 SWAP1 PUSH2 0x8AC JUMP JUMPDEST PUSH1 0x40 MLOAD DUP1 SWAP2 SUB SWAP1 REVERT JUMPDEST PUSH1 0x2 PUSH0 SWAP1 SLOAD SWAP1 PUSH2 0x100 EXP SWAP1 DIV PUSH20 0xFFFFFFFFFFFFFFFFFFFFFFFFFFFFFFFFFFFFFFFF AND PUSH20 0xFFFFFFFFFFFFFFFFFFFFFFFFFFFFFFFFFFFFFFFF AND CALLER PUSH20 0xFFFFFFFFFFFFFFFFFFFFFFFFFFFFFFFFFFFFFFFF AND EQ PUSH2 0x230 JUMPI PUSH1 0x40 MLOAD PUSH32 0x8C379A000000000000000000000000000000000000000000000000000000000 DUP2 MSTORE PUSH1 0x4 ADD PUSH2 0x227 SWAP1 PUSH2 0x914 JUMP JUMPDEST PUSH1 0x40 MLOAD DUP1 SWAP2 SUB SWAP1 REVERT JUMPDEST DUP1 PUSH0 DUP1 DUP3 DUP3 SLOAD PUSH2 0x240 SWAP2 SWAP1 PUSH2 0x95F JUMP JUMPDEST SWAP3 POP POP DUP2 SWAP1 SSTORE POP POP POP JUMP JUMPDEST PUSH0 PUSH1 0x2 PUSH0 SWAP1 SLOAD SWAP1 PUSH2 0x100 EXP SWAP1 DIV PUSH20 0xFFFFFFFFFFFFFFFFFFFFFFFFFFFFFFFFFFFFFFFF AND PUSH20 0xFFFFFFFFFFFFFFFFFFFFFFFFFFFFFFFFFFFFFFFF AND CALLER PUSH20 0xFFFFFFFFFFFFFFFFFFFFFFFFFFFFFFFFFFFFFFFF AND EQ PUSH2 0x2DB JUMPI PUSH1 0x40 MLOAD PUSH32 0x8C379A000000000000000000000000000000000000000000000000000000000 DUP2 MSTORE PUSH1 0x4 ADD PUSH2 0x2D2 SWAP1 PUSH2 0x914 JUMP JUMPDEST PUSH1 0x40 MLOAD DUP1 SWAP2 SUB SWAP1 REVERT JUMPDEST PUSH1 0x1 SLOAD SWAP1 POP SWAP1 JUMP JUMPDEST PUSH0 ISZERO ISZERO DUP3 ISZERO ISZERO EQ PUSH2 0x329 JUMPI PUSH1 0x40 MLOAD PUSH32 0x8C379A000000000000000000000000000000000000000000000000000000000 DUP2 MSTORE PUSH1 0x4 ADD PUSH2 0x320 SWAP1 PUSH2 0x8AC JUMP JUMPDEST PUSH1 0x40 MLOAD DUP1 SWAP2 SUB SWAP1 REVERT JUMPDEST PUSH1 0x2 PUSH0 SWAP1 SLOAD SWAP1 PUSH2 0x100 EXP SWAP1 DIV PUSH20 0xFFFFFFFFFFFFFFFFFFFFFFFFFFFFFFFFFFFFFFFF AND PUSH20 0xFFFFFFFFFFFFFFFFFFFFFFFFFFFFFFFFFFFFFFFF AND CALLER PUSH20 0xFFFFFFFFFFFFFFFFFFFFFFFFFFFFFFFFFFFFFFFF AND EQ PUSH2 0x3B8 JUMPI PUSH1 0x40 MLOAD PUSH32 0x8C379A000000000000000000000000000000000000000000000000000000000 DUP2 MSTORE PUSH1 0x4 ADD PUSH2 0x3AF SWAP1 PUSH2 0x914 JUMP JUMPDEST PUSH1 0x40 MLOAD DUP1 SWAP2 SUB SWAP1 REVERT JUMPDEST DUP1 PUSH0 DUP1 DUP3 DUP3 SLOAD PUSH2 0x3C8 SWAP2 SWAP1 PUSH2 0x992 JUMP JUMPDEST SWAP3 POP POP DUP2 SWAP1 SSTORE POP POP POP JUMP JUMPDEST PUSH0 PUSH1 0x2 PUSH0 SWAP1 SLOAD SWAP1 PUSH2 0x100 EXP SWAP1 DIV PUSH20 0xFFFFFFFFFFFFFFFFFFFFFFFFFFFFFFFFFFFFFFFF AND PUSH20 0xFFFFFFFFFFFFFFFFFFFFFFFFFFFFFFFFFFFFFFFF AND CALLER PUSH20 0xFFFFFFFFFFFFFFFFFFFFFFFFFFFFFFFFFFFFFFFF AND EQ PUSH2 0x463 JUMPI PUSH1 0x40 MLOAD PUSH32 0x8C379A000000000000000000000000000000000000000000000000000000000 DUP2 MSTORE PUSH1 0x4 ADD PUSH2 0x45A SWAP1 PUSH2 0x914 JUMP JUMPDEST PUSH1 0x40 MLOAD DUP1 SWAP2 SUB SWAP1 REVERT JUMPDEST PUSH0 SLOAD SWAP1 POP SWAP1 JUMP JUMPDEST PUSH0 ISZERO ISZERO DUP3 ISZERO ISZERO EQ PUSH2 0x4B0 JUMPI PUSH1 0x40 MLOAD PUSH32 0x8C379A000000000000000000000000000000000000000000000000000000000 DUP2 MSTORE PUSH1 0x4 ADD PUSH2 0x4A7 SWAP1 PUSH2 0x8AC JUMP JUMPDEST PUSH1 0x40 MLOAD DUP1 SWAP2 SUB SWAP1 REVERT JUMPDEST PUSH1 0x2 PUSH0 SWAP1 SLOAD SWAP1 PUSH2 0x100 EXP SWAP1 DIV PUSH20 0xFFFFFFFFFFFFFFFFFFFFFFFFFFFFFFFFFFFFFFFF AND PUSH20 0xFFFFFFFFFFFFFFFFFFFFFFFFFFFFFFFFFFFFFFFF AND CALLER PUSH20 0xFFFFFFFFFFFFFFFFFFFFFFFFFFFFFFFFFFFFFFFF AND EQ PUSH2 0x53F JUMPI PUSH1 0x40 MLOAD PUSH32 0x8C379A000000000000000000000000000000000000000000000000000000000 DUP2 MSTORE PUSH1 0x4 ADD PUSH2 0x536 SWAP1 PUSH2 0x914 JUMP JUMPDEST PUSH1 0x40 MLOAD DUP1 SWAP2 SUB SWAP1 REVERT JUMPDEST DUP1 PUSH1 0x1 PUSH0 DUP3 DUP3 SLOAD PUSH2 0x550 SWAP2 SWAP1 PUSH2 0x992 JUMP JUMPDEST SWAP3 POP POP DUP2 SWAP1 SSTORE POP POP POP JUMP JUMPDEST PUSH1 0x60 PUSH1 0x1 ISZERO ISZERO DUP3 ISZERO ISZERO SUB PUSH2 0x5A6 JUMPI PUSH1 0x40 MLOAD DUP1 PUSH1 0x40 ADD PUSH1 0x40 MSTORE DUP1 PUSH1 0x10 DUP2 MSTORE PUSH1 0x20 ADD PUSH32 0x496E76656E746F7279204C6F636B656400000000000000000000000000000000 DUP2 MSTORE POP SWAP1 POP PUSH2 0x5DF JUMP JUMPDEST PUSH1 0x40 MLOAD DUP1 PUSH1 0x40 ADD PUSH1 0x40 MSTORE DUP1 PUSH1 0x12 DUP2 MSTORE PUSH1 0x20 ADD PUSH32 0x496E76656E746F727920556E6C6F636B65640000000000000000000000000000 DUP2 MSTORE POP SWAP1 POP JUMPDEST SWAP2 SWAP1 POP JUMP JUMPDEST PUSH0 ISZERO ISZERO DUP3 ISZERO ISZERO EQ PUSH2 0x62A JUMPI PUSH1 0x40 MLOAD PUSH32 0x8C379A000000000000000000000000000000000000000000000000000000000 DUP2 MSTORE PUSH1 0x4 ADD PUSH2 0x621 SWAP1 PUSH2 0x8AC JUMP JUMPDEST PUSH1 0x40 MLOAD DUP1 SWAP2 SUB SWAP1 REVERT JUMPDEST PUSH1 0x2 PUSH0 SWAP1 SLOAD SWAP1 PUSH2 0x100 EXP SWAP1 DIV PUSH20 0xFFFFFFFFFFFFFFFFFFFFFFFFFFFFFFFFFFFFFFFF AND PUSH20 0xFFFFFFFFFFFFFFFFFFFFFFFFFFFFFFFFFFFFFFFF AND CALLER PUSH20 0xFFFFFFFFFFFFFFFFFFFFFFFFFFFFFFFFFFFFFFFF AND EQ PUSH2 0x6B9 JUMPI PUSH1 0x40 MLOAD PUSH32 0x8C379A000000000000000000000000000000000000000000000000000000000 DUP2 MSTORE PUSH1 0x4 ADD PUSH2 0x6B0 SWAP1 PUSH2 0x914 JUMP JUMPDEST PUSH1 0x40 MLOAD DUP1 SWAP2 SUB SWAP1 REVERT JUMPDEST DUP1 PUSH1 0x1 PUSH0 DUP3 DUP3 SLOAD PUSH2 0x6CA SWAP2 SWAP1 PUSH2 0x95F JUMP JUMPDEST SWAP3 POP POP DUP2 SWAP1 SSTORE POP POP POP JUMP JUMPDEST PUSH0 DUP1 REVERT JUMPDEST PUSH0 DUP2 ISZERO ISZERO SWAP1 POP SWAP2 SWAP1 POP JUMP JUMPDEST PUSH2 0x6ED DUP2 PUSH2 0x6D9 JUMP JUMPDEST DUP2 EQ PUSH2 0x6F7 JUMPI PUSH0 DUP1 REVERT JUMPDEST POP JUMP JUMPDEST PUSH0 DUP2 CALLDATALOAD SWAP1 POP PUSH2 0x708 DUP2 PUSH2 0x6E4 JUMP JUMPDEST SWAP3 SWAP2 POP POP JUMP JUMPDEST PUSH0 DUP2 SWAP1 POP SWAP2 SWAP1 POP JUMP JUMPDEST PUSH2 0x720 DUP2 PUSH2 0x70E JUMP JUMPDEST DUP2 EQ PUSH2 0x72A JUMPI PUSH0 DUP1 REVERT JUMPDEST POP JUMP JUMPDEST PUSH0 DUP2 CALLDATALOAD SWAP1 POP PUSH2 0x73B DUP2 PUSH2 0x717 JUMP JUMPDEST SWAP3 SWAP2 POP POP JUMP JUMPDEST PUSH0 DUP1 PUSH1 0x40 DUP4 DUP6 SUB SLT ISZERO PUSH2 0x757 JUMPI PUSH2 0x756 PUSH2 0x6D5 JUMP JUMPDEST JUMPDEST PUSH0 PUSH2 0x764 DUP6 DUP3 DUP7 ADD PUSH2 0x6FA JUMP JUMPDEST SWAP3 POP POP PUSH1 0x20 PUSH2 0x775 DUP6 DUP3 DUP7 ADD PUSH2 0x72D JUMP JUMPDEST SWAP2 POP POP SWAP3 POP SWAP3 SWAP1 POP JUMP JUMPDEST PUSH2 0x788 DUP2 PUSH2 0x70E JUMP JUMPDEST DUP3 MSTORE POP POP JUMP JUMPDEST PUSH0 PUSH1 0x20 DUP3 ADD SWAP1 POP PUSH2 0x7A1 PUSH0 DUP4 ADD DUP5 PUSH2 0x77F JUMP JUMPDEST SWAP3 SWAP2 POP POP JUMP JUMPDEST PUSH0 PUSH1 0x20 DUP3 DUP5 SUB SLT ISZERO PUSH2 0x7BC JUMPI PUSH2 0x7BB PUSH2 0x6D5 JUMP JUMPDEST JUMPDEST PUSH0 PUSH2 0x7C9 DUP5 DUP3 DUP6 ADD PUSH2 0x6FA JUMP JUMPDEST SWAP2 POP POP SWAP3 SWAP2 POP POP JUMP JUMPDEST PUSH0 DUP2 MLOAD SWAP1 POP SWAP2 SWAP1 POP JUMP JUMPDEST PUSH0 DUP3 DUP3 MSTORE PUSH1 0x20 DUP3 ADD SWAP1 POP SWAP3 SWAP2 POP POP JUMP JUMPDEST DUP3 DUP2 DUP4 MCOPY PUSH0 DUP4 DUP4 ADD MSTORE POP POP POP JUMP JUMPDEST PUSH0 PUSH1 0x1F NOT PUSH1 0x1F DUP4 ADD AND SWAP1 POP SWAP2 SWAP1 POP JUMP JUMPDEST PUSH0 PUSH2 0x814 DUP3 PUSH2 0x7D2 JUMP JUMPDEST PUSH2 0x81E DUP2 DUP6 PUSH2 0x7DC JUMP JUMPDEST SWAP4 POP PUSH2 0x82E DUP2 DUP6 PUSH1 0x20 DUP7 ADD PUSH2 0x7EC JUMP JUMPDEST PUSH2 0x837 DUP2 PUSH2 0x7FA JUMP JUMPDEST DUP5 ADD SWAP2 POP POP SWAP3 SWAP2 POP POP JUMP JUMPDEST PUSH0 PUSH1 0x20 DUP3 ADD SWAP1 POP DUP2 DUP2 SUB PUSH0 DUP4 ADD MSTORE PUSH2 0x85A DUP2 DUP5 PUSH2 0x80A JUMP JUMPDEST SWAP1 POP SWAP3 SWAP2 POP POP JUMP JUMPDEST PUSH32 0x496E76656E746F7279206C6F636B65642C2063616E6E6F742061646400000000 PUSH0 DUP3 ADD MSTORE POP JUMP JUMPDEST PUSH0 PUSH2 0x896 PUSH1 0x1C DUP4 PUSH2 0x7DC JUMP JUMPDEST SWAP2 POP PUSH2 0x8A1 DUP3 PUSH2 0x862 JUMP JUMPDEST PUSH1 0x20 DUP3 ADD SWAP1 POP SWAP2 SWAP1 POP JUMP JUMPDEST PUSH0 PUSH1 0x20 DUP3 ADD SWAP1 POP DUP2 DUP2 SUB PUSH0 DUP4 ADD MSTORE PUSH2 0x8C3 DUP2 PUSH2 0x88A JUMP JUMPDEST SWAP1 POP SWAP2 SWAP1 POP JUMP JUMPDEST PUSH32 0x596F7520617265206E6F7420746865206F776E65720000000000000000000000 PUSH0 DUP3 ADD MSTORE POP JUMP JUMPDEST PUSH0 PUSH2 0x8FE PUSH1 0x15 DUP4 PUSH2 0x7DC JUMP JUMPDEST SWAP2 POP PUSH2 0x909 DUP3 PUSH2 0x8CA JUMP JUMPDEST PUSH1 0x20 DUP3 ADD SWAP1 POP SWAP2 SWAP1 POP JUMP JUMPDEST PUSH0 PUSH1 0x20 DUP3 ADD SWAP1 POP DUP2 DUP2 SUB PUSH0 DUP4 ADD MSTORE PUSH2 0x92B DUP2 PUSH2 0x8F2 JUMP JUMPDEST SWAP1 POP SWAP2 SWAP1 POP JUMP JUMPDEST PUSH32 0x4E487B7100000000000000000000000000000000000000000000000000000000 PUSH0 MSTORE PUSH1 0x11 PUSH1 0x4 MSTORE PUSH1 0x24 PUSH0 REVERT JUMPDEST PUSH0 PUSH2 0x969 DUP3 PUSH2 0x70E JUMP JUMPDEST SWAP2 POP PUSH2 0x974 DUP4 PUSH2 0x70E JUMP JUMPDEST SWAP3 POP DUP3 DUP3 SUB SWAP1 POP DUP2 DUP2 GT ISZERO PUSH2 0x98C JUMPI PUSH2 0x98B PUSH2 0x932 JUMP JUMPDEST JUMPDEST SWAP3 SWAP2 POP POP JUMP JUMPDEST PUSH0 PUSH2 0x99C DUP3 PUSH2 0x70E JUMP JUMPDEST SWAP2 POP PUSH2 0x9A7 DUP4 PUSH2 0x70E JUMP JUMPDEST SWAP3 POP DUP3 DUP3 ADD SWAP1 POP DUP1 DUP3 GT ISZERO PUSH2 0x9BF JUMPI PUSH2 0x9BE PUSH2 0x932 JUMP JUMPDEST JUMPDEST SWAP3 SWAP2 POP POP JUMP INVALID LOG2 PUSH5 0x6970667358 0x22 SLT KECCAK256 SHL PUSH8 0x799177369C4F217D XOR ORIGIN STOP 0xEF 0x1F ORIGIN PUSH12 0x1C764C08B5A7CA1DAF0EF26C ADD MULMOD SWAP6 PUSH5 0x736F6C6343 STOP ADDMOD BYTE STOP CALLER "
				},
				"gasEstimates": {
					"creation": {
						"codeDepositCost": "511000",
						"executionCost": "infinite",
						"totalCost": "infinite"
					},
					"external": {
						"Add1(bool,uint256)": "infinite",
						"Add2(bool,uint256)": "infinite",
						"Check1()": "4600",
						"Check2()": "4624",
						"Remove1(bool,uint256)": "infinite",
						"Remove2(bool,uint256)": "infinite",
						"status(bool)": "infinite"
					}
				},
				"methodIdentifiers": {
					"Add1(bool,uint256)": "1916cbfa",
					"Add2(bool,uint256)": "bfa2c46b",
					"Check1()": "b86a42cd",
					"Check2()": "0de72dad",
					"Remove1(bool,uint256)": "05b49aa7",
					"Remove2(bool,uint256)": "ec7e71fe",
					"status(bool)": "c84dabcf"
				}
			},
			"storageLayout": {
				"storage": [
					{
						"astId": 3,
						"contract": "Assignments/cp2-3.sol:Inventory",
						"label": "Item1",
						"offset": 0,
						"slot": "0",
						"type": "t_uint256"
					},
					{
						"astId": 5,
						"contract": "Assignments/cp2-3.sol:Inventory",
						"label": "Item2",
						"offset": 0,
						"slot": "1",
						"type": "t_uint256"
					},
					{
						"astId": 7,
						"contract": "Assignments/cp2-3.sol:Inventory",
						"label": "owner",
						"offset": 0,
						"slot": "2",
						"type": "t_address"
					}
				],
				"types": {
					"t_address": {
						"encoding": "inplace",
						"label": "address",
						"numberOfBytes": "20"
					},
					"t_uint256": {
						"encoding": "inplace",
						"label": "uint256",
						"numberOfBytes": "32"
					}
				}
			},
			"userdoc": {
				"kind": "user",
				"methods": {},
				"version": 1
			}
		}
	}
}