{
	"Assignments/program-23.sol": {
		"MembershipManagement": {
			"abi": [
				{
					"inputs": [],
					"name": "Threshold",
					"outputs": [
						{
							"internalType": "uint256",
							"name": "",
							"type": "uint256"
						}
					],
					"stateMutability": "view",
					"type": "function"
				},
				{
					"inputs": [
						{
							"internalType": "uint256",
							"name": "_id",
							"type": "uint256"
						},
						{
							"internalType": "string",
							"name": "_name",
							"type": "string"
						},
						{
							"internalType": "string",
							"name": "_contactDetails",
							"type": "string"
						}
					],
					"name": "addMember",
					"outputs": [],
					"stateMutability": "payable",
					"type": "function"
				},
				{
					"inputs": [],
					"name": "getTotalMembers",
					"outputs": [
						{
							"internalType": "uint256",
							"name": "",
							"type": "uint256"
						}
					],
					"stateMutability": "view",
					"type": "function"
				},
				{
					"inputs": [
						{
							"internalType": "uint256",
							"name": "",
							"type": "uint256"
						}
					],
					"name": "members",
					"outputs": [
						{
							"internalType": "uint256",
							"name": "id",
							"type": "uint256"
						},
						{
							"internalType": "string",
							"name": "name",
							"type": "string"
						},
						{
							"internalType": "string",
							"name": "contactDetails",
							"type": "string"
						},
						{
							"internalType": "uint256",
							"name": "membershipFee",
							"type": "uint256"
						}
					],
					"stateMutability": "view",
					"type": "function"
				},
				{
					"inputs": [
						{
							"internalType": "uint256",
							"name": "_id",
							"type": "uint256"
						}
					],
					"name": "retrieveMember",
					"outputs": [
						{
							"internalType": "uint256",
							"name": "",
							"type": "uint256"
						},
						{
							"internalType": "string",
							"name": "",
							"type": "string"
						},
						{
							"internalType": "string",
							"name": "",
							"type": "string"
						},
						{
							"internalType": "uint256",
							"name": "",
							"type": "uint256"
						}
					],
					"stateMutability": "view",
					"type": "function"
				},
				{
					"inputs": [],
					"name": "totalMembers",
					"outputs": [
						{
							"internalType": "uint256",
							"name": "",
							"type": "uint256"
						}
					],
					"stateMutability": "view",
					"type": "function"
				}
			],
			"devdoc": {
				"kind": "dev",
				"methods": {},
				"version": 1
			},
			"evm": {
				"assembly": "    /* \"Assignments/program-23.sol\":62:1025  contract MembershipManagement {... */\n  mstore(0x40, 0x80)\n    /* \"Assignments/program-23.sol\":328:335  1 ether */\n  0x0de0b6b3a7640000\n    /* \"Assignments/program-23.sol\":304:335  uint public Threshold = 1 ether */\n  0x02\n  sstore\n    /* \"Assignments/program-23.sol\":62:1025  contract MembershipManagement {... */\n  callvalue\n  dup1\n  iszero\n  tag_1\n  jumpi\n  0x00\n  dup1\n  revert\ntag_1:\n  pop\n  dataSize(sub_0)\n  dup1\n  dataOffset(sub_0)\n  0x00\n  codecopy\n  0x00\n  return\nstop\n\nsub_0: assembly {\n        /* \"Assignments/program-23.sol\":62:1025  contract MembershipManagement {... */\n      mstore(0x40, 0x80)\n      jumpi(tag_1, lt(calldatasize, 0x04))\n      shr(0xe0, calldataload(0x00))\n      dup1\n      0x5daf08ca\n      eq\n      tag_2\n      jumpi\n      dup1\n      0x76e92559\n      eq\n      tag_3\n      jumpi\n      dup1\n      0x7fb33eb1\n      eq\n      tag_4\n      jumpi\n      dup1\n      0x8f180305\n      eq\n      tag_5\n      jumpi\n      dup1\n      0xc8718fbb\n      eq\n      tag_6\n      jumpi\n      dup1\n      0xfd7babb8\n      eq\n      tag_7\n      jumpi\n    tag_1:\n      0x00\n      dup1\n      revert\n        /* \"Assignments/program-23.sol\":228:266  mapping(uint => Member) public members */\n    tag_2:\n      callvalue\n      dup1\n      iszero\n      tag_8\n      jumpi\n      0x00\n      dup1\n      revert\n    tag_8:\n      pop\n      tag_9\n      0x04\n      dup1\n      calldatasize\n      sub\n      dup2\n      add\n      swap1\n      tag_10\n      swap2\n      swap1\n      tag_11\n      jump\t// in\n    tag_10:\n      tag_12\n      jump\t// in\n    tag_9:\n      mload(0x40)\n      tag_13\n      swap5\n      swap4\n      swap3\n      swap2\n      swap1\n      tag_14\n      jump\t// in\n    tag_13:\n      mload(0x40)\n      dup1\n      swap2\n      sub\n      swap1\n      return\n        /* \"Assignments/program-23.sol\":273:297  uint public totalMembers */\n    tag_3:\n      callvalue\n      dup1\n      iszero\n      tag_15\n      jumpi\n      0x00\n      dup1\n      revert\n    tag_15:\n      pop\n      tag_16\n      tag_17\n      jump\t// in\n    tag_16:\n      mload(0x40)\n      tag_18\n      swap2\n      swap1\n      tag_19\n      jump\t// in\n    tag_18:\n      mload(0x40)\n      dup1\n      swap2\n      sub\n      swap1\n      return\n        /* \"Assignments/program-23.sol\":343:680  function addMember(uint _id, string memory _name, string memory _contactDetails) public payable {... */\n    tag_4:\n      tag_20\n      0x04\n      dup1\n      calldatasize\n      sub\n      dup2\n      add\n      swap1\n      tag_21\n      swap2\n      swap1\n      tag_22\n      jump\t// in\n    tag_21:\n      tag_23\n      jump\t// in\n    tag_20:\n      stop\n        /* \"Assignments/program-23.sol\":930:1022  function getTotalMembers() public view returns (uint) {... */\n    tag_5:\n      callvalue\n      dup1\n      iszero\n      tag_24\n      jumpi\n      0x00\n      dup1\n      revert\n    tag_24:\n      pop\n      tag_25\n      tag_26\n      jump\t// in\n    tag_25:\n      mload(0x40)\n      tag_27\n      swap2\n      swap1\n      tag_19\n      jump\t// in\n    tag_27:\n      mload(0x40)\n      dup1\n      swap2\n      sub\n      swap1\n      return\n        /* \"Assignments/program-23.sol\":686:924  function retrieveMember(uint _id) public view returns (uint, string memory, string memory, uint) {... */\n    tag_6:\n      callvalue\n      dup1\n      iszero\n      tag_28\n      jumpi\n      0x00\n      dup1\n      revert\n    tag_28:\n      pop\n      tag_29\n      0x04\n      dup1\n      calldatasize\n      sub\n      dup2\n      add\n      swap1\n      tag_30\n      swap2\n      swap1\n      tag_11\n      jump\t// in\n    tag_30:\n      tag_31\n      jump\t// in\n    tag_29:\n      mload(0x40)\n      tag_32\n      swap5\n      swap4\n      swap3\n      swap2\n      swap1\n      tag_14\n      jump\t// in\n    tag_32:\n      mload(0x40)\n      dup1\n      swap2\n      sub\n      swap1\n      return\n        /* \"Assignments/program-23.sol\":304:335  uint public Threshold = 1 ether */\n    tag_7:\n      callvalue\n      dup1\n      iszero\n      tag_33\n      jumpi\n      0x00\n      dup1\n      revert\n    tag_33:\n      pop\n      tag_34\n      tag_35\n      jump\t// in\n    tag_34:\n      mload(0x40)\n      tag_36\n      swap2\n      swap1\n      tag_19\n      jump\t// in\n    tag_36:\n      mload(0x40)\n      dup1\n      swap2\n      sub\n      swap1\n      return\n        /* \"Assignments/program-23.sol\":228:266  mapping(uint => Member) public members */\n    tag_12:\n      mstore(0x20, 0x00)\n      dup1\n      0x00\n      mstore\n      keccak256(0x00, 0x40)\n      0x00\n      swap2\n      pop\n      swap1\n      pop\n      dup1\n      0x00\n      add\n      sload\n      swap1\n      dup1\n      0x01\n      add\n      dup1\n      sload\n      tag_37\n      swap1\n      tag_38\n      jump\t// in\n    tag_37:\n      dup1\n      0x1f\n      add\n      0x20\n      dup1\n      swap2\n      div\n      mul\n      0x20\n      add\n      mload(0x40)\n      swap1\n      dup2\n      add\n      0x40\n      mstore\n      dup1\n      swap3\n      swap2\n      swap1\n      dup2\n      dup2\n      mstore\n      0x20\n      add\n      dup3\n      dup1\n      sload\n      tag_39\n      swap1\n      tag_38\n      jump\t// in\n    tag_39:\n      dup1\n      iszero\n      tag_40\n      jumpi\n      dup1\n      0x1f\n      lt\n      tag_41\n      jumpi\n      0x0100\n      dup1\n      dup4\n      sload\n      div\n      mul\n      dup4\n      mstore\n      swap2\n      0x20\n      add\n      swap2\n      jump(tag_40)\n    tag_41:\n      dup3\n      add\n      swap2\n      swap1\n      0x00\n      mstore\n      keccak256(0x00, 0x20)\n      swap1\n    tag_42:\n      dup2\n      sload\n      dup2\n      mstore\n      swap1\n      0x01\n      add\n      swap1\n      0x20\n      add\n      dup1\n      dup4\n      gt\n      tag_42\n      jumpi\n      dup3\n      swap1\n      sub\n      0x1f\n      and\n      dup3\n      add\n      swap2\n    tag_40:\n      pop\n      pop\n      pop\n      pop\n      pop\n      swap1\n      dup1\n      0x02\n      add\n      dup1\n      sload\n      tag_43\n      swap1\n      tag_38\n      jump\t// in\n    tag_43:\n      dup1\n      0x1f\n      add\n      0x20\n      dup1\n      swap2\n      div\n      mul\n      0x20\n      add\n      mload(0x40)\n      swap1\n      dup2\n      add\n      0x40\n      mstore\n      dup1\n      swap3\n      swap2\n      swap1\n      dup2\n      dup2\n      mstore\n      0x20\n      add\n      dup3\n      dup1\n      sload\n      tag_44\n      swap1\n      tag_38\n      jump\t// in\n    tag_44:\n      dup1\n      iszero\n      tag_45\n      jumpi\n      dup1\n      0x1f\n      lt\n      tag_46\n      jumpi\n      0x0100\n      dup1\n      dup4\n      sload\n      div\n      mul\n      dup4\n      mstore\n      swap2\n      0x20\n      add\n      swap2\n      jump(tag_45)\n    tag_46:\n      dup3\n      add\n      swap2\n      swap1\n      0x00\n      mstore\n      keccak256(0x00, 0x20)\n      swap1\n    tag_47:\n      dup2\n      sload\n      dup2\n      mstore\n      swap1\n      0x01\n      add\n      swap1\n      0x20\n      add\n      dup1\n      dup4\n      gt\n      tag_47\n      jumpi\n      dup3\n      swap1\n      sub\n      0x1f\n      and\n      dup3\n      add\n      swap2\n    tag_45:\n      pop\n      pop\n      pop\n      pop\n      pop\n      swap1\n      dup1\n      0x03\n      add\n      sload\n      swap1\n      pop\n      dup5\n      jump\t// out\n        /* \"Assignments/program-23.sol\":273:297  uint public totalMembers */\n    tag_17:\n      sload(0x01)\n      dup2\n      jump\t// out\n        /* \"Assignments/program-23.sol\":343:680  function addMember(uint _id, string memory _name, string memory _contactDetails) public payable {... */\n    tag_23:\n        /* \"Assignments/program-23.sol\":471:480  Threshold */\n      sload(0x02)\n        /* \"Assignments/program-23.sol\":458:467  msg.value */\n      callvalue\n        /* \"Assignments/program-23.sol\":458:480  msg.value >= Threshold */\n      lt\n      iszero\n        /* \"Assignments/program-23.sol\":450:532  require(msg.value >= Threshold, \"Membership fee is below the required threshold.\") */\n      tag_49\n      jumpi\n      mload(0x40)\n      0x08c379a000000000000000000000000000000000000000000000000000000000\n      dup2\n      mstore\n      0x04\n      add\n      tag_50\n      swap1\n      tag_51\n      jump\t// in\n    tag_50:\n      mload(0x40)\n      dup1\n      swap2\n      sub\n      swap1\n      revert\n    tag_49:\n        /* \"Assignments/program-23.sol\":558:647  Member({id: _id, name: _name, contactDetails: _contactDetails, membershipFee: msg.value}) */\n      mload(0x40)\n      dup1\n      0x80\n      add\n      0x40\n      mstore\n      dup1\n        /* \"Assignments/program-23.sol\":570:573  _id */\n      dup5\n        /* \"Assignments/program-23.sol\":558:647  Member({id: _id, name: _name, contactDetails: _contactDetails, membershipFee: msg.value}) */\n      dup2\n      mstore\n      0x20\n      add\n        /* \"Assignments/program-23.sol\":581:586  _name */\n      dup4\n        /* \"Assignments/program-23.sol\":558:647  Member({id: _id, name: _name, contactDetails: _contactDetails, membershipFee: msg.value}) */\n      dup2\n      mstore\n      0x20\n      add\n        /* \"Assignments/program-23.sol\":604:619  _contactDetails */\n      dup3\n        /* \"Assignments/program-23.sol\":558:647  Member({id: _id, name: _name, contactDetails: _contactDetails, membershipFee: msg.value}) */\n      dup2\n      mstore\n      0x20\n      add\n        /* \"Assignments/program-23.sol\":636:645  msg.value */\n      callvalue\n        /* \"Assignments/program-23.sol\":558:647  Member({id: _id, name: _name, contactDetails: _contactDetails, membershipFee: msg.value}) */\n      dup2\n      mstore\n      pop\n        /* \"Assignments/program-23.sol\":543:550  members */\n      0x00\n        /* \"Assignments/program-23.sol\":543:555  members[_id] */\n      dup1\n        /* \"Assignments/program-23.sol\":551:554  _id */\n      dup6\n        /* \"Assignments/program-23.sol\":543:555  members[_id] */\n      dup2\n      mstore\n      0x20\n      add\n      swap1\n      dup2\n      mstore\n      0x20\n      add\n      0x00\n      keccak256\n        /* \"Assignments/program-23.sol\":543:647  members[_id] = Member({id: _id, name: _name, contactDetails: _contactDetails, membershipFee: msg.value}) */\n      0x00\n      dup3\n      add\n      mload\n      dup2\n      0x00\n      add\n      sstore\n      0x20\n      dup3\n      add\n      mload\n      dup2\n      0x01\n      add\n      swap1\n      dup2\n      tag_52\n      swap2\n      swap1\n      tag_53\n      jump\t// in\n    tag_52:\n      pop\n      0x40\n      dup3\n      add\n      mload\n      dup2\n      0x02\n      add\n      swap1\n      dup2\n      tag_54\n      swap2\n      swap1\n      tag_53\n      jump\t// in\n    tag_54:\n      pop\n      0x60\n      dup3\n      add\n      mload\n      dup2\n      0x03\n      add\n      sstore\n      swap1\n      pop\n      pop\n        /* \"Assignments/program-23.sol\":658:670  totalMembers */\n      0x01\n      0x00\n        /* \"Assignments/program-23.sol\":658:672  totalMembers++ */\n      dup2\n      sload\n      dup1\n      swap3\n      swap2\n      swap1\n      tag_55\n      swap1\n      tag_56\n      jump\t// in\n    tag_55:\n      swap2\n      swap1\n      pop\n      sstore\n      pop\n        /* \"Assignments/program-23.sol\":343:680  function addMember(uint _id, string memory _name, string memory _contactDetails) public payable {... */\n      pop\n      pop\n      pop\n      jump\t// out\n        /* \"Assignments/program-23.sol\":930:1022  function getTotalMembers() public view returns (uint) {... */\n    tag_26:\n        /* \"Assignments/program-23.sol\":978:982  uint */\n      0x00\n        /* \"Assignments/program-23.sol\":1002:1014  totalMembers */\n      sload(0x01)\n        /* \"Assignments/program-23.sol\":995:1014  return totalMembers */\n      swap1\n      pop\n        /* \"Assignments/program-23.sol\":930:1022  function getTotalMembers() public view returns (uint) {... */\n      swap1\n      jump\t// out\n        /* \"Assignments/program-23.sol\":686:924  function retrieveMember(uint _id) public view returns (uint, string memory, string memory, uint) {... */\n    tag_31:\n        /* \"Assignments/program-23.sol\":741:745  uint */\n      0x00\n        /* \"Assignments/program-23.sol\":747:760  string memory */\n      0x60\n        /* \"Assignments/program-23.sol\":762:775  string memory */\n      dup1\n        /* \"Assignments/program-23.sol\":777:781  uint */\n      0x00\n        /* \"Assignments/program-23.sol\":794:814  Member memory member */\n      dup1\n        /* \"Assignments/program-23.sol\":817:824  members */\n      0x00\n        /* \"Assignments/program-23.sol\":817:829  members[_id] */\n      dup1\n        /* \"Assignments/program-23.sol\":825:828  _id */\n      dup8\n        /* \"Assignments/program-23.sol\":817:829  members[_id] */\n      dup2\n      mstore\n      0x20\n      add\n      swap1\n      dup2\n      mstore\n      0x20\n      add\n      0x00\n      keccak256\n        /* \"Assignments/program-23.sol\":794:829  Member memory member = members[_id] */\n      mload(0x40)\n      dup1\n      0x80\n      add\n      0x40\n      mstore\n      swap1\n      dup2\n      0x00\n      dup3\n      add\n      sload\n      dup2\n      mstore\n      0x20\n      add\n      0x01\n      dup3\n      add\n      dup1\n      sload\n      tag_59\n      swap1\n      tag_38\n      jump\t// in\n    tag_59:\n      dup1\n      0x1f\n      add\n      0x20\n      dup1\n      swap2\n      div\n      mul\n      0x20\n      add\n      mload(0x40)\n      swap1\n      dup2\n      add\n      0x40\n      mstore\n      dup1\n      swap3\n      swap2\n      swap1\n      dup2\n      dup2\n      mstore\n      0x20\n      add\n      dup3\n      dup1\n      sload\n      tag_60\n      swap1\n      tag_38\n      jump\t// in\n    tag_60:\n      dup1\n      iszero\n      tag_61\n      jumpi\n      dup1\n      0x1f\n      lt\n      tag_62\n      jumpi\n      0x0100\n      dup1\n      dup4\n      sload\n      div\n      mul\n      dup4\n      mstore\n      swap2\n      0x20\n      add\n      swap2\n      jump(tag_61)\n    tag_62:\n      dup3\n      add\n      swap2\n      swap1\n      0x00\n      mstore\n      keccak256(0x00, 0x20)\n      swap1\n    tag_63:\n      dup2\n      sload\n      dup2\n      mstore\n      swap1\n      0x01\n      add\n      swap1\n      0x20\n      add\n      dup1\n      dup4\n      gt\n      tag_63\n      jumpi\n      dup3\n      swap1\n      sub\n      0x1f\n      and\n      dup3\n      add\n      swap2\n    tag_61:\n      pop\n      pop\n      pop\n      pop\n      pop\n      dup2\n      mstore\n      0x20\n      add\n      0x02\n      dup3\n      add\n      dup1\n      sload\n      tag_64\n      swap1\n      tag_38\n      jump\t// in\n    tag_64:\n      dup1\n      0x1f\n      add\n      0x20\n      dup1\n      swap2\n      div\n      mul\n      0x20\n      add\n      mload(0x40)\n      swap1\n      dup2\n      add\n      0x40\n      mstore\n      dup1\n      swap3\n      swap2\n      swap1\n      dup2\n      dup2\n      mstore\n      0x20\n      add\n      dup3\n      dup1\n      sload\n      tag_65\n      swap1\n      tag_38\n      jump\t// in\n    tag_65:\n      dup1\n      iszero\n      tag_66\n      jumpi\n      dup1\n      0x1f\n      lt\n      tag_67\n      jumpi\n      0x0100\n      dup1\n      dup4\n      sload\n      div\n      mul\n      dup4\n      mstore\n      swap2\n      0x20\n      add\n      swap2\n      jump(tag_66)\n    tag_67:\n      dup3\n      add\n      swap2\n      swap1\n      0x00\n      mstore\n      keccak256(0x00, 0x20)\n      swap1\n    tag_68:\n      dup2\n      sload\n      dup2\n      mstore\n      swap1\n      0x01\n      add\n      swap1\n      0x20\n      add\n      dup1\n      dup4\n      gt\n      tag_68\n      jumpi\n      dup3\n      swap1\n      sub\n      0x1f\n      and\n      dup3\n      add\n      swap2\n    tag_66:\n      pop\n      pop\n      pop\n      pop\n      pop\n      dup2\n      mstore\n      0x20\n      add\n      0x03\n      dup3\n      add\n      sload\n      dup2\n      mstore\n      pop\n      pop\n      swap1\n      pop\n        /* \"Assignments/program-23.sol\":848:854  member */\n      dup1\n        /* \"Assignments/program-23.sol\":848:857  member.id */\n      0x00\n      add\n      mload\n        /* \"Assignments/program-23.sol\":859:865  member */\n      dup2\n        /* \"Assignments/program-23.sol\":859:870  member.name */\n      0x20\n      add\n      mload\n        /* \"Assignments/program-23.sol\":872:878  member */\n      dup3\n        /* \"Assignments/program-23.sol\":872:893  member.contactDetails */\n      0x40\n      add\n      mload\n        /* \"Assignments/program-23.sol\":895:901  member */\n      dup4\n        /* \"Assignments/program-23.sol\":895:915  member.membershipFee */\n      0x60\n      add\n      mload\n        /* \"Assignments/program-23.sol\":840:916  return (member.id, member.name, member.contactDetails, member.membershipFee) */\n      swap5\n      pop\n      swap5\n      pop\n      swap5\n      pop\n      swap5\n      pop\n      pop\n        /* \"Assignments/program-23.sol\":686:924  function retrieveMember(uint _id) public view returns (uint, string memory, string memory, uint) {... */\n      swap2\n      swap4\n      pop\n      swap2\n      swap4\n      jump\t// out\n        /* \"Assignments/program-23.sol\":304:335  uint public Threshold = 1 ether */\n    tag_35:\n      sload(0x02)\n      dup2\n      jump\t// out\n        /* \"#utility.yul\":7:82   */\n    tag_69:\n        /* \"#utility.yul\":40:46   */\n      0x00\n        /* \"#utility.yul\":73:75   */\n      0x40\n        /* \"#utility.yul\":67:76   */\n      mload\n        /* \"#utility.yul\":57:76   */\n      swap1\n      pop\n        /* \"#utility.yul\":7:82   */\n      swap1\n      jump\t// out\n        /* \"#utility.yul\":88:205   */\n    tag_70:\n        /* \"#utility.yul\":197:198   */\n      0x00\n        /* \"#utility.yul\":194:195   */\n      dup1\n        /* \"#utility.yul\":187:199   */\n      revert\n        /* \"#utility.yul\":211:328   */\n    tag_71:\n        /* \"#utility.yul\":320:321   */\n      0x00\n        /* \"#utility.yul\":317:318   */\n      dup1\n        /* \"#utility.yul\":310:322   */\n      revert\n        /* \"#utility.yul\":334:411   */\n    tag_72:\n        /* \"#utility.yul\":371:378   */\n      0x00\n        /* \"#utility.yul\":400:405   */\n      dup2\n        /* \"#utility.yul\":389:405   */\n      swap1\n      pop\n        /* \"#utility.yul\":334:411   */\n      swap2\n      swap1\n      pop\n      jump\t// out\n        /* \"#utility.yul\":417:539   */\n    tag_73:\n        /* \"#utility.yul\":490:514   */\n      tag_115\n        /* \"#utility.yul\":508:513   */\n      dup2\n        /* \"#utility.yul\":490:514   */\n      tag_72\n      jump\t// in\n    tag_115:\n        /* \"#utility.yul\":483:488   */\n      dup2\n        /* \"#utility.yul\":480:515   */\n      eq\n        /* \"#utility.yul\":470:533   */\n      tag_116\n      jumpi\n        /* \"#utility.yul\":529:530   */\n      0x00\n        /* \"#utility.yul\":526:527   */\n      dup1\n        /* \"#utility.yul\":519:531   */\n      revert\n        /* \"#utility.yul\":470:533   */\n    tag_116:\n        /* \"#utility.yul\":417:539   */\n      pop\n      jump\t// out\n        /* \"#utility.yul\":545:684   */\n    tag_74:\n        /* \"#utility.yul\":591:596   */\n      0x00\n        /* \"#utility.yul\":629:635   */\n      dup2\n        /* \"#utility.yul\":616:636   */\n      calldataload\n        /* \"#utility.yul\":607:636   */\n      swap1\n      pop\n        /* \"#utility.yul\":645:678   */\n      tag_118\n        /* \"#utility.yul\":672:677   */\n      dup2\n        /* \"#utility.yul\":645:678   */\n      tag_73\n      jump\t// in\n    tag_118:\n        /* \"#utility.yul\":545:684   */\n      swap3\n      swap2\n      pop\n      pop\n      jump\t// out\n        /* \"#utility.yul\":690:1019   */\n    tag_11:\n        /* \"#utility.yul\":749:755   */\n      0x00\n        /* \"#utility.yul\":798:800   */\n      0x20\n        /* \"#utility.yul\":786:795   */\n      dup3\n        /* \"#utility.yul\":777:784   */\n      dup5\n        /* \"#utility.yul\":773:796   */\n      sub\n        /* \"#utility.yul\":769:801   */\n      slt\n        /* \"#utility.yul\":766:885   */\n      iszero\n      tag_120\n      jumpi\n        /* \"#utility.yul\":804:883   */\n      tag_121\n      tag_70\n      jump\t// in\n    tag_121:\n        /* \"#utility.yul\":766:885   */\n    tag_120:\n        /* \"#utility.yul\":924:925   */\n      0x00\n        /* \"#utility.yul\":949:1002   */\n      tag_122\n        /* \"#utility.yul\":994:1001   */\n      dup5\n        /* \"#utility.yul\":985:991   */\n      dup3\n        /* \"#utility.yul\":974:983   */\n      dup6\n        /* \"#utility.yul\":970:992   */\n      add\n        /* \"#utility.yul\":949:1002   */\n      tag_74\n      jump\t// in\n    tag_122:\n        /* \"#utility.yul\":939:1002   */\n      swap2\n      pop\n        /* \"#utility.yul\":895:1012   */\n      pop\n        /* \"#utility.yul\":690:1019   */\n      swap3\n      swap2\n      pop\n      pop\n      jump\t// out\n        /* \"#utility.yul\":1025:1143   */\n    tag_75:\n        /* \"#utility.yul\":1112:1136   */\n      tag_124\n        /* \"#utility.yul\":1130:1135   */\n      dup2\n        /* \"#utility.yul\":1112:1136   */\n      tag_72\n      jump\t// in\n    tag_124:\n        /* \"#utility.yul\":1107:1110   */\n      dup3\n        /* \"#utility.yul\":1100:1137   */\n      mstore\n        /* \"#utility.yul\":1025:1143   */\n      pop\n      pop\n      jump\t// out\n        /* \"#utility.yul\":1149:1248   */\n    tag_76:\n        /* \"#utility.yul\":1201:1207   */\n      0x00\n        /* \"#utility.yul\":1235:1240   */\n      dup2\n        /* \"#utility.yul\":1229:1241   */\n      mload\n        /* \"#utility.yul\":1219:1241   */\n      swap1\n      pop\n        /* \"#utility.yul\":1149:1248   */\n      swap2\n      swap1\n      pop\n      jump\t// out\n        /* \"#utility.yul\":1254:1423   */\n    tag_77:\n        /* \"#utility.yul\":1338:1349   */\n      0x00\n        /* \"#utility.yul\":1372:1378   */\n      dup3\n        /* \"#utility.yul\":1367:1370   */\n      dup3\n        /* \"#utility.yul\":1360:1379   */\n      mstore\n        /* \"#utility.yul\":1412:1416   */\n      0x20\n        /* \"#utility.yul\":1407:1410   */\n      dup3\n        /* \"#utility.yul\":1403:1417   */\n      add\n        /* \"#utility.yul\":1388:1417   */\n      swap1\n      pop\n        /* \"#utility.yul\":1254:1423   */\n      swap3\n      swap2\n      pop\n      pop\n      jump\t// out\n        /* \"#utility.yul\":1429:1568   */\n    tag_78:\n        /* \"#utility.yul\":1518:1524   */\n      dup3\n        /* \"#utility.yul\":1513:1516   */\n      dup2\n        /* \"#utility.yul\":1508:1511   */\n      dup4\n        /* \"#utility.yul\":1502:1525   */\n      mcopy\n        /* \"#utility.yul\":1559:1560   */\n      0x00\n        /* \"#utility.yul\":1550:1556   */\n      dup4\n        /* \"#utility.yul\":1545:1548   */\n      dup4\n        /* \"#utility.yul\":1541:1557   */\n      add\n        /* \"#utility.yul\":1534:1561   */\n      mstore\n        /* \"#utility.yul\":1429:1568   */\n      pop\n      pop\n      pop\n      jump\t// out\n        /* \"#utility.yul\":1574:1676   */\n    tag_79:\n        /* \"#utility.yul\":1615:1621   */\n      0x00\n        /* \"#utility.yul\":1666:1668   */\n      0x1f\n        /* \"#utility.yul\":1662:1669   */\n      not\n        /* \"#utility.yul\":1657:1659   */\n      0x1f\n        /* \"#utility.yul\":1650:1655   */\n      dup4\n        /* \"#utility.yul\":1646:1660   */\n      add\n        /* \"#utility.yul\":1642:1670   */\n      and\n        /* \"#utility.yul\":1632:1670   */\n      swap1\n      pop\n        /* \"#utility.yul\":1574:1676   */\n      swap2\n      swap1\n      pop\n      jump\t// out\n        /* \"#utility.yul\":1682:2059   */\n    tag_80:\n        /* \"#utility.yul\":1770:1773   */\n      0x00\n        /* \"#utility.yul\":1798:1837   */\n      tag_130\n        /* \"#utility.yul\":1831:1836   */\n      dup3\n        /* \"#utility.yul\":1798:1837   */\n      tag_76\n      jump\t// in\n    tag_130:\n        /* \"#utility.yul\":1853:1924   */\n      tag_131\n        /* \"#utility.yul\":1917:1923   */\n      dup2\n        /* \"#utility.yul\":1912:1915   */\n      dup6\n        /* \"#utility.yul\":1853:1924   */\n      tag_77\n      jump\t// in\n    tag_131:\n        /* \"#utility.yul\":1846:1924   */\n      swap4\n      pop\n        /* \"#utility.yul\":1933:1998   */\n      tag_132\n        /* \"#utility.yul\":1991:1997   */\n      dup2\n        /* \"#utility.yul\":1986:1989   */\n      dup6\n        /* \"#utility.yul\":1979:1983   */\n      0x20\n        /* \"#utility.yul\":1972:1977   */\n      dup7\n        /* \"#utility.yul\":1968:1984   */\n      add\n        /* \"#utility.yul\":1933:1998   */\n      tag_78\n      jump\t// in\n    tag_132:\n        /* \"#utility.yul\":2023:2052   */\n      tag_133\n        /* \"#utility.yul\":2045:2051   */\n      dup2\n        /* \"#utility.yul\":2023:2052   */\n      tag_79\n      jump\t// in\n    tag_133:\n        /* \"#utility.yul\":2018:2021   */\n      dup5\n        /* \"#utility.yul\":2014:2053   */\n      add\n        /* \"#utility.yul\":2007:2053   */\n      swap2\n      pop\n        /* \"#utility.yul\":1774:2059   */\n      pop\n        /* \"#utility.yul\":1682:2059   */\n      swap3\n      swap2\n      pop\n      pop\n      jump\t// out\n        /* \"#utility.yul\":2065:2800   */\n    tag_14:\n        /* \"#utility.yul\":2282:2286   */\n      0x00\n        /* \"#utility.yul\":2320:2323   */\n      0x80\n        /* \"#utility.yul\":2309:2318   */\n      dup3\n        /* \"#utility.yul\":2305:2324   */\n      add\n        /* \"#utility.yul\":2297:2324   */\n      swap1\n      pop\n        /* \"#utility.yul\":2334:2405   */\n      tag_135\n        /* \"#utility.yul\":2402:2403   */\n      0x00\n        /* \"#utility.yul\":2391:2400   */\n      dup4\n        /* \"#utility.yul\":2387:2404   */\n      add\n        /* \"#utility.yul\":2378:2384   */\n      dup8\n        /* \"#utility.yul\":2334:2405   */\n      tag_75\n      jump\t// in\n    tag_135:\n        /* \"#utility.yul\":2452:2461   */\n      dup2\n        /* \"#utility.yul\":2446:2450   */\n      dup2\n        /* \"#utility.yul\":2442:2462   */\n      sub\n        /* \"#utility.yul\":2437:2439   */\n      0x20\n        /* \"#utility.yul\":2426:2435   */\n      dup4\n        /* \"#utility.yul\":2422:2440   */\n      add\n        /* \"#utility.yul\":2415:2463   */\n      mstore\n        /* \"#utility.yul\":2480:2558   */\n      tag_136\n        /* \"#utility.yul\":2553:2557   */\n      dup2\n        /* \"#utility.yul\":2544:2550   */\n      dup7\n        /* \"#utility.yul\":2480:2558   */\n      tag_80\n      jump\t// in\n    tag_136:\n        /* \"#utility.yul\":2472:2558   */\n      swap1\n      pop\n        /* \"#utility.yul\":2605:2614   */\n      dup2\n        /* \"#utility.yul\":2599:2603   */\n      dup2\n        /* \"#utility.yul\":2595:2615   */\n      sub\n        /* \"#utility.yul\":2590:2592   */\n      0x40\n        /* \"#utility.yul\":2579:2588   */\n      dup4\n        /* \"#utility.yul\":2575:2593   */\n      add\n        /* \"#utility.yul\":2568:2616   */\n      mstore\n        /* \"#utility.yul\":2633:2711   */\n      tag_137\n        /* \"#utility.yul\":2706:2710   */\n      dup2\n        /* \"#utility.yul\":2697:2703   */\n      dup6\n        /* \"#utility.yul\":2633:2711   */\n      tag_80\n      jump\t// in\n    tag_137:\n        /* \"#utility.yul\":2625:2711   */\n      swap1\n      pop\n        /* \"#utility.yul\":2721:2793   */\n      tag_138\n        /* \"#utility.yul\":2789:2791   */\n      0x60\n        /* \"#utility.yul\":2778:2787   */\n      dup4\n        /* \"#utility.yul\":2774:2792   */\n      add\n        /* \"#utility.yul\":2765:2771   */\n      dup5\n        /* \"#utility.yul\":2721:2793   */\n      tag_75\n      jump\t// in\n    tag_138:\n        /* \"#utility.yul\":2065:2800   */\n      swap6\n      swap5\n      pop\n      pop\n      pop\n      pop\n      pop\n      jump\t// out\n        /* \"#utility.yul\":2806:3028   */\n    tag_19:\n        /* \"#utility.yul\":2899:2903   */\n      0x00\n        /* \"#utility.yul\":2937:2939   */\n      0x20\n        /* \"#utility.yul\":2926:2935   */\n      dup3\n        /* \"#utility.yul\":2922:2940   */\n      add\n        /* \"#utility.yul\":2914:2940   */\n      swap1\n      pop\n        /* \"#utility.yul\":2950:3021   */\n      tag_140\n        /* \"#utility.yul\":3018:3019   */\n      0x00\n        /* \"#utility.yul\":3007:3016   */\n      dup4\n        /* \"#utility.yul\":3003:3020   */\n      add\n        /* \"#utility.yul\":2994:3000   */\n      dup5\n        /* \"#utility.yul\":2950:3021   */\n      tag_75\n      jump\t// in\n    tag_140:\n        /* \"#utility.yul\":2806:3028   */\n      swap3\n      swap2\n      pop\n      pop\n      jump\t// out\n        /* \"#utility.yul\":3034:3151   */\n    tag_81:\n        /* \"#utility.yul\":3143:3144   */\n      0x00\n        /* \"#utility.yul\":3140:3141   */\n      dup1\n        /* \"#utility.yul\":3133:3145   */\n      revert\n        /* \"#utility.yul\":3157:3274   */\n    tag_82:\n        /* \"#utility.yul\":3266:3267   */\n      0x00\n        /* \"#utility.yul\":3263:3264   */\n      dup1\n        /* \"#utility.yul\":3256:3268   */\n      revert\n        /* \"#utility.yul\":3280:3460   */\n    tag_83:\n        /* \"#utility.yul\":3328:3405   */\n      0x4e487b7100000000000000000000000000000000000000000000000000000000\n        /* \"#utility.yul\":3325:3326   */\n      0x00\n        /* \"#utility.yul\":3318:3406   */\n      mstore\n        /* \"#utility.yul\":3425:3429   */\n      0x41\n        /* \"#utility.yul\":3422:3423   */\n      0x04\n        /* \"#utility.yul\":3415:3430   */\n      mstore\n        /* \"#utility.yul\":3449:3453   */\n      0x24\n        /* \"#utility.yul\":3446:3447   */\n      0x00\n        /* \"#utility.yul\":3439:3454   */\n      revert\n        /* \"#utility.yul\":3466:3747   */\n    tag_84:\n        /* \"#utility.yul\":3549:3576   */\n      tag_145\n        /* \"#utility.yul\":3571:3575   */\n      dup3\n        /* \"#utility.yul\":3549:3576   */\n      tag_79\n      jump\t// in\n    tag_145:\n        /* \"#utility.yul\":3541:3547   */\n      dup2\n        /* \"#utility.yul\":3537:3577   */\n      add\n        /* \"#utility.yul\":3679:3685   */\n      dup2\n        /* \"#utility.yul\":3667:3677   */\n      dup2\n        /* \"#utility.yul\":3664:3686   */\n      lt\n        /* \"#utility.yul\":3643:3661   */\n      0xffffffffffffffff\n        /* \"#utility.yul\":3631:3641   */\n      dup3\n        /* \"#utility.yul\":3628:3662   */\n      gt\n        /* \"#utility.yul\":3625:3687   */\n      or\n        /* \"#utility.yul\":3622:3710   */\n      iszero\n      tag_146\n      jumpi\n        /* \"#utility.yul\":3690:3708   */\n      tag_147\n      tag_83\n      jump\t// in\n    tag_147:\n        /* \"#utility.yul\":3622:3710   */\n    tag_146:\n        /* \"#utility.yul\":3730:3740   */\n      dup1\n        /* \"#utility.yul\":3726:3728   */\n      0x40\n        /* \"#utility.yul\":3719:3741   */\n      mstore\n        /* \"#utility.yul\":3509:3747   */\n      pop\n        /* \"#utility.yul\":3466:3747   */\n      pop\n      pop\n      jump\t// out\n        /* \"#utility.yul\":3753:3882   */\n    tag_85:\n        /* \"#utility.yul\":3787:3793   */\n      0x00\n        /* \"#utility.yul\":3814:3834   */\n      tag_149\n      tag_69\n      jump\t// in\n    tag_149:\n        /* \"#utility.yul\":3804:3834   */\n      swap1\n      pop\n        /* \"#utility.yul\":3843:3876   */\n      tag_150\n        /* \"#utility.yul\":3871:3875   */\n      dup3\n        /* \"#utility.yul\":3863:3869   */\n      dup3\n        /* \"#utility.yul\":3843:3876   */\n      tag_84\n      jump\t// in\n    tag_150:\n        /* \"#utility.yul\":3753:3882   */\n      swap2\n      swap1\n      pop\n      jump\t// out\n        /* \"#utility.yul\":3888:4196   */\n    tag_86:\n        /* \"#utility.yul\":3950:3954   */\n      0x00\n        /* \"#utility.yul\":4040:4058   */\n      0xffffffffffffffff\n        /* \"#utility.yul\":4032:4038   */\n      dup3\n        /* \"#utility.yul\":4029:4059   */\n      gt\n        /* \"#utility.yul\":4026:4082   */\n      iszero\n      tag_152\n      jumpi\n        /* \"#utility.yul\":4062:4080   */\n      tag_153\n      tag_83\n      jump\t// in\n    tag_153:\n        /* \"#utility.yul\":4026:4082   */\n    tag_152:\n        /* \"#utility.yul\":4100:4129   */\n      tag_154\n        /* \"#utility.yul\":4122:4128   */\n      dup3\n        /* \"#utility.yul\":4100:4129   */\n      tag_79\n      jump\t// in\n    tag_154:\n        /* \"#utility.yul\":4092:4129   */\n      swap1\n      pop\n        /* \"#utility.yul\":4184:4188   */\n      0x20\n        /* \"#utility.yul\":4178:4182   */\n      dup2\n        /* \"#utility.yul\":4174:4189   */\n      add\n        /* \"#utility.yul\":4166:4189   */\n      swap1\n      pop\n        /* \"#utility.yul\":3888:4196   */\n      swap2\n      swap1\n      pop\n      jump\t// out\n        /* \"#utility.yul\":4202:4350   */\n    tag_87:\n        /* \"#utility.yul\":4300:4306   */\n      dup3\n        /* \"#utility.yul\":4295:4298   */\n      dup2\n        /* \"#utility.yul\":4290:4293   */\n      dup4\n        /* \"#utility.yul\":4277:4307   */\n      calldatacopy\n        /* \"#utility.yul\":4341:4342   */\n      0x00\n        /* \"#utility.yul\":4332:4338   */\n      dup4\n        /* \"#utility.yul\":4327:4330   */\n      dup4\n        /* \"#utility.yul\":4323:4339   */\n      add\n        /* \"#utility.yul\":4316:4343   */\n      mstore\n        /* \"#utility.yul\":4202:4350   */\n      pop\n      pop\n      pop\n      jump\t// out\n        /* \"#utility.yul\":4356:4781   */\n    tag_88:\n        /* \"#utility.yul\":4434:4439   */\n      0x00\n        /* \"#utility.yul\":4459:4525   */\n      tag_157\n        /* \"#utility.yul\":4475:4524   */\n      tag_158\n        /* \"#utility.yul\":4517:4523   */\n      dup5\n        /* \"#utility.yul\":4475:4524   */\n      tag_86\n      jump\t// in\n    tag_158:\n        /* \"#utility.yul\":4459:4525   */\n      tag_85\n      jump\t// in\n    tag_157:\n        /* \"#utility.yul\":4450:4525   */\n      swap1\n      pop\n        /* \"#utility.yul\":4548:4554   */\n      dup3\n        /* \"#utility.yul\":4541:4546   */\n      dup2\n        /* \"#utility.yul\":4534:4555   */\n      mstore\n        /* \"#utility.yul\":4586:4590   */\n      0x20\n        /* \"#utility.yul\":4579:4584   */\n      dup2\n        /* \"#utility.yul\":4575:4591   */\n      add\n        /* \"#utility.yul\":4624:4627   */\n      dup5\n        /* \"#utility.yul\":4615:4621   */\n      dup5\n        /* \"#utility.yul\":4610:4613   */\n      dup5\n        /* \"#utility.yul\":4606:4622   */\n      add\n        /* \"#utility.yul\":4603:4628   */\n      gt\n        /* \"#utility.yul\":4600:4712   */\n      iszero\n      tag_159\n      jumpi\n        /* \"#utility.yul\":4631:4710   */\n      tag_160\n      tag_82\n      jump\t// in\n    tag_160:\n        /* \"#utility.yul\":4600:4712   */\n    tag_159:\n        /* \"#utility.yul\":4721:4775   */\n      tag_161\n        /* \"#utility.yul\":4768:4774   */\n      dup5\n        /* \"#utility.yul\":4763:4766   */\n      dup3\n        /* \"#utility.yul\":4758:4761   */\n      dup6\n        /* \"#utility.yul\":4721:4775   */\n      tag_87\n      jump\t// in\n    tag_161:\n        /* \"#utility.yul\":4440:4781   */\n      pop\n        /* \"#utility.yul\":4356:4781   */\n      swap4\n      swap3\n      pop\n      pop\n      pop\n      jump\t// out\n        /* \"#utility.yul\":4801:5141   */\n    tag_89:\n        /* \"#utility.yul\":4857:4862   */\n      0x00\n        /* \"#utility.yul\":4906:4909   */\n      dup3\n        /* \"#utility.yul\":4899:4903   */\n      0x1f\n        /* \"#utility.yul\":4891:4897   */\n      dup4\n        /* \"#utility.yul\":4887:4904   */\n      add\n        /* \"#utility.yul\":4883:4910   */\n      slt\n        /* \"#utility.yul\":4873:4995   */\n      tag_163\n      jumpi\n        /* \"#utility.yul\":4914:4993   */\n      tag_164\n      tag_81\n      jump\t// in\n    tag_164:\n        /* \"#utility.yul\":4873:4995   */\n    tag_163:\n        /* \"#utility.yul\":5031:5037   */\n      dup2\n        /* \"#utility.yul\":5018:5038   */\n      calldataload\n        /* \"#utility.yul\":5056:5135   */\n      tag_165\n        /* \"#utility.yul\":5131:5134   */\n      dup5\n        /* \"#utility.yul\":5123:5129   */\n      dup3\n        /* \"#utility.yul\":5116:5120   */\n      0x20\n        /* \"#utility.yul\":5108:5114   */\n      dup7\n        /* \"#utility.yul\":5104:5121   */\n      add\n        /* \"#utility.yul\":5056:5135   */\n      tag_88\n      jump\t// in\n    tag_165:\n        /* \"#utility.yul\":5047:5135   */\n      swap2\n      pop\n        /* \"#utility.yul\":4863:5141   */\n      pop\n        /* \"#utility.yul\":4801:5141   */\n      swap3\n      swap2\n      pop\n      pop\n      jump\t// out\n        /* \"#utility.yul\":5147:6126   */\n    tag_22:\n        /* \"#utility.yul\":5244:5250   */\n      0x00\n        /* \"#utility.yul\":5252:5258   */\n      dup1\n        /* \"#utility.yul\":5260:5266   */\n      0x00\n        /* \"#utility.yul\":5309:5311   */\n      0x60\n        /* \"#utility.yul\":5297:5306   */\n      dup5\n        /* \"#utility.yul\":5288:5295   */\n      dup7\n        /* \"#utility.yul\":5284:5307   */\n      sub\n        /* \"#utility.yul\":5280:5312   */\n      slt\n        /* \"#utility.yul\":5277:5396   */\n      iszero\n      tag_167\n      jumpi\n        /* \"#utility.yul\":5315:5394   */\n      tag_168\n      tag_70\n      jump\t// in\n    tag_168:\n        /* \"#utility.yul\":5277:5396   */\n    tag_167:\n        /* \"#utility.yul\":5435:5436   */\n      0x00\n        /* \"#utility.yul\":5460:5513   */\n      tag_169\n        /* \"#utility.yul\":5505:5512   */\n      dup7\n        /* \"#utility.yul\":5496:5502   */\n      dup3\n        /* \"#utility.yul\":5485:5494   */\n      dup8\n        /* \"#utility.yul\":5481:5503   */\n      add\n        /* \"#utility.yul\":5460:5513   */\n      tag_74\n      jump\t// in\n    tag_169:\n        /* \"#utility.yul\":5450:5513   */\n      swap4\n      pop\n        /* \"#utility.yul\":5406:5523   */\n      pop\n        /* \"#utility.yul\":5590:5592   */\n      0x20\n        /* \"#utility.yul\":5579:5588   */\n      dup5\n        /* \"#utility.yul\":5575:5593   */\n      add\n        /* \"#utility.yul\":5562:5594   */\n      calldataload\n        /* \"#utility.yul\":5621:5639   */\n      0xffffffffffffffff\n        /* \"#utility.yul\":5613:5619   */\n      dup2\n        /* \"#utility.yul\":5610:5640   */\n      gt\n        /* \"#utility.yul\":5607:5724   */\n      iszero\n      tag_170\n      jumpi\n        /* \"#utility.yul\":5643:5722   */\n      tag_171\n      tag_71\n      jump\t// in\n    tag_171:\n        /* \"#utility.yul\":5607:5724   */\n    tag_170:\n        /* \"#utility.yul\":5748:5811   */\n      tag_172\n        /* \"#utility.yul\":5803:5810   */\n      dup7\n        /* \"#utility.yul\":5794:5800   */\n      dup3\n        /* \"#utility.yul\":5783:5792   */\n      dup8\n        /* \"#utility.yul\":5779:5801   */\n      add\n        /* \"#utility.yul\":5748:5811   */\n      tag_89\n      jump\t// in\n    tag_172:\n        /* \"#utility.yul\":5738:5811   */\n      swap3\n      pop\n        /* \"#utility.yul\":5533:5821   */\n      pop\n        /* \"#utility.yul\":5888:5890   */\n      0x40\n        /* \"#utility.yul\":5877:5886   */\n      dup5\n        /* \"#utility.yul\":5873:5891   */\n      add\n        /* \"#utility.yul\":5860:5892   */\n      calldataload\n        /* \"#utility.yul\":5919:5937   */\n      0xffffffffffffffff\n        /* \"#utility.yul\":5911:5917   */\n      dup2\n        /* \"#utility.yul\":5908:5938   */\n      gt\n        /* \"#utility.yul\":5905:6022   */\n      iszero\n      tag_173\n      jumpi\n        /* \"#utility.yul\":5941:6020   */\n      tag_174\n      tag_71\n      jump\t// in\n    tag_174:\n        /* \"#utility.yul\":5905:6022   */\n    tag_173:\n        /* \"#utility.yul\":6046:6109   */\n      tag_175\n        /* \"#utility.yul\":6101:6108   */\n      dup7\n        /* \"#utility.yul\":6092:6098   */\n      dup3\n        /* \"#utility.yul\":6081:6090   */\n      dup8\n        /* \"#utility.yul\":6077:6099   */\n      add\n        /* \"#utility.yul\":6046:6109   */\n      tag_89\n      jump\t// in\n    tag_175:\n        /* \"#utility.yul\":6036:6109   */\n      swap2\n      pop\n        /* \"#utility.yul\":5831:6119   */\n      pop\n        /* \"#utility.yul\":5147:6126   */\n      swap3\n      pop\n      swap3\n      pop\n      swap3\n      jump\t// out\n        /* \"#utility.yul\":6132:6312   */\n    tag_90:\n        /* \"#utility.yul\":6180:6257   */\n      0x4e487b7100000000000000000000000000000000000000000000000000000000\n        /* \"#utility.yul\":6177:6178   */\n      0x00\n        /* \"#utility.yul\":6170:6258   */\n      mstore\n        /* \"#utility.yul\":6277:6281   */\n      0x22\n        /* \"#utility.yul\":6274:6275   */\n      0x04\n        /* \"#utility.yul\":6267:6282   */\n      mstore\n        /* \"#utility.yul\":6301:6305   */\n      0x24\n        /* \"#utility.yul\":6298:6299   */\n      0x00\n        /* \"#utility.yul\":6291:6306   */\n      revert\n        /* \"#utility.yul\":6318:6638   */\n    tag_38:\n        /* \"#utility.yul\":6362:6368   */\n      0x00\n        /* \"#utility.yul\":6399:6400   */\n      0x02\n        /* \"#utility.yul\":6393:6397   */\n      dup3\n        /* \"#utility.yul\":6389:6401   */\n      div\n        /* \"#utility.yul\":6379:6401   */\n      swap1\n      pop\n        /* \"#utility.yul\":6446:6447   */\n      0x01\n        /* \"#utility.yul\":6440:6444   */\n      dup3\n        /* \"#utility.yul\":6436:6448   */\n      and\n        /* \"#utility.yul\":6467:6485   */\n      dup1\n        /* \"#utility.yul\":6457:6538   */\n      tag_178\n      jumpi\n        /* \"#utility.yul\":6523:6527   */\n      0x7f\n        /* \"#utility.yul\":6515:6521   */\n      dup3\n        /* \"#utility.yul\":6511:6528   */\n      and\n        /* \"#utility.yul\":6501:6528   */\n      swap2\n      pop\n        /* \"#utility.yul\":6457:6538   */\n    tag_178:\n        /* \"#utility.yul\":6585:6587   */\n      0x20\n        /* \"#utility.yul\":6577:6583   */\n      dup3\n        /* \"#utility.yul\":6574:6588   */\n      lt\n        /* \"#utility.yul\":6554:6572   */\n      dup2\n        /* \"#utility.yul\":6551:6589   */\n      sub\n        /* \"#utility.yul\":6548:6632   */\n      tag_179\n      jumpi\n        /* \"#utility.yul\":6604:6622   */\n      tag_180\n      tag_90\n      jump\t// in\n    tag_180:\n        /* \"#utility.yul\":6548:6632   */\n    tag_179:\n        /* \"#utility.yul\":6369:6638   */\n      pop\n        /* \"#utility.yul\":6318:6638   */\n      swap2\n      swap1\n      pop\n      jump\t// out\n        /* \"#utility.yul\":6644:6878   */\n    tag_91:\n        /* \"#utility.yul\":6784:6818   */\n      0x4d656d62657273686970206665652069732062656c6f77207468652072657175\n        /* \"#utility.yul\":6780:6781   */\n      0x00\n        /* \"#utility.yul\":6772:6778   */\n      dup3\n        /* \"#utility.yul\":6768:6782   */\n      add\n        /* \"#utility.yul\":6761:6819   */\n      mstore\n        /* \"#utility.yul\":6853:6870   */\n      0x69726564207468726573686f6c642e0000000000000000000000000000000000\n        /* \"#utility.yul\":6848:6850   */\n      0x20\n        /* \"#utility.yul\":6840:6846   */\n      dup3\n        /* \"#utility.yul\":6836:6851   */\n      add\n        /* \"#utility.yul\":6829:6871   */\n      mstore\n        /* \"#utility.yul\":6644:6878   */\n      pop\n      jump\t// out\n        /* \"#utility.yul\":6884:7250   */\n    tag_92:\n        /* \"#utility.yul\":7026:7029   */\n      0x00\n        /* \"#utility.yul\":7047:7114   */\n      tag_183\n        /* \"#utility.yul\":7111:7113   */\n      0x2f\n        /* \"#utility.yul\":7106:7109   */\n      dup4\n        /* \"#utility.yul\":7047:7114   */\n      tag_77\n      jump\t// in\n    tag_183:\n        /* \"#utility.yul\":7040:7114   */\n      swap2\n      pop\n        /* \"#utility.yul\":7123:7216   */\n      tag_184\n        /* \"#utility.yul\":7212:7215   */\n      dup3\n        /* \"#utility.yul\":7123:7216   */\n      tag_91\n      jump\t// in\n    tag_184:\n        /* \"#utility.yul\":7241:7243   */\n      0x40\n        /* \"#utility.yul\":7236:7239   */\n      dup3\n        /* \"#utility.yul\":7232:7244   */\n      add\n        /* \"#utility.yul\":7225:7244   */\n      swap1\n      pop\n        /* \"#utility.yul\":6884:7250   */\n      swap2\n      swap1\n      pop\n      jump\t// out\n        /* \"#utility.yul\":7256:7675   */\n    tag_51:\n        /* \"#utility.yul\":7422:7426   */\n      0x00\n        /* \"#utility.yul\":7460:7462   */\n      0x20\n        /* \"#utility.yul\":7449:7458   */\n      dup3\n        /* \"#utility.yul\":7445:7463   */\n      add\n        /* \"#utility.yul\":7437:7463   */\n      swap1\n      pop\n        /* \"#utility.yul\":7509:7518   */\n      dup2\n        /* \"#utility.yul\":7503:7507   */\n      dup2\n        /* \"#utility.yul\":7499:7519   */\n      sub\n        /* \"#utility.yul\":7495:7496   */\n      0x00\n        /* \"#utility.yul\":7484:7493   */\n      dup4\n        /* \"#utility.yul\":7480:7497   */\n      add\n        /* \"#utility.yul\":7473:7520   */\n      mstore\n        /* \"#utility.yul\":7537:7668   */\n      tag_186\n        /* \"#utility.yul\":7663:7667   */\n      dup2\n        /* \"#utility.yul\":7537:7668   */\n      tag_92\n      jump\t// in\n    tag_186:\n        /* \"#utility.yul\":7529:7668   */\n      swap1\n      pop\n        /* \"#utility.yul\":7256:7675   */\n      swap2\n      swap1\n      pop\n      jump\t// out\n        /* \"#utility.yul\":7681:7822   */\n    tag_93:\n        /* \"#utility.yul\":7730:7734   */\n      0x00\n        /* \"#utility.yul\":7753:7756   */\n      dup2\n        /* \"#utility.yul\":7745:7756   */\n      swap1\n      pop\n        /* \"#utility.yul\":7776:7779   */\n      dup2\n        /* \"#utility.yul\":7773:7774   */\n      0x00\n        /* \"#utility.yul\":7766:7780   */\n      mstore\n        /* \"#utility.yul\":7810:7814   */\n      0x20\n        /* \"#utility.yul\":7807:7808   */\n      0x00\n        /* \"#utility.yul\":7797:7815   */\n      keccak256\n        /* \"#utility.yul\":7789:7815   */\n      swap1\n      pop\n        /* \"#utility.yul\":7681:7822   */\n      swap2\n      swap1\n      pop\n      jump\t// out\n        /* \"#utility.yul\":7828:7921   */\n    tag_94:\n        /* \"#utility.yul\":7865:7871   */\n      0x00\n        /* \"#utility.yul\":7912:7914   */\n      0x20\n        /* \"#utility.yul\":7907:7909   */\n      0x1f\n        /* \"#utility.yul\":7900:7905   */\n      dup4\n        /* \"#utility.yul\":7896:7910   */\n      add\n        /* \"#utility.yul\":7892:7915   */\n      div\n        /* \"#utility.yul\":7882:7915   */\n      swap1\n      pop\n        /* \"#utility.yul\":7828:7921   */\n      swap2\n      swap1\n      pop\n      jump\t// out\n        /* \"#utility.yul\":7927:8034   */\n    tag_95:\n        /* \"#utility.yul\":7971:7979   */\n      0x00\n        /* \"#utility.yul\":8021:8026   */\n      dup3\n        /* \"#utility.yul\":8015:8019   */\n      dup3\n        /* \"#utility.yul\":8011:8027   */\n      shl\n        /* \"#utility.yul\":7990:8027   */\n      swap1\n      pop\n        /* \"#utility.yul\":7927:8034   */\n      swap3\n      swap2\n      pop\n      pop\n      jump\t// out\n        /* \"#utility.yul\":8040:8433   */\n    tag_96:\n        /* \"#utility.yul\":8109:8115   */\n      0x00\n        /* \"#utility.yul\":8159:8160   */\n      0x08\n        /* \"#utility.yul\":8147:8157   */\n      dup4\n        /* \"#utility.yul\":8143:8161   */\n      mul\n        /* \"#utility.yul\":8182:8279   */\n      tag_191\n        /* \"#utility.yul\":8212:8278   */\n      0xffffffffffffffffffffffffffffffffffffffffffffffffffffffffffffffff\n        /* \"#utility.yul\":8201:8210   */\n      dup3\n        /* \"#utility.yul\":8182:8279   */\n      tag_95\n      jump\t// in\n    tag_191:\n        /* \"#utility.yul\":8300:8339   */\n      tag_192\n        /* \"#utility.yul\":8330:8338   */\n      dup7\n        /* \"#utility.yul\":8319:8328   */\n      dup4\n        /* \"#utility.yul\":8300:8339   */\n      tag_95\n      jump\t// in\n    tag_192:\n        /* \"#utility.yul\":8288:8339   */\n      swap6\n      pop\n        /* \"#utility.yul\":8372:8376   */\n      dup1\n        /* \"#utility.yul\":8368:8377   */\n      not\n        /* \"#utility.yul\":8361:8366   */\n      dup5\n        /* \"#utility.yul\":8357:8378   */\n      and\n        /* \"#utility.yul\":8348:8378   */\n      swap4\n      pop\n        /* \"#utility.yul\":8421:8425   */\n      dup1\n        /* \"#utility.yul\":8411:8419   */\n      dup7\n        /* \"#utility.yul\":8407:8426   */\n      and\n        /* \"#utility.yul\":8400:8405   */\n      dup5\n        /* \"#utility.yul\":8397:8427   */\n      or\n        /* \"#utility.yul\":8387:8427   */\n      swap3\n      pop\n        /* \"#utility.yul\":8116:8433   */\n      pop\n      pop\n        /* \"#utility.yul\":8040:8433   */\n      swap4\n      swap3\n      pop\n      pop\n      pop\n      jump\t// out\n        /* \"#utility.yul\":8439:8499   */\n    tag_97:\n        /* \"#utility.yul\":8467:8470   */\n      0x00\n        /* \"#utility.yul\":8488:8493   */\n      dup2\n        /* \"#utility.yul\":8481:8493   */\n      swap1\n      pop\n        /* \"#utility.yul\":8439:8499   */\n      swap2\n      swap1\n      pop\n      jump\t// out\n        /* \"#utility.yul\":8505:8647   */\n    tag_98:\n        /* \"#utility.yul\":8555:8564   */\n      0x00\n        /* \"#utility.yul\":8588:8641   */\n      tag_195\n        /* \"#utility.yul\":8606:8640   */\n      tag_196\n        /* \"#utility.yul\":8615:8639   */\n      tag_197\n        /* \"#utility.yul\":8633:8638   */\n      dup5\n        /* \"#utility.yul\":8615:8639   */\n      tag_72\n      jump\t// in\n    tag_197:\n        /* \"#utility.yul\":8606:8640   */\n      tag_97\n      jump\t// in\n    tag_196:\n        /* \"#utility.yul\":8588:8641   */\n      tag_72\n      jump\t// in\n    tag_195:\n        /* \"#utility.yul\":8575:8641   */\n      swap1\n      pop\n        /* \"#utility.yul\":8505:8647   */\n      swap2\n      swap1\n      pop\n      jump\t// out\n        /* \"#utility.yul\":8653:8728   */\n    tag_99:\n        /* \"#utility.yul\":8696:8699   */\n      0x00\n        /* \"#utility.yul\":8717:8722   */\n      dup2\n        /* \"#utility.yul\":8710:8722   */\n      swap1\n      pop\n        /* \"#utility.yul\":8653:8728   */\n      swap2\n      swap1\n      pop\n      jump\t// out\n        /* \"#utility.yul\":8734:9003   */\n    tag_100:\n        /* \"#utility.yul\":8844:8883   */\n      tag_200\n        /* \"#utility.yul\":8875:8882   */\n      dup4\n        /* \"#utility.yul\":8844:8883   */\n      tag_98\n      jump\t// in\n    tag_200:\n        /* \"#utility.yul\":8905:8996   */\n      tag_201\n        /* \"#utility.yul\":8954:8995   */\n      tag_202\n        /* \"#utility.yul\":8978:8994   */\n      dup3\n        /* \"#utility.yul\":8954:8995   */\n      tag_99\n      jump\t// in\n    tag_202:\n        /* \"#utility.yul\":8946:8952   */\n      dup5\n        /* \"#utility.yul\":8939:8943   */\n      dup5\n        /* \"#utility.yul\":8933:8944   */\n      sload\n        /* \"#utility.yul\":8905:8996   */\n      tag_96\n      jump\t// in\n    tag_201:\n        /* \"#utility.yul\":8899:8903   */\n      dup3\n        /* \"#utility.yul\":8892:8997   */\n      sstore\n        /* \"#utility.yul\":8810:9003   */\n      pop\n        /* \"#utility.yul\":8734:9003   */\n      pop\n      pop\n      pop\n      jump\t// out\n        /* \"#utility.yul\":9009:9082   */\n    tag_101:\n        /* \"#utility.yul\":9054:9057   */\n      0x00\n        /* \"#utility.yul\":9009:9082   */\n      swap1\n      jump\t// out\n        /* \"#utility.yul\":9088:9277   */\n    tag_102:\n        /* \"#utility.yul\":9165:9197   */\n      tag_205\n      tag_101\n      jump\t// in\n    tag_205:\n        /* \"#utility.yul\":9206:9271   */\n      tag_206\n        /* \"#utility.yul\":9264:9270   */\n      dup2\n        /* \"#utility.yul\":9256:9262   */\n      dup5\n        /* \"#utility.yul\":9250:9254   */\n      dup5\n        /* \"#utility.yul\":9206:9271   */\n      tag_100\n      jump\t// in\n    tag_206:\n        /* \"#utility.yul\":9141:9277   */\n      pop\n        /* \"#utility.yul\":9088:9277   */\n      pop\n      pop\n      jump\t// out\n        /* \"#utility.yul\":9283:9469   */\n    tag_103:\n        /* \"#utility.yul\":9343:9463   */\n    tag_208:\n        /* \"#utility.yul\":9360:9363   */\n      dup2\n        /* \"#utility.yul\":9353:9358   */\n      dup2\n        /* \"#utility.yul\":9350:9364   */\n      lt\n        /* \"#utility.yul\":9343:9463   */\n      iszero\n      tag_210\n      jumpi\n        /* \"#utility.yul\":9414:9453   */\n      tag_211\n        /* \"#utility.yul\":9451:9452   */\n      0x00\n        /* \"#utility.yul\":9444:9449   */\n      dup3\n        /* \"#utility.yul\":9414:9453   */\n      tag_102\n      jump\t// in\n    tag_211:\n        /* \"#utility.yul\":9387:9388   */\n      0x01\n        /* \"#utility.yul\":9380:9385   */\n      dup2\n        /* \"#utility.yul\":9376:9389   */\n      add\n        /* \"#utility.yul\":9367:9389   */\n      swap1\n      pop\n        /* \"#utility.yul\":9343:9463   */\n      jump(tag_208)\n    tag_210:\n        /* \"#utility.yul\":9283:9469   */\n      pop\n      pop\n      jump\t// out\n        /* \"#utility.yul\":9475:10018   */\n    tag_104:\n        /* \"#utility.yul\":9576:9578   */\n      0x1f\n        /* \"#utility.yul\":9571:9574   */\n      dup3\n        /* \"#utility.yul\":9568:9579   */\n      gt\n        /* \"#utility.yul\":9565:10011   */\n      iszero\n      tag_213\n      jumpi\n        /* \"#utility.yul\":9610:9648   */\n      tag_214\n        /* \"#utility.yul\":9642:9647   */\n      dup2\n        /* \"#utility.yul\":9610:9648   */\n      tag_93\n      jump\t// in\n    tag_214:\n        /* \"#utility.yul\":9694:9723   */\n      tag_215\n        /* \"#utility.yul\":9712:9722   */\n      dup5\n        /* \"#utility.yul\":9694:9723   */\n      tag_94\n      jump\t// in\n    tag_215:\n        /* \"#utility.yul\":9684:9692   */\n      dup2\n        /* \"#utility.yul\":9680:9724   */\n      add\n        /* \"#utility.yul\":9877:9879   */\n      0x20\n        /* \"#utility.yul\":9865:9875   */\n      dup6\n        /* \"#utility.yul\":9862:9880   */\n      lt\n        /* \"#utility.yul\":9859:9908   */\n      iszero\n      tag_216\n      jumpi\n        /* \"#utility.yul\":9898:9906   */\n      dup2\n        /* \"#utility.yul\":9883:9906   */\n      swap1\n      pop\n        /* \"#utility.yul\":9859:9908   */\n    tag_216:\n        /* \"#utility.yul\":9921:10001   */\n      tag_217\n        /* \"#utility.yul\":9977:9999   */\n      tag_218\n        /* \"#utility.yul\":9995:9998   */\n      dup6\n        /* \"#utility.yul\":9977:9999   */\n      tag_94\n      jump\t// in\n    tag_218:\n        /* \"#utility.yul\":9967:9975   */\n      dup4\n        /* \"#utility.yul\":9963:10000   */\n      add\n        /* \"#utility.yul\":9950:9961   */\n      dup3\n        /* \"#utility.yul\":9921:10001   */\n      tag_103\n      jump\t// in\n    tag_217:\n        /* \"#utility.yul\":9580:10011   */\n      pop\n      pop\n        /* \"#utility.yul\":9565:10011   */\n    tag_213:\n        /* \"#utility.yul\":9475:10018   */\n      pop\n      pop\n      pop\n      jump\t// out\n        /* \"#utility.yul\":10024:10141   */\n    tag_105:\n        /* \"#utility.yul\":10078:10086   */\n      0x00\n        /* \"#utility.yul\":10128:10133   */\n      dup3\n        /* \"#utility.yul\":10122:10126   */\n      dup3\n        /* \"#utility.yul\":10118:10134   */\n      shr\n        /* \"#utility.yul\":10097:10134   */\n      swap1\n      pop\n        /* \"#utility.yul\":10024:10141   */\n      swap3\n      swap2\n      pop\n      pop\n      jump\t// out\n        /* \"#utility.yul\":10147:10316   */\n    tag_106:\n        /* \"#utility.yul\":10191:10197   */\n      0x00\n        /* \"#utility.yul\":10224:10275   */\n      tag_221\n        /* \"#utility.yul\":10272:10273   */\n      0x00\n        /* \"#utility.yul\":10268:10274   */\n      not\n        /* \"#utility.yul\":10260:10265   */\n      dup5\n        /* \"#utility.yul\":10257:10258   */\n      0x08\n        /* \"#utility.yul\":10253:10266   */\n      mul\n        /* \"#utility.yul\":10224:10275   */\n      tag_105\n      jump\t// in\n    tag_221:\n        /* \"#utility.yul\":10220:10276   */\n      not\n        /* \"#utility.yul\":10305:10309   */\n      dup1\n        /* \"#utility.yul\":10299:10303   */\n      dup4\n        /* \"#utility.yul\":10295:10310   */\n      and\n        /* \"#utility.yul\":10285:10310   */\n      swap2\n      pop\n        /* \"#utility.yul\":10198:10316   */\n      pop\n        /* \"#utility.yul\":10147:10316   */\n      swap3\n      swap2\n      pop\n      pop\n      jump\t// out\n        /* \"#utility.yul\":10321:10616   */\n    tag_107:\n        /* \"#utility.yul\":10397:10401   */\n      0x00\n        /* \"#utility.yul\":10543:10572   */\n      tag_223\n        /* \"#utility.yul\":10568:10571   */\n      dup4\n        /* \"#utility.yul\":10562:10566   */\n      dup4\n        /* \"#utility.yul\":10543:10572   */\n      tag_106\n      jump\t// in\n    tag_223:\n        /* \"#utility.yul\":10535:10572   */\n      swap2\n      pop\n        /* \"#utility.yul\":10605:10608   */\n      dup3\n        /* \"#utility.yul\":10602:10603   */\n      0x02\n        /* \"#utility.yul\":10598:10609   */\n      mul\n        /* \"#utility.yul\":10592:10596   */\n      dup3\n        /* \"#utility.yul\":10589:10610   */\n      or\n        /* \"#utility.yul\":10581:10610   */\n      swap1\n      pop\n        /* \"#utility.yul\":10321:10616   */\n      swap3\n      swap2\n      pop\n      pop\n      jump\t// out\n        /* \"#utility.yul\":10621:12016   */\n    tag_53:\n        /* \"#utility.yul\":10738:10775   */\n      tag_225\n        /* \"#utility.yul\":10771:10774   */\n      dup3\n        /* \"#utility.yul\":10738:10775   */\n      tag_76\n      jump\t// in\n    tag_225:\n        /* \"#utility.yul\":10840:10858   */\n      0xffffffffffffffff\n        /* \"#utility.yul\":10832:10838   */\n      dup2\n        /* \"#utility.yul\":10829:10859   */\n      gt\n        /* \"#utility.yul\":10826:10882   */\n      iszero\n      tag_226\n      jumpi\n        /* \"#utility.yul\":10862:10880   */\n      tag_227\n      tag_83\n      jump\t// in\n    tag_227:\n        /* \"#utility.yul\":10826:10882   */\n    tag_226:\n        /* \"#utility.yul\":10906:10944   */\n      tag_228\n        /* \"#utility.yul\":10938:10942   */\n      dup3\n        /* \"#utility.yul\":10932:10943   */\n      sload\n        /* \"#utility.yul\":10906:10944   */\n      tag_38\n      jump\t// in\n    tag_228:\n        /* \"#utility.yul\":10991:11058   */\n      tag_229\n        /* \"#utility.yul\":11051:11057   */\n      dup3\n        /* \"#utility.yul\":11043:11049   */\n      dup3\n        /* \"#utility.yul\":11037:11041   */\n      dup6\n        /* \"#utility.yul\":10991:11058   */\n      tag_104\n      jump\t// in\n    tag_229:\n        /* \"#utility.yul\":11085:11086   */\n      0x00\n        /* \"#utility.yul\":11109:11113   */\n      0x20\n        /* \"#utility.yul\":11096:11113   */\n      swap1\n      pop\n        /* \"#utility.yul\":11141:11143   */\n      0x1f\n        /* \"#utility.yul\":11133:11139   */\n      dup4\n        /* \"#utility.yul\":11130:11144   */\n      gt\n        /* \"#utility.yul\":11158:11159   */\n      0x01\n        /* \"#utility.yul\":11153:11771   */\n      dup2\n      eq\n      tag_231\n      jumpi\n        /* \"#utility.yul\":11815:11816   */\n      0x00\n        /* \"#utility.yul\":11832:11838   */\n      dup5\n        /* \"#utility.yul\":11829:11906   */\n      iszero\n      tag_232\n      jumpi\n        /* \"#utility.yul\":11881:11890   */\n      dup3\n        /* \"#utility.yul\":11876:11879   */\n      dup8\n        /* \"#utility.yul\":11872:11891   */\n      add\n        /* \"#utility.yul\":11866:11892   */\n      mload\n        /* \"#utility.yul\":11857:11892   */\n      swap1\n      pop\n        /* \"#utility.yul\":11829:11906   */\n    tag_232:\n        /* \"#utility.yul\":11932:11999   */\n      tag_233\n        /* \"#utility.yul\":11992:11998   */\n      dup6\n        /* \"#utility.yul\":11985:11990   */\n      dup3\n        /* \"#utility.yul\":11932:11999   */\n      tag_107\n      jump\t// in\n    tag_233:\n        /* \"#utility.yul\":11926:11930   */\n      dup7\n        /* \"#utility.yul\":11919:12000   */\n      sstore\n        /* \"#utility.yul\":11788:12010   */\n      pop\n        /* \"#utility.yul\":11123:12010   */\n      jump(tag_230)\n        /* \"#utility.yul\":11153:11771   */\n    tag_231:\n        /* \"#utility.yul\":11205:11209   */\n      0x1f\n        /* \"#utility.yul\":11201:11210   */\n      not\n        /* \"#utility.yul\":11193:11199   */\n      dup5\n        /* \"#utility.yul\":11189:11211   */\n      and\n        /* \"#utility.yul\":11239:11276   */\n      tag_234\n        /* \"#utility.yul\":11271:11275   */\n      dup7\n        /* \"#utility.yul\":11239:11276   */\n      tag_93\n      jump\t// in\n    tag_234:\n        /* \"#utility.yul\":11298:11299   */\n      0x00\n        /* \"#utility.yul\":11312:11520   */\n    tag_235:\n        /* \"#utility.yul\":11326:11333   */\n      dup3\n        /* \"#utility.yul\":11323:11324   */\n      dup2\n        /* \"#utility.yul\":11320:11334   */\n      lt\n        /* \"#utility.yul\":11312:11520   */\n      iszero\n      tag_237\n      jumpi\n        /* \"#utility.yul\":11405:11414   */\n      dup5\n        /* \"#utility.yul\":11400:11403   */\n      dup10\n        /* \"#utility.yul\":11396:11415   */\n      add\n        /* \"#utility.yul\":11390:11416   */\n      mload\n        /* \"#utility.yul\":11382:11388   */\n      dup3\n        /* \"#utility.yul\":11375:11417   */\n      sstore\n        /* \"#utility.yul\":11456:11457   */\n      0x01\n        /* \"#utility.yul\":11448:11454   */\n      dup3\n        /* \"#utility.yul\":11444:11458   */\n      add\n        /* \"#utility.yul\":11434:11458   */\n      swap2\n      pop\n        /* \"#utility.yul\":11503:11505   */\n      0x20\n        /* \"#utility.yul\":11492:11501   */\n      dup6\n        /* \"#utility.yul\":11488:11506   */\n      add\n        /* \"#utility.yul\":11475:11506   */\n      swap5\n      pop\n        /* \"#utility.yul\":11349:11353   */\n      0x20\n        /* \"#utility.yul\":11346:11347   */\n      dup2\n        /* \"#utility.yul\":11342:11354   */\n      add\n        /* \"#utility.yul\":11337:11354   */\n      swap1\n      pop\n        /* \"#utility.yul\":11312:11520   */\n      jump(tag_235)\n    tag_237:\n        /* \"#utility.yul\":11548:11554   */\n      dup7\n        /* \"#utility.yul\":11539:11546   */\n      dup4\n        /* \"#utility.yul\":11536:11555   */\n      lt\n        /* \"#utility.yul\":11533:11712   */\n      iszero\n      tag_238\n      jumpi\n        /* \"#utility.yul\":11606:11615   */\n      dup5\n        /* \"#utility.yul\":11601:11604   */\n      dup10\n        /* \"#utility.yul\":11597:11616   */\n      add\n        /* \"#utility.yul\":11591:11617   */\n      mload\n        /* \"#utility.yul\":11649:11697   */\n      tag_239\n        /* \"#utility.yul\":11691:11695   */\n      0x1f\n        /* \"#utility.yul\":11683:11689   */\n      dup10\n        /* \"#utility.yul\":11679:11696   */\n      and\n        /* \"#utility.yul\":11668:11677   */\n      dup3\n        /* \"#utility.yul\":11649:11697   */\n      tag_106\n      jump\t// in\n    tag_239:\n        /* \"#utility.yul\":11641:11647   */\n      dup4\n        /* \"#utility.yul\":11634:11698   */\n      sstore\n        /* \"#utility.yul\":11556:11712   */\n      pop\n        /* \"#utility.yul\":11533:11712   */\n    tag_238:\n        /* \"#utility.yul\":11758:11759   */\n      0x01\n        /* \"#utility.yul\":11754:11755   */\n      0x02\n        /* \"#utility.yul\":11746:11752   */\n      dup9\n        /* \"#utility.yul\":11742:11756   */\n      mul\n        /* \"#utility.yul\":11738:11760   */\n      add\n        /* \"#utility.yul\":11732:11736   */\n      dup9\n        /* \"#utility.yul\":11725:11761   */\n      sstore\n        /* \"#utility.yul\":11160:11771   */\n      pop\n      pop\n      pop\n        /* \"#utility.yul\":11123:12010   */\n    tag_230:\n      pop\n        /* \"#utility.yul\":10713:12016   */\n      pop\n      pop\n      pop\n        /* \"#utility.yul\":10621:12016   */\n      pop\n      pop\n      jump\t// out\n        /* \"#utility.yul\":12022:12202   */\n    tag_108:\n        /* \"#utility.yul\":12070:12147   */\n      0x4e487b7100000000000000000000000000000000000000000000000000000000\n        /* \"#utility.yul\":12067:12068   */\n      0x00\n        /* \"#utility.yul\":12060:12148   */\n      mstore\n        /* \"#utility.yul\":12167:12171   */\n      0x11\n        /* \"#utility.yul\":12164:12165   */\n      0x04\n        /* \"#utility.yul\":12157:12172   */\n      mstore\n        /* \"#utility.yul\":12191:12195   */\n      0x24\n        /* \"#utility.yul\":12188:12189   */\n      0x00\n        /* \"#utility.yul\":12181:12196   */\n      revert\n        /* \"#utility.yul\":12208:12441   */\n    tag_56:\n        /* \"#utility.yul\":12247:12250   */\n      0x00\n        /* \"#utility.yul\":12270:12294   */\n      tag_242\n        /* \"#utility.yul\":12288:12293   */\n      dup3\n        /* \"#utility.yul\":12270:12294   */\n      tag_72\n      jump\t// in\n    tag_242:\n        /* \"#utility.yul\":12261:12294   */\n      swap2\n      pop\n        /* \"#utility.yul\":12316:12382   */\n      0xffffffffffffffffffffffffffffffffffffffffffffffffffffffffffffffff\n        /* \"#utility.yul\":12309:12314   */\n      dup3\n        /* \"#utility.yul\":12306:12383   */\n      sub\n        /* \"#utility.yul\":12303:12406   */\n      tag_243\n      jumpi\n        /* \"#utility.yul\":12386:12404   */\n      tag_244\n      tag_108\n      jump\t// in\n    tag_244:\n        /* \"#utility.yul\":12303:12406   */\n    tag_243:\n        /* \"#utility.yul\":12433:12434   */\n      0x01\n        /* \"#utility.yul\":12426:12431   */\n      dup3\n        /* \"#utility.yul\":12422:12435   */\n      add\n        /* \"#utility.yul\":12415:12435   */\n      swap1\n      pop\n        /* \"#utility.yul\":12208:12441   */\n      swap2\n      swap1\n      pop\n      jump\t// out\n\n    auxdata: 0xa26469706673582212208857fe29c2f0b7c3ee586de2ccff0e726f332b687428850cb6a5c304708e116564736f6c634300081a0033\n}\n",
				"bytecode": {
					"linkReferences": {},
					"object": "6080604052670de0b6b3a7640000600255348015601a575f80fd5b50610c15806100285f395ff3fe608060405260043610610054575f3560e01c80635daf08ca1461005857806376e92559146100975780637fb33eb1146100c15780638f180305146100dd578063c8718fbb14610107578063fd7babb814610146575b5f80fd5b348015610063575f80fd5b5061007e6004803603810190610079919061054c565b610170565b60405161008e94939291906105f6565b60405180910390f35b3480156100a2575f80fd5b506100ab6102a7565b6040516100b89190610647565b60405180910390f35b6100db60048036038101906100d6919061078c565b6102ad565b005b3480156100e8575f80fd5b506100f1610380565b6040516100fe9190610647565b60405180910390f35b348015610112575f80fd5b5061012d6004803603810190610128919061054c565b610389565b60405161013d94939291906105f6565b60405180910390f35b348015610151575f80fd5b5061015a610502565b6040516101679190610647565b60405180910390f35b5f602052805f5260405f205f91509050805f01549080600101805461019490610841565b80601f01602080910402602001604051908101604052809291908181526020018280546101c090610841565b801561020b5780601f106101e25761010080835404028352916020019161020b565b820191905f5260205f20905b8154815290600101906020018083116101ee57829003601f168201915b50505050509080600201805461022090610841565b80601f016020809104026020016040519081016040528092919081815260200182805461024c90610841565b80156102975780601f1061026e57610100808354040283529160200191610297565b820191905f5260205f20905b81548152906001019060200180831161027a57829003601f168201915b5050505050908060030154905084565b60015481565b6002543410156102f2576040517f08c379a00000000000000000000000000000000000000000000000000000000081526004016102e9906108e1565b60405180910390fd5b6040518060800160405280848152602001838152602001828152602001348152505f808581526020019081526020015f205f820151815f015560208201518160010190816103409190610a9c565b5060408201518160020190816103569190610a9c565b506060820151816003015590505060015f81548092919061037690610b98565b9190505550505050565b5f600154905090565b5f6060805f805f808781526020019081526020015f206040518060800160405290815f82015481526020016001820180546103c390610841565b80601f01602080910402602001604051908101604052809291908181526020018280546103ef90610841565b801561043a5780601f106104115761010080835404028352916020019161043a565b820191905f5260205f20905b81548152906001019060200180831161041d57829003601f168201915b5050505050815260200160028201805461045390610841565b80601f016020809104026020016040519081016040528092919081815260200182805461047f90610841565b80156104ca5780601f106104a1576101008083540402835291602001916104ca565b820191905f5260205f20905b8154815290600101906020018083116104ad57829003601f168201915b505050505081526020016003820154815250509050805f01518160200151826040015183606001519450945094509450509193509193565b60025481565b5f604051905090565b5f80fd5b5f80fd5b5f819050919050565b61052b81610519565b8114610535575f80fd5b50565b5f8135905061054681610522565b92915050565b5f6020828403121561056157610560610511565b5b5f61056e84828501610538565b91505092915050565b61058081610519565b82525050565b5f81519050919050565b5f82825260208201905092915050565b8281835e5f83830152505050565b5f601f19601f8301169050919050565b5f6105c882610586565b6105d28185610590565b93506105e28185602086016105a0565b6105eb816105ae565b840191505092915050565b5f6080820190506106095f830187610577565b818103602083015261061b81866105be565b9050818103604083015261062f81856105be565b905061063e6060830184610577565b95945050505050565b5f60208201905061065a5f830184610577565b92915050565b5f80fd5b5f80fd5b7f4e487b71000000000000000000000000000000000000000000000000000000005f52604160045260245ffd5b61069e826105ae565b810181811067ffffffffffffffff821117156106bd576106bc610668565b5b80604052505050565b5f6106cf610508565b90506106db8282610695565b919050565b5f67ffffffffffffffff8211156106fa576106f9610668565b5b610703826105ae565b9050602081019050919050565b828183375f83830152505050565b5f61073061072b846106e0565b6106c6565b90508281526020810184848401111561074c5761074b610664565b5b610757848285610710565b509392505050565b5f82601f83011261077357610772610660565b5b813561078384826020860161071e565b91505092915050565b5f805f606084860312156107a3576107a2610511565b5b5f6107b086828701610538565b935050602084013567ffffffffffffffff8111156107d1576107d0610515565b5b6107dd8682870161075f565b925050604084013567ffffffffffffffff8111156107fe576107fd610515565b5b61080a8682870161075f565b9150509250925092565b7f4e487b71000000000000000000000000000000000000000000000000000000005f52602260045260245ffd5b5f600282049050600182168061085857607f821691505b60208210810361086b5761086a610814565b5b50919050565b7f4d656d62657273686970206665652069732062656c6f772074686520726571755f8201527f69726564207468726573686f6c642e0000000000000000000000000000000000602082015250565b5f6108cb602f83610590565b91506108d682610871565b604082019050919050565b5f6020820190508181035f8301526108f8816108bf565b9050919050565b5f819050815f5260205f209050919050565b5f6020601f8301049050919050565b5f82821b905092915050565b5f6008830261095b7fffffffffffffffffffffffffffffffffffffffffffffffffffffffffffffffff82610920565b6109658683610920565b95508019841693508086168417925050509392505050565b5f819050919050565b5f6109a061099b61099684610519565b61097d565b610519565b9050919050565b5f819050919050565b6109b983610986565b6109cd6109c5826109a7565b84845461092c565b825550505050565b5f90565b6109e16109d5565b6109ec8184846109b0565b505050565b5b81811015610a0f57610a045f826109d9565b6001810190506109f2565b5050565b601f821115610a5457610a25816108ff565b610a2e84610911565b81016020851015610a3d578190505b610a51610a4985610911565b8301826109f1565b50505b505050565b5f82821c905092915050565b5f610a745f1984600802610a59565b1980831691505092915050565b5f610a8c8383610a65565b9150826002028217905092915050565b610aa582610586565b67ffffffffffffffff811115610abe57610abd610668565b5b610ac88254610841565b610ad3828285610a13565b5f60209050601f831160018114610b04575f8415610af2578287015190505b610afc8582610a81565b865550610b63565b601f198416610b12866108ff565b5f5b82811015610b3957848901518255600182019150602085019450602081019050610b14565b86831015610b565784890151610b52601f891682610a65565b8355505b6001600288020188555050505b505050505050565b7f4e487b71000000000000000000000000000000000000000000000000000000005f52601160045260245ffd5b5f610ba282610519565b91507fffffffffffffffffffffffffffffffffffffffffffffffffffffffffffffffff8203610bd457610bd3610b6b565b5b60018201905091905056fea26469706673582212208857fe29c2f0b7c3ee586de2ccff0e726f332b687428850cb6a5c304708e116564736f6c634300081a0033",
					"opcodes": "PUSH1 0x80 PUSH1 0x40 MSTORE PUSH8 0xDE0B6B3A7640000 PUSH1 0x2 SSTORE CALLVALUE DUP1 ISZERO PUSH1 0x1A JUMPI PUSH0 DUP1 REVERT JUMPDEST POP PUSH2 0xC15 DUP1 PUSH2 0x28 PUSH0 CODECOPY PUSH0 RETURN INVALID PUSH1 0x80 PUSH1 0x40 MSTORE PUSH1 0x4 CALLDATASIZE LT PUSH2 0x54 JUMPI PUSH0 CALLDATALOAD PUSH1 0xE0 SHR DUP1 PUSH4 0x5DAF08CA EQ PUSH2 0x58 JUMPI DUP1 PUSH4 0x76E92559 EQ PUSH2 0x97 JUMPI DUP1 PUSH4 0x7FB33EB1 EQ PUSH2 0xC1 JUMPI DUP1 PUSH4 0x8F180305 EQ PUSH2 0xDD JUMPI DUP1 PUSH4 0xC8718FBB EQ PUSH2 0x107 JUMPI DUP1 PUSH4 0xFD7BABB8 EQ PUSH2 0x146 JUMPI JUMPDEST PUSH0 DUP1 REVERT JUMPDEST CALLVALUE DUP1 ISZERO PUSH2 0x63 JUMPI PUSH0 DUP1 REVERT JUMPDEST POP PUSH2 0x7E PUSH1 0x4 DUP1 CALLDATASIZE SUB DUP2 ADD SWAP1 PUSH2 0x79 SWAP2 SWAP1 PUSH2 0x54C JUMP JUMPDEST PUSH2 0x170 JUMP JUMPDEST PUSH1 0x40 MLOAD PUSH2 0x8E SWAP5 SWAP4 SWAP3 SWAP2 SWAP1 PUSH2 0x5F6 JUMP JUMPDEST PUSH1 0x40 MLOAD DUP1 SWAP2 SUB SWAP1 RETURN JUMPDEST CALLVALUE DUP1 ISZERO PUSH2 0xA2 JUMPI PUSH0 DUP1 REVERT JUMPDEST POP PUSH2 0xAB PUSH2 0x2A7 JUMP JUMPDEST PUSH1 0x40 MLOAD PUSH2 0xB8 SWAP2 SWAP1 PUSH2 0x647 JUMP JUMPDEST PUSH1 0x40 MLOAD DUP1 SWAP2 SUB SWAP1 RETURN JUMPDEST PUSH2 0xDB PUSH1 0x4 DUP1 CALLDATASIZE SUB DUP2 ADD SWAP1 PUSH2 0xD6 SWAP2 SWAP1 PUSH2 0x78C JUMP JUMPDEST PUSH2 0x2AD JUMP JUMPDEST STOP JUMPDEST CALLVALUE DUP1 ISZERO PUSH2 0xE8 JUMPI PUSH0 DUP1 REVERT JUMPDEST POP PUSH2 0xF1 PUSH2 0x380 JUMP JUMPDEST PUSH1 0x40 MLOAD PUSH2 0xFE SWAP2 SWAP1 PUSH2 0x647 JUMP JUMPDEST PUSH1 0x40 MLOAD DUP1 SWAP2 SUB SWAP1 RETURN JUMPDEST CALLVALUE DUP1 ISZERO PUSH2 0x112 JUMPI PUSH0 DUP1 REVERT JUMPDEST POP PUSH2 0x12D PUSH1 0x4 DUP1 CALLDATASIZE SUB DUP2 ADD SWAP1 PUSH2 0x128 SWAP2 SWAP1 PUSH2 0x54C JUMP JUMPDEST PUSH2 0x389 JUMP JUMPDEST PUSH1 0x40 MLOAD PUSH2 0x13D SWAP5 SWAP4 SWAP3 SWAP2 SWAP1 PUSH2 0x5F6 JUMP JUMPDEST PUSH1 0x40 MLOAD DUP1 SWAP2 SUB SWAP1 RETURN JUMPDEST CALLVALUE DUP1 ISZERO PUSH2 0x151 JUMPI PUSH0 DUP1 REVERT JUMPDEST POP PUSH2 0x15A PUSH2 0x502 JUMP JUMPDEST PUSH1 0x40 MLOAD PUSH2 0x167 SWAP2 SWAP1 PUSH2 0x647 JUMP JUMPDEST PUSH1 0x40 MLOAD DUP1 SWAP2 SUB SWAP1 RETURN JUMPDEST PUSH0 PUSH1 0x20 MSTORE DUP1 PUSH0 MSTORE PUSH1 0x40 PUSH0 KECCAK256 PUSH0 SWAP2 POP SWAP1 POP DUP1 PUSH0 ADD SLOAD SWAP1 DUP1 PUSH1 0x1 ADD DUP1 SLOAD PUSH2 0x194 SWAP1 PUSH2 0x841 JUMP JUMPDEST DUP1 PUSH1 0x1F ADD PUSH1 0x20 DUP1 SWAP2 DIV MUL PUSH1 0x20 ADD PUSH1 0x40 MLOAD SWAP1 DUP2 ADD PUSH1 0x40 MSTORE DUP1 SWAP3 SWAP2 SWAP1 DUP2 DUP2 MSTORE PUSH1 0x20 ADD DUP3 DUP1 SLOAD PUSH2 0x1C0 SWAP1 PUSH2 0x841 JUMP JUMPDEST DUP1 ISZERO PUSH2 0x20B JUMPI DUP1 PUSH1 0x1F LT PUSH2 0x1E2 JUMPI PUSH2 0x100 DUP1 DUP4 SLOAD DIV MUL DUP4 MSTORE SWAP2 PUSH1 0x20 ADD SWAP2 PUSH2 0x20B JUMP JUMPDEST DUP3 ADD SWAP2 SWAP1 PUSH0 MSTORE PUSH1 0x20 PUSH0 KECCAK256 SWAP1 JUMPDEST DUP2 SLOAD DUP2 MSTORE SWAP1 PUSH1 0x1 ADD SWAP1 PUSH1 0x20 ADD DUP1 DUP4 GT PUSH2 0x1EE JUMPI DUP3 SWAP1 SUB PUSH1 0x1F AND DUP3 ADD SWAP2 JUMPDEST POP POP POP POP POP SWAP1 DUP1 PUSH1 0x2 ADD DUP1 SLOAD PUSH2 0x220 SWAP1 PUSH2 0x841 JUMP JUMPDEST DUP1 PUSH1 0x1F ADD PUSH1 0x20 DUP1 SWAP2 DIV MUL PUSH1 0x20 ADD PUSH1 0x40 MLOAD SWAP1 DUP2 ADD PUSH1 0x40 MSTORE DUP1 SWAP3 SWAP2 SWAP1 DUP2 DUP2 MSTORE PUSH1 0x20 ADD DUP3 DUP1 SLOAD PUSH2 0x24C SWAP1 PUSH2 0x841 JUMP JUMPDEST DUP1 ISZERO PUSH2 0x297 JUMPI DUP1 PUSH1 0x1F LT PUSH2 0x26E JUMPI PUSH2 0x100 DUP1 DUP4 SLOAD DIV MUL DUP4 MSTORE SWAP2 PUSH1 0x20 ADD SWAP2 PUSH2 0x297 JUMP JUMPDEST DUP3 ADD SWAP2 SWAP1 PUSH0 MSTORE PUSH1 0x20 PUSH0 KECCAK256 SWAP1 JUMPDEST DUP2 SLOAD DUP2 MSTORE SWAP1 PUSH1 0x1 ADD SWAP1 PUSH1 0x20 ADD DUP1 DUP4 GT PUSH2 0x27A JUMPI DUP3 SWAP1 SUB PUSH1 0x1F AND DUP3 ADD SWAP2 JUMPDEST POP POP POP POP POP SWAP1 DUP1 PUSH1 0x3 ADD SLOAD SWAP1 POP DUP5 JUMP JUMPDEST PUSH1 0x1 SLOAD DUP2 JUMP JUMPDEST PUSH1 0x2 SLOAD CALLVALUE LT ISZERO PUSH2 0x2F2 JUMPI PUSH1 0x40 MLOAD PUSH32 0x8C379A000000000000000000000000000000000000000000000000000000000 DUP2 MSTORE PUSH1 0x4 ADD PUSH2 0x2E9 SWAP1 PUSH2 0x8E1 JUMP JUMPDEST PUSH1 0x40 MLOAD DUP1 SWAP2 SUB SWAP1 REVERT JUMPDEST PUSH1 0x40 MLOAD DUP1 PUSH1 0x80 ADD PUSH1 0x40 MSTORE DUP1 DUP5 DUP2 MSTORE PUSH1 0x20 ADD DUP4 DUP2 MSTORE PUSH1 0x20 ADD DUP3 DUP2 MSTORE PUSH1 0x20 ADD CALLVALUE DUP2 MSTORE POP PUSH0 DUP1 DUP6 DUP2 MSTORE PUSH1 0x20 ADD SWAP1 DUP2 MSTORE PUSH1 0x20 ADD PUSH0 KECCAK256 PUSH0 DUP3 ADD MLOAD DUP2 PUSH0 ADD SSTORE PUSH1 0x20 DUP3 ADD MLOAD DUP2 PUSH1 0x1 ADD SWAP1 DUP2 PUSH2 0x340 SWAP2 SWAP1 PUSH2 0xA9C JUMP JUMPDEST POP PUSH1 0x40 DUP3 ADD MLOAD DUP2 PUSH1 0x2 ADD SWAP1 DUP2 PUSH2 0x356 SWAP2 SWAP1 PUSH2 0xA9C JUMP JUMPDEST POP PUSH1 0x60 DUP3 ADD MLOAD DUP2 PUSH1 0x3 ADD SSTORE SWAP1 POP POP PUSH1 0x1 PUSH0 DUP2 SLOAD DUP1 SWAP3 SWAP2 SWAP1 PUSH2 0x376 SWAP1 PUSH2 0xB98 JUMP JUMPDEST SWAP2 SWAP1 POP SSTORE POP POP POP POP JUMP JUMPDEST PUSH0 PUSH1 0x1 SLOAD SWAP1 POP SWAP1 JUMP JUMPDEST PUSH0 PUSH1 0x60 DUP1 PUSH0 DUP1 PUSH0 DUP1 DUP8 DUP2 MSTORE PUSH1 0x20 ADD SWAP1 DUP2 MSTORE PUSH1 0x20 ADD PUSH0 KECCAK256 PUSH1 0x40 MLOAD DUP1 PUSH1 0x80 ADD PUSH1 0x40 MSTORE SWAP1 DUP2 PUSH0 DUP3 ADD SLOAD DUP2 MSTORE PUSH1 0x20 ADD PUSH1 0x1 DUP3 ADD DUP1 SLOAD PUSH2 0x3C3 SWAP1 PUSH2 0x841 JUMP JUMPDEST DUP1 PUSH1 0x1F ADD PUSH1 0x20 DUP1 SWAP2 DIV MUL PUSH1 0x20 ADD PUSH1 0x40 MLOAD SWAP1 DUP2 ADD PUSH1 0x40 MSTORE DUP1 SWAP3 SWAP2 SWAP1 DUP2 DUP2 MSTORE PUSH1 0x20 ADD DUP3 DUP1 SLOAD PUSH2 0x3EF SWAP1 PUSH2 0x841 JUMP JUMPDEST DUP1 ISZERO PUSH2 0x43A JUMPI DUP1 PUSH1 0x1F LT PUSH2 0x411 JUMPI PUSH2 0x100 DUP1 DUP4 SLOAD DIV MUL DUP4 MSTORE SWAP2 PUSH1 0x20 ADD SWAP2 PUSH2 0x43A JUMP JUMPDEST DUP3 ADD SWAP2 SWAP1 PUSH0 MSTORE PUSH1 0x20 PUSH0 KECCAK256 SWAP1 JUMPDEST DUP2 SLOAD DUP2 MSTORE SWAP1 PUSH1 0x1 ADD SWAP1 PUSH1 0x20 ADD DUP1 DUP4 GT PUSH2 0x41D JUMPI DUP3 SWAP1 SUB PUSH1 0x1F AND DUP3 ADD SWAP2 JUMPDEST POP POP POP POP POP DUP2 MSTORE PUSH1 0x20 ADD PUSH1 0x2 DUP3 ADD DUP1 SLOAD PUSH2 0x453 SWAP1 PUSH2 0x841 JUMP JUMPDEST DUP1 PUSH1 0x1F ADD PUSH1 0x20 DUP1 SWAP2 DIV MUL PUSH1 0x20 ADD PUSH1 0x40 MLOAD SWAP1 DUP2 ADD PUSH1 0x40 MSTORE DUP1 SWAP3 SWAP2 SWAP1 DUP2 DUP2 MSTORE PUSH1 0x20 ADD DUP3 DUP1 SLOAD PUSH2 0x47F SWAP1 PUSH2 0x841 JUMP JUMPDEST DUP1 ISZERO PUSH2 0x4CA JUMPI DUP1 PUSH1 0x1F LT PUSH2 0x4A1 JUMPI PUSH2 0x100 DUP1 DUP4 SLOAD DIV MUL DUP4 MSTORE SWAP2 PUSH1 0x20 ADD SWAP2 PUSH2 0x4CA JUMP JUMPDEST DUP3 ADD SWAP2 SWAP1 PUSH0 MSTORE PUSH1 0x20 PUSH0 KECCAK256 SWAP1 JUMPDEST DUP2 SLOAD DUP2 MSTORE SWAP1 PUSH1 0x1 ADD SWAP1 PUSH1 0x20 ADD DUP1 DUP4 GT PUSH2 0x4AD JUMPI DUP3 SWAP1 SUB PUSH1 0x1F AND DUP3 ADD SWAP2 JUMPDEST POP POP POP POP POP DUP2 MSTORE PUSH1 0x20 ADD PUSH1 0x3 DUP3 ADD SLOAD DUP2 MSTORE POP POP SWAP1 POP DUP1 PUSH0 ADD MLOAD DUP2 PUSH1 0x20 ADD MLOAD DUP3 PUSH1 0x40 ADD MLOAD DUP4 PUSH1 0x60 ADD MLOAD SWAP5 POP SWAP5 POP SWAP5 POP SWAP5 POP POP SWAP2 SWAP4 POP SWAP2 SWAP4 JUMP JUMPDEST PUSH1 0x2 SLOAD DUP2 JUMP JUMPDEST PUSH0 PUSH1 0x40 MLOAD SWAP1 POP SWAP1 JUMP JUMPDEST PUSH0 DUP1 REVERT JUMPDEST PUSH0 DUP1 REVERT JUMPDEST PUSH0 DUP2 SWAP1 POP SWAP2 SWAP1 POP JUMP JUMPDEST PUSH2 0x52B DUP2 PUSH2 0x519 JUMP JUMPDEST DUP2 EQ PUSH2 0x535 JUMPI PUSH0 DUP1 REVERT JUMPDEST POP JUMP JUMPDEST PUSH0 DUP2 CALLDATALOAD SWAP1 POP PUSH2 0x546 DUP2 PUSH2 0x522 JUMP JUMPDEST SWAP3 SWAP2 POP POP JUMP JUMPDEST PUSH0 PUSH1 0x20 DUP3 DUP5 SUB SLT ISZERO PUSH2 0x561 JUMPI PUSH2 0x560 PUSH2 0x511 JUMP JUMPDEST JUMPDEST PUSH0 PUSH2 0x56E DUP5 DUP3 DUP6 ADD PUSH2 0x538 JUMP JUMPDEST SWAP2 POP POP SWAP3 SWAP2 POP POP JUMP JUMPDEST PUSH2 0x580 DUP2 PUSH2 0x519 JUMP JUMPDEST DUP3 MSTORE POP POP JUMP JUMPDEST PUSH0 DUP2 MLOAD SWAP1 POP SWAP2 SWAP1 POP JUMP JUMPDEST PUSH0 DUP3 DUP3 MSTORE PUSH1 0x20 DUP3 ADD SWAP1 POP SWAP3 SWAP2 POP POP JUMP JUMPDEST DUP3 DUP2 DUP4 MCOPY PUSH0 DUP4 DUP4 ADD MSTORE POP POP POP JUMP JUMPDEST PUSH0 PUSH1 0x1F NOT PUSH1 0x1F DUP4 ADD AND SWAP1 POP SWAP2 SWAP1 POP JUMP JUMPDEST PUSH0 PUSH2 0x5C8 DUP3 PUSH2 0x586 JUMP JUMPDEST PUSH2 0x5D2 DUP2 DUP6 PUSH2 0x590 JUMP JUMPDEST SWAP4 POP PUSH2 0x5E2 DUP2 DUP6 PUSH1 0x20 DUP7 ADD PUSH2 0x5A0 JUMP JUMPDEST PUSH2 0x5EB DUP2 PUSH2 0x5AE JUMP JUMPDEST DUP5 ADD SWAP2 POP POP SWAP3 SWAP2 POP POP JUMP JUMPDEST PUSH0 PUSH1 0x80 DUP3 ADD SWAP1 POP PUSH2 0x609 PUSH0 DUP4 ADD DUP8 PUSH2 0x577 JUMP JUMPDEST DUP2 DUP2 SUB PUSH1 0x20 DUP4 ADD MSTORE PUSH2 0x61B DUP2 DUP7 PUSH2 0x5BE JUMP JUMPDEST SWAP1 POP DUP2 DUP2 SUB PUSH1 0x40 DUP4 ADD MSTORE PUSH2 0x62F DUP2 DUP6 PUSH2 0x5BE JUMP JUMPDEST SWAP1 POP PUSH2 0x63E PUSH1 0x60 DUP4 ADD DUP5 PUSH2 0x577 JUMP JUMPDEST SWAP6 SWAP5 POP POP POP POP POP JUMP JUMPDEST PUSH0 PUSH1 0x20 DUP3 ADD SWAP1 POP PUSH2 0x65A PUSH0 DUP4 ADD DUP5 PUSH2 0x577 JUMP JUMPDEST SWAP3 SWAP2 POP POP JUMP JUMPDEST PUSH0 DUP1 REVERT JUMPDEST PUSH0 DUP1 REVERT JUMPDEST PUSH32 0x4E487B7100000000000000000000000000000000000000000000000000000000 PUSH0 MSTORE PUSH1 0x41 PUSH1 0x4 MSTORE PUSH1 0x24 PUSH0 REVERT JUMPDEST PUSH2 0x69E DUP3 PUSH2 0x5AE JUMP JUMPDEST DUP2 ADD DUP2 DUP2 LT PUSH8 0xFFFFFFFFFFFFFFFF DUP3 GT OR ISZERO PUSH2 0x6BD JUMPI PUSH2 0x6BC PUSH2 0x668 JUMP JUMPDEST JUMPDEST DUP1 PUSH1 0x40 MSTORE POP POP POP JUMP JUMPDEST PUSH0 PUSH2 0x6CF PUSH2 0x508 JUMP JUMPDEST SWAP1 POP PUSH2 0x6DB DUP3 DUP3 PUSH2 0x695 JUMP JUMPDEST SWAP2 SWAP1 POP JUMP JUMPDEST PUSH0 PUSH8 0xFFFFFFFFFFFFFFFF DUP3 GT ISZERO PUSH2 0x6FA JUMPI PUSH2 0x6F9 PUSH2 0x668 JUMP JUMPDEST JUMPDEST PUSH2 0x703 DUP3 PUSH2 0x5AE JUMP JUMPDEST SWAP1 POP PUSH1 0x20 DUP2 ADD SWAP1 POP SWAP2 SWAP1 POP JUMP JUMPDEST DUP3 DUP2 DUP4 CALLDATACOPY PUSH0 DUP4 DUP4 ADD MSTORE POP POP POP JUMP JUMPDEST PUSH0 PUSH2 0x730 PUSH2 0x72B DUP5 PUSH2 0x6E0 JUMP JUMPDEST PUSH2 0x6C6 JUMP JUMPDEST SWAP1 POP DUP3 DUP2 MSTORE PUSH1 0x20 DUP2 ADD DUP5 DUP5 DUP5 ADD GT ISZERO PUSH2 0x74C JUMPI PUSH2 0x74B PUSH2 0x664 JUMP JUMPDEST JUMPDEST PUSH2 0x757 DUP5 DUP3 DUP6 PUSH2 0x710 JUMP JUMPDEST POP SWAP4 SWAP3 POP POP POP JUMP JUMPDEST PUSH0 DUP3 PUSH1 0x1F DUP4 ADD SLT PUSH2 0x773 JUMPI PUSH2 0x772 PUSH2 0x660 JUMP JUMPDEST JUMPDEST DUP2 CALLDATALOAD PUSH2 0x783 DUP5 DUP3 PUSH1 0x20 DUP7 ADD PUSH2 0x71E JUMP JUMPDEST SWAP2 POP POP SWAP3 SWAP2 POP POP JUMP JUMPDEST PUSH0 DUP1 PUSH0 PUSH1 0x60 DUP5 DUP7 SUB SLT ISZERO PUSH2 0x7A3 JUMPI PUSH2 0x7A2 PUSH2 0x511 JUMP JUMPDEST JUMPDEST PUSH0 PUSH2 0x7B0 DUP7 DUP3 DUP8 ADD PUSH2 0x538 JUMP JUMPDEST SWAP4 POP POP PUSH1 0x20 DUP5 ADD CALLDATALOAD PUSH8 0xFFFFFFFFFFFFFFFF DUP2 GT ISZERO PUSH2 0x7D1 JUMPI PUSH2 0x7D0 PUSH2 0x515 JUMP JUMPDEST JUMPDEST PUSH2 0x7DD DUP7 DUP3 DUP8 ADD PUSH2 0x75F JUMP JUMPDEST SWAP3 POP POP PUSH1 0x40 DUP5 ADD CALLDATALOAD PUSH8 0xFFFFFFFFFFFFFFFF DUP2 GT ISZERO PUSH2 0x7FE JUMPI PUSH2 0x7FD PUSH2 0x515 JUMP JUMPDEST JUMPDEST PUSH2 0x80A DUP7 DUP3 DUP8 ADD PUSH2 0x75F JUMP JUMPDEST SWAP2 POP POP SWAP3 POP SWAP3 POP SWAP3 JUMP JUMPDEST PUSH32 0x4E487B7100000000000000000000000000000000000000000000000000000000 PUSH0 MSTORE PUSH1 0x22 PUSH1 0x4 MSTORE PUSH1 0x24 PUSH0 REVERT JUMPDEST PUSH0 PUSH1 0x2 DUP3 DIV SWAP1 POP PUSH1 0x1 DUP3 AND DUP1 PUSH2 0x858 JUMPI PUSH1 0x7F DUP3 AND SWAP2 POP JUMPDEST PUSH1 0x20 DUP3 LT DUP2 SUB PUSH2 0x86B JUMPI PUSH2 0x86A PUSH2 0x814 JUMP JUMPDEST JUMPDEST POP SWAP2 SWAP1 POP JUMP JUMPDEST PUSH32 0x4D656D62657273686970206665652069732062656C6F77207468652072657175 PUSH0 DUP3 ADD MSTORE PUSH32 0x69726564207468726573686F6C642E0000000000000000000000000000000000 PUSH1 0x20 DUP3 ADD MSTORE POP JUMP JUMPDEST PUSH0 PUSH2 0x8CB PUSH1 0x2F DUP4 PUSH2 0x590 JUMP JUMPDEST SWAP2 POP PUSH2 0x8D6 DUP3 PUSH2 0x871 JUMP JUMPDEST PUSH1 0x40 DUP3 ADD SWAP1 POP SWAP2 SWAP1 POP JUMP JUMPDEST PUSH0 PUSH1 0x20 DUP3 ADD SWAP1 POP DUP2 DUP2 SUB PUSH0 DUP4 ADD MSTORE PUSH2 0x8F8 DUP2 PUSH2 0x8BF JUMP JUMPDEST SWAP1 POP SWAP2 SWAP1 POP JUMP JUMPDEST PUSH0 DUP2 SWAP1 POP DUP2 PUSH0 MSTORE PUSH1 0x20 PUSH0 KECCAK256 SWAP1 POP SWAP2 SWAP1 POP JUMP JUMPDEST PUSH0 PUSH1 0x20 PUSH1 0x1F DUP4 ADD DIV SWAP1 POP SWAP2 SWAP1 POP JUMP JUMPDEST PUSH0 DUP3 DUP3 SHL SWAP1 POP SWAP3 SWAP2 POP POP JUMP JUMPDEST PUSH0 PUSH1 0x8 DUP4 MUL PUSH2 0x95B PUSH32 0xFFFFFFFFFFFFFFFFFFFFFFFFFFFFFFFFFFFFFFFFFFFFFFFFFFFFFFFFFFFFFFFF DUP3 PUSH2 0x920 JUMP JUMPDEST PUSH2 0x965 DUP7 DUP4 PUSH2 0x920 JUMP JUMPDEST SWAP6 POP DUP1 NOT DUP5 AND SWAP4 POP DUP1 DUP7 AND DUP5 OR SWAP3 POP POP POP SWAP4 SWAP3 POP POP POP JUMP JUMPDEST PUSH0 DUP2 SWAP1 POP SWAP2 SWAP1 POP JUMP JUMPDEST PUSH0 PUSH2 0x9A0 PUSH2 0x99B PUSH2 0x996 DUP5 PUSH2 0x519 JUMP JUMPDEST PUSH2 0x97D JUMP JUMPDEST PUSH2 0x519 JUMP JUMPDEST SWAP1 POP SWAP2 SWAP1 POP JUMP JUMPDEST PUSH0 DUP2 SWAP1 POP SWAP2 SWAP1 POP JUMP JUMPDEST PUSH2 0x9B9 DUP4 PUSH2 0x986 JUMP JUMPDEST PUSH2 0x9CD PUSH2 0x9C5 DUP3 PUSH2 0x9A7 JUMP JUMPDEST DUP5 DUP5 SLOAD PUSH2 0x92C JUMP JUMPDEST DUP3 SSTORE POP POP POP POP JUMP JUMPDEST PUSH0 SWAP1 JUMP JUMPDEST PUSH2 0x9E1 PUSH2 0x9D5 JUMP JUMPDEST PUSH2 0x9EC DUP2 DUP5 DUP5 PUSH2 0x9B0 JUMP JUMPDEST POP POP POP JUMP JUMPDEST JUMPDEST DUP2 DUP2 LT ISZERO PUSH2 0xA0F JUMPI PUSH2 0xA04 PUSH0 DUP3 PUSH2 0x9D9 JUMP JUMPDEST PUSH1 0x1 DUP2 ADD SWAP1 POP PUSH2 0x9F2 JUMP JUMPDEST POP POP JUMP JUMPDEST PUSH1 0x1F DUP3 GT ISZERO PUSH2 0xA54 JUMPI PUSH2 0xA25 DUP2 PUSH2 0x8FF JUMP JUMPDEST PUSH2 0xA2E DUP5 PUSH2 0x911 JUMP JUMPDEST DUP2 ADD PUSH1 0x20 DUP6 LT ISZERO PUSH2 0xA3D JUMPI DUP2 SWAP1 POP JUMPDEST PUSH2 0xA51 PUSH2 0xA49 DUP6 PUSH2 0x911 JUMP JUMPDEST DUP4 ADD DUP3 PUSH2 0x9F1 JUMP JUMPDEST POP POP JUMPDEST POP POP POP JUMP JUMPDEST PUSH0 DUP3 DUP3 SHR SWAP1 POP SWAP3 SWAP2 POP POP JUMP JUMPDEST PUSH0 PUSH2 0xA74 PUSH0 NOT DUP5 PUSH1 0x8 MUL PUSH2 0xA59 JUMP JUMPDEST NOT DUP1 DUP4 AND SWAP2 POP POP SWAP3 SWAP2 POP POP JUMP JUMPDEST PUSH0 PUSH2 0xA8C DUP4 DUP4 PUSH2 0xA65 JUMP JUMPDEST SWAP2 POP DUP3 PUSH1 0x2 MUL DUP3 OR SWAP1 POP SWAP3 SWAP2 POP POP JUMP JUMPDEST PUSH2 0xAA5 DUP3 PUSH2 0x586 JUMP JUMPDEST PUSH8 0xFFFFFFFFFFFFFFFF DUP2 GT ISZERO PUSH2 0xABE JUMPI PUSH2 0xABD PUSH2 0x668 JUMP JUMPDEST JUMPDEST PUSH2 0xAC8 DUP3 SLOAD PUSH2 0x841 JUMP JUMPDEST PUSH2 0xAD3 DUP3 DUP3 DUP6 PUSH2 0xA13 JUMP JUMPDEST PUSH0 PUSH1 0x20 SWAP1 POP PUSH1 0x1F DUP4 GT PUSH1 0x1 DUP2 EQ PUSH2 0xB04 JUMPI PUSH0 DUP5 ISZERO PUSH2 0xAF2 JUMPI DUP3 DUP8 ADD MLOAD SWAP1 POP JUMPDEST PUSH2 0xAFC DUP6 DUP3 PUSH2 0xA81 JUMP JUMPDEST DUP7 SSTORE POP PUSH2 0xB63 JUMP JUMPDEST PUSH1 0x1F NOT DUP5 AND PUSH2 0xB12 DUP7 PUSH2 0x8FF JUMP JUMPDEST PUSH0 JUMPDEST DUP3 DUP2 LT ISZERO PUSH2 0xB39 JUMPI DUP5 DUP10 ADD MLOAD DUP3 SSTORE PUSH1 0x1 DUP3 ADD SWAP2 POP PUSH1 0x20 DUP6 ADD SWAP5 POP PUSH1 0x20 DUP2 ADD SWAP1 POP PUSH2 0xB14 JUMP JUMPDEST DUP7 DUP4 LT ISZERO PUSH2 0xB56 JUMPI DUP5 DUP10 ADD MLOAD PUSH2 0xB52 PUSH1 0x1F DUP10 AND DUP3 PUSH2 0xA65 JUMP JUMPDEST DUP4 SSTORE POP JUMPDEST PUSH1 0x1 PUSH1 0x2 DUP9 MUL ADD DUP9 SSTORE POP POP POP JUMPDEST POP POP POP POP POP POP JUMP JUMPDEST PUSH32 0x4E487B7100000000000000000000000000000000000000000000000000000000 PUSH0 MSTORE PUSH1 0x11 PUSH1 0x4 MSTORE PUSH1 0x24 PUSH0 REVERT JUMPDEST PUSH0 PUSH2 0xBA2 DUP3 PUSH2 0x519 JUMP JUMPDEST SWAP2 POP PUSH32 0xFFFFFFFFFFFFFFFFFFFFFFFFFFFFFFFFFFFFFFFFFFFFFFFFFFFFFFFFFFFFFFFF DUP3 SUB PUSH2 0xBD4 JUMPI PUSH2 0xBD3 PUSH2 0xB6B JUMP JUMPDEST JUMPDEST PUSH1 0x1 DUP3 ADD SWAP1 POP SWAP2 SWAP1 POP JUMP INVALID LOG2 PUSH5 0x6970667358 0x22 SLT KECCAK256 DUP9 JUMPI INVALID 0x29 0xC2 CREATE 0xB7 0xC3 0xEE PC PUSH14 0xE2CCFF0E726F332B687428850CB6 0xA5 0xC3 DIV PUSH17 0x8E116564736F6C634300081A0033000000 "
				},
				"gasEstimates": {
					"creation": {
						"codeDepositCost": "618600",
						"executionCost": "22755",
						"totalCost": "641355"
					},
					"external": {
						"Threshold()": "2513",
						"addMember(uint256,string,string)": "infinite",
						"getTotalMembers()": "2476",
						"members(uint256)": "infinite",
						"retrieveMember(uint256)": "infinite",
						"totalMembers()": "2425"
					}
				},
				"methodIdentifiers": {
					"Threshold()": "fd7babb8",
					"addMember(uint256,string,string)": "7fb33eb1",
					"getTotalMembers()": "8f180305",
					"members(uint256)": "5daf08ca",
					"retrieveMember(uint256)": "c8718fbb",
					"totalMembers()": "76e92559"
				}
			},
			"storageLayout": {
				"storage": [
					{
						"astId": 15,
						"contract": "Assignments/program-23.sol:MembershipManagement",
						"label": "members",
						"offset": 0,
						"slot": "0",
						"type": "t_mapping(t_uint256,t_struct(Member)10_storage)"
					},
					{
						"astId": 17,
						"contract": "Assignments/program-23.sol:MembershipManagement",
						"label": "totalMembers",
						"offset": 0,
						"slot": "1",
						"type": "t_uint256"
					},
					{
						"astId": 20,
						"contract": "Assignments/program-23.sol:MembershipManagement",
						"label": "Threshold",
						"offset": 0,
						"slot": "2",
						"type": "t_uint256"
					}
				],
				"types": {
					"t_mapping(t_uint256,t_struct(Member)10_storage)": {
						"encoding": "mapping",
						"key": "t_uint256",
						"label": "mapping(uint256 => struct MembershipManagement.Member)",
						"numberOfBytes": "32",
						"value": "t_struct(Member)10_storage"
					},
					"t_string_storage": {
						"encoding": "bytes",
						"label": "string",
						"numberOfBytes": "32"
					},
					"t_struct(Member)10_storage": {
						"encoding": "inplace",
						"label": "struct MembershipManagement.Member",
						"members": [
							{
								"astId": 3,
								"contract": "Assignments/program-23.sol:MembershipManagement",
								"label": "id",
								"offset": 0,
								"slot": "0",
								"type": "t_uint256"
							},
							{
								"astId": 5,
								"contract": "Assignments/program-23.sol:MembershipManagement",
								"label": "name",
								"offset": 0,
								"slot": "1",
								"type": "t_string_storage"
							},
							{
								"astId": 7,
								"contract": "Assignments/program-23.sol:MembershipManagement",
								"label": "contactDetails",
								"offset": 0,
								"slot": "2",
								"type": "t_string_storage"
							},
							{
								"astId": 9,
								"contract": "Assignments/program-23.sol:MembershipManagement",
								"label": "membershipFee",
								"offset": 0,
								"slot": "3",
								"type": "t_uint256"
							}
						],
						"numberOfBytes": "128"
					},
					"t_uint256": {
						"encoding": "inplace",
						"label": "uint256",
						"numberOfBytes": "32"
					}
				}
			},
			"userdoc": {
				"kind": "user",
				"methods": {},
				"version": 1
			}
		}
	}
}