{
	"Assignments/program-fav(simpleMapping).sol": {
		"Fav": {
			"abi": [
				{
					"inputs": [
						{
							"internalType": "string",
							"name": "",
							"type": "string"
						}
					],
					"name": "NametoNum",
					"outputs": [
						{
							"internalType": "uint256",
							"name": "",
							"type": "uint256"
						}
					],
					"stateMutability": "view",
					"type": "function"
				},
				{
					"inputs": [
						{
							"internalType": "string",
							"name": "_name",
							"type": "string"
						},
						{
							"internalType": "uint256",
							"name": "_num",
							"type": "uint256"
						}
					],
					"name": "add",
					"outputs": [],
					"stateMutability": "nonpayable",
					"type": "function"
				},
				{
					"inputs": [
						{
							"internalType": "uint256",
							"name": "",
							"type": "uint256"
						}
					],
					"name": "favourite",
					"outputs": [
						{
							"internalType": "string",
							"name": "name",
							"type": "string"
						},
						{
							"internalType": "uint256",
							"name": "num",
							"type": "uint256"
						}
					],
					"stateMutability": "view",
					"type": "function"
				},
				{
					"inputs": [
						{
							"internalType": "uint256",
							"name": "_index",
							"type": "uint256"
						}
					],
					"name": "retrieve",
					"outputs": [
						{
							"internalType": "string",
							"name": "",
							"type": "string"
						},
						{
							"internalType": "uint256",
							"name": "",
							"type": "uint256"
						}
					],
					"stateMutability": "view",
					"type": "function"
				},
				{
					"inputs": [
						{
							"internalType": "string",
							"name": "_index",
							"type": "string"
						}
					],
					"name": "retrieve1",
					"outputs": [
						{
							"internalType": "uint256",
							"name": "",
							"type": "uint256"
						}
					],
					"stateMutability": "view",
					"type": "function"
				}
			],
			"devdoc": {
				"kind": "dev",
				"methods": {},
				"version": 1
			},
			"evm": {
				"assembly": "    /* \"Assignments/program-fav(simpleMapping).sol\":62:687  contract Fav{... */\n  mstore(0x40, 0x80)\n  callvalue\n  dup1\n  iszero\n  tag_1\n  jumpi\n  0x00\n  dup1\n  revert\ntag_1:\n  pop\n  dataSize(sub_0)\n  dup1\n  dataOffset(sub_0)\n  0x00\n  codecopy\n  0x00\n  return\nstop\n\nsub_0: assembly {\n        /* \"Assignments/program-fav(simpleMapping).sol\":62:687  contract Fav{... */\n      mstore(0x40, 0x80)\n      callvalue\n      dup1\n      iszero\n      tag_1\n      jumpi\n      0x00\n      dup1\n      revert\n    tag_1:\n      pop\n      jumpi(tag_2, lt(calldatasize, 0x04))\n      shr(0xe0, calldataload(0x00))\n      dup1\n      0x2747f615\n      eq\n      tag_3\n      jumpi\n      dup1\n      0x36555b85\n      eq\n      tag_4\n      jumpi\n      dup1\n      0x5623e7fd\n      eq\n      tag_5\n      jumpi\n      dup1\n      0x8f88708b\n      eq\n      tag_6\n      jumpi\n      dup1\n      0xbf597ea4\n      eq\n      tag_7\n      jumpi\n    tag_2:\n      0x00\n      dup1\n      revert\n        /* \"Assignments/program-fav(simpleMapping).sol\":574:684  function retrieve1(string memory _index) public view returns(uint){... */\n    tag_3:\n      tag_8\n      0x04\n      dup1\n      calldatasize\n      sub\n      dup2\n      add\n      swap1\n      tag_9\n      swap2\n      swap1\n      tag_10\n      jump\t// in\n    tag_9:\n      tag_11\n      jump\t// in\n    tag_8:\n      mload(0x40)\n      tag_12\n      swap2\n      swap1\n      tag_13\n      jump\t// in\n    tag_12:\n      mload(0x40)\n      dup1\n      swap2\n      sub\n      swap1\n      return\n        /* \"Assignments/program-fav(simpleMapping).sol\":233:373  function add(string memory _name, uint _num)public{... */\n    tag_4:\n      tag_14\n      0x04\n      dup1\n      calldatasize\n      sub\n      dup2\n      add\n      swap1\n      tag_15\n      swap2\n      swap1\n      tag_16\n      jump\t// in\n    tag_15:\n      tag_17\n      jump\t// in\n    tag_14:\n      stop\n        /* \"Assignments/program-fav(simpleMapping).sol\":198:226  Favourite[] public favourite */\n    tag_5:\n      tag_18\n      0x04\n      dup1\n      calldatasize\n      sub\n      dup2\n      add\n      swap1\n      tag_19\n      swap2\n      swap1\n      tag_20\n      jump\t// in\n    tag_19:\n      tag_21\n      jump\t// in\n    tag_18:\n      mload(0x40)\n      tag_22\n      swap3\n      swap2\n      swap1\n      tag_23\n      jump\t// in\n    tag_22:\n      mload(0x40)\n      dup1\n      swap2\n      sub\n      swap1\n      return\n        /* \"Assignments/program-fav(simpleMapping).sol\":379:568  function retrieve(uint _index) public view returns(string memory , uint){... */\n    tag_6:\n      tag_24\n      0x04\n      dup1\n      calldatasize\n      sub\n      dup2\n      add\n      swap1\n      tag_25\n      swap2\n      swap1\n      tag_20\n      jump\t// in\n    tag_25:\n      tag_26\n      jump\t// in\n    tag_24:\n      mload(0x40)\n      tag_27\n      swap3\n      swap2\n      swap1\n      tag_23\n      jump\t// in\n    tag_27:\n      mload(0x40)\n      dup1\n      swap2\n      sub\n      swap1\n      return\n        /* \"Assignments/program-fav(simpleMapping).sol\":152:191  mapping(string => uint)public NametoNum */\n    tag_7:\n      tag_28\n      0x04\n      dup1\n      calldatasize\n      sub\n      dup2\n      add\n      swap1\n      tag_29\n      swap2\n      swap1\n      tag_10\n      jump\t// in\n    tag_29:\n      tag_30\n      jump\t// in\n    tag_28:\n      mload(0x40)\n      tag_31\n      swap2\n      swap1\n      tag_13\n      jump\t// in\n    tag_31:\n      mload(0x40)\n      dup1\n      swap2\n      sub\n      swap1\n      return\n        /* \"Assignments/program-fav(simpleMapping).sol\":574:684  function retrieve1(string memory _index) public view returns(uint){... */\n    tag_11:\n        /* \"Assignments/program-fav(simpleMapping).sol\":635:639  uint */\n      0x00\n        /* \"Assignments/program-fav(simpleMapping).sol\":658:667  NametoNum */\n      dup1\n        /* \"Assignments/program-fav(simpleMapping).sol\":668:674  _index */\n      dup3\n        /* \"Assignments/program-fav(simpleMapping).sol\":658:675  NametoNum[_index] */\n      mload(0x40)\n      tag_33\n      swap2\n      swap1\n      tag_34\n      jump\t// in\n    tag_33:\n      swap1\n      dup2\n      mstore\n      0x20\n      add\n      mload(0x40)\n      dup1\n      swap2\n      sub\n      swap1\n      keccak256\n      sload\n        /* \"Assignments/program-fav(simpleMapping).sol\":651:675  return NametoNum[_index] */\n      swap1\n      pop\n        /* \"Assignments/program-fav(simpleMapping).sol\":574:684  function retrieve1(string memory _index) public view returns(uint){... */\n      swap2\n      swap1\n      pop\n      jump\t// out\n        /* \"Assignments/program-fav(simpleMapping).sol\":233:373  function add(string memory _name, uint _num)public{... */\n    tag_17:\n        /* \"Assignments/program-fav(simpleMapping).sol\":294:303  favourite */\n      0x01\n        /* \"Assignments/program-fav(simpleMapping).sol\":309:330  Favourite(_name,_num) */\n      mload(0x40)\n      dup1\n      0x40\n      add\n      0x40\n      mstore\n      dup1\n        /* \"Assignments/program-fav(simpleMapping).sol\":319:324  _name */\n      dup5\n        /* \"Assignments/program-fav(simpleMapping).sol\":309:330  Favourite(_name,_num) */\n      dup2\n      mstore\n      0x20\n      add\n        /* \"Assignments/program-fav(simpleMapping).sol\":325:329  _num */\n      dup4\n        /* \"Assignments/program-fav(simpleMapping).sol\":309:330  Favourite(_name,_num) */\n      dup2\n      mstore\n      pop\n        /* \"Assignments/program-fav(simpleMapping).sol\":294:331  favourite.push(Favourite(_name,_num)) */\n      swap1\n      dup1\n      0x01\n      dup2\n      sload\n      add\n      dup1\n      dup3\n      sstore\n      dup1\n      swap2\n      pop\n      pop\n      0x01\n      swap1\n      sub\n      swap1\n      0x00\n      mstore\n      keccak256(0x00, 0x20)\n      swap1\n      0x02\n      mul\n      add\n      0x00\n      swap1\n      swap2\n      swap1\n      swap2\n      swap1\n      swap2\n      pop\n      0x00\n      dup3\n      add\n      mload\n      dup2\n      0x00\n      add\n      swap1\n      dup2\n      tag_37\n      swap2\n      swap1\n      tag_38\n      jump\t// in\n    tag_37:\n      pop\n      0x20\n      dup3\n      add\n      mload\n      dup2\n      0x01\n      add\n      sstore\n      pop\n      pop\n        /* \"Assignments/program-fav(simpleMapping).sol\":361:365  _num */\n      dup1\n        /* \"Assignments/program-fav(simpleMapping).sol\":342:351  NametoNum */\n      0x00\n        /* \"Assignments/program-fav(simpleMapping).sol\":352:357  _name */\n      dup4\n        /* \"Assignments/program-fav(simpleMapping).sol\":342:358  NametoNum[_name] */\n      mload(0x40)\n      tag_39\n      swap2\n      swap1\n      tag_34\n      jump\t// in\n    tag_39:\n      swap1\n      dup2\n      mstore\n      0x20\n      add\n      mload(0x40)\n      dup1\n      swap2\n      sub\n      swap1\n      keccak256\n        /* \"Assignments/program-fav(simpleMapping).sol\":342:365  NametoNum[_name] = _num */\n      dup2\n      swap1\n      sstore\n      pop\n        /* \"Assignments/program-fav(simpleMapping).sol\":233:373  function add(string memory _name, uint _num)public{... */\n      pop\n      pop\n      jump\t// out\n        /* \"Assignments/program-fav(simpleMapping).sol\":198:226  Favourite[] public favourite */\n    tag_21:\n      0x01\n      dup2\n      dup2\n      sload\n      dup2\n      lt\n      tag_40\n      jumpi\n      0x00\n      dup1\n      revert\n    tag_40:\n      swap1\n      0x00\n      mstore\n      keccak256(0x00, 0x20)\n      swap1\n      0x02\n      mul\n      add\n      0x00\n      swap2\n      pop\n      swap1\n      pop\n      dup1\n      0x00\n      add\n      dup1\n      sload\n      tag_42\n      swap1\n      tag_43\n      jump\t// in\n    tag_42:\n      dup1\n      0x1f\n      add\n      0x20\n      dup1\n      swap2\n      div\n      mul\n      0x20\n      add\n      mload(0x40)\n      swap1\n      dup2\n      add\n      0x40\n      mstore\n      dup1\n      swap3\n      swap2\n      swap1\n      dup2\n      dup2\n      mstore\n      0x20\n      add\n      dup3\n      dup1\n      sload\n      tag_44\n      swap1\n      tag_43\n      jump\t// in\n    tag_44:\n      dup1\n      iszero\n      tag_45\n      jumpi\n      dup1\n      0x1f\n      lt\n      tag_46\n      jumpi\n      0x0100\n      dup1\n      dup4\n      sload\n      div\n      mul\n      dup4\n      mstore\n      swap2\n      0x20\n      add\n      swap2\n      jump(tag_45)\n    tag_46:\n      dup3\n      add\n      swap2\n      swap1\n      0x00\n      mstore\n      keccak256(0x00, 0x20)\n      swap1\n    tag_47:\n      dup2\n      sload\n      dup2\n      mstore\n      swap1\n      0x01\n      add\n      swap1\n      0x20\n      add\n      dup1\n      dup4\n      gt\n      tag_47\n      jumpi\n      dup3\n      swap1\n      sub\n      0x1f\n      and\n      dup3\n      add\n      swap2\n    tag_45:\n      pop\n      pop\n      pop\n      pop\n      pop\n      swap1\n      dup1\n      0x01\n      add\n      sload\n      swap1\n      pop\n      dup3\n      jump\t// out\n        /* \"Assignments/program-fav(simpleMapping).sol\":379:568  function retrieve(uint _index) public view returns(string memory , uint){... */\n    tag_26:\n        /* \"Assignments/program-fav(simpleMapping).sol\":430:443  string memory */\n      0x60\n        /* \"Assignments/program-fav(simpleMapping).sol\":446:450  uint */\n      0x00\n        /* \"Assignments/program-fav(simpleMapping).sol\":462:490  Favourite storage favourites */\n      dup1\n        /* \"Assignments/program-fav(simpleMapping).sol\":493:502  favourite */\n      0x01\n        /* \"Assignments/program-fav(simpleMapping).sol\":503:509  _index */\n      dup5\n        /* \"Assignments/program-fav(simpleMapping).sol\":493:510  favourite[_index] */\n      dup2\n      sload\n      dup2\n      lt\n      tag_49\n      jumpi\n      tag_50\n      tag_51\n      jump\t// in\n    tag_50:\n    tag_49:\n      swap1\n      0x00\n      mstore\n      keccak256(0x00, 0x20)\n      swap1\n      0x02\n      mul\n      add\n        /* \"Assignments/program-fav(simpleMapping).sol\":462:510  Favourite storage favourites = favourite[_index] */\n      swap1\n      pop\n        /* \"Assignments/program-fav(simpleMapping).sol\":528:538  favourites */\n      dup1\n        /* \"Assignments/program-fav(simpleMapping).sol\":528:543  favourites.name */\n      0x00\n      add\n        /* \"Assignments/program-fav(simpleMapping).sol\":545:555  favourites */\n      dup2\n        /* \"Assignments/program-fav(simpleMapping).sol\":545:559  favourites.num */\n      0x01\n      add\n      sload\n        /* \"Assignments/program-fav(simpleMapping).sol\":521:560  return(favourites.name, favourites.num) */\n      dup2\n      dup1\n      sload\n      tag_53\n      swap1\n      tag_43\n      jump\t// in\n    tag_53:\n      dup1\n      0x1f\n      add\n      0x20\n      dup1\n      swap2\n      div\n      mul\n      0x20\n      add\n      mload(0x40)\n      swap1\n      dup2\n      add\n      0x40\n      mstore\n      dup1\n      swap3\n      swap2\n      swap1\n      dup2\n      dup2\n      mstore\n      0x20\n      add\n      dup3\n      dup1\n      sload\n      tag_54\n      swap1\n      tag_43\n      jump\t// in\n    tag_54:\n      dup1\n      iszero\n      tag_55\n      jumpi\n      dup1\n      0x1f\n      lt\n      tag_56\n      jumpi\n      0x0100\n      dup1\n      dup4\n      sload\n      div\n      mul\n      dup4\n      mstore\n      swap2\n      0x20\n      add\n      swap2\n      jump(tag_55)\n    tag_56:\n      dup3\n      add\n      swap2\n      swap1\n      0x00\n      mstore\n      keccak256(0x00, 0x20)\n      swap1\n    tag_57:\n      dup2\n      sload\n      dup2\n      mstore\n      swap1\n      0x01\n      add\n      swap1\n      0x20\n      add\n      dup1\n      dup4\n      gt\n      tag_57\n      jumpi\n      dup3\n      swap1\n      sub\n      0x1f\n      and\n      dup3\n      add\n      swap2\n    tag_55:\n      pop\n      pop\n      pop\n      pop\n      pop\n      swap2\n      pop\n      swap3\n      pop\n      swap3\n      pop\n      pop\n        /* \"Assignments/program-fav(simpleMapping).sol\":379:568  function retrieve(uint _index) public view returns(string memory , uint){... */\n      swap2\n      pop\n      swap2\n      jump\t// out\n        /* \"Assignments/program-fav(simpleMapping).sol\":152:191  mapping(string => uint)public NametoNum */\n    tag_30:\n      0x00\n      dup2\n      dup1\n      mload\n      0x20\n      dup2\n      add\n      dup3\n      add\n      dup1\n      mload\n      dup5\n      dup3\n      mstore\n      0x20\n      dup4\n      add\n      0x20\n      dup6\n      add\n      keccak256\n      dup2\n      dup4\n      mstore\n      dup1\n      swap6\n      pop\n      pop\n      pop\n      pop\n      pop\n      pop\n      0x00\n      swap2\n      pop\n      swap1\n      pop\n      sload\n      dup2\n      jump\t// out\n        /* \"#utility.yul\":7:82   */\n    tag_58:\n        /* \"#utility.yul\":40:46   */\n      0x00\n        /* \"#utility.yul\":73:75   */\n      0x40\n        /* \"#utility.yul\":67:76   */\n      mload\n        /* \"#utility.yul\":57:76   */\n      swap1\n      pop\n        /* \"#utility.yul\":7:82   */\n      swap1\n      jump\t// out\n        /* \"#utility.yul\":88:205   */\n    tag_59:\n        /* \"#utility.yul\":197:198   */\n      0x00\n        /* \"#utility.yul\":194:195   */\n      dup1\n        /* \"#utility.yul\":187:199   */\n      revert\n        /* \"#utility.yul\":211:328   */\n    tag_60:\n        /* \"#utility.yul\":320:321   */\n      0x00\n        /* \"#utility.yul\":317:318   */\n      dup1\n        /* \"#utility.yul\":310:322   */\n      revert\n        /* \"#utility.yul\":334:451   */\n    tag_61:\n        /* \"#utility.yul\":443:444   */\n      0x00\n        /* \"#utility.yul\":440:441   */\n      dup1\n        /* \"#utility.yul\":433:445   */\n      revert\n        /* \"#utility.yul\":457:574   */\n    tag_62:\n        /* \"#utility.yul\":566:567   */\n      0x00\n        /* \"#utility.yul\":563:564   */\n      dup1\n        /* \"#utility.yul\":556:568   */\n      revert\n        /* \"#utility.yul\":580:682   */\n    tag_63:\n        /* \"#utility.yul\":621:627   */\n      0x00\n        /* \"#utility.yul\":672:674   */\n      0x1f\n        /* \"#utility.yul\":668:675   */\n      not\n        /* \"#utility.yul\":663:665   */\n      0x1f\n        /* \"#utility.yul\":656:661   */\n      dup4\n        /* \"#utility.yul\":652:666   */\n      add\n        /* \"#utility.yul\":648:676   */\n      and\n        /* \"#utility.yul\":638:676   */\n      swap1\n      pop\n        /* \"#utility.yul\":580:682   */\n      swap2\n      swap1\n      pop\n      jump\t// out\n        /* \"#utility.yul\":688:868   */\n    tag_64:\n        /* \"#utility.yul\":736:813   */\n      0x4e487b7100000000000000000000000000000000000000000000000000000000\n        /* \"#utility.yul\":733:734   */\n      0x00\n        /* \"#utility.yul\":726:814   */\n      mstore\n        /* \"#utility.yul\":833:837   */\n      0x41\n        /* \"#utility.yul\":830:831   */\n      0x04\n        /* \"#utility.yul\":823:838   */\n      mstore\n        /* \"#utility.yul\":857:861   */\n      0x24\n        /* \"#utility.yul\":854:855   */\n      0x00\n        /* \"#utility.yul\":847:862   */\n      revert\n        /* \"#utility.yul\":874:1155   */\n    tag_65:\n        /* \"#utility.yul\":957:984   */\n      tag_106\n        /* \"#utility.yul\":979:983   */\n      dup3\n        /* \"#utility.yul\":957:984   */\n      tag_63\n      jump\t// in\n    tag_106:\n        /* \"#utility.yul\":949:955   */\n      dup2\n        /* \"#utility.yul\":945:985   */\n      add\n        /* \"#utility.yul\":1087:1093   */\n      dup2\n        /* \"#utility.yul\":1075:1085   */\n      dup2\n        /* \"#utility.yul\":1072:1094   */\n      lt\n        /* \"#utility.yul\":1051:1069   */\n      0xffffffffffffffff\n        /* \"#utility.yul\":1039:1049   */\n      dup3\n        /* \"#utility.yul\":1036:1070   */\n      gt\n        /* \"#utility.yul\":1033:1095   */\n      or\n        /* \"#utility.yul\":1030:1118   */\n      iszero\n      tag_107\n      jumpi\n        /* \"#utility.yul\":1098:1116   */\n      tag_108\n      tag_64\n      jump\t// in\n    tag_108:\n        /* \"#utility.yul\":1030:1118   */\n    tag_107:\n        /* \"#utility.yul\":1138:1148   */\n      dup1\n        /* \"#utility.yul\":1134:1136   */\n      0x40\n        /* \"#utility.yul\":1127:1149   */\n      mstore\n        /* \"#utility.yul\":917:1155   */\n      pop\n        /* \"#utility.yul\":874:1155   */\n      pop\n      pop\n      jump\t// out\n        /* \"#utility.yul\":1161:1290   */\n    tag_66:\n        /* \"#utility.yul\":1195:1201   */\n      0x00\n        /* \"#utility.yul\":1222:1242   */\n      tag_110\n      tag_58\n      jump\t// in\n    tag_110:\n        /* \"#utility.yul\":1212:1242   */\n      swap1\n      pop\n        /* \"#utility.yul\":1251:1284   */\n      tag_111\n        /* \"#utility.yul\":1279:1283   */\n      dup3\n        /* \"#utility.yul\":1271:1277   */\n      dup3\n        /* \"#utility.yul\":1251:1284   */\n      tag_65\n      jump\t// in\n    tag_111:\n        /* \"#utility.yul\":1161:1290   */\n      swap2\n      swap1\n      pop\n      jump\t// out\n        /* \"#utility.yul\":1296:1604   */\n    tag_67:\n        /* \"#utility.yul\":1358:1362   */\n      0x00\n        /* \"#utility.yul\":1448:1466   */\n      0xffffffffffffffff\n        /* \"#utility.yul\":1440:1446   */\n      dup3\n        /* \"#utility.yul\":1437:1467   */\n      gt\n        /* \"#utility.yul\":1434:1490   */\n      iszero\n      tag_113\n      jumpi\n        /* \"#utility.yul\":1470:1488   */\n      tag_114\n      tag_64\n      jump\t// in\n    tag_114:\n        /* \"#utility.yul\":1434:1490   */\n    tag_113:\n        /* \"#utility.yul\":1508:1537   */\n      tag_115\n        /* \"#utility.yul\":1530:1536   */\n      dup3\n        /* \"#utility.yul\":1508:1537   */\n      tag_63\n      jump\t// in\n    tag_115:\n        /* \"#utility.yul\":1500:1537   */\n      swap1\n      pop\n        /* \"#utility.yul\":1592:1596   */\n      0x20\n        /* \"#utility.yul\":1586:1590   */\n      dup2\n        /* \"#utility.yul\":1582:1597   */\n      add\n        /* \"#utility.yul\":1574:1597   */\n      swap1\n      pop\n        /* \"#utility.yul\":1296:1604   */\n      swap2\n      swap1\n      pop\n      jump\t// out\n        /* \"#utility.yul\":1610:1758   */\n    tag_68:\n        /* \"#utility.yul\":1708:1714   */\n      dup3\n        /* \"#utility.yul\":1703:1706   */\n      dup2\n        /* \"#utility.yul\":1698:1701   */\n      dup4\n        /* \"#utility.yul\":1685:1715   */\n      calldatacopy\n        /* \"#utility.yul\":1749:1750   */\n      0x00\n        /* \"#utility.yul\":1740:1746   */\n      dup4\n        /* \"#utility.yul\":1735:1738   */\n      dup4\n        /* \"#utility.yul\":1731:1747   */\n      add\n        /* \"#utility.yul\":1724:1751   */\n      mstore\n        /* \"#utility.yul\":1610:1758   */\n      pop\n      pop\n      pop\n      jump\t// out\n        /* \"#utility.yul\":1764:2189   */\n    tag_69:\n        /* \"#utility.yul\":1842:1847   */\n      0x00\n        /* \"#utility.yul\":1867:1933   */\n      tag_118\n        /* \"#utility.yul\":1883:1932   */\n      tag_119\n        /* \"#utility.yul\":1925:1931   */\n      dup5\n        /* \"#utility.yul\":1883:1932   */\n      tag_67\n      jump\t// in\n    tag_119:\n        /* \"#utility.yul\":1867:1933   */\n      tag_66\n      jump\t// in\n    tag_118:\n        /* \"#utility.yul\":1858:1933   */\n      swap1\n      pop\n        /* \"#utility.yul\":1956:1962   */\n      dup3\n        /* \"#utility.yul\":1949:1954   */\n      dup2\n        /* \"#utility.yul\":1942:1963   */\n      mstore\n        /* \"#utility.yul\":1994:1998   */\n      0x20\n        /* \"#utility.yul\":1987:1992   */\n      dup2\n        /* \"#utility.yul\":1983:1999   */\n      add\n        /* \"#utility.yul\":2032:2035   */\n      dup5\n        /* \"#utility.yul\":2023:2029   */\n      dup5\n        /* \"#utility.yul\":2018:2021   */\n      dup5\n        /* \"#utility.yul\":2014:2030   */\n      add\n        /* \"#utility.yul\":2011:2036   */\n      gt\n        /* \"#utility.yul\":2008:2120   */\n      iszero\n      tag_120\n      jumpi\n        /* \"#utility.yul\":2039:2118   */\n      tag_121\n      tag_62\n      jump\t// in\n    tag_121:\n        /* \"#utility.yul\":2008:2120   */\n    tag_120:\n        /* \"#utility.yul\":2129:2183   */\n      tag_122\n        /* \"#utility.yul\":2176:2182   */\n      dup5\n        /* \"#utility.yul\":2171:2174   */\n      dup3\n        /* \"#utility.yul\":2166:2169   */\n      dup6\n        /* \"#utility.yul\":2129:2183   */\n      tag_68\n      jump\t// in\n    tag_122:\n        /* \"#utility.yul\":1848:2189   */\n      pop\n        /* \"#utility.yul\":1764:2189   */\n      swap4\n      swap3\n      pop\n      pop\n      pop\n      jump\t// out\n        /* \"#utility.yul\":2209:2549   */\n    tag_70:\n        /* \"#utility.yul\":2265:2270   */\n      0x00\n        /* \"#utility.yul\":2314:2317   */\n      dup3\n        /* \"#utility.yul\":2307:2311   */\n      0x1f\n        /* \"#utility.yul\":2299:2305   */\n      dup4\n        /* \"#utility.yul\":2295:2312   */\n      add\n        /* \"#utility.yul\":2291:2318   */\n      slt\n        /* \"#utility.yul\":2281:2403   */\n      tag_124\n      jumpi\n        /* \"#utility.yul\":2322:2401   */\n      tag_125\n      tag_61\n      jump\t// in\n    tag_125:\n        /* \"#utility.yul\":2281:2403   */\n    tag_124:\n        /* \"#utility.yul\":2439:2445   */\n      dup2\n        /* \"#utility.yul\":2426:2446   */\n      calldataload\n        /* \"#utility.yul\":2464:2543   */\n      tag_126\n        /* \"#utility.yul\":2539:2542   */\n      dup5\n        /* \"#utility.yul\":2531:2537   */\n      dup3\n        /* \"#utility.yul\":2524:2528   */\n      0x20\n        /* \"#utility.yul\":2516:2522   */\n      dup7\n        /* \"#utility.yul\":2512:2529   */\n      add\n        /* \"#utility.yul\":2464:2543   */\n      tag_69\n      jump\t// in\n    tag_126:\n        /* \"#utility.yul\":2455:2543   */\n      swap2\n      pop\n        /* \"#utility.yul\":2271:2549   */\n      pop\n        /* \"#utility.yul\":2209:2549   */\n      swap3\n      swap2\n      pop\n      pop\n      jump\t// out\n        /* \"#utility.yul\":2555:3064   */\n    tag_10:\n        /* \"#utility.yul\":2624:2630   */\n      0x00\n        /* \"#utility.yul\":2673:2675   */\n      0x20\n        /* \"#utility.yul\":2661:2670   */\n      dup3\n        /* \"#utility.yul\":2652:2659   */\n      dup5\n        /* \"#utility.yul\":2648:2671   */\n      sub\n        /* \"#utility.yul\":2644:2676   */\n      slt\n        /* \"#utility.yul\":2641:2760   */\n      iszero\n      tag_128\n      jumpi\n        /* \"#utility.yul\":2679:2758   */\n      tag_129\n      tag_59\n      jump\t// in\n    tag_129:\n        /* \"#utility.yul\":2641:2760   */\n    tag_128:\n        /* \"#utility.yul\":2827:2828   */\n      0x00\n        /* \"#utility.yul\":2816:2825   */\n      dup3\n        /* \"#utility.yul\":2812:2829   */\n      add\n        /* \"#utility.yul\":2799:2830   */\n      calldataload\n        /* \"#utility.yul\":2857:2875   */\n      0xffffffffffffffff\n        /* \"#utility.yul\":2849:2855   */\n      dup2\n        /* \"#utility.yul\":2846:2876   */\n      gt\n        /* \"#utility.yul\":2843:2960   */\n      iszero\n      tag_130\n      jumpi\n        /* \"#utility.yul\":2879:2958   */\n      tag_131\n      tag_60\n      jump\t// in\n    tag_131:\n        /* \"#utility.yul\":2843:2960   */\n    tag_130:\n        /* \"#utility.yul\":2984:3047   */\n      tag_132\n        /* \"#utility.yul\":3039:3046   */\n      dup5\n        /* \"#utility.yul\":3030:3036   */\n      dup3\n        /* \"#utility.yul\":3019:3028   */\n      dup6\n        /* \"#utility.yul\":3015:3037   */\n      add\n        /* \"#utility.yul\":2984:3047   */\n      tag_70\n      jump\t// in\n    tag_132:\n        /* \"#utility.yul\":2974:3047   */\n      swap2\n      pop\n        /* \"#utility.yul\":2770:3057   */\n      pop\n        /* \"#utility.yul\":2555:3064   */\n      swap3\n      swap2\n      pop\n      pop\n      jump\t// out\n        /* \"#utility.yul\":3070:3147   */\n    tag_71:\n        /* \"#utility.yul\":3107:3114   */\n      0x00\n        /* \"#utility.yul\":3136:3141   */\n      dup2\n        /* \"#utility.yul\":3125:3141   */\n      swap1\n      pop\n        /* \"#utility.yul\":3070:3147   */\n      swap2\n      swap1\n      pop\n      jump\t// out\n        /* \"#utility.yul\":3153:3271   */\n    tag_72:\n        /* \"#utility.yul\":3240:3264   */\n      tag_135\n        /* \"#utility.yul\":3258:3263   */\n      dup2\n        /* \"#utility.yul\":3240:3264   */\n      tag_71\n      jump\t// in\n    tag_135:\n        /* \"#utility.yul\":3235:3238   */\n      dup3\n        /* \"#utility.yul\":3228:3265   */\n      mstore\n        /* \"#utility.yul\":3153:3271   */\n      pop\n      pop\n      jump\t// out\n        /* \"#utility.yul\":3277:3499   */\n    tag_13:\n        /* \"#utility.yul\":3370:3374   */\n      0x00\n        /* \"#utility.yul\":3408:3410   */\n      0x20\n        /* \"#utility.yul\":3397:3406   */\n      dup3\n        /* \"#utility.yul\":3393:3411   */\n      add\n        /* \"#utility.yul\":3385:3411   */\n      swap1\n      pop\n        /* \"#utility.yul\":3421:3492   */\n      tag_137\n        /* \"#utility.yul\":3489:3490   */\n      0x00\n        /* \"#utility.yul\":3478:3487   */\n      dup4\n        /* \"#utility.yul\":3474:3491   */\n      add\n        /* \"#utility.yul\":3465:3471   */\n      dup5\n        /* \"#utility.yul\":3421:3492   */\n      tag_72\n      jump\t// in\n    tag_137:\n        /* \"#utility.yul\":3277:3499   */\n      swap3\n      swap2\n      pop\n      pop\n      jump\t// out\n        /* \"#utility.yul\":3505:3627   */\n    tag_73:\n        /* \"#utility.yul\":3578:3602   */\n      tag_139\n        /* \"#utility.yul\":3596:3601   */\n      dup2\n        /* \"#utility.yul\":3578:3602   */\n      tag_71\n      jump\t// in\n    tag_139:\n        /* \"#utility.yul\":3571:3576   */\n      dup2\n        /* \"#utility.yul\":3568:3603   */\n      eq\n        /* \"#utility.yul\":3558:3621   */\n      tag_140\n      jumpi\n        /* \"#utility.yul\":3617:3618   */\n      0x00\n        /* \"#utility.yul\":3614:3615   */\n      dup1\n        /* \"#utility.yul\":3607:3619   */\n      revert\n        /* \"#utility.yul\":3558:3621   */\n    tag_140:\n        /* \"#utility.yul\":3505:3627   */\n      pop\n      jump\t// out\n        /* \"#utility.yul\":3633:3772   */\n    tag_74:\n        /* \"#utility.yul\":3679:3684   */\n      0x00\n        /* \"#utility.yul\":3717:3723   */\n      dup2\n        /* \"#utility.yul\":3704:3724   */\n      calldataload\n        /* \"#utility.yul\":3695:3724   */\n      swap1\n      pop\n        /* \"#utility.yul\":3733:3766   */\n      tag_142\n        /* \"#utility.yul\":3760:3765   */\n      dup2\n        /* \"#utility.yul\":3733:3766   */\n      tag_73\n      jump\t// in\n    tag_142:\n        /* \"#utility.yul\":3633:3772   */\n      swap3\n      swap2\n      pop\n      pop\n      jump\t// out\n        /* \"#utility.yul\":3778:4432   */\n    tag_16:\n        /* \"#utility.yul\":3856:3862   */\n      0x00\n        /* \"#utility.yul\":3864:3870   */\n      dup1\n        /* \"#utility.yul\":3913:3915   */\n      0x40\n        /* \"#utility.yul\":3901:3910   */\n      dup4\n        /* \"#utility.yul\":3892:3899   */\n      dup6\n        /* \"#utility.yul\":3888:3911   */\n      sub\n        /* \"#utility.yul\":3884:3916   */\n      slt\n        /* \"#utility.yul\":3881:4000   */\n      iszero\n      tag_144\n      jumpi\n        /* \"#utility.yul\":3919:3998   */\n      tag_145\n      tag_59\n      jump\t// in\n    tag_145:\n        /* \"#utility.yul\":3881:4000   */\n    tag_144:\n        /* \"#utility.yul\":4067:4068   */\n      0x00\n        /* \"#utility.yul\":4056:4065   */\n      dup4\n        /* \"#utility.yul\":4052:4069   */\n      add\n        /* \"#utility.yul\":4039:4070   */\n      calldataload\n        /* \"#utility.yul\":4097:4115   */\n      0xffffffffffffffff\n        /* \"#utility.yul\":4089:4095   */\n      dup2\n        /* \"#utility.yul\":4086:4116   */\n      gt\n        /* \"#utility.yul\":4083:4200   */\n      iszero\n      tag_146\n      jumpi\n        /* \"#utility.yul\":4119:4198   */\n      tag_147\n      tag_60\n      jump\t// in\n    tag_147:\n        /* \"#utility.yul\":4083:4200   */\n    tag_146:\n        /* \"#utility.yul\":4224:4287   */\n      tag_148\n        /* \"#utility.yul\":4279:4286   */\n      dup6\n        /* \"#utility.yul\":4270:4276   */\n      dup3\n        /* \"#utility.yul\":4259:4268   */\n      dup7\n        /* \"#utility.yul\":4255:4277   */\n      add\n        /* \"#utility.yul\":4224:4287   */\n      tag_70\n      jump\t// in\n    tag_148:\n        /* \"#utility.yul\":4214:4287   */\n      swap3\n      pop\n        /* \"#utility.yul\":4010:4297   */\n      pop\n        /* \"#utility.yul\":4336:4338   */\n      0x20\n        /* \"#utility.yul\":4362:4415   */\n      tag_149\n        /* \"#utility.yul\":4407:4414   */\n      dup6\n        /* \"#utility.yul\":4398:4404   */\n      dup3\n        /* \"#utility.yul\":4387:4396   */\n      dup7\n        /* \"#utility.yul\":4383:4405   */\n      add\n        /* \"#utility.yul\":4362:4415   */\n      tag_74\n      jump\t// in\n    tag_149:\n        /* \"#utility.yul\":4352:4415   */\n      swap2\n      pop\n        /* \"#utility.yul\":4307:4425   */\n      pop\n        /* \"#utility.yul\":3778:4432   */\n      swap3\n      pop\n      swap3\n      swap1\n      pop\n      jump\t// out\n        /* \"#utility.yul\":4438:4767   */\n    tag_20:\n        /* \"#utility.yul\":4497:4503   */\n      0x00\n        /* \"#utility.yul\":4546:4548   */\n      0x20\n        /* \"#utility.yul\":4534:4543   */\n      dup3\n        /* \"#utility.yul\":4525:4532   */\n      dup5\n        /* \"#utility.yul\":4521:4544   */\n      sub\n        /* \"#utility.yul\":4517:4549   */\n      slt\n        /* \"#utility.yul\":4514:4633   */\n      iszero\n      tag_151\n      jumpi\n        /* \"#utility.yul\":4552:4631   */\n      tag_152\n      tag_59\n      jump\t// in\n    tag_152:\n        /* \"#utility.yul\":4514:4633   */\n    tag_151:\n        /* \"#utility.yul\":4672:4673   */\n      0x00\n        /* \"#utility.yul\":4697:4750   */\n      tag_153\n        /* \"#utility.yul\":4742:4749   */\n      dup5\n        /* \"#utility.yul\":4733:4739   */\n      dup3\n        /* \"#utility.yul\":4722:4731   */\n      dup6\n        /* \"#utility.yul\":4718:4740   */\n      add\n        /* \"#utility.yul\":4697:4750   */\n      tag_74\n      jump\t// in\n    tag_153:\n        /* \"#utility.yul\":4687:4750   */\n      swap2\n      pop\n        /* \"#utility.yul\":4643:4760   */\n      pop\n        /* \"#utility.yul\":4438:4767   */\n      swap3\n      swap2\n      pop\n      pop\n      jump\t// out\n        /* \"#utility.yul\":4773:4872   */\n    tag_75:\n        /* \"#utility.yul\":4825:4831   */\n      0x00\n        /* \"#utility.yul\":4859:4864   */\n      dup2\n        /* \"#utility.yul\":4853:4865   */\n      mload\n        /* \"#utility.yul\":4843:4865   */\n      swap1\n      pop\n        /* \"#utility.yul\":4773:4872   */\n      swap2\n      swap1\n      pop\n      jump\t// out\n        /* \"#utility.yul\":4878:5047   */\n    tag_76:\n        /* \"#utility.yul\":4962:4973   */\n      0x00\n        /* \"#utility.yul\":4996:5002   */\n      dup3\n        /* \"#utility.yul\":4991:4994   */\n      dup3\n        /* \"#utility.yul\":4984:5003   */\n      mstore\n        /* \"#utility.yul\":5036:5040   */\n      0x20\n        /* \"#utility.yul\":5031:5034   */\n      dup3\n        /* \"#utility.yul\":5027:5041   */\n      add\n        /* \"#utility.yul\":5012:5041   */\n      swap1\n      pop\n        /* \"#utility.yul\":4878:5047   */\n      swap3\n      swap2\n      pop\n      pop\n      jump\t// out\n        /* \"#utility.yul\":5053:5192   */\n    tag_77:\n        /* \"#utility.yul\":5142:5148   */\n      dup3\n        /* \"#utility.yul\":5137:5140   */\n      dup2\n        /* \"#utility.yul\":5132:5135   */\n      dup4\n        /* \"#utility.yul\":5126:5149   */\n      mcopy\n        /* \"#utility.yul\":5183:5184   */\n      0x00\n        /* \"#utility.yul\":5174:5180   */\n      dup4\n        /* \"#utility.yul\":5169:5172   */\n      dup4\n        /* \"#utility.yul\":5165:5181   */\n      add\n        /* \"#utility.yul\":5158:5185   */\n      mstore\n        /* \"#utility.yul\":5053:5192   */\n      pop\n      pop\n      pop\n      jump\t// out\n        /* \"#utility.yul\":5198:5575   */\n    tag_78:\n        /* \"#utility.yul\":5286:5289   */\n      0x00\n        /* \"#utility.yul\":5314:5353   */\n      tag_158\n        /* \"#utility.yul\":5347:5352   */\n      dup3\n        /* \"#utility.yul\":5314:5353   */\n      tag_75\n      jump\t// in\n    tag_158:\n        /* \"#utility.yul\":5369:5440   */\n      tag_159\n        /* \"#utility.yul\":5433:5439   */\n      dup2\n        /* \"#utility.yul\":5428:5431   */\n      dup6\n        /* \"#utility.yul\":5369:5440   */\n      tag_76\n      jump\t// in\n    tag_159:\n        /* \"#utility.yul\":5362:5440   */\n      swap4\n      pop\n        /* \"#utility.yul\":5449:5514   */\n      tag_160\n        /* \"#utility.yul\":5507:5513   */\n      dup2\n        /* \"#utility.yul\":5502:5505   */\n      dup6\n        /* \"#utility.yul\":5495:5499   */\n      0x20\n        /* \"#utility.yul\":5488:5493   */\n      dup7\n        /* \"#utility.yul\":5484:5500   */\n      add\n        /* \"#utility.yul\":5449:5514   */\n      tag_77\n      jump\t// in\n    tag_160:\n        /* \"#utility.yul\":5539:5568   */\n      tag_161\n        /* \"#utility.yul\":5561:5567   */\n      dup2\n        /* \"#utility.yul\":5539:5568   */\n      tag_63\n      jump\t// in\n    tag_161:\n        /* \"#utility.yul\":5534:5537   */\n      dup5\n        /* \"#utility.yul\":5530:5569   */\n      add\n        /* \"#utility.yul\":5523:5569   */\n      swap2\n      pop\n        /* \"#utility.yul\":5290:5575   */\n      pop\n        /* \"#utility.yul\":5198:5575   */\n      swap3\n      swap2\n      pop\n      pop\n      jump\t// out\n        /* \"#utility.yul\":5581:6004   */\n    tag_23:\n        /* \"#utility.yul\":5722:5726   */\n      0x00\n        /* \"#utility.yul\":5760:5762   */\n      0x40\n        /* \"#utility.yul\":5749:5758   */\n      dup3\n        /* \"#utility.yul\":5745:5763   */\n      add\n        /* \"#utility.yul\":5737:5763   */\n      swap1\n      pop\n        /* \"#utility.yul\":5809:5818   */\n      dup2\n        /* \"#utility.yul\":5803:5807   */\n      dup2\n        /* \"#utility.yul\":5799:5819   */\n      sub\n        /* \"#utility.yul\":5795:5796   */\n      0x00\n        /* \"#utility.yul\":5784:5793   */\n      dup4\n        /* \"#utility.yul\":5780:5797   */\n      add\n        /* \"#utility.yul\":5773:5820   */\n      mstore\n        /* \"#utility.yul\":5837:5915   */\n      tag_163\n        /* \"#utility.yul\":5910:5914   */\n      dup2\n        /* \"#utility.yul\":5901:5907   */\n      dup6\n        /* \"#utility.yul\":5837:5915   */\n      tag_78\n      jump\t// in\n    tag_163:\n        /* \"#utility.yul\":5829:5915   */\n      swap1\n      pop\n        /* \"#utility.yul\":5925:5997   */\n      tag_164\n        /* \"#utility.yul\":5993:5995   */\n      0x20\n        /* \"#utility.yul\":5982:5991   */\n      dup4\n        /* \"#utility.yul\":5978:5996   */\n      add\n        /* \"#utility.yul\":5969:5975   */\n      dup5\n        /* \"#utility.yul\":5925:5997   */\n      tag_72\n      jump\t// in\n    tag_164:\n        /* \"#utility.yul\":5581:6004   */\n      swap4\n      swap3\n      pop\n      pop\n      pop\n      jump\t// out\n        /* \"#utility.yul\":6010:6158   */\n    tag_79:\n        /* \"#utility.yul\":6112:6123   */\n      0x00\n        /* \"#utility.yul\":6149:6152   */\n      dup2\n        /* \"#utility.yul\":6134:6152   */\n      swap1\n      pop\n        /* \"#utility.yul\":6010:6158   */\n      swap3\n      swap2\n      pop\n      pop\n      jump\t// out\n        /* \"#utility.yul\":6164:6554   */\n    tag_80:\n        /* \"#utility.yul\":6270:6273   */\n      0x00\n        /* \"#utility.yul\":6298:6337   */\n      tag_167\n        /* \"#utility.yul\":6331:6336   */\n      dup3\n        /* \"#utility.yul\":6298:6337   */\n      tag_75\n      jump\t// in\n    tag_167:\n        /* \"#utility.yul\":6353:6442   */\n      tag_168\n        /* \"#utility.yul\":6435:6441   */\n      dup2\n        /* \"#utility.yul\":6430:6433   */\n      dup6\n        /* \"#utility.yul\":6353:6442   */\n      tag_79\n      jump\t// in\n    tag_168:\n        /* \"#utility.yul\":6346:6442   */\n      swap4\n      pop\n        /* \"#utility.yul\":6451:6516   */\n      tag_169\n        /* \"#utility.yul\":6509:6515   */\n      dup2\n        /* \"#utility.yul\":6504:6507   */\n      dup6\n        /* \"#utility.yul\":6497:6501   */\n      0x20\n        /* \"#utility.yul\":6490:6495   */\n      dup7\n        /* \"#utility.yul\":6486:6502   */\n      add\n        /* \"#utility.yul\":6451:6516   */\n      tag_77\n      jump\t// in\n    tag_169:\n        /* \"#utility.yul\":6541:6547   */\n      dup1\n        /* \"#utility.yul\":6536:6539   */\n      dup5\n        /* \"#utility.yul\":6532:6548   */\n      add\n        /* \"#utility.yul\":6525:6548   */\n      swap2\n      pop\n        /* \"#utility.yul\":6274:6554   */\n      pop\n        /* \"#utility.yul\":6164:6554   */\n      swap3\n      swap2\n      pop\n      pop\n      jump\t// out\n        /* \"#utility.yul\":6560:6835   */\n    tag_34:\n        /* \"#utility.yul\":6692:6695   */\n      0x00\n        /* \"#utility.yul\":6714:6809   */\n      tag_171\n        /* \"#utility.yul\":6805:6808   */\n      dup3\n        /* \"#utility.yul\":6796:6802   */\n      dup5\n        /* \"#utility.yul\":6714:6809   */\n      tag_80\n      jump\t// in\n    tag_171:\n        /* \"#utility.yul\":6707:6809   */\n      swap2\n      pop\n        /* \"#utility.yul\":6826:6829   */\n      dup2\n        /* \"#utility.yul\":6819:6829   */\n      swap1\n      pop\n        /* \"#utility.yul\":6560:6835   */\n      swap3\n      swap2\n      pop\n      pop\n      jump\t// out\n        /* \"#utility.yul\":6841:7021   */\n    tag_81:\n        /* \"#utility.yul\":6889:6966   */\n      0x4e487b7100000000000000000000000000000000000000000000000000000000\n        /* \"#utility.yul\":6886:6887   */\n      0x00\n        /* \"#utility.yul\":6879:6967   */\n      mstore\n        /* \"#utility.yul\":6986:6990   */\n      0x22\n        /* \"#utility.yul\":6983:6984   */\n      0x04\n        /* \"#utility.yul\":6976:6991   */\n      mstore\n        /* \"#utility.yul\":7010:7014   */\n      0x24\n        /* \"#utility.yul\":7007:7008   */\n      0x00\n        /* \"#utility.yul\":7000:7015   */\n      revert\n        /* \"#utility.yul\":7027:7347   */\n    tag_43:\n        /* \"#utility.yul\":7071:7077   */\n      0x00\n        /* \"#utility.yul\":7108:7109   */\n      0x02\n        /* \"#utility.yul\":7102:7106   */\n      dup3\n        /* \"#utility.yul\":7098:7110   */\n      div\n        /* \"#utility.yul\":7088:7110   */\n      swap1\n      pop\n        /* \"#utility.yul\":7155:7156   */\n      0x01\n        /* \"#utility.yul\":7149:7153   */\n      dup3\n        /* \"#utility.yul\":7145:7157   */\n      and\n        /* \"#utility.yul\":7176:7194   */\n      dup1\n        /* \"#utility.yul\":7166:7247   */\n      tag_174\n      jumpi\n        /* \"#utility.yul\":7232:7236   */\n      0x7f\n        /* \"#utility.yul\":7224:7230   */\n      dup3\n        /* \"#utility.yul\":7220:7237   */\n      and\n        /* \"#utility.yul\":7210:7237   */\n      swap2\n      pop\n        /* \"#utility.yul\":7166:7247   */\n    tag_174:\n        /* \"#utility.yul\":7294:7296   */\n      0x20\n        /* \"#utility.yul\":7286:7292   */\n      dup3\n        /* \"#utility.yul\":7283:7297   */\n      lt\n        /* \"#utility.yul\":7263:7281   */\n      dup2\n        /* \"#utility.yul\":7260:7298   */\n      sub\n        /* \"#utility.yul\":7257:7341   */\n      tag_175\n      jumpi\n        /* \"#utility.yul\":7313:7331   */\n      tag_176\n      tag_81\n      jump\t// in\n    tag_176:\n        /* \"#utility.yul\":7257:7341   */\n    tag_175:\n        /* \"#utility.yul\":7078:7347   */\n      pop\n        /* \"#utility.yul\":7027:7347   */\n      swap2\n      swap1\n      pop\n      jump\t// out\n        /* \"#utility.yul\":7353:7494   */\n    tag_82:\n        /* \"#utility.yul\":7402:7406   */\n      0x00\n        /* \"#utility.yul\":7425:7428   */\n      dup2\n        /* \"#utility.yul\":7417:7428   */\n      swap1\n      pop\n        /* \"#utility.yul\":7448:7451   */\n      dup2\n        /* \"#utility.yul\":7445:7446   */\n      0x00\n        /* \"#utility.yul\":7438:7452   */\n      mstore\n        /* \"#utility.yul\":7482:7486   */\n      0x20\n        /* \"#utility.yul\":7479:7480   */\n      0x00\n        /* \"#utility.yul\":7469:7487   */\n      keccak256\n        /* \"#utility.yul\":7461:7487   */\n      swap1\n      pop\n        /* \"#utility.yul\":7353:7494   */\n      swap2\n      swap1\n      pop\n      jump\t// out\n        /* \"#utility.yul\":7500:7593   */\n    tag_83:\n        /* \"#utility.yul\":7537:7543   */\n      0x00\n        /* \"#utility.yul\":7584:7586   */\n      0x20\n        /* \"#utility.yul\":7579:7581   */\n      0x1f\n        /* \"#utility.yul\":7572:7577   */\n      dup4\n        /* \"#utility.yul\":7568:7582   */\n      add\n        /* \"#utility.yul\":7564:7587   */\n      div\n        /* \"#utility.yul\":7554:7587   */\n      swap1\n      pop\n        /* \"#utility.yul\":7500:7593   */\n      swap2\n      swap1\n      pop\n      jump\t// out\n        /* \"#utility.yul\":7599:7706   */\n    tag_84:\n        /* \"#utility.yul\":7643:7651   */\n      0x00\n        /* \"#utility.yul\":7693:7698   */\n      dup3\n        /* \"#utility.yul\":7687:7691   */\n      dup3\n        /* \"#utility.yul\":7683:7699   */\n      shl\n        /* \"#utility.yul\":7662:7699   */\n      swap1\n      pop\n        /* \"#utility.yul\":7599:7706   */\n      swap3\n      swap2\n      pop\n      pop\n      jump\t// out\n        /* \"#utility.yul\":7712:8105   */\n    tag_85:\n        /* \"#utility.yul\":7781:7787   */\n      0x00\n        /* \"#utility.yul\":7831:7832   */\n      0x08\n        /* \"#utility.yul\":7819:7829   */\n      dup4\n        /* \"#utility.yul\":7815:7833   */\n      mul\n        /* \"#utility.yul\":7854:7951   */\n      tag_181\n        /* \"#utility.yul\":7884:7950   */\n      0xffffffffffffffffffffffffffffffffffffffffffffffffffffffffffffffff\n        /* \"#utility.yul\":7873:7882   */\n      dup3\n        /* \"#utility.yul\":7854:7951   */\n      tag_84\n      jump\t// in\n    tag_181:\n        /* \"#utility.yul\":7972:8011   */\n      tag_182\n        /* \"#utility.yul\":8002:8010   */\n      dup7\n        /* \"#utility.yul\":7991:8000   */\n      dup4\n        /* \"#utility.yul\":7972:8011   */\n      tag_84\n      jump\t// in\n    tag_182:\n        /* \"#utility.yul\":7960:8011   */\n      swap6\n      pop\n        /* \"#utility.yul\":8044:8048   */\n      dup1\n        /* \"#utility.yul\":8040:8049   */\n      not\n        /* \"#utility.yul\":8033:8038   */\n      dup5\n        /* \"#utility.yul\":8029:8050   */\n      and\n        /* \"#utility.yul\":8020:8050   */\n      swap4\n      pop\n        /* \"#utility.yul\":8093:8097   */\n      dup1\n        /* \"#utility.yul\":8083:8091   */\n      dup7\n        /* \"#utility.yul\":8079:8098   */\n      and\n        /* \"#utility.yul\":8072:8077   */\n      dup5\n        /* \"#utility.yul\":8069:8099   */\n      or\n        /* \"#utility.yul\":8059:8099   */\n      swap3\n      pop\n        /* \"#utility.yul\":7788:8105   */\n      pop\n      pop\n        /* \"#utility.yul\":7712:8105   */\n      swap4\n      swap3\n      pop\n      pop\n      pop\n      jump\t// out\n        /* \"#utility.yul\":8111:8171   */\n    tag_86:\n        /* \"#utility.yul\":8139:8142   */\n      0x00\n        /* \"#utility.yul\":8160:8165   */\n      dup2\n        /* \"#utility.yul\":8153:8165   */\n      swap1\n      pop\n        /* \"#utility.yul\":8111:8171   */\n      swap2\n      swap1\n      pop\n      jump\t// out\n        /* \"#utility.yul\":8177:8319   */\n    tag_87:\n        /* \"#utility.yul\":8227:8236   */\n      0x00\n        /* \"#utility.yul\":8260:8313   */\n      tag_185\n        /* \"#utility.yul\":8278:8312   */\n      tag_186\n        /* \"#utility.yul\":8287:8311   */\n      tag_187\n        /* \"#utility.yul\":8305:8310   */\n      dup5\n        /* \"#utility.yul\":8287:8311   */\n      tag_71\n      jump\t// in\n    tag_187:\n        /* \"#utility.yul\":8278:8312   */\n      tag_86\n      jump\t// in\n    tag_186:\n        /* \"#utility.yul\":8260:8313   */\n      tag_71\n      jump\t// in\n    tag_185:\n        /* \"#utility.yul\":8247:8313   */\n      swap1\n      pop\n        /* \"#utility.yul\":8177:8319   */\n      swap2\n      swap1\n      pop\n      jump\t// out\n        /* \"#utility.yul\":8325:8400   */\n    tag_88:\n        /* \"#utility.yul\":8368:8371   */\n      0x00\n        /* \"#utility.yul\":8389:8394   */\n      dup2\n        /* \"#utility.yul\":8382:8394   */\n      swap1\n      pop\n        /* \"#utility.yul\":8325:8400   */\n      swap2\n      swap1\n      pop\n      jump\t// out\n        /* \"#utility.yul\":8406:8675   */\n    tag_89:\n        /* \"#utility.yul\":8516:8555   */\n      tag_190\n        /* \"#utility.yul\":8547:8554   */\n      dup4\n        /* \"#utility.yul\":8516:8555   */\n      tag_87\n      jump\t// in\n    tag_190:\n        /* \"#utility.yul\":8577:8668   */\n      tag_191\n        /* \"#utility.yul\":8626:8667   */\n      tag_192\n        /* \"#utility.yul\":8650:8666   */\n      dup3\n        /* \"#utility.yul\":8626:8667   */\n      tag_88\n      jump\t// in\n    tag_192:\n        /* \"#utility.yul\":8618:8624   */\n      dup5\n        /* \"#utility.yul\":8611:8615   */\n      dup5\n        /* \"#utility.yul\":8605:8616   */\n      sload\n        /* \"#utility.yul\":8577:8668   */\n      tag_85\n      jump\t// in\n    tag_191:\n        /* \"#utility.yul\":8571:8575   */\n      dup3\n        /* \"#utility.yul\":8564:8669   */\n      sstore\n        /* \"#utility.yul\":8482:8675   */\n      pop\n        /* \"#utility.yul\":8406:8675   */\n      pop\n      pop\n      pop\n      jump\t// out\n        /* \"#utility.yul\":8681:8754   */\n    tag_90:\n        /* \"#utility.yul\":8726:8729   */\n      0x00\n        /* \"#utility.yul\":8681:8754   */\n      swap1\n      jump\t// out\n        /* \"#utility.yul\":8760:8949   */\n    tag_91:\n        /* \"#utility.yul\":8837:8869   */\n      tag_195\n      tag_90\n      jump\t// in\n    tag_195:\n        /* \"#utility.yul\":8878:8943   */\n      tag_196\n        /* \"#utility.yul\":8936:8942   */\n      dup2\n        /* \"#utility.yul\":8928:8934   */\n      dup5\n        /* \"#utility.yul\":8922:8926   */\n      dup5\n        /* \"#utility.yul\":8878:8943   */\n      tag_89\n      jump\t// in\n    tag_196:\n        /* \"#utility.yul\":8813:8949   */\n      pop\n        /* \"#utility.yul\":8760:8949   */\n      pop\n      pop\n      jump\t// out\n        /* \"#utility.yul\":8955:9141   */\n    tag_92:\n        /* \"#utility.yul\":9015:9135   */\n    tag_198:\n        /* \"#utility.yul\":9032:9035   */\n      dup2\n        /* \"#utility.yul\":9025:9030   */\n      dup2\n        /* \"#utility.yul\":9022:9036   */\n      lt\n        /* \"#utility.yul\":9015:9135   */\n      iszero\n      tag_200\n      jumpi\n        /* \"#utility.yul\":9086:9125   */\n      tag_201\n        /* \"#utility.yul\":9123:9124   */\n      0x00\n        /* \"#utility.yul\":9116:9121   */\n      dup3\n        /* \"#utility.yul\":9086:9125   */\n      tag_91\n      jump\t// in\n    tag_201:\n        /* \"#utility.yul\":9059:9060   */\n      0x01\n        /* \"#utility.yul\":9052:9057   */\n      dup2\n        /* \"#utility.yul\":9048:9061   */\n      add\n        /* \"#utility.yul\":9039:9061   */\n      swap1\n      pop\n        /* \"#utility.yul\":9015:9135   */\n      jump(tag_198)\n    tag_200:\n        /* \"#utility.yul\":8955:9141   */\n      pop\n      pop\n      jump\t// out\n        /* \"#utility.yul\":9147:9690   */\n    tag_93:\n        /* \"#utility.yul\":9248:9250   */\n      0x1f\n        /* \"#utility.yul\":9243:9246   */\n      dup3\n        /* \"#utility.yul\":9240:9251   */\n      gt\n        /* \"#utility.yul\":9237:9683   */\n      iszero\n      tag_203\n      jumpi\n        /* \"#utility.yul\":9282:9320   */\n      tag_204\n        /* \"#utility.yul\":9314:9319   */\n      dup2\n        /* \"#utility.yul\":9282:9320   */\n      tag_82\n      jump\t// in\n    tag_204:\n        /* \"#utility.yul\":9366:9395   */\n      tag_205\n        /* \"#utility.yul\":9384:9394   */\n      dup5\n        /* \"#utility.yul\":9366:9395   */\n      tag_83\n      jump\t// in\n    tag_205:\n        /* \"#utility.yul\":9356:9364   */\n      dup2\n        /* \"#utility.yul\":9352:9396   */\n      add\n        /* \"#utility.yul\":9549:9551   */\n      0x20\n        /* \"#utility.yul\":9537:9547   */\n      dup6\n        /* \"#utility.yul\":9534:9552   */\n      lt\n        /* \"#utility.yul\":9531:9580   */\n      iszero\n      tag_206\n      jumpi\n        /* \"#utility.yul\":9570:9578   */\n      dup2\n        /* \"#utility.yul\":9555:9578   */\n      swap1\n      pop\n        /* \"#utility.yul\":9531:9580   */\n    tag_206:\n        /* \"#utility.yul\":9593:9673   */\n      tag_207\n        /* \"#utility.yul\":9649:9671   */\n      tag_208\n        /* \"#utility.yul\":9667:9670   */\n      dup6\n        /* \"#utility.yul\":9649:9671   */\n      tag_83\n      jump\t// in\n    tag_208:\n        /* \"#utility.yul\":9639:9647   */\n      dup4\n        /* \"#utility.yul\":9635:9672   */\n      add\n        /* \"#utility.yul\":9622:9633   */\n      dup3\n        /* \"#utility.yul\":9593:9673   */\n      tag_92\n      jump\t// in\n    tag_207:\n        /* \"#utility.yul\":9252:9683   */\n      pop\n      pop\n        /* \"#utility.yul\":9237:9683   */\n    tag_203:\n        /* \"#utility.yul\":9147:9690   */\n      pop\n      pop\n      pop\n      jump\t// out\n        /* \"#utility.yul\":9696:9813   */\n    tag_94:\n        /* \"#utility.yul\":9750:9758   */\n      0x00\n        /* \"#utility.yul\":9800:9805   */\n      dup3\n        /* \"#utility.yul\":9794:9798   */\n      dup3\n        /* \"#utility.yul\":9790:9806   */\n      shr\n        /* \"#utility.yul\":9769:9806   */\n      swap1\n      pop\n        /* \"#utility.yul\":9696:9813   */\n      swap3\n      swap2\n      pop\n      pop\n      jump\t// out\n        /* \"#utility.yul\":9819:9988   */\n    tag_95:\n        /* \"#utility.yul\":9863:9869   */\n      0x00\n        /* \"#utility.yul\":9896:9947   */\n      tag_211\n        /* \"#utility.yul\":9944:9945   */\n      0x00\n        /* \"#utility.yul\":9940:9946   */\n      not\n        /* \"#utility.yul\":9932:9937   */\n      dup5\n        /* \"#utility.yul\":9929:9930   */\n      0x08\n        /* \"#utility.yul\":9925:9938   */\n      mul\n        /* \"#utility.yul\":9896:9947   */\n      tag_94\n      jump\t// in\n    tag_211:\n        /* \"#utility.yul\":9892:9948   */\n      not\n        /* \"#utility.yul\":9977:9981   */\n      dup1\n        /* \"#utility.yul\":9971:9975   */\n      dup4\n        /* \"#utility.yul\":9967:9982   */\n      and\n        /* \"#utility.yul\":9957:9982   */\n      swap2\n      pop\n        /* \"#utility.yul\":9870:9988   */\n      pop\n        /* \"#utility.yul\":9819:9988   */\n      swap3\n      swap2\n      pop\n      pop\n      jump\t// out\n        /* \"#utility.yul\":9993:10288   */\n    tag_96:\n        /* \"#utility.yul\":10069:10073   */\n      0x00\n        /* \"#utility.yul\":10215:10244   */\n      tag_213\n        /* \"#utility.yul\":10240:10243   */\n      dup4\n        /* \"#utility.yul\":10234:10238   */\n      dup4\n        /* \"#utility.yul\":10215:10244   */\n      tag_95\n      jump\t// in\n    tag_213:\n        /* \"#utility.yul\":10207:10244   */\n      swap2\n      pop\n        /* \"#utility.yul\":10277:10280   */\n      dup3\n        /* \"#utility.yul\":10274:10275   */\n      0x02\n        /* \"#utility.yul\":10270:10281   */\n      mul\n        /* \"#utility.yul\":10264:10268   */\n      dup3\n        /* \"#utility.yul\":10261:10282   */\n      or\n        /* \"#utility.yul\":10253:10282   */\n      swap1\n      pop\n        /* \"#utility.yul\":9993:10288   */\n      swap3\n      swap2\n      pop\n      pop\n      jump\t// out\n        /* \"#utility.yul\":10293:11688   */\n    tag_38:\n        /* \"#utility.yul\":10410:10447   */\n      tag_215\n        /* \"#utility.yul\":10443:10446   */\n      dup3\n        /* \"#utility.yul\":10410:10447   */\n      tag_75\n      jump\t// in\n    tag_215:\n        /* \"#utility.yul\":10512:10530   */\n      0xffffffffffffffff\n        /* \"#utility.yul\":10504:10510   */\n      dup2\n        /* \"#utility.yul\":10501:10531   */\n      gt\n        /* \"#utility.yul\":10498:10554   */\n      iszero\n      tag_216\n      jumpi\n        /* \"#utility.yul\":10534:10552   */\n      tag_217\n      tag_64\n      jump\t// in\n    tag_217:\n        /* \"#utility.yul\":10498:10554   */\n    tag_216:\n        /* \"#utility.yul\":10578:10616   */\n      tag_218\n        /* \"#utility.yul\":10610:10614   */\n      dup3\n        /* \"#utility.yul\":10604:10615   */\n      sload\n        /* \"#utility.yul\":10578:10616   */\n      tag_43\n      jump\t// in\n    tag_218:\n        /* \"#utility.yul\":10663:10730   */\n      tag_219\n        /* \"#utility.yul\":10723:10729   */\n      dup3\n        /* \"#utility.yul\":10715:10721   */\n      dup3\n        /* \"#utility.yul\":10709:10713   */\n      dup6\n        /* \"#utility.yul\":10663:10730   */\n      tag_93\n      jump\t// in\n    tag_219:\n        /* \"#utility.yul\":10757:10758   */\n      0x00\n        /* \"#utility.yul\":10781:10785   */\n      0x20\n        /* \"#utility.yul\":10768:10785   */\n      swap1\n      pop\n        /* \"#utility.yul\":10813:10815   */\n      0x1f\n        /* \"#utility.yul\":10805:10811   */\n      dup4\n        /* \"#utility.yul\":10802:10816   */\n      gt\n        /* \"#utility.yul\":10830:10831   */\n      0x01\n        /* \"#utility.yul\":10825:11443   */\n      dup2\n      eq\n      tag_221\n      jumpi\n        /* \"#utility.yul\":11487:11488   */\n      0x00\n        /* \"#utility.yul\":11504:11510   */\n      dup5\n        /* \"#utility.yul\":11501:11578   */\n      iszero\n      tag_222\n      jumpi\n        /* \"#utility.yul\":11553:11562   */\n      dup3\n        /* \"#utility.yul\":11548:11551   */\n      dup8\n        /* \"#utility.yul\":11544:11563   */\n      add\n        /* \"#utility.yul\":11538:11564   */\n      mload\n        /* \"#utility.yul\":11529:11564   */\n      swap1\n      pop\n        /* \"#utility.yul\":11501:11578   */\n    tag_222:\n        /* \"#utility.yul\":11604:11671   */\n      tag_223\n        /* \"#utility.yul\":11664:11670   */\n      dup6\n        /* \"#utility.yul\":11657:11662   */\n      dup3\n        /* \"#utility.yul\":11604:11671   */\n      tag_96\n      jump\t// in\n    tag_223:\n        /* \"#utility.yul\":11598:11602   */\n      dup7\n        /* \"#utility.yul\":11591:11672   */\n      sstore\n        /* \"#utility.yul\":11460:11682   */\n      pop\n        /* \"#utility.yul\":10795:11682   */\n      jump(tag_220)\n        /* \"#utility.yul\":10825:11443   */\n    tag_221:\n        /* \"#utility.yul\":10877:10881   */\n      0x1f\n        /* \"#utility.yul\":10873:10882   */\n      not\n        /* \"#utility.yul\":10865:10871   */\n      dup5\n        /* \"#utility.yul\":10861:10883   */\n      and\n        /* \"#utility.yul\":10911:10948   */\n      tag_224\n        /* \"#utility.yul\":10943:10947   */\n      dup7\n        /* \"#utility.yul\":10911:10948   */\n      tag_82\n      jump\t// in\n    tag_224:\n        /* \"#utility.yul\":10970:10971   */\n      0x00\n        /* \"#utility.yul\":10984:11192   */\n    tag_225:\n        /* \"#utility.yul\":10998:11005   */\n      dup3\n        /* \"#utility.yul\":10995:10996   */\n      dup2\n        /* \"#utility.yul\":10992:11006   */\n      lt\n        /* \"#utility.yul\":10984:11192   */\n      iszero\n      tag_227\n      jumpi\n        /* \"#utility.yul\":11077:11086   */\n      dup5\n        /* \"#utility.yul\":11072:11075   */\n      dup10\n        /* \"#utility.yul\":11068:11087   */\n      add\n        /* \"#utility.yul\":11062:11088   */\n      mload\n        /* \"#utility.yul\":11054:11060   */\n      dup3\n        /* \"#utility.yul\":11047:11089   */\n      sstore\n        /* \"#utility.yul\":11128:11129   */\n      0x01\n        /* \"#utility.yul\":11120:11126   */\n      dup3\n        /* \"#utility.yul\":11116:11130   */\n      add\n        /* \"#utility.yul\":11106:11130   */\n      swap2\n      pop\n        /* \"#utility.yul\":11175:11177   */\n      0x20\n        /* \"#utility.yul\":11164:11173   */\n      dup6\n        /* \"#utility.yul\":11160:11178   */\n      add\n        /* \"#utility.yul\":11147:11178   */\n      swap5\n      pop\n        /* \"#utility.yul\":11021:11025   */\n      0x20\n        /* \"#utility.yul\":11018:11019   */\n      dup2\n        /* \"#utility.yul\":11014:11026   */\n      add\n        /* \"#utility.yul\":11009:11026   */\n      swap1\n      pop\n        /* \"#utility.yul\":10984:11192   */\n      jump(tag_225)\n    tag_227:\n        /* \"#utility.yul\":11220:11226   */\n      dup7\n        /* \"#utility.yul\":11211:11218   */\n      dup4\n        /* \"#utility.yul\":11208:11227   */\n      lt\n        /* \"#utility.yul\":11205:11384   */\n      iszero\n      tag_228\n      jumpi\n        /* \"#utility.yul\":11278:11287   */\n      dup5\n        /* \"#utility.yul\":11273:11276   */\n      dup10\n        /* \"#utility.yul\":11269:11288   */\n      add\n        /* \"#utility.yul\":11263:11289   */\n      mload\n        /* \"#utility.yul\":11321:11369   */\n      tag_229\n        /* \"#utility.yul\":11363:11367   */\n      0x1f\n        /* \"#utility.yul\":11355:11361   */\n      dup10\n        /* \"#utility.yul\":11351:11368   */\n      and\n        /* \"#utility.yul\":11340:11349   */\n      dup3\n        /* \"#utility.yul\":11321:11369   */\n      tag_95\n      jump\t// in\n    tag_229:\n        /* \"#utility.yul\":11313:11319   */\n      dup4\n        /* \"#utility.yul\":11306:11370   */\n      sstore\n        /* \"#utility.yul\":11228:11384   */\n      pop\n        /* \"#utility.yul\":11205:11384   */\n    tag_228:\n        /* \"#utility.yul\":11430:11431   */\n      0x01\n        /* \"#utility.yul\":11426:11427   */\n      0x02\n        /* \"#utility.yul\":11418:11424   */\n      dup9\n        /* \"#utility.yul\":11414:11428   */\n      mul\n        /* \"#utility.yul\":11410:11432   */\n      add\n        /* \"#utility.yul\":11404:11408   */\n      dup9\n        /* \"#utility.yul\":11397:11433   */\n      sstore\n        /* \"#utility.yul\":10832:11443   */\n      pop\n      pop\n      pop\n        /* \"#utility.yul\":10795:11682   */\n    tag_220:\n      pop\n        /* \"#utility.yul\":10385:11688   */\n      pop\n      pop\n      pop\n        /* \"#utility.yul\":10293:11688   */\n      pop\n      pop\n      jump\t// out\n        /* \"#utility.yul\":11694:11874   */\n    tag_51:\n        /* \"#utility.yul\":11742:11819   */\n      0x4e487b7100000000000000000000000000000000000000000000000000000000\n        /* \"#utility.yul\":11739:11740   */\n      0x00\n        /* \"#utility.yul\":11732:11820   */\n      mstore\n        /* \"#utility.yul\":11839:11843   */\n      0x32\n        /* \"#utility.yul\":11836:11837   */\n      0x04\n        /* \"#utility.yul\":11829:11844   */\n      mstore\n        /* \"#utility.yul\":11863:11867   */\n      0x24\n        /* \"#utility.yul\":11860:11861   */\n      0x00\n        /* \"#utility.yul\":11853:11868   */\n      revert\n\n    auxdata: 0xa2646970667358221220f72027f11915fd09bde3229261f27c0f29d804ef41088b7421559af1a456e27d64736f6c634300081a0033\n}\n",
				"bytecode": {
					"linkReferences": {},
					"object": "6080604052348015600e575f80fd5b50610a018061001c5f395ff3fe608060405234801561000f575f80fd5b5060043610610055575f3560e01c80632747f6151461005957806336555b85146100895780635623e7fd146100a55780638f88708b146100d6578063bf597ea414610107575b5f80fd5b610073600480360381019061006e91906104d0565b610137565b604051610080919061052f565b60405180910390f35b6100a3600480360381019061009e9190610572565b61015d565b005b6100bf60048036038101906100ba91906105cc565b6101e0565b6040516100cd929190610657565b60405180910390f35b6100f060048036038101906100eb91906105cc565b610295565b6040516100fe929190610657565b60405180910390f35b610121600480360381019061011c91906104d0565b610357565b60405161012e919061052f565b60405180910390f35b5f808260405161014791906106bf565b9081526020016040518091039020549050919050565b6001604051806040016040528084815260200183815250908060018154018082558091505060019003905f5260205f2090600202015f909190919091505f820151815f0190816101ad91906108cf565b50602082015181600101555050805f836040516101ca91906106bf565b9081526020016040518091039020819055505050565b600181815481106101ef575f80fd5b905f5260205f2090600202015f91509050805f01805461020e90610702565b80601f016020809104026020016040519081016040528092919081815260200182805461023a90610702565b80156102855780601f1061025c57610100808354040283529160200191610285565b820191905f5260205f20905b81548152906001019060200180831161026857829003601f168201915b5050505050908060010154905082565b60605f80600184815481106102ad576102ac61099e565b5b905f5260205f2090600202019050805f0181600101548180546102cf90610702565b80601f01602080910402602001604051908101604052809291908181526020018280546102fb90610702565b80156103465780601f1061031d57610100808354040283529160200191610346565b820191905f5260205f20905b81548152906001019060200180831161032957829003601f168201915b505050505091509250925050915091565b5f818051602081018201805184825260208301602085012081835280955050505050505f915090505481565b5f604051905090565b5f80fd5b5f80fd5b5f80fd5b5f80fd5b5f601f19601f8301169050919050565b7f4e487b71000000000000000000000000000000000000000000000000000000005f52604160045260245ffd5b6103e28261039c565b810181811067ffffffffffffffff82111715610401576104006103ac565b5b80604052505050565b5f610413610383565b905061041f82826103d9565b919050565b5f67ffffffffffffffff82111561043e5761043d6103ac565b5b6104478261039c565b9050602081019050919050565b828183375f83830152505050565b5f61047461046f84610424565b61040a565b9050828152602081018484840111156104905761048f610398565b5b61049b848285610454565b509392505050565b5f82601f8301126104b7576104b6610394565b5b81356104c7848260208601610462565b91505092915050565b5f602082840312156104e5576104e461038c565b5b5f82013567ffffffffffffffff81111561050257610501610390565b5b61050e848285016104a3565b91505092915050565b5f819050919050565b61052981610517565b82525050565b5f6020820190506105425f830184610520565b92915050565b61055181610517565b811461055b575f80fd5b50565b5f8135905061056c81610548565b92915050565b5f80604083850312156105885761058761038c565b5b5f83013567ffffffffffffffff8111156105a5576105a4610390565b5b6105b1858286016104a3565b92505060206105c28582860161055e565b9150509250929050565b5f602082840312156105e1576105e061038c565b5b5f6105ee8482850161055e565b91505092915050565b5f81519050919050565b5f82825260208201905092915050565b8281835e5f83830152505050565b5f610629826105f7565b6106338185610601565b9350610643818560208601610611565b61064c8161039c565b840191505092915050565b5f6040820190508181035f83015261066f818561061f565b905061067e6020830184610520565b9392505050565b5f81905092915050565b5f610699826105f7565b6106a38185610685565b93506106b3818560208601610611565b80840191505092915050565b5f6106ca828461068f565b915081905092915050565b7f4e487b71000000000000000000000000000000000000000000000000000000005f52602260045260245ffd5b5f600282049050600182168061071957607f821691505b60208210810361072c5761072b6106d5565b5b50919050565b5f819050815f5260205f209050919050565b5f6020601f8301049050919050565b5f82821b905092915050565b5f6008830261078e7fffffffffffffffffffffffffffffffffffffffffffffffffffffffffffffffff82610753565b6107988683610753565b95508019841693508086168417925050509392505050565b5f819050919050565b5f6107d36107ce6107c984610517565b6107b0565b610517565b9050919050565b5f819050919050565b6107ec836107b9565b6108006107f8826107da565b84845461075f565b825550505050565b5f90565b610814610808565b61081f8184846107e3565b505050565b5b81811015610842576108375f8261080c565b600181019050610825565b5050565b601f8211156108875761085881610732565b61086184610744565b81016020851015610870578190505b61088461087c85610744565b830182610824565b50505b505050565b5f82821c905092915050565b5f6108a75f198460080261088c565b1980831691505092915050565b5f6108bf8383610898565b9150826002028217905092915050565b6108d8826105f7565b67ffffffffffffffff8111156108f1576108f06103ac565b5b6108fb8254610702565b610906828285610846565b5f60209050601f831160018114610937575f8415610925578287015190505b61092f85826108b4565b865550610996565b601f19841661094586610732565b5f5b8281101561096c57848901518255600182019150602085019450602081019050610947565b868310156109895784890151610985601f891682610898565b8355505b6001600288020188555050505b505050505050565b7f4e487b71000000000000000000000000000000000000000000000000000000005f52603260045260245ffdfea2646970667358221220f72027f11915fd09bde3229261f27c0f29d804ef41088b7421559af1a456e27d64736f6c634300081a0033",
					"opcodes": "PUSH1 0x80 PUSH1 0x40 MSTORE CALLVALUE DUP1 ISZERO PUSH1 0xE JUMPI PUSH0 DUP1 REVERT JUMPDEST POP PUSH2 0xA01 DUP1 PUSH2 0x1C PUSH0 CODECOPY PUSH0 RETURN INVALID PUSH1 0x80 PUSH1 0x40 MSTORE CALLVALUE DUP1 ISZERO PUSH2 0xF JUMPI PUSH0 DUP1 REVERT JUMPDEST POP PUSH1 0x4 CALLDATASIZE LT PUSH2 0x55 JUMPI PUSH0 CALLDATALOAD PUSH1 0xE0 SHR DUP1 PUSH4 0x2747F615 EQ PUSH2 0x59 JUMPI DUP1 PUSH4 0x36555B85 EQ PUSH2 0x89 JUMPI DUP1 PUSH4 0x5623E7FD EQ PUSH2 0xA5 JUMPI DUP1 PUSH4 0x8F88708B EQ PUSH2 0xD6 JUMPI DUP1 PUSH4 0xBF597EA4 EQ PUSH2 0x107 JUMPI JUMPDEST PUSH0 DUP1 REVERT JUMPDEST PUSH2 0x73 PUSH1 0x4 DUP1 CALLDATASIZE SUB DUP2 ADD SWAP1 PUSH2 0x6E SWAP2 SWAP1 PUSH2 0x4D0 JUMP JUMPDEST PUSH2 0x137 JUMP JUMPDEST PUSH1 0x40 MLOAD PUSH2 0x80 SWAP2 SWAP1 PUSH2 0x52F JUMP JUMPDEST PUSH1 0x40 MLOAD DUP1 SWAP2 SUB SWAP1 RETURN JUMPDEST PUSH2 0xA3 PUSH1 0x4 DUP1 CALLDATASIZE SUB DUP2 ADD SWAP1 PUSH2 0x9E SWAP2 SWAP1 PUSH2 0x572 JUMP JUMPDEST PUSH2 0x15D JUMP JUMPDEST STOP JUMPDEST PUSH2 0xBF PUSH1 0x4 DUP1 CALLDATASIZE SUB DUP2 ADD SWAP1 PUSH2 0xBA SWAP2 SWAP1 PUSH2 0x5CC JUMP JUMPDEST PUSH2 0x1E0 JUMP JUMPDEST PUSH1 0x40 MLOAD PUSH2 0xCD SWAP3 SWAP2 SWAP1 PUSH2 0x657 JUMP JUMPDEST PUSH1 0x40 MLOAD DUP1 SWAP2 SUB SWAP1 RETURN JUMPDEST PUSH2 0xF0 PUSH1 0x4 DUP1 CALLDATASIZE SUB DUP2 ADD SWAP1 PUSH2 0xEB SWAP2 SWAP1 PUSH2 0x5CC JUMP JUMPDEST PUSH2 0x295 JUMP JUMPDEST PUSH1 0x40 MLOAD PUSH2 0xFE SWAP3 SWAP2 SWAP1 PUSH2 0x657 JUMP JUMPDEST PUSH1 0x40 MLOAD DUP1 SWAP2 SUB SWAP1 RETURN JUMPDEST PUSH2 0x121 PUSH1 0x4 DUP1 CALLDATASIZE SUB DUP2 ADD SWAP1 PUSH2 0x11C SWAP2 SWAP1 PUSH2 0x4D0 JUMP JUMPDEST PUSH2 0x357 JUMP JUMPDEST PUSH1 0x40 MLOAD PUSH2 0x12E SWAP2 SWAP1 PUSH2 0x52F JUMP JUMPDEST PUSH1 0x40 MLOAD DUP1 SWAP2 SUB SWAP1 RETURN JUMPDEST PUSH0 DUP1 DUP3 PUSH1 0x40 MLOAD PUSH2 0x147 SWAP2 SWAP1 PUSH2 0x6BF JUMP JUMPDEST SWAP1 DUP2 MSTORE PUSH1 0x20 ADD PUSH1 0x40 MLOAD DUP1 SWAP2 SUB SWAP1 KECCAK256 SLOAD SWAP1 POP SWAP2 SWAP1 POP JUMP JUMPDEST PUSH1 0x1 PUSH1 0x40 MLOAD DUP1 PUSH1 0x40 ADD PUSH1 0x40 MSTORE DUP1 DUP5 DUP2 MSTORE PUSH1 0x20 ADD DUP4 DUP2 MSTORE POP SWAP1 DUP1 PUSH1 0x1 DUP2 SLOAD ADD DUP1 DUP3 SSTORE DUP1 SWAP2 POP POP PUSH1 0x1 SWAP1 SUB SWAP1 PUSH0 MSTORE PUSH1 0x20 PUSH0 KECCAK256 SWAP1 PUSH1 0x2 MUL ADD PUSH0 SWAP1 SWAP2 SWAP1 SWAP2 SWAP1 SWAP2 POP PUSH0 DUP3 ADD MLOAD DUP2 PUSH0 ADD SWAP1 DUP2 PUSH2 0x1AD SWAP2 SWAP1 PUSH2 0x8CF JUMP JUMPDEST POP PUSH1 0x20 DUP3 ADD MLOAD DUP2 PUSH1 0x1 ADD SSTORE POP POP DUP1 PUSH0 DUP4 PUSH1 0x40 MLOAD PUSH2 0x1CA SWAP2 SWAP1 PUSH2 0x6BF JUMP JUMPDEST SWAP1 DUP2 MSTORE PUSH1 0x20 ADD PUSH1 0x40 MLOAD DUP1 SWAP2 SUB SWAP1 KECCAK256 DUP2 SWAP1 SSTORE POP POP POP JUMP JUMPDEST PUSH1 0x1 DUP2 DUP2 SLOAD DUP2 LT PUSH2 0x1EF JUMPI PUSH0 DUP1 REVERT JUMPDEST SWAP1 PUSH0 MSTORE PUSH1 0x20 PUSH0 KECCAK256 SWAP1 PUSH1 0x2 MUL ADD PUSH0 SWAP2 POP SWAP1 POP DUP1 PUSH0 ADD DUP1 SLOAD PUSH2 0x20E SWAP1 PUSH2 0x702 JUMP JUMPDEST DUP1 PUSH1 0x1F ADD PUSH1 0x20 DUP1 SWAP2 DIV MUL PUSH1 0x20 ADD PUSH1 0x40 MLOAD SWAP1 DUP2 ADD PUSH1 0x40 MSTORE DUP1 SWAP3 SWAP2 SWAP1 DUP2 DUP2 MSTORE PUSH1 0x20 ADD DUP3 DUP1 SLOAD PUSH2 0x23A SWAP1 PUSH2 0x702 JUMP JUMPDEST DUP1 ISZERO PUSH2 0x285 JUMPI DUP1 PUSH1 0x1F LT PUSH2 0x25C JUMPI PUSH2 0x100 DUP1 DUP4 SLOAD DIV MUL DUP4 MSTORE SWAP2 PUSH1 0x20 ADD SWAP2 PUSH2 0x285 JUMP JUMPDEST DUP3 ADD SWAP2 SWAP1 PUSH0 MSTORE PUSH1 0x20 PUSH0 KECCAK256 SWAP1 JUMPDEST DUP2 SLOAD DUP2 MSTORE SWAP1 PUSH1 0x1 ADD SWAP1 PUSH1 0x20 ADD DUP1 DUP4 GT PUSH2 0x268 JUMPI DUP3 SWAP1 SUB PUSH1 0x1F AND DUP3 ADD SWAP2 JUMPDEST POP POP POP POP POP SWAP1 DUP1 PUSH1 0x1 ADD SLOAD SWAP1 POP DUP3 JUMP JUMPDEST PUSH1 0x60 PUSH0 DUP1 PUSH1 0x1 DUP5 DUP2 SLOAD DUP2 LT PUSH2 0x2AD JUMPI PUSH2 0x2AC PUSH2 0x99E JUMP JUMPDEST JUMPDEST SWAP1 PUSH0 MSTORE PUSH1 0x20 PUSH0 KECCAK256 SWAP1 PUSH1 0x2 MUL ADD SWAP1 POP DUP1 PUSH0 ADD DUP2 PUSH1 0x1 ADD SLOAD DUP2 DUP1 SLOAD PUSH2 0x2CF SWAP1 PUSH2 0x702 JUMP JUMPDEST DUP1 PUSH1 0x1F ADD PUSH1 0x20 DUP1 SWAP2 DIV MUL PUSH1 0x20 ADD PUSH1 0x40 MLOAD SWAP1 DUP2 ADD PUSH1 0x40 MSTORE DUP1 SWAP3 SWAP2 SWAP1 DUP2 DUP2 MSTORE PUSH1 0x20 ADD DUP3 DUP1 SLOAD PUSH2 0x2FB SWAP1 PUSH2 0x702 JUMP JUMPDEST DUP1 ISZERO PUSH2 0x346 JUMPI DUP1 PUSH1 0x1F LT PUSH2 0x31D JUMPI PUSH2 0x100 DUP1 DUP4 SLOAD DIV MUL DUP4 MSTORE SWAP2 PUSH1 0x20 ADD SWAP2 PUSH2 0x346 JUMP JUMPDEST DUP3 ADD SWAP2 SWAP1 PUSH0 MSTORE PUSH1 0x20 PUSH0 KECCAK256 SWAP1 JUMPDEST DUP2 SLOAD DUP2 MSTORE SWAP1 PUSH1 0x1 ADD SWAP1 PUSH1 0x20 ADD DUP1 DUP4 GT PUSH2 0x329 JUMPI DUP3 SWAP1 SUB PUSH1 0x1F AND DUP3 ADD SWAP2 JUMPDEST POP POP POP POP POP SWAP2 POP SWAP3 POP SWAP3 POP POP SWAP2 POP SWAP2 JUMP JUMPDEST PUSH0 DUP2 DUP1 MLOAD PUSH1 0x20 DUP2 ADD DUP3 ADD DUP1 MLOAD DUP5 DUP3 MSTORE PUSH1 0x20 DUP4 ADD PUSH1 0x20 DUP6 ADD KECCAK256 DUP2 DUP4 MSTORE DUP1 SWAP6 POP POP POP POP POP POP PUSH0 SWAP2 POP SWAP1 POP SLOAD DUP2 JUMP JUMPDEST PUSH0 PUSH1 0x40 MLOAD SWAP1 POP SWAP1 JUMP JUMPDEST PUSH0 DUP1 REVERT JUMPDEST PUSH0 DUP1 REVERT JUMPDEST PUSH0 DUP1 REVERT JUMPDEST PUSH0 DUP1 REVERT JUMPDEST PUSH0 PUSH1 0x1F NOT PUSH1 0x1F DUP4 ADD AND SWAP1 POP SWAP2 SWAP1 POP JUMP JUMPDEST PUSH32 0x4E487B7100000000000000000000000000000000000000000000000000000000 PUSH0 MSTORE PUSH1 0x41 PUSH1 0x4 MSTORE PUSH1 0x24 PUSH0 REVERT JUMPDEST PUSH2 0x3E2 DUP3 PUSH2 0x39C JUMP JUMPDEST DUP2 ADD DUP2 DUP2 LT PUSH8 0xFFFFFFFFFFFFFFFF DUP3 GT OR ISZERO PUSH2 0x401 JUMPI PUSH2 0x400 PUSH2 0x3AC JUMP JUMPDEST JUMPDEST DUP1 PUSH1 0x40 MSTORE POP POP POP JUMP JUMPDEST PUSH0 PUSH2 0x413 PUSH2 0x383 JUMP JUMPDEST SWAP1 POP PUSH2 0x41F DUP3 DUP3 PUSH2 0x3D9 JUMP JUMPDEST SWAP2 SWAP1 POP JUMP JUMPDEST PUSH0 PUSH8 0xFFFFFFFFFFFFFFFF DUP3 GT ISZERO PUSH2 0x43E JUMPI PUSH2 0x43D PUSH2 0x3AC JUMP JUMPDEST JUMPDEST PUSH2 0x447 DUP3 PUSH2 0x39C JUMP JUMPDEST SWAP1 POP PUSH1 0x20 DUP2 ADD SWAP1 POP SWAP2 SWAP1 POP JUMP JUMPDEST DUP3 DUP2 DUP4 CALLDATACOPY PUSH0 DUP4 DUP4 ADD MSTORE POP POP POP JUMP JUMPDEST PUSH0 PUSH2 0x474 PUSH2 0x46F DUP5 PUSH2 0x424 JUMP JUMPDEST PUSH2 0x40A JUMP JUMPDEST SWAP1 POP DUP3 DUP2 MSTORE PUSH1 0x20 DUP2 ADD DUP5 DUP5 DUP5 ADD GT ISZERO PUSH2 0x490 JUMPI PUSH2 0x48F PUSH2 0x398 JUMP JUMPDEST JUMPDEST PUSH2 0x49B DUP5 DUP3 DUP6 PUSH2 0x454 JUMP JUMPDEST POP SWAP4 SWAP3 POP POP POP JUMP JUMPDEST PUSH0 DUP3 PUSH1 0x1F DUP4 ADD SLT PUSH2 0x4B7 JUMPI PUSH2 0x4B6 PUSH2 0x394 JUMP JUMPDEST JUMPDEST DUP2 CALLDATALOAD PUSH2 0x4C7 DUP5 DUP3 PUSH1 0x20 DUP7 ADD PUSH2 0x462 JUMP JUMPDEST SWAP2 POP POP SWAP3 SWAP2 POP POP JUMP JUMPDEST PUSH0 PUSH1 0x20 DUP3 DUP5 SUB SLT ISZERO PUSH2 0x4E5 JUMPI PUSH2 0x4E4 PUSH2 0x38C JUMP JUMPDEST JUMPDEST PUSH0 DUP3 ADD CALLDATALOAD PUSH8 0xFFFFFFFFFFFFFFFF DUP2 GT ISZERO PUSH2 0x502 JUMPI PUSH2 0x501 PUSH2 0x390 JUMP JUMPDEST JUMPDEST PUSH2 0x50E DUP5 DUP3 DUP6 ADD PUSH2 0x4A3 JUMP JUMPDEST SWAP2 POP POP SWAP3 SWAP2 POP POP JUMP JUMPDEST PUSH0 DUP2 SWAP1 POP SWAP2 SWAP1 POP JUMP JUMPDEST PUSH2 0x529 DUP2 PUSH2 0x517 JUMP JUMPDEST DUP3 MSTORE POP POP JUMP JUMPDEST PUSH0 PUSH1 0x20 DUP3 ADD SWAP1 POP PUSH2 0x542 PUSH0 DUP4 ADD DUP5 PUSH2 0x520 JUMP JUMPDEST SWAP3 SWAP2 POP POP JUMP JUMPDEST PUSH2 0x551 DUP2 PUSH2 0x517 JUMP JUMPDEST DUP2 EQ PUSH2 0x55B JUMPI PUSH0 DUP1 REVERT JUMPDEST POP JUMP JUMPDEST PUSH0 DUP2 CALLDATALOAD SWAP1 POP PUSH2 0x56C DUP2 PUSH2 0x548 JUMP JUMPDEST SWAP3 SWAP2 POP POP JUMP JUMPDEST PUSH0 DUP1 PUSH1 0x40 DUP4 DUP6 SUB SLT ISZERO PUSH2 0x588 JUMPI PUSH2 0x587 PUSH2 0x38C JUMP JUMPDEST JUMPDEST PUSH0 DUP4 ADD CALLDATALOAD PUSH8 0xFFFFFFFFFFFFFFFF DUP2 GT ISZERO PUSH2 0x5A5 JUMPI PUSH2 0x5A4 PUSH2 0x390 JUMP JUMPDEST JUMPDEST PUSH2 0x5B1 DUP6 DUP3 DUP7 ADD PUSH2 0x4A3 JUMP JUMPDEST SWAP3 POP POP PUSH1 0x20 PUSH2 0x5C2 DUP6 DUP3 DUP7 ADD PUSH2 0x55E JUMP JUMPDEST SWAP2 POP POP SWAP3 POP SWAP3 SWAP1 POP JUMP JUMPDEST PUSH0 PUSH1 0x20 DUP3 DUP5 SUB SLT ISZERO PUSH2 0x5E1 JUMPI PUSH2 0x5E0 PUSH2 0x38C JUMP JUMPDEST JUMPDEST PUSH0 PUSH2 0x5EE DUP5 DUP3 DUP6 ADD PUSH2 0x55E JUMP JUMPDEST SWAP2 POP POP SWAP3 SWAP2 POP POP JUMP JUMPDEST PUSH0 DUP2 MLOAD SWAP1 POP SWAP2 SWAP1 POP JUMP JUMPDEST PUSH0 DUP3 DUP3 MSTORE PUSH1 0x20 DUP3 ADD SWAP1 POP SWAP3 SWAP2 POP POP JUMP JUMPDEST DUP3 DUP2 DUP4 MCOPY PUSH0 DUP4 DUP4 ADD MSTORE POP POP POP JUMP JUMPDEST PUSH0 PUSH2 0x629 DUP3 PUSH2 0x5F7 JUMP JUMPDEST PUSH2 0x633 DUP2 DUP6 PUSH2 0x601 JUMP JUMPDEST SWAP4 POP PUSH2 0x643 DUP2 DUP6 PUSH1 0x20 DUP7 ADD PUSH2 0x611 JUMP JUMPDEST PUSH2 0x64C DUP2 PUSH2 0x39C JUMP JUMPDEST DUP5 ADD SWAP2 POP POP SWAP3 SWAP2 POP POP JUMP JUMPDEST PUSH0 PUSH1 0x40 DUP3 ADD SWAP1 POP DUP2 DUP2 SUB PUSH0 DUP4 ADD MSTORE PUSH2 0x66F DUP2 DUP6 PUSH2 0x61F JUMP JUMPDEST SWAP1 POP PUSH2 0x67E PUSH1 0x20 DUP4 ADD DUP5 PUSH2 0x520 JUMP JUMPDEST SWAP4 SWAP3 POP POP POP JUMP JUMPDEST PUSH0 DUP2 SWAP1 POP SWAP3 SWAP2 POP POP JUMP JUMPDEST PUSH0 PUSH2 0x699 DUP3 PUSH2 0x5F7 JUMP JUMPDEST PUSH2 0x6A3 DUP2 DUP6 PUSH2 0x685 JUMP JUMPDEST SWAP4 POP PUSH2 0x6B3 DUP2 DUP6 PUSH1 0x20 DUP7 ADD PUSH2 0x611 JUMP JUMPDEST DUP1 DUP5 ADD SWAP2 POP POP SWAP3 SWAP2 POP POP JUMP JUMPDEST PUSH0 PUSH2 0x6CA DUP3 DUP5 PUSH2 0x68F JUMP JUMPDEST SWAP2 POP DUP2 SWAP1 POP SWAP3 SWAP2 POP POP JUMP JUMPDEST PUSH32 0x4E487B7100000000000000000000000000000000000000000000000000000000 PUSH0 MSTORE PUSH1 0x22 PUSH1 0x4 MSTORE PUSH1 0x24 PUSH0 REVERT JUMPDEST PUSH0 PUSH1 0x2 DUP3 DIV SWAP1 POP PUSH1 0x1 DUP3 AND DUP1 PUSH2 0x719 JUMPI PUSH1 0x7F DUP3 AND SWAP2 POP JUMPDEST PUSH1 0x20 DUP3 LT DUP2 SUB PUSH2 0x72C JUMPI PUSH2 0x72B PUSH2 0x6D5 JUMP JUMPDEST JUMPDEST POP SWAP2 SWAP1 POP JUMP JUMPDEST PUSH0 DUP2 SWAP1 POP DUP2 PUSH0 MSTORE PUSH1 0x20 PUSH0 KECCAK256 SWAP1 POP SWAP2 SWAP1 POP JUMP JUMPDEST PUSH0 PUSH1 0x20 PUSH1 0x1F DUP4 ADD DIV SWAP1 POP SWAP2 SWAP1 POP JUMP JUMPDEST PUSH0 DUP3 DUP3 SHL SWAP1 POP SWAP3 SWAP2 POP POP JUMP JUMPDEST PUSH0 PUSH1 0x8 DUP4 MUL PUSH2 0x78E PUSH32 0xFFFFFFFFFFFFFFFFFFFFFFFFFFFFFFFFFFFFFFFFFFFFFFFFFFFFFFFFFFFFFFFF DUP3 PUSH2 0x753 JUMP JUMPDEST PUSH2 0x798 DUP7 DUP4 PUSH2 0x753 JUMP JUMPDEST SWAP6 POP DUP1 NOT DUP5 AND SWAP4 POP DUP1 DUP7 AND DUP5 OR SWAP3 POP POP POP SWAP4 SWAP3 POP POP POP JUMP JUMPDEST PUSH0 DUP2 SWAP1 POP SWAP2 SWAP1 POP JUMP JUMPDEST PUSH0 PUSH2 0x7D3 PUSH2 0x7CE PUSH2 0x7C9 DUP5 PUSH2 0x517 JUMP JUMPDEST PUSH2 0x7B0 JUMP JUMPDEST PUSH2 0x517 JUMP JUMPDEST SWAP1 POP SWAP2 SWAP1 POP JUMP JUMPDEST PUSH0 DUP2 SWAP1 POP SWAP2 SWAP1 POP JUMP JUMPDEST PUSH2 0x7EC DUP4 PUSH2 0x7B9 JUMP JUMPDEST PUSH2 0x800 PUSH2 0x7F8 DUP3 PUSH2 0x7DA JUMP JUMPDEST DUP5 DUP5 SLOAD PUSH2 0x75F JUMP JUMPDEST DUP3 SSTORE POP POP POP POP JUMP JUMPDEST PUSH0 SWAP1 JUMP JUMPDEST PUSH2 0x814 PUSH2 0x808 JUMP JUMPDEST PUSH2 0x81F DUP2 DUP5 DUP5 PUSH2 0x7E3 JUMP JUMPDEST POP POP POP JUMP JUMPDEST JUMPDEST DUP2 DUP2 LT ISZERO PUSH2 0x842 JUMPI PUSH2 0x837 PUSH0 DUP3 PUSH2 0x80C JUMP JUMPDEST PUSH1 0x1 DUP2 ADD SWAP1 POP PUSH2 0x825 JUMP JUMPDEST POP POP JUMP JUMPDEST PUSH1 0x1F DUP3 GT ISZERO PUSH2 0x887 JUMPI PUSH2 0x858 DUP2 PUSH2 0x732 JUMP JUMPDEST PUSH2 0x861 DUP5 PUSH2 0x744 JUMP JUMPDEST DUP2 ADD PUSH1 0x20 DUP6 LT ISZERO PUSH2 0x870 JUMPI DUP2 SWAP1 POP JUMPDEST PUSH2 0x884 PUSH2 0x87C DUP6 PUSH2 0x744 JUMP JUMPDEST DUP4 ADD DUP3 PUSH2 0x824 JUMP JUMPDEST POP POP JUMPDEST POP POP POP JUMP JUMPDEST PUSH0 DUP3 DUP3 SHR SWAP1 POP SWAP3 SWAP2 POP POP JUMP JUMPDEST PUSH0 PUSH2 0x8A7 PUSH0 NOT DUP5 PUSH1 0x8 MUL PUSH2 0x88C JUMP JUMPDEST NOT DUP1 DUP4 AND SWAP2 POP POP SWAP3 SWAP2 POP POP JUMP JUMPDEST PUSH0 PUSH2 0x8BF DUP4 DUP4 PUSH2 0x898 JUMP JUMPDEST SWAP2 POP DUP3 PUSH1 0x2 MUL DUP3 OR SWAP1 POP SWAP3 SWAP2 POP POP JUMP JUMPDEST PUSH2 0x8D8 DUP3 PUSH2 0x5F7 JUMP JUMPDEST PUSH8 0xFFFFFFFFFFFFFFFF DUP2 GT ISZERO PUSH2 0x8F1 JUMPI PUSH2 0x8F0 PUSH2 0x3AC JUMP JUMPDEST JUMPDEST PUSH2 0x8FB DUP3 SLOAD PUSH2 0x702 JUMP JUMPDEST PUSH2 0x906 DUP3 DUP3 DUP6 PUSH2 0x846 JUMP JUMPDEST PUSH0 PUSH1 0x20 SWAP1 POP PUSH1 0x1F DUP4 GT PUSH1 0x1 DUP2 EQ PUSH2 0x937 JUMPI PUSH0 DUP5 ISZERO PUSH2 0x925 JUMPI DUP3 DUP8 ADD MLOAD SWAP1 POP JUMPDEST PUSH2 0x92F DUP6 DUP3 PUSH2 0x8B4 JUMP JUMPDEST DUP7 SSTORE POP PUSH2 0x996 JUMP JUMPDEST PUSH1 0x1F NOT DUP5 AND PUSH2 0x945 DUP7 PUSH2 0x732 JUMP JUMPDEST PUSH0 JUMPDEST DUP3 DUP2 LT ISZERO PUSH2 0x96C JUMPI DUP5 DUP10 ADD MLOAD DUP3 SSTORE PUSH1 0x1 DUP3 ADD SWAP2 POP PUSH1 0x20 DUP6 ADD SWAP5 POP PUSH1 0x20 DUP2 ADD SWAP1 POP PUSH2 0x947 JUMP JUMPDEST DUP7 DUP4 LT ISZERO PUSH2 0x989 JUMPI DUP5 DUP10 ADD MLOAD PUSH2 0x985 PUSH1 0x1F DUP10 AND DUP3 PUSH2 0x898 JUMP JUMPDEST DUP4 SSTORE POP JUMPDEST PUSH1 0x1 PUSH1 0x2 DUP9 MUL ADD DUP9 SSTORE POP POP POP JUMPDEST POP POP POP POP POP POP JUMP JUMPDEST PUSH32 0x4E487B7100000000000000000000000000000000000000000000000000000000 PUSH0 MSTORE PUSH1 0x32 PUSH1 0x4 MSTORE PUSH1 0x24 PUSH0 REVERT INVALID LOG2 PUSH5 0x6970667358 0x22 SLT KECCAK256 0xF7 KECCAK256 0x27 CALL NOT ISZERO REVERT MULMOD 0xBD 0xE3 0x22 SWAP3 PUSH2 0xF27C 0xF 0x29 0xD8 DIV 0xEF COINBASE ADDMOD DUP12 PUSH21 0x21559AF1A456E27D64736F6C634300081A00330000 "
				},
				"gasEstimates": {
					"creation": {
						"codeDepositCost": "512200",
						"executionCost": "547",
						"totalCost": "512747"
					},
					"external": {
						"NametoNum(string)": "infinite",
						"add(string,uint256)": "infinite",
						"favourite(uint256)": "infinite",
						"retrieve(uint256)": "infinite",
						"retrieve1(string)": "infinite"
					}
				},
				"methodIdentifiers": {
					"NametoNum(string)": "bf597ea4",
					"add(string,uint256)": "36555b85",
					"favourite(uint256)": "5623e7fd",
					"retrieve(uint256)": "8f88708b",
					"retrieve1(string)": "2747f615"
				}
			},
			"storageLayout": {
				"storage": [
					{
						"astId": 10,
						"contract": "Assignments/program-fav(simpleMapping).sol:Fav",
						"label": "NametoNum",
						"offset": 0,
						"slot": "0",
						"type": "t_mapping(t_string_memory_ptr,t_uint256)"
					},
					{
						"astId": 14,
						"contract": "Assignments/program-fav(simpleMapping).sol:Fav",
						"label": "favourite",
						"offset": 0,
						"slot": "1",
						"type": "t_array(t_struct(Favourite)6_storage)dyn_storage"
					}
				],
				"types": {
					"t_array(t_struct(Favourite)6_storage)dyn_storage": {
						"base": "t_struct(Favourite)6_storage",
						"encoding": "dynamic_array",
						"label": "struct Fav.Favourite[]",
						"numberOfBytes": "32"
					},
					"t_mapping(t_string_memory_ptr,t_uint256)": {
						"encoding": "mapping",
						"key": "t_string_memory_ptr",
						"label": "mapping(string => uint256)",
						"numberOfBytes": "32",
						"value": "t_uint256"
					},
					"t_string_memory_ptr": {
						"encoding": "bytes",
						"label": "string",
						"numberOfBytes": "32"
					},
					"t_string_storage": {
						"encoding": "bytes",
						"label": "string",
						"numberOfBytes": "32"
					},
					"t_struct(Favourite)6_storage": {
						"encoding": "inplace",
						"label": "struct Fav.Favourite",
						"members": [
							{
								"astId": 3,
								"contract": "Assignments/program-fav(simpleMapping).sol:Fav",
								"label": "name",
								"offset": 0,
								"slot": "0",
								"type": "t_string_storage"
							},
							{
								"astId": 5,
								"contract": "Assignments/program-fav(simpleMapping).sol:Fav",
								"label": "num",
								"offset": 0,
								"slot": "1",
								"type": "t_uint256"
							}
						],
						"numberOfBytes": "64"
					},
					"t_uint256": {
						"encoding": "inplace",
						"label": "uint256",
						"numberOfBytes": "32"
					}
				}
			},
			"userdoc": {
				"kind": "user",
				"methods": {},
				"version": 1
			}
		}
	}
}