{
	"Assignments/UserProfile.sol": {
		"UserProfile": {
			"abi": [
				{
					"inputs": [
						{
							"internalType": "string",
							"name": "_name",
							"type": "string"
						},
						{
							"internalType": "uint256",
							"name": "_age",
							"type": "uint256"
						}
					],
					"name": "createProfile",
					"outputs": [],
					"stateMutability": "nonpayable",
					"type": "function"
				},
				{
					"inputs": [
						{
							"internalType": "address",
							"name": "_user",
							"type": "address"
						}
					],
					"name": "getProfile",
					"outputs": [
						{
							"internalType": "string",
							"name": "",
							"type": "string"
						},
						{
							"internalType": "uint256",
							"name": "",
							"type": "uint256"
						}
					],
					"stateMutability": "view",
					"type": "function"
				}
			],
			"devdoc": {
				"kind": "dev",
				"methods": {},
				"version": 1
			},
			"evm": {
				"assembly": "    /* \"Assignments/UserProfile.sol\":62:523  contract UserProfile {... */\n  mstore(0x40, 0x80)\n  callvalue\n  dup1\n  iszero\n  tag_1\n  jumpi\n  0x00\n  dup1\n  revert\ntag_1:\n  pop\n  dataSize(sub_0)\n  dup1\n  dataOffset(sub_0)\n  0x00\n  codecopy\n  0x00\n  return\nstop\n\nsub_0: assembly {\n        /* \"Assignments/UserProfile.sol\":62:523  contract UserProfile {... */\n      mstore(0x40, 0x80)\n      callvalue\n      dup1\n      iszero\n      tag_1\n      jumpi\n      0x00\n      dup1\n      revert\n    tag_1:\n      pop\n      jumpi(tag_2, lt(calldatasize, 0x04))\n      shr(0xe0, calldataload(0x00))\n      dup1\n      0x0f53a470\n      eq\n      tag_3\n      jumpi\n      dup1\n      0x5658bee1\n      eq\n      tag_4\n      jumpi\n    tag_2:\n      0x00\n      dup1\n      revert\n        /* \"Assignments/UserProfile.sol\":340:520  function getProfile(address _user) public view returns (string memory, uint){... */\n    tag_3:\n      tag_5\n      0x04\n      dup1\n      calldatasize\n      sub\n      dup2\n      add\n      swap1\n      tag_6\n      swap2\n      swap1\n      tag_7\n      jump\t// in\n    tag_6:\n      tag_8\n      jump\t// in\n    tag_5:\n      mload(0x40)\n      tag_9\n      swap3\n      swap2\n      swap1\n      tag_10\n      jump\t// in\n    tag_9:\n      mload(0x40)\n      dup1\n      swap2\n      sub\n      swap1\n      return\n        /* \"Assignments/UserProfile.sol\":211:334  function createProfile(string memory _name, uint _age) public{... */\n    tag_4:\n      tag_11\n      0x04\n      dup1\n      calldatasize\n      sub\n      dup2\n      add\n      swap1\n      tag_12\n      swap2\n      swap1\n      tag_13\n      jump\t// in\n    tag_12:\n      tag_14\n      jump\t// in\n    tag_11:\n      stop\n        /* \"Assignments/UserProfile.sol\":340:520  function getProfile(address _user) public view returns (string memory, uint){... */\n    tag_8:\n        /* \"Assignments/UserProfile.sol\":396:409  string memory */\n      0x60\n        /* \"Assignments/UserProfile.sol\":411:415  uint */\n      0x00\n        /* \"Assignments/UserProfile.sol\":427:449  Profile memory profile */\n      dup1\n        /* \"Assignments/UserProfile.sol\":452:460  profiles */\n      0x00\n        /* \"Assignments/UserProfile.sol\":452:467  profiles[_user] */\n      dup1\n        /* \"Assignments/UserProfile.sol\":461:466  _user */\n      dup6\n        /* \"Assignments/UserProfile.sol\":452:467  profiles[_user] */\n      0xffffffffffffffffffffffffffffffffffffffff\n      and\n      0xffffffffffffffffffffffffffffffffffffffff\n      and\n      dup2\n      mstore\n      0x20\n      add\n      swap1\n      dup2\n      mstore\n      0x20\n      add\n      0x00\n      keccak256\n        /* \"Assignments/UserProfile.sol\":427:467  Profile memory profile = profiles[_user] */\n      mload(0x40)\n      dup1\n      0x40\n      add\n      0x40\n      mstore\n      swap1\n      dup2\n      0x00\n      dup3\n      add\n      dup1\n      sload\n      tag_16\n      swap1\n      tag_17\n      jump\t// in\n    tag_16:\n      dup1\n      0x1f\n      add\n      0x20\n      dup1\n      swap2\n      div\n      mul\n      0x20\n      add\n      mload(0x40)\n      swap1\n      dup2\n      add\n      0x40\n      mstore\n      dup1\n      swap3\n      swap2\n      swap1\n      dup2\n      dup2\n      mstore\n      0x20\n      add\n      dup3\n      dup1\n      sload\n      tag_18\n      swap1\n      tag_17\n      jump\t// in\n    tag_18:\n      dup1\n      iszero\n      tag_19\n      jumpi\n      dup1\n      0x1f\n      lt\n      tag_20\n      jumpi\n      0x0100\n      dup1\n      dup4\n      sload\n      div\n      mul\n      dup4\n      mstore\n      swap2\n      0x20\n      add\n      swap2\n      jump(tag_19)\n    tag_20:\n      dup3\n      add\n      swap2\n      swap1\n      0x00\n      mstore\n      keccak256(0x00, 0x20)\n      swap1\n    tag_21:\n      dup2\n      sload\n      dup2\n      mstore\n      swap1\n      0x01\n      add\n      swap1\n      0x20\n      add\n      dup1\n      dup4\n      gt\n      tag_21\n      jumpi\n      dup3\n      swap1\n      sub\n      0x1f\n      and\n      dup3\n      add\n      swap2\n    tag_19:\n      pop\n      pop\n      pop\n      pop\n      pop\n      dup2\n      mstore\n      0x20\n      add\n      0x01\n      dup3\n      add\n      sload\n      dup2\n      mstore\n      pop\n      pop\n      swap1\n      pop\n        /* \"Assignments/UserProfile.sol\":486:493  profile */\n      dup1\n        /* \"Assignments/UserProfile.sol\":486:498  profile.name */\n      0x00\n      add\n      mload\n        /* \"Assignments/UserProfile.sol\":500:507  profile */\n      dup2\n        /* \"Assignments/UserProfile.sol\":500:511  profile.age */\n      0x20\n      add\n      mload\n        /* \"Assignments/UserProfile.sol\":478:512  return (profile.name, profile.age) */\n      swap3\n      pop\n      swap3\n      pop\n      pop\n        /* \"Assignments/UserProfile.sol\":340:520  function getProfile(address _user) public view returns (string memory, uint){... */\n      swap2\n      pop\n      swap2\n      jump\t// out\n        /* \"Assignments/UserProfile.sol\":211:334  function createProfile(string memory _name, uint _age) public{... */\n    tag_14:\n        /* \"Assignments/UserProfile.sol\":306:326  Profile(_name, _age) */\n      mload(0x40)\n      dup1\n      0x40\n      add\n      0x40\n      mstore\n      dup1\n        /* \"Assignments/UserProfile.sol\":314:319  _name */\n      dup4\n        /* \"Assignments/UserProfile.sol\":306:326  Profile(_name, _age) */\n      dup2\n      mstore\n      0x20\n      add\n        /* \"Assignments/UserProfile.sol\":321:325  _age */\n      dup3\n        /* \"Assignments/UserProfile.sol\":306:326  Profile(_name, _age) */\n      dup2\n      mstore\n      pop\n        /* \"Assignments/UserProfile.sol\":283:291  profiles */\n      0x00\n        /* \"Assignments/UserProfile.sol\":283:303  profiles[msg.sender] */\n      dup1\n        /* \"Assignments/UserProfile.sol\":292:302  msg.sender */\n      caller\n        /* \"Assignments/UserProfile.sol\":283:303  profiles[msg.sender] */\n      0xffffffffffffffffffffffffffffffffffffffff\n      and\n      0xffffffffffffffffffffffffffffffffffffffff\n      and\n      dup2\n      mstore\n      0x20\n      add\n      swap1\n      dup2\n      mstore\n      0x20\n      add\n      0x00\n      keccak256\n        /* \"Assignments/UserProfile.sol\":283:326  profiles[msg.sender] = Profile(_name, _age) */\n      0x00\n      dup3\n      add\n      mload\n      dup2\n      0x00\n      add\n      swap1\n      dup2\n      tag_23\n      swap2\n      swap1\n      tag_24\n      jump\t// in\n    tag_23:\n      pop\n      0x20\n      dup3\n      add\n      mload\n      dup2\n      0x01\n      add\n      sstore\n      swap1\n      pop\n      pop\n        /* \"Assignments/UserProfile.sol\":211:334  function createProfile(string memory _name, uint _age) public{... */\n      pop\n      pop\n      jump\t// out\n        /* \"#utility.yul\":7:82   */\n    tag_25:\n        /* \"#utility.yul\":40:46   */\n      0x00\n        /* \"#utility.yul\":73:75   */\n      0x40\n        /* \"#utility.yul\":67:76   */\n      mload\n        /* \"#utility.yul\":57:76   */\n      swap1\n      pop\n        /* \"#utility.yul\":7:82   */\n      swap1\n      jump\t// out\n        /* \"#utility.yul\":88:205   */\n    tag_26:\n        /* \"#utility.yul\":197:198   */\n      0x00\n        /* \"#utility.yul\":194:195   */\n      dup1\n        /* \"#utility.yul\":187:199   */\n      revert\n        /* \"#utility.yul\":211:328   */\n    tag_27:\n        /* \"#utility.yul\":320:321   */\n      0x00\n        /* \"#utility.yul\":317:318   */\n      dup1\n        /* \"#utility.yul\":310:322   */\n      revert\n        /* \"#utility.yul\":334:460   */\n    tag_28:\n        /* \"#utility.yul\":371:378   */\n      0x00\n        /* \"#utility.yul\":411:453   */\n      0xffffffffffffffffffffffffffffffffffffffff\n        /* \"#utility.yul\":404:409   */\n      dup3\n        /* \"#utility.yul\":400:454   */\n      and\n        /* \"#utility.yul\":389:454   */\n      swap1\n      pop\n        /* \"#utility.yul\":334:460   */\n      swap2\n      swap1\n      pop\n      jump\t// out\n        /* \"#utility.yul\":466:562   */\n    tag_29:\n        /* \"#utility.yul\":503:510   */\n      0x00\n        /* \"#utility.yul\":532:556   */\n      tag_72\n        /* \"#utility.yul\":550:555   */\n      dup3\n        /* \"#utility.yul\":532:556   */\n      tag_28\n      jump\t// in\n    tag_72:\n        /* \"#utility.yul\":521:556   */\n      swap1\n      pop\n        /* \"#utility.yul\":466:562   */\n      swap2\n      swap1\n      pop\n      jump\t// out\n        /* \"#utility.yul\":568:690   */\n    tag_30:\n        /* \"#utility.yul\":641:665   */\n      tag_74\n        /* \"#utility.yul\":659:664   */\n      dup2\n        /* \"#utility.yul\":641:665   */\n      tag_29\n      jump\t// in\n    tag_74:\n        /* \"#utility.yul\":634:639   */\n      dup2\n        /* \"#utility.yul\":631:666   */\n      eq\n        /* \"#utility.yul\":621:684   */\n      tag_75\n      jumpi\n        /* \"#utility.yul\":680:681   */\n      0x00\n        /* \"#utility.yul\":677:678   */\n      dup1\n        /* \"#utility.yul\":670:682   */\n      revert\n        /* \"#utility.yul\":621:684   */\n    tag_75:\n        /* \"#utility.yul\":568:690   */\n      pop\n      jump\t// out\n        /* \"#utility.yul\":696:835   */\n    tag_31:\n        /* \"#utility.yul\":742:747   */\n      0x00\n        /* \"#utility.yul\":780:786   */\n      dup2\n        /* \"#utility.yul\":767:787   */\n      calldataload\n        /* \"#utility.yul\":758:787   */\n      swap1\n      pop\n        /* \"#utility.yul\":796:829   */\n      tag_77\n        /* \"#utility.yul\":823:828   */\n      dup2\n        /* \"#utility.yul\":796:829   */\n      tag_30\n      jump\t// in\n    tag_77:\n        /* \"#utility.yul\":696:835   */\n      swap3\n      swap2\n      pop\n      pop\n      jump\t// out\n        /* \"#utility.yul\":841:1170   */\n    tag_7:\n        /* \"#utility.yul\":900:906   */\n      0x00\n        /* \"#utility.yul\":949:951   */\n      0x20\n        /* \"#utility.yul\":937:946   */\n      dup3\n        /* \"#utility.yul\":928:935   */\n      dup5\n        /* \"#utility.yul\":924:947   */\n      sub\n        /* \"#utility.yul\":920:952   */\n      slt\n        /* \"#utility.yul\":917:1036   */\n      iszero\n      tag_79\n      jumpi\n        /* \"#utility.yul\":955:1034   */\n      tag_80\n      tag_26\n      jump\t// in\n    tag_80:\n        /* \"#utility.yul\":917:1036   */\n    tag_79:\n        /* \"#utility.yul\":1075:1076   */\n      0x00\n        /* \"#utility.yul\":1100:1153   */\n      tag_81\n        /* \"#utility.yul\":1145:1152   */\n      dup5\n        /* \"#utility.yul\":1136:1142   */\n      dup3\n        /* \"#utility.yul\":1125:1134   */\n      dup6\n        /* \"#utility.yul\":1121:1143   */\n      add\n        /* \"#utility.yul\":1100:1153   */\n      tag_31\n      jump\t// in\n    tag_81:\n        /* \"#utility.yul\":1090:1153   */\n      swap2\n      pop\n        /* \"#utility.yul\":1046:1163   */\n      pop\n        /* \"#utility.yul\":841:1170   */\n      swap3\n      swap2\n      pop\n      pop\n      jump\t// out\n        /* \"#utility.yul\":1176:1275   */\n    tag_32:\n        /* \"#utility.yul\":1228:1234   */\n      0x00\n        /* \"#utility.yul\":1262:1267   */\n      dup2\n        /* \"#utility.yul\":1256:1268   */\n      mload\n        /* \"#utility.yul\":1246:1268   */\n      swap1\n      pop\n        /* \"#utility.yul\":1176:1275   */\n      swap2\n      swap1\n      pop\n      jump\t// out\n        /* \"#utility.yul\":1281:1450   */\n    tag_33:\n        /* \"#utility.yul\":1365:1376   */\n      0x00\n        /* \"#utility.yul\":1399:1405   */\n      dup3\n        /* \"#utility.yul\":1394:1397   */\n      dup3\n        /* \"#utility.yul\":1387:1406   */\n      mstore\n        /* \"#utility.yul\":1439:1443   */\n      0x20\n        /* \"#utility.yul\":1434:1437   */\n      dup3\n        /* \"#utility.yul\":1430:1444   */\n      add\n        /* \"#utility.yul\":1415:1444   */\n      swap1\n      pop\n        /* \"#utility.yul\":1281:1450   */\n      swap3\n      swap2\n      pop\n      pop\n      jump\t// out\n        /* \"#utility.yul\":1456:1595   */\n    tag_34:\n        /* \"#utility.yul\":1545:1551   */\n      dup3\n        /* \"#utility.yul\":1540:1543   */\n      dup2\n        /* \"#utility.yul\":1535:1538   */\n      dup4\n        /* \"#utility.yul\":1529:1552   */\n      mcopy\n        /* \"#utility.yul\":1586:1587   */\n      0x00\n        /* \"#utility.yul\":1577:1583   */\n      dup4\n        /* \"#utility.yul\":1572:1575   */\n      dup4\n        /* \"#utility.yul\":1568:1584   */\n      add\n        /* \"#utility.yul\":1561:1588   */\n      mstore\n        /* \"#utility.yul\":1456:1595   */\n      pop\n      pop\n      pop\n      jump\t// out\n        /* \"#utility.yul\":1601:1703   */\n    tag_35:\n        /* \"#utility.yul\":1642:1648   */\n      0x00\n        /* \"#utility.yul\":1693:1695   */\n      0x1f\n        /* \"#utility.yul\":1689:1696   */\n      not\n        /* \"#utility.yul\":1684:1686   */\n      0x1f\n        /* \"#utility.yul\":1677:1682   */\n      dup4\n        /* \"#utility.yul\":1673:1687   */\n      add\n        /* \"#utility.yul\":1669:1697   */\n      and\n        /* \"#utility.yul\":1659:1697   */\n      swap1\n      pop\n        /* \"#utility.yul\":1601:1703   */\n      swap2\n      swap1\n      pop\n      jump\t// out\n        /* \"#utility.yul\":1709:2086   */\n    tag_36:\n        /* \"#utility.yul\":1797:1800   */\n      0x00\n        /* \"#utility.yul\":1825:1864   */\n      tag_87\n        /* \"#utility.yul\":1858:1863   */\n      dup3\n        /* \"#utility.yul\":1825:1864   */\n      tag_32\n      jump\t// in\n    tag_87:\n        /* \"#utility.yul\":1880:1951   */\n      tag_88\n        /* \"#utility.yul\":1944:1950   */\n      dup2\n        /* \"#utility.yul\":1939:1942   */\n      dup6\n        /* \"#utility.yul\":1880:1951   */\n      tag_33\n      jump\t// in\n    tag_88:\n        /* \"#utility.yul\":1873:1951   */\n      swap4\n      pop\n        /* \"#utility.yul\":1960:2025   */\n      tag_89\n        /* \"#utility.yul\":2018:2024   */\n      dup2\n        /* \"#utility.yul\":2013:2016   */\n      dup6\n        /* \"#utility.yul\":2006:2010   */\n      0x20\n        /* \"#utility.yul\":1999:2004   */\n      dup7\n        /* \"#utility.yul\":1995:2011   */\n      add\n        /* \"#utility.yul\":1960:2025   */\n      tag_34\n      jump\t// in\n    tag_89:\n        /* \"#utility.yul\":2050:2079   */\n      tag_90\n        /* \"#utility.yul\":2072:2078   */\n      dup2\n        /* \"#utility.yul\":2050:2079   */\n      tag_35\n      jump\t// in\n    tag_90:\n        /* \"#utility.yul\":2045:2048   */\n      dup5\n        /* \"#utility.yul\":2041:2080   */\n      add\n        /* \"#utility.yul\":2034:2080   */\n      swap2\n      pop\n        /* \"#utility.yul\":1801:2086   */\n      pop\n        /* \"#utility.yul\":1709:2086   */\n      swap3\n      swap2\n      pop\n      pop\n      jump\t// out\n        /* \"#utility.yul\":2092:2169   */\n    tag_37:\n        /* \"#utility.yul\":2129:2136   */\n      0x00\n        /* \"#utility.yul\":2158:2163   */\n      dup2\n        /* \"#utility.yul\":2147:2163   */\n      swap1\n      pop\n        /* \"#utility.yul\":2092:2169   */\n      swap2\n      swap1\n      pop\n      jump\t// out\n        /* \"#utility.yul\":2175:2293   */\n    tag_38:\n        /* \"#utility.yul\":2262:2286   */\n      tag_93\n        /* \"#utility.yul\":2280:2285   */\n      dup2\n        /* \"#utility.yul\":2262:2286   */\n      tag_37\n      jump\t// in\n    tag_93:\n        /* \"#utility.yul\":2257:2260   */\n      dup3\n        /* \"#utility.yul\":2250:2287   */\n      mstore\n        /* \"#utility.yul\":2175:2293   */\n      pop\n      pop\n      jump\t// out\n        /* \"#utility.yul\":2299:2722   */\n    tag_10:\n        /* \"#utility.yul\":2440:2444   */\n      0x00\n        /* \"#utility.yul\":2478:2480   */\n      0x40\n        /* \"#utility.yul\":2467:2476   */\n      dup3\n        /* \"#utility.yul\":2463:2481   */\n      add\n        /* \"#utility.yul\":2455:2481   */\n      swap1\n      pop\n        /* \"#utility.yul\":2527:2536   */\n      dup2\n        /* \"#utility.yul\":2521:2525   */\n      dup2\n        /* \"#utility.yul\":2517:2537   */\n      sub\n        /* \"#utility.yul\":2513:2514   */\n      0x00\n        /* \"#utility.yul\":2502:2511   */\n      dup4\n        /* \"#utility.yul\":2498:2515   */\n      add\n        /* \"#utility.yul\":2491:2538   */\n      mstore\n        /* \"#utility.yul\":2555:2633   */\n      tag_95\n        /* \"#utility.yul\":2628:2632   */\n      dup2\n        /* \"#utility.yul\":2619:2625   */\n      dup6\n        /* \"#utility.yul\":2555:2633   */\n      tag_36\n      jump\t// in\n    tag_95:\n        /* \"#utility.yul\":2547:2633   */\n      swap1\n      pop\n        /* \"#utility.yul\":2643:2715   */\n      tag_96\n        /* \"#utility.yul\":2711:2713   */\n      0x20\n        /* \"#utility.yul\":2700:2709   */\n      dup4\n        /* \"#utility.yul\":2696:2714   */\n      add\n        /* \"#utility.yul\":2687:2693   */\n      dup5\n        /* \"#utility.yul\":2643:2715   */\n      tag_38\n      jump\t// in\n    tag_96:\n        /* \"#utility.yul\":2299:2722   */\n      swap4\n      swap3\n      pop\n      pop\n      pop\n      jump\t// out\n        /* \"#utility.yul\":2728:2845   */\n    tag_39:\n        /* \"#utility.yul\":2837:2838   */\n      0x00\n        /* \"#utility.yul\":2834:2835   */\n      dup1\n        /* \"#utility.yul\":2827:2839   */\n      revert\n        /* \"#utility.yul\":2851:2968   */\n    tag_40:\n        /* \"#utility.yul\":2960:2961   */\n      0x00\n        /* \"#utility.yul\":2957:2958   */\n      dup1\n        /* \"#utility.yul\":2950:2962   */\n      revert\n        /* \"#utility.yul\":2974:3154   */\n    tag_41:\n        /* \"#utility.yul\":3022:3099   */\n      0x4e487b7100000000000000000000000000000000000000000000000000000000\n        /* \"#utility.yul\":3019:3020   */\n      0x00\n        /* \"#utility.yul\":3012:3100   */\n      mstore\n        /* \"#utility.yul\":3119:3123   */\n      0x41\n        /* \"#utility.yul\":3116:3117   */\n      0x04\n        /* \"#utility.yul\":3109:3124   */\n      mstore\n        /* \"#utility.yul\":3143:3147   */\n      0x24\n        /* \"#utility.yul\":3140:3141   */\n      0x00\n        /* \"#utility.yul\":3133:3148   */\n      revert\n        /* \"#utility.yul\":3160:3441   */\n    tag_42:\n        /* \"#utility.yul\":3243:3270   */\n      tag_101\n        /* \"#utility.yul\":3265:3269   */\n      dup3\n        /* \"#utility.yul\":3243:3270   */\n      tag_35\n      jump\t// in\n    tag_101:\n        /* \"#utility.yul\":3235:3241   */\n      dup2\n        /* \"#utility.yul\":3231:3271   */\n      add\n        /* \"#utility.yul\":3373:3379   */\n      dup2\n        /* \"#utility.yul\":3361:3371   */\n      dup2\n        /* \"#utility.yul\":3358:3380   */\n      lt\n        /* \"#utility.yul\":3337:3355   */\n      0xffffffffffffffff\n        /* \"#utility.yul\":3325:3335   */\n      dup3\n        /* \"#utility.yul\":3322:3356   */\n      gt\n        /* \"#utility.yul\":3319:3381   */\n      or\n        /* \"#utility.yul\":3316:3404   */\n      iszero\n      tag_102\n      jumpi\n        /* \"#utility.yul\":3384:3402   */\n      tag_103\n      tag_41\n      jump\t// in\n    tag_103:\n        /* \"#utility.yul\":3316:3404   */\n    tag_102:\n        /* \"#utility.yul\":3424:3434   */\n      dup1\n        /* \"#utility.yul\":3420:3422   */\n      0x40\n        /* \"#utility.yul\":3413:3435   */\n      mstore\n        /* \"#utility.yul\":3203:3441   */\n      pop\n        /* \"#utility.yul\":3160:3441   */\n      pop\n      pop\n      jump\t// out\n        /* \"#utility.yul\":3447:3576   */\n    tag_43:\n        /* \"#utility.yul\":3481:3487   */\n      0x00\n        /* \"#utility.yul\":3508:3528   */\n      tag_105\n      tag_25\n      jump\t// in\n    tag_105:\n        /* \"#utility.yul\":3498:3528   */\n      swap1\n      pop\n        /* \"#utility.yul\":3537:3570   */\n      tag_106\n        /* \"#utility.yul\":3565:3569   */\n      dup3\n        /* \"#utility.yul\":3557:3563   */\n      dup3\n        /* \"#utility.yul\":3537:3570   */\n      tag_42\n      jump\t// in\n    tag_106:\n        /* \"#utility.yul\":3447:3576   */\n      swap2\n      swap1\n      pop\n      jump\t// out\n        /* \"#utility.yul\":3582:3890   */\n    tag_44:\n        /* \"#utility.yul\":3644:3648   */\n      0x00\n        /* \"#utility.yul\":3734:3752   */\n      0xffffffffffffffff\n        /* \"#utility.yul\":3726:3732   */\n      dup3\n        /* \"#utility.yul\":3723:3753   */\n      gt\n        /* \"#utility.yul\":3720:3776   */\n      iszero\n      tag_108\n      jumpi\n        /* \"#utility.yul\":3756:3774   */\n      tag_109\n      tag_41\n      jump\t// in\n    tag_109:\n        /* \"#utility.yul\":3720:3776   */\n    tag_108:\n        /* \"#utility.yul\":3794:3823   */\n      tag_110\n        /* \"#utility.yul\":3816:3822   */\n      dup3\n        /* \"#utility.yul\":3794:3823   */\n      tag_35\n      jump\t// in\n    tag_110:\n        /* \"#utility.yul\":3786:3823   */\n      swap1\n      pop\n        /* \"#utility.yul\":3878:3882   */\n      0x20\n        /* \"#utility.yul\":3872:3876   */\n      dup2\n        /* \"#utility.yul\":3868:3883   */\n      add\n        /* \"#utility.yul\":3860:3883   */\n      swap1\n      pop\n        /* \"#utility.yul\":3582:3890   */\n      swap2\n      swap1\n      pop\n      jump\t// out\n        /* \"#utility.yul\":3896:4044   */\n    tag_45:\n        /* \"#utility.yul\":3994:4000   */\n      dup3\n        /* \"#utility.yul\":3989:3992   */\n      dup2\n        /* \"#utility.yul\":3984:3987   */\n      dup4\n        /* \"#utility.yul\":3971:4001   */\n      calldatacopy\n        /* \"#utility.yul\":4035:4036   */\n      0x00\n        /* \"#utility.yul\":4026:4032   */\n      dup4\n        /* \"#utility.yul\":4021:4024   */\n      dup4\n        /* \"#utility.yul\":4017:4033   */\n      add\n        /* \"#utility.yul\":4010:4037   */\n      mstore\n        /* \"#utility.yul\":3896:4044   */\n      pop\n      pop\n      pop\n      jump\t// out\n        /* \"#utility.yul\":4050:4475   */\n    tag_46:\n        /* \"#utility.yul\":4128:4133   */\n      0x00\n        /* \"#utility.yul\":4153:4219   */\n      tag_113\n        /* \"#utility.yul\":4169:4218   */\n      tag_114\n        /* \"#utility.yul\":4211:4217   */\n      dup5\n        /* \"#utility.yul\":4169:4218   */\n      tag_44\n      jump\t// in\n    tag_114:\n        /* \"#utility.yul\":4153:4219   */\n      tag_43\n      jump\t// in\n    tag_113:\n        /* \"#utility.yul\":4144:4219   */\n      swap1\n      pop\n        /* \"#utility.yul\":4242:4248   */\n      dup3\n        /* \"#utility.yul\":4235:4240   */\n      dup2\n        /* \"#utility.yul\":4228:4249   */\n      mstore\n        /* \"#utility.yul\":4280:4284   */\n      0x20\n        /* \"#utility.yul\":4273:4278   */\n      dup2\n        /* \"#utility.yul\":4269:4285   */\n      add\n        /* \"#utility.yul\":4318:4321   */\n      dup5\n        /* \"#utility.yul\":4309:4315   */\n      dup5\n        /* \"#utility.yul\":4304:4307   */\n      dup5\n        /* \"#utility.yul\":4300:4316   */\n      add\n        /* \"#utility.yul\":4297:4322   */\n      gt\n        /* \"#utility.yul\":4294:4406   */\n      iszero\n      tag_115\n      jumpi\n        /* \"#utility.yul\":4325:4404   */\n      tag_116\n      tag_40\n      jump\t// in\n    tag_116:\n        /* \"#utility.yul\":4294:4406   */\n    tag_115:\n        /* \"#utility.yul\":4415:4469   */\n      tag_117\n        /* \"#utility.yul\":4462:4468   */\n      dup5\n        /* \"#utility.yul\":4457:4460   */\n      dup3\n        /* \"#utility.yul\":4452:4455   */\n      dup6\n        /* \"#utility.yul\":4415:4469   */\n      tag_45\n      jump\t// in\n    tag_117:\n        /* \"#utility.yul\":4134:4475   */\n      pop\n        /* \"#utility.yul\":4050:4475   */\n      swap4\n      swap3\n      pop\n      pop\n      pop\n      jump\t// out\n        /* \"#utility.yul\":4495:4835   */\n    tag_47:\n        /* \"#utility.yul\":4551:4556   */\n      0x00\n        /* \"#utility.yul\":4600:4603   */\n      dup3\n        /* \"#utility.yul\":4593:4597   */\n      0x1f\n        /* \"#utility.yul\":4585:4591   */\n      dup4\n        /* \"#utility.yul\":4581:4598   */\n      add\n        /* \"#utility.yul\":4577:4604   */\n      slt\n        /* \"#utility.yul\":4567:4689   */\n      tag_119\n      jumpi\n        /* \"#utility.yul\":4608:4687   */\n      tag_120\n      tag_39\n      jump\t// in\n    tag_120:\n        /* \"#utility.yul\":4567:4689   */\n    tag_119:\n        /* \"#utility.yul\":4725:4731   */\n      dup2\n        /* \"#utility.yul\":4712:4732   */\n      calldataload\n        /* \"#utility.yul\":4750:4829   */\n      tag_121\n        /* \"#utility.yul\":4825:4828   */\n      dup5\n        /* \"#utility.yul\":4817:4823   */\n      dup3\n        /* \"#utility.yul\":4810:4814   */\n      0x20\n        /* \"#utility.yul\":4802:4808   */\n      dup7\n        /* \"#utility.yul\":4798:4815   */\n      add\n        /* \"#utility.yul\":4750:4829   */\n      tag_46\n      jump\t// in\n    tag_121:\n        /* \"#utility.yul\":4741:4829   */\n      swap2\n      pop\n        /* \"#utility.yul\":4557:4835   */\n      pop\n        /* \"#utility.yul\":4495:4835   */\n      swap3\n      swap2\n      pop\n      pop\n      jump\t// out\n        /* \"#utility.yul\":4841:4963   */\n    tag_48:\n        /* \"#utility.yul\":4914:4938   */\n      tag_123\n        /* \"#utility.yul\":4932:4937   */\n      dup2\n        /* \"#utility.yul\":4914:4938   */\n      tag_37\n      jump\t// in\n    tag_123:\n        /* \"#utility.yul\":4907:4912   */\n      dup2\n        /* \"#utility.yul\":4904:4939   */\n      eq\n        /* \"#utility.yul\":4894:4957   */\n      tag_124\n      jumpi\n        /* \"#utility.yul\":4953:4954   */\n      0x00\n        /* \"#utility.yul\":4950:4951   */\n      dup1\n        /* \"#utility.yul\":4943:4955   */\n      revert\n        /* \"#utility.yul\":4894:4957   */\n    tag_124:\n        /* \"#utility.yul\":4841:4963   */\n      pop\n      jump\t// out\n        /* \"#utility.yul\":4969:5108   */\n    tag_49:\n        /* \"#utility.yul\":5015:5020   */\n      0x00\n        /* \"#utility.yul\":5053:5059   */\n      dup2\n        /* \"#utility.yul\":5040:5060   */\n      calldataload\n        /* \"#utility.yul\":5031:5060   */\n      swap1\n      pop\n        /* \"#utility.yul\":5069:5102   */\n      tag_126\n        /* \"#utility.yul\":5096:5101   */\n      dup2\n        /* \"#utility.yul\":5069:5102   */\n      tag_48\n      jump\t// in\n    tag_126:\n        /* \"#utility.yul\":4969:5108   */\n      swap3\n      swap2\n      pop\n      pop\n      jump\t// out\n        /* \"#utility.yul\":5114:5768   */\n    tag_13:\n        /* \"#utility.yul\":5192:5198   */\n      0x00\n        /* \"#utility.yul\":5200:5206   */\n      dup1\n        /* \"#utility.yul\":5249:5251   */\n      0x40\n        /* \"#utility.yul\":5237:5246   */\n      dup4\n        /* \"#utility.yul\":5228:5235   */\n      dup6\n        /* \"#utility.yul\":5224:5247   */\n      sub\n        /* \"#utility.yul\":5220:5252   */\n      slt\n        /* \"#utility.yul\":5217:5336   */\n      iszero\n      tag_128\n      jumpi\n        /* \"#utility.yul\":5255:5334   */\n      tag_129\n      tag_26\n      jump\t// in\n    tag_129:\n        /* \"#utility.yul\":5217:5336   */\n    tag_128:\n        /* \"#utility.yul\":5403:5404   */\n      0x00\n        /* \"#utility.yul\":5392:5401   */\n      dup4\n        /* \"#utility.yul\":5388:5405   */\n      add\n        /* \"#utility.yul\":5375:5406   */\n      calldataload\n        /* \"#utility.yul\":5433:5451   */\n      0xffffffffffffffff\n        /* \"#utility.yul\":5425:5431   */\n      dup2\n        /* \"#utility.yul\":5422:5452   */\n      gt\n        /* \"#utility.yul\":5419:5536   */\n      iszero\n      tag_130\n      jumpi\n        /* \"#utility.yul\":5455:5534   */\n      tag_131\n      tag_27\n      jump\t// in\n    tag_131:\n        /* \"#utility.yul\":5419:5536   */\n    tag_130:\n        /* \"#utility.yul\":5560:5623   */\n      tag_132\n        /* \"#utility.yul\":5615:5622   */\n      dup6\n        /* \"#utility.yul\":5606:5612   */\n      dup3\n        /* \"#utility.yul\":5595:5604   */\n      dup7\n        /* \"#utility.yul\":5591:5613   */\n      add\n        /* \"#utility.yul\":5560:5623   */\n      tag_47\n      jump\t// in\n    tag_132:\n        /* \"#utility.yul\":5550:5623   */\n      swap3\n      pop\n        /* \"#utility.yul\":5346:5633   */\n      pop\n        /* \"#utility.yul\":5672:5674   */\n      0x20\n        /* \"#utility.yul\":5698:5751   */\n      tag_133\n        /* \"#utility.yul\":5743:5750   */\n      dup6\n        /* \"#utility.yul\":5734:5740   */\n      dup3\n        /* \"#utility.yul\":5723:5732   */\n      dup7\n        /* \"#utility.yul\":5719:5741   */\n      add\n        /* \"#utility.yul\":5698:5751   */\n      tag_49\n      jump\t// in\n    tag_133:\n        /* \"#utility.yul\":5688:5751   */\n      swap2\n      pop\n        /* \"#utility.yul\":5643:5761   */\n      pop\n        /* \"#utility.yul\":5114:5768   */\n      swap3\n      pop\n      swap3\n      swap1\n      pop\n      jump\t// out\n        /* \"#utility.yul\":5774:5954   */\n    tag_50:\n        /* \"#utility.yul\":5822:5899   */\n      0x4e487b7100000000000000000000000000000000000000000000000000000000\n        /* \"#utility.yul\":5819:5820   */\n      0x00\n        /* \"#utility.yul\":5812:5900   */\n      mstore\n        /* \"#utility.yul\":5919:5923   */\n      0x22\n        /* \"#utility.yul\":5916:5917   */\n      0x04\n        /* \"#utility.yul\":5909:5924   */\n      mstore\n        /* \"#utility.yul\":5943:5947   */\n      0x24\n        /* \"#utility.yul\":5940:5941   */\n      0x00\n        /* \"#utility.yul\":5933:5948   */\n      revert\n        /* \"#utility.yul\":5960:6280   */\n    tag_17:\n        /* \"#utility.yul\":6004:6010   */\n      0x00\n        /* \"#utility.yul\":6041:6042   */\n      0x02\n        /* \"#utility.yul\":6035:6039   */\n      dup3\n        /* \"#utility.yul\":6031:6043   */\n      div\n        /* \"#utility.yul\":6021:6043   */\n      swap1\n      pop\n        /* \"#utility.yul\":6088:6089   */\n      0x01\n        /* \"#utility.yul\":6082:6086   */\n      dup3\n        /* \"#utility.yul\":6078:6090   */\n      and\n        /* \"#utility.yul\":6109:6127   */\n      dup1\n        /* \"#utility.yul\":6099:6180   */\n      tag_136\n      jumpi\n        /* \"#utility.yul\":6165:6169   */\n      0x7f\n        /* \"#utility.yul\":6157:6163   */\n      dup3\n        /* \"#utility.yul\":6153:6170   */\n      and\n        /* \"#utility.yul\":6143:6170   */\n      swap2\n      pop\n        /* \"#utility.yul\":6099:6180   */\n    tag_136:\n        /* \"#utility.yul\":6227:6229   */\n      0x20\n        /* \"#utility.yul\":6219:6225   */\n      dup3\n        /* \"#utility.yul\":6216:6230   */\n      lt\n        /* \"#utility.yul\":6196:6214   */\n      dup2\n        /* \"#utility.yul\":6193:6231   */\n      sub\n        /* \"#utility.yul\":6190:6274   */\n      tag_137\n      jumpi\n        /* \"#utility.yul\":6246:6264   */\n      tag_138\n      tag_50\n      jump\t// in\n    tag_138:\n        /* \"#utility.yul\":6190:6274   */\n    tag_137:\n        /* \"#utility.yul\":6011:6280   */\n      pop\n        /* \"#utility.yul\":5960:6280   */\n      swap2\n      swap1\n      pop\n      jump\t// out\n        /* \"#utility.yul\":6286:6427   */\n    tag_51:\n        /* \"#utility.yul\":6335:6339   */\n      0x00\n        /* \"#utility.yul\":6358:6361   */\n      dup2\n        /* \"#utility.yul\":6350:6361   */\n      swap1\n      pop\n        /* \"#utility.yul\":6381:6384   */\n      dup2\n        /* \"#utility.yul\":6378:6379   */\n      0x00\n        /* \"#utility.yul\":6371:6385   */\n      mstore\n        /* \"#utility.yul\":6415:6419   */\n      0x20\n        /* \"#utility.yul\":6412:6413   */\n      0x00\n        /* \"#utility.yul\":6402:6420   */\n      keccak256\n        /* \"#utility.yul\":6394:6420   */\n      swap1\n      pop\n        /* \"#utility.yul\":6286:6427   */\n      swap2\n      swap1\n      pop\n      jump\t// out\n        /* \"#utility.yul\":6433:6526   */\n    tag_52:\n        /* \"#utility.yul\":6470:6476   */\n      0x00\n        /* \"#utility.yul\":6517:6519   */\n      0x20\n        /* \"#utility.yul\":6512:6514   */\n      0x1f\n        /* \"#utility.yul\":6505:6510   */\n      dup4\n        /* \"#utility.yul\":6501:6515   */\n      add\n        /* \"#utility.yul\":6497:6520   */\n      div\n        /* \"#utility.yul\":6487:6520   */\n      swap1\n      pop\n        /* \"#utility.yul\":6433:6526   */\n      swap2\n      swap1\n      pop\n      jump\t// out\n        /* \"#utility.yul\":6532:6639   */\n    tag_53:\n        /* \"#utility.yul\":6576:6584   */\n      0x00\n        /* \"#utility.yul\":6626:6631   */\n      dup3\n        /* \"#utility.yul\":6620:6624   */\n      dup3\n        /* \"#utility.yul\":6616:6632   */\n      shl\n        /* \"#utility.yul\":6595:6632   */\n      swap1\n      pop\n        /* \"#utility.yul\":6532:6639   */\n      swap3\n      swap2\n      pop\n      pop\n      jump\t// out\n        /* \"#utility.yul\":6645:7038   */\n    tag_54:\n        /* \"#utility.yul\":6714:6720   */\n      0x00\n        /* \"#utility.yul\":6764:6765   */\n      0x08\n        /* \"#utility.yul\":6752:6762   */\n      dup4\n        /* \"#utility.yul\":6748:6766   */\n      mul\n        /* \"#utility.yul\":6787:6884   */\n      tag_143\n        /* \"#utility.yul\":6817:6883   */\n      0xffffffffffffffffffffffffffffffffffffffffffffffffffffffffffffffff\n        /* \"#utility.yul\":6806:6815   */\n      dup3\n        /* \"#utility.yul\":6787:6884   */\n      tag_53\n      jump\t// in\n    tag_143:\n        /* \"#utility.yul\":6905:6944   */\n      tag_144\n        /* \"#utility.yul\":6935:6943   */\n      dup7\n        /* \"#utility.yul\":6924:6933   */\n      dup4\n        /* \"#utility.yul\":6905:6944   */\n      tag_53\n      jump\t// in\n    tag_144:\n        /* \"#utility.yul\":6893:6944   */\n      swap6\n      pop\n        /* \"#utility.yul\":6977:6981   */\n      dup1\n        /* \"#utility.yul\":6973:6982   */\n      not\n        /* \"#utility.yul\":6966:6971   */\n      dup5\n        /* \"#utility.yul\":6962:6983   */\n      and\n        /* \"#utility.yul\":6953:6983   */\n      swap4\n      pop\n        /* \"#utility.yul\":7026:7030   */\n      dup1\n        /* \"#utility.yul\":7016:7024   */\n      dup7\n        /* \"#utility.yul\":7012:7031   */\n      and\n        /* \"#utility.yul\":7005:7010   */\n      dup5\n        /* \"#utility.yul\":7002:7032   */\n      or\n        /* \"#utility.yul\":6992:7032   */\n      swap3\n      pop\n        /* \"#utility.yul\":6721:7038   */\n      pop\n      pop\n        /* \"#utility.yul\":6645:7038   */\n      swap4\n      swap3\n      pop\n      pop\n      pop\n      jump\t// out\n        /* \"#utility.yul\":7044:7104   */\n    tag_55:\n        /* \"#utility.yul\":7072:7075   */\n      0x00\n        /* \"#utility.yul\":7093:7098   */\n      dup2\n        /* \"#utility.yul\":7086:7098   */\n      swap1\n      pop\n        /* \"#utility.yul\":7044:7104   */\n      swap2\n      swap1\n      pop\n      jump\t// out\n        /* \"#utility.yul\":7110:7252   */\n    tag_56:\n        /* \"#utility.yul\":7160:7169   */\n      0x00\n        /* \"#utility.yul\":7193:7246   */\n      tag_147\n        /* \"#utility.yul\":7211:7245   */\n      tag_148\n        /* \"#utility.yul\":7220:7244   */\n      tag_149\n        /* \"#utility.yul\":7238:7243   */\n      dup5\n        /* \"#utility.yul\":7220:7244   */\n      tag_37\n      jump\t// in\n    tag_149:\n        /* \"#utility.yul\":7211:7245   */\n      tag_55\n      jump\t// in\n    tag_148:\n        /* \"#utility.yul\":7193:7246   */\n      tag_37\n      jump\t// in\n    tag_147:\n        /* \"#utility.yul\":7180:7246   */\n      swap1\n      pop\n        /* \"#utility.yul\":7110:7252   */\n      swap2\n      swap1\n      pop\n      jump\t// out\n        /* \"#utility.yul\":7258:7333   */\n    tag_57:\n        /* \"#utility.yul\":7301:7304   */\n      0x00\n        /* \"#utility.yul\":7322:7327   */\n      dup2\n        /* \"#utility.yul\":7315:7327   */\n      swap1\n      pop\n        /* \"#utility.yul\":7258:7333   */\n      swap2\n      swap1\n      pop\n      jump\t// out\n        /* \"#utility.yul\":7339:7608   */\n    tag_58:\n        /* \"#utility.yul\":7449:7488   */\n      tag_152\n        /* \"#utility.yul\":7480:7487   */\n      dup4\n        /* \"#utility.yul\":7449:7488   */\n      tag_56\n      jump\t// in\n    tag_152:\n        /* \"#utility.yul\":7510:7601   */\n      tag_153\n        /* \"#utility.yul\":7559:7600   */\n      tag_154\n        /* \"#utility.yul\":7583:7599   */\n      dup3\n        /* \"#utility.yul\":7559:7600   */\n      tag_57\n      jump\t// in\n    tag_154:\n        /* \"#utility.yul\":7551:7557   */\n      dup5\n        /* \"#utility.yul\":7544:7548   */\n      dup5\n        /* \"#utility.yul\":7538:7549   */\n      sload\n        /* \"#utility.yul\":7510:7601   */\n      tag_54\n      jump\t// in\n    tag_153:\n        /* \"#utility.yul\":7504:7508   */\n      dup3\n        /* \"#utility.yul\":7497:7602   */\n      sstore\n        /* \"#utility.yul\":7415:7608   */\n      pop\n        /* \"#utility.yul\":7339:7608   */\n      pop\n      pop\n      pop\n      jump\t// out\n        /* \"#utility.yul\":7614:7687   */\n    tag_59:\n        /* \"#utility.yul\":7659:7662   */\n      0x00\n        /* \"#utility.yul\":7614:7687   */\n      swap1\n      jump\t// out\n        /* \"#utility.yul\":7693:7882   */\n    tag_60:\n        /* \"#utility.yul\":7770:7802   */\n      tag_157\n      tag_59\n      jump\t// in\n    tag_157:\n        /* \"#utility.yul\":7811:7876   */\n      tag_158\n        /* \"#utility.yul\":7869:7875   */\n      dup2\n        /* \"#utility.yul\":7861:7867   */\n      dup5\n        /* \"#utility.yul\":7855:7859   */\n      dup5\n        /* \"#utility.yul\":7811:7876   */\n      tag_58\n      jump\t// in\n    tag_158:\n        /* \"#utility.yul\":7746:7882   */\n      pop\n        /* \"#utility.yul\":7693:7882   */\n      pop\n      pop\n      jump\t// out\n        /* \"#utility.yul\":7888:8074   */\n    tag_61:\n        /* \"#utility.yul\":7948:8068   */\n    tag_160:\n        /* \"#utility.yul\":7965:7968   */\n      dup2\n        /* \"#utility.yul\":7958:7963   */\n      dup2\n        /* \"#utility.yul\":7955:7969   */\n      lt\n        /* \"#utility.yul\":7948:8068   */\n      iszero\n      tag_162\n      jumpi\n        /* \"#utility.yul\":8019:8058   */\n      tag_163\n        /* \"#utility.yul\":8056:8057   */\n      0x00\n        /* \"#utility.yul\":8049:8054   */\n      dup3\n        /* \"#utility.yul\":8019:8058   */\n      tag_60\n      jump\t// in\n    tag_163:\n        /* \"#utility.yul\":7992:7993   */\n      0x01\n        /* \"#utility.yul\":7985:7990   */\n      dup2\n        /* \"#utility.yul\":7981:7994   */\n      add\n        /* \"#utility.yul\":7972:7994   */\n      swap1\n      pop\n        /* \"#utility.yul\":7948:8068   */\n      jump(tag_160)\n    tag_162:\n        /* \"#utility.yul\":7888:8074   */\n      pop\n      pop\n      jump\t// out\n        /* \"#utility.yul\":8080:8623   */\n    tag_62:\n        /* \"#utility.yul\":8181:8183   */\n      0x1f\n        /* \"#utility.yul\":8176:8179   */\n      dup3\n        /* \"#utility.yul\":8173:8184   */\n      gt\n        /* \"#utility.yul\":8170:8616   */\n      iszero\n      tag_165\n      jumpi\n        /* \"#utility.yul\":8215:8253   */\n      tag_166\n        /* \"#utility.yul\":8247:8252   */\n      dup2\n        /* \"#utility.yul\":8215:8253   */\n      tag_51\n      jump\t// in\n    tag_166:\n        /* \"#utility.yul\":8299:8328   */\n      tag_167\n        /* \"#utility.yul\":8317:8327   */\n      dup5\n        /* \"#utility.yul\":8299:8328   */\n      tag_52\n      jump\t// in\n    tag_167:\n        /* \"#utility.yul\":8289:8297   */\n      dup2\n        /* \"#utility.yul\":8285:8329   */\n      add\n        /* \"#utility.yul\":8482:8484   */\n      0x20\n        /* \"#utility.yul\":8470:8480   */\n      dup6\n        /* \"#utility.yul\":8467:8485   */\n      lt\n        /* \"#utility.yul\":8464:8513   */\n      iszero\n      tag_168\n      jumpi\n        /* \"#utility.yul\":8503:8511   */\n      dup2\n        /* \"#utility.yul\":8488:8511   */\n      swap1\n      pop\n        /* \"#utility.yul\":8464:8513   */\n    tag_168:\n        /* \"#utility.yul\":8526:8606   */\n      tag_169\n        /* \"#utility.yul\":8582:8604   */\n      tag_170\n        /* \"#utility.yul\":8600:8603   */\n      dup6\n        /* \"#utility.yul\":8582:8604   */\n      tag_52\n      jump\t// in\n    tag_170:\n        /* \"#utility.yul\":8572:8580   */\n      dup4\n        /* \"#utility.yul\":8568:8605   */\n      add\n        /* \"#utility.yul\":8555:8566   */\n      dup3\n        /* \"#utility.yul\":8526:8606   */\n      tag_61\n      jump\t// in\n    tag_169:\n        /* \"#utility.yul\":8185:8616   */\n      pop\n      pop\n        /* \"#utility.yul\":8170:8616   */\n    tag_165:\n        /* \"#utility.yul\":8080:8623   */\n      pop\n      pop\n      pop\n      jump\t// out\n        /* \"#utility.yul\":8629:8746   */\n    tag_63:\n        /* \"#utility.yul\":8683:8691   */\n      0x00\n        /* \"#utility.yul\":8733:8738   */\n      dup3\n        /* \"#utility.yul\":8727:8731   */\n      dup3\n        /* \"#utility.yul\":8723:8739   */\n      shr\n        /* \"#utility.yul\":8702:8739   */\n      swap1\n      pop\n        /* \"#utility.yul\":8629:8746   */\n      swap3\n      swap2\n      pop\n      pop\n      jump\t// out\n        /* \"#utility.yul\":8752:8921   */\n    tag_64:\n        /* \"#utility.yul\":8796:8802   */\n      0x00\n        /* \"#utility.yul\":8829:8880   */\n      tag_173\n        /* \"#utility.yul\":8877:8878   */\n      0x00\n        /* \"#utility.yul\":8873:8879   */\n      not\n        /* \"#utility.yul\":8865:8870   */\n      dup5\n        /* \"#utility.yul\":8862:8863   */\n      0x08\n        /* \"#utility.yul\":8858:8871   */\n      mul\n        /* \"#utility.yul\":8829:8880   */\n      tag_63\n      jump\t// in\n    tag_173:\n        /* \"#utility.yul\":8825:8881   */\n      not\n        /* \"#utility.yul\":8910:8914   */\n      dup1\n        /* \"#utility.yul\":8904:8908   */\n      dup4\n        /* \"#utility.yul\":8900:8915   */\n      and\n        /* \"#utility.yul\":8890:8915   */\n      swap2\n      pop\n        /* \"#utility.yul\":8803:8921   */\n      pop\n        /* \"#utility.yul\":8752:8921   */\n      swap3\n      swap2\n      pop\n      pop\n      jump\t// out\n        /* \"#utility.yul\":8926:9221   */\n    tag_65:\n        /* \"#utility.yul\":9002:9006   */\n      0x00\n        /* \"#utility.yul\":9148:9177   */\n      tag_175\n        /* \"#utility.yul\":9173:9176   */\n      dup4\n        /* \"#utility.yul\":9167:9171   */\n      dup4\n        /* \"#utility.yul\":9148:9177   */\n      tag_64\n      jump\t// in\n    tag_175:\n        /* \"#utility.yul\":9140:9177   */\n      swap2\n      pop\n        /* \"#utility.yul\":9210:9213   */\n      dup3\n        /* \"#utility.yul\":9207:9208   */\n      0x02\n        /* \"#utility.yul\":9203:9214   */\n      mul\n        /* \"#utility.yul\":9197:9201   */\n      dup3\n        /* \"#utility.yul\":9194:9215   */\n      or\n        /* \"#utility.yul\":9186:9215   */\n      swap1\n      pop\n        /* \"#utility.yul\":8926:9221   */\n      swap3\n      swap2\n      pop\n      pop\n      jump\t// out\n        /* \"#utility.yul\":9226:10621   */\n    tag_24:\n        /* \"#utility.yul\":9343:9380   */\n      tag_177\n        /* \"#utility.yul\":9376:9379   */\n      dup3\n        /* \"#utility.yul\":9343:9380   */\n      tag_32\n      jump\t// in\n    tag_177:\n        /* \"#utility.yul\":9445:9463   */\n      0xffffffffffffffff\n        /* \"#utility.yul\":9437:9443   */\n      dup2\n        /* \"#utility.yul\":9434:9464   */\n      gt\n        /* \"#utility.yul\":9431:9487   */\n      iszero\n      tag_178\n      jumpi\n        /* \"#utility.yul\":9467:9485   */\n      tag_179\n      tag_41\n      jump\t// in\n    tag_179:\n        /* \"#utility.yul\":9431:9487   */\n    tag_178:\n        /* \"#utility.yul\":9511:9549   */\n      tag_180\n        /* \"#utility.yul\":9543:9547   */\n      dup3\n        /* \"#utility.yul\":9537:9548   */\n      sload\n        /* \"#utility.yul\":9511:9549   */\n      tag_17\n      jump\t// in\n    tag_180:\n        /* \"#utility.yul\":9596:9663   */\n      tag_181\n        /* \"#utility.yul\":9656:9662   */\n      dup3\n        /* \"#utility.yul\":9648:9654   */\n      dup3\n        /* \"#utility.yul\":9642:9646   */\n      dup6\n        /* \"#utility.yul\":9596:9663   */\n      tag_62\n      jump\t// in\n    tag_181:\n        /* \"#utility.yul\":9690:9691   */\n      0x00\n        /* \"#utility.yul\":9714:9718   */\n      0x20\n        /* \"#utility.yul\":9701:9718   */\n      swap1\n      pop\n        /* \"#utility.yul\":9746:9748   */\n      0x1f\n        /* \"#utility.yul\":9738:9744   */\n      dup4\n        /* \"#utility.yul\":9735:9749   */\n      gt\n        /* \"#utility.yul\":9763:9764   */\n      0x01\n        /* \"#utility.yul\":9758:10376   */\n      dup2\n      eq\n      tag_183\n      jumpi\n        /* \"#utility.yul\":10420:10421   */\n      0x00\n        /* \"#utility.yul\":10437:10443   */\n      dup5\n        /* \"#utility.yul\":10434:10511   */\n      iszero\n      tag_184\n      jumpi\n        /* \"#utility.yul\":10486:10495   */\n      dup3\n        /* \"#utility.yul\":10481:10484   */\n      dup8\n        /* \"#utility.yul\":10477:10496   */\n      add\n        /* \"#utility.yul\":10471:10497   */\n      mload\n        /* \"#utility.yul\":10462:10497   */\n      swap1\n      pop\n        /* \"#utility.yul\":10434:10511   */\n    tag_184:\n        /* \"#utility.yul\":10537:10604   */\n      tag_185\n        /* \"#utility.yul\":10597:10603   */\n      dup6\n        /* \"#utility.yul\":10590:10595   */\n      dup3\n        /* \"#utility.yul\":10537:10604   */\n      tag_65\n      jump\t// in\n    tag_185:\n        /* \"#utility.yul\":10531:10535   */\n      dup7\n        /* \"#utility.yul\":10524:10605   */\n      sstore\n        /* \"#utility.yul\":10393:10615   */\n      pop\n        /* \"#utility.yul\":9728:10615   */\n      jump(tag_182)\n        /* \"#utility.yul\":9758:10376   */\n    tag_183:\n        /* \"#utility.yul\":9810:9814   */\n      0x1f\n        /* \"#utility.yul\":9806:9815   */\n      not\n        /* \"#utility.yul\":9798:9804   */\n      dup5\n        /* \"#utility.yul\":9794:9816   */\n      and\n        /* \"#utility.yul\":9844:9881   */\n      tag_186\n        /* \"#utility.yul\":9876:9880   */\n      dup7\n        /* \"#utility.yul\":9844:9881   */\n      tag_51\n      jump\t// in\n    tag_186:\n        /* \"#utility.yul\":9903:9904   */\n      0x00\n        /* \"#utility.yul\":9917:10125   */\n    tag_187:\n        /* \"#utility.yul\":9931:9938   */\n      dup3\n        /* \"#utility.yul\":9928:9929   */\n      dup2\n        /* \"#utility.yul\":9925:9939   */\n      lt\n        /* \"#utility.yul\":9917:10125   */\n      iszero\n      tag_189\n      jumpi\n        /* \"#utility.yul\":10010:10019   */\n      dup5\n        /* \"#utility.yul\":10005:10008   */\n      dup10\n        /* \"#utility.yul\":10001:10020   */\n      add\n        /* \"#utility.yul\":9995:10021   */\n      mload\n        /* \"#utility.yul\":9987:9993   */\n      dup3\n        /* \"#utility.yul\":9980:10022   */\n      sstore\n        /* \"#utility.yul\":10061:10062   */\n      0x01\n        /* \"#utility.yul\":10053:10059   */\n      dup3\n        /* \"#utility.yul\":10049:10063   */\n      add\n        /* \"#utility.yul\":10039:10063   */\n      swap2\n      pop\n        /* \"#utility.yul\":10108:10110   */\n      0x20\n        /* \"#utility.yul\":10097:10106   */\n      dup6\n        /* \"#utility.yul\":10093:10111   */\n      add\n        /* \"#utility.yul\":10080:10111   */\n      swap5\n      pop\n        /* \"#utility.yul\":9954:9958   */\n      0x20\n        /* \"#utility.yul\":9951:9952   */\n      dup2\n        /* \"#utility.yul\":9947:9959   */\n      add\n        /* \"#utility.yul\":9942:9959   */\n      swap1\n      pop\n        /* \"#utility.yul\":9917:10125   */\n      jump(tag_187)\n    tag_189:\n        /* \"#utility.yul\":10153:10159   */\n      dup7\n        /* \"#utility.yul\":10144:10151   */\n      dup4\n        /* \"#utility.yul\":10141:10160   */\n      lt\n        /* \"#utility.yul\":10138:10317   */\n      iszero\n      tag_190\n      jumpi\n        /* \"#utility.yul\":10211:10220   */\n      dup5\n        /* \"#utility.yul\":10206:10209   */\n      dup10\n        /* \"#utility.yul\":10202:10221   */\n      add\n        /* \"#utility.yul\":10196:10222   */\n      mload\n        /* \"#utility.yul\":10254:10302   */\n      tag_191\n        /* \"#utility.yul\":10296:10300   */\n      0x1f\n        /* \"#utility.yul\":10288:10294   */\n      dup10\n        /* \"#utility.yul\":10284:10301   */\n      and\n        /* \"#utility.yul\":10273:10282   */\n      dup3\n        /* \"#utility.yul\":10254:10302   */\n      tag_64\n      jump\t// in\n    tag_191:\n        /* \"#utility.yul\":10246:10252   */\n      dup4\n        /* \"#utility.yul\":10239:10303   */\n      sstore\n        /* \"#utility.yul\":10161:10317   */\n      pop\n        /* \"#utility.yul\":10138:10317   */\n    tag_190:\n        /* \"#utility.yul\":10363:10364   */\n      0x01\n        /* \"#utility.yul\":10359:10360   */\n      0x02\n        /* \"#utility.yul\":10351:10357   */\n      dup9\n        /* \"#utility.yul\":10347:10361   */\n      mul\n        /* \"#utility.yul\":10343:10365   */\n      add\n        /* \"#utility.yul\":10337:10341   */\n      dup9\n        /* \"#utility.yul\":10330:10366   */\n      sstore\n        /* \"#utility.yul\":9765:10376   */\n      pop\n      pop\n      pop\n        /* \"#utility.yul\":9728:10615   */\n    tag_182:\n      pop\n        /* \"#utility.yul\":9318:10621   */\n      pop\n      pop\n      pop\n        /* \"#utility.yul\":9226:10621   */\n      pop\n      pop\n      jump\t// out\n\n    auxdata: 0xa2646970667358221220c928d4fac6af6f39993c5963d2f5a194d946ce618df5fed2242f7a0d616840a264736f6c634300081a0033\n}\n",
				"bytecode": {
					"linkReferences": {},
					"object": "6080604052348015600e575f80fd5b506107ef8061001c5f395ff3fe608060405234801561000f575f80fd5b5060043610610034575f3560e01c80630f53a470146100385780635658bee114610069575b5f80fd5b610052600480360381019061004d919061025f565b610085565b604051610060929190610312565b60405180910390f35b610083600480360381019061007e9190610496565b61017e565b005b60605f805f808573ffffffffffffffffffffffffffffffffffffffff1673ffffffffffffffffffffffffffffffffffffffff1681526020019081526020015f206040518060400160405290815f820180546100df9061051d565b80601f016020809104026020016040519081016040528092919081815260200182805461010b9061051d565b80156101565780601f1061012d57610100808354040283529160200191610156565b820191905f5260205f20905b81548152906001019060200180831161013957829003601f168201915b505050505081526020016001820154815250509050805f015181602001519250925050915091565b6040518060400160405280838152602001828152505f803373ffffffffffffffffffffffffffffffffffffffff1673ffffffffffffffffffffffffffffffffffffffff1681526020019081526020015f205f820151815f0190816101e291906106ea565b50602082015181600101559050505050565b5f604051905090565b5f80fd5b5f80fd5b5f73ffffffffffffffffffffffffffffffffffffffff82169050919050565b5f61022e82610205565b9050919050565b61023e81610224565b8114610248575f80fd5b50565b5f8135905061025981610235565b92915050565b5f60208284031215610274576102736101fd565b5b5f6102818482850161024b565b91505092915050565b5f81519050919050565b5f82825260208201905092915050565b8281835e5f83830152505050565b5f601f19601f8301169050919050565b5f6102cc8261028a565b6102d68185610294565b93506102e68185602086016102a4565b6102ef816102b2565b840191505092915050565b5f819050919050565b61030c816102fa565b82525050565b5f6040820190508181035f83015261032a81856102c2565b90506103396020830184610303565b9392505050565b5f80fd5b5f80fd5b7f4e487b71000000000000000000000000000000000000000000000000000000005f52604160045260245ffd5b61037e826102b2565b810181811067ffffffffffffffff8211171561039d5761039c610348565b5b80604052505050565b5f6103af6101f4565b90506103bb8282610375565b919050565b5f67ffffffffffffffff8211156103da576103d9610348565b5b6103e3826102b2565b9050602081019050919050565b828183375f83830152505050565b5f61041061040b846103c0565b6103a6565b90508281526020810184848401111561042c5761042b610344565b5b6104378482856103f0565b509392505050565b5f82601f83011261045357610452610340565b5b81356104638482602086016103fe565b91505092915050565b610475816102fa565b811461047f575f80fd5b50565b5f813590506104908161046c565b92915050565b5f80604083850312156104ac576104ab6101fd565b5b5f83013567ffffffffffffffff8111156104c9576104c8610201565b5b6104d58582860161043f565b92505060206104e685828601610482565b9150509250929050565b7f4e487b71000000000000000000000000000000000000000000000000000000005f52602260045260245ffd5b5f600282049050600182168061053457607f821691505b602082108103610547576105466104f0565b5b50919050565b5f819050815f5260205f209050919050565b5f6020601f8301049050919050565b5f82821b905092915050565b5f600883026105a97fffffffffffffffffffffffffffffffffffffffffffffffffffffffffffffffff8261056e565b6105b3868361056e565b95508019841693508086168417925050509392505050565b5f819050919050565b5f6105ee6105e96105e4846102fa565b6105cb565b6102fa565b9050919050565b5f819050919050565b610607836105d4565b61061b610613826105f5565b84845461057a565b825550505050565b5f90565b61062f610623565b61063a8184846105fe565b505050565b5b8181101561065d576106525f82610627565b600181019050610640565b5050565b601f8211156106a2576106738161054d565b61067c8461055f565b8101602085101561068b578190505b61069f6106978561055f565b83018261063f565b50505b505050565b5f82821c905092915050565b5f6106c25f19846008026106a7565b1980831691505092915050565b5f6106da83836106b3565b9150826002028217905092915050565b6106f38261028a565b67ffffffffffffffff81111561070c5761070b610348565b5b610716825461051d565b610721828285610661565b5f60209050601f831160018114610752575f8415610740578287015190505b61074a85826106cf565b8655506107b1565b601f1984166107608661054d565b5f5b8281101561078757848901518255600182019150602085019450602081019050610762565b868310156107a457848901516107a0601f8916826106b3565b8355505b6001600288020188555050505b50505050505056fea2646970667358221220c928d4fac6af6f39993c5963d2f5a194d946ce618df5fed2242f7a0d616840a264736f6c634300081a0033",
					"opcodes": "PUSH1 0x80 PUSH1 0x40 MSTORE CALLVALUE DUP1 ISZERO PUSH1 0xE JUMPI PUSH0 DUP1 REVERT JUMPDEST POP PUSH2 0x7EF DUP1 PUSH2 0x1C PUSH0 CODECOPY PUSH0 RETURN INVALID PUSH1 0x80 PUSH1 0x40 MSTORE CALLVALUE DUP1 ISZERO PUSH2 0xF JUMPI PUSH0 DUP1 REVERT JUMPDEST POP PUSH1 0x4 CALLDATASIZE LT PUSH2 0x34 JUMPI PUSH0 CALLDATALOAD PUSH1 0xE0 SHR DUP1 PUSH4 0xF53A470 EQ PUSH2 0x38 JUMPI DUP1 PUSH4 0x5658BEE1 EQ PUSH2 0x69 JUMPI JUMPDEST PUSH0 DUP1 REVERT JUMPDEST PUSH2 0x52 PUSH1 0x4 DUP1 CALLDATASIZE SUB DUP2 ADD SWAP1 PUSH2 0x4D SWAP2 SWAP1 PUSH2 0x25F JUMP JUMPDEST PUSH2 0x85 JUMP JUMPDEST PUSH1 0x40 MLOAD PUSH2 0x60 SWAP3 SWAP2 SWAP1 PUSH2 0x312 JUMP JUMPDEST PUSH1 0x40 MLOAD DUP1 SWAP2 SUB SWAP1 RETURN JUMPDEST PUSH2 0x83 PUSH1 0x4 DUP1 CALLDATASIZE SUB DUP2 ADD SWAP1 PUSH2 0x7E SWAP2 SWAP1 PUSH2 0x496 JUMP JUMPDEST PUSH2 0x17E JUMP JUMPDEST STOP JUMPDEST PUSH1 0x60 PUSH0 DUP1 PUSH0 DUP1 DUP6 PUSH20 0xFFFFFFFFFFFFFFFFFFFFFFFFFFFFFFFFFFFFFFFF AND PUSH20 0xFFFFFFFFFFFFFFFFFFFFFFFFFFFFFFFFFFFFFFFF AND DUP2 MSTORE PUSH1 0x20 ADD SWAP1 DUP2 MSTORE PUSH1 0x20 ADD PUSH0 KECCAK256 PUSH1 0x40 MLOAD DUP1 PUSH1 0x40 ADD PUSH1 0x40 MSTORE SWAP1 DUP2 PUSH0 DUP3 ADD DUP1 SLOAD PUSH2 0xDF SWAP1 PUSH2 0x51D JUMP JUMPDEST DUP1 PUSH1 0x1F ADD PUSH1 0x20 DUP1 SWAP2 DIV MUL PUSH1 0x20 ADD PUSH1 0x40 MLOAD SWAP1 DUP2 ADD PUSH1 0x40 MSTORE DUP1 SWAP3 SWAP2 SWAP1 DUP2 DUP2 MSTORE PUSH1 0x20 ADD DUP3 DUP1 SLOAD PUSH2 0x10B SWAP1 PUSH2 0x51D JUMP JUMPDEST DUP1 ISZERO PUSH2 0x156 JUMPI DUP1 PUSH1 0x1F LT PUSH2 0x12D JUMPI PUSH2 0x100 DUP1 DUP4 SLOAD DIV MUL DUP4 MSTORE SWAP2 PUSH1 0x20 ADD SWAP2 PUSH2 0x156 JUMP JUMPDEST DUP3 ADD SWAP2 SWAP1 PUSH0 MSTORE PUSH1 0x20 PUSH0 KECCAK256 SWAP1 JUMPDEST DUP2 SLOAD DUP2 MSTORE SWAP1 PUSH1 0x1 ADD SWAP1 PUSH1 0x20 ADD DUP1 DUP4 GT PUSH2 0x139 JUMPI DUP3 SWAP1 SUB PUSH1 0x1F AND DUP3 ADD SWAP2 JUMPDEST POP POP POP POP POP DUP2 MSTORE PUSH1 0x20 ADD PUSH1 0x1 DUP3 ADD SLOAD DUP2 MSTORE POP POP SWAP1 POP DUP1 PUSH0 ADD MLOAD DUP2 PUSH1 0x20 ADD MLOAD SWAP3 POP SWAP3 POP POP SWAP2 POP SWAP2 JUMP JUMPDEST PUSH1 0x40 MLOAD DUP1 PUSH1 0x40 ADD PUSH1 0x40 MSTORE DUP1 DUP4 DUP2 MSTORE PUSH1 0x20 ADD DUP3 DUP2 MSTORE POP PUSH0 DUP1 CALLER PUSH20 0xFFFFFFFFFFFFFFFFFFFFFFFFFFFFFFFFFFFFFFFF AND PUSH20 0xFFFFFFFFFFFFFFFFFFFFFFFFFFFFFFFFFFFFFFFF AND DUP2 MSTORE PUSH1 0x20 ADD SWAP1 DUP2 MSTORE PUSH1 0x20 ADD PUSH0 KECCAK256 PUSH0 DUP3 ADD MLOAD DUP2 PUSH0 ADD SWAP1 DUP2 PUSH2 0x1E2 SWAP2 SWAP1 PUSH2 0x6EA JUMP JUMPDEST POP PUSH1 0x20 DUP3 ADD MLOAD DUP2 PUSH1 0x1 ADD SSTORE SWAP1 POP POP POP POP JUMP JUMPDEST PUSH0 PUSH1 0x40 MLOAD SWAP1 POP SWAP1 JUMP JUMPDEST PUSH0 DUP1 REVERT JUMPDEST PUSH0 DUP1 REVERT JUMPDEST PUSH0 PUSH20 0xFFFFFFFFFFFFFFFFFFFFFFFFFFFFFFFFFFFFFFFF DUP3 AND SWAP1 POP SWAP2 SWAP1 POP JUMP JUMPDEST PUSH0 PUSH2 0x22E DUP3 PUSH2 0x205 JUMP JUMPDEST SWAP1 POP SWAP2 SWAP1 POP JUMP JUMPDEST PUSH2 0x23E DUP2 PUSH2 0x224 JUMP JUMPDEST DUP2 EQ PUSH2 0x248 JUMPI PUSH0 DUP1 REVERT JUMPDEST POP JUMP JUMPDEST PUSH0 DUP2 CALLDATALOAD SWAP1 POP PUSH2 0x259 DUP2 PUSH2 0x235 JUMP JUMPDEST SWAP3 SWAP2 POP POP JUMP JUMPDEST PUSH0 PUSH1 0x20 DUP3 DUP5 SUB SLT ISZERO PUSH2 0x274 JUMPI PUSH2 0x273 PUSH2 0x1FD JUMP JUMPDEST JUMPDEST PUSH0 PUSH2 0x281 DUP5 DUP3 DUP6 ADD PUSH2 0x24B JUMP JUMPDEST SWAP2 POP POP SWAP3 SWAP2 POP POP JUMP JUMPDEST PUSH0 DUP2 MLOAD SWAP1 POP SWAP2 SWAP1 POP JUMP JUMPDEST PUSH0 DUP3 DUP3 MSTORE PUSH1 0x20 DUP3 ADD SWAP1 POP SWAP3 SWAP2 POP POP JUMP JUMPDEST DUP3 DUP2 DUP4 MCOPY PUSH0 DUP4 DUP4 ADD MSTORE POP POP POP JUMP JUMPDEST PUSH0 PUSH1 0x1F NOT PUSH1 0x1F DUP4 ADD AND SWAP1 POP SWAP2 SWAP1 POP JUMP JUMPDEST PUSH0 PUSH2 0x2CC DUP3 PUSH2 0x28A JUMP JUMPDEST PUSH2 0x2D6 DUP2 DUP6 PUSH2 0x294 JUMP JUMPDEST SWAP4 POP PUSH2 0x2E6 DUP2 DUP6 PUSH1 0x20 DUP7 ADD PUSH2 0x2A4 JUMP JUMPDEST PUSH2 0x2EF DUP2 PUSH2 0x2B2 JUMP JUMPDEST DUP5 ADD SWAP2 POP POP SWAP3 SWAP2 POP POP JUMP JUMPDEST PUSH0 DUP2 SWAP1 POP SWAP2 SWAP1 POP JUMP JUMPDEST PUSH2 0x30C DUP2 PUSH2 0x2FA JUMP JUMPDEST DUP3 MSTORE POP POP JUMP JUMPDEST PUSH0 PUSH1 0x40 DUP3 ADD SWAP1 POP DUP2 DUP2 SUB PUSH0 DUP4 ADD MSTORE PUSH2 0x32A DUP2 DUP6 PUSH2 0x2C2 JUMP JUMPDEST SWAP1 POP PUSH2 0x339 PUSH1 0x20 DUP4 ADD DUP5 PUSH2 0x303 JUMP JUMPDEST SWAP4 SWAP3 POP POP POP JUMP JUMPDEST PUSH0 DUP1 REVERT JUMPDEST PUSH0 DUP1 REVERT JUMPDEST PUSH32 0x4E487B7100000000000000000000000000000000000000000000000000000000 PUSH0 MSTORE PUSH1 0x41 PUSH1 0x4 MSTORE PUSH1 0x24 PUSH0 REVERT JUMPDEST PUSH2 0x37E DUP3 PUSH2 0x2B2 JUMP JUMPDEST DUP2 ADD DUP2 DUP2 LT PUSH8 0xFFFFFFFFFFFFFFFF DUP3 GT OR ISZERO PUSH2 0x39D JUMPI PUSH2 0x39C PUSH2 0x348 JUMP JUMPDEST JUMPDEST DUP1 PUSH1 0x40 MSTORE POP POP POP JUMP JUMPDEST PUSH0 PUSH2 0x3AF PUSH2 0x1F4 JUMP JUMPDEST SWAP1 POP PUSH2 0x3BB DUP3 DUP3 PUSH2 0x375 JUMP JUMPDEST SWAP2 SWAP1 POP JUMP JUMPDEST PUSH0 PUSH8 0xFFFFFFFFFFFFFFFF DUP3 GT ISZERO PUSH2 0x3DA JUMPI PUSH2 0x3D9 PUSH2 0x348 JUMP JUMPDEST JUMPDEST PUSH2 0x3E3 DUP3 PUSH2 0x2B2 JUMP JUMPDEST SWAP1 POP PUSH1 0x20 DUP2 ADD SWAP1 POP SWAP2 SWAP1 POP JUMP JUMPDEST DUP3 DUP2 DUP4 CALLDATACOPY PUSH0 DUP4 DUP4 ADD MSTORE POP POP POP JUMP JUMPDEST PUSH0 PUSH2 0x410 PUSH2 0x40B DUP5 PUSH2 0x3C0 JUMP JUMPDEST PUSH2 0x3A6 JUMP JUMPDEST SWAP1 POP DUP3 DUP2 MSTORE PUSH1 0x20 DUP2 ADD DUP5 DUP5 DUP5 ADD GT ISZERO PUSH2 0x42C JUMPI PUSH2 0x42B PUSH2 0x344 JUMP JUMPDEST JUMPDEST PUSH2 0x437 DUP5 DUP3 DUP6 PUSH2 0x3F0 JUMP JUMPDEST POP SWAP4 SWAP3 POP POP POP JUMP JUMPDEST PUSH0 DUP3 PUSH1 0x1F DUP4 ADD SLT PUSH2 0x453 JUMPI PUSH2 0x452 PUSH2 0x340 JUMP JUMPDEST JUMPDEST DUP2 CALLDATALOAD PUSH2 0x463 DUP5 DUP3 PUSH1 0x20 DUP7 ADD PUSH2 0x3FE JUMP JUMPDEST SWAP2 POP POP SWAP3 SWAP2 POP POP JUMP JUMPDEST PUSH2 0x475 DUP2 PUSH2 0x2FA JUMP JUMPDEST DUP2 EQ PUSH2 0x47F JUMPI PUSH0 DUP1 REVERT JUMPDEST POP JUMP JUMPDEST PUSH0 DUP2 CALLDATALOAD SWAP1 POP PUSH2 0x490 DUP2 PUSH2 0x46C JUMP JUMPDEST SWAP3 SWAP2 POP POP JUMP JUMPDEST PUSH0 DUP1 PUSH1 0x40 DUP4 DUP6 SUB SLT ISZERO PUSH2 0x4AC JUMPI PUSH2 0x4AB PUSH2 0x1FD JUMP JUMPDEST JUMPDEST PUSH0 DUP4 ADD CALLDATALOAD PUSH8 0xFFFFFFFFFFFFFFFF DUP2 GT ISZERO PUSH2 0x4C9 JUMPI PUSH2 0x4C8 PUSH2 0x201 JUMP JUMPDEST JUMPDEST PUSH2 0x4D5 DUP6 DUP3 DUP7 ADD PUSH2 0x43F JUMP JUMPDEST SWAP3 POP POP PUSH1 0x20 PUSH2 0x4E6 DUP6 DUP3 DUP7 ADD PUSH2 0x482 JUMP JUMPDEST SWAP2 POP POP SWAP3 POP SWAP3 SWAP1 POP JUMP JUMPDEST PUSH32 0x4E487B7100000000000000000000000000000000000000000000000000000000 PUSH0 MSTORE PUSH1 0x22 PUSH1 0x4 MSTORE PUSH1 0x24 PUSH0 REVERT JUMPDEST PUSH0 PUSH1 0x2 DUP3 DIV SWAP1 POP PUSH1 0x1 DUP3 AND DUP1 PUSH2 0x534 JUMPI PUSH1 0x7F DUP3 AND SWAP2 POP JUMPDEST PUSH1 0x20 DUP3 LT DUP2 SUB PUSH2 0x547 JUMPI PUSH2 0x546 PUSH2 0x4F0 JUMP JUMPDEST JUMPDEST POP SWAP2 SWAP1 POP JUMP JUMPDEST PUSH0 DUP2 SWAP1 POP DUP2 PUSH0 MSTORE PUSH1 0x20 PUSH0 KECCAK256 SWAP1 POP SWAP2 SWAP1 POP JUMP JUMPDEST PUSH0 PUSH1 0x20 PUSH1 0x1F DUP4 ADD DIV SWAP1 POP SWAP2 SWAP1 POP JUMP JUMPDEST PUSH0 DUP3 DUP3 SHL SWAP1 POP SWAP3 SWAP2 POP POP JUMP JUMPDEST PUSH0 PUSH1 0x8 DUP4 MUL PUSH2 0x5A9 PUSH32 0xFFFFFFFFFFFFFFFFFFFFFFFFFFFFFFFFFFFFFFFFFFFFFFFFFFFFFFFFFFFFFFFF DUP3 PUSH2 0x56E JUMP JUMPDEST PUSH2 0x5B3 DUP7 DUP4 PUSH2 0x56E JUMP JUMPDEST SWAP6 POP DUP1 NOT DUP5 AND SWAP4 POP DUP1 DUP7 AND DUP5 OR SWAP3 POP POP POP SWAP4 SWAP3 POP POP POP JUMP JUMPDEST PUSH0 DUP2 SWAP1 POP SWAP2 SWAP1 POP JUMP JUMPDEST PUSH0 PUSH2 0x5EE PUSH2 0x5E9 PUSH2 0x5E4 DUP5 PUSH2 0x2FA JUMP JUMPDEST PUSH2 0x5CB JUMP JUMPDEST PUSH2 0x2FA JUMP JUMPDEST SWAP1 POP SWAP2 SWAP1 POP JUMP JUMPDEST PUSH0 DUP2 SWAP1 POP SWAP2 SWAP1 POP JUMP JUMPDEST PUSH2 0x607 DUP4 PUSH2 0x5D4 JUMP JUMPDEST PUSH2 0x61B PUSH2 0x613 DUP3 PUSH2 0x5F5 JUMP JUMPDEST DUP5 DUP5 SLOAD PUSH2 0x57A JUMP JUMPDEST DUP3 SSTORE POP POP POP POP JUMP JUMPDEST PUSH0 SWAP1 JUMP JUMPDEST PUSH2 0x62F PUSH2 0x623 JUMP JUMPDEST PUSH2 0x63A DUP2 DUP5 DUP5 PUSH2 0x5FE JUMP JUMPDEST POP POP POP JUMP JUMPDEST JUMPDEST DUP2 DUP2 LT ISZERO PUSH2 0x65D JUMPI PUSH2 0x652 PUSH0 DUP3 PUSH2 0x627 JUMP JUMPDEST PUSH1 0x1 DUP2 ADD SWAP1 POP PUSH2 0x640 JUMP JUMPDEST POP POP JUMP JUMPDEST PUSH1 0x1F DUP3 GT ISZERO PUSH2 0x6A2 JUMPI PUSH2 0x673 DUP2 PUSH2 0x54D JUMP JUMPDEST PUSH2 0x67C DUP5 PUSH2 0x55F JUMP JUMPDEST DUP2 ADD PUSH1 0x20 DUP6 LT ISZERO PUSH2 0x68B JUMPI DUP2 SWAP1 POP JUMPDEST PUSH2 0x69F PUSH2 0x697 DUP6 PUSH2 0x55F JUMP JUMPDEST DUP4 ADD DUP3 PUSH2 0x63F JUMP JUMPDEST POP POP JUMPDEST POP POP POP JUMP JUMPDEST PUSH0 DUP3 DUP3 SHR SWAP1 POP SWAP3 SWAP2 POP POP JUMP JUMPDEST PUSH0 PUSH2 0x6C2 PUSH0 NOT DUP5 PUSH1 0x8 MUL PUSH2 0x6A7 JUMP JUMPDEST NOT DUP1 DUP4 AND SWAP2 POP POP SWAP3 SWAP2 POP POP JUMP JUMPDEST PUSH0 PUSH2 0x6DA DUP4 DUP4 PUSH2 0x6B3 JUMP JUMPDEST SWAP2 POP DUP3 PUSH1 0x2 MUL DUP3 OR SWAP1 POP SWAP3 SWAP2 POP POP JUMP JUMPDEST PUSH2 0x6F3 DUP3 PUSH2 0x28A JUMP JUMPDEST PUSH8 0xFFFFFFFFFFFFFFFF DUP2 GT ISZERO PUSH2 0x70C JUMPI PUSH2 0x70B PUSH2 0x348 JUMP JUMPDEST JUMPDEST PUSH2 0x716 DUP3 SLOAD PUSH2 0x51D JUMP JUMPDEST PUSH2 0x721 DUP3 DUP3 DUP6 PUSH2 0x661 JUMP JUMPDEST PUSH0 PUSH1 0x20 SWAP1 POP PUSH1 0x1F DUP4 GT PUSH1 0x1 DUP2 EQ PUSH2 0x752 JUMPI PUSH0 DUP5 ISZERO PUSH2 0x740 JUMPI DUP3 DUP8 ADD MLOAD SWAP1 POP JUMPDEST PUSH2 0x74A DUP6 DUP3 PUSH2 0x6CF JUMP JUMPDEST DUP7 SSTORE POP PUSH2 0x7B1 JUMP JUMPDEST PUSH1 0x1F NOT DUP5 AND PUSH2 0x760 DUP7 PUSH2 0x54D JUMP JUMPDEST PUSH0 JUMPDEST DUP3 DUP2 LT ISZERO PUSH2 0x787 JUMPI DUP5 DUP10 ADD MLOAD DUP3 SSTORE PUSH1 0x1 DUP3 ADD SWAP2 POP PUSH1 0x20 DUP6 ADD SWAP5 POP PUSH1 0x20 DUP2 ADD SWAP1 POP PUSH2 0x762 JUMP JUMPDEST DUP7 DUP4 LT ISZERO PUSH2 0x7A4 JUMPI DUP5 DUP10 ADD MLOAD PUSH2 0x7A0 PUSH1 0x1F DUP10 AND DUP3 PUSH2 0x6B3 JUMP JUMPDEST DUP4 SSTORE POP JUMPDEST PUSH1 0x1 PUSH1 0x2 DUP9 MUL ADD DUP9 SSTORE POP POP POP JUMPDEST POP POP POP POP POP POP JUMP INVALID LOG2 PUSH5 0x6970667358 0x22 SLT KECCAK256 0xC9 0x28 0xD4 STATICCALL 0xC6 0xAF PUSH16 0x39993C5963D2F5A194D946CE618DF5FE 0xD2 0x24 0x2F PUSH27 0xD616840A264736F6C634300081A00330000000000000000000000 "
				},
				"gasEstimates": {
					"creation": {
						"codeDepositCost": "406200",
						"executionCost": "441",
						"totalCost": "406641"
					},
					"external": {
						"createProfile(string,uint256)": "infinite",
						"getProfile(address)": "infinite"
					}
				},
				"methodIdentifiers": {
					"createProfile(string,uint256)": "5658bee1",
					"getProfile(address)": "0f53a470"
				}
			},
			"storageLayout": {
				"storage": [
					{
						"astId": 11,
						"contract": "Assignments/UserProfile.sol:UserProfile",
						"label": "profiles",
						"offset": 0,
						"slot": "0",
						"type": "t_mapping(t_address,t_struct(Profile)6_storage)"
					}
				],
				"types": {
					"t_address": {
						"encoding": "inplace",
						"label": "address",
						"numberOfBytes": "20"
					},
					"t_mapping(t_address,t_struct(Profile)6_storage)": {
						"encoding": "mapping",
						"key": "t_address",
						"label": "mapping(address => struct UserProfile.Profile)",
						"numberOfBytes": "32",
						"value": "t_struct(Profile)6_storage"
					},
					"t_string_storage": {
						"encoding": "bytes",
						"label": "string",
						"numberOfBytes": "32"
					},
					"t_struct(Profile)6_storage": {
						"encoding": "inplace",
						"label": "struct UserProfile.Profile",
						"members": [
							{
								"astId": 3,
								"contract": "Assignments/UserProfile.sol:UserProfile",
								"label": "name",
								"offset": 0,
								"slot": "0",
								"type": "t_string_storage"
							},
							{
								"astId": 5,
								"contract": "Assignments/UserProfile.sol:UserProfile",
								"label": "age",
								"offset": 0,
								"slot": "1",
								"type": "t_uint256"
							}
						],
						"numberOfBytes": "64"
					},
					"t_uint256": {
						"encoding": "inplace",
						"label": "uint256",
						"numberOfBytes": "32"
					}
				}
			},
			"userdoc": {
				"kind": "user",
				"methods": {},
				"version": 1
			}
		}
	}
}