{
	"Assignments/program-17.sol": {
		"EmployeeData": {
			"abi": [
				{
					"inputs": [
						{
							"internalType": "uint256",
							"name": "salary",
							"type": "uint256"
						}
					],
					"name": "CalculateBonus",
					"outputs": [
						{
							"internalType": "uint256",
							"name": "bonus",
							"type": "uint256"
						}
					],
					"stateMutability": "pure",
					"type": "function"
				},
				{
					"inputs": [
						{
							"internalType": "uint256",
							"name": "_salary",
							"type": "uint256"
						}
					],
					"name": "UpdateSalary",
					"outputs": [],
					"stateMutability": "pure",
					"type": "function"
				},
				{
					"inputs": [
						{
							"internalType": "string",
							"name": "_name",
							"type": "string"
						},
						{
							"internalType": "uint256",
							"name": "_salary",
							"type": "uint256"
						},
						{
							"internalType": "string",
							"name": "_department",
							"type": "string"
						}
					],
					"name": "addEmployee",
					"outputs": [],
					"stateMutability": "nonpayable",
					"type": "function"
				},
				{
					"inputs": [
						{
							"internalType": "uint256",
							"name": "",
							"type": "uint256"
						}
					],
					"name": "employee",
					"outputs": [
						{
							"internalType": "string",
							"name": "name",
							"type": "string"
						},
						{
							"internalType": "uint256",
							"name": "salary",
							"type": "uint256"
						},
						{
							"internalType": "string",
							"name": "department",
							"type": "string"
						}
					],
					"stateMutability": "view",
					"type": "function"
				}
			],
			"devdoc": {
				"kind": "dev",
				"methods": {},
				"version": 1
			},
			"evm": {
				"assembly": "    /* \"Assignments/program-17.sol\":62:724  contract EmployeeData{... */\n  mstore(0x40, 0x80)\n  callvalue\n  dup1\n  iszero\n  tag_1\n  jumpi\n  0x00\n  dup1\n  revert\ntag_1:\n  pop\n  dataSize(sub_0)\n  dup1\n  dataOffset(sub_0)\n  0x00\n  codecopy\n  0x00\n  return\nstop\n\nsub_0: assembly {\n        /* \"Assignments/program-17.sol\":62:724  contract EmployeeData{... */\n      mstore(0x40, 0x80)\n      callvalue\n      dup1\n      iszero\n      tag_1\n      jumpi\n      0x00\n      dup1\n      revert\n    tag_1:\n      pop\n      jumpi(tag_2, lt(calldatasize, 0x04))\n      shr(0xe0, calldataload(0x00))\n      dup1\n      0x707338da\n      eq\n      tag_3\n      jumpi\n      dup1\n      0x787872d5\n      eq\n      tag_4\n      jumpi\n      dup1\n      0x7a8f8fa0\n      eq\n      tag_5\n      jumpi\n      dup1\n      0x99b65f79\n      eq\n      tag_6\n      jumpi\n    tag_2:\n      0x00\n      dup1\n      revert\n        /* \"Assignments/program-17.sol\":225:385  function addEmployee(string memory _name, uint _salary, string memory _department) public{... */\n    tag_3:\n      tag_7\n      0x04\n      dup1\n      calldatasize\n      sub\n      dup2\n      add\n      swap1\n      tag_8\n      swap2\n      swap1\n      tag_9\n      jump\t// in\n    tag_8:\n      tag_10\n      jump\t// in\n    tag_7:\n      stop\n        /* \"Assignments/program-17.sol\":525:721  function CalculateBonus(uint salary) public pure returns(uint bonus){... */\n    tag_4:\n      tag_11\n      0x04\n      dup1\n      calldatasize\n      sub\n      dup2\n      add\n      swap1\n      tag_12\n      swap2\n      swap1\n      tag_13\n      jump\t// in\n    tag_12:\n      tag_14\n      jump\t// in\n    tag_11:\n      mload(0x40)\n      tag_15\n      swap2\n      swap1\n      tag_16\n      jump\t// in\n    tag_15:\n      mload(0x40)\n      dup1\n      swap2\n      sub\n      swap1\n      return\n        /* \"Assignments/program-17.sol\":391:519  function UpdateSalary(uint _salary) public pure{... */\n    tag_5:\n      tag_17\n      0x04\n      dup1\n      calldatasize\n      sub\n      dup2\n      add\n      swap1\n      tag_18\n      swap2\n      swap1\n      tag_13\n      jump\t// in\n    tag_18:\n      tag_19\n      jump\t// in\n    tag_17:\n      stop\n        /* \"Assignments/program-17.sol\":192:218  Employee[] public employee */\n    tag_6:\n      tag_20\n      0x04\n      dup1\n      calldatasize\n      sub\n      dup2\n      add\n      swap1\n      tag_21\n      swap2\n      swap1\n      tag_13\n      jump\t// in\n    tag_21:\n      tag_22\n      jump\t// in\n    tag_20:\n      mload(0x40)\n      tag_23\n      swap4\n      swap3\n      swap2\n      swap1\n      tag_24\n      jump\t// in\n    tag_23:\n      mload(0x40)\n      dup1\n      swap2\n      sub\n      swap1\n      return\n        /* \"Assignments/program-17.sol\":225:385  function addEmployee(string memory _name, uint _salary, string memory _department) public{... */\n    tag_10:\n        /* \"Assignments/program-17.sol\":325:333  employee */\n      0x00\n        /* \"Assignments/program-17.sol\":339:376  Employee(_name, _salary, _department) */\n      mload(0x40)\n      dup1\n      0x60\n      add\n      0x40\n      mstore\n      dup1\n        /* \"Assignments/program-17.sol\":348:353  _name */\n      dup6\n        /* \"Assignments/program-17.sol\":339:376  Employee(_name, _salary, _department) */\n      dup2\n      mstore\n      0x20\n      add\n        /* \"Assignments/program-17.sol\":355:362  _salary */\n      dup5\n        /* \"Assignments/program-17.sol\":339:376  Employee(_name, _salary, _department) */\n      dup2\n      mstore\n      0x20\n      add\n        /* \"Assignments/program-17.sol\":364:375  _department */\n      dup4\n        /* \"Assignments/program-17.sol\":339:376  Employee(_name, _salary, _department) */\n      dup2\n      mstore\n      pop\n        /* \"Assignments/program-17.sol\":325:377  employee.push(Employee(_name, _salary, _department)) */\n      swap1\n      dup1\n      0x01\n      dup2\n      sload\n      add\n      dup1\n      dup3\n      sstore\n      dup1\n      swap2\n      pop\n      pop\n      0x01\n      swap1\n      sub\n      swap1\n      0x00\n      mstore\n      keccak256(0x00, 0x20)\n      swap1\n      0x03\n      mul\n      add\n      0x00\n      swap1\n      swap2\n      swap1\n      swap2\n      swap1\n      swap2\n      pop\n      0x00\n      dup3\n      add\n      mload\n      dup2\n      0x00\n      add\n      swap1\n      dup2\n      tag_27\n      swap2\n      swap1\n      tag_28\n      jump\t// in\n    tag_27:\n      pop\n      0x20\n      dup3\n      add\n      mload\n      dup2\n      0x01\n      add\n      sstore\n      0x40\n      dup3\n      add\n      mload\n      dup2\n      0x02\n      add\n      swap1\n      dup2\n      tag_29\n      swap2\n      swap1\n      tag_28\n      jump\t// in\n    tag_29:\n      pop\n      pop\n      pop\n        /* \"Assignments/program-17.sol\":225:385  function addEmployee(string memory _name, uint _salary, string memory _department) public{... */\n      pop\n      pop\n      pop\n      jump\t// out\n        /* \"Assignments/program-17.sol\":525:721  function CalculateBonus(uint salary) public pure returns(uint bonus){... */\n    tag_14:\n        /* \"Assignments/program-17.sol\":582:592  uint bonus */\n      0x00\n        /* \"Assignments/program-17.sol\":604:629  Employee memory employee1 */\n      tag_31\n      tag_32\n      jump\t// in\n    tag_31:\n        /* \"Assignments/program-17.sol\":662:668  150000 */\n      0x0249f0\n        /* \"Assignments/program-17.sol\":643:652  employee1 */\n      dup2\n        /* \"Assignments/program-17.sol\":643:659  employee1.salary */\n      0x20\n      add\n      mload\n        /* \"Assignments/program-17.sol\":643:668  employee1.salary > 150000 */\n      gt\n        /* \"Assignments/program-17.sol\":640:714  if(employee1.salary > 150000){... */\n      iszero\n      tag_33\n      jumpi\n        /* \"Assignments/program-17.sol\":696:702  salary */\n      dup3\n        /* \"Assignments/program-17.sol\":688:693  10000 */\n      0x2710\n        /* \"Assignments/program-17.sol\":688:702  10000 + salary */\n      tag_34\n      swap2\n      swap1\n      tag_35\n      jump\t// in\n    tag_34:\n        /* \"Assignments/program-17.sol\":680:702  bonus = 10000 + salary */\n      swap2\n      pop\n        /* \"Assignments/program-17.sol\":640:714  if(employee1.salary > 150000){... */\n    tag_33:\n        /* \"Assignments/program-17.sol\":593:721  {... */\n      pop\n        /* \"Assignments/program-17.sol\":525:721  function CalculateBonus(uint salary) public pure returns(uint bonus){... */\n      swap2\n      swap1\n      pop\n      jump\t// out\n        /* \"Assignments/program-17.sol\":391:519  function UpdateSalary(uint _salary) public pure{... */\n    tag_19:\n        /* \"Assignments/program-17.sol\":449:474  Employee memory employee1 */\n      tag_37\n      tag_32\n      jump\t// in\n    tag_37:\n        /* \"Assignments/program-17.sol\":504:511  _salary */\n      dup2\n        /* \"Assignments/program-17.sol\":485:494  employee1 */\n      dup2\n        /* \"Assignments/program-17.sol\":485:501  employee1.salary */\n      0x20\n      add\n        /* \"Assignments/program-17.sol\":485:511  employee1.salary = _salary */\n      dup2\n      dup2\n      mstore\n      pop\n      pop\n        /* \"Assignments/program-17.sol\":438:519  {... */\n      pop\n        /* \"Assignments/program-17.sol\":391:519  function UpdateSalary(uint _salary) public pure{... */\n      pop\n      jump\t// out\n        /* \"Assignments/program-17.sol\":192:218  Employee[] public employee */\n    tag_22:\n      0x00\n      dup2\n      dup2\n      sload\n      dup2\n      lt\n      tag_38\n      jumpi\n      0x00\n      dup1\n      revert\n    tag_38:\n      swap1\n      0x00\n      mstore\n      keccak256(0x00, 0x20)\n      swap1\n      0x03\n      mul\n      add\n      0x00\n      swap2\n      pop\n      swap1\n      pop\n      dup1\n      0x00\n      add\n      dup1\n      sload\n      tag_40\n      swap1\n      tag_41\n      jump\t// in\n    tag_40:\n      dup1\n      0x1f\n      add\n      0x20\n      dup1\n      swap2\n      div\n      mul\n      0x20\n      add\n      mload(0x40)\n      swap1\n      dup2\n      add\n      0x40\n      mstore\n      dup1\n      swap3\n      swap2\n      swap1\n      dup2\n      dup2\n      mstore\n      0x20\n      add\n      dup3\n      dup1\n      sload\n      tag_42\n      swap1\n      tag_41\n      jump\t// in\n    tag_42:\n      dup1\n      iszero\n      tag_43\n      jumpi\n      dup1\n      0x1f\n      lt\n      tag_44\n      jumpi\n      0x0100\n      dup1\n      dup4\n      sload\n      div\n      mul\n      dup4\n      mstore\n      swap2\n      0x20\n      add\n      swap2\n      jump(tag_43)\n    tag_44:\n      dup3\n      add\n      swap2\n      swap1\n      0x00\n      mstore\n      keccak256(0x00, 0x20)\n      swap1\n    tag_45:\n      dup2\n      sload\n      dup2\n      mstore\n      swap1\n      0x01\n      add\n      swap1\n      0x20\n      add\n      dup1\n      dup4\n      gt\n      tag_45\n      jumpi\n      dup3\n      swap1\n      sub\n      0x1f\n      and\n      dup3\n      add\n      swap2\n    tag_43:\n      pop\n      pop\n      pop\n      pop\n      pop\n      swap1\n      dup1\n      0x01\n      add\n      sload\n      swap1\n      dup1\n      0x02\n      add\n      dup1\n      sload\n      tag_46\n      swap1\n      tag_41\n      jump\t// in\n    tag_46:\n      dup1\n      0x1f\n      add\n      0x20\n      dup1\n      swap2\n      div\n      mul\n      0x20\n      add\n      mload(0x40)\n      swap1\n      dup2\n      add\n      0x40\n      mstore\n      dup1\n      swap3\n      swap2\n      swap1\n      dup2\n      dup2\n      mstore\n      0x20\n      add\n      dup3\n      dup1\n      sload\n      tag_47\n      swap1\n      tag_41\n      jump\t// in\n    tag_47:\n      dup1\n      iszero\n      tag_48\n      jumpi\n      dup1\n      0x1f\n      lt\n      tag_49\n      jumpi\n      0x0100\n      dup1\n      dup4\n      sload\n      div\n      mul\n      dup4\n      mstore\n      swap2\n      0x20\n      add\n      swap2\n      jump(tag_48)\n    tag_49:\n      dup3\n      add\n      swap2\n      swap1\n      0x00\n      mstore\n      keccak256(0x00, 0x20)\n      swap1\n    tag_50:\n      dup2\n      sload\n      dup2\n      mstore\n      swap1\n      0x01\n      add\n      swap1\n      0x20\n      add\n      dup1\n      dup4\n      gt\n      tag_50\n      jumpi\n      dup3\n      swap1\n      sub\n      0x1f\n      and\n      dup3\n      add\n      swap2\n    tag_48:\n      pop\n      pop\n      pop\n      pop\n      pop\n      swap1\n      pop\n      dup4\n      jump\t// out\n    tag_32:\n      mload(0x40)\n      dup1\n      0x60\n      add\n      0x40\n      mstore\n      dup1\n      0x60\n      dup2\n      mstore\n      0x20\n      add\n      0x00\n      dup2\n      mstore\n      0x20\n      add\n      0x60\n      dup2\n      mstore\n      pop\n      swap1\n      jump\t// out\n        /* \"#utility.yul\":7:82   */\n    tag_51:\n        /* \"#utility.yul\":40:46   */\n      0x00\n        /* \"#utility.yul\":73:75   */\n      0x40\n        /* \"#utility.yul\":67:76   */\n      mload\n        /* \"#utility.yul\":57:76   */\n      swap1\n      pop\n        /* \"#utility.yul\":7:82   */\n      swap1\n      jump\t// out\n        /* \"#utility.yul\":88:205   */\n    tag_52:\n        /* \"#utility.yul\":197:198   */\n      0x00\n        /* \"#utility.yul\":194:195   */\n      dup1\n        /* \"#utility.yul\":187:199   */\n      revert\n        /* \"#utility.yul\":211:328   */\n    tag_53:\n        /* \"#utility.yul\":320:321   */\n      0x00\n        /* \"#utility.yul\":317:318   */\n      dup1\n        /* \"#utility.yul\":310:322   */\n      revert\n        /* \"#utility.yul\":334:451   */\n    tag_54:\n        /* \"#utility.yul\":443:444   */\n      0x00\n        /* \"#utility.yul\":440:441   */\n      dup1\n        /* \"#utility.yul\":433:445   */\n      revert\n        /* \"#utility.yul\":457:574   */\n    tag_55:\n        /* \"#utility.yul\":566:567   */\n      0x00\n        /* \"#utility.yul\":563:564   */\n      dup1\n        /* \"#utility.yul\":556:568   */\n      revert\n        /* \"#utility.yul\":580:682   */\n    tag_56:\n        /* \"#utility.yul\":621:627   */\n      0x00\n        /* \"#utility.yul\":672:674   */\n      0x1f\n        /* \"#utility.yul\":668:675   */\n      not\n        /* \"#utility.yul\":663:665   */\n      0x1f\n        /* \"#utility.yul\":656:661   */\n      dup4\n        /* \"#utility.yul\":652:666   */\n      add\n        /* \"#utility.yul\":648:676   */\n      and\n        /* \"#utility.yul\":638:676   */\n      swap1\n      pop\n        /* \"#utility.yul\":580:682   */\n      swap2\n      swap1\n      pop\n      jump\t// out\n        /* \"#utility.yul\":688:868   */\n    tag_57:\n        /* \"#utility.yul\":736:813   */\n      0x4e487b7100000000000000000000000000000000000000000000000000000000\n        /* \"#utility.yul\":733:734   */\n      0x00\n        /* \"#utility.yul\":726:814   */\n      mstore\n        /* \"#utility.yul\":833:837   */\n      0x41\n        /* \"#utility.yul\":830:831   */\n      0x04\n        /* \"#utility.yul\":823:838   */\n      mstore\n        /* \"#utility.yul\":857:861   */\n      0x24\n        /* \"#utility.yul\":854:855   */\n      0x00\n        /* \"#utility.yul\":847:862   */\n      revert\n        /* \"#utility.yul\":874:1155   */\n    tag_58:\n        /* \"#utility.yul\":957:984   */\n      tag_98\n        /* \"#utility.yul\":979:983   */\n      dup3\n        /* \"#utility.yul\":957:984   */\n      tag_56\n      jump\t// in\n    tag_98:\n        /* \"#utility.yul\":949:955   */\n      dup2\n        /* \"#utility.yul\":945:985   */\n      add\n        /* \"#utility.yul\":1087:1093   */\n      dup2\n        /* \"#utility.yul\":1075:1085   */\n      dup2\n        /* \"#utility.yul\":1072:1094   */\n      lt\n        /* \"#utility.yul\":1051:1069   */\n      0xffffffffffffffff\n        /* \"#utility.yul\":1039:1049   */\n      dup3\n        /* \"#utility.yul\":1036:1070   */\n      gt\n        /* \"#utility.yul\":1033:1095   */\n      or\n        /* \"#utility.yul\":1030:1118   */\n      iszero\n      tag_99\n      jumpi\n        /* \"#utility.yul\":1098:1116   */\n      tag_100\n      tag_57\n      jump\t// in\n    tag_100:\n        /* \"#utility.yul\":1030:1118   */\n    tag_99:\n        /* \"#utility.yul\":1138:1148   */\n      dup1\n        /* \"#utility.yul\":1134:1136   */\n      0x40\n        /* \"#utility.yul\":1127:1149   */\n      mstore\n        /* \"#utility.yul\":917:1155   */\n      pop\n        /* \"#utility.yul\":874:1155   */\n      pop\n      pop\n      jump\t// out\n        /* \"#utility.yul\":1161:1290   */\n    tag_59:\n        /* \"#utility.yul\":1195:1201   */\n      0x00\n        /* \"#utility.yul\":1222:1242   */\n      tag_102\n      tag_51\n      jump\t// in\n    tag_102:\n        /* \"#utility.yul\":1212:1242   */\n      swap1\n      pop\n        /* \"#utility.yul\":1251:1284   */\n      tag_103\n        /* \"#utility.yul\":1279:1283   */\n      dup3\n        /* \"#utility.yul\":1271:1277   */\n      dup3\n        /* \"#utility.yul\":1251:1284   */\n      tag_58\n      jump\t// in\n    tag_103:\n        /* \"#utility.yul\":1161:1290   */\n      swap2\n      swap1\n      pop\n      jump\t// out\n        /* \"#utility.yul\":1296:1604   */\n    tag_60:\n        /* \"#utility.yul\":1358:1362   */\n      0x00\n        /* \"#utility.yul\":1448:1466   */\n      0xffffffffffffffff\n        /* \"#utility.yul\":1440:1446   */\n      dup3\n        /* \"#utility.yul\":1437:1467   */\n      gt\n        /* \"#utility.yul\":1434:1490   */\n      iszero\n      tag_105\n      jumpi\n        /* \"#utility.yul\":1470:1488   */\n      tag_106\n      tag_57\n      jump\t// in\n    tag_106:\n        /* \"#utility.yul\":1434:1490   */\n    tag_105:\n        /* \"#utility.yul\":1508:1537   */\n      tag_107\n        /* \"#utility.yul\":1530:1536   */\n      dup3\n        /* \"#utility.yul\":1508:1537   */\n      tag_56\n      jump\t// in\n    tag_107:\n        /* \"#utility.yul\":1500:1537   */\n      swap1\n      pop\n        /* \"#utility.yul\":1592:1596   */\n      0x20\n        /* \"#utility.yul\":1586:1590   */\n      dup2\n        /* \"#utility.yul\":1582:1597   */\n      add\n        /* \"#utility.yul\":1574:1597   */\n      swap1\n      pop\n        /* \"#utility.yul\":1296:1604   */\n      swap2\n      swap1\n      pop\n      jump\t// out\n        /* \"#utility.yul\":1610:1758   */\n    tag_61:\n        /* \"#utility.yul\":1708:1714   */\n      dup3\n        /* \"#utility.yul\":1703:1706   */\n      dup2\n        /* \"#utility.yul\":1698:1701   */\n      dup4\n        /* \"#utility.yul\":1685:1715   */\n      calldatacopy\n        /* \"#utility.yul\":1749:1750   */\n      0x00\n        /* \"#utility.yul\":1740:1746   */\n      dup4\n        /* \"#utility.yul\":1735:1738   */\n      dup4\n        /* \"#utility.yul\":1731:1747   */\n      add\n        /* \"#utility.yul\":1724:1751   */\n      mstore\n        /* \"#utility.yul\":1610:1758   */\n      pop\n      pop\n      pop\n      jump\t// out\n        /* \"#utility.yul\":1764:2189   */\n    tag_62:\n        /* \"#utility.yul\":1842:1847   */\n      0x00\n        /* \"#utility.yul\":1867:1933   */\n      tag_110\n        /* \"#utility.yul\":1883:1932   */\n      tag_111\n        /* \"#utility.yul\":1925:1931   */\n      dup5\n        /* \"#utility.yul\":1883:1932   */\n      tag_60\n      jump\t// in\n    tag_111:\n        /* \"#utility.yul\":1867:1933   */\n      tag_59\n      jump\t// in\n    tag_110:\n        /* \"#utility.yul\":1858:1933   */\n      swap1\n      pop\n        /* \"#utility.yul\":1956:1962   */\n      dup3\n        /* \"#utility.yul\":1949:1954   */\n      dup2\n        /* \"#utility.yul\":1942:1963   */\n      mstore\n        /* \"#utility.yul\":1994:1998   */\n      0x20\n        /* \"#utility.yul\":1987:1992   */\n      dup2\n        /* \"#utility.yul\":1983:1999   */\n      add\n        /* \"#utility.yul\":2032:2035   */\n      dup5\n        /* \"#utility.yul\":2023:2029   */\n      dup5\n        /* \"#utility.yul\":2018:2021   */\n      dup5\n        /* \"#utility.yul\":2014:2030   */\n      add\n        /* \"#utility.yul\":2011:2036   */\n      gt\n        /* \"#utility.yul\":2008:2120   */\n      iszero\n      tag_112\n      jumpi\n        /* \"#utility.yul\":2039:2118   */\n      tag_113\n      tag_55\n      jump\t// in\n    tag_113:\n        /* \"#utility.yul\":2008:2120   */\n    tag_112:\n        /* \"#utility.yul\":2129:2183   */\n      tag_114\n        /* \"#utility.yul\":2176:2182   */\n      dup5\n        /* \"#utility.yul\":2171:2174   */\n      dup3\n        /* \"#utility.yul\":2166:2169   */\n      dup6\n        /* \"#utility.yul\":2129:2183   */\n      tag_61\n      jump\t// in\n    tag_114:\n        /* \"#utility.yul\":1848:2189   */\n      pop\n        /* \"#utility.yul\":1764:2189   */\n      swap4\n      swap3\n      pop\n      pop\n      pop\n      jump\t// out\n        /* \"#utility.yul\":2209:2549   */\n    tag_63:\n        /* \"#utility.yul\":2265:2270   */\n      0x00\n        /* \"#utility.yul\":2314:2317   */\n      dup3\n        /* \"#utility.yul\":2307:2311   */\n      0x1f\n        /* \"#utility.yul\":2299:2305   */\n      dup4\n        /* \"#utility.yul\":2295:2312   */\n      add\n        /* \"#utility.yul\":2291:2318   */\n      slt\n        /* \"#utility.yul\":2281:2403   */\n      tag_116\n      jumpi\n        /* \"#utility.yul\":2322:2401   */\n      tag_117\n      tag_54\n      jump\t// in\n    tag_117:\n        /* \"#utility.yul\":2281:2403   */\n    tag_116:\n        /* \"#utility.yul\":2439:2445   */\n      dup2\n        /* \"#utility.yul\":2426:2446   */\n      calldataload\n        /* \"#utility.yul\":2464:2543   */\n      tag_118\n        /* \"#utility.yul\":2539:2542   */\n      dup5\n        /* \"#utility.yul\":2531:2537   */\n      dup3\n        /* \"#utility.yul\":2524:2528   */\n      0x20\n        /* \"#utility.yul\":2516:2522   */\n      dup7\n        /* \"#utility.yul\":2512:2529   */\n      add\n        /* \"#utility.yul\":2464:2543   */\n      tag_62\n      jump\t// in\n    tag_118:\n        /* \"#utility.yul\":2455:2543   */\n      swap2\n      pop\n        /* \"#utility.yul\":2271:2549   */\n      pop\n        /* \"#utility.yul\":2209:2549   */\n      swap3\n      swap2\n      pop\n      pop\n      jump\t// out\n        /* \"#utility.yul\":2555:2632   */\n    tag_64:\n        /* \"#utility.yul\":2592:2599   */\n      0x00\n        /* \"#utility.yul\":2621:2626   */\n      dup2\n        /* \"#utility.yul\":2610:2626   */\n      swap1\n      pop\n        /* \"#utility.yul\":2555:2632   */\n      swap2\n      swap1\n      pop\n      jump\t// out\n        /* \"#utility.yul\":2638:2760   */\n    tag_65:\n        /* \"#utility.yul\":2711:2735   */\n      tag_121\n        /* \"#utility.yul\":2729:2734   */\n      dup2\n        /* \"#utility.yul\":2711:2735   */\n      tag_64\n      jump\t// in\n    tag_121:\n        /* \"#utility.yul\":2704:2709   */\n      dup2\n        /* \"#utility.yul\":2701:2736   */\n      eq\n        /* \"#utility.yul\":2691:2754   */\n      tag_122\n      jumpi\n        /* \"#utility.yul\":2750:2751   */\n      0x00\n        /* \"#utility.yul\":2747:2748   */\n      dup1\n        /* \"#utility.yul\":2740:2752   */\n      revert\n        /* \"#utility.yul\":2691:2754   */\n    tag_122:\n        /* \"#utility.yul\":2638:2760   */\n      pop\n      jump\t// out\n        /* \"#utility.yul\":2766:2905   */\n    tag_66:\n        /* \"#utility.yul\":2812:2817   */\n      0x00\n        /* \"#utility.yul\":2850:2856   */\n      dup2\n        /* \"#utility.yul\":2837:2857   */\n      calldataload\n        /* \"#utility.yul\":2828:2857   */\n      swap1\n      pop\n        /* \"#utility.yul\":2866:2899   */\n      tag_124\n        /* \"#utility.yul\":2893:2898   */\n      dup2\n        /* \"#utility.yul\":2866:2899   */\n      tag_65\n      jump\t// in\n    tag_124:\n        /* \"#utility.yul\":2766:2905   */\n      swap3\n      swap2\n      pop\n      pop\n      jump\t// out\n        /* \"#utility.yul\":2911:3890   */\n    tag_9:\n        /* \"#utility.yul\":3008:3014   */\n      0x00\n        /* \"#utility.yul\":3016:3022   */\n      dup1\n        /* \"#utility.yul\":3024:3030   */\n      0x00\n        /* \"#utility.yul\":3073:3075   */\n      0x60\n        /* \"#utility.yul\":3061:3070   */\n      dup5\n        /* \"#utility.yul\":3052:3059   */\n      dup7\n        /* \"#utility.yul\":3048:3071   */\n      sub\n        /* \"#utility.yul\":3044:3076   */\n      slt\n        /* \"#utility.yul\":3041:3160   */\n      iszero\n      tag_126\n      jumpi\n        /* \"#utility.yul\":3079:3158   */\n      tag_127\n      tag_52\n      jump\t// in\n    tag_127:\n        /* \"#utility.yul\":3041:3160   */\n    tag_126:\n        /* \"#utility.yul\":3227:3228   */\n      0x00\n        /* \"#utility.yul\":3216:3225   */\n      dup5\n        /* \"#utility.yul\":3212:3229   */\n      add\n        /* \"#utility.yul\":3199:3230   */\n      calldataload\n        /* \"#utility.yul\":3257:3275   */\n      0xffffffffffffffff\n        /* \"#utility.yul\":3249:3255   */\n      dup2\n        /* \"#utility.yul\":3246:3276   */\n      gt\n        /* \"#utility.yul\":3243:3360   */\n      iszero\n      tag_128\n      jumpi\n        /* \"#utility.yul\":3279:3358   */\n      tag_129\n      tag_53\n      jump\t// in\n    tag_129:\n        /* \"#utility.yul\":3243:3360   */\n    tag_128:\n        /* \"#utility.yul\":3384:3447   */\n      tag_130\n        /* \"#utility.yul\":3439:3446   */\n      dup7\n        /* \"#utility.yul\":3430:3436   */\n      dup3\n        /* \"#utility.yul\":3419:3428   */\n      dup8\n        /* \"#utility.yul\":3415:3437   */\n      add\n        /* \"#utility.yul\":3384:3447   */\n      tag_63\n      jump\t// in\n    tag_130:\n        /* \"#utility.yul\":3374:3447   */\n      swap4\n      pop\n        /* \"#utility.yul\":3170:3457   */\n      pop\n        /* \"#utility.yul\":3496:3498   */\n      0x20\n        /* \"#utility.yul\":3522:3575   */\n      tag_131\n        /* \"#utility.yul\":3567:3574   */\n      dup7\n        /* \"#utility.yul\":3558:3564   */\n      dup3\n        /* \"#utility.yul\":3547:3556   */\n      dup8\n        /* \"#utility.yul\":3543:3565   */\n      add\n        /* \"#utility.yul\":3522:3575   */\n      tag_66\n      jump\t// in\n    tag_131:\n        /* \"#utility.yul\":3512:3575   */\n      swap3\n      pop\n        /* \"#utility.yul\":3467:3585   */\n      pop\n        /* \"#utility.yul\":3652:3654   */\n      0x40\n        /* \"#utility.yul\":3641:3650   */\n      dup5\n        /* \"#utility.yul\":3637:3655   */\n      add\n        /* \"#utility.yul\":3624:3656   */\n      calldataload\n        /* \"#utility.yul\":3683:3701   */\n      0xffffffffffffffff\n        /* \"#utility.yul\":3675:3681   */\n      dup2\n        /* \"#utility.yul\":3672:3702   */\n      gt\n        /* \"#utility.yul\":3669:3786   */\n      iszero\n      tag_132\n      jumpi\n        /* \"#utility.yul\":3705:3784   */\n      tag_133\n      tag_53\n      jump\t// in\n    tag_133:\n        /* \"#utility.yul\":3669:3786   */\n    tag_132:\n        /* \"#utility.yul\":3810:3873   */\n      tag_134\n        /* \"#utility.yul\":3865:3872   */\n      dup7\n        /* \"#utility.yul\":3856:3862   */\n      dup3\n        /* \"#utility.yul\":3845:3854   */\n      dup8\n        /* \"#utility.yul\":3841:3863   */\n      add\n        /* \"#utility.yul\":3810:3873   */\n      tag_63\n      jump\t// in\n    tag_134:\n        /* \"#utility.yul\":3800:3873   */\n      swap2\n      pop\n        /* \"#utility.yul\":3595:3883   */\n      pop\n        /* \"#utility.yul\":2911:3890   */\n      swap3\n      pop\n      swap3\n      pop\n      swap3\n      jump\t// out\n        /* \"#utility.yul\":3896:4225   */\n    tag_13:\n        /* \"#utility.yul\":3955:3961   */\n      0x00\n        /* \"#utility.yul\":4004:4006   */\n      0x20\n        /* \"#utility.yul\":3992:4001   */\n      dup3\n        /* \"#utility.yul\":3983:3990   */\n      dup5\n        /* \"#utility.yul\":3979:4002   */\n      sub\n        /* \"#utility.yul\":3975:4007   */\n      slt\n        /* \"#utility.yul\":3972:4091   */\n      iszero\n      tag_136\n      jumpi\n        /* \"#utility.yul\":4010:4089   */\n      tag_137\n      tag_52\n      jump\t// in\n    tag_137:\n        /* \"#utility.yul\":3972:4091   */\n    tag_136:\n        /* \"#utility.yul\":4130:4131   */\n      0x00\n        /* \"#utility.yul\":4155:4208   */\n      tag_138\n        /* \"#utility.yul\":4200:4207   */\n      dup5\n        /* \"#utility.yul\":4191:4197   */\n      dup3\n        /* \"#utility.yul\":4180:4189   */\n      dup6\n        /* \"#utility.yul\":4176:4198   */\n      add\n        /* \"#utility.yul\":4155:4208   */\n      tag_66\n      jump\t// in\n    tag_138:\n        /* \"#utility.yul\":4145:4208   */\n      swap2\n      pop\n        /* \"#utility.yul\":4101:4218   */\n      pop\n        /* \"#utility.yul\":3896:4225   */\n      swap3\n      swap2\n      pop\n      pop\n      jump\t// out\n        /* \"#utility.yul\":4231:4349   */\n    tag_67:\n        /* \"#utility.yul\":4318:4342   */\n      tag_140\n        /* \"#utility.yul\":4336:4341   */\n      dup2\n        /* \"#utility.yul\":4318:4342   */\n      tag_64\n      jump\t// in\n    tag_140:\n        /* \"#utility.yul\":4313:4316   */\n      dup3\n        /* \"#utility.yul\":4306:4343   */\n      mstore\n        /* \"#utility.yul\":4231:4349   */\n      pop\n      pop\n      jump\t// out\n        /* \"#utility.yul\":4355:4577   */\n    tag_16:\n        /* \"#utility.yul\":4448:4452   */\n      0x00\n        /* \"#utility.yul\":4486:4488   */\n      0x20\n        /* \"#utility.yul\":4475:4484   */\n      dup3\n        /* \"#utility.yul\":4471:4489   */\n      add\n        /* \"#utility.yul\":4463:4489   */\n      swap1\n      pop\n        /* \"#utility.yul\":4499:4570   */\n      tag_142\n        /* \"#utility.yul\":4567:4568   */\n      0x00\n        /* \"#utility.yul\":4556:4565   */\n      dup4\n        /* \"#utility.yul\":4552:4569   */\n      add\n        /* \"#utility.yul\":4543:4549   */\n      dup5\n        /* \"#utility.yul\":4499:4570   */\n      tag_67\n      jump\t// in\n    tag_142:\n        /* \"#utility.yul\":4355:4577   */\n      swap3\n      swap2\n      pop\n      pop\n      jump\t// out\n        /* \"#utility.yul\":4583:4682   */\n    tag_68:\n        /* \"#utility.yul\":4635:4641   */\n      0x00\n        /* \"#utility.yul\":4669:4674   */\n      dup2\n        /* \"#utility.yul\":4663:4675   */\n      mload\n        /* \"#utility.yul\":4653:4675   */\n      swap1\n      pop\n        /* \"#utility.yul\":4583:4682   */\n      swap2\n      swap1\n      pop\n      jump\t// out\n        /* \"#utility.yul\":4688:4857   */\n    tag_69:\n        /* \"#utility.yul\":4772:4783   */\n      0x00\n        /* \"#utility.yul\":4806:4812   */\n      dup3\n        /* \"#utility.yul\":4801:4804   */\n      dup3\n        /* \"#utility.yul\":4794:4813   */\n      mstore\n        /* \"#utility.yul\":4846:4850   */\n      0x20\n        /* \"#utility.yul\":4841:4844   */\n      dup3\n        /* \"#utility.yul\":4837:4851   */\n      add\n        /* \"#utility.yul\":4822:4851   */\n      swap1\n      pop\n        /* \"#utility.yul\":4688:4857   */\n      swap3\n      swap2\n      pop\n      pop\n      jump\t// out\n        /* \"#utility.yul\":4863:5002   */\n    tag_70:\n        /* \"#utility.yul\":4952:4958   */\n      dup3\n        /* \"#utility.yul\":4947:4950   */\n      dup2\n        /* \"#utility.yul\":4942:4945   */\n      dup4\n        /* \"#utility.yul\":4936:4959   */\n      mcopy\n        /* \"#utility.yul\":4993:4994   */\n      0x00\n        /* \"#utility.yul\":4984:4990   */\n      dup4\n        /* \"#utility.yul\":4979:4982   */\n      dup4\n        /* \"#utility.yul\":4975:4991   */\n      add\n        /* \"#utility.yul\":4968:4995   */\n      mstore\n        /* \"#utility.yul\":4863:5002   */\n      pop\n      pop\n      pop\n      jump\t// out\n        /* \"#utility.yul\":5008:5385   */\n    tag_71:\n        /* \"#utility.yul\":5096:5099   */\n      0x00\n        /* \"#utility.yul\":5124:5163   */\n      tag_147\n        /* \"#utility.yul\":5157:5162   */\n      dup3\n        /* \"#utility.yul\":5124:5163   */\n      tag_68\n      jump\t// in\n    tag_147:\n        /* \"#utility.yul\":5179:5250   */\n      tag_148\n        /* \"#utility.yul\":5243:5249   */\n      dup2\n        /* \"#utility.yul\":5238:5241   */\n      dup6\n        /* \"#utility.yul\":5179:5250   */\n      tag_69\n      jump\t// in\n    tag_148:\n        /* \"#utility.yul\":5172:5250   */\n      swap4\n      pop\n        /* \"#utility.yul\":5259:5324   */\n      tag_149\n        /* \"#utility.yul\":5317:5323   */\n      dup2\n        /* \"#utility.yul\":5312:5315   */\n      dup6\n        /* \"#utility.yul\":5305:5309   */\n      0x20\n        /* \"#utility.yul\":5298:5303   */\n      dup7\n        /* \"#utility.yul\":5294:5310   */\n      add\n        /* \"#utility.yul\":5259:5324   */\n      tag_70\n      jump\t// in\n    tag_149:\n        /* \"#utility.yul\":5349:5378   */\n      tag_150\n        /* \"#utility.yul\":5371:5377   */\n      dup2\n        /* \"#utility.yul\":5349:5378   */\n      tag_56\n      jump\t// in\n    tag_150:\n        /* \"#utility.yul\":5344:5347   */\n      dup5\n        /* \"#utility.yul\":5340:5379   */\n      add\n        /* \"#utility.yul\":5333:5379   */\n      swap2\n      pop\n        /* \"#utility.yul\":5100:5385   */\n      pop\n        /* \"#utility.yul\":5008:5385   */\n      swap3\n      swap2\n      pop\n      pop\n      jump\t// out\n        /* \"#utility.yul\":5391:6015   */\n    tag_24:\n        /* \"#utility.yul\":5580:5584   */\n      0x00\n        /* \"#utility.yul\":5618:5620   */\n      0x60\n        /* \"#utility.yul\":5607:5616   */\n      dup3\n        /* \"#utility.yul\":5603:5621   */\n      add\n        /* \"#utility.yul\":5595:5621   */\n      swap1\n      pop\n        /* \"#utility.yul\":5667:5676   */\n      dup2\n        /* \"#utility.yul\":5661:5665   */\n      dup2\n        /* \"#utility.yul\":5657:5677   */\n      sub\n        /* \"#utility.yul\":5653:5654   */\n      0x00\n        /* \"#utility.yul\":5642:5651   */\n      dup4\n        /* \"#utility.yul\":5638:5655   */\n      add\n        /* \"#utility.yul\":5631:5678   */\n      mstore\n        /* \"#utility.yul\":5695:5773   */\n      tag_152\n        /* \"#utility.yul\":5768:5772   */\n      dup2\n        /* \"#utility.yul\":5759:5765   */\n      dup7\n        /* \"#utility.yul\":5695:5773   */\n      tag_71\n      jump\t// in\n    tag_152:\n        /* \"#utility.yul\":5687:5773   */\n      swap1\n      pop\n        /* \"#utility.yul\":5783:5855   */\n      tag_153\n        /* \"#utility.yul\":5851:5853   */\n      0x20\n        /* \"#utility.yul\":5840:5849   */\n      dup4\n        /* \"#utility.yul\":5836:5854   */\n      add\n        /* \"#utility.yul\":5827:5833   */\n      dup6\n        /* \"#utility.yul\":5783:5855   */\n      tag_67\n      jump\t// in\n    tag_153:\n        /* \"#utility.yul\":5902:5911   */\n      dup2\n        /* \"#utility.yul\":5896:5900   */\n      dup2\n        /* \"#utility.yul\":5892:5912   */\n      sub\n        /* \"#utility.yul\":5887:5889   */\n      0x40\n        /* \"#utility.yul\":5876:5885   */\n      dup4\n        /* \"#utility.yul\":5872:5890   */\n      add\n        /* \"#utility.yul\":5865:5913   */\n      mstore\n        /* \"#utility.yul\":5930:6008   */\n      tag_154\n        /* \"#utility.yul\":6003:6007   */\n      dup2\n        /* \"#utility.yul\":5994:6000   */\n      dup5\n        /* \"#utility.yul\":5930:6008   */\n      tag_71\n      jump\t// in\n    tag_154:\n        /* \"#utility.yul\":5922:6008   */\n      swap1\n      pop\n        /* \"#utility.yul\":5391:6015   */\n      swap5\n      swap4\n      pop\n      pop\n      pop\n      pop\n      jump\t// out\n        /* \"#utility.yul\":6021:6201   */\n    tag_72:\n        /* \"#utility.yul\":6069:6146   */\n      0x4e487b7100000000000000000000000000000000000000000000000000000000\n        /* \"#utility.yul\":6066:6067   */\n      0x00\n        /* \"#utility.yul\":6059:6147   */\n      mstore\n        /* \"#utility.yul\":6166:6170   */\n      0x22\n        /* \"#utility.yul\":6163:6164   */\n      0x04\n        /* \"#utility.yul\":6156:6171   */\n      mstore\n        /* \"#utility.yul\":6190:6194   */\n      0x24\n        /* \"#utility.yul\":6187:6188   */\n      0x00\n        /* \"#utility.yul\":6180:6195   */\n      revert\n        /* \"#utility.yul\":6207:6527   */\n    tag_41:\n        /* \"#utility.yul\":6251:6257   */\n      0x00\n        /* \"#utility.yul\":6288:6289   */\n      0x02\n        /* \"#utility.yul\":6282:6286   */\n      dup3\n        /* \"#utility.yul\":6278:6290   */\n      div\n        /* \"#utility.yul\":6268:6290   */\n      swap1\n      pop\n        /* \"#utility.yul\":6335:6336   */\n      0x01\n        /* \"#utility.yul\":6329:6333   */\n      dup3\n        /* \"#utility.yul\":6325:6337   */\n      and\n        /* \"#utility.yul\":6356:6374   */\n      dup1\n        /* \"#utility.yul\":6346:6427   */\n      tag_157\n      jumpi\n        /* \"#utility.yul\":6412:6416   */\n      0x7f\n        /* \"#utility.yul\":6404:6410   */\n      dup3\n        /* \"#utility.yul\":6400:6417   */\n      and\n        /* \"#utility.yul\":6390:6417   */\n      swap2\n      pop\n        /* \"#utility.yul\":6346:6427   */\n    tag_157:\n        /* \"#utility.yul\":6474:6476   */\n      0x20\n        /* \"#utility.yul\":6466:6472   */\n      dup3\n        /* \"#utility.yul\":6463:6477   */\n      lt\n        /* \"#utility.yul\":6443:6461   */\n      dup2\n        /* \"#utility.yul\":6440:6478   */\n      sub\n        /* \"#utility.yul\":6437:6521   */\n      tag_158\n      jumpi\n        /* \"#utility.yul\":6493:6511   */\n      tag_159\n      tag_72\n      jump\t// in\n    tag_159:\n        /* \"#utility.yul\":6437:6521   */\n    tag_158:\n        /* \"#utility.yul\":6258:6527   */\n      pop\n        /* \"#utility.yul\":6207:6527   */\n      swap2\n      swap1\n      pop\n      jump\t// out\n        /* \"#utility.yul\":6533:6674   */\n    tag_73:\n        /* \"#utility.yul\":6582:6586   */\n      0x00\n        /* \"#utility.yul\":6605:6608   */\n      dup2\n        /* \"#utility.yul\":6597:6608   */\n      swap1\n      pop\n        /* \"#utility.yul\":6628:6631   */\n      dup2\n        /* \"#utility.yul\":6625:6626   */\n      0x00\n        /* \"#utility.yul\":6618:6632   */\n      mstore\n        /* \"#utility.yul\":6662:6666   */\n      0x20\n        /* \"#utility.yul\":6659:6660   */\n      0x00\n        /* \"#utility.yul\":6649:6667   */\n      keccak256\n        /* \"#utility.yul\":6641:6667   */\n      swap1\n      pop\n        /* \"#utility.yul\":6533:6674   */\n      swap2\n      swap1\n      pop\n      jump\t// out\n        /* \"#utility.yul\":6680:6773   */\n    tag_74:\n        /* \"#utility.yul\":6717:6723   */\n      0x00\n        /* \"#utility.yul\":6764:6766   */\n      0x20\n        /* \"#utility.yul\":6759:6761   */\n      0x1f\n        /* \"#utility.yul\":6752:6757   */\n      dup4\n        /* \"#utility.yul\":6748:6762   */\n      add\n        /* \"#utility.yul\":6744:6767   */\n      div\n        /* \"#utility.yul\":6734:6767   */\n      swap1\n      pop\n        /* \"#utility.yul\":6680:6773   */\n      swap2\n      swap1\n      pop\n      jump\t// out\n        /* \"#utility.yul\":6779:6886   */\n    tag_75:\n        /* \"#utility.yul\":6823:6831   */\n      0x00\n        /* \"#utility.yul\":6873:6878   */\n      dup3\n        /* \"#utility.yul\":6867:6871   */\n      dup3\n        /* \"#utility.yul\":6863:6879   */\n      shl\n        /* \"#utility.yul\":6842:6879   */\n      swap1\n      pop\n        /* \"#utility.yul\":6779:6886   */\n      swap3\n      swap2\n      pop\n      pop\n      jump\t// out\n        /* \"#utility.yul\":6892:7285   */\n    tag_76:\n        /* \"#utility.yul\":6961:6967   */\n      0x00\n        /* \"#utility.yul\":7011:7012   */\n      0x08\n        /* \"#utility.yul\":6999:7009   */\n      dup4\n        /* \"#utility.yul\":6995:7013   */\n      mul\n        /* \"#utility.yul\":7034:7131   */\n      tag_164\n        /* \"#utility.yul\":7064:7130   */\n      0xffffffffffffffffffffffffffffffffffffffffffffffffffffffffffffffff\n        /* \"#utility.yul\":7053:7062   */\n      dup3\n        /* \"#utility.yul\":7034:7131   */\n      tag_75\n      jump\t// in\n    tag_164:\n        /* \"#utility.yul\":7152:7191   */\n      tag_165\n        /* \"#utility.yul\":7182:7190   */\n      dup7\n        /* \"#utility.yul\":7171:7180   */\n      dup4\n        /* \"#utility.yul\":7152:7191   */\n      tag_75\n      jump\t// in\n    tag_165:\n        /* \"#utility.yul\":7140:7191   */\n      swap6\n      pop\n        /* \"#utility.yul\":7224:7228   */\n      dup1\n        /* \"#utility.yul\":7220:7229   */\n      not\n        /* \"#utility.yul\":7213:7218   */\n      dup5\n        /* \"#utility.yul\":7209:7230   */\n      and\n        /* \"#utility.yul\":7200:7230   */\n      swap4\n      pop\n        /* \"#utility.yul\":7273:7277   */\n      dup1\n        /* \"#utility.yul\":7263:7271   */\n      dup7\n        /* \"#utility.yul\":7259:7278   */\n      and\n        /* \"#utility.yul\":7252:7257   */\n      dup5\n        /* \"#utility.yul\":7249:7279   */\n      or\n        /* \"#utility.yul\":7239:7279   */\n      swap3\n      pop\n        /* \"#utility.yul\":6968:7285   */\n      pop\n      pop\n        /* \"#utility.yul\":6892:7285   */\n      swap4\n      swap3\n      pop\n      pop\n      pop\n      jump\t// out\n        /* \"#utility.yul\":7291:7351   */\n    tag_77:\n        /* \"#utility.yul\":7319:7322   */\n      0x00\n        /* \"#utility.yul\":7340:7345   */\n      dup2\n        /* \"#utility.yul\":7333:7345   */\n      swap1\n      pop\n        /* \"#utility.yul\":7291:7351   */\n      swap2\n      swap1\n      pop\n      jump\t// out\n        /* \"#utility.yul\":7357:7499   */\n    tag_78:\n        /* \"#utility.yul\":7407:7416   */\n      0x00\n        /* \"#utility.yul\":7440:7493   */\n      tag_168\n        /* \"#utility.yul\":7458:7492   */\n      tag_169\n        /* \"#utility.yul\":7467:7491   */\n      tag_170\n        /* \"#utility.yul\":7485:7490   */\n      dup5\n        /* \"#utility.yul\":7467:7491   */\n      tag_64\n      jump\t// in\n    tag_170:\n        /* \"#utility.yul\":7458:7492   */\n      tag_77\n      jump\t// in\n    tag_169:\n        /* \"#utility.yul\":7440:7493   */\n      tag_64\n      jump\t// in\n    tag_168:\n        /* \"#utility.yul\":7427:7493   */\n      swap1\n      pop\n        /* \"#utility.yul\":7357:7499   */\n      swap2\n      swap1\n      pop\n      jump\t// out\n        /* \"#utility.yul\":7505:7580   */\n    tag_79:\n        /* \"#utility.yul\":7548:7551   */\n      0x00\n        /* \"#utility.yul\":7569:7574   */\n      dup2\n        /* \"#utility.yul\":7562:7574   */\n      swap1\n      pop\n        /* \"#utility.yul\":7505:7580   */\n      swap2\n      swap1\n      pop\n      jump\t// out\n        /* \"#utility.yul\":7586:7855   */\n    tag_80:\n        /* \"#utility.yul\":7696:7735   */\n      tag_173\n        /* \"#utility.yul\":7727:7734   */\n      dup4\n        /* \"#utility.yul\":7696:7735   */\n      tag_78\n      jump\t// in\n    tag_173:\n        /* \"#utility.yul\":7757:7848   */\n      tag_174\n        /* \"#utility.yul\":7806:7847   */\n      tag_175\n        /* \"#utility.yul\":7830:7846   */\n      dup3\n        /* \"#utility.yul\":7806:7847   */\n      tag_79\n      jump\t// in\n    tag_175:\n        /* \"#utility.yul\":7798:7804   */\n      dup5\n        /* \"#utility.yul\":7791:7795   */\n      dup5\n        /* \"#utility.yul\":7785:7796   */\n      sload\n        /* \"#utility.yul\":7757:7848   */\n      tag_76\n      jump\t// in\n    tag_174:\n        /* \"#utility.yul\":7751:7755   */\n      dup3\n        /* \"#utility.yul\":7744:7849   */\n      sstore\n        /* \"#utility.yul\":7662:7855   */\n      pop\n        /* \"#utility.yul\":7586:7855   */\n      pop\n      pop\n      pop\n      jump\t// out\n        /* \"#utility.yul\":7861:7934   */\n    tag_81:\n        /* \"#utility.yul\":7906:7909   */\n      0x00\n        /* \"#utility.yul\":7861:7934   */\n      swap1\n      jump\t// out\n        /* \"#utility.yul\":7940:8129   */\n    tag_82:\n        /* \"#utility.yul\":8017:8049   */\n      tag_178\n      tag_81\n      jump\t// in\n    tag_178:\n        /* \"#utility.yul\":8058:8123   */\n      tag_179\n        /* \"#utility.yul\":8116:8122   */\n      dup2\n        /* \"#utility.yul\":8108:8114   */\n      dup5\n        /* \"#utility.yul\":8102:8106   */\n      dup5\n        /* \"#utility.yul\":8058:8123   */\n      tag_80\n      jump\t// in\n    tag_179:\n        /* \"#utility.yul\":7993:8129   */\n      pop\n        /* \"#utility.yul\":7940:8129   */\n      pop\n      pop\n      jump\t// out\n        /* \"#utility.yul\":8135:8321   */\n    tag_83:\n        /* \"#utility.yul\":8195:8315   */\n    tag_181:\n        /* \"#utility.yul\":8212:8215   */\n      dup2\n        /* \"#utility.yul\":8205:8210   */\n      dup2\n        /* \"#utility.yul\":8202:8216   */\n      lt\n        /* \"#utility.yul\":8195:8315   */\n      iszero\n      tag_183\n      jumpi\n        /* \"#utility.yul\":8266:8305   */\n      tag_184\n        /* \"#utility.yul\":8303:8304   */\n      0x00\n        /* \"#utility.yul\":8296:8301   */\n      dup3\n        /* \"#utility.yul\":8266:8305   */\n      tag_82\n      jump\t// in\n    tag_184:\n        /* \"#utility.yul\":8239:8240   */\n      0x01\n        /* \"#utility.yul\":8232:8237   */\n      dup2\n        /* \"#utility.yul\":8228:8241   */\n      add\n        /* \"#utility.yul\":8219:8241   */\n      swap1\n      pop\n        /* \"#utility.yul\":8195:8315   */\n      jump(tag_181)\n    tag_183:\n        /* \"#utility.yul\":8135:8321   */\n      pop\n      pop\n      jump\t// out\n        /* \"#utility.yul\":8327:8870   */\n    tag_84:\n        /* \"#utility.yul\":8428:8430   */\n      0x1f\n        /* \"#utility.yul\":8423:8426   */\n      dup3\n        /* \"#utility.yul\":8420:8431   */\n      gt\n        /* \"#utility.yul\":8417:8863   */\n      iszero\n      tag_186\n      jumpi\n        /* \"#utility.yul\":8462:8500   */\n      tag_187\n        /* \"#utility.yul\":8494:8499   */\n      dup2\n        /* \"#utility.yul\":8462:8500   */\n      tag_73\n      jump\t// in\n    tag_187:\n        /* \"#utility.yul\":8546:8575   */\n      tag_188\n        /* \"#utility.yul\":8564:8574   */\n      dup5\n        /* \"#utility.yul\":8546:8575   */\n      tag_74\n      jump\t// in\n    tag_188:\n        /* \"#utility.yul\":8536:8544   */\n      dup2\n        /* \"#utility.yul\":8532:8576   */\n      add\n        /* \"#utility.yul\":8729:8731   */\n      0x20\n        /* \"#utility.yul\":8717:8727   */\n      dup6\n        /* \"#utility.yul\":8714:8732   */\n      lt\n        /* \"#utility.yul\":8711:8760   */\n      iszero\n      tag_189\n      jumpi\n        /* \"#utility.yul\":8750:8758   */\n      dup2\n        /* \"#utility.yul\":8735:8758   */\n      swap1\n      pop\n        /* \"#utility.yul\":8711:8760   */\n    tag_189:\n        /* \"#utility.yul\":8773:8853   */\n      tag_190\n        /* \"#utility.yul\":8829:8851   */\n      tag_191\n        /* \"#utility.yul\":8847:8850   */\n      dup6\n        /* \"#utility.yul\":8829:8851   */\n      tag_74\n      jump\t// in\n    tag_191:\n        /* \"#utility.yul\":8819:8827   */\n      dup4\n        /* \"#utility.yul\":8815:8852   */\n      add\n        /* \"#utility.yul\":8802:8813   */\n      dup3\n        /* \"#utility.yul\":8773:8853   */\n      tag_83\n      jump\t// in\n    tag_190:\n        /* \"#utility.yul\":8432:8863   */\n      pop\n      pop\n        /* \"#utility.yul\":8417:8863   */\n    tag_186:\n        /* \"#utility.yul\":8327:8870   */\n      pop\n      pop\n      pop\n      jump\t// out\n        /* \"#utility.yul\":8876:8993   */\n    tag_85:\n        /* \"#utility.yul\":8930:8938   */\n      0x00\n        /* \"#utility.yul\":8980:8985   */\n      dup3\n        /* \"#utility.yul\":8974:8978   */\n      dup3\n        /* \"#utility.yul\":8970:8986   */\n      shr\n        /* \"#utility.yul\":8949:8986   */\n      swap1\n      pop\n        /* \"#utility.yul\":8876:8993   */\n      swap3\n      swap2\n      pop\n      pop\n      jump\t// out\n        /* \"#utility.yul\":8999:9168   */\n    tag_86:\n        /* \"#utility.yul\":9043:9049   */\n      0x00\n        /* \"#utility.yul\":9076:9127   */\n      tag_194\n        /* \"#utility.yul\":9124:9125   */\n      0x00\n        /* \"#utility.yul\":9120:9126   */\n      not\n        /* \"#utility.yul\":9112:9117   */\n      dup5\n        /* \"#utility.yul\":9109:9110   */\n      0x08\n        /* \"#utility.yul\":9105:9118   */\n      mul\n        /* \"#utility.yul\":9076:9127   */\n      tag_85\n      jump\t// in\n    tag_194:\n        /* \"#utility.yul\":9072:9128   */\n      not\n        /* \"#utility.yul\":9157:9161   */\n      dup1\n        /* \"#utility.yul\":9151:9155   */\n      dup4\n        /* \"#utility.yul\":9147:9162   */\n      and\n        /* \"#utility.yul\":9137:9162   */\n      swap2\n      pop\n        /* \"#utility.yul\":9050:9168   */\n      pop\n        /* \"#utility.yul\":8999:9168   */\n      swap3\n      swap2\n      pop\n      pop\n      jump\t// out\n        /* \"#utility.yul\":9173:9468   */\n    tag_87:\n        /* \"#utility.yul\":9249:9253   */\n      0x00\n        /* \"#utility.yul\":9395:9424   */\n      tag_196\n        /* \"#utility.yul\":9420:9423   */\n      dup4\n        /* \"#utility.yul\":9414:9418   */\n      dup4\n        /* \"#utility.yul\":9395:9424   */\n      tag_86\n      jump\t// in\n    tag_196:\n        /* \"#utility.yul\":9387:9424   */\n      swap2\n      pop\n        /* \"#utility.yul\":9457:9460   */\n      dup3\n        /* \"#utility.yul\":9454:9455   */\n      0x02\n        /* \"#utility.yul\":9450:9461   */\n      mul\n        /* \"#utility.yul\":9444:9448   */\n      dup3\n        /* \"#utility.yul\":9441:9462   */\n      or\n        /* \"#utility.yul\":9433:9462   */\n      swap1\n      pop\n        /* \"#utility.yul\":9173:9468   */\n      swap3\n      swap2\n      pop\n      pop\n      jump\t// out\n        /* \"#utility.yul\":9473:10868   */\n    tag_28:\n        /* \"#utility.yul\":9590:9627   */\n      tag_198\n        /* \"#utility.yul\":9623:9626   */\n      dup3\n        /* \"#utility.yul\":9590:9627   */\n      tag_68\n      jump\t// in\n    tag_198:\n        /* \"#utility.yul\":9692:9710   */\n      0xffffffffffffffff\n        /* \"#utility.yul\":9684:9690   */\n      dup2\n        /* \"#utility.yul\":9681:9711   */\n      gt\n        /* \"#utility.yul\":9678:9734   */\n      iszero\n      tag_199\n      jumpi\n        /* \"#utility.yul\":9714:9732   */\n      tag_200\n      tag_57\n      jump\t// in\n    tag_200:\n        /* \"#utility.yul\":9678:9734   */\n    tag_199:\n        /* \"#utility.yul\":9758:9796   */\n      tag_201\n        /* \"#utility.yul\":9790:9794   */\n      dup3\n        /* \"#utility.yul\":9784:9795   */\n      sload\n        /* \"#utility.yul\":9758:9796   */\n      tag_41\n      jump\t// in\n    tag_201:\n        /* \"#utility.yul\":9843:9910   */\n      tag_202\n        /* \"#utility.yul\":9903:9909   */\n      dup3\n        /* \"#utility.yul\":9895:9901   */\n      dup3\n        /* \"#utility.yul\":9889:9893   */\n      dup6\n        /* \"#utility.yul\":9843:9910   */\n      tag_84\n      jump\t// in\n    tag_202:\n        /* \"#utility.yul\":9937:9938   */\n      0x00\n        /* \"#utility.yul\":9961:9965   */\n      0x20\n        /* \"#utility.yul\":9948:9965   */\n      swap1\n      pop\n        /* \"#utility.yul\":9993:9995   */\n      0x1f\n        /* \"#utility.yul\":9985:9991   */\n      dup4\n        /* \"#utility.yul\":9982:9996   */\n      gt\n        /* \"#utility.yul\":10010:10011   */\n      0x01\n        /* \"#utility.yul\":10005:10623   */\n      dup2\n      eq\n      tag_204\n      jumpi\n        /* \"#utility.yul\":10667:10668   */\n      0x00\n        /* \"#utility.yul\":10684:10690   */\n      dup5\n        /* \"#utility.yul\":10681:10758   */\n      iszero\n      tag_205\n      jumpi\n        /* \"#utility.yul\":10733:10742   */\n      dup3\n        /* \"#utility.yul\":10728:10731   */\n      dup8\n        /* \"#utility.yul\":10724:10743   */\n      add\n        /* \"#utility.yul\":10718:10744   */\n      mload\n        /* \"#utility.yul\":10709:10744   */\n      swap1\n      pop\n        /* \"#utility.yul\":10681:10758   */\n    tag_205:\n        /* \"#utility.yul\":10784:10851   */\n      tag_206\n        /* \"#utility.yul\":10844:10850   */\n      dup6\n        /* \"#utility.yul\":10837:10842   */\n      dup3\n        /* \"#utility.yul\":10784:10851   */\n      tag_87\n      jump\t// in\n    tag_206:\n        /* \"#utility.yul\":10778:10782   */\n      dup7\n        /* \"#utility.yul\":10771:10852   */\n      sstore\n        /* \"#utility.yul\":10640:10862   */\n      pop\n        /* \"#utility.yul\":9975:10862   */\n      jump(tag_203)\n        /* \"#utility.yul\":10005:10623   */\n    tag_204:\n        /* \"#utility.yul\":10057:10061   */\n      0x1f\n        /* \"#utility.yul\":10053:10062   */\n      not\n        /* \"#utility.yul\":10045:10051   */\n      dup5\n        /* \"#utility.yul\":10041:10063   */\n      and\n        /* \"#utility.yul\":10091:10128   */\n      tag_207\n        /* \"#utility.yul\":10123:10127   */\n      dup7\n        /* \"#utility.yul\":10091:10128   */\n      tag_73\n      jump\t// in\n    tag_207:\n        /* \"#utility.yul\":10150:10151   */\n      0x00\n        /* \"#utility.yul\":10164:10372   */\n    tag_208:\n        /* \"#utility.yul\":10178:10185   */\n      dup3\n        /* \"#utility.yul\":10175:10176   */\n      dup2\n        /* \"#utility.yul\":10172:10186   */\n      lt\n        /* \"#utility.yul\":10164:10372   */\n      iszero\n      tag_210\n      jumpi\n        /* \"#utility.yul\":10257:10266   */\n      dup5\n        /* \"#utility.yul\":10252:10255   */\n      dup10\n        /* \"#utility.yul\":10248:10267   */\n      add\n        /* \"#utility.yul\":10242:10268   */\n      mload\n        /* \"#utility.yul\":10234:10240   */\n      dup3\n        /* \"#utility.yul\":10227:10269   */\n      sstore\n        /* \"#utility.yul\":10308:10309   */\n      0x01\n        /* \"#utility.yul\":10300:10306   */\n      dup3\n        /* \"#utility.yul\":10296:10310   */\n      add\n        /* \"#utility.yul\":10286:10310   */\n      swap2\n      pop\n        /* \"#utility.yul\":10355:10357   */\n      0x20\n        /* \"#utility.yul\":10344:10353   */\n      dup6\n        /* \"#utility.yul\":10340:10358   */\n      add\n        /* \"#utility.yul\":10327:10358   */\n      swap5\n      pop\n        /* \"#utility.yul\":10201:10205   */\n      0x20\n        /* \"#utility.yul\":10198:10199   */\n      dup2\n        /* \"#utility.yul\":10194:10206   */\n      add\n        /* \"#utility.yul\":10189:10206   */\n      swap1\n      pop\n        /* \"#utility.yul\":10164:10372   */\n      jump(tag_208)\n    tag_210:\n        /* \"#utility.yul\":10400:10406   */\n      dup7\n        /* \"#utility.yul\":10391:10398   */\n      dup4\n        /* \"#utility.yul\":10388:10407   */\n      lt\n        /* \"#utility.yul\":10385:10564   */\n      iszero\n      tag_211\n      jumpi\n        /* \"#utility.yul\":10458:10467   */\n      dup5\n        /* \"#utility.yul\":10453:10456   */\n      dup10\n        /* \"#utility.yul\":10449:10468   */\n      add\n        /* \"#utility.yul\":10443:10469   */\n      mload\n        /* \"#utility.yul\":10501:10549   */\n      tag_212\n        /* \"#utility.yul\":10543:10547   */\n      0x1f\n        /* \"#utility.yul\":10535:10541   */\n      dup10\n        /* \"#utility.yul\":10531:10548   */\n      and\n        /* \"#utility.yul\":10520:10529   */\n      dup3\n        /* \"#utility.yul\":10501:10549   */\n      tag_86\n      jump\t// in\n    tag_212:\n        /* \"#utility.yul\":10493:10499   */\n      dup4\n        /* \"#utility.yul\":10486:10550   */\n      sstore\n        /* \"#utility.yul\":10408:10564   */\n      pop\n        /* \"#utility.yul\":10385:10564   */\n    tag_211:\n        /* \"#utility.yul\":10610:10611   */\n      0x01\n        /* \"#utility.yul\":10606:10607   */\n      0x02\n        /* \"#utility.yul\":10598:10604   */\n      dup9\n        /* \"#utility.yul\":10594:10608   */\n      mul\n        /* \"#utility.yul\":10590:10612   */\n      add\n        /* \"#utility.yul\":10584:10588   */\n      dup9\n        /* \"#utility.yul\":10577:10613   */\n      sstore\n        /* \"#utility.yul\":10012:10623   */\n      pop\n      pop\n      pop\n        /* \"#utility.yul\":9975:10862   */\n    tag_203:\n      pop\n        /* \"#utility.yul\":9565:10868   */\n      pop\n      pop\n      pop\n        /* \"#utility.yul\":9473:10868   */\n      pop\n      pop\n      jump\t// out\n        /* \"#utility.yul\":10874:11054   */\n    tag_88:\n        /* \"#utility.yul\":10922:10999   */\n      0x4e487b7100000000000000000000000000000000000000000000000000000000\n        /* \"#utility.yul\":10919:10920   */\n      0x00\n        /* \"#utility.yul\":10912:11000   */\n      mstore\n        /* \"#utility.yul\":11019:11023   */\n      0x11\n        /* \"#utility.yul\":11016:11017   */\n      0x04\n        /* \"#utility.yul\":11009:11024   */\n      mstore\n        /* \"#utility.yul\":11043:11047   */\n      0x24\n        /* \"#utility.yul\":11040:11041   */\n      0x00\n        /* \"#utility.yul\":11033:11048   */\n      revert\n        /* \"#utility.yul\":11060:11251   */\n    tag_35:\n        /* \"#utility.yul\":11100:11103   */\n      0x00\n        /* \"#utility.yul\":11119:11139   */\n      tag_215\n        /* \"#utility.yul\":11137:11138   */\n      dup3\n        /* \"#utility.yul\":11119:11139   */\n      tag_64\n      jump\t// in\n    tag_215:\n        /* \"#utility.yul\":11114:11139   */\n      swap2\n      pop\n        /* \"#utility.yul\":11153:11173   */\n      tag_216\n        /* \"#utility.yul\":11171:11172   */\n      dup4\n        /* \"#utility.yul\":11153:11173   */\n      tag_64\n      jump\t// in\n    tag_216:\n        /* \"#utility.yul\":11148:11173   */\n      swap3\n      pop\n        /* \"#utility.yul\":11196:11197   */\n      dup3\n        /* \"#utility.yul\":11193:11194   */\n      dup3\n        /* \"#utility.yul\":11189:11198   */\n      add\n        /* \"#utility.yul\":11182:11198   */\n      swap1\n      pop\n        /* \"#utility.yul\":11217:11220   */\n      dup1\n        /* \"#utility.yul\":11214:11215   */\n      dup3\n        /* \"#utility.yul\":11211:11221   */\n      gt\n        /* \"#utility.yul\":11208:11244   */\n      iszero\n      tag_217\n      jumpi\n        /* \"#utility.yul\":11224:11242   */\n      tag_218\n      tag_88\n      jump\t// in\n    tag_218:\n        /* \"#utility.yul\":11208:11244   */\n    tag_217:\n        /* \"#utility.yul\":11060:11251   */\n      swap3\n      swap2\n      pop\n      pop\n      jump\t// out\n\n    auxdata: 0xa2646970667358221220e28322a2bc2f389ecb689b958715768eedd110f699a6b9058e18cd0148d6c52164736f6c634300081a0033\n}\n",
				"bytecode": {
					"linkReferences": {},
					"object": "6080604052348015600e575f80fd5b506109678061001c5f395ff3fe608060405234801561000f575f80fd5b506004361061004a575f3560e01c8063707338da1461004e578063787872d51461006a5780637a8f8fa01461009a57806399b65f79146100b6575b5f80fd5b6100686004803603810190610063919061048a565b6100e8565b005b610084600480360381019061007f9190610512565b610165565b604051610091919061054c565b60405180910390f35b6100b460048036038101906100af9190610512565b610194565b005b6100d060048036038101906100cb9190610512565b6101aa565b6040516100df939291906105c5565b60405180910390f35b5f604051806060016040528085815260200184815260200183815250908060018154018082558091505060019003905f5260205f2090600302015f909190919091505f820151815f01908161013d9190610802565b5060208201518160010155604082015181600201908161015d9190610802565b505050505050565b5f61016e6102ea565b620249f08160200151111561018e578261271061018b91906108fe565b91505b50919050565b61019c6102ea565b818160200181815250505050565b5f81815481106101b8575f80fd5b905f5260205f2090600302015f91509050805f0180546101d790610635565b80601f016020809104026020016040519081016040528092919081815260200182805461020390610635565b801561024e5780601f106102255761010080835404028352916020019161024e565b820191905f5260205f20905b81548152906001019060200180831161023157829003601f168201915b50505050509080600101549080600201805461026990610635565b80601f016020809104026020016040519081016040528092919081815260200182805461029590610635565b80156102e05780601f106102b7576101008083540402835291602001916102e0565b820191905f5260205f20905b8154815290600101906020018083116102c357829003601f168201915b5050505050905083565b6040518060600160405280606081526020015f8152602001606081525090565b5f604051905090565b5f80fd5b5f80fd5b5f80fd5b5f80fd5b5f601f19601f8301169050919050565b7f4e487b71000000000000000000000000000000000000000000000000000000005f52604160045260245ffd5b61036982610323565b810181811067ffffffffffffffff8211171561038857610387610333565b5b80604052505050565b5f61039a61030a565b90506103a68282610360565b919050565b5f67ffffffffffffffff8211156103c5576103c4610333565b5b6103ce82610323565b9050602081019050919050565b828183375f83830152505050565b5f6103fb6103f6846103ab565b610391565b9050828152602081018484840111156104175761041661031f565b5b6104228482856103db565b509392505050565b5f82601f83011261043e5761043d61031b565b5b813561044e8482602086016103e9565b91505092915050565b5f819050919050565b61046981610457565b8114610473575f80fd5b50565b5f8135905061048481610460565b92915050565b5f805f606084860312156104a1576104a0610313565b5b5f84013567ffffffffffffffff8111156104be576104bd610317565b5b6104ca8682870161042a565b93505060206104db86828701610476565b925050604084013567ffffffffffffffff8111156104fc576104fb610317565b5b6105088682870161042a565b9150509250925092565b5f6020828403121561052757610526610313565b5b5f61053484828501610476565b91505092915050565b61054681610457565b82525050565b5f60208201905061055f5f83018461053d565b92915050565b5f81519050919050565b5f82825260208201905092915050565b8281835e5f83830152505050565b5f61059782610565565b6105a1818561056f565b93506105b181856020860161057f565b6105ba81610323565b840191505092915050565b5f6060820190508181035f8301526105dd818661058d565b90506105ec602083018561053d565b81810360408301526105fe818461058d565b9050949350505050565b7f4e487b71000000000000000000000000000000000000000000000000000000005f52602260045260245ffd5b5f600282049050600182168061064c57607f821691505b60208210810361065f5761065e610608565b5b50919050565b5f819050815f5260205f209050919050565b5f6020601f8301049050919050565b5f82821b905092915050565b5f600883026106c17fffffffffffffffffffffffffffffffffffffffffffffffffffffffffffffffff82610686565b6106cb8683610686565b95508019841693508086168417925050509392505050565b5f819050919050565b5f6107066107016106fc84610457565b6106e3565b610457565b9050919050565b5f819050919050565b61071f836106ec565b61073361072b8261070d565b848454610692565b825550505050565b5f90565b61074761073b565b610752818484610716565b505050565b5b818110156107755761076a5f8261073f565b600181019050610758565b5050565b601f8211156107ba5761078b81610665565b61079484610677565b810160208510156107a3578190505b6107b76107af85610677565b830182610757565b50505b505050565b5f82821c905092915050565b5f6107da5f19846008026107bf565b1980831691505092915050565b5f6107f283836107cb565b9150826002028217905092915050565b61080b82610565565b67ffffffffffffffff81111561082457610823610333565b5b61082e8254610635565b610839828285610779565b5f60209050601f83116001811461086a575f8415610858578287015190505b61086285826107e7565b8655506108c9565b601f19841661087886610665565b5f5b8281101561089f5784890151825560018201915060208501945060208101905061087a565b868310156108bc57848901516108b8601f8916826107cb565b8355505b6001600288020188555050505b505050505050565b7f4e487b71000000000000000000000000000000000000000000000000000000005f52601160045260245ffd5b5f61090882610457565b915061091383610457565b925082820190508082111561092b5761092a6108d1565b5b9291505056fea2646970667358221220e28322a2bc2f389ecb689b958715768eedd110f699a6b9058e18cd0148d6c52164736f6c634300081a0033",
					"opcodes": "PUSH1 0x80 PUSH1 0x40 MSTORE CALLVALUE DUP1 ISZERO PUSH1 0xE JUMPI PUSH0 DUP1 REVERT JUMPDEST POP PUSH2 0x967 DUP1 PUSH2 0x1C PUSH0 CODECOPY PUSH0 RETURN INVALID PUSH1 0x80 PUSH1 0x40 MSTORE CALLVALUE DUP1 ISZERO PUSH2 0xF JUMPI PUSH0 DUP1 REVERT JUMPDEST POP PUSH1 0x4 CALLDATASIZE LT PUSH2 0x4A JUMPI PUSH0 CALLDATALOAD PUSH1 0xE0 SHR DUP1 PUSH4 0x707338DA EQ PUSH2 0x4E JUMPI DUP1 PUSH4 0x787872D5 EQ PUSH2 0x6A JUMPI DUP1 PUSH4 0x7A8F8FA0 EQ PUSH2 0x9A JUMPI DUP1 PUSH4 0x99B65F79 EQ PUSH2 0xB6 JUMPI JUMPDEST PUSH0 DUP1 REVERT JUMPDEST PUSH2 0x68 PUSH1 0x4 DUP1 CALLDATASIZE SUB DUP2 ADD SWAP1 PUSH2 0x63 SWAP2 SWAP1 PUSH2 0x48A JUMP JUMPDEST PUSH2 0xE8 JUMP JUMPDEST STOP JUMPDEST PUSH2 0x84 PUSH1 0x4 DUP1 CALLDATASIZE SUB DUP2 ADD SWAP1 PUSH2 0x7F SWAP2 SWAP1 PUSH2 0x512 JUMP JUMPDEST PUSH2 0x165 JUMP JUMPDEST PUSH1 0x40 MLOAD PUSH2 0x91 SWAP2 SWAP1 PUSH2 0x54C JUMP JUMPDEST PUSH1 0x40 MLOAD DUP1 SWAP2 SUB SWAP1 RETURN JUMPDEST PUSH2 0xB4 PUSH1 0x4 DUP1 CALLDATASIZE SUB DUP2 ADD SWAP1 PUSH2 0xAF SWAP2 SWAP1 PUSH2 0x512 JUMP JUMPDEST PUSH2 0x194 JUMP JUMPDEST STOP JUMPDEST PUSH2 0xD0 PUSH1 0x4 DUP1 CALLDATASIZE SUB DUP2 ADD SWAP1 PUSH2 0xCB SWAP2 SWAP1 PUSH2 0x512 JUMP JUMPDEST PUSH2 0x1AA JUMP JUMPDEST PUSH1 0x40 MLOAD PUSH2 0xDF SWAP4 SWAP3 SWAP2 SWAP1 PUSH2 0x5C5 JUMP JUMPDEST PUSH1 0x40 MLOAD DUP1 SWAP2 SUB SWAP1 RETURN JUMPDEST PUSH0 PUSH1 0x40 MLOAD DUP1 PUSH1 0x60 ADD PUSH1 0x40 MSTORE DUP1 DUP6 DUP2 MSTORE PUSH1 0x20 ADD DUP5 DUP2 MSTORE PUSH1 0x20 ADD DUP4 DUP2 MSTORE POP SWAP1 DUP1 PUSH1 0x1 DUP2 SLOAD ADD DUP1 DUP3 SSTORE DUP1 SWAP2 POP POP PUSH1 0x1 SWAP1 SUB SWAP1 PUSH0 MSTORE PUSH1 0x20 PUSH0 KECCAK256 SWAP1 PUSH1 0x3 MUL ADD PUSH0 SWAP1 SWAP2 SWAP1 SWAP2 SWAP1 SWAP2 POP PUSH0 DUP3 ADD MLOAD DUP2 PUSH0 ADD SWAP1 DUP2 PUSH2 0x13D SWAP2 SWAP1 PUSH2 0x802 JUMP JUMPDEST POP PUSH1 0x20 DUP3 ADD MLOAD DUP2 PUSH1 0x1 ADD SSTORE PUSH1 0x40 DUP3 ADD MLOAD DUP2 PUSH1 0x2 ADD SWAP1 DUP2 PUSH2 0x15D SWAP2 SWAP1 PUSH2 0x802 JUMP JUMPDEST POP POP POP POP POP POP JUMP JUMPDEST PUSH0 PUSH2 0x16E PUSH2 0x2EA JUMP JUMPDEST PUSH3 0x249F0 DUP2 PUSH1 0x20 ADD MLOAD GT ISZERO PUSH2 0x18E JUMPI DUP3 PUSH2 0x2710 PUSH2 0x18B SWAP2 SWAP1 PUSH2 0x8FE JUMP JUMPDEST SWAP2 POP JUMPDEST POP SWAP2 SWAP1 POP JUMP JUMPDEST PUSH2 0x19C PUSH2 0x2EA JUMP JUMPDEST DUP2 DUP2 PUSH1 0x20 ADD DUP2 DUP2 MSTORE POP POP POP POP JUMP JUMPDEST PUSH0 DUP2 DUP2 SLOAD DUP2 LT PUSH2 0x1B8 JUMPI PUSH0 DUP1 REVERT JUMPDEST SWAP1 PUSH0 MSTORE PUSH1 0x20 PUSH0 KECCAK256 SWAP1 PUSH1 0x3 MUL ADD PUSH0 SWAP2 POP SWAP1 POP DUP1 PUSH0 ADD DUP1 SLOAD PUSH2 0x1D7 SWAP1 PUSH2 0x635 JUMP JUMPDEST DUP1 PUSH1 0x1F ADD PUSH1 0x20 DUP1 SWAP2 DIV MUL PUSH1 0x20 ADD PUSH1 0x40 MLOAD SWAP1 DUP2 ADD PUSH1 0x40 MSTORE DUP1 SWAP3 SWAP2 SWAP1 DUP2 DUP2 MSTORE PUSH1 0x20 ADD DUP3 DUP1 SLOAD PUSH2 0x203 SWAP1 PUSH2 0x635 JUMP JUMPDEST DUP1 ISZERO PUSH2 0x24E JUMPI DUP1 PUSH1 0x1F LT PUSH2 0x225 JUMPI PUSH2 0x100 DUP1 DUP4 SLOAD DIV MUL DUP4 MSTORE SWAP2 PUSH1 0x20 ADD SWAP2 PUSH2 0x24E JUMP JUMPDEST DUP3 ADD SWAP2 SWAP1 PUSH0 MSTORE PUSH1 0x20 PUSH0 KECCAK256 SWAP1 JUMPDEST DUP2 SLOAD DUP2 MSTORE SWAP1 PUSH1 0x1 ADD SWAP1 PUSH1 0x20 ADD DUP1 DUP4 GT PUSH2 0x231 JUMPI DUP3 SWAP1 SUB PUSH1 0x1F AND DUP3 ADD SWAP2 JUMPDEST POP POP POP POP POP SWAP1 DUP1 PUSH1 0x1 ADD SLOAD SWAP1 DUP1 PUSH1 0x2 ADD DUP1 SLOAD PUSH2 0x269 SWAP1 PUSH2 0x635 JUMP JUMPDEST DUP1 PUSH1 0x1F ADD PUSH1 0x20 DUP1 SWAP2 DIV MUL PUSH1 0x20 ADD PUSH1 0x40 MLOAD SWAP1 DUP2 ADD PUSH1 0x40 MSTORE DUP1 SWAP3 SWAP2 SWAP1 DUP2 DUP2 MSTORE PUSH1 0x20 ADD DUP3 DUP1 SLOAD PUSH2 0x295 SWAP1 PUSH2 0x635 JUMP JUMPDEST DUP1 ISZERO PUSH2 0x2E0 JUMPI DUP1 PUSH1 0x1F LT PUSH2 0x2B7 JUMPI PUSH2 0x100 DUP1 DUP4 SLOAD DIV MUL DUP4 MSTORE SWAP2 PUSH1 0x20 ADD SWAP2 PUSH2 0x2E0 JUMP JUMPDEST DUP3 ADD SWAP2 SWAP1 PUSH0 MSTORE PUSH1 0x20 PUSH0 KECCAK256 SWAP1 JUMPDEST DUP2 SLOAD DUP2 MSTORE SWAP1 PUSH1 0x1 ADD SWAP1 PUSH1 0x20 ADD DUP1 DUP4 GT PUSH2 0x2C3 JUMPI DUP3 SWAP1 SUB PUSH1 0x1F AND DUP3 ADD SWAP2 JUMPDEST POP POP POP POP POP SWAP1 POP DUP4 JUMP JUMPDEST PUSH1 0x40 MLOAD DUP1 PUSH1 0x60 ADD PUSH1 0x40 MSTORE DUP1 PUSH1 0x60 DUP2 MSTORE PUSH1 0x20 ADD PUSH0 DUP2 MSTORE PUSH1 0x20 ADD PUSH1 0x60 DUP2 MSTORE POP SWAP1 JUMP JUMPDEST PUSH0 PUSH1 0x40 MLOAD SWAP1 POP SWAP1 JUMP JUMPDEST PUSH0 DUP1 REVERT JUMPDEST PUSH0 DUP1 REVERT JUMPDEST PUSH0 DUP1 REVERT JUMPDEST PUSH0 DUP1 REVERT JUMPDEST PUSH0 PUSH1 0x1F NOT PUSH1 0x1F DUP4 ADD AND SWAP1 POP SWAP2 SWAP1 POP JUMP JUMPDEST PUSH32 0x4E487B7100000000000000000000000000000000000000000000000000000000 PUSH0 MSTORE PUSH1 0x41 PUSH1 0x4 MSTORE PUSH1 0x24 PUSH0 REVERT JUMPDEST PUSH2 0x369 DUP3 PUSH2 0x323 JUMP JUMPDEST DUP2 ADD DUP2 DUP2 LT PUSH8 0xFFFFFFFFFFFFFFFF DUP3 GT OR ISZERO PUSH2 0x388 JUMPI PUSH2 0x387 PUSH2 0x333 JUMP JUMPDEST JUMPDEST DUP1 PUSH1 0x40 MSTORE POP POP POP JUMP JUMPDEST PUSH0 PUSH2 0x39A PUSH2 0x30A JUMP JUMPDEST SWAP1 POP PUSH2 0x3A6 DUP3 DUP3 PUSH2 0x360 JUMP JUMPDEST SWAP2 SWAP1 POP JUMP JUMPDEST PUSH0 PUSH8 0xFFFFFFFFFFFFFFFF DUP3 GT ISZERO PUSH2 0x3C5 JUMPI PUSH2 0x3C4 PUSH2 0x333 JUMP JUMPDEST JUMPDEST PUSH2 0x3CE DUP3 PUSH2 0x323 JUMP JUMPDEST SWAP1 POP PUSH1 0x20 DUP2 ADD SWAP1 POP SWAP2 SWAP1 POP JUMP JUMPDEST DUP3 DUP2 DUP4 CALLDATACOPY PUSH0 DUP4 DUP4 ADD MSTORE POP POP POP JUMP JUMPDEST PUSH0 PUSH2 0x3FB PUSH2 0x3F6 DUP5 PUSH2 0x3AB JUMP JUMPDEST PUSH2 0x391 JUMP JUMPDEST SWAP1 POP DUP3 DUP2 MSTORE PUSH1 0x20 DUP2 ADD DUP5 DUP5 DUP5 ADD GT ISZERO PUSH2 0x417 JUMPI PUSH2 0x416 PUSH2 0x31F JUMP JUMPDEST JUMPDEST PUSH2 0x422 DUP5 DUP3 DUP6 PUSH2 0x3DB JUMP JUMPDEST POP SWAP4 SWAP3 POP POP POP JUMP JUMPDEST PUSH0 DUP3 PUSH1 0x1F DUP4 ADD SLT PUSH2 0x43E JUMPI PUSH2 0x43D PUSH2 0x31B JUMP JUMPDEST JUMPDEST DUP2 CALLDATALOAD PUSH2 0x44E DUP5 DUP3 PUSH1 0x20 DUP7 ADD PUSH2 0x3E9 JUMP JUMPDEST SWAP2 POP POP SWAP3 SWAP2 POP POP JUMP JUMPDEST PUSH0 DUP2 SWAP1 POP SWAP2 SWAP1 POP JUMP JUMPDEST PUSH2 0x469 DUP2 PUSH2 0x457 JUMP JUMPDEST DUP2 EQ PUSH2 0x473 JUMPI PUSH0 DUP1 REVERT JUMPDEST POP JUMP JUMPDEST PUSH0 DUP2 CALLDATALOAD SWAP1 POP PUSH2 0x484 DUP2 PUSH2 0x460 JUMP JUMPDEST SWAP3 SWAP2 POP POP JUMP JUMPDEST PUSH0 DUP1 PUSH0 PUSH1 0x60 DUP5 DUP7 SUB SLT ISZERO PUSH2 0x4A1 JUMPI PUSH2 0x4A0 PUSH2 0x313 JUMP JUMPDEST JUMPDEST PUSH0 DUP5 ADD CALLDATALOAD PUSH8 0xFFFFFFFFFFFFFFFF DUP2 GT ISZERO PUSH2 0x4BE JUMPI PUSH2 0x4BD PUSH2 0x317 JUMP JUMPDEST JUMPDEST PUSH2 0x4CA DUP7 DUP3 DUP8 ADD PUSH2 0x42A JUMP JUMPDEST SWAP4 POP POP PUSH1 0x20 PUSH2 0x4DB DUP7 DUP3 DUP8 ADD PUSH2 0x476 JUMP JUMPDEST SWAP3 POP POP PUSH1 0x40 DUP5 ADD CALLDATALOAD PUSH8 0xFFFFFFFFFFFFFFFF DUP2 GT ISZERO PUSH2 0x4FC JUMPI PUSH2 0x4FB PUSH2 0x317 JUMP JUMPDEST JUMPDEST PUSH2 0x508 DUP7 DUP3 DUP8 ADD PUSH2 0x42A JUMP JUMPDEST SWAP2 POP POP SWAP3 POP SWAP3 POP SWAP3 JUMP JUMPDEST PUSH0 PUSH1 0x20 DUP3 DUP5 SUB SLT ISZERO PUSH2 0x527 JUMPI PUSH2 0x526 PUSH2 0x313 JUMP JUMPDEST JUMPDEST PUSH0 PUSH2 0x534 DUP5 DUP3 DUP6 ADD PUSH2 0x476 JUMP JUMPDEST SWAP2 POP POP SWAP3 SWAP2 POP POP JUMP JUMPDEST PUSH2 0x546 DUP2 PUSH2 0x457 JUMP JUMPDEST DUP3 MSTORE POP POP JUMP JUMPDEST PUSH0 PUSH1 0x20 DUP3 ADD SWAP1 POP PUSH2 0x55F PUSH0 DUP4 ADD DUP5 PUSH2 0x53D JUMP JUMPDEST SWAP3 SWAP2 POP POP JUMP JUMPDEST PUSH0 DUP2 MLOAD SWAP1 POP SWAP2 SWAP1 POP JUMP JUMPDEST PUSH0 DUP3 DUP3 MSTORE PUSH1 0x20 DUP3 ADD SWAP1 POP SWAP3 SWAP2 POP POP JUMP JUMPDEST DUP3 DUP2 DUP4 MCOPY PUSH0 DUP4 DUP4 ADD MSTORE POP POP POP JUMP JUMPDEST PUSH0 PUSH2 0x597 DUP3 PUSH2 0x565 JUMP JUMPDEST PUSH2 0x5A1 DUP2 DUP6 PUSH2 0x56F JUMP JUMPDEST SWAP4 POP PUSH2 0x5B1 DUP2 DUP6 PUSH1 0x20 DUP7 ADD PUSH2 0x57F JUMP JUMPDEST PUSH2 0x5BA DUP2 PUSH2 0x323 JUMP JUMPDEST DUP5 ADD SWAP2 POP POP SWAP3 SWAP2 POP POP JUMP JUMPDEST PUSH0 PUSH1 0x60 DUP3 ADD SWAP1 POP DUP2 DUP2 SUB PUSH0 DUP4 ADD MSTORE PUSH2 0x5DD DUP2 DUP7 PUSH2 0x58D JUMP JUMPDEST SWAP1 POP PUSH2 0x5EC PUSH1 0x20 DUP4 ADD DUP6 PUSH2 0x53D JUMP JUMPDEST DUP2 DUP2 SUB PUSH1 0x40 DUP4 ADD MSTORE PUSH2 0x5FE DUP2 DUP5 PUSH2 0x58D JUMP JUMPDEST SWAP1 POP SWAP5 SWAP4 POP POP POP POP JUMP JUMPDEST PUSH32 0x4E487B7100000000000000000000000000000000000000000000000000000000 PUSH0 MSTORE PUSH1 0x22 PUSH1 0x4 MSTORE PUSH1 0x24 PUSH0 REVERT JUMPDEST PUSH0 PUSH1 0x2 DUP3 DIV SWAP1 POP PUSH1 0x1 DUP3 AND DUP1 PUSH2 0x64C JUMPI PUSH1 0x7F DUP3 AND SWAP2 POP JUMPDEST PUSH1 0x20 DUP3 LT DUP2 SUB PUSH2 0x65F JUMPI PUSH2 0x65E PUSH2 0x608 JUMP JUMPDEST JUMPDEST POP SWAP2 SWAP1 POP JUMP JUMPDEST PUSH0 DUP2 SWAP1 POP DUP2 PUSH0 MSTORE PUSH1 0x20 PUSH0 KECCAK256 SWAP1 POP SWAP2 SWAP1 POP JUMP JUMPDEST PUSH0 PUSH1 0x20 PUSH1 0x1F DUP4 ADD DIV SWAP1 POP SWAP2 SWAP1 POP JUMP JUMPDEST PUSH0 DUP3 DUP3 SHL SWAP1 POP SWAP3 SWAP2 POP POP JUMP JUMPDEST PUSH0 PUSH1 0x8 DUP4 MUL PUSH2 0x6C1 PUSH32 0xFFFFFFFFFFFFFFFFFFFFFFFFFFFFFFFFFFFFFFFFFFFFFFFFFFFFFFFFFFFFFFFF DUP3 PUSH2 0x686 JUMP JUMPDEST PUSH2 0x6CB DUP7 DUP4 PUSH2 0x686 JUMP JUMPDEST SWAP6 POP DUP1 NOT DUP5 AND SWAP4 POP DUP1 DUP7 AND DUP5 OR SWAP3 POP POP POP SWAP4 SWAP3 POP POP POP JUMP JUMPDEST PUSH0 DUP2 SWAP1 POP SWAP2 SWAP1 POP JUMP JUMPDEST PUSH0 PUSH2 0x706 PUSH2 0x701 PUSH2 0x6FC DUP5 PUSH2 0x457 JUMP JUMPDEST PUSH2 0x6E3 JUMP JUMPDEST PUSH2 0x457 JUMP JUMPDEST SWAP1 POP SWAP2 SWAP1 POP JUMP JUMPDEST PUSH0 DUP2 SWAP1 POP SWAP2 SWAP1 POP JUMP JUMPDEST PUSH2 0x71F DUP4 PUSH2 0x6EC JUMP JUMPDEST PUSH2 0x733 PUSH2 0x72B DUP3 PUSH2 0x70D JUMP JUMPDEST DUP5 DUP5 SLOAD PUSH2 0x692 JUMP JUMPDEST DUP3 SSTORE POP POP POP POP JUMP JUMPDEST PUSH0 SWAP1 JUMP JUMPDEST PUSH2 0x747 PUSH2 0x73B JUMP JUMPDEST PUSH2 0x752 DUP2 DUP5 DUP5 PUSH2 0x716 JUMP JUMPDEST POP POP POP JUMP JUMPDEST JUMPDEST DUP2 DUP2 LT ISZERO PUSH2 0x775 JUMPI PUSH2 0x76A PUSH0 DUP3 PUSH2 0x73F JUMP JUMPDEST PUSH1 0x1 DUP2 ADD SWAP1 POP PUSH2 0x758 JUMP JUMPDEST POP POP JUMP JUMPDEST PUSH1 0x1F DUP3 GT ISZERO PUSH2 0x7BA JUMPI PUSH2 0x78B DUP2 PUSH2 0x665 JUMP JUMPDEST PUSH2 0x794 DUP5 PUSH2 0x677 JUMP JUMPDEST DUP2 ADD PUSH1 0x20 DUP6 LT ISZERO PUSH2 0x7A3 JUMPI DUP2 SWAP1 POP JUMPDEST PUSH2 0x7B7 PUSH2 0x7AF DUP6 PUSH2 0x677 JUMP JUMPDEST DUP4 ADD DUP3 PUSH2 0x757 JUMP JUMPDEST POP POP JUMPDEST POP POP POP JUMP JUMPDEST PUSH0 DUP3 DUP3 SHR SWAP1 POP SWAP3 SWAP2 POP POP JUMP JUMPDEST PUSH0 PUSH2 0x7DA PUSH0 NOT DUP5 PUSH1 0x8 MUL PUSH2 0x7BF JUMP JUMPDEST NOT DUP1 DUP4 AND SWAP2 POP POP SWAP3 SWAP2 POP POP JUMP JUMPDEST PUSH0 PUSH2 0x7F2 DUP4 DUP4 PUSH2 0x7CB JUMP JUMPDEST SWAP2 POP DUP3 PUSH1 0x2 MUL DUP3 OR SWAP1 POP SWAP3 SWAP2 POP POP JUMP JUMPDEST PUSH2 0x80B DUP3 PUSH2 0x565 JUMP JUMPDEST PUSH8 0xFFFFFFFFFFFFFFFF DUP2 GT ISZERO PUSH2 0x824 JUMPI PUSH2 0x823 PUSH2 0x333 JUMP JUMPDEST JUMPDEST PUSH2 0x82E DUP3 SLOAD PUSH2 0x635 JUMP JUMPDEST PUSH2 0x839 DUP3 DUP3 DUP6 PUSH2 0x779 JUMP JUMPDEST PUSH0 PUSH1 0x20 SWAP1 POP PUSH1 0x1F DUP4 GT PUSH1 0x1 DUP2 EQ PUSH2 0x86A JUMPI PUSH0 DUP5 ISZERO PUSH2 0x858 JUMPI DUP3 DUP8 ADD MLOAD SWAP1 POP JUMPDEST PUSH2 0x862 DUP6 DUP3 PUSH2 0x7E7 JUMP JUMPDEST DUP7 SSTORE POP PUSH2 0x8C9 JUMP JUMPDEST PUSH1 0x1F NOT DUP5 AND PUSH2 0x878 DUP7 PUSH2 0x665 JUMP JUMPDEST PUSH0 JUMPDEST DUP3 DUP2 LT ISZERO PUSH2 0x89F JUMPI DUP5 DUP10 ADD MLOAD DUP3 SSTORE PUSH1 0x1 DUP3 ADD SWAP2 POP PUSH1 0x20 DUP6 ADD SWAP5 POP PUSH1 0x20 DUP2 ADD SWAP1 POP PUSH2 0x87A JUMP JUMPDEST DUP7 DUP4 LT ISZERO PUSH2 0x8BC JUMPI DUP5 DUP10 ADD MLOAD PUSH2 0x8B8 PUSH1 0x1F DUP10 AND DUP3 PUSH2 0x7CB JUMP JUMPDEST DUP4 SSTORE POP JUMPDEST PUSH1 0x1 PUSH1 0x2 DUP9 MUL ADD DUP9 SSTORE POP POP POP JUMPDEST POP POP POP POP POP POP JUMP JUMPDEST PUSH32 0x4E487B7100000000000000000000000000000000000000000000000000000000 PUSH0 MSTORE PUSH1 0x11 PUSH1 0x4 MSTORE PUSH1 0x24 PUSH0 REVERT JUMPDEST PUSH0 PUSH2 0x908 DUP3 PUSH2 0x457 JUMP JUMPDEST SWAP2 POP PUSH2 0x913 DUP4 PUSH2 0x457 JUMP JUMPDEST SWAP3 POP DUP3 DUP3 ADD SWAP1 POP DUP1 DUP3 GT ISZERO PUSH2 0x92B JUMPI PUSH2 0x92A PUSH2 0x8D1 JUMP JUMPDEST JUMPDEST SWAP3 SWAP2 POP POP JUMP INVALID LOG2 PUSH5 0x6970667358 0x22 SLT KECCAK256 0xE2 DUP4 0x22 LOG2 0xBC 0x2F CODESIZE SWAP15 0xCB PUSH9 0x9B958715768EEDD110 0xF6 SWAP10 0xA6 0xB9 SDIV DUP15 XOR 0xCD ADD BASEFEE 0xD6 0xC5 0x21 PUSH5 0x736F6C6343 STOP ADDMOD BYTE STOP CALLER "
				},
				"gasEstimates": {
					"creation": {
						"codeDepositCost": "481400",
						"executionCost": "516",
						"totalCost": "481916"
					},
					"external": {
						"CalculateBonus(uint256)": "infinite",
						"UpdateSalary(uint256)": "553",
						"addEmployee(string,uint256,string)": "infinite",
						"employee(uint256)": "infinite"
					}
				},
				"methodIdentifiers": {
					"CalculateBonus(uint256)": "787872d5",
					"UpdateSalary(uint256)": "7a8f8fa0",
					"addEmployee(string,uint256,string)": "707338da",
					"employee(uint256)": "99b65f79"
				}
			},
			"storageLayout": {
				"storage": [
					{
						"astId": 12,
						"contract": "Assignments/program-17.sol:EmployeeData",
						"label": "employee",
						"offset": 0,
						"slot": "0",
						"type": "t_array(t_struct(Employee)8_storage)dyn_storage"
					}
				],
				"types": {
					"t_array(t_struct(Employee)8_storage)dyn_storage": {
						"base": "t_struct(Employee)8_storage",
						"encoding": "dynamic_array",
						"label": "struct EmployeeData.Employee[]",
						"numberOfBytes": "32"
					},
					"t_string_storage": {
						"encoding": "bytes",
						"label": "string",
						"numberOfBytes": "32"
					},
					"t_struct(Employee)8_storage": {
						"encoding": "inplace",
						"label": "struct EmployeeData.Employee",
						"members": [
							{
								"astId": 3,
								"contract": "Assignments/program-17.sol:EmployeeData",
								"label": "name",
								"offset": 0,
								"slot": "0",
								"type": "t_string_storage"
							},
							{
								"astId": 5,
								"contract": "Assignments/program-17.sol:EmployeeData",
								"label": "salary",
								"offset": 0,
								"slot": "1",
								"type": "t_uint256"
							},
							{
								"astId": 7,
								"contract": "Assignments/program-17.sol:EmployeeData",
								"label": "department",
								"offset": 0,
								"slot": "2",
								"type": "t_string_storage"
							}
						],
						"numberOfBytes": "96"
					},
					"t_uint256": {
						"encoding": "inplace",
						"label": "uint256",
						"numberOfBytes": "32"
					}
				}
			},
			"userdoc": {
				"kind": "user",
				"methods": {},
				"version": 1
			}
		}
	}
}