{
	"data": {
		"bytecode": {
			"linkReferences": {},
			"object": "6080604052348015600e575f80fd5b506109548061001c5f395ff3fe608060405234801561000f575f80fd5b506004361061003f575f3560e01c80634ef75e0d1461004357806399b65f791461005f578063c6665c2614610091575b5f80fd5b61005d6004803603810190610058919061047e565b6100c3565b005b610079600480360381019061007491906104ea565b610179565b60405161008893929190610584565b60405180910390f35b6100ab60048036038101906100a691906104ea565b610233565b6040516100ba93929190610584565b60405180910390f35b620186a08211610108576040517f08c379a00000000000000000000000000000000000000000000000000000000081526004016100ff9061060a565b60405180910390fd5b5f604051806060016040528085815260200184815260200183815250908060018154018082558091505060019003905f5260205f2090600302015f909190919091505f820151815f01908161015d9190610822565b5060208201518160010155604082015181600201555050505050565b5f8181548110610187575f80fd5b905f5260205f2090600302015f91509050805f0180546101a690610655565b80601f01602080910402602001604051908101604052809291908181526020018280546101d290610655565b801561021d5780601f106101f45761010080835404028352916020019161021d565b820191905f5260205f20905b81548152906001019060200180831161020057829003601f168201915b5050505050908060010154908060020154905083565b60605f805f80858154811061024b5761024a6108f1565b5b905f5260205f2090600302019050805f018160010154826002015482805461027290610655565b80601f016020809104026020016040519081016040528092919081815260200182805461029e90610655565b80156102e95780601f106102c0576101008083540402835291602001916102e9565b820191905f5260205f20905b8154815290600101906020018083116102cc57829003601f168201915b50505050509250935093509350509193909250565b5f604051905090565b5f80fd5b5f80fd5b5f80fd5b5f80fd5b5f601f19601f8301169050919050565b7f4e487b71000000000000000000000000000000000000000000000000000000005f52604160045260245ffd5b61035d82610317565b810181811067ffffffffffffffff8211171561037c5761037b610327565b5b80604052505050565b5f61038e6102fe565b905061039a8282610354565b919050565b5f67ffffffffffffffff8211156103b9576103b8610327565b5b6103c282610317565b9050602081019050919050565b828183375f83830152505050565b5f6103ef6103ea8461039f565b610385565b90508281526020810184848401111561040b5761040a610313565b5b6104168482856103cf565b509392505050565b5f82601f8301126104325761043161030f565b5b81356104428482602086016103dd565b91505092915050565b5f819050919050565b61045d8161044b565b8114610467575f80fd5b50565b5f8135905061047881610454565b92915050565b5f805f6060848603121561049557610494610307565b5b5f84013567ffffffffffffffff8111156104b2576104b161030b565b5b6104be8682870161041e565b93505060206104cf8682870161046a565b92505060406104e08682870161046a565b9150509250925092565b5f602082840312156104ff576104fe610307565b5b5f61050c8482850161046a565b91505092915050565b5f81519050919050565b5f82825260208201905092915050565b8281835e5f83830152505050565b5f61054782610515565b610551818561051f565b935061056181856020860161052f565b61056a81610317565b840191505092915050565b61057e8161044b565b82525050565b5f6060820190508181035f83015261059c818661053d565b90506105ab6020830185610575565b6105b86040830184610575565b949350505050565b7f496e73756666696369656e742053616c617279000000000000000000000000005f82015250565b5f6105f460138361051f565b91506105ff826105c0565b602082019050919050565b5f6020820190508181035f830152610621816105e8565b9050919050565b7f4e487b71000000000000000000000000000000000000000000000000000000005f52602260045260245ffd5b5f600282049050600182168061066c57607f821691505b60208210810361067f5761067e610628565b5b50919050565b5f819050815f5260205f209050919050565b5f6020601f8301049050919050565b5f82821b905092915050565b5f600883026106e17fffffffffffffffffffffffffffffffffffffffffffffffffffffffffffffffff826106a6565b6106eb86836106a6565b95508019841693508086168417925050509392505050565b5f819050919050565b5f61072661072161071c8461044b565b610703565b61044b565b9050919050565b5f819050919050565b61073f8361070c565b61075361074b8261072d565b8484546106b2565b825550505050565b5f90565b61076761075b565b610772818484610736565b505050565b5b818110156107955761078a5f8261075f565b600181019050610778565b5050565b601f8211156107da576107ab81610685565b6107b484610697565b810160208510156107c3578190505b6107d76107cf85610697565b830182610777565b50505b505050565b5f82821c905092915050565b5f6107fa5f19846008026107df565b1980831691505092915050565b5f61081283836107eb565b9150826002028217905092915050565b61082b82610515565b67ffffffffffffffff81111561084457610843610327565b5b61084e8254610655565b610859828285610799565b5f60209050601f83116001811461088a575f8415610878578287015190505b6108828582610807565b8655506108e9565b601f19841661089886610685565b5f5b828110156108bf5784890151825560018201915060208501945060208101905061089a565b868310156108dc57848901516108d8601f8916826107eb565b8355505b6001600288020188555050505b505050505050565b7f4e487b71000000000000000000000000000000000000000000000000000000005f52603260045260245ffdfea26469706673582212201cb4fd9ab7fbfc461fbe3f842a01f9df70462cc101267ee104cdd3cf605b0ed764736f6c634300081a0033",
			"opcodes": "PUSH1 0x80 PUSH1 0x40 MSTORE CALLVALUE DUP1 ISZERO PUSH1 0xE JUMPI PUSH0 DUP1 REVERT JUMPDEST POP PUSH2 0x954 DUP1 PUSH2 0x1C PUSH0 CODECOPY PUSH0 RETURN INVALID PUSH1 0x80 PUSH1 0x40 MSTORE CALLVALUE DUP1 ISZERO PUSH2 0xF JUMPI PUSH0 DUP1 REVERT JUMPDEST POP PUSH1 0x4 CALLDATASIZE LT PUSH2 0x3F JUMPI PUSH0 CALLDATALOAD PUSH1 0xE0 SHR DUP1 PUSH4 0x4EF75E0D EQ PUSH2 0x43 JUMPI DUP1 PUSH4 0x99B65F79 EQ PUSH2 0x5F JUMPI DUP1 PUSH4 0xC6665C26 EQ PUSH2 0x91 JUMPI JUMPDEST PUSH0 DUP1 REVERT JUMPDEST PUSH2 0x5D PUSH1 0x4 DUP1 CALLDATASIZE SUB DUP2 ADD SWAP1 PUSH2 0x58 SWAP2 SWAP1 PUSH2 0x47E JUMP JUMPDEST PUSH2 0xC3 JUMP JUMPDEST STOP JUMPDEST PUSH2 0x79 PUSH1 0x4 DUP1 CALLDATASIZE SUB DUP2 ADD SWAP1 PUSH2 0x74 SWAP2 SWAP1 PUSH2 0x4EA JUMP JUMPDEST PUSH2 0x179 JUMP JUMPDEST PUSH1 0x40 MLOAD PUSH2 0x88 SWAP4 SWAP3 SWAP2 SWAP1 PUSH2 0x584 JUMP JUMPDEST PUSH1 0x40 MLOAD DUP1 SWAP2 SUB SWAP1 RETURN JUMPDEST PUSH2 0xAB PUSH1 0x4 DUP1 CALLDATASIZE SUB DUP2 ADD SWAP1 PUSH2 0xA6 SWAP2 SWAP1 PUSH2 0x4EA JUMP JUMPDEST PUSH2 0x233 JUMP JUMPDEST PUSH1 0x40 MLOAD PUSH2 0xBA SWAP4 SWAP3 SWAP2 SWAP1 PUSH2 0x584 JUMP JUMPDEST PUSH1 0x40 MLOAD DUP1 SWAP2 SUB SWAP1 RETURN JUMPDEST PUSH3 0x186A0 DUP3 GT PUSH2 0x108 JUMPI PUSH1 0x40 MLOAD PUSH32 0x8C379A000000000000000000000000000000000000000000000000000000000 DUP2 MSTORE PUSH1 0x4 ADD PUSH2 0xFF SWAP1 PUSH2 0x60A JUMP JUMPDEST PUSH1 0x40 MLOAD DUP1 SWAP2 SUB SWAP1 REVERT JUMPDEST PUSH0 PUSH1 0x40 MLOAD DUP1 PUSH1 0x60 ADD PUSH1 0x40 MSTORE DUP1 DUP6 DUP2 MSTORE PUSH1 0x20 ADD DUP5 DUP2 MSTORE PUSH1 0x20 ADD DUP4 DUP2 MSTORE POP SWAP1 DUP1 PUSH1 0x1 DUP2 SLOAD ADD DUP1 DUP3 SSTORE DUP1 SWAP2 POP POP PUSH1 0x1 SWAP1 SUB SWAP1 PUSH0 MSTORE PUSH1 0x20 PUSH0 KECCAK256 SWAP1 PUSH1 0x3 MUL ADD PUSH0 SWAP1 SWAP2 SWAP1 SWAP2 SWAP1 SWAP2 POP PUSH0 DUP3 ADD MLOAD DUP2 PUSH0 ADD SWAP1 DUP2 PUSH2 0x15D SWAP2 SWAP1 PUSH2 0x822 JUMP JUMPDEST POP PUSH1 0x20 DUP3 ADD MLOAD DUP2 PUSH1 0x1 ADD SSTORE PUSH1 0x40 DUP3 ADD MLOAD DUP2 PUSH1 0x2 ADD SSTORE POP POP POP POP POP JUMP JUMPDEST PUSH0 DUP2 DUP2 SLOAD DUP2 LT PUSH2 0x187 JUMPI PUSH0 DUP1 REVERT JUMPDEST SWAP1 PUSH0 MSTORE PUSH1 0x20 PUSH0 KECCAK256 SWAP1 PUSH1 0x3 MUL ADD PUSH0 SWAP2 POP SWAP1 POP DUP1 PUSH0 ADD DUP1 SLOAD PUSH2 0x1A6 SWAP1 PUSH2 0x655 JUMP JUMPDEST DUP1 PUSH1 0x1F ADD PUSH1 0x20 DUP1 SWAP2 DIV MUL PUSH1 0x20 ADD PUSH1 0x40 MLOAD SWAP1 DUP2 ADD PUSH1 0x40 MSTORE DUP1 SWAP3 SWAP2 SWAP1 DUP2 DUP2 MSTORE PUSH1 0x20 ADD DUP3 DUP1 SLOAD PUSH2 0x1D2 SWAP1 PUSH2 0x655 JUMP JUMPDEST DUP1 ISZERO PUSH2 0x21D JUMPI DUP1 PUSH1 0x1F LT PUSH2 0x1F4 JUMPI PUSH2 0x100 DUP1 DUP4 SLOAD DIV MUL DUP4 MSTORE SWAP2 PUSH1 0x20 ADD SWAP2 PUSH2 0x21D JUMP JUMPDEST DUP3 ADD SWAP2 SWAP1 PUSH0 MSTORE PUSH1 0x20 PUSH0 KECCAK256 SWAP1 JUMPDEST DUP2 SLOAD DUP2 MSTORE SWAP1 PUSH1 0x1 ADD SWAP1 PUSH1 0x20 ADD DUP1 DUP4 GT PUSH2 0x200 JUMPI DUP3 SWAP1 SUB PUSH1 0x1F AND DUP3 ADD SWAP2 JUMPDEST POP POP POP POP POP SWAP1 DUP1 PUSH1 0x1 ADD SLOAD SWAP1 DUP1 PUSH1 0x2 ADD SLOAD SWAP1 POP DUP4 JUMP JUMPDEST PUSH1 0x60 PUSH0 DUP1 PUSH0 DUP1 DUP6 DUP2 SLOAD DUP2 LT PUSH2 0x24B JUMPI PUSH2 0x24A PUSH2 0x8F1 JUMP JUMPDEST JUMPDEST SWAP1 PUSH0 MSTORE PUSH1 0x20 PUSH0 KECCAK256 SWAP1 PUSH1 0x3 MUL ADD SWAP1 POP DUP1 PUSH0 ADD DUP2 PUSH1 0x1 ADD SLOAD DUP3 PUSH1 0x2 ADD SLOAD DUP3 DUP1 SLOAD PUSH2 0x272 SWAP1 PUSH2 0x655 JUMP JUMPDEST DUP1 PUSH1 0x1F ADD PUSH1 0x20 DUP1 SWAP2 DIV MUL PUSH1 0x20 ADD PUSH1 0x40 MLOAD SWAP1 DUP2 ADD PUSH1 0x40 MSTORE DUP1 SWAP3 SWAP2 SWAP1 DUP2 DUP2 MSTORE PUSH1 0x20 ADD DUP3 DUP1 SLOAD PUSH2 0x29E SWAP1 PUSH2 0x655 JUMP JUMPDEST DUP1 ISZERO PUSH2 0x2E9 JUMPI DUP1 PUSH1 0x1F LT PUSH2 0x2C0 JUMPI PUSH2 0x100 DUP1 DUP4 SLOAD DIV MUL DUP4 MSTORE SWAP2 PUSH1 0x20 ADD SWAP2 PUSH2 0x2E9 JUMP JUMPDEST DUP3 ADD SWAP2 SWAP1 PUSH0 MSTORE PUSH1 0x20 PUSH0 KECCAK256 SWAP1 JUMPDEST DUP2 SLOAD DUP2 MSTORE SWAP1 PUSH1 0x1 ADD SWAP1 PUSH1 0x20 ADD DUP1 DUP4 GT PUSH2 0x2CC JUMPI DUP3 SWAP1 SUB PUSH1 0x1F AND DUP3 ADD SWAP2 JUMPDEST POP POP POP POP POP SWAP3 POP SWAP4 POP SWAP4 POP SWAP4 POP POP SWAP2 SWAP4 SWAP1 SWAP3 POP JUMP JUMPDEST PUSH0 PUSH1 0x40 MLOAD SWAP1 POP SWAP1 JUMP JUMPDEST PUSH0 DUP1 REVERT JUMPDEST PUSH0 DUP1 REVERT JUMPDEST PUSH0 DUP1 REVERT JUMPDEST PUSH0 DUP1 REVERT JUMPDEST PUSH0 PUSH1 0x1F NOT PUSH1 0x1F DUP4 ADD AND SWAP1 POP SWAP2 SWAP1 POP JUMP JUMPDEST PUSH32 0x4E487B7100000000000000000000000000000000000000000000000000000000 PUSH0 MSTORE PUSH1 0x41 PUSH1 0x4 MSTORE PUSH1 0x24 PUSH0 REVERT JUMPDEST PUSH2 0x35D DUP3 PUSH2 0x317 JUMP JUMPDEST DUP2 ADD DUP2 DUP2 LT PUSH8 0xFFFFFFFFFFFFFFFF DUP3 GT OR ISZERO PUSH2 0x37C JUMPI PUSH2 0x37B PUSH2 0x327 JUMP JUMPDEST JUMPDEST DUP1 PUSH1 0x40 MSTORE POP POP POP JUMP JUMPDEST PUSH0 PUSH2 0x38E PUSH2 0x2FE JUMP JUMPDEST SWAP1 POP PUSH2 0x39A DUP3 DUP3 PUSH2 0x354 JUMP JUMPDEST SWAP2 SWAP1 POP JUMP JUMPDEST PUSH0 PUSH8 0xFFFFFFFFFFFFFFFF DUP3 GT ISZERO PUSH2 0x3B9 JUMPI PUSH2 0x3B8 PUSH2 0x327 JUMP JUMPDEST JUMPDEST PUSH2 0x3C2 DUP3 PUSH2 0x317 JUMP JUMPDEST SWAP1 POP PUSH1 0x20 DUP2 ADD SWAP1 POP SWAP2 SWAP1 POP JUMP JUMPDEST DUP3 DUP2 DUP4 CALLDATACOPY PUSH0 DUP4 DUP4 ADD MSTORE POP POP POP JUMP JUMPDEST PUSH0 PUSH2 0x3EF PUSH2 0x3EA DUP5 PUSH2 0x39F JUMP JUMPDEST PUSH2 0x385 JUMP JUMPDEST SWAP1 POP DUP3 DUP2 MSTORE PUSH1 0x20 DUP2 ADD DUP5 DUP5 DUP5 ADD GT ISZERO PUSH2 0x40B JUMPI PUSH2 0x40A PUSH2 0x313 JUMP JUMPDEST JUMPDEST PUSH2 0x416 DUP5 DUP3 DUP6 PUSH2 0x3CF JUMP JUMPDEST POP SWAP4 SWAP3 POP POP POP JUMP JUMPDEST PUSH0 DUP3 PUSH1 0x1F DUP4 ADD SLT PUSH2 0x432 JUMPI PUSH2 0x431 PUSH2 0x30F JUMP JUMPDEST JUMPDEST DUP2 CALLDATALOAD PUSH2 0x442 DUP5 DUP3 PUSH1 0x20 DUP7 ADD PUSH2 0x3DD JUMP JUMPDEST SWAP2 POP POP SWAP3 SWAP2 POP POP JUMP JUMPDEST PUSH0 DUP2 SWAP1 POP SWAP2 SWAP1 POP JUMP JUMPDEST PUSH2 0x45D DUP2 PUSH2 0x44B JUMP JUMPDEST DUP2 EQ PUSH2 0x467 JUMPI PUSH0 DUP1 REVERT JUMPDEST POP JUMP JUMPDEST PUSH0 DUP2 CALLDATALOAD SWAP1 POP PUSH2 0x478 DUP2 PUSH2 0x454 JUMP JUMPDEST SWAP3 SWAP2 POP POP JUMP JUMPDEST PUSH0 DUP1 PUSH0 PUSH1 0x60 DUP5 DUP7 SUB SLT ISZERO PUSH2 0x495 JUMPI PUSH2 0x494 PUSH2 0x307 JUMP JUMPDEST JUMPDEST PUSH0 DUP5 ADD CALLDATALOAD PUSH8 0xFFFFFFFFFFFFFFFF DUP2 GT ISZERO PUSH2 0x4B2 JUMPI PUSH2 0x4B1 PUSH2 0x30B JUMP JUMPDEST JUMPDEST PUSH2 0x4BE DUP7 DUP3 DUP8 ADD PUSH2 0x41E JUMP JUMPDEST SWAP4 POP POP PUSH1 0x20 PUSH2 0x4CF DUP7 DUP3 DUP8 ADD PUSH2 0x46A JUMP JUMPDEST SWAP3 POP POP PUSH1 0x40 PUSH2 0x4E0 DUP7 DUP3 DUP8 ADD PUSH2 0x46A JUMP JUMPDEST SWAP2 POP POP SWAP3 POP SWAP3 POP SWAP3 JUMP JUMPDEST PUSH0 PUSH1 0x20 DUP3 DUP5 SUB SLT ISZERO PUSH2 0x4FF JUMPI PUSH2 0x4FE PUSH2 0x307 JUMP JUMPDEST JUMPDEST PUSH0 PUSH2 0x50C DUP5 DUP3 DUP6 ADD PUSH2 0x46A JUMP JUMPDEST SWAP2 POP POP SWAP3 SWAP2 POP POP JUMP JUMPDEST PUSH0 DUP2 MLOAD SWAP1 POP SWAP2 SWAP1 POP JUMP JUMPDEST PUSH0 DUP3 DUP3 MSTORE PUSH1 0x20 DUP3 ADD SWAP1 POP SWAP3 SWAP2 POP POP JUMP JUMPDEST DUP3 DUP2 DUP4 MCOPY PUSH0 DUP4 DUP4 ADD MSTORE POP POP POP JUMP JUMPDEST PUSH0 PUSH2 0x547 DUP3 PUSH2 0x515 JUMP JUMPDEST PUSH2 0x551 DUP2 DUP6 PUSH2 0x51F JUMP JUMPDEST SWAP4 POP PUSH2 0x561 DUP2 DUP6 PUSH1 0x20 DUP7 ADD PUSH2 0x52F JUMP JUMPDEST PUSH2 0x56A DUP2 PUSH2 0x317 JUMP JUMPDEST DUP5 ADD SWAP2 POP POP SWAP3 SWAP2 POP POP JUMP JUMPDEST PUSH2 0x57E DUP2 PUSH2 0x44B JUMP JUMPDEST DUP3 MSTORE POP POP JUMP JUMPDEST PUSH0 PUSH1 0x60 DUP3 ADD SWAP1 POP DUP2 DUP2 SUB PUSH0 DUP4 ADD MSTORE PUSH2 0x59C DUP2 DUP7 PUSH2 0x53D JUMP JUMPDEST SWAP1 POP PUSH2 0x5AB PUSH1 0x20 DUP4 ADD DUP6 PUSH2 0x575 JUMP JUMPDEST PUSH2 0x5B8 PUSH1 0x40 DUP4 ADD DUP5 PUSH2 0x575 JUMP JUMPDEST SWAP5 SWAP4 POP POP POP POP JUMP JUMPDEST PUSH32 0x496E73756666696369656E742053616C61727900000000000000000000000000 PUSH0 DUP3 ADD MSTORE POP JUMP JUMPDEST PUSH0 PUSH2 0x5F4 PUSH1 0x13 DUP4 PUSH2 0x51F JUMP JUMPDEST SWAP2 POP PUSH2 0x5FF DUP3 PUSH2 0x5C0 JUMP JUMPDEST PUSH1 0x20 DUP3 ADD SWAP1 POP SWAP2 SWAP1 POP JUMP JUMPDEST PUSH0 PUSH1 0x20 DUP3 ADD SWAP1 POP DUP2 DUP2 SUB PUSH0 DUP4 ADD MSTORE PUSH2 0x621 DUP2 PUSH2 0x5E8 JUMP JUMPDEST SWAP1 POP SWAP2 SWAP1 POP JUMP JUMPDEST PUSH32 0x4E487B7100000000000000000000000000000000000000000000000000000000 PUSH0 MSTORE PUSH1 0x22 PUSH1 0x4 MSTORE PUSH1 0x24 PUSH0 REVERT JUMPDEST PUSH0 PUSH1 0x2 DUP3 DIV SWAP1 POP PUSH1 0x1 DUP3 AND DUP1 PUSH2 0x66C JUMPI PUSH1 0x7F DUP3 AND SWAP2 POP JUMPDEST PUSH1 0x20 DUP3 LT DUP2 SUB PUSH2 0x67F JUMPI PUSH2 0x67E PUSH2 0x628 JUMP JUMPDEST JUMPDEST POP SWAP2 SWAP1 POP JUMP JUMPDEST PUSH0 DUP2 SWAP1 POP DUP2 PUSH0 MSTORE PUSH1 0x20 PUSH0 KECCAK256 SWAP1 POP SWAP2 SWAP1 POP JUMP JUMPDEST PUSH0 PUSH1 0x20 PUSH1 0x1F DUP4 ADD DIV SWAP1 POP SWAP2 SWAP1 POP JUMP JUMPDEST PUSH0 DUP3 DUP3 SHL SWAP1 POP SWAP3 SWAP2 POP POP JUMP JUMPDEST PUSH0 PUSH1 0x8 DUP4 MUL PUSH2 0x6E1 PUSH32 0xFFFFFFFFFFFFFFFFFFFFFFFFFFFFFFFFFFFFFFFFFFFFFFFFFFFFFFFFFFFFFFFF DUP3 PUSH2 0x6A6 JUMP JUMPDEST PUSH2 0x6EB DUP7 DUP4 PUSH2 0x6A6 JUMP JUMPDEST SWAP6 POP DUP1 NOT DUP5 AND SWAP4 POP DUP1 DUP7 AND DUP5 OR SWAP3 POP POP POP SWAP4 SWAP3 POP POP POP JUMP JUMPDEST PUSH0 DUP2 SWAP1 POP SWAP2 SWAP1 POP JUMP JUMPDEST PUSH0 PUSH2 0x726 PUSH2 0x721 PUSH2 0x71C DUP5 PUSH2 0x44B JUMP JUMPDEST PUSH2 0x703 JUMP JUMPDEST PUSH2 0x44B JUMP JUMPDEST SWAP1 POP SWAP2 SWAP1 POP JUMP JUMPDEST PUSH0 DUP2 SWAP1 POP SWAP2 SWAP1 POP JUMP JUMPDEST PUSH2 0x73F DUP4 PUSH2 0x70C JUMP JUMPDEST PUSH2 0x753 PUSH2 0x74B DUP3 PUSH2 0x72D JUMP JUMPDEST DUP5 DUP5 SLOAD PUSH2 0x6B2 JUMP JUMPDEST DUP3 SSTORE POP POP POP POP JUMP JUMPDEST PUSH0 SWAP1 JUMP JUMPDEST PUSH2 0x767 PUSH2 0x75B JUMP JUMPDEST PUSH2 0x772 DUP2 DUP5 DUP5 PUSH2 0x736 JUMP JUMPDEST POP POP POP JUMP JUMPDEST JUMPDEST DUP2 DUP2 LT ISZERO PUSH2 0x795 JUMPI PUSH2 0x78A PUSH0 DUP3 PUSH2 0x75F JUMP JUMPDEST PUSH1 0x1 DUP2 ADD SWAP1 POP PUSH2 0x778 JUMP JUMPDEST POP POP JUMP JUMPDEST PUSH1 0x1F DUP3 GT ISZERO PUSH2 0x7DA JUMPI PUSH2 0x7AB DUP2 PUSH2 0x685 JUMP JUMPDEST PUSH2 0x7B4 DUP5 PUSH2 0x697 JUMP JUMPDEST DUP2 ADD PUSH1 0x20 DUP6 LT ISZERO PUSH2 0x7C3 JUMPI DUP2 SWAP1 POP JUMPDEST PUSH2 0x7D7 PUSH2 0x7CF DUP6 PUSH2 0x697 JUMP JUMPDEST DUP4 ADD DUP3 PUSH2 0x777 JUMP JUMPDEST POP POP JUMPDEST POP POP POP JUMP JUMPDEST PUSH0 DUP3 DUP3 SHR SWAP1 POP SWAP3 SWAP2 POP POP JUMP JUMPDEST PUSH0 PUSH2 0x7FA PUSH0 NOT DUP5 PUSH1 0x8 MUL PUSH2 0x7DF JUMP JUMPDEST NOT DUP1 DUP4 AND SWAP2 POP POP SWAP3 SWAP2 POP POP JUMP JUMPDEST PUSH0 PUSH2 0x812 DUP4 DUP4 PUSH2 0x7EB JUMP JUMPDEST SWAP2 POP DUP3 PUSH1 0x2 MUL DUP3 OR SWAP1 POP SWAP3 SWAP2 POP POP JUMP JUMPDEST PUSH2 0x82B DUP3 PUSH2 0x515 JUMP JUMPDEST PUSH8 0xFFFFFFFFFFFFFFFF DUP2 GT ISZERO PUSH2 0x844 JUMPI PUSH2 0x843 PUSH2 0x327 JUMP JUMPDEST JUMPDEST PUSH2 0x84E DUP3 SLOAD PUSH2 0x655 JUMP JUMPDEST PUSH2 0x859 DUP3 DUP3 DUP6 PUSH2 0x799 JUMP JUMPDEST PUSH0 PUSH1 0x20 SWAP1 POP PUSH1 0x1F DUP4 GT PUSH1 0x1 DUP2 EQ PUSH2 0x88A JUMPI PUSH0 DUP5 ISZERO PUSH2 0x878 JUMPI DUP3 DUP8 ADD MLOAD SWAP1 POP JUMPDEST PUSH2 0x882 DUP6 DUP3 PUSH2 0x807 JUMP JUMPDEST DUP7 SSTORE POP PUSH2 0x8E9 JUMP JUMPDEST PUSH1 0x1F NOT DUP5 AND PUSH2 0x898 DUP7 PUSH2 0x685 JUMP JUMPDEST PUSH0 JUMPDEST DUP3 DUP2 LT ISZERO PUSH2 0x8BF JUMPI DUP5 DUP10 ADD MLOAD DUP3 SSTORE PUSH1 0x1 DUP3 ADD SWAP2 POP PUSH1 0x20 DUP6 ADD SWAP5 POP PUSH1 0x20 DUP2 ADD SWAP1 POP PUSH2 0x89A JUMP JUMPDEST DUP7 DUP4 LT ISZERO PUSH2 0x8DC JUMPI DUP5 DUP10 ADD MLOAD PUSH2 0x8D8 PUSH1 0x1F DUP10 AND DUP3 PUSH2 0x7EB JUMP JUMPDEST DUP4 SSTORE POP JUMPDEST PUSH1 0x1 PUSH1 0x2 DUP9 MUL ADD DUP9 SSTORE POP POP POP JUMPDEST POP POP POP POP POP POP JUMP JUMPDEST PUSH32 0x4E487B7100000000000000000000000000000000000000000000000000000000 PUSH0 MSTORE PUSH1 0x32 PUSH1 0x4 MSTORE PUSH1 0x24 PUSH0 REVERT INVALID LOG2 PUSH5 0x6970667358 0x22 SLT KECCAK256 SHR 0xB4 REVERT SWAP11 0xB7 0xFB 0xFC CHAINID 0x1F 0xBE EXTCODEHASH DUP5 0x2A ADD 0xF9 0xDF PUSH17 0x462CC101267EE104CDD3CF605B0ED76473 PUSH16 0x6C634300081A00330000000000000000 "
		},
		"gasEstimates": {
			"creation": {
				"codeDepositCost": "477600",
				"executionCost": "509",
				"totalCost": "478109"
			},
			"external": {
				"addEmployee(string,uint256,uint256)": "infinite",
				"employee(uint256)": "infinite",
				"retrieveEmployee(uint256)": "infinite"
			}
		},
		"methodIdentifiers": {
			"addEmployee(string,uint256,uint256)": "4ef75e0d",
			"employee(uint256)": "99b65f79",
			"retrieveEmployee(uint256)": "c6665c26"
		}
	},
	"abi": [
		{
			"inputs": [
				{
					"internalType": "string",
					"name": "_name",
					"type": "string"
				},
				{
					"internalType": "uint256",
					"name": "_salary",
					"type": "uint256"
				},
				{
					"internalType": "uint256",
					"name": "_phoneno",
					"type": "uint256"
				}
			],
			"name": "addEmployee",
			"outputs": [],
			"stateMutability": "nonpayable",
			"type": "function"
		},
		{
			"inputs": [
				{
					"internalType": "uint256",
					"name": "",
					"type": "uint256"
				}
			],
			"name": "employee",
			"outputs": [
				{
					"internalType": "string",
					"name": "name",
					"type": "string"
				},
				{
					"internalType": "uint256",
					"name": "salary",
					"type": "uint256"
				},
				{
					"internalType": "uint256",
					"name": "phoneno",
					"type": "uint256"
				}
			],
			"stateMutability": "view",
			"type": "function"
		},
		{
			"inputs": [
				{
					"internalType": "uint256",
					"name": "_index",
					"type": "uint256"
				}
			],
			"name": "retrieveEmployee",
			"outputs": [
				{
					"internalType": "string",
					"name": "",
					"type": "string"
				},
				{
					"internalType": "uint256",
					"name": "",
					"type": "uint256"
				},
				{
					"internalType": "uint256",
					"name": "",
					"type": "uint256"
				}
			],
			"stateMutability": "view",
			"type": "function"
		}
	]
}