{
	"data": {
		"bytecode": {
			"linkReferences": {},
			"object": "6080604052348015600e575f80fd5b506040516019906074565b604051809103905ff0801580156031573d5f803e3d5ffd5b505f806101000a81548173ffffffffffffffffffffffffffffffffffffffff021916908373ffffffffffffffffffffffffffffffffffffffff1602179055506081565b61080b8061067b83390190565b6105ed8061008e5f395ff3fe608060405234801561000f575f80fd5b5060043610610034575f3560e01c8063987ee15614610038578063a445948614610069575b5f80fd5b610052600480360381019061004d9190610222565b610085565b6040516100609291906102d5565b60405180910390f35b610083600480360381019061007e9190610459565b61012c565b005b60605f805f9054906101000a900473ffffffffffffffffffffffffffffffffffffffff1673ffffffffffffffffffffffffffffffffffffffff16630f53a470846040518263ffffffff1660e01b81526004016100e191906104c2565b5f60405180830381865afa1580156100fb573d5f803e3d5ffd5b505050506040513d5f823e3d601f19601f82011682018060405250810190610123919061055d565b91509150915091565b5f8054906101000a900473ffffffffffffffffffffffffffffffffffffffff1673ffffffffffffffffffffffffffffffffffffffff16635658bee183836040518363ffffffff1660e01b81526004016101869291906102d5565b5f604051808303815f87803b15801561019d575f80fd5b505af11580156101af573d5f803e3d5ffd5b505050505050565b5f604051905090565b5f80fd5b5f80fd5b5f73ffffffffffffffffffffffffffffffffffffffff82169050919050565b5f6101f1826101c8565b9050919050565b610201816101e7565b811461020b575f80fd5b50565b5f8135905061021c816101f8565b92915050565b5f60208284031215610237576102366101c0565b5b5f6102448482850161020e565b91505092915050565b5f81519050919050565b5f82825260208201905092915050565b8281835e5f83830152505050565b5f601f19601f8301169050919050565b5f61028f8261024d565b6102998185610257565b93506102a9818560208601610267565b6102b281610275565b840191505092915050565b5f819050919050565b6102cf816102bd565b82525050565b5f6040820190508181035f8301526102ed8185610285565b90506102fc60208301846102c6565b9392505050565b5f80fd5b5f80fd5b7f4e487b71000000000000000000000000000000000000000000000000000000005f52604160045260245ffd5b61034182610275565b810181811067ffffffffffffffff821117156103605761035f61030b565b5b80604052505050565b5f6103726101b7565b905061037e8282610338565b919050565b5f67ffffffffffffffff82111561039d5761039c61030b565b5b6103a682610275565b9050602081019050919050565b828183375f83830152505050565b5f6103d36103ce84610383565b610369565b9050828152602081018484840111156103ef576103ee610307565b5b6103fa8482856103b3565b509392505050565b5f82601f83011261041657610415610303565b5b81356104268482602086016103c1565b91505092915050565b610438816102bd565b8114610442575f80fd5b50565b5f813590506104538161042f565b92915050565b5f806040838503121561046f5761046e6101c0565b5b5f83013567ffffffffffffffff81111561048c5761048b6101c4565b5b61049885828601610402565b92505060206104a985828601610445565b9150509250929050565b6104bc816101e7565b82525050565b5f6020820190506104d55f8301846104b3565b92915050565b5f6104ed6104e884610383565b610369565b90508281526020810184848401111561050957610508610307565b5b610514848285610267565b509392505050565b5f82601f8301126105305761052f610303565b5b81516105408482602086016104db565b91505092915050565b5f815190506105578161042f565b92915050565b5f8060408385031215610573576105726101c0565b5b5f83015167ffffffffffffffff8111156105905761058f6101c4565b5b61059c8582860161051c565b92505060206105ad85828601610549565b915050925092905056fea26469706673582212205570021078117ab0df9c318d15d5d13783b650b9f84f766e064911fc4bb0124764736f6c634300081a00336080604052348015600e575f80fd5b506107ef8061001c5f395ff3fe608060405234801561000f575f80fd5b5060043610610034575f3560e01c80630f53a470146100385780635658bee114610069575b5f80fd5b610052600480360381019061004d919061025f565b610085565b604051610060929190610312565b60405180910390f35b610083600480360381019061007e9190610496565b61017e565b005b60605f805f808573ffffffffffffffffffffffffffffffffffffffff1673ffffffffffffffffffffffffffffffffffffffff1681526020019081526020015f206040518060400160405290815f820180546100df9061051d565b80601f016020809104026020016040519081016040528092919081815260200182805461010b9061051d565b80156101565780601f1061012d57610100808354040283529160200191610156565b820191905f5260205f20905b81548152906001019060200180831161013957829003601f168201915b505050505081526020016001820154815250509050805f015181602001519250925050915091565b6040518060400160405280838152602001828152505f803373ffffffffffffffffffffffffffffffffffffffff1673ffffffffffffffffffffffffffffffffffffffff1681526020019081526020015f205f820151815f0190816101e291906106ea565b50602082015181600101559050505050565b5f604051905090565b5f80fd5b5f80fd5b5f73ffffffffffffffffffffffffffffffffffffffff82169050919050565b5f61022e82610205565b9050919050565b61023e81610224565b8114610248575f80fd5b50565b5f8135905061025981610235565b92915050565b5f60208284031215610274576102736101fd565b5b5f6102818482850161024b565b91505092915050565b5f81519050919050565b5f82825260208201905092915050565b8281835e5f83830152505050565b5f601f19601f8301169050919050565b5f6102cc8261028a565b6102d68185610294565b93506102e68185602086016102a4565b6102ef816102b2565b840191505092915050565b5f819050919050565b61030c816102fa565b82525050565b5f6040820190508181035f83015261032a81856102c2565b90506103396020830184610303565b9392505050565b5f80fd5b5f80fd5b7f4e487b71000000000000000000000000000000000000000000000000000000005f52604160045260245ffd5b61037e826102b2565b810181811067ffffffffffffffff8211171561039d5761039c610348565b5b80604052505050565b5f6103af6101f4565b90506103bb8282610375565b919050565b5f67ffffffffffffffff8211156103da576103d9610348565b5b6103e3826102b2565b9050602081019050919050565b828183375f83830152505050565b5f61041061040b846103c0565b6103a6565b90508281526020810184848401111561042c5761042b610344565b5b6104378482856103f0565b509392505050565b5f82601f83011261045357610452610340565b5b81356104638482602086016103fe565b91505092915050565b610475816102fa565b811461047f575f80fd5b50565b5f813590506104908161046c565b92915050565b5f80604083850312156104ac576104ab6101fd565b5b5f83013567ffffffffffffffff8111156104c9576104c8610201565b5b6104d58582860161043f565b92505060206104e685828601610482565b9150509250929050565b7f4e487b71000000000000000000000000000000000000000000000000000000005f52602260045260245ffd5b5f600282049050600182168061053457607f821691505b602082108103610547576105466104f0565b5b50919050565b5f819050815f5260205f209050919050565b5f6020601f8301049050919050565b5f82821b905092915050565b5f600883026105a97fffffffffffffffffffffffffffffffffffffffffffffffffffffffffffffffff8261056e565b6105b3868361056e565b95508019841693508086168417925050509392505050565b5f819050919050565b5f6105ee6105e96105e4846102fa565b6105cb565b6102fa565b9050919050565b5f819050919050565b610607836105d4565b61061b610613826105f5565b84845461057a565b825550505050565b5f90565b61062f610623565b61063a8184846105fe565b505050565b5b8181101561065d576106525f82610627565b600181019050610640565b5050565b601f8211156106a2576106738161054d565b61067c8461055f565b8101602085101561068b578190505b61069f6106978561055f565b83018261063f565b50505b505050565b5f82821c905092915050565b5f6106c25f19846008026106a7565b1980831691505092915050565b5f6106da83836106b3565b9150826002028217905092915050565b6106f38261028a565b67ffffffffffffffff81111561070c5761070b610348565b5b610716825461051d565b610721828285610661565b5f60209050601f831160018114610752575f8415610740578287015190505b61074a85826106cf565b8655506107b1565b601f1984166107608661054d565b5f5b8281101561078757848901518255600182019150602085019450602081019050610762565b868310156107a457848901516107a0601f8916826106b3565b8355505b6001600288020188555050505b50505050505056fea2646970667358221220c928d4fac6af6f39993c5963d2f5a194d946ce618df5fed2242f7a0d616840a264736f6c634300081a0033",
			"opcodes": "PUSH1 0x80 PUSH1 0x40 MSTORE CALLVALUE DUP1 ISZERO PUSH1 0xE JUMPI PUSH0 DUP1 REVERT JUMPDEST POP PUSH1 0x40 MLOAD PUSH1 0x19 SWAP1 PUSH1 0x74 JUMP JUMPDEST PUSH1 0x40 MLOAD DUP1 SWAP2 SUB SWAP1 PUSH0 CREATE DUP1 ISZERO DUP1 ISZERO PUSH1 0x31 JUMPI RETURNDATASIZE PUSH0 DUP1 RETURNDATACOPY RETURNDATASIZE PUSH0 REVERT JUMPDEST POP PUSH0 DUP1 PUSH2 0x100 EXP DUP2 SLOAD DUP2 PUSH20 0xFFFFFFFFFFFFFFFFFFFFFFFFFFFFFFFFFFFFFFFF MUL NOT AND SWAP1 DUP4 PUSH20 0xFFFFFFFFFFFFFFFFFFFFFFFFFFFFFFFFFFFFFFFF AND MUL OR SWAP1 SSTORE POP PUSH1 0x81 JUMP JUMPDEST PUSH2 0x80B DUP1 PUSH2 0x67B DUP4 CODECOPY ADD SWAP1 JUMP JUMPDEST PUSH2 0x5ED DUP1 PUSH2 0x8E PUSH0 CODECOPY PUSH0 RETURN INVALID PUSH1 0x80 PUSH1 0x40 MSTORE CALLVALUE DUP1 ISZERO PUSH2 0xF JUMPI PUSH0 DUP1 REVERT JUMPDEST POP PUSH1 0x4 CALLDATASIZE LT PUSH2 0x34 JUMPI PUSH0 CALLDATALOAD PUSH1 0xE0 SHR DUP1 PUSH4 0x987EE156 EQ PUSH2 0x38 JUMPI DUP1 PUSH4 0xA4459486 EQ PUSH2 0x69 JUMPI JUMPDEST PUSH0 DUP1 REVERT JUMPDEST PUSH2 0x52 PUSH1 0x4 DUP1 CALLDATASIZE SUB DUP2 ADD SWAP1 PUSH2 0x4D SWAP2 SWAP1 PUSH2 0x222 JUMP JUMPDEST PUSH2 0x85 JUMP JUMPDEST PUSH1 0x40 MLOAD PUSH2 0x60 SWAP3 SWAP2 SWAP1 PUSH2 0x2D5 JUMP JUMPDEST PUSH1 0x40 MLOAD DUP1 SWAP2 SUB SWAP1 RETURN JUMPDEST PUSH2 0x83 PUSH1 0x4 DUP1 CALLDATASIZE SUB DUP2 ADD SWAP1 PUSH2 0x7E SWAP2 SWAP1 PUSH2 0x459 JUMP JUMPDEST PUSH2 0x12C JUMP JUMPDEST STOP JUMPDEST PUSH1 0x60 PUSH0 DUP1 PUSH0 SWAP1 SLOAD SWAP1 PUSH2 0x100 EXP SWAP1 DIV PUSH20 0xFFFFFFFFFFFFFFFFFFFFFFFFFFFFFFFFFFFFFFFF AND PUSH20 0xFFFFFFFFFFFFFFFFFFFFFFFFFFFFFFFFFFFFFFFF AND PUSH4 0xF53A470 DUP5 PUSH1 0x40 MLOAD DUP3 PUSH4 0xFFFFFFFF AND PUSH1 0xE0 SHL DUP2 MSTORE PUSH1 0x4 ADD PUSH2 0xE1 SWAP2 SWAP1 PUSH2 0x4C2 JUMP JUMPDEST PUSH0 PUSH1 0x40 MLOAD DUP1 DUP4 SUB DUP2 DUP7 GAS STATICCALL ISZERO DUP1 ISZERO PUSH2 0xFB JUMPI RETURNDATASIZE PUSH0 DUP1 RETURNDATACOPY RETURNDATASIZE PUSH0 REVERT JUMPDEST POP POP POP POP PUSH1 0x40 MLOAD RETURNDATASIZE PUSH0 DUP3 RETURNDATACOPY RETURNDATASIZE PUSH1 0x1F NOT PUSH1 0x1F DUP3 ADD AND DUP3 ADD DUP1 PUSH1 0x40 MSTORE POP DUP2 ADD SWAP1 PUSH2 0x123 SWAP2 SWAP1 PUSH2 0x55D JUMP JUMPDEST SWAP2 POP SWAP2 POP SWAP2 POP SWAP2 JUMP JUMPDEST PUSH0 DUP1 SLOAD SWAP1 PUSH2 0x100 EXP SWAP1 DIV PUSH20 0xFFFFFFFFFFFFFFFFFFFFFFFFFFFFFFFFFFFFFFFF AND PUSH20 0xFFFFFFFFFFFFFFFFFFFFFFFFFFFFFFFFFFFFFFFF AND PUSH4 0x5658BEE1 DUP4 DUP4 PUSH1 0x40 MLOAD DUP4 PUSH4 0xFFFFFFFF AND PUSH1 0xE0 SHL DUP2 MSTORE PUSH1 0x4 ADD PUSH2 0x186 SWAP3 SWAP2 SWAP1 PUSH2 0x2D5 JUMP JUMPDEST PUSH0 PUSH1 0x40 MLOAD DUP1 DUP4 SUB DUP2 PUSH0 DUP8 DUP1 EXTCODESIZE ISZERO DUP1 ISZERO PUSH2 0x19D JUMPI PUSH0 DUP1 REVERT JUMPDEST POP GAS CALL ISZERO DUP1 ISZERO PUSH2 0x1AF JUMPI RETURNDATASIZE PUSH0 DUP1 RETURNDATACOPY RETURNDATASIZE PUSH0 REVERT JUMPDEST POP POP POP POP POP POP JUMP JUMPDEST PUSH0 PUSH1 0x40 MLOAD SWAP1 POP SWAP1 JUMP JUMPDEST PUSH0 DUP1 REVERT JUMPDEST PUSH0 DUP1 REVERT JUMPDEST PUSH0 PUSH20 0xFFFFFFFFFFFFFFFFFFFFFFFFFFFFFFFFFFFFFFFF DUP3 AND SWAP1 POP SWAP2 SWAP1 POP JUMP JUMPDEST PUSH0 PUSH2 0x1F1 DUP3 PUSH2 0x1C8 JUMP JUMPDEST SWAP1 POP SWAP2 SWAP1 POP JUMP JUMPDEST PUSH2 0x201 DUP2 PUSH2 0x1E7 JUMP JUMPDEST DUP2 EQ PUSH2 0x20B JUMPI PUSH0 DUP1 REVERT JUMPDEST POP JUMP JUMPDEST PUSH0 DUP2 CALLDATALOAD SWAP1 POP PUSH2 0x21C DUP2 PUSH2 0x1F8 JUMP JUMPDEST SWAP3 SWAP2 POP POP JUMP JUMPDEST PUSH0 PUSH1 0x20 DUP3 DUP5 SUB SLT ISZERO PUSH2 0x237 JUMPI PUSH2 0x236 PUSH2 0x1C0 JUMP JUMPDEST JUMPDEST PUSH0 PUSH2 0x244 DUP5 DUP3 DUP6 ADD PUSH2 0x20E JUMP JUMPDEST SWAP2 POP POP SWAP3 SWAP2 POP POP JUMP JUMPDEST PUSH0 DUP2 MLOAD SWAP1 POP SWAP2 SWAP1 POP JUMP JUMPDEST PUSH0 DUP3 DUP3 MSTORE PUSH1 0x20 DUP3 ADD SWAP1 POP SWAP3 SWAP2 POP POP JUMP JUMPDEST DUP3 DUP2 DUP4 MCOPY PUSH0 DUP4 DUP4 ADD MSTORE POP POP POP JUMP JUMPDEST PUSH0 PUSH1 0x1F NOT PUSH1 0x1F DUP4 ADD AND SWAP1 POP SWAP2 SWAP1 POP JUMP JUMPDEST PUSH0 PUSH2 0x28F DUP3 PUSH2 0x24D JUMP JUMPDEST PUSH2 0x299 DUP2 DUP6 PUSH2 0x257 JUMP JUMPDEST SWAP4 POP PUSH2 0x2A9 DUP2 DUP6 PUSH1 0x20 DUP7 ADD PUSH2 0x267 JUMP JUMPDEST PUSH2 0x2B2 DUP2 PUSH2 0x275 JUMP JUMPDEST DUP5 ADD SWAP2 POP POP SWAP3 SWAP2 POP POP JUMP JUMPDEST PUSH0 DUP2 SWAP1 POP SWAP2 SWAP1 POP JUMP JUMPDEST PUSH2 0x2CF DUP2 PUSH2 0x2BD JUMP JUMPDEST DUP3 MSTORE POP POP JUMP JUMPDEST PUSH0 PUSH1 0x40 DUP3 ADD SWAP1 POP DUP2 DUP2 SUB PUSH0 DUP4 ADD MSTORE PUSH2 0x2ED DUP2 DUP6 PUSH2 0x285 JUMP JUMPDEST SWAP1 POP PUSH2 0x2FC PUSH1 0x20 DUP4 ADD DUP5 PUSH2 0x2C6 JUMP JUMPDEST SWAP4 SWAP3 POP POP POP JUMP JUMPDEST PUSH0 DUP1 REVERT JUMPDEST PUSH0 DUP1 REVERT JUMPDEST PUSH32 0x4E487B7100000000000000000000000000000000000000000000000000000000 PUSH0 MSTORE PUSH1 0x41 PUSH1 0x4 MSTORE PUSH1 0x24 PUSH0 REVERT JUMPDEST PUSH2 0x341 DUP3 PUSH2 0x275 JUMP JUMPDEST DUP2 ADD DUP2 DUP2 LT PUSH8 0xFFFFFFFFFFFFFFFF DUP3 GT OR ISZERO PUSH2 0x360 JUMPI PUSH2 0x35F PUSH2 0x30B JUMP JUMPDEST JUMPDEST DUP1 PUSH1 0x40 MSTORE POP POP POP JUMP JUMPDEST PUSH0 PUSH2 0x372 PUSH2 0x1B7 JUMP JUMPDEST SWAP1 POP PUSH2 0x37E DUP3 DUP3 PUSH2 0x338 JUMP JUMPDEST SWAP2 SWAP1 POP JUMP JUMPDEST PUSH0 PUSH8 0xFFFFFFFFFFFFFFFF DUP3 GT ISZERO PUSH2 0x39D JUMPI PUSH2 0x39C PUSH2 0x30B JUMP JUMPDEST JUMPDEST PUSH2 0x3A6 DUP3 PUSH2 0x275 JUMP JUMPDEST SWAP1 POP PUSH1 0x20 DUP2 ADD SWAP1 POP SWAP2 SWAP1 POP JUMP JUMPDEST DUP3 DUP2 DUP4 CALLDATACOPY PUSH0 DUP4 DUP4 ADD MSTORE POP POP POP JUMP JUMPDEST PUSH0 PUSH2 0x3D3 PUSH2 0x3CE DUP5 PUSH2 0x383 JUMP JUMPDEST PUSH2 0x369 JUMP JUMPDEST SWAP1 POP DUP3 DUP2 MSTORE PUSH1 0x20 DUP2 ADD DUP5 DUP5 DUP5 ADD GT ISZERO PUSH2 0x3EF JUMPI PUSH2 0x3EE PUSH2 0x307 JUMP JUMPDEST JUMPDEST PUSH2 0x3FA DUP5 DUP3 DUP6 PUSH2 0x3B3 JUMP JUMPDEST POP SWAP4 SWAP3 POP POP POP JUMP JUMPDEST PUSH0 DUP3 PUSH1 0x1F DUP4 ADD SLT PUSH2 0x416 JUMPI PUSH2 0x415 PUSH2 0x303 JUMP JUMPDEST JUMPDEST DUP2 CALLDATALOAD PUSH2 0x426 DUP5 DUP3 PUSH1 0x20 DUP7 ADD PUSH2 0x3C1 JUMP JUMPDEST SWAP2 POP POP SWAP3 SWAP2 POP POP JUMP JUMPDEST PUSH2 0x438 DUP2 PUSH2 0x2BD JUMP JUMPDEST DUP2 EQ PUSH2 0x442 JUMPI PUSH0 DUP1 REVERT JUMPDEST POP JUMP JUMPDEST PUSH0 DUP2 CALLDATALOAD SWAP1 POP PUSH2 0x453 DUP2 PUSH2 0x42F JUMP JUMPDEST SWAP3 SWAP2 POP POP JUMP JUMPDEST PUSH0 DUP1 PUSH1 0x40 DUP4 DUP6 SUB SLT ISZERO PUSH2 0x46F JUMPI PUSH2 0x46E PUSH2 0x1C0 JUMP JUMPDEST JUMPDEST PUSH0 DUP4 ADD CALLDATALOAD PUSH8 0xFFFFFFFFFFFFFFFF DUP2 GT ISZERO PUSH2 0x48C JUMPI PUSH2 0x48B PUSH2 0x1C4 JUMP JUMPDEST JUMPDEST PUSH2 0x498 DUP6 DUP3 DUP7 ADD PUSH2 0x402 JUMP JUMPDEST SWAP3 POP POP PUSH1 0x20 PUSH2 0x4A9 DUP6 DUP3 DUP7 ADD PUSH2 0x445 JUMP JUMPDEST SWAP2 POP POP SWAP3 POP SWAP3 SWAP1 POP JUMP JUMPDEST PUSH2 0x4BC DUP2 PUSH2 0x1E7 JUMP JUMPDEST DUP3 MSTORE POP POP JUMP JUMPDEST PUSH0 PUSH1 0x20 DUP3 ADD SWAP1 POP PUSH2 0x4D5 PUSH0 DUP4 ADD DUP5 PUSH2 0x4B3 JUMP JUMPDEST SWAP3 SWAP2 POP POP JUMP JUMPDEST PUSH0 PUSH2 0x4ED PUSH2 0x4E8 DUP5 PUSH2 0x383 JUMP JUMPDEST PUSH2 0x369 JUMP JUMPDEST SWAP1 POP DUP3 DUP2 MSTORE PUSH1 0x20 DUP2 ADD DUP5 DUP5 DUP5 ADD GT ISZERO PUSH2 0x509 JUMPI PUSH2 0x508 PUSH2 0x307 JUMP JUMPDEST JUMPDEST PUSH2 0x514 DUP5 DUP3 DUP6 PUSH2 0x267 JUMP JUMPDEST POP SWAP4 SWAP3 POP POP POP JUMP JUMPDEST PUSH0 DUP3 PUSH1 0x1F DUP4 ADD SLT PUSH2 0x530 JUMPI PUSH2 0x52F PUSH2 0x303 JUMP JUMPDEST JUMPDEST DUP2 MLOAD PUSH2 0x540 DUP5 DUP3 PUSH1 0x20 DUP7 ADD PUSH2 0x4DB JUMP JUMPDEST SWAP2 POP POP SWAP3 SWAP2 POP POP JUMP JUMPDEST PUSH0 DUP2 MLOAD SWAP1 POP PUSH2 0x557 DUP2 PUSH2 0x42F JUMP JUMPDEST SWAP3 SWAP2 POP POP JUMP JUMPDEST PUSH0 DUP1 PUSH1 0x40 DUP4 DUP6 SUB SLT ISZERO PUSH2 0x573 JUMPI PUSH2 0x572 PUSH2 0x1C0 JUMP JUMPDEST JUMPDEST PUSH0 DUP4 ADD MLOAD PUSH8 0xFFFFFFFFFFFFFFFF DUP2 GT ISZERO PUSH2 0x590 JUMPI PUSH2 0x58F PUSH2 0x1C4 JUMP JUMPDEST JUMPDEST PUSH2 0x59C DUP6 DUP3 DUP7 ADD PUSH2 0x51C JUMP JUMPDEST SWAP3 POP POP PUSH1 0x20 PUSH2 0x5AD DUP6 DUP3 DUP7 ADD PUSH2 0x549 JUMP JUMPDEST SWAP2 POP POP SWAP3 POP SWAP3 SWAP1 POP JUMP INVALID LOG2 PUSH5 0x6970667358 0x22 SLT KECCAK256 SSTORE PUSH17 0x21078117AB0DF9C318D15D5D13783B650 0xB9 0xF8 0x4F PUSH23 0x6E064911FC4BB0124764736F6C634300081A0033608060 BLOCKHASH MSTORE CALLVALUE DUP1 ISZERO PUSH1 0xE JUMPI PUSH0 DUP1 REVERT JUMPDEST POP PUSH2 0x7EF DUP1 PUSH2 0x1C PUSH0 CODECOPY PUSH0 RETURN INVALID PUSH1 0x80 PUSH1 0x40 MSTORE CALLVALUE DUP1 ISZERO PUSH2 0xF JUMPI PUSH0 DUP1 REVERT JUMPDEST POP PUSH1 0x4 CALLDATASIZE LT PUSH2 0x34 JUMPI PUSH0 CALLDATALOAD PUSH1 0xE0 SHR DUP1 PUSH4 0xF53A470 EQ PUSH2 0x38 JUMPI DUP1 PUSH4 0x5658BEE1 EQ PUSH2 0x69 JUMPI JUMPDEST PUSH0 DUP1 REVERT JUMPDEST PUSH2 0x52 PUSH1 0x4 DUP1 CALLDATASIZE SUB DUP2 ADD SWAP1 PUSH2 0x4D SWAP2 SWAP1 PUSH2 0x25F JUMP JUMPDEST PUSH2 0x85 JUMP JUMPDEST PUSH1 0x40 MLOAD PUSH2 0x60 SWAP3 SWAP2 SWAP1 PUSH2 0x312 JUMP JUMPDEST PUSH1 0x40 MLOAD DUP1 SWAP2 SUB SWAP1 RETURN JUMPDEST PUSH2 0x83 PUSH1 0x4 DUP1 CALLDATASIZE SUB DUP2 ADD SWAP1 PUSH2 0x7E SWAP2 SWAP1 PUSH2 0x496 JUMP JUMPDEST PUSH2 0x17E JUMP JUMPDEST STOP JUMPDEST PUSH1 0x60 PUSH0 DUP1 PUSH0 DUP1 DUP6 PUSH20 0xFFFFFFFFFFFFFFFFFFFFFFFFFFFFFFFFFFFFFFFF AND PUSH20 0xFFFFFFFFFFFFFFFFFFFFFFFFFFFFFFFFFFFFFFFF AND DUP2 MSTORE PUSH1 0x20 ADD SWAP1 DUP2 MSTORE PUSH1 0x20 ADD PUSH0 KECCAK256 PUSH1 0x40 MLOAD DUP1 PUSH1 0x40 ADD PUSH1 0x40 MSTORE SWAP1 DUP2 PUSH0 DUP3 ADD DUP1 SLOAD PUSH2 0xDF SWAP1 PUSH2 0x51D JUMP JUMPDEST DUP1 PUSH1 0x1F ADD PUSH1 0x20 DUP1 SWAP2 DIV MUL PUSH1 0x20 ADD PUSH1 0x40 MLOAD SWAP1 DUP2 ADD PUSH1 0x40 MSTORE DUP1 SWAP3 SWAP2 SWAP1 DUP2 DUP2 MSTORE PUSH1 0x20 ADD DUP3 DUP1 SLOAD PUSH2 0x10B SWAP1 PUSH2 0x51D JUMP JUMPDEST DUP1 ISZERO PUSH2 0x156 JUMPI DUP1 PUSH1 0x1F LT PUSH2 0x12D JUMPI PUSH2 0x100 DUP1 DUP4 SLOAD DIV MUL DUP4 MSTORE SWAP2 PUSH1 0x20 ADD SWAP2 PUSH2 0x156 JUMP JUMPDEST DUP3 ADD SWAP2 SWAP1 PUSH0 MSTORE PUSH1 0x20 PUSH0 KECCAK256 SWAP1 JUMPDEST DUP2 SLOAD DUP2 MSTORE SWAP1 PUSH1 0x1 ADD SWAP1 PUSH1 0x20 ADD DUP1 DUP4 GT PUSH2 0x139 JUMPI DUP3 SWAP1 SUB PUSH1 0x1F AND DUP3 ADD SWAP2 JUMPDEST POP POP POP POP POP DUP2 MSTORE PUSH1 0x20 ADD PUSH1 0x1 DUP3 ADD SLOAD DUP2 MSTORE POP POP SWAP1 POP DUP1 PUSH0 ADD MLOAD DUP2 PUSH1 0x20 ADD MLOAD SWAP3 POP SWAP3 POP POP SWAP2 POP SWAP2 JUMP JUMPDEST PUSH1 0x40 MLOAD DUP1 PUSH1 0x40 ADD PUSH1 0x40 MSTORE DUP1 DUP4 DUP2 MSTORE PUSH1 0x20 ADD DUP3 DUP2 MSTORE POP PUSH0 DUP1 CALLER PUSH20 0xFFFFFFFFFFFFFFFFFFFFFFFFFFFFFFFFFFFFFFFF AND PUSH20 0xFFFFFFFFFFFFFFFFFFFFFFFFFFFFFFFFFFFFFFFF AND DUP2 MSTORE PUSH1 0x20 ADD SWAP1 DUP2 MSTORE PUSH1 0x20 ADD PUSH0 KECCAK256 PUSH0 DUP3 ADD MLOAD DUP2 PUSH0 ADD SWAP1 DUP2 PUSH2 0x1E2 SWAP2 SWAP1 PUSH2 0x6EA JUMP JUMPDEST POP PUSH1 0x20 DUP3 ADD MLOAD DUP2 PUSH1 0x1 ADD SSTORE SWAP1 POP POP POP POP JUMP JUMPDEST PUSH0 PUSH1 0x40 MLOAD SWAP1 POP SWAP1 JUMP JUMPDEST PUSH0 DUP1 REVERT JUMPDEST PUSH0 DUP1 REVERT JUMPDEST PUSH0 PUSH20 0xFFFFFFFFFFFFFFFFFFFFFFFFFFFFFFFFFFFFFFFF DUP3 AND SWAP1 POP SWAP2 SWAP1 POP JUMP JUMPDEST PUSH0 PUSH2 0x22E DUP3 PUSH2 0x205 JUMP JUMPDEST SWAP1 POP SWAP2 SWAP1 POP JUMP JUMPDEST PUSH2 0x23E DUP2 PUSH2 0x224 JUMP JUMPDEST DUP2 EQ PUSH2 0x248 JUMPI PUSH0 DUP1 REVERT JUMPDEST POP JUMP JUMPDEST PUSH0 DUP2 CALLDATALOAD SWAP1 POP PUSH2 0x259 DUP2 PUSH2 0x235 JUMP JUMPDEST SWAP3 SWAP2 POP POP JUMP JUMPDEST PUSH0 PUSH1 0x20 DUP3 DUP5 SUB SLT ISZERO PUSH2 0x274 JUMPI PUSH2 0x273 PUSH2 0x1FD JUMP JUMPDEST JUMPDEST PUSH0 PUSH2 0x281 DUP5 DUP3 DUP6 ADD PUSH2 0x24B JUMP JUMPDEST SWAP2 POP POP SWAP3 SWAP2 POP POP JUMP JUMPDEST PUSH0 DUP2 MLOAD SWAP1 POP SWAP2 SWAP1 POP JUMP JUMPDEST PUSH0 DUP3 DUP3 MSTORE PUSH1 0x20 DUP3 ADD SWAP1 POP SWAP3 SWAP2 POP POP JUMP JUMPDEST DUP3 DUP2 DUP4 MCOPY PUSH0 DUP4 DUP4 ADD MSTORE POP POP POP JUMP JUMPDEST PUSH0 PUSH1 0x1F NOT PUSH1 0x1F DUP4 ADD AND SWAP1 POP SWAP2 SWAP1 POP JUMP JUMPDEST PUSH0 PUSH2 0x2CC DUP3 PUSH2 0x28A JUMP JUMPDEST PUSH2 0x2D6 DUP2 DUP6 PUSH2 0x294 JUMP JUMPDEST SWAP4 POP PUSH2 0x2E6 DUP2 DUP6 PUSH1 0x20 DUP7 ADD PUSH2 0x2A4 JUMP JUMPDEST PUSH2 0x2EF DUP2 PUSH2 0x2B2 JUMP JUMPDEST DUP5 ADD SWAP2 POP POP SWAP3 SWAP2 POP POP JUMP JUMPDEST PUSH0 DUP2 SWAP1 POP SWAP2 SWAP1 POP JUMP JUMPDEST PUSH2 0x30C DUP2 PUSH2 0x2FA JUMP JUMPDEST DUP3 MSTORE POP POP JUMP JUMPDEST PUSH0 PUSH1 0x40 DUP3 ADD SWAP1 POP DUP2 DUP2 SUB PUSH0 DUP4 ADD MSTORE PUSH2 0x32A DUP2 DUP6 PUSH2 0x2C2 JUMP JUMPDEST SWAP1 POP PUSH2 0x339 PUSH1 0x20 DUP4 ADD DUP5 PUSH2 0x303 JUMP JUMPDEST SWAP4 SWAP3 POP POP POP JUMP JUMPDEST PUSH0 DUP1 REVERT JUMPDEST PUSH0 DUP1 REVERT JUMPDEST PUSH32 0x4E487B7100000000000000000000000000000000000000000000000000000000 PUSH0 MSTORE PUSH1 0x41 PUSH1 0x4 MSTORE PUSH1 0x24 PUSH0 REVERT JUMPDEST PUSH2 0x37E DUP3 PUSH2 0x2B2 JUMP JUMPDEST DUP2 ADD DUP2 DUP2 LT PUSH8 0xFFFFFFFFFFFFFFFF DUP3 GT OR ISZERO PUSH2 0x39D JUMPI PUSH2 0x39C PUSH2 0x348 JUMP JUMPDEST JUMPDEST DUP1 PUSH1 0x40 MSTORE POP POP POP JUMP JUMPDEST PUSH0 PUSH2 0x3AF PUSH2 0x1F4 JUMP JUMPDEST SWAP1 POP PUSH2 0x3BB DUP3 DUP3 PUSH2 0x375 JUMP JUMPDEST SWAP2 SWAP1 POP JUMP JUMPDEST PUSH0 PUSH8 0xFFFFFFFFFFFFFFFF DUP3 GT ISZERO PUSH2 0x3DA JUMPI PUSH2 0x3D9 PUSH2 0x348 JUMP JUMPDEST JUMPDEST PUSH2 0x3E3 DUP3 PUSH2 0x2B2 JUMP JUMPDEST SWAP1 POP PUSH1 0x20 DUP2 ADD SWAP1 POP SWAP2 SWAP1 POP JUMP JUMPDEST DUP3 DUP2 DUP4 CALLDATACOPY PUSH0 DUP4 DUP4 ADD MSTORE POP POP POP JUMP JUMPDEST PUSH0 PUSH2 0x410 PUSH2 0x40B DUP5 PUSH2 0x3C0 JUMP JUMPDEST PUSH2 0x3A6 JUMP JUMPDEST SWAP1 POP DUP3 DUP2 MSTORE PUSH1 0x20 DUP2 ADD DUP5 DUP5 DUP5 ADD GT ISZERO PUSH2 0x42C JUMPI PUSH2 0x42B PUSH2 0x344 JUMP JUMPDEST JUMPDEST PUSH2 0x437 DUP5 DUP3 DUP6 PUSH2 0x3F0 JUMP JUMPDEST POP SWAP4 SWAP3 POP POP POP JUMP JUMPDEST PUSH0 DUP3 PUSH1 0x1F DUP4 ADD SLT PUSH2 0x453 JUMPI PUSH2 0x452 PUSH2 0x340 JUMP JUMPDEST JUMPDEST DUP2 CALLDATALOAD PUSH2 0x463 DUP5 DUP3 PUSH1 0x20 DUP7 ADD PUSH2 0x3FE JUMP JUMPDEST SWAP2 POP POP SWAP3 SWAP2 POP POP JUMP JUMPDEST PUSH2 0x475 DUP2 PUSH2 0x2FA JUMP JUMPDEST DUP2 EQ PUSH2 0x47F JUMPI PUSH0 DUP1 REVERT JUMPDEST POP JUMP JUMPDEST PUSH0 DUP2 CALLDATALOAD SWAP1 POP PUSH2 0x490 DUP2 PUSH2 0x46C JUMP JUMPDEST SWAP3 SWAP2 POP POP JUMP JUMPDEST PUSH0 DUP1 PUSH1 0x40 DUP4 DUP6 SUB SLT ISZERO PUSH2 0x4AC JUMPI PUSH2 0x4AB PUSH2 0x1FD JUMP JUMPDEST JUMPDEST PUSH0 DUP4 ADD CALLDATALOAD PUSH8 0xFFFFFFFFFFFFFFFF DUP2 GT ISZERO PUSH2 0x4C9 JUMPI PUSH2 0x4C8 PUSH2 0x201 JUMP JUMPDEST JUMPDEST PUSH2 0x4D5 DUP6 DUP3 DUP7 ADD PUSH2 0x43F JUMP JUMPDEST SWAP3 POP POP PUSH1 0x20 PUSH2 0x4E6 DUP6 DUP3 DUP7 ADD PUSH2 0x482 JUMP JUMPDEST SWAP2 POP POP SWAP3 POP SWAP3 SWAP1 POP JUMP JUMPDEST PUSH32 0x4E487B7100000000000000000000000000000000000000000000000000000000 PUSH0 MSTORE PUSH1 0x22 PUSH1 0x4 MSTORE PUSH1 0x24 PUSH0 REVERT JUMPDEST PUSH0 PUSH1 0x2 DUP3 DIV SWAP1 POP PUSH1 0x1 DUP3 AND DUP1 PUSH2 0x534 JUMPI PUSH1 0x7F DUP3 AND SWAP2 POP JUMPDEST PUSH1 0x20 DUP3 LT DUP2 SUB PUSH2 0x547 JUMPI PUSH2 0x546 PUSH2 0x4F0 JUMP JUMPDEST JUMPDEST POP SWAP2 SWAP1 POP JUMP JUMPDEST PUSH0 DUP2 SWAP1 POP DUP2 PUSH0 MSTORE PUSH1 0x20 PUSH0 KECCAK256 SWAP1 POP SWAP2 SWAP1 POP JUMP JUMPDEST PUSH0 PUSH1 0x20 PUSH1 0x1F DUP4 ADD DIV SWAP1 POP SWAP2 SWAP1 POP JUMP JUMPDEST PUSH0 DUP3 DUP3 SHL SWAP1 POP SWAP3 SWAP2 POP POP JUMP JUMPDEST PUSH0 PUSH1 0x8 DUP4 MUL PUSH2 0x5A9 PUSH32 0xFFFFFFFFFFFFFFFFFFFFFFFFFFFFFFFFFFFFFFFFFFFFFFFFFFFFFFFFFFFFFFFF DUP3 PUSH2 0x56E JUMP JUMPDEST PUSH2 0x5B3 DUP7 DUP4 PUSH2 0x56E JUMP JUMPDEST SWAP6 POP DUP1 NOT DUP5 AND SWAP4 POP DUP1 DUP7 AND DUP5 OR SWAP3 POP POP POP SWAP4 SWAP3 POP POP POP JUMP JUMPDEST PUSH0 DUP2 SWAP1 POP SWAP2 SWAP1 POP JUMP JUMPDEST PUSH0 PUSH2 0x5EE PUSH2 0x5E9 PUSH2 0x5E4 DUP5 PUSH2 0x2FA JUMP JUMPDEST PUSH2 0x5CB JUMP JUMPDEST PUSH2 0x2FA JUMP JUMPDEST SWAP1 POP SWAP2 SWAP1 POP JUMP JUMPDEST PUSH0 DUP2 SWAP1 POP SWAP2 SWAP1 POP JUMP JUMPDEST PUSH2 0x607 DUP4 PUSH2 0x5D4 JUMP JUMPDEST PUSH2 0x61B PUSH2 0x613 DUP3 PUSH2 0x5F5 JUMP JUMPDEST DUP5 DUP5 SLOAD PUSH2 0x57A JUMP JUMPDEST DUP3 SSTORE POP POP POP POP JUMP JUMPDEST PUSH0 SWAP1 JUMP JUMPDEST PUSH2 0x62F PUSH2 0x623 JUMP JUMPDEST PUSH2 0x63A DUP2 DUP5 DUP5 PUSH2 0x5FE JUMP JUMPDEST POP POP POP JUMP JUMPDEST JUMPDEST DUP2 DUP2 LT ISZERO PUSH2 0x65D JUMPI PUSH2 0x652 PUSH0 DUP3 PUSH2 0x627 JUMP JUMPDEST PUSH1 0x1 DUP2 ADD SWAP1 POP PUSH2 0x640 JUMP JUMPDEST POP POP JUMP JUMPDEST PUSH1 0x1F DUP3 GT ISZERO PUSH2 0x6A2 JUMPI PUSH2 0x673 DUP2 PUSH2 0x54D JUMP JUMPDEST PUSH2 0x67C DUP5 PUSH2 0x55F JUMP JUMPDEST DUP2 ADD PUSH1 0x20 DUP6 LT ISZERO PUSH2 0x68B JUMPI DUP2 SWAP1 POP JUMPDEST PUSH2 0x69F PUSH2 0x697 DUP6 PUSH2 0x55F JUMP JUMPDEST DUP4 ADD DUP3 PUSH2 0x63F JUMP JUMPDEST POP POP JUMPDEST POP POP POP JUMP JUMPDEST PUSH0 DUP3 DUP3 SHR SWAP1 POP SWAP3 SWAP2 POP POP JUMP JUMPDEST PUSH0 PUSH2 0x6C2 PUSH0 NOT DUP5 PUSH1 0x8 MUL PUSH2 0x6A7 JUMP JUMPDEST NOT DUP1 DUP4 AND SWAP2 POP POP SWAP3 SWAP2 POP POP JUMP JUMPDEST PUSH0 PUSH2 0x6DA DUP4 DUP4 PUSH2 0x6B3 JUMP JUMPDEST SWAP2 POP DUP3 PUSH1 0x2 MUL DUP3 OR SWAP1 POP SWAP3 SWAP2 POP POP JUMP JUMPDEST PUSH2 0x6F3 DUP3 PUSH2 0x28A JUMP JUMPDEST PUSH8 0xFFFFFFFFFFFFFFFF DUP2 GT ISZERO PUSH2 0x70C JUMPI PUSH2 0x70B PUSH2 0x348 JUMP JUMPDEST JUMPDEST PUSH2 0x716 DUP3 SLOAD PUSH2 0x51D JUMP JUMPDEST PUSH2 0x721 DUP3 DUP3 DUP6 PUSH2 0x661 JUMP JUMPDEST PUSH0 PUSH1 0x20 SWAP1 POP PUSH1 0x1F DUP4 GT PUSH1 0x1 DUP2 EQ PUSH2 0x752 JUMPI PUSH0 DUP5 ISZERO PUSH2 0x740 JUMPI DUP3 DUP8 ADD MLOAD SWAP1 POP JUMPDEST PUSH2 0x74A DUP6 DUP3 PUSH2 0x6CF JUMP JUMPDEST DUP7 SSTORE POP PUSH2 0x7B1 JUMP JUMPDEST PUSH1 0x1F NOT DUP5 AND PUSH2 0x760 DUP7 PUSH2 0x54D JUMP JUMPDEST PUSH0 JUMPDEST DUP3 DUP2 LT ISZERO PUSH2 0x787 JUMPI DUP5 DUP10 ADD MLOAD DUP3 SSTORE PUSH1 0x1 DUP3 ADD SWAP2 POP PUSH1 0x20 DUP6 ADD SWAP5 POP PUSH1 0x20 DUP2 ADD SWAP1 POP PUSH2 0x762 JUMP JUMPDEST DUP7 DUP4 LT ISZERO PUSH2 0x7A4 JUMPI DUP5 DUP10 ADD MLOAD PUSH2 0x7A0 PUSH1 0x1F DUP10 AND DUP3 PUSH2 0x6B3 JUMP JUMPDEST DUP4 SSTORE POP JUMPDEST PUSH1 0x1 PUSH1 0x2 DUP9 MUL ADD DUP9 SSTORE POP POP POP JUMPDEST POP POP POP POP POP POP JUMP INVALID LOG2 PUSH5 0x6970667358 0x22 SLT KECCAK256 0xC9 0x28 0xD4 STATICCALL 0xC6 0xAF PUSH16 0x39993C5963D2F5A194D946CE618DF5FE 0xD2 0x24 0x2F PUSH27 0xD616840A264736F6C634300081A00330000000000000000000000 "
		},
		"gasEstimates": {
			"creation": {
				"codeDepositCost": "303400",
				"executionCost": "infinite",
				"totalCost": "infinite"
			},
			"external": {
				"createUserProfile(string,uint256)": "infinite",
				"getUserProfile(address)": "infinite"
			}
		},
		"methodIdentifiers": {
			"createUserProfile(string,uint256)": "a4459486",
			"getUserProfile(address)": "987ee156"
		}
	},
	"abi": [
		{
			"inputs": [],
			"stateMutability": "nonpayable",
			"type": "constructor"
		},
		{
			"inputs": [
				{
					"internalType": "string",
					"name": "_name",
					"type": "string"
				},
				{
					"internalType": "uint256",
					"name": "_age",
					"type": "uint256"
				}
			],
			"name": "createUserProfile",
			"outputs": [],
			"stateMutability": "nonpayable",
			"type": "function"
		},
		{
			"inputs": [
				{
					"internalType": "address",
					"name": "_user",
					"type": "address"
				}
			],
			"name": "getUserProfile",
			"outputs": [
				{
					"internalType": "string",
					"name": "",
					"type": "string"
				},
				{
					"internalType": "uint256",
					"name": "",
					"type": "uint256"
				}
			],
			"stateMutability": "view",
			"type": "function"
		}
	]
}