{
	"data": {
		"bytecode": {
			"linkReferences": {},
			"object": "608060405234801561000f575f80fd5b50604051610987380380610987833981810160405281019061003191906102b9565b835f819055508260019081610046919061053d565b508160025f6101000a81548173ffffffffffffffffffffffffffffffffffffffff021916908373ffffffffffffffffffffffffffffffffffffffff16021790555080600260146101000a81548160ff0219169083151502179055505050505061060c565b5f604051905090565b5f80fd5b5f80fd5b5f819050919050565b6100cd816100bb565b81146100d7575f80fd5b50565b5f815190506100e8816100c4565b92915050565b5f80fd5b5f80fd5b5f601f19601f8301169050919050565b7f4e487b71000000000000000000000000000000000000000000000000000000005f52604160045260245ffd5b61013c826100f6565b810181811067ffffffffffffffff8211171561015b5761015a610106565b5b80604052505050565b5f61016d6100aa565b90506101798282610133565b919050565b5f67ffffffffffffffff82111561019857610197610106565b5b6101a1826100f6565b9050602081019050919050565b8281835e5f83830152505050565b5f6101ce6101c98461017e565b610164565b9050828152602081018484840111156101ea576101e96100f2565b5b6101f58482856101ae565b509392505050565b5f82601f830112610211576102106100ee565b5b81516102218482602086016101bc565b91505092915050565b5f73ffffffffffffffffffffffffffffffffffffffff82169050919050565b5f6102538261022a565b9050919050565b61026381610249565b811461026d575f80fd5b50565b5f8151905061027e8161025a565b92915050565b5f8115159050919050565b61029881610284565b81146102a2575f80fd5b50565b5f815190506102b38161028f565b92915050565b5f805f80608085870312156102d1576102d06100b3565b5b5f6102de878288016100da565b945050602085015167ffffffffffffffff8111156102ff576102fe6100b7565b5b61030b878288016101fd565b935050604061031c87828801610270565b925050606061032d878288016102a5565b91505092959194509250565b5f81519050919050565b7f4e487b71000000000000000000000000000000000000000000000000000000005f52602260045260245ffd5b5f600282049050600182168061038757607f821691505b60208210810361039a57610399610343565b5b50919050565b5f819050815f5260205f209050919050565b5f6020601f8301049050919050565b5f82821b905092915050565b5f600883026103fc7fffffffffffffffffffffffffffffffffffffffffffffffffffffffffffffffff826103c1565b61040686836103c1565b95508019841693508086168417925050509392505050565b5f819050919050565b5f61044161043c610437846100bb565b61041e565b6100bb565b9050919050565b5f819050919050565b61045a83610427565b61046e61046682610448565b8484546103cd565b825550505050565b5f90565b610482610476565b61048d818484610451565b505050565b5b818110156104b0576104a55f8261047a565b600181019050610493565b5050565b601f8211156104f5576104c6816103a0565b6104cf846103b2565b810160208510156104de578190505b6104f26104ea856103b2565b830182610492565b50505b505050565b5f82821c905092915050565b5f6105155f19846008026104fa565b1980831691505092915050565b5f61052d8383610506565b9150826002028217905092915050565b61054682610339565b67ffffffffffffffff81111561055f5761055e610106565b5b6105698254610370565b6105748282856104b4565b5f60209050601f8311600181146105a5575f8415610593578287015190505b61059d8582610522565b865550610604565b601f1984166105b3866103a0565b5f5b828110156105da578489015182556001820191506020850194506020810190506105b5565b868310156105f757848901516105f3601f891682610506565b8355505b6001600288020188555050505b505050505050565b61036e806106195f395ff3fe608060405234801561000f575f80fd5b506004361061004a575f3560e01c80630dbe671f1461004e5780631fe5d6e31461006c5780634df7e3d01461008a578063e21f37ce146100a8575b5f80fd5b6100566100c6565b60405161006391906101a7565b60405180910390f35b6100746100cb565b60405161008191906101ff565b60405180910390f35b6100926100f0565b60405161009f9190610232565b60405180910390f35b6100b0610103565b6040516100bd91906102bb565b60405180910390f35b5f5481565b60025f9054906101000a900473ffffffffffffffffffffffffffffffffffffffff1681565b600260149054906101000a900460ff1681565b6001805461011090610308565b80601f016020809104026020016040519081016040528092919081815260200182805461013c90610308565b80156101875780601f1061015e57610100808354040283529160200191610187565b820191905f5260205f20905b81548152906001019060200180831161016a57829003601f168201915b505050505081565b5f819050919050565b6101a18161018f565b82525050565b5f6020820190506101ba5f830184610198565b92915050565b5f73ffffffffffffffffffffffffffffffffffffffff82169050919050565b5f6101e9826101c0565b9050919050565b6101f9816101df565b82525050565b5f6020820190506102125f8301846101f0565b92915050565b5f8115159050919050565b61022c81610218565b82525050565b5f6020820190506102455f830184610223565b92915050565b5f81519050919050565b5f82825260208201905092915050565b8281835e5f83830152505050565b5f601f19601f8301169050919050565b5f61028d8261024b565b6102978185610255565b93506102a7818560208601610265565b6102b081610273565b840191505092915050565b5f6020820190508181035f8301526102d38184610283565b905092915050565b7f4e487b71000000000000000000000000000000000000000000000000000000005f52602260045260245ffd5b5f600282049050600182168061031f57607f821691505b602082108103610332576103316102db565b5b5091905056fea264697066735822122068e90a023a12634db92757425245601c7feea3949caeeea50bab47a7539204df64736f6c634300081a0033",
			"opcodes": "PUSH1 0x80 PUSH1 0x40 MSTORE CALLVALUE DUP1 ISZERO PUSH2 0xF JUMPI PUSH0 DUP1 REVERT JUMPDEST POP PUSH1 0x40 MLOAD PUSH2 0x987 CODESIZE SUB DUP1 PUSH2 0x987 DUP4 CODECOPY DUP2 DUP2 ADD PUSH1 0x40 MSTORE DUP2 ADD SWAP1 PUSH2 0x31 SWAP2 SWAP1 PUSH2 0x2B9 JUMP JUMPDEST DUP4 PUSH0 DUP2 SWAP1 SSTORE POP DUP3 PUSH1 0x1 SWAP1 DUP2 PUSH2 0x46 SWAP2 SWAP1 PUSH2 0x53D JUMP JUMPDEST POP DUP2 PUSH1 0x2 PUSH0 PUSH2 0x100 EXP DUP2 SLOAD DUP2 PUSH20 0xFFFFFFFFFFFFFFFFFFFFFFFFFFFFFFFFFFFFFFFF MUL NOT AND SWAP1 DUP4 PUSH20 0xFFFFFFFFFFFFFFFFFFFFFFFFFFFFFFFFFFFFFFFF AND MUL OR SWAP1 SSTORE POP DUP1 PUSH1 0x2 PUSH1 0x14 PUSH2 0x100 EXP DUP2 SLOAD DUP2 PUSH1 0xFF MUL NOT AND SWAP1 DUP4 ISZERO ISZERO MUL OR SWAP1 SSTORE POP POP POP POP POP PUSH2 0x60C JUMP JUMPDEST PUSH0 PUSH1 0x40 MLOAD SWAP1 POP SWAP1 JUMP JUMPDEST PUSH0 DUP1 REVERT JUMPDEST PUSH0 DUP1 REVERT JUMPDEST PUSH0 DUP2 SWAP1 POP SWAP2 SWAP1 POP JUMP JUMPDEST PUSH2 0xCD DUP2 PUSH2 0xBB JUMP JUMPDEST DUP2 EQ PUSH2 0xD7 JUMPI PUSH0 DUP1 REVERT JUMPDEST POP JUMP JUMPDEST PUSH0 DUP2 MLOAD SWAP1 POP PUSH2 0xE8 DUP2 PUSH2 0xC4 JUMP JUMPDEST SWAP3 SWAP2 POP POP JUMP JUMPDEST PUSH0 DUP1 REVERT JUMPDEST PUSH0 DUP1 REVERT JUMPDEST PUSH0 PUSH1 0x1F NOT PUSH1 0x1F DUP4 ADD AND SWAP1 POP SWAP2 SWAP1 POP JUMP JUMPDEST PUSH32 0x4E487B7100000000000000000000000000000000000000000000000000000000 PUSH0 MSTORE PUSH1 0x41 PUSH1 0x4 MSTORE PUSH1 0x24 PUSH0 REVERT JUMPDEST PUSH2 0x13C DUP3 PUSH2 0xF6 JUMP JUMPDEST DUP2 ADD DUP2 DUP2 LT PUSH8 0xFFFFFFFFFFFFFFFF DUP3 GT OR ISZERO PUSH2 0x15B JUMPI PUSH2 0x15A PUSH2 0x106 JUMP JUMPDEST JUMPDEST DUP1 PUSH1 0x40 MSTORE POP POP POP JUMP JUMPDEST PUSH0 PUSH2 0x16D PUSH2 0xAA JUMP JUMPDEST SWAP1 POP PUSH2 0x179 DUP3 DUP3 PUSH2 0x133 JUMP JUMPDEST SWAP2 SWAP1 POP JUMP JUMPDEST PUSH0 PUSH8 0xFFFFFFFFFFFFFFFF DUP3 GT ISZERO PUSH2 0x198 JUMPI PUSH2 0x197 PUSH2 0x106 JUMP JUMPDEST JUMPDEST PUSH2 0x1A1 DUP3 PUSH2 0xF6 JUMP JUMPDEST SWAP1 POP PUSH1 0x20 DUP2 ADD SWAP1 POP SWAP2 SWAP1 POP JUMP JUMPDEST DUP3 DUP2 DUP4 MCOPY PUSH0 DUP4 DUP4 ADD MSTORE POP POP POP JUMP JUMPDEST PUSH0 PUSH2 0x1CE PUSH2 0x1C9 DUP5 PUSH2 0x17E JUMP JUMPDEST PUSH2 0x164 JUMP JUMPDEST SWAP1 POP DUP3 DUP2 MSTORE PUSH1 0x20 DUP2 ADD DUP5 DUP5 DUP5 ADD GT ISZERO PUSH2 0x1EA JUMPI PUSH2 0x1E9 PUSH2 0xF2 JUMP JUMPDEST JUMPDEST PUSH2 0x1F5 DUP5 DUP3 DUP6 PUSH2 0x1AE JUMP JUMPDEST POP SWAP4 SWAP3 POP POP POP JUMP JUMPDEST PUSH0 DUP3 PUSH1 0x1F DUP4 ADD SLT PUSH2 0x211 JUMPI PUSH2 0x210 PUSH2 0xEE JUMP JUMPDEST JUMPDEST DUP2 MLOAD PUSH2 0x221 DUP5 DUP3 PUSH1 0x20 DUP7 ADD PUSH2 0x1BC JUMP JUMPDEST SWAP2 POP POP SWAP3 SWAP2 POP POP JUMP JUMPDEST PUSH0 PUSH20 0xFFFFFFFFFFFFFFFFFFFFFFFFFFFFFFFFFFFFFFFF DUP3 AND SWAP1 POP SWAP2 SWAP1 POP JUMP JUMPDEST PUSH0 PUSH2 0x253 DUP3 PUSH2 0x22A JUMP JUMPDEST SWAP1 POP SWAP2 SWAP1 POP JUMP JUMPDEST PUSH2 0x263 DUP2 PUSH2 0x249 JUMP JUMPDEST DUP2 EQ PUSH2 0x26D JUMPI PUSH0 DUP1 REVERT JUMPDEST POP JUMP JUMPDEST PUSH0 DUP2 MLOAD SWAP1 POP PUSH2 0x27E DUP2 PUSH2 0x25A JUMP JUMPDEST SWAP3 SWAP2 POP POP JUMP JUMPDEST PUSH0 DUP2 ISZERO ISZERO SWAP1 POP SWAP2 SWAP1 POP JUMP JUMPDEST PUSH2 0x298 DUP2 PUSH2 0x284 JUMP JUMPDEST DUP2 EQ PUSH2 0x2A2 JUMPI PUSH0 DUP1 REVERT JUMPDEST POP JUMP JUMPDEST PUSH0 DUP2 MLOAD SWAP1 POP PUSH2 0x2B3 DUP2 PUSH2 0x28F JUMP JUMPDEST SWAP3 SWAP2 POP POP JUMP JUMPDEST PUSH0 DUP1 PUSH0 DUP1 PUSH1 0x80 DUP6 DUP8 SUB SLT ISZERO PUSH2 0x2D1 JUMPI PUSH2 0x2D0 PUSH2 0xB3 JUMP JUMPDEST JUMPDEST PUSH0 PUSH2 0x2DE DUP8 DUP3 DUP9 ADD PUSH2 0xDA JUMP JUMPDEST SWAP5 POP POP PUSH1 0x20 DUP6 ADD MLOAD PUSH8 0xFFFFFFFFFFFFFFFF DUP2 GT ISZERO PUSH2 0x2FF JUMPI PUSH2 0x2FE PUSH2 0xB7 JUMP JUMPDEST JUMPDEST PUSH2 0x30B DUP8 DUP3 DUP9 ADD PUSH2 0x1FD JUMP JUMPDEST SWAP4 POP POP PUSH1 0x40 PUSH2 0x31C DUP8 DUP3 DUP9 ADD PUSH2 0x270 JUMP JUMPDEST SWAP3 POP POP PUSH1 0x60 PUSH2 0x32D DUP8 DUP3 DUP9 ADD PUSH2 0x2A5 JUMP JUMPDEST SWAP2 POP POP SWAP3 SWAP6 SWAP2 SWAP5 POP SWAP3 POP JUMP JUMPDEST PUSH0 DUP2 MLOAD SWAP1 POP SWAP2 SWAP1 POP JUMP JUMPDEST PUSH32 0x4E487B7100000000000000000000000000000000000000000000000000000000 PUSH0 MSTORE PUSH1 0x22 PUSH1 0x4 MSTORE PUSH1 0x24 PUSH0 REVERT JUMPDEST PUSH0 PUSH1 0x2 DUP3 DIV SWAP1 POP PUSH1 0x1 DUP3 AND DUP1 PUSH2 0x387 JUMPI PUSH1 0x7F DUP3 AND SWAP2 POP JUMPDEST PUSH1 0x20 DUP3 LT DUP2 SUB PUSH2 0x39A JUMPI PUSH2 0x399 PUSH2 0x343 JUMP JUMPDEST JUMPDEST POP SWAP2 SWAP1 POP JUMP JUMPDEST PUSH0 DUP2 SWAP1 POP DUP2 PUSH0 MSTORE PUSH1 0x20 PUSH0 KECCAK256 SWAP1 POP SWAP2 SWAP1 POP JUMP JUMPDEST PUSH0 PUSH1 0x20 PUSH1 0x1F DUP4 ADD DIV SWAP1 POP SWAP2 SWAP1 POP JUMP JUMPDEST PUSH0 DUP3 DUP3 SHL SWAP1 POP SWAP3 SWAP2 POP POP JUMP JUMPDEST PUSH0 PUSH1 0x8 DUP4 MUL PUSH2 0x3FC PUSH32 0xFFFFFFFFFFFFFFFFFFFFFFFFFFFFFFFFFFFFFFFFFFFFFFFFFFFFFFFFFFFFFFFF DUP3 PUSH2 0x3C1 JUMP JUMPDEST PUSH2 0x406 DUP7 DUP4 PUSH2 0x3C1 JUMP JUMPDEST SWAP6 POP DUP1 NOT DUP5 AND SWAP4 POP DUP1 DUP7 AND DUP5 OR SWAP3 POP POP POP SWAP4 SWAP3 POP POP POP JUMP JUMPDEST PUSH0 DUP2 SWAP1 POP SWAP2 SWAP1 POP JUMP JUMPDEST PUSH0 PUSH2 0x441 PUSH2 0x43C PUSH2 0x437 DUP5 PUSH2 0xBB JUMP JUMPDEST PUSH2 0x41E JUMP JUMPDEST PUSH2 0xBB JUMP JUMPDEST SWAP1 POP SWAP2 SWAP1 POP JUMP JUMPDEST PUSH0 DUP2 SWAP1 POP SWAP2 SWAP1 POP JUMP JUMPDEST PUSH2 0x45A DUP4 PUSH2 0x427 JUMP JUMPDEST PUSH2 0x46E PUSH2 0x466 DUP3 PUSH2 0x448 JUMP JUMPDEST DUP5 DUP5 SLOAD PUSH2 0x3CD JUMP JUMPDEST DUP3 SSTORE POP POP POP POP JUMP JUMPDEST PUSH0 SWAP1 JUMP JUMPDEST PUSH2 0x482 PUSH2 0x476 JUMP JUMPDEST PUSH2 0x48D DUP2 DUP5 DUP5 PUSH2 0x451 JUMP JUMPDEST POP POP POP JUMP JUMPDEST JUMPDEST DUP2 DUP2 LT ISZERO PUSH2 0x4B0 JUMPI PUSH2 0x4A5 PUSH0 DUP3 PUSH2 0x47A JUMP JUMPDEST PUSH1 0x1 DUP2 ADD SWAP1 POP PUSH2 0x493 JUMP JUMPDEST POP POP JUMP JUMPDEST PUSH1 0x1F DUP3 GT ISZERO PUSH2 0x4F5 JUMPI PUSH2 0x4C6 DUP2 PUSH2 0x3A0 JUMP JUMPDEST PUSH2 0x4CF DUP5 PUSH2 0x3B2 JUMP JUMPDEST DUP2 ADD PUSH1 0x20 DUP6 LT ISZERO PUSH2 0x4DE JUMPI DUP2 SWAP1 POP JUMPDEST PUSH2 0x4F2 PUSH2 0x4EA DUP6 PUSH2 0x3B2 JUMP JUMPDEST DUP4 ADD DUP3 PUSH2 0x492 JUMP JUMPDEST POP POP JUMPDEST POP POP POP JUMP JUMPDEST PUSH0 DUP3 DUP3 SHR SWAP1 POP SWAP3 SWAP2 POP POP JUMP JUMPDEST PUSH0 PUSH2 0x515 PUSH0 NOT DUP5 PUSH1 0x8 MUL PUSH2 0x4FA JUMP JUMPDEST NOT DUP1 DUP4 AND SWAP2 POP POP SWAP3 SWAP2 POP POP JUMP JUMPDEST PUSH0 PUSH2 0x52D DUP4 DUP4 PUSH2 0x506 JUMP JUMPDEST SWAP2 POP DUP3 PUSH1 0x2 MUL DUP3 OR SWAP1 POP SWAP3 SWAP2 POP POP JUMP JUMPDEST PUSH2 0x546 DUP3 PUSH2 0x339 JUMP JUMPDEST PUSH8 0xFFFFFFFFFFFFFFFF DUP2 GT ISZERO PUSH2 0x55F JUMPI PUSH2 0x55E PUSH2 0x106 JUMP JUMPDEST JUMPDEST PUSH2 0x569 DUP3 SLOAD PUSH2 0x370 JUMP JUMPDEST PUSH2 0x574 DUP3 DUP3 DUP6 PUSH2 0x4B4 JUMP JUMPDEST PUSH0 PUSH1 0x20 SWAP1 POP PUSH1 0x1F DUP4 GT PUSH1 0x1 DUP2 EQ PUSH2 0x5A5 JUMPI PUSH0 DUP5 ISZERO PUSH2 0x593 JUMPI DUP3 DUP8 ADD MLOAD SWAP1 POP JUMPDEST PUSH2 0x59D DUP6 DUP3 PUSH2 0x522 JUMP JUMPDEST DUP7 SSTORE POP PUSH2 0x604 JUMP JUMPDEST PUSH1 0x1F NOT DUP5 AND PUSH2 0x5B3 DUP7 PUSH2 0x3A0 JUMP JUMPDEST PUSH0 JUMPDEST DUP3 DUP2 LT ISZERO PUSH2 0x5DA JUMPI DUP5 DUP10 ADD MLOAD DUP3 SSTORE PUSH1 0x1 DUP3 ADD SWAP2 POP PUSH1 0x20 DUP6 ADD SWAP5 POP PUSH1 0x20 DUP2 ADD SWAP1 POP PUSH2 0x5B5 JUMP JUMPDEST DUP7 DUP4 LT ISZERO PUSH2 0x5F7 JUMPI DUP5 DUP10 ADD MLOAD PUSH2 0x5F3 PUSH1 0x1F DUP10 AND DUP3 PUSH2 0x506 JUMP JUMPDEST DUP4 SSTORE POP JUMPDEST PUSH1 0x1 PUSH1 0x2 DUP9 MUL ADD DUP9 SSTORE POP POP POP JUMPDEST POP POP POP POP POP POP JUMP JUMPDEST PUSH2 0x36E DUP1 PUSH2 0x619 PUSH0 CODECOPY PUSH0 RETURN INVALID PUSH1 0x80 PUSH1 0x40 MSTORE CALLVALUE DUP1 ISZERO PUSH2 0xF JUMPI PUSH0 DUP1 REVERT JUMPDEST POP PUSH1 0x4 CALLDATASIZE LT PUSH2 0x4A JUMPI PUSH0 CALLDATALOAD PUSH1 0xE0 SHR DUP1 PUSH4 0xDBE671F EQ PUSH2 0x4E JUMPI DUP1 PUSH4 0x1FE5D6E3 EQ PUSH2 0x6C JUMPI DUP1 PUSH4 0x4DF7E3D0 EQ PUSH2 0x8A JUMPI DUP1 PUSH4 0xE21F37CE EQ PUSH2 0xA8 JUMPI JUMPDEST PUSH0 DUP1 REVERT JUMPDEST PUSH2 0x56 PUSH2 0xC6 JUMP JUMPDEST PUSH1 0x40 MLOAD PUSH2 0x63 SWAP2 SWAP1 PUSH2 0x1A7 JUMP JUMPDEST PUSH1 0x40 MLOAD DUP1 SWAP2 SUB SWAP1 RETURN JUMPDEST PUSH2 0x74 PUSH2 0xCB JUMP JUMPDEST PUSH1 0x40 MLOAD PUSH2 0x81 SWAP2 SWAP1 PUSH2 0x1FF JUMP JUMPDEST PUSH1 0x40 MLOAD DUP1 SWAP2 SUB SWAP1 RETURN JUMPDEST PUSH2 0x92 PUSH2 0xF0 JUMP JUMPDEST PUSH1 0x40 MLOAD PUSH2 0x9F SWAP2 SWAP1 PUSH2 0x232 JUMP JUMPDEST PUSH1 0x40 MLOAD DUP1 SWAP2 SUB SWAP1 RETURN JUMPDEST PUSH2 0xB0 PUSH2 0x103 JUMP JUMPDEST PUSH1 0x40 MLOAD PUSH2 0xBD SWAP2 SWAP1 PUSH2 0x2BB JUMP JUMPDEST PUSH1 0x40 MLOAD DUP1 SWAP2 SUB SWAP1 RETURN JUMPDEST PUSH0 SLOAD DUP2 JUMP JUMPDEST PUSH1 0x2 PUSH0 SWAP1 SLOAD SWAP1 PUSH2 0x100 EXP SWAP1 DIV PUSH20 0xFFFFFFFFFFFFFFFFFFFFFFFFFFFFFFFFFFFFFFFF AND DUP2 JUMP JUMPDEST PUSH1 0x2 PUSH1 0x14 SWAP1 SLOAD SWAP1 PUSH2 0x100 EXP SWAP1 DIV PUSH1 0xFF AND DUP2 JUMP JUMPDEST PUSH1 0x1 DUP1 SLOAD PUSH2 0x110 SWAP1 PUSH2 0x308 JUMP JUMPDEST DUP1 PUSH1 0x1F ADD PUSH1 0x20 DUP1 SWAP2 DIV MUL PUSH1 0x20 ADD PUSH1 0x40 MLOAD SWAP1 DUP2 ADD PUSH1 0x40 MSTORE DUP1 SWAP3 SWAP2 SWAP1 DUP2 DUP2 MSTORE PUSH1 0x20 ADD DUP3 DUP1 SLOAD PUSH2 0x13C SWAP1 PUSH2 0x308 JUMP JUMPDEST DUP1 ISZERO PUSH2 0x187 JUMPI DUP1 PUSH1 0x1F LT PUSH2 0x15E JUMPI PUSH2 0x100 DUP1 DUP4 SLOAD DIV MUL DUP4 MSTORE SWAP2 PUSH1 0x20 ADD SWAP2 PUSH2 0x187 JUMP JUMPDEST DUP3 ADD SWAP2 SWAP1 PUSH0 MSTORE PUSH1 0x20 PUSH0 KECCAK256 SWAP1 JUMPDEST DUP2 SLOAD DUP2 MSTORE SWAP1 PUSH1 0x1 ADD SWAP1 PUSH1 0x20 ADD DUP1 DUP4 GT PUSH2 0x16A JUMPI DUP3 SWAP1 SUB PUSH1 0x1F AND DUP3 ADD SWAP2 JUMPDEST POP POP POP POP POP DUP2 JUMP JUMPDEST PUSH0 DUP2 SWAP1 POP SWAP2 SWAP1 POP JUMP JUMPDEST PUSH2 0x1A1 DUP2 PUSH2 0x18F JUMP JUMPDEST DUP3 MSTORE POP POP JUMP JUMPDEST PUSH0 PUSH1 0x20 DUP3 ADD SWAP1 POP PUSH2 0x1BA PUSH0 DUP4 ADD DUP5 PUSH2 0x198 JUMP JUMPDEST SWAP3 SWAP2 POP POP JUMP JUMPDEST PUSH0 PUSH20 0xFFFFFFFFFFFFFFFFFFFFFFFFFFFFFFFFFFFFFFFF DUP3 AND SWAP1 POP SWAP2 SWAP1 POP JUMP JUMPDEST PUSH0 PUSH2 0x1E9 DUP3 PUSH2 0x1C0 JUMP JUMPDEST SWAP1 POP SWAP2 SWAP1 POP JUMP JUMPDEST PUSH2 0x1F9 DUP2 PUSH2 0x1DF JUMP JUMPDEST DUP3 MSTORE POP POP JUMP JUMPDEST PUSH0 PUSH1 0x20 DUP3 ADD SWAP1 POP PUSH2 0x212 PUSH0 DUP4 ADD DUP5 PUSH2 0x1F0 JUMP JUMPDEST SWAP3 SWAP2 POP POP JUMP JUMPDEST PUSH0 DUP2 ISZERO ISZERO SWAP1 POP SWAP2 SWAP1 POP JUMP JUMPDEST PUSH2 0x22C DUP2 PUSH2 0x218 JUMP JUMPDEST DUP3 MSTORE POP POP JUMP JUMPDEST PUSH0 PUSH1 0x20 DUP3 ADD SWAP1 POP PUSH2 0x245 PUSH0 DUP4 ADD DUP5 PUSH2 0x223 JUMP JUMPDEST SWAP3 SWAP2 POP POP JUMP JUMPDEST PUSH0 DUP2 MLOAD SWAP1 POP SWAP2 SWAP1 POP JUMP JUMPDEST PUSH0 DUP3 DUP3 MSTORE PUSH1 0x20 DUP3 ADD SWAP1 POP SWAP3 SWAP2 POP POP JUMP JUMPDEST DUP3 DUP2 DUP4 MCOPY PUSH0 DUP4 DUP4 ADD MSTORE POP POP POP JUMP JUMPDEST PUSH0 PUSH1 0x1F NOT PUSH1 0x1F DUP4 ADD AND SWAP1 POP SWAP2 SWAP1 POP JUMP JUMPDEST PUSH0 PUSH2 0x28D DUP3 PUSH2 0x24B JUMP JUMPDEST PUSH2 0x297 DUP2 DUP6 PUSH2 0x255 JUMP JUMPDEST SWAP4 POP PUSH2 0x2A7 DUP2 DUP6 PUSH1 0x20 DUP7 ADD PUSH2 0x265 JUMP JUMPDEST PUSH2 0x2B0 DUP2 PUSH2 0x273 JUMP JUMPDEST DUP5 ADD SWAP2 POP POP SWAP3 SWAP2 POP POP JUMP JUMPDEST PUSH0 PUSH1 0x20 DUP3 ADD SWAP1 POP DUP2 DUP2 SUB PUSH0 DUP4 ADD MSTORE PUSH2 0x2D3 DUP2 DUP5 PUSH2 0x283 JUMP JUMPDEST SWAP1 POP SWAP3 SWAP2 POP POP JUMP JUMPDEST PUSH32 0x4E487B7100000000000000000000000000000000000000000000000000000000 PUSH0 MSTORE PUSH1 0x22 PUSH1 0x4 MSTORE PUSH1 0x24 PUSH0 REVERT JUMPDEST PUSH0 PUSH1 0x2 DUP3 DIV SWAP1 POP PUSH1 0x1 DUP3 AND DUP1 PUSH2 0x31F JUMPI PUSH1 0x7F DUP3 AND SWAP2 POP JUMPDEST PUSH1 0x20 DUP3 LT DUP2 SUB PUSH2 0x332 JUMPI PUSH2 0x331 PUSH2 0x2DB JUMP JUMPDEST JUMPDEST POP SWAP2 SWAP1 POP JUMP INVALID LOG2 PUSH5 0x6970667358 0x22 SLT KECCAK256 PUSH9 0xE90A023A12634DB927 JUMPI TIMESTAMP MSTORE GASLIMIT PUSH1 0x1C PUSH32 0xEEA3949CAEEEA50BAB47A7539204DF64736F6C634300081A0033000000000000 "
		},
		"gasEstimates": {
			"creation": {
				"codeDepositCost": "175600",
				"executionCost": "infinite",
				"totalCost": "infinite"
			},
			"external": {
				"a()": "2402",
				"ab()": "2508",
				"b()": "2539",
				"message()": "infinite"
			}
		},
		"methodIdentifiers": {
			"a()": "0dbe671f",
			"ab()": "1fe5d6e3",
			"b()": "4df7e3d0",
			"message()": "e21f37ce"
		}
	},
	"abi": [
		{
			"inputs": [
				{
					"internalType": "uint256",
					"name": "_a",
					"type": "uint256"
				},
				{
					"internalType": "string",
					"name": "_message",
					"type": "string"
				},
				{
					"internalType": "address",
					"name": "_ab",
					"type": "address"
				},
				{
					"internalType": "bool",
					"name": "_b",
					"type": "bool"
				}
			],
			"stateMutability": "nonpayable",
			"type": "constructor"
		},
		{
			"inputs": [],
			"name": "a",
			"outputs": [
				{
					"internalType": "uint256",
					"name": "",
					"type": "uint256"
				}
			],
			"stateMutability": "view",
			"type": "function"
		},
		{
			"inputs": [],
			"name": "ab",
			"outputs": [
				{
					"internalType": "address",
					"name": "",
					"type": "address"
				}
			],
			"stateMutability": "view",
			"type": "function"
		},
		{
			"inputs": [],
			"name": "b",
			"outputs": [
				{
					"internalType": "bool",
					"name": "",
					"type": "bool"
				}
			],
			"stateMutability": "view",
			"type": "function"
		},
		{
			"inputs": [],
			"name": "message",
			"outputs": [
				{
					"internalType": "string",
					"name": "",
					"type": "string"
				}
			],
			"stateMutability": "view",
			"type": "function"
		}
	]
}