{
	"data": {
		"bytecode": {
			"linkReferences": {},
			"object": "6080604052348015600e575f80fd5b506103ed8061001c5f395ff3fe608060405234801561000f575f80fd5b5060043610610034575f3560e01c80635a55c1f014610038578063de29278914610054575b5f80fd5b610052600480360381019061004d919061020e565b610072565b005b61005c61010a565b60405161006991906102a9565b60405180910390f35b60018114806100815750600281145b6100c0576040517f08c379a00000000000000000000000000000000000000000000000000000000081526004016100b790610339565b60405180910390fd5b600181036100e55760015f808282546100d99190610384565b92505081905550610107565b60028103610106576001805f8282546100fe9190610384565b925050819055505b5b50565b60606001545f541115610154576040518060400160405280600e81526020017f43616e6469646174653120776f6e00000000000000000000000000000000000081525090506101d4565b6001545f540361019b576040518060400160405280600d81526020017f456c656374696f6e20546965640000000000000000000000000000000000000081525090506101d4565b6040518060400160405280600e81526020017f43616e6469646174653220776f6e00000000000000000000000000000000000081525090505b90565b5f80fd5b5f819050919050565b6101ed816101db565b81146101f7575f80fd5b50565b5f81359050610208816101e4565b92915050565b5f60208284031215610223576102226101d7565b5b5f610230848285016101fa565b91505092915050565b5f81519050919050565b5f82825260208201905092915050565b8281835e5f83830152505050565b5f601f19601f8301169050919050565b5f61027b82610239565b6102858185610243565b9350610295818560208601610253565b61029e81610261565b840191505092915050565b5f6020820190508181035f8301526102c18184610271565b905092915050565b7f696e707574203120666f72206361646964617465203120616e6420696e7075745f8201527f203220666f722063616e64696461746520320000000000000000000000000000602082015250565b5f610323603283610243565b915061032e826102c9565b604082019050919050565b5f6020820190508181035f83015261035081610317565b9050919050565b7f4e487b71000000000000000000000000000000000000000000000000000000005f52601160045260245ffd5b5f61038e826101db565b9150610399836101db565b92508282019050808211156103b1576103b0610357565b5b9291505056fea264697066735822122025e1adb993dea8b205ba8dff66d725d0909034eda246136e234cb5630477e62864736f6c634300081a0033",
			"opcodes": "PUSH1 0x80 PUSH1 0x40 MSTORE CALLVALUE DUP1 ISZERO PUSH1 0xE JUMPI PUSH0 DUP1 REVERT JUMPDEST POP PUSH2 0x3ED DUP1 PUSH2 0x1C PUSH0 CODECOPY PUSH0 RETURN INVALID PUSH1 0x80 PUSH1 0x40 MSTORE CALLVALUE DUP1 ISZERO PUSH2 0xF JUMPI PUSH0 DUP1 REVERT JUMPDEST POP PUSH1 0x4 CALLDATASIZE LT PUSH2 0x34 JUMPI PUSH0 CALLDATALOAD PUSH1 0xE0 SHR DUP1 PUSH4 0x5A55C1F0 EQ PUSH2 0x38 JUMPI DUP1 PUSH4 0xDE292789 EQ PUSH2 0x54 JUMPI JUMPDEST PUSH0 DUP1 REVERT JUMPDEST PUSH2 0x52 PUSH1 0x4 DUP1 CALLDATASIZE SUB DUP2 ADD SWAP1 PUSH2 0x4D SWAP2 SWAP1 PUSH2 0x20E JUMP JUMPDEST PUSH2 0x72 JUMP JUMPDEST STOP JUMPDEST PUSH2 0x5C PUSH2 0x10A JUMP JUMPDEST PUSH1 0x40 MLOAD PUSH2 0x69 SWAP2 SWAP1 PUSH2 0x2A9 JUMP JUMPDEST PUSH1 0x40 MLOAD DUP1 SWAP2 SUB SWAP1 RETURN JUMPDEST PUSH1 0x1 DUP2 EQ DUP1 PUSH2 0x81 JUMPI POP PUSH1 0x2 DUP2 EQ JUMPDEST PUSH2 0xC0 JUMPI PUSH1 0x40 MLOAD PUSH32 0x8C379A000000000000000000000000000000000000000000000000000000000 DUP2 MSTORE PUSH1 0x4 ADD PUSH2 0xB7 SWAP1 PUSH2 0x339 JUMP JUMPDEST PUSH1 0x40 MLOAD DUP1 SWAP2 SUB SWAP1 REVERT JUMPDEST PUSH1 0x1 DUP2 SUB PUSH2 0xE5 JUMPI PUSH1 0x1 PUSH0 DUP1 DUP3 DUP3 SLOAD PUSH2 0xD9 SWAP2 SWAP1 PUSH2 0x384 JUMP JUMPDEST SWAP3 POP POP DUP2 SWAP1 SSTORE POP PUSH2 0x107 JUMP JUMPDEST PUSH1 0x2 DUP2 SUB PUSH2 0x106 JUMPI PUSH1 0x1 DUP1 PUSH0 DUP3 DUP3 SLOAD PUSH2 0xFE SWAP2 SWAP1 PUSH2 0x384 JUMP JUMPDEST SWAP3 POP POP DUP2 SWAP1 SSTORE POP JUMPDEST JUMPDEST POP JUMP JUMPDEST PUSH1 0x60 PUSH1 0x1 SLOAD PUSH0 SLOAD GT ISZERO PUSH2 0x154 JUMPI PUSH1 0x40 MLOAD DUP1 PUSH1 0x40 ADD PUSH1 0x40 MSTORE DUP1 PUSH1 0xE DUP2 MSTORE PUSH1 0x20 ADD PUSH32 0x43616E6469646174653120776F6E000000000000000000000000000000000000 DUP2 MSTORE POP SWAP1 POP PUSH2 0x1D4 JUMP JUMPDEST PUSH1 0x1 SLOAD PUSH0 SLOAD SUB PUSH2 0x19B JUMPI PUSH1 0x40 MLOAD DUP1 PUSH1 0x40 ADD PUSH1 0x40 MSTORE DUP1 PUSH1 0xD DUP2 MSTORE PUSH1 0x20 ADD PUSH32 0x456C656374696F6E205469656400000000000000000000000000000000000000 DUP2 MSTORE POP SWAP1 POP PUSH2 0x1D4 JUMP JUMPDEST PUSH1 0x40 MLOAD DUP1 PUSH1 0x40 ADD PUSH1 0x40 MSTORE DUP1 PUSH1 0xE DUP2 MSTORE PUSH1 0x20 ADD PUSH32 0x43616E6469646174653220776F6E000000000000000000000000000000000000 DUP2 MSTORE POP SWAP1 POP JUMPDEST SWAP1 JUMP JUMPDEST PUSH0 DUP1 REVERT JUMPDEST PUSH0 DUP2 SWAP1 POP SWAP2 SWAP1 POP JUMP JUMPDEST PUSH2 0x1ED DUP2 PUSH2 0x1DB JUMP JUMPDEST DUP2 EQ PUSH2 0x1F7 JUMPI PUSH0 DUP1 REVERT JUMPDEST POP JUMP JUMPDEST PUSH0 DUP2 CALLDATALOAD SWAP1 POP PUSH2 0x208 DUP2 PUSH2 0x1E4 JUMP JUMPDEST SWAP3 SWAP2 POP POP JUMP JUMPDEST PUSH0 PUSH1 0x20 DUP3 DUP5 SUB SLT ISZERO PUSH2 0x223 JUMPI PUSH2 0x222 PUSH2 0x1D7 JUMP JUMPDEST JUMPDEST PUSH0 PUSH2 0x230 DUP5 DUP3 DUP6 ADD PUSH2 0x1FA JUMP JUMPDEST SWAP2 POP POP SWAP3 SWAP2 POP POP JUMP JUMPDEST PUSH0 DUP2 MLOAD SWAP1 POP SWAP2 SWAP1 POP JUMP JUMPDEST PUSH0 DUP3 DUP3 MSTORE PUSH1 0x20 DUP3 ADD SWAP1 POP SWAP3 SWAP2 POP POP JUMP JUMPDEST DUP3 DUP2 DUP4 MCOPY PUSH0 DUP4 DUP4 ADD MSTORE POP POP POP JUMP JUMPDEST PUSH0 PUSH1 0x1F NOT PUSH1 0x1F DUP4 ADD AND SWAP1 POP SWAP2 SWAP1 POP JUMP JUMPDEST PUSH0 PUSH2 0x27B DUP3 PUSH2 0x239 JUMP JUMPDEST PUSH2 0x285 DUP2 DUP6 PUSH2 0x243 JUMP JUMPDEST SWAP4 POP PUSH2 0x295 DUP2 DUP6 PUSH1 0x20 DUP7 ADD PUSH2 0x253 JUMP JUMPDEST PUSH2 0x29E DUP2 PUSH2 0x261 JUMP JUMPDEST DUP5 ADD SWAP2 POP POP SWAP3 SWAP2 POP POP JUMP JUMPDEST PUSH0 PUSH1 0x20 DUP3 ADD SWAP1 POP DUP2 DUP2 SUB PUSH0 DUP4 ADD MSTORE PUSH2 0x2C1 DUP2 DUP5 PUSH2 0x271 JUMP JUMPDEST SWAP1 POP SWAP3 SWAP2 POP POP JUMP JUMPDEST PUSH32 0x696E707574203120666F72206361646964617465203120616E6420696E707574 PUSH0 DUP3 ADD MSTORE PUSH32 0x203220666F722063616E64696461746520320000000000000000000000000000 PUSH1 0x20 DUP3 ADD MSTORE POP JUMP JUMPDEST PUSH0 PUSH2 0x323 PUSH1 0x32 DUP4 PUSH2 0x243 JUMP JUMPDEST SWAP2 POP PUSH2 0x32E DUP3 PUSH2 0x2C9 JUMP JUMPDEST PUSH1 0x40 DUP3 ADD SWAP1 POP SWAP2 SWAP1 POP JUMP JUMPDEST PUSH0 PUSH1 0x20 DUP3 ADD SWAP1 POP DUP2 DUP2 SUB PUSH0 DUP4 ADD MSTORE PUSH2 0x350 DUP2 PUSH2 0x317 JUMP JUMPDEST SWAP1 POP SWAP2 SWAP1 POP JUMP JUMPDEST PUSH32 0x4E487B7100000000000000000000000000000000000000000000000000000000 PUSH0 MSTORE PUSH1 0x11 PUSH1 0x4 MSTORE PUSH1 0x24 PUSH0 REVERT JUMPDEST PUSH0 PUSH2 0x38E DUP3 PUSH2 0x1DB JUMP JUMPDEST SWAP2 POP PUSH2 0x399 DUP4 PUSH2 0x1DB JUMP JUMPDEST SWAP3 POP DUP3 DUP3 ADD SWAP1 POP DUP1 DUP3 GT ISZERO PUSH2 0x3B1 JUMPI PUSH2 0x3B0 PUSH2 0x357 JUMP JUMPDEST JUMPDEST SWAP3 SWAP2 POP POP JUMP INVALID LOG2 PUSH5 0x6970667358 0x22 SLT KECCAK256 0x25 0xE1 0xAD 0xB9 SWAP4 0xDE 0xA8 0xB2 SDIV 0xBA DUP14 SELFDESTRUCT PUSH7 0xD725D0909034ED LOG2 CHAINID SGT PUSH15 0x234CB5630477E62864736F6C634300 ADDMOD BYTE STOP CALLER "
		},
		"gasEstimates": {
			"creation": {
				"codeDepositCost": "201000",
				"executionCost": "243",
				"totalCost": "201243"
			},
			"external": {
				"getResult()": "infinite",
				"getVote(uint256)": "infinite"
			}
		},
		"methodIdentifiers": {
			"getResult()": "de292789",
			"getVote(uint256)": "5a55c1f0"
		}
	},
	"abi": [
		{
			"inputs": [],
			"name": "getResult",
			"outputs": [
				{
					"internalType": "string",
					"name": "",
					"type": "string"
				}
			],
			"stateMutability": "view",
			"type": "function"
		},
		{
			"inputs": [
				{
					"internalType": "uint256",
					"name": "vote",
					"type": "uint256"
				}
			],
			"name": "getVote",
			"outputs": [],
			"stateMutability": "nonpayable",
			"type": "function"
		}
	]
}